{
  "contractName": "AssetsRequirements",
  "abi": [
    {
      "constant": false,
      "inputs": [
        {
          "name": "token",
          "type": "address"
        }
      ],
      "name": "reclaimToken",
      "outputs": [],
      "payable": false,
      "stateMutability": "nonpayable",
      "type": "function"
    },
    {
      "constant": false,
      "inputs": [
        {
          "name": "contractAddr",
          "type": "address"
        }
      ],
      "name": "reclaimContract",
      "outputs": [],
      "payable": false,
      "stateMutability": "nonpayable",
      "type": "function"
    },
    {
      "constant": false,
      "inputs": [
        {
          "name": "_version",
          "type": "uint256"
        }
      ],
      "name": "setVersion",
      "outputs": [],
      "payable": false,
      "stateMutability": "nonpayable",
      "type": "function"
    },
    {
      "constant": true,
      "inputs": [],
      "name": "version",
      "outputs": [
        {
          "name": "",
          "type": "uint256"
        }
      ],
      "payable": false,
      "stateMutability": "view",
      "type": "function"
    },
    {
      "constant": true,
      "inputs": [],
      "name": "owner",
      "outputs": [
        {
          "name": "",
          "type": "address"
        }
      ],
      "payable": false,
      "stateMutability": "view",
      "type": "function"
    },
    {
      "constant": false,
      "inputs": [],
      "name": "reclaimEther",
      "outputs": [],
      "payable": false,
      "stateMutability": "nonpayable",
      "type": "function"
    },
    {
      "constant": true,
      "inputs": [
        {
          "name": "",
          "type": "uint256"
        },
        {
          "name": "",
          "type": "uint256"
        }
      ],
      "name": "requirements",
      "outputs": [
        {
          "name": "",
          "type": "uint256"
        }
      ],
      "payable": false,
      "stateMutability": "view",
      "type": "function"
    },
    {
      "constant": true,
      "inputs": [
        {
          "name": "",
          "type": "address"
        }
      ],
      "name": "migratedUsers",
      "outputs": [
        {
          "name": "",
          "type": "bool"
        }
      ],
      "payable": false,
      "stateMutability": "view",
      "type": "function"
    },
    {
      "constant": false,
      "inputs": [
        {
          "name": "from_",
          "type": "address"
        },
        {
          "name": "value_",
          "type": "uint256"
        },
        {
          "name": "data_",
          "type": "bytes"
        }
      ],
      "name": "tokenFallback",
      "outputs": [],
      "payable": false,
      "stateMutability": "nonpayable",
      "type": "function"
    },
    {
      "constant": false,
      "inputs": [
        {
          "name": "_newContract",
          "type": "address"
        }
      ],
      "name": "migrateUser",
      "outputs": [],
      "payable": false,
      "stateMutability": "nonpayable",
      "type": "function"
    },
    {
      "constant": false,
      "inputs": [
        {
          "name": "newOwner",
          "type": "address"
        }
      ],
      "name": "transferOwnership",
      "outputs": [],
      "payable": false,
      "stateMutability": "nonpayable",
      "type": "function"
    },
    {
      "inputs": [],
      "payable": false,
      "stateMutability": "nonpayable",
      "type": "constructor"
    },
    {
      "payable": false,
      "stateMutability": "nonpayable",
      "type": "fallback"
    },
    {
      "anonymous": false,
      "inputs": [
        {
          "indexed": false,
          "name": "id",
          "type": "uint256"
        },
        {
          "indexed": false,
          "name": "requirements",
          "type": "uint256[]"
        }
      ],
      "name": "SetAssetRequirements",
      "type": "event"
    },
    {
      "anonymous": false,
      "inputs": [
        {
          "indexed": false,
          "name": "id",
          "type": "uint256"
        },
        {
          "indexed": false,
          "name": "requirement",
          "type": "uint256"
        }
      ],
      "name": "AddedAssetRequirement",
      "type": "event"
    },
    {
      "anonymous": false,
      "inputs": [
        {
          "indexed": false,
          "name": "id",
          "type": "uint256"
        },
        {
          "indexed": false,
          "name": "requirement",
          "type": "uint256"
        }
      ],
      "name": "RemovedAssetRequirement",
      "type": "event"
    },
    {
      "anonymous": false,
      "inputs": [
        {
          "indexed": false,
          "name": "id",
          "type": "uint256"
        },
        {
          "indexed": false,
          "name": "oldRequirement",
          "type": "uint256"
        },
        {
          "indexed": false,
          "name": "newRequirement",
          "type": "uint256"
        }
      ],
      "name": "UpdatedAssetRequirement",
      "type": "event"
    },
    {
      "anonymous": false,
      "inputs": [
        {
          "indexed": true,
          "name": "user",
          "type": "address"
        },
        {
          "indexed": true,
          "name": "newContract",
          "type": "address"
        }
      ],
      "name": "UserMigrated",
      "type": "event"
    },
    {
      "anonymous": false,
      "inputs": [
        {
          "indexed": true,
          "name": "previousOwner",
          "type": "address"
        },
        {
          "indexed": true,
          "name": "newOwner",
          "type": "address"
        }
      ],
      "name": "OwnershipTransferred",
      "type": "event"
    },
    {
      "constant": true,
      "inputs": [],
      "name": "isAssetsRequirements",
      "outputs": [
        {
          "name": "",
          "type": "bool"
        }
      ],
      "payable": false,
      "stateMutability": "pure",
      "type": "function"
    },
    {
      "constant": false,
      "inputs": [
        {
          "name": "_previousAssetsRequirements",
          "type": "address"
        },
        {
          "name": "_version",
          "type": "uint256"
        }
      ],
      "name": "setAssetsRequirementsVersion",
      "outputs": [],
      "payable": false,
      "stateMutability": "nonpayable",
      "type": "function"
    },
    {
      "constant": false,
      "inputs": [
        {
          "name": "_buildingsData",
          "type": "address"
        }
      ],
      "name": "setBuildingsData",
      "outputs": [],
      "payable": false,
      "stateMutability": "nonpayable",
      "type": "function"
    },
    {
      "constant": false,
      "inputs": [
        {
          "name": "_buildingsQueue",
          "type": "address"
        }
      ],
      "name": "setBuildingsQueue",
      "outputs": [],
      "payable": false,
      "stateMutability": "nonpayable",
      "type": "function"
    },
    {
      "constant": false,
      "inputs": [
        {
          "name": "_userBuildings",
          "type": "address"
        }
      ],
      "name": "setUserBuildings",
      "outputs": [],
      "payable": false,
      "stateMutability": "nonpayable",
      "type": "function"
    },
    {
      "constant": false,
      "inputs": [
        {
          "name": "_id",
          "type": "uint256"
        },
        {
          "name": "_requirements",
          "type": "uint256[]"
        }
      ],
      "name": "setAssetRequirements",
      "outputs": [],
      "payable": false,
      "stateMutability": "nonpayable",
      "type": "function"
    },
    {
      "constant": false,
      "inputs": [
        {
          "name": "_id",
          "type": "uint256"
        },
        {
          "name": "_requirement",
          "type": "uint256"
        }
      ],
      "name": "addAssetRequirement",
      "outputs": [],
      "payable": false,
      "stateMutability": "nonpayable",
      "type": "function"
    },
    {
      "constant": false,
      "inputs": [
        {
          "name": "_id",
          "type": "uint256"
        },
        {
          "name": "_requirement",
          "type": "uint256"
        }
      ],
      "name": "removeAssetRequirement",
      "outputs": [],
      "payable": false,
      "stateMutability": "nonpayable",
      "type": "function"
    },
    {
      "constant": false,
      "inputs": [
        {
          "name": "_id",
          "type": "uint256"
        },
        {
          "name": "_oldRequirement",
          "type": "uint256"
        },
        {
          "name": "_newRequirement",
          "type": "uint256"
        }
      ],
      "name": "updateAssetRequirement",
      "outputs": [],
      "payable": false,
      "stateMutability": "nonpayable",
      "type": "function"
    },
    {
      "constant": true,
      "inputs": [
        {
          "name": "_user",
          "type": "address"
        },
        {
          "name": "_id",
          "type": "uint256"
        }
      ],
      "name": "validateUserAssetRequirements",
      "outputs": [
        {
          "name": "valid",
          "type": "bool"
        }
      ],
      "payable": false,
      "stateMutability": "view",
      "type": "function"
    },
    {
      "constant": true,
      "inputs": [
        {
          "name": "_id",
          "type": "uint256"
        }
      ],
      "name": "getRequirements",
      "outputs": [
        {
          "name": "",
          "type": "uint256[]"
        }
      ],
      "payable": false,
      "stateMutability": "view",
      "type": "function"
    }
  ],
  "bytecode": "0x6060604052341561000f57600080fd5b336000806101000a81548173ffffffffffffffffffffffffffffffffffffffff021916908373ffffffffffffffffffffffffffffffffffffffff16021790555060003414151561005e57600080fd5b61266d8061006d6000396000f300606060405260043610610128576000357c0100000000000000000000000000000000000000000000000000000000900463ffffffff16806317ffc320146101355780631ce775401461016e57806324357211146101e65780632aed7f3f1461021f5780633882c76d14610258578063408def1e14610285578063540494a1146102a857806354fd4d5014610302578063594c36141461032b5780636e98db441461036057806377889afa1461038c5780638da5cb5b146103c557806396dc25b91461041a5780639f727c2714610453578063a71dac4714610468578063bbe768a4146104a8578063c0ee0b8a146104f9578063cb48fb751461054f578063d73602b514610591578063dd6c7e31146105c8578063f26b7f4c14610601578063f2fde38b1461062d575b341561013357600080fd5b005b341561014057600080fd5b61016c600480803573ffffffffffffffffffffffffffffffffffffffff16906020019091905050610666565b005b341561017957600080fd5b61018f60048080359060200190919050506107d3565b6040518080602001828103825283818151815260200191508051906020019060200280838360005b838110156101d25780820151818401526020810190506101b7565b505050509050019250505060405180910390f35b34156101f157600080fd5b61021d600480803573ffffffffffffffffffffffffffffffffffffffff16906020019091905050610844565b005b341561022a57600080fd5b610256600480803573ffffffffffffffffffffffffffffffffffffffff16906020019091905050610975565b005b341561026357600080fd5b61026b610aa8565b604051808215151515815260200191505060405180910390f35b341561029057600080fd5b6102a66004808035906020019091905050610ab1565b005b34156102b357600080fd5b6102e8600480803573ffffffffffffffffffffffffffffffffffffffff16906020019091908035906020019091905050610b16565b604051808215151515815260200191505060405180910390f35b341561030d57600080fd5b610315610c56565b6040518082815260200191505060405180910390f35b341561033657600080fd5b61035e6004808035906020019091908035906020019091908035906020019091905050610c5c565b005b341561036b57600080fd5b61038a6004808035906020019091908035906020019091905050610dea565b005b341561039757600080fd5b6103c3600480803573ffffffffffffffffffffffffffffffffffffffff16906020019091905050610f69565b005b34156103d057600080fd5b6103d861109a565b604051808273ffffffffffffffffffffffffffffffffffffffff1673ffffffffffffffffffffffffffffffffffffffff16815260200191505060405180910390f35b341561042557600080fd5b610451600480803573ffffffffffffffffffffffffffffffffffffffff169060200190919050506110bf565b005b341561045e57600080fd5b6104666111f0565b005b341561047357600080fd5b61049260048080359060200190919080359060200190919050506112c2565b6040518082815260200191505060405180910390f35b34156104b357600080fd5b6104df600480803573ffffffffffffffffffffffffffffffffffffffff169060200190919050506112f3565b604051808215151515815260200191505060405180910390f35b341561050457600080fd5b61054d600480803573ffffffffffffffffffffffffffffffffffffffff169060200190919080359060200190919080359060200190820180359060200191909192905050611313565b005b341561055a57600080fd5b61058f600480803573ffffffffffffffffffffffffffffffffffffffff16906020019091908035906020019091905050611318565b005b341561059c57600080fd5b6105c6600480803590602001909190803590602001908201803590602001919091929050506114e7565b005b34156105d357600080fd5b6105ff600480803573ffffffffffffffffffffffffffffffffffffffff1690602001909190505061170a565b005b341561060c57600080fd5b61062b60048080359060200190919080359060200190919050506118b5565b005b341561063857600080fd5b610664600480803573ffffffffffffffffffffffffffffffffffffffff16906020019091905050611a12565b005b60008060009054906101000a900473ffffffffffffffffffffffffffffffffffffffff1673ffffffffffffffffffffffffffffffffffffffff163373ffffffffffffffffffffffffffffffffffffffff161415156106c357600080fd5b8173ffffffffffffffffffffffffffffffffffffffff166370a08231306000604051602001526040518263ffffffff167c0100000000000000000000000000000000000000000000000000000000028152600401808273ffffffffffffffffffffffffffffffffffffffff1673ffffffffffffffffffffffffffffffffffffffff168152602001915050602060405180830381600087803b151561076657600080fd5b6102c65a03f1151561077757600080fd5b5050506040518051905090506107cf6000809054906101000a900473ffffffffffffffffffffffffffffffffffffffff16828473ffffffffffffffffffffffffffffffffffffffff16611b679092919063ffffffff16565b5050565b6107db612563565b6007600083815260200190815260200160002080548060200260200160405190810160405280929190818152602001828054801561083857602002820191906000526020600020905b815481526020019060010190808311610824575b50505050509050919050565b6000809054906101000a900473ffffffffffffffffffffffffffffffffffffffff1673ffffffffffffffffffffffffffffffffffffffff163373ffffffffffffffffffffffffffffffffffffffff1614151561089f57600080fd5b8073ffffffffffffffffffffffffffffffffffffffff166319d6dfae6000604051602001526040518163ffffffff167c0100000000000000000000000000000000000000000000000000000000028152600401602060405180830381600087803b151561090b57600080fd5b6102c65a03f1151561091c57600080fd5b50505060405180519050151561093157600080fd5b80600660006101000a81548173ffffffffffffffffffffffffffffffffffffffff021916908373ffffffffffffffffffffffffffffffffffffffff16021790555050565b60008060009054906101000a900473ffffffffffffffffffffffffffffffffffffffff1673ffffffffffffffffffffffffffffffffffffffff163373ffffffffffffffffffffffffffffffffffffffff161415156109d257600080fd5b8190508073ffffffffffffffffffffffffffffffffffffffff1663f2fde38b6000809054906101000a900473ffffffffffffffffffffffffffffffffffffffff166040518263ffffffff167c0100000000000000000000000000000000000000000000000000000000028152600401808273ffffffffffffffffffffffffffffffffffffffff1673ffffffffffffffffffffffffffffffffffffffff168152602001915050600060405180830381600087803b1515610a9057600080fd5b6102c65a03f11515610aa157600080fd5b5050505050565b60006001905090565b6000809054906101000a900473ffffffffffffffffffffffffffffffffffffffff1673ffffffffffffffffffffffffffffffffffffffff163373ffffffffffffffffffffffffffffffffffffffff16141515610b0c57600080fd5b8060018190555050565b6000610b20612563565b6000610b2a612563565b6000806000806000600760008b8152602001908152602001600020805490501415610b585760019750610c49565b610b618a611c3a565b8098508197505050610b728a611fd0565b8096508195505050600197506000925060009150600090505b600760008a81526020019081526020016000208054905081108015610bad5750875b15610c4557610be88787600760008d815260200190815260200160002084815481101515610bd757fe5b90600052602060002090015461222d565b9250610c208585600760008d815260200190815260200160002084815481101515610c0f57fe5b90600052602060002090015461222d565b915082158015610c2e575081155b15610c3857600097505b8080600101915050610b8b565b8797505b5050505050505092915050565b60015481565b6000806000809054906101000a900473ffffffffffffffffffffffffffffffffffffffff1673ffffffffffffffffffffffffffffffffffffffff163373ffffffffffffffffffffffffffffffffffffffff16141515610cba57600080fd5b60006007600087815260200190815260200160002080549050111515610cdf57600080fd5b610ce9858461232d565b5060009150600090505b600760008681526020019081526020016000208054905082108015610d16575080155b15610d9057836007600087815260200190815260200160002083815481101515610d3c57fe5b9060005260206000209001541415610d8357826007600087815260200190815260200160002083815481101515610d6f57fe5b906000526020600020900181905550600190505b8180600101925050610cf3565b801515610d9c57600080fd5b7fee8d8e724c7e862fea28d798bd51f98d0d3480fb11b75f32333a8e5b0ff3707385858560405180848152602001838152602001828152602001935050505060405180910390a15050505050565b6000806000809054906101000a900473ffffffffffffffffffffffffffffffffffffffff1673ffffffffffffffffffffffffffffffffffffffff163373ffffffffffffffffffffffffffffffffffffffff16141515610e4857600080fd5b600083111515610e5757600080fd5b838314151515610e6657600080fd5b610e70848461232d565b5060009150600090505b6007600085815260200190815260200160002080549050811015610edd57826007600086815260200190815260200160002082815481101515610eb957fe5b9060005260206000209001541415610ed057600191505b8080600101915050610e7a565b81151515610eea57600080fd5b600760008581526020019081526020016000208054806001018281610f0f9190612577565b9160005260206000209001600085909190915055507f2443f51057bab13e2be088b0acb28c985b1dd8e1b23628a67ad120551214900e8484604051808381526020018281526020019250505060405180910390a150505050565b6000809054906101000a900473ffffffffffffffffffffffffffffffffffffffff1673ffffffffffffffffffffffffffffffffffffffff163373ffffffffffffffffffffffffffffffffffffffff16141515610fc457600080fd5b8073ffffffffffffffffffffffffffffffffffffffff1663bfb4bbae6000604051602001526040518163ffffffff167c0100000000000000000000000000000000000000000000000000000000028152600401602060405180830381600087803b151561103057600080fd5b6102c65a03f1151561104157600080fd5b50505060405180519050151561105657600080fd5b80600560006101000a81548173ffffffffffffffffffffffffffffffffffffffff021916908373ffffffffffffffffffffffffffffffffffffffff16021790555050565b6000809054906101000a900473ffffffffffffffffffffffffffffffffffffffff1681565b6000809054906101000a900473ffffffffffffffffffffffffffffffffffffffff1673ffffffffffffffffffffffffffffffffffffffff163373ffffffffffffffffffffffffffffffffffffffff1614151561111a57600080fd5b8073ffffffffffffffffffffffffffffffffffffffff16633769feef6000604051602001526040518163ffffffff167c0100000000000000000000000000000000000000000000000000000000028152600401602060405180830381600087803b151561118657600080fd5b6102c65a03f1151561119757600080fd5b5050506040518051905015156111ac57600080fd5b80600460006101000a81548173ffffffffffffffffffffffffffffffffffffffff021916908373ffffffffffffffffffffffffffffffffffffffff16021790555050565b6000809054906101000a900473ffffffffffffffffffffffffffffffffffffffff1673ffffffffffffffffffffffffffffffffffffffff163373ffffffffffffffffffffffffffffffffffffffff1614151561124b57600080fd5b6000809054906101000a900473ffffffffffffffffffffffffffffffffffffffff1673ffffffffffffffffffffffffffffffffffffffff166108fc3073ffffffffffffffffffffffffffffffffffffffff16319081150290604051600060405180830381858888f1935050505015156112c057fe5b565b6007602052816000526040600020818154811015156112dd57fe5b9060005260206000209001600091509150505481565b60026020528060005260406000206000915054906101000a900460ff1681565b600080fd5b6000809054906101000a900473ffffffffffffffffffffffffffffffffffffffff1673ffffffffffffffffffffffffffffffffffffffff163373ffffffffffffffffffffffffffffffffffffffff1614151561137357600080fd5b8173ffffffffffffffffffffffffffffffffffffffff16633882c76d6000604051602001526040518163ffffffff167c0100000000000000000000000000000000000000000000000000000000028152600401602060405180830381600087803b15156113df57600080fd5b6102c65a03f115156113f057600080fd5b50505060405180519050151561140557600080fd5b8173ffffffffffffffffffffffffffffffffffffffff166354fd4d506000604051602001526040518163ffffffff167c0100000000000000000000000000000000000000000000000000000000028152600401602060405180830381600087803b151561147157600080fd5b6102c65a03f1151561148257600080fd5b505050604051805190508111151561149957600080fd5b81600360006101000a81548173ffffffffffffffffffffffffffffffffffffffff021916908373ffffffffffffffffffffffffffffffffffffffff1602179055506114e381610ab1565b5050565b60008060009054906101000a900473ffffffffffffffffffffffffffffffffffffffff1673ffffffffffffffffffffffffffffffffffffffff163373ffffffffffffffffffffffffffffffffffffffff1614151561154457600080fd5b60008411151561155357600080fd5b600460009054906101000a900473ffffffffffffffffffffffffffffffffffffffff1673ffffffffffffffffffffffffffffffffffffffff16636facbe2b856000604051602001526040518263ffffffff167c010000000000000000000000000000000000000000000000000000000002815260040180828152602001915050602060405180830381600087803b15156115ec57600080fd5b6102c65a03f115156115fd57600080fd5b50505060405180519050151561161257600080fd5b60008383905011151561162457600080fd5b6000600760008681526020019081526020016000208054905014151561164957600080fd5b600090505b828290508110156116855761167784848484818110151561166b57fe5b9050602002013561232d565b50808060010191505061164e565b82826007600087815260200190815260200160002091906116a79291906125a3565b507f4b77dd5ba15a736dd44af3dd43caf89250931e692df17ee5036a6d5eba48c44284848460405180848152602001806020018281038252848482818152602001925060200280828437820191505094505050505060405180910390a150505050565b60011515600260003373ffffffffffffffffffffffffffffffffffffffff1673ffffffffffffffffffffffffffffffffffffffff16815260200190815260200160002060009054906101000a900460ff1615151415151561176a57600080fd5b6001548173ffffffffffffffffffffffffffffffffffffffff166354fd4d506000604051602001526040518163ffffffff167c0100000000000000000000000000000000000000000000000000000000028152600401602060405180830381600087803b15156117d957600080fd5b6102c65a03f115156117ea57600080fd5b5050506040518051905011151561180057600080fd5b6001600260003373ffffffffffffffffffffffffffffffffffffffff1673ffffffffffffffffffffffffffffffffffffffff16815260200190815260200160002060006101000a81548160ff0219169083151502179055508073ffffffffffffffffffffffffffffffffffffffff163373ffffffffffffffffffffffffffffffffffffffff167fc123aa2e5c63456c59a4694ac50ba610152278a01162f3d5e3a6ffc457bc586e60405160405180910390a350565b6000806000809054906101000a900473ffffffffffffffffffffffffffffffffffffffff1673ffffffffffffffffffffffffffffffffffffffff163373ffffffffffffffffffffffffffffffffffffffff1614151561191357600080fd5b60008311151561192257600080fd5b83831415151561193157600080fd5b60009150600090505b60076000858152602001908152602001600020805490508110801561195d575081155b156119ac5782600760008681526020019081526020016000208281548110151561198357fe5b906000526020600020900154141561199e57600191506119a7565b80806001019150505b61193a565b8115156119b857600080fd5b6119c2848261242f565b15156119cd57600080fd5b7f34f522a51edfce89287d5f3aa3a1ddc92b7f6f8f797bc2a32555b49d0715cdef8484604051808381526020018281526020019250505060405180910390a150505050565b6000809054906101000a900473ffffffffffffffffffffffffffffffffffffffff1673ffffffffffffffffffffffffffffffffffffffff163373ffffffffffffffffffffffffffffffffffffffff16141515611a6d57600080fd5b600073ffffffffffffffffffffffffffffffffffffffff168173ffffffffffffffffffffffffffffffffffffffff1614151515611aa957600080fd5b8073ffffffffffffffffffffffffffffffffffffffff166000809054906101000a900473ffffffffffffffffffffffffffffffffffffffff1673ffffffffffffffffffffffffffffffffffffffff167f8be0079c531659141344cd1fd0a4f28419497f9722a3daafe3b4186f6b6457e060405160405180910390a3806000806101000a81548173ffffffffffffffffffffffffffffffffffffffff021916908373ffffffffffffffffffffffffffffffffffffffff16021790555050565b8273ffffffffffffffffffffffffffffffffffffffff1663a9059cbb83836000604051602001526040518363ffffffff167c0100000000000000000000000000000000000000000000000000000000028152600401808373ffffffffffffffffffffffffffffffffffffffff1673ffffffffffffffffffffffffffffffffffffffff16815260200182815260200192505050602060405180830381600087803b1515611c1257600080fd5b6102c65a03f11515611c2357600080fd5b505050604051805190501515611c3557fe5b505050565b6000611c44612563565b6000806000806000600660009054906101000a900473ffffffffffffffffffffffffffffffffffffffff1673ffffffffffffffffffffffffffffffffffffffff16636d6a1d78896000604051602001526040518263ffffffff167c0100000000000000000000000000000000000000000000000000000000028152600401808273ffffffffffffffffffffffffffffffffffffffff1673ffffffffffffffffffffffffffffffffffffffff168152602001915050602060405180830381600087803b1515611d1157600080fd5b6102c65a03f11515611d2257600080fd5b50505060405180519050965086604051805910611d3c5750595b9080825280602002602001820160405250955060009350600091505b86821015611fbe57600660009054906101000a900473ffffffffffffffffffffffffffffffffffffffff1673ffffffffffffffffffffffffffffffffffffffff16637fdfb10c89846000604051604001526040518363ffffffff167c0100000000000000000000000000000000000000000000000000000000028152600401808373ffffffffffffffffffffffffffffffffffffffff1673ffffffffffffffffffffffffffffffffffffffff168152602001828152602001925050506040805180830381600087803b1515611e2c57600080fd5b6102c65a03f11515611e3d57600080fd5b5050506040518051906020018051905080945081965050508215611e7f578486858403815181101515611e6c57fe5b9060200190602002018181525050611fb1565b600560009054906101000a900473ffffffffffffffffffffffffffffffffffffffff1673ffffffffffffffffffffffffffffffffffffffff166368992677896103e88801856000604051604001526040518463ffffffff167c0100000000000000000000000000000000000000000000000000000000028152600401808473ffffffffffffffffffffffffffffffffffffffff1673ffffffffffffffffffffffffffffffffffffffff16815260200183815260200182815260200193505050506040805180830381600087803b1515611f5757600080fd5b6102c65a03f11515611f6857600080fd5b5050506040518051906020018051905050809150508015611fa7578486858403815181101515611f9457fe5b9060200190602002018181525050611fb0565b83806001019450505b5b8180600101925050611d58565b83870386965096505050505050915091565b6000611fda612563565b6000806000600560009054906101000a900473ffffffffffffffffffffffffffffffffffffffff1673ffffffffffffffffffffffffffffffffffffffff1663f47579a7876000604051602001526040518263ffffffff167c0100000000000000000000000000000000000000000000000000000000028152600401808273ffffffffffffffffffffffffffffffffffffffff1673ffffffffffffffffffffffffffffffffffffffff168152602001915050602060405180830381600087803b15156120a457600080fd5b6102c65a03f115156120b557600080fd5b505050604051805190509450846040518059106120cf5750595b90808252806020026020018201604052509350600091505b8482101561221f57600560009054906101000a900473ffffffffffffffffffffffffffffffffffffffff1673ffffffffffffffffffffffffffffffffffffffff1663c5fbe6ce87846000604051604001526040518363ffffffff167c0100000000000000000000000000000000000000000000000000000000028152600401808373ffffffffffffffffffffffffffffffffffffffff1673ffffffffffffffffffffffffffffffffffffffff168152602001828152602001925050506040805180830381600087803b15156121bb57600080fd5b6102c65a03f115156121cc57600080fd5b5050506040518051906020018051905080925081945050504381101561220e578284838151811015156121fb57fe5b9060200190602002018181525050612212565b8194505b81806001019250506120e7565b848494509450505050915091565b6000806000809150600090505b8482108015612247575080155b15612321576103e88481151561225957fe5b066103e8878481518110151561226b57fe5b9060200190602002015181151561227e57fe5b06141561231457600190506103e8806103e88681151561229a57fe5b0686038115156122a657fe5b048115156122b057fe5b066103e8806103e889868151811015156122c657fe5b906020019060200201518115156122d957fe5b0689868151811015156122e857fe5b90602001906020020151038115156122fc57fe5b0481151561230657fe5b0610151561231357600192505b5b818060010192505061223a565b82925050509392505050565b6000808211151561233d57600080fd5b6103e88281151561234a57fe5b066103e88481151561235857fe5b061415151561236657600080fd5b600460009054906101000a900473ffffffffffffffffffffffffffffffffffffffff1673ffffffffffffffffffffffffffffffffffffffff16636facbe2b836000604051602001526040518263ffffffff167c010000000000000000000000000000000000000000000000000000000002815260040180828152602001915050602060405180830381600087803b15156123ff57600080fd5b6102c65a03f1151561241057600080fd5b50505060405180519050151561242557600080fd5b6001905092915050565b6000808290505b600760008581526020019081526020016000208054905081101561252e5760016007600086815260200190815260200160002080549050038114156124c2576007600085815260200190815260200160002060016007600087815260200190815260200160002080549050038154811015156124ae57fe5b906000526020600020900160009055612521565b60076000858152602001908152602001600020600182018154811015156124e557fe5b906000526020600020900154600760008681526020019081526020016000208281548110151561251157fe5b9060005260206000209001819055505b8080600101915050612436565b6001600760008681526020019081526020016000208181805490500391508161255791906125f0565b50600191505092915050565b602060405190810160405280600081525090565b81548183558181151161259e5781836000526020600020918201910161259d919061261c565b5b505050565b8280548282559060005260206000209081019282156125df579160200282015b828111156125de5782358255916020019190600101906125c3565b5b5090506125ec919061261c565b5090565b81548183558181151161261757818360005260206000209182019101612616919061261c565b5b505050565b61263e91905b8082111561263a576000816000905550600101612622565b5090565b905600a165627a7a72305820b7c79286b4f0ae6dfff45eba36ac5d8093a0fed65756a0dc272632362a1feb9d0029",
  "source": "pragma solidity ^0.4.18;\n\nimport 'zeppelin-solidity/contracts/ownership/NoOwner.sol';\nimport './Versioned.sol';\nimport './BuildingsData.sol';\nimport './BuildingsQueue.sol';\nimport './UserBuildings.sol';\n\n/**\n * @title AssetsRequirements (WIP)\n * @notice This contract lists the assets creation requirements.\n * @dev You can add requirements and update them\n * @dev Issue: * https://github.com/e11-io/crypto-wars-solidity/issues/\n */\ncontract AssetsRequirements is NoOwner, Versioned {\n\n  /**\n   * @dev event for setting up the requirements for an asset\n   * @param id of the asset\n   * @param requirements the requirements array of the asset\n   */\n  event SetAssetRequirements(uint id, uint[] requirements);\n\n  /**\n   * @dev event for adding a new requirements to an asset\n   * @param id of the asset\n   * @param requirement the new requirement of the asset\n   */\n  event AddedAssetRequirement(uint id, uint requirement);\n\n  /**\n   * event for removing a requirement from an asset\n   * @param id of the asset to remove the requirement from\n   * @param requirement the requirement to remove\n   */\n  event RemovedAssetRequirement(uint id, uint requirement);\n\n  /**\n   * event for updating an asset requirement\n   * @param id of the asset to update\n   * @param oldRequirement the old requirement to be updated\n   * @param newRequirement the new requirement\n   */\n  event UpdatedAssetRequirement(uint id, uint oldRequirement, uint newRequirement);\n\n  AssetsRequirements previousAssetsRequirements;\n  BuildingsData buildingsData;\n  BuildingsQueue buildingsQueue;\n  UserBuildings userBuildings;\n\n  // Mapping of uint (buildings id) -> uint[] (buildings ids).\n  mapping (uint => uint[]) public requirements;\n\n\n  /*\n   * @notice Constructor: Instantiate Assets Requirements contract.\n   * @dev Constructor function.\n   */\n  function AssetsRequirements() public {\n  }\n\n  /*\n   * @notice Makes the contract type verifiable.\n   * @dev Function to prove the contract is Assets Requirements.\n   */\n  function isAssetsRequirements() external pure returns (bool) {\n    return true;\n  }\n\n  /*\n   * @notice Sets the contract's version and instantiates the previous version contract.\n   * @dev Function to set the contract version and instantiate the previous Assets Requirements.\n   * @param _previousAssetsRequirements the address of previous Assets Requirements contract. (address)\n   * @param _version the current contract version number. (uint)\n   */\n  function setAssetsRequirementsVersion(AssetsRequirements _previousAssetsRequirements, uint _version) external onlyOwner {\n    require(_previousAssetsRequirements.isAssetsRequirements());\n    require(_version > _previousAssetsRequirements.version());\n    previousAssetsRequirements = _previousAssetsRequirements;\n    setVersion(_version);\n  }\n\n  /**\n   * @notice Instantiate Buildings Data contract.\n   * @dev Function to provide Buildings Data address and instantiate it.\n   * @param _buildingsData the address of Buildings Data contract. (address)\n   */\n  function setBuildingsData(BuildingsData _buildingsData) external onlyOwner {\n    require(_buildingsData.isBuildingsData());\n    buildingsData = _buildingsData;\n  }\n\n  /*\n   * @title Instantiate Buildings Queue contract.\n   * @dev Function to provide Buildings Queue address and instantiate it.\n   * @param _buildingsQueue the address of Buildings Queue contract. (address)\n   */\n  function setBuildingsQueue(BuildingsQueue _buildingsQueue) external onlyOwner {\n    require(_buildingsQueue.isBuildingsQueue());\n    buildingsQueue = _buildingsQueue;\n  }\n\n  /*\n   * @title Instantiate User Buildings contract.\n   * @dev Function to provide User Buildings address and instantiate it.\n   * @param _userBuildings the address of User Buildings contract. (address)\n   */\n  function setUserBuildings(UserBuildings _userBuildings) external onlyOwner {\n    require(_userBuildings.isUserBuildings());\n    userBuildings = _userBuildings;\n  }\n\n  /*\n   * @notice Add new asset with requirements\n   * @dev This method create a new Asset Requirement definition that can be used on the game.\n   * @param _id (uint)\n   * @param _requirements (uint[]) array of requirements for the asset:\n   *      class (int32)\n   *      level (int32)\n   *      typeId (int32)\n   */\n  function setAssetRequirements(uint _id,\n                                uint[] _requirements) external onlyOwner {\n\n    require(_id > 0);\n    require(buildingsData.checkBuildingExist(_id));\n    require(_requirements.length > 0);\n    require(requirements[_id].length == 0);\n\n    for (uint i = 0; i < _requirements.length; i++) {\n      validateRequirement(_id, _requirements[i]);\n    }\n\n    requirements[_id] = _requirements;\n\n    SetAssetRequirements(_id, _requirements);\n  }\n\n  /*\n   * @title Add a specific asset requirement\n   * @dev This method is used to add a requirement to an asset\n   * @param _id (uint)\n   * @param _requirement (uint)\n   */\n  function addAssetRequirement(uint _id,\n                               uint _requirement) external onlyOwner {\n\n    require(_requirement > 0);\n    require(_requirement != _id);\n    validateRequirement(_id, _requirement);\n\n    bool found = false;\n    for (uint i = 0; i < requirements[_id].length; i++) {\n      if (requirements[_id][i] == _requirement) {\n        found = true;\n      }\n    }\n    require(!found);\n\n    requirements[_id].push(_requirement);\n\n    AddedAssetRequirement(_id, _requirement);\n  }\n\n  /*\n   * @title Remove a specific asset requirement\n   * @dev This method is used to remove a requirement from an asset\n   * @param _id (uint)\n   * @param _requirement (uint)\n   */\n  function removeAssetRequirement(uint _id,\n                                  uint _requirement) external onlyOwner {\n    require(_requirement > 0);\n    require(_requirement != _id);\n\n    bool found = false;\n    uint i = 0;\n    while (i < requirements[_id].length && !found) {\n      if (requirements[_id][i] == _requirement) {\n        found = true;\n      } else {\n        i++;\n      }\n    }\n    require(found);\n\n    require(shiftRequirement(_id, i));\n\n    RemovedAssetRequirement(_id, _requirement);\n  }\n\n  /*\n   * @title Update a specific asset requirement\n   * @dev This method is used to update an asset requirement\n   * @param _id (uint)\n   * @param _oldRequirement (int32)\n   * @param _newRequirement (int32)\n   */\n  function updateAssetRequirement(uint _id,\n                                  uint _oldRequirement,\n                                  uint _newRequirement) external onlyOwner {\n    require(requirements[_id].length > 0);\n    validateRequirement(_id, _newRequirement);\n\n    uint i = 0;\n    bool updated = false;\n    while (i < requirements[_id].length && !updated) {\n      if (requirements[_id][i] == _oldRequirement) {\n        requirements[_id][i] = _newRequirement;\n        updated = true;\n      }\n      i++;\n    }\n\n    require(updated);\n\n    UpdatedAssetRequirement(_id, _oldRequirement, _newRequirement);\n  }\n\n  /*\n   * @title Check user asset requirements\n   * @dev This method is used to check if a user has the requirements for an asset\n   * @param _user (address)\n   * @param _id (uint)\n   */\n  function validateUserAssetRequirements(address _user, uint _id) external view returns (bool valid) {\n    if (requirements[_id].length == 0) return true;\n\n    uint[] memory userBuildingsIds;\n    uint userBuildingsLength;\n    (userBuildingsLength, userBuildingsIds) = getUserBuildingsIds(_user);\n\n    uint[] memory buildingsQueueIds;\n    uint buildingsQueueLength;\n    (buildingsQueueLength, buildingsQueueIds) = getBuildingsQueueIds(_user);\n\n    valid = true;\n    bool userBuildingRequirement = false;\n    bool buildingsQueueRequirement = false;\n    uint i = 0;\n    while (i < requirements[_id].length && valid) {\n      userBuildingRequirement = checkRequirement(userBuildingsIds, userBuildingsLength, requirements[_id][i]);\n      buildingsQueueRequirement = checkRequirement(buildingsQueueIds, buildingsQueueLength, requirements[_id][i]);\n      if (!userBuildingRequirement && !buildingsQueueRequirement) {\n        valid = false;\n      }\n      i++;\n    }\n    return valid;\n  }\n\n  /*\n   * @title Get User Buildings Ids\n   * @dev This method is used to get the buildings in User Buildings that are valid to check requirements. \n   * @param _user (address)\n   */\n  function getUserBuildingsIds(address _user) internal view returns (uint userBuildingsLength, uint[] userBuildingsIds) {\n    userBuildingsLength = userBuildings.getUserBuildingsLength(_user);\n    userBuildingsIds = new uint[](userBuildingsLength);\n    uint id;\n    uint diff = 0;\n    bool active;\n    for (uint index = 0; index < userBuildingsLength; index++) {\n      (id, active) = userBuildings.getUserBuildingIdAndStatus(_user, index);\n      if (active) {\n        userBuildingsIds[index - diff] = id;\n      } else {\n        bool isInQueue;\n        (isInQueue, )= buildingsQueue.findBuildingInQueue(_user, id + 1000, index);\n        if (isInQueue) {\n          userBuildingsIds[index - diff] = id;\n        } else {\n          diff++;\n        }\n      }\n    }\n    return (userBuildingsLength - diff, userBuildingsIds);\n  }\n\n  /*\n   * @title Get Buildings Queue Ids\n   * @dev This method is used to get the buildings in Buildings Queue that are valid to check requirements.\n   * @param _user (address)\n   */\n  function getBuildingsQueueIds(address _user) internal view returns (uint buildingsQueueLength, uint[] buildingsQueueIds) {\n    buildingsQueueLength = buildingsQueue.getBuildingsQueueLength(_user);\n    buildingsQueueIds = new uint[](buildingsQueueLength);\n    uint id;\n    uint index = 0;\n    uint endBlock;\n    while (index < buildingsQueueLength) {\n      (id, endBlock) = buildingsQueue.getBuildingIdAndEndBlock(_user, index);\n      if (endBlock < block.number) {\n        buildingsQueueIds[index] = id;\n      } else {\n        buildingsQueueLength = index;\n      }\n      index++;\n    }\n    return (buildingsQueueLength, buildingsQueueIds);\n  }\n\n  /*\n   * @title Check requirement type and level against an array of buildingIds\n   * @dev This method is a helper used to check if a user has the requirements for an asset\n   * @param _ids (uint[])\n   * @param _length (uint) the valid length from the filtered original array\n   * @param _requirement (uint)\n   */\n  function checkRequirement(uint[] _ids, uint _length, uint _requirement) internal pure returns (bool valid) {\n    uint i = 0;\n    bool found = false;\n    /* Loops through _ids until it find a building with the same typeId\n     * and then compares if the user level is the same or greater than the requirement level.\n     */\n    while (i < _length && !found) {\n      // Gets the last 3 digits (xxxxx000) of the id (typeId)\n      if (_ids[i] % 1000 == _requirement % 1000) {\n        found = true;\n        // Gets the previous 3 digits (xx000xxx) of the id (level)\n        if (((_ids[i] - (_ids[i] % 1000)) / 1000) % 1000 >=\n            ((_requirement - (_requirement % 1000)) / 1000) % 1000) {\n          valid = true;\n        }\n      }\n      i++;\n    }\n    return valid;\n  }\n\n  /*\n  * @title Validates if a specific requirement is valid\n  * @dev This method is used to check if a specific requirement is valid\n  * @param _id (uint)\n  * @param _requirement (uint)\n  */\n  function validateRequirement(uint _id, uint _requirement) internal view returns (bool valid)  {\n    require(_requirement > 0);\n    // Require to have a different type id\n    require((_id % 1000 != _requirement % 1000));\n    require(buildingsData.checkBuildingExist(_requirement));\n    return true;\n  }\n\n  /*\n   * @title Get Requirements\n   * @dev Function to get the building requirements.\n   * @param _id The id of the building. (uint)\n   * @return an array of uints representing the requirements.\n   */\n  function getRequirements(uint _id) external view returns (uint[]) {\n    return requirements[_id];\n  }\n\n  /*\n   * @notice Shift Requirement.\n   * @dev Function to shift one specified building's requirement.\n   * @param _id The id of the building. (address)\n   * @param _index The index of the requirement to be removed. (uint)\n   * @return A boolean that indicates if the operation was successful.\n   */\n  function shiftRequirement(uint _id, uint _index) internal returns (bool) {\n    for (uint i = _index; i < requirements[_id].length; i++) {\n      if (i == requirements[_id].length - 1) {\n        delete requirements[_id][requirements[_id].length - 1];\n      } else {\n        requirements[_id][i] = requirements[_id][i + 1];\n      }\n    }\n    requirements[_id].length -= 1;\n    return true;\n  }\n\n}\n",
  "sourcePath": "/home/francisco/Truffle/crypto-wars-solidity/contracts/AssetsRequirements.sol",
  "compiler": {
    "name": "solc",
    "version": "0.4.19+commit.c4cbbb05.Emscripten.clang"
  },
  "schemaVersion": "2.0.0",
  "updatedAt": "2018-03-22T14:36:23.792Z"
}