{
  "contractName": "AssetsRequirements",
  "abi": [
    {
      "constant": false,
      "inputs": [
        {
          "name": "token",
          "type": "address"
        }
      ],
      "name": "reclaimToken",
      "outputs": [],
      "payable": false,
      "stateMutability": "nonpayable",
      "type": "function"
    },
    {
      "constant": false,
      "inputs": [
        {
          "name": "contractAddr",
          "type": "address"
        }
      ],
      "name": "reclaimContract",
      "outputs": [],
      "payable": false,
      "stateMutability": "nonpayable",
      "type": "function"
    },
    {
      "constant": false,
      "inputs": [
        {
          "name": "_version",
          "type": "uint256"
        }
      ],
      "name": "setVersion",
      "outputs": [],
      "payable": false,
      "stateMutability": "nonpayable",
      "type": "function"
    },
    {
      "constant": true,
      "inputs": [],
      "name": "version",
      "outputs": [
        {
          "name": "",
          "type": "uint256"
        }
      ],
      "payable": false,
      "stateMutability": "view",
      "type": "function"
    },
    {
      "constant": true,
      "inputs": [],
      "name": "owner",
      "outputs": [
        {
          "name": "",
          "type": "address"
        }
      ],
      "payable": false,
      "stateMutability": "view",
      "type": "function"
    },
    {
      "constant": false,
      "inputs": [],
      "name": "reclaimEther",
      "outputs": [],
      "payable": false,
      "stateMutability": "nonpayable",
      "type": "function"
    },
    {
      "constant": true,
      "inputs": [
        {
          "name": "",
          "type": "uint256"
        },
        {
          "name": "",
          "type": "uint256"
        }
      ],
      "name": "requirements",
      "outputs": [
        {
          "name": "",
          "type": "uint256"
        }
      ],
      "payable": false,
      "stateMutability": "view",
      "type": "function"
    },
    {
      "constant": true,
      "inputs": [
        {
          "name": "",
          "type": "address"
        }
      ],
      "name": "migratedUsers",
      "outputs": [
        {
          "name": "",
          "type": "bool"
        }
      ],
      "payable": false,
      "stateMutability": "view",
      "type": "function"
    },
    {
      "constant": false,
      "inputs": [
        {
          "name": "from_",
          "type": "address"
        },
        {
          "name": "value_",
          "type": "uint256"
        },
        {
          "name": "data_",
          "type": "bytes"
        }
      ],
      "name": "tokenFallback",
      "outputs": [],
      "payable": false,
      "stateMutability": "nonpayable",
      "type": "function"
    },
    {
      "constant": false,
      "inputs": [
        {
          "name": "_newContract",
          "type": "address"
        }
      ],
      "name": "migrateUser",
      "outputs": [],
      "payable": false,
      "stateMutability": "nonpayable",
      "type": "function"
    },
    {
      "constant": false,
      "inputs": [
        {
          "name": "newOwner",
          "type": "address"
        }
      ],
      "name": "transferOwnership",
      "outputs": [],
      "payable": false,
      "stateMutability": "nonpayable",
      "type": "function"
    },
    {
      "inputs": [],
      "payable": false,
      "stateMutability": "nonpayable",
      "type": "constructor"
    },
    {
      "payable": false,
      "stateMutability": "nonpayable",
      "type": "fallback"
    },
    {
      "anonymous": false,
      "inputs": [
        {
          "indexed": false,
          "name": "id",
          "type": "uint256"
        },
        {
          "indexed": false,
          "name": "requirements",
          "type": "uint256[]"
        }
      ],
      "name": "SetAssetRequirements",
      "type": "event"
    },
    {
      "anonymous": false,
      "inputs": [
        {
          "indexed": false,
          "name": "id",
          "type": "uint256"
        },
        {
          "indexed": false,
          "name": "requirement",
          "type": "uint256"
        }
      ],
      "name": "AddedAssetRequirement",
      "type": "event"
    },
    {
      "anonymous": false,
      "inputs": [
        {
          "indexed": false,
          "name": "id",
          "type": "uint256"
        },
        {
          "indexed": false,
          "name": "requirement",
          "type": "uint256"
        }
      ],
      "name": "RemovedAssetRequirement",
      "type": "event"
    },
    {
      "anonymous": false,
      "inputs": [
        {
          "indexed": false,
          "name": "id",
          "type": "uint256"
        },
        {
          "indexed": false,
          "name": "oldRequirement",
          "type": "uint256"
        },
        {
          "indexed": false,
          "name": "newRequirement",
          "type": "uint256"
        }
      ],
      "name": "UpdatedAssetRequirement",
      "type": "event"
    },
    {
      "anonymous": false,
      "inputs": [
        {
          "indexed": true,
          "name": "user",
          "type": "address"
        },
        {
          "indexed": true,
          "name": "newContract",
          "type": "address"
        }
      ],
      "name": "UserMigrated",
      "type": "event"
    },
    {
      "anonymous": false,
      "inputs": [
        {
          "indexed": true,
          "name": "previousOwner",
          "type": "address"
        },
        {
          "indexed": true,
          "name": "newOwner",
          "type": "address"
        }
      ],
      "name": "OwnershipTransferred",
      "type": "event"
    },
    {
      "constant": true,
      "inputs": [],
      "name": "isAssetsRequirements",
      "outputs": [
        {
          "name": "",
          "type": "bool"
        }
      ],
      "payable": false,
      "stateMutability": "pure",
      "type": "function"
    },
    {
      "constant": false,
      "inputs": [
        {
          "name": "_previousAssetsRequirements",
          "type": "address"
        },
        {
          "name": "_version",
          "type": "uint256"
        }
      ],
      "name": "setAssetsRequirementsVersion",
      "outputs": [],
      "payable": false,
      "stateMutability": "nonpayable",
      "type": "function"
    },
    {
      "constant": false,
      "inputs": [
        {
          "name": "_buildingsData",
          "type": "address"
        }
      ],
      "name": "setBuildingsData",
      "outputs": [],
      "payable": false,
      "stateMutability": "nonpayable",
      "type": "function"
    },
    {
      "constant": false,
      "inputs": [
        {
          "name": "_buildingsQueue",
          "type": "address"
        }
      ],
      "name": "setBuildingsQueue",
      "outputs": [],
      "payable": false,
      "stateMutability": "nonpayable",
      "type": "function"
    },
    {
      "constant": false,
      "inputs": [
        {
          "name": "_userBuildings",
          "type": "address"
        }
      ],
      "name": "setUserBuildings",
      "outputs": [],
      "payable": false,
      "stateMutability": "nonpayable",
      "type": "function"
    },
    {
      "constant": false,
      "inputs": [
        {
          "name": "_unitsData",
          "type": "address"
        }
      ],
      "name": "setUnitsData",
      "outputs": [],
      "payable": false,
      "stateMutability": "nonpayable",
      "type": "function"
    },
    {
      "constant": false,
      "inputs": [
        {
          "name": "_id",
          "type": "uint256"
        },
        {
          "name": "_requirements",
          "type": "uint256[]"
        }
      ],
      "name": "setAssetRequirements",
      "outputs": [],
      "payable": false,
      "stateMutability": "nonpayable",
      "type": "function"
    },
    {
      "constant": false,
      "inputs": [
        {
          "name": "_id",
          "type": "uint256"
        },
        {
          "name": "_requirement",
          "type": "uint256"
        }
      ],
      "name": "addAssetRequirement",
      "outputs": [],
      "payable": false,
      "stateMutability": "nonpayable",
      "type": "function"
    },
    {
      "constant": false,
      "inputs": [
        {
          "name": "_id",
          "type": "uint256"
        },
        {
          "name": "_requirement",
          "type": "uint256"
        }
      ],
      "name": "removeAssetRequirement",
      "outputs": [],
      "payable": false,
      "stateMutability": "nonpayable",
      "type": "function"
    },
    {
      "constant": false,
      "inputs": [
        {
          "name": "_id",
          "type": "uint256"
        },
        {
          "name": "_oldRequirement",
          "type": "uint256"
        },
        {
          "name": "_newRequirement",
          "type": "uint256"
        }
      ],
      "name": "updateAssetRequirement",
      "outputs": [],
      "payable": false,
      "stateMutability": "nonpayable",
      "type": "function"
    },
    {
      "constant": true,
      "inputs": [
        {
          "name": "_user",
          "type": "address"
        },
        {
          "name": "_id",
          "type": "uint256"
        }
      ],
      "name": "validateUserAssetRequirements",
      "outputs": [
        {
          "name": "valid",
          "type": "bool"
        }
      ],
      "payable": false,
      "stateMutability": "view",
      "type": "function"
    },
    {
      "constant": true,
      "inputs": [
        {
          "name": "_id",
          "type": "uint256"
        }
      ],
      "name": "getRequirements",
      "outputs": [
        {
          "name": "",
          "type": "uint256[]"
        }
      ],
      "payable": false,
      "stateMutability": "view",
      "type": "function"
    }
  ],
  "bytecode": "0x608060405234801561001057600080fd5b50336000806101000a81548173ffffffffffffffffffffffffffffffffffffffff021916908373ffffffffffffffffffffffffffffffffffffffff16021790555060003414151561006057600080fd5b612ae78061006f6000396000f300608060405260043610610133576000357c0100000000000000000000000000000000000000000000000000000000900463ffffffff16806317ffc320146101425780631ce775401461018557806324357211146102075780632aed7f3f1461024a5780633882c76d1461028d578063408def1e146102bc578063540494a1146102e957806354fd4d501461034e578063594c3614146103795780636e98db44146103ba57806377889afa146103f15780638da5cb5b1461043457806396dc25b91461048b5780639f727c27146104ce578063a71dac47146104e5578063b20dbfac14610530578063bbe768a414610573578063c0ee0b8a146105ce578063cb48fb7514610633578063d73602b514610680578063dd6c7e31146106c5578063f26b7f4c14610708578063f2fde38b1461073f575b34801561013f57600080fd5b50005b34801561014e57600080fd5b50610183600480360381019080803573ffffffffffffffffffffffffffffffffffffffff169060200190929190505050610782565b005b34801561019157600080fd5b506101b060048036038101908080359060200190929190505050610907565b6040518080602001828103825283818151815260200191508051906020019060200280838360005b838110156101f35780820151818401526020810190506101d8565b505050509050019250505060405180910390f35b34801561021357600080fd5b50610248600480360381019080803573ffffffffffffffffffffffffffffffffffffffff169060200190929190505050610972565b005b34801561025657600080fd5b5061028b600480360381019080803573ffffffffffffffffffffffffffffffffffffffff169060200190929190505050610abb565b005b34801561029957600080fd5b506102a2610bf3565b604051808215151515815260200191505060405180910390f35b3480156102c857600080fd5b506102e760048036038101908080359060200190929190505050610bfc565b005b3480156102f557600080fd5b50610334600480360381019080803573ffffffffffffffffffffffffffffffffffffffff16906020019092919080359060200190929190505050610c61565b604051808215151515815260200191505060405180910390f35b34801561035a57600080fd5b50610363610d93565b6040518082815260200191505060405180910390f35b34801561038557600080fd5b506103b8600480360381019080803590602001909291908035906020019092919080359060200190929190505050610d99565b005b3480156103c657600080fd5b506103ef6004803603810190808035906020019092919080359060200190929190505050610f25565b005b3480156103fd57600080fd5b50610432600480360381019080803573ffffffffffffffffffffffffffffffffffffffff1690602001909291905050506110a6565b005b34801561044057600080fd5b506104496111ef565b604051808273ffffffffffffffffffffffffffffffffffffffff1673ffffffffffffffffffffffffffffffffffffffff16815260200191505060405180910390f35b34801561049757600080fd5b506104cc600480360381019080803573ffffffffffffffffffffffffffffffffffffffff169060200190929190505050611214565b005b3480156104da57600080fd5b506104e361135d565b005b3480156104f157600080fd5b5061051a600480360381019080803590602001909291908035906020019092919050505061142f565b6040518082815260200191505060405180910390f35b34801561053c57600080fd5b50610571600480360381019080803573ffffffffffffffffffffffffffffffffffffffff16906020019092919050505061145f565b005b34801561057f57600080fd5b506105b4600480360381019080803573ffffffffffffffffffffffffffffffffffffffff1690602001909291905050506115a8565b604051808215151515815260200191505060405180910390f35b3480156105da57600080fd5b50610631600480360381019080803573ffffffffffffffffffffffffffffffffffffffff169060200190929190803590602001909291908035906020019082018035906020019190919293919293905050506115c8565b005b34801561063f57600080fd5b5061067e600480360381019080803573ffffffffffffffffffffffffffffffffffffffff169060200190929190803590602001909291905050506115cd565b005b34801561068c57600080fd5b506106c3600480360381019080803590602001909291908035906020019082018035906020019190919293919293905050506117cc565b005b3480156106d157600080fd5b50610706600480360381019080803573ffffffffffffffffffffffffffffffffffffffff169060200190929190505050611ada565b005b34801561071457600080fd5b5061073d6004803603810190808035906020019092919080359060200190929190505050611c9d565b005b34801561074b57600080fd5b50610780600480360381019080803573ffffffffffffffffffffffffffffffffffffffff169060200190929190505050611df9565b005b60008060009054906101000a900473ffffffffffffffffffffffffffffffffffffffff1673ffffffffffffffffffffffffffffffffffffffff163373ffffffffffffffffffffffffffffffffffffffff161415156107df57600080fd5b8173ffffffffffffffffffffffffffffffffffffffff166370a08231306040518263ffffffff167c0100000000000000000000000000000000000000000000000000000000028152600401808273ffffffffffffffffffffffffffffffffffffffff1673ffffffffffffffffffffffffffffffffffffffff168152602001915050602060405180830381600087803b15801561087a57600080fd5b505af115801561088e573d6000803e3d6000fd5b505050506040513d60208110156108a457600080fd5b810190808051906020019092919050505090506109036000809054906101000a900473ffffffffffffffffffffffffffffffffffffffff16828473ffffffffffffffffffffffffffffffffffffffff16611f4e9092919063ffffffff16565b5050565b60606008600083815260200190815260200160002080548060200260200160405190810160405280929190818152602001828054801561096657602002820191906000526020600020905b815481526020019060010190808311610952575b50505050509050919050565b6000809054906101000a900473ffffffffffffffffffffffffffffffffffffffff1673ffffffffffffffffffffffffffffffffffffffff163373ffffffffffffffffffffffffffffffffffffffff161415156109cd57600080fd5b8073ffffffffffffffffffffffffffffffffffffffff166319d6dfae6040518163ffffffff167c0100000000000000000000000000000000000000000000000000000000028152600401602060405180830381600087803b158015610a3157600080fd5b505af1158015610a45573d6000803e3d6000fd5b505050506040513d6020811015610a5b57600080fd5b81019080805190602001909291905050501515610a7757600080fd5b80600760006101000a81548173ffffffffffffffffffffffffffffffffffffffff021916908373ffffffffffffffffffffffffffffffffffffffff16021790555050565b60008060009054906101000a900473ffffffffffffffffffffffffffffffffffffffff1673ffffffffffffffffffffffffffffffffffffffff163373ffffffffffffffffffffffffffffffffffffffff16141515610b1857600080fd5b8190508073ffffffffffffffffffffffffffffffffffffffff1663f2fde38b6000809054906101000a900473ffffffffffffffffffffffffffffffffffffffff166040518263ffffffff167c0100000000000000000000000000000000000000000000000000000000028152600401808273ffffffffffffffffffffffffffffffffffffffff1673ffffffffffffffffffffffffffffffffffffffff168152602001915050600060405180830381600087803b158015610bd757600080fd5b505af1158015610beb573d6000803e3d6000fd5b505050505050565b60006001905090565b6000809054906101000a900473ffffffffffffffffffffffffffffffffffffffff1673ffffffffffffffffffffffffffffffffffffffff163373ffffffffffffffffffffffffffffffffffffffff16141515610c5757600080fd5b8060018190555050565b60006060600060606000806000806000600860008b8152602001908152602001600020805490501415610c975760019750610d86565b610ca08a612039565b8098508197505050610cb18a61242a565b8096508195505050600197506000925060009150600090505b600860008a81526020019081526020016000208054905081108015610cec5750875b15610d8257610d268787600860008d815260200190815260200160002084815481101515610d1657fe5b90600052602060002001546126c6565b9250610d5d8585600860008d815260200190815260200160002084815481101515610d4d57fe5b90600052602060002001546126c6565b915082158015610d6b575081155b15610d7557600097505b8080600101915050610cca565b8797505b5050505050505092915050565b60015481565b6000806000809054906101000a900473ffffffffffffffffffffffffffffffffffffffff1673ffffffffffffffffffffffffffffffffffffffff163373ffffffffffffffffffffffffffffffffffffffff16141515610df757600080fd5b60006008600087815260200190815260200160002080549050111515610e1c57600080fd5b610e2685846127c6565b5060009150600090505b600860008681526020019081526020016000208054905082108015610e53575080155b15610ecb57836008600087815260200190815260200160002083815481101515610e7957fe5b90600052602060002001541415610ebe57826008600087815260200190815260200160002083815481101515610eab57fe5b9060005260206000200181905550600190505b8180600101925050610e30565b801515610ed757600080fd5b7fee8d8e724c7e862fea28d798bd51f98d0d3480fb11b75f32333a8e5b0ff3707385858560405180848152602001838152602001828152602001935050505060405180910390a15050505050565b6000806000809054906101000a900473ffffffffffffffffffffffffffffffffffffffff1673ffffffffffffffffffffffffffffffffffffffff163373ffffffffffffffffffffffffffffffffffffffff16141515610f8357600080fd5b600083111515610f9257600080fd5b838314151515610fa157600080fd5b610fab84846127c6565b5060009150600090505b600860008581526020019081526020016000208054905081101561101757826008600086815260200190815260200160002082815481101515610ff457fe5b9060005260206000200154141561100a57600191505b8080600101915050610fb5565b8115151561102457600080fd5b600860008581526020019081526020016000208390806001815401808255809150509060018203906000526020600020016000909192909190915055507f2443f51057bab13e2be088b0acb28c985b1dd8e1b23628a67ad120551214900e8484604051808381526020018281526020019250505060405180910390a150505050565b6000809054906101000a900473ffffffffffffffffffffffffffffffffffffffff1673ffffffffffffffffffffffffffffffffffffffff163373ffffffffffffffffffffffffffffffffffffffff1614151561110157600080fd5b8073ffffffffffffffffffffffffffffffffffffffff1663bfb4bbae6040518163ffffffff167c0100000000000000000000000000000000000000000000000000000000028152600401602060405180830381600087803b15801561116557600080fd5b505af1158015611179573d6000803e3d6000fd5b505050506040513d602081101561118f57600080fd5b810190808051906020019092919050505015156111ab57600080fd5b80600560006101000a81548173ffffffffffffffffffffffffffffffffffffffff021916908373ffffffffffffffffffffffffffffffffffffffff16021790555050565b6000809054906101000a900473ffffffffffffffffffffffffffffffffffffffff1681565b6000809054906101000a900473ffffffffffffffffffffffffffffffffffffffff1673ffffffffffffffffffffffffffffffffffffffff163373ffffffffffffffffffffffffffffffffffffffff1614151561126f57600080fd5b8073ffffffffffffffffffffffffffffffffffffffff16633769feef6040518163ffffffff167c0100000000000000000000000000000000000000000000000000000000028152600401602060405180830381600087803b1580156112d357600080fd5b505af11580156112e7573d6000803e3d6000fd5b505050506040513d60208110156112fd57600080fd5b8101908080519060200190929190505050151561131957600080fd5b80600460006101000a81548173ffffffffffffffffffffffffffffffffffffffff021916908373ffffffffffffffffffffffffffffffffffffffff16021790555050565b6000809054906101000a900473ffffffffffffffffffffffffffffffffffffffff1673ffffffffffffffffffffffffffffffffffffffff163373ffffffffffffffffffffffffffffffffffffffff161415156113b857600080fd5b6000809054906101000a900473ffffffffffffffffffffffffffffffffffffffff1673ffffffffffffffffffffffffffffffffffffffff166108fc3073ffffffffffffffffffffffffffffffffffffffff16319081150290604051600060405180830381858888f19350505050151561142d57fe5b565b60086020528160005260406000208181548110151561144a57fe5b90600052602060002001600091509150505481565b6000809054906101000a900473ffffffffffffffffffffffffffffffffffffffff1673ffffffffffffffffffffffffffffffffffffffff163373ffffffffffffffffffffffffffffffffffffffff161415156114ba57600080fd5b8073ffffffffffffffffffffffffffffffffffffffff16632e44f1976040518163ffffffff167c0100000000000000000000000000000000000000000000000000000000028152600401602060405180830381600087803b15801561151e57600080fd5b505af1158015611532573d6000803e3d6000fd5b505050506040513d602081101561154857600080fd5b8101908080519060200190929190505050151561156457600080fd5b80600660006101000a81548173ffffffffffffffffffffffffffffffffffffffff021916908373ffffffffffffffffffffffffffffffffffffffff16021790555050565b60026020528060005260406000206000915054906101000a900460ff1681565b600080fd5b6000809054906101000a900473ffffffffffffffffffffffffffffffffffffffff1673ffffffffffffffffffffffffffffffffffffffff163373ffffffffffffffffffffffffffffffffffffffff1614151561162857600080fd5b8173ffffffffffffffffffffffffffffffffffffffff16633882c76d6040518163ffffffff167c0100000000000000000000000000000000000000000000000000000000028152600401602060405180830381600087803b15801561168c57600080fd5b505af11580156116a0573d6000803e3d6000fd5b505050506040513d60208110156116b657600080fd5b810190808051906020019092919050505015156116d257600080fd5b8173ffffffffffffffffffffffffffffffffffffffff166354fd4d506040518163ffffffff167c0100000000000000000000000000000000000000000000000000000000028152600401602060405180830381600087803b15801561173657600080fd5b505af115801561174a573d6000803e3d6000fd5b505050506040513d602081101561176057600080fd5b81019080805190602001909291905050508111151561177e57600080fd5b81600360006101000a81548173ffffffffffffffffffffffffffffffffffffffff021916908373ffffffffffffffffffffffffffffffffffffffff1602179055506117c881610bfc565b5050565b60008060009054906101000a900473ffffffffffffffffffffffffffffffffffffffff1673ffffffffffffffffffffffffffffffffffffffff163373ffffffffffffffffffffffffffffffffffffffff1614151561182957600080fd5b60008411151561183857600080fd5b600460009054906101000a900473ffffffffffffffffffffffffffffffffffffffff1673ffffffffffffffffffffffffffffffffffffffff16636facbe2b856040518263ffffffff167c010000000000000000000000000000000000000000000000000000000002815260040180828152602001915050602060405180830381600087803b1580156118c957600080fd5b505af11580156118dd573d6000803e3d6000fd5b505050506040513d60208110156118f357600080fd5b8101908080519060200190929190505050806119d75750600660009054906101000a900473ffffffffffffffffffffffffffffffffffffffff1673ffffffffffffffffffffffffffffffffffffffff16639d4f9e33856040518263ffffffff167c010000000000000000000000000000000000000000000000000000000002815260040180828152602001915050602060405180830381600087803b15801561199b57600080fd5b505af11580156119af573d6000803e3d6000fd5b505050506040513d60208110156119c557600080fd5b81019080805190602001909291905050505b15156119e257600080fd5b6000838390501115156119f457600080fd5b60006008600086815260200190815260200160002080549050141515611a1957600080fd5b600090505b82829050811015611a5557611a47848484848181101515611a3b57fe5b905060200201356127c6565b508080600101915050611a1e565b8282600860008781526020019081526020016000209190611a77929190612a1d565b507f4b77dd5ba15a736dd44af3dd43caf89250931e692df17ee5036a6d5eba48c44284848460405180848152602001806020018281038252848482818152602001925060200280828437820191505094505050505060405180910390a150505050565b60011515600260003373ffffffffffffffffffffffffffffffffffffffff1673ffffffffffffffffffffffffffffffffffffffff16815260200190815260200160002060009054906101000a900460ff16151514151515611b3a57600080fd5b6001548173ffffffffffffffffffffffffffffffffffffffff166354fd4d506040518163ffffffff167c0100000000000000000000000000000000000000000000000000000000028152600401602060405180830381600087803b158015611ba157600080fd5b505af1158015611bb5573d6000803e3d6000fd5b505050506040513d6020811015611bcb57600080fd5b8101908080519060200190929190505050111515611be857600080fd5b6001600260003373ffffffffffffffffffffffffffffffffffffffff1673ffffffffffffffffffffffffffffffffffffffff16815260200190815260200160002060006101000a81548160ff0219169083151502179055508073ffffffffffffffffffffffffffffffffffffffff163373ffffffffffffffffffffffffffffffffffffffff167fc123aa2e5c63456c59a4694ac50ba610152278a01162f3d5e3a6ffc457bc586e60405160405180910390a350565b6000806000809054906101000a900473ffffffffffffffffffffffffffffffffffffffff1673ffffffffffffffffffffffffffffffffffffffff163373ffffffffffffffffffffffffffffffffffffffff16141515611cfb57600080fd5b600083111515611d0a57600080fd5b838314151515611d1957600080fd5b60009150600090505b600860008581526020019081526020016000208054905081108015611d45575081155b15611d9357826008600086815260200190815260200160002082815481101515611d6b57fe5b90600052602060002001541415611d855760019150611d8e565b80806001019150505b611d22565b811515611d9f57600080fd5b611da984826128ec565b1515611db457600080fd5b7f34f522a51edfce89287d5f3aa3a1ddc92b7f6f8f797bc2a32555b49d0715cdef8484604051808381526020018281526020019250505060405180910390a150505050565b6000809054906101000a900473ffffffffffffffffffffffffffffffffffffffff1673ffffffffffffffffffffffffffffffffffffffff163373ffffffffffffffffffffffffffffffffffffffff16141515611e5457600080fd5b600073ffffffffffffffffffffffffffffffffffffffff168173ffffffffffffffffffffffffffffffffffffffff1614151515611e9057600080fd5b8073ffffffffffffffffffffffffffffffffffffffff166000809054906101000a900473ffffffffffffffffffffffffffffffffffffffff1673ffffffffffffffffffffffffffffffffffffffff167f8be0079c531659141344cd1fd0a4f28419497f9722a3daafe3b4186f6b6457e060405160405180910390a3806000806101000a81548173ffffffffffffffffffffffffffffffffffffffff021916908373ffffffffffffffffffffffffffffffffffffffff16021790555050565b8273ffffffffffffffffffffffffffffffffffffffff1663a9059cbb83836040518363ffffffff167c0100000000000000000000000000000000000000000000000000000000028152600401808373ffffffffffffffffffffffffffffffffffffffff1673ffffffffffffffffffffffffffffffffffffffff16815260200182815260200192505050602060405180830381600087803b158015611ff157600080fd5b505af1158015612005573d6000803e3d6000fd5b505050506040513d602081101561201b57600080fd5b8101908080519060200190929190505050151561203457fe5b505050565b600060606000806000806000600760009054906101000a900473ffffffffffffffffffffffffffffffffffffffff1673ffffffffffffffffffffffffffffffffffffffff16636d6a1d78896040518263ffffffff167c0100000000000000000000000000000000000000000000000000000000028152600401808273ffffffffffffffffffffffffffffffffffffffff1673ffffffffffffffffffffffffffffffffffffffff168152602001915050602060405180830381600087803b15801561210257600080fd5b505af1158015612116573d6000803e3d6000fd5b505050506040513d602081101561212c57600080fd5b810190808051906020019092919050505096508660405190808252806020026020018201604052801561216e5781602001602082028038833980820191505090505b50955060009350600091505b8682101561241857600760009054906101000a900473ffffffffffffffffffffffffffffffffffffffff1673ffffffffffffffffffffffffffffffffffffffff16637fdfb10c89846040518363ffffffff167c0100000000000000000000000000000000000000000000000000000000028152600401808373ffffffffffffffffffffffffffffffffffffffff1673ffffffffffffffffffffffffffffffffffffffff168152602001828152602001925050506040805180830381600087803b15801561224657600080fd5b505af115801561225a573d6000803e3d6000fd5b505050506040513d604081101561227057600080fd5b810190808051906020019092919080519060200190929190505050809450819650505082156122bd5784868584038151811015156122aa57fe5b906020019060200201818152505061240b565b600560009054906101000a900473ffffffffffffffffffffffffffffffffffffffff1673ffffffffffffffffffffffffffffffffffffffff166368992677896103e88801856040518463ffffffff167c0100000000000000000000000000000000000000000000000000000000028152600401808473ffffffffffffffffffffffffffffffffffffffff1673ffffffffffffffffffffffffffffffffffffffff16815260200183815260200182815260200193505050506040805180830381600087803b15801561238d57600080fd5b505af11580156123a1573d6000803e3d6000fd5b505050506040513d60408110156123b757600080fd5b810190808051906020019092919080519060200190929190505050508091505080156124015784868584038151811015156123ee57fe5b906020019060200201818152505061240a565b83806001019450505b5b818060010192505061217a565b83870386965096505050505050915091565b600060606000806000600560009054906101000a900473ffffffffffffffffffffffffffffffffffffffff1673ffffffffffffffffffffffffffffffffffffffff1663f47579a7876040518263ffffffff167c0100000000000000000000000000000000000000000000000000000000028152600401808273ffffffffffffffffffffffffffffffffffffffff1673ffffffffffffffffffffffffffffffffffffffff168152602001915050602060405180830381600087803b1580156124f057600080fd5b505af1158015612504573d6000803e3d6000fd5b505050506040513d602081101561251a57600080fd5b810190808051906020019092919050505094508460405190808252806020026020018201604052801561255c5781602001602082028038833980820191505090505b509350600091505b848210156126b857600560009054906101000a900473ffffffffffffffffffffffffffffffffffffffff1673ffffffffffffffffffffffffffffffffffffffff1663c5fbe6ce87846040518363ffffffff167c0100000000000000000000000000000000000000000000000000000000028152600401808373ffffffffffffffffffffffffffffffffffffffff1673ffffffffffffffffffffffffffffffffffffffff168152602001828152602001925050506040805180830381600087803b15801561263057600080fd5b505af1158015612644573d6000803e3d6000fd5b505050506040513d604081101561265a57600080fd5b8101908080519060200190929190805190602001909291905050508092508194505050438110156126a75782848381518110151561269457fe5b90602001906020020181815250506126ab565b8194505b8180600101925050612564565b848494509450505050915091565b6000806000809150600090505b84821080156126e0575080155b156127ba576103e8848115156126f257fe5b066103e8878481518110151561270457fe5b9060200190602002015181151561271757fe5b0614156127ad57600190506103e8806103e88681151561273357fe5b06860381151561273f57fe5b0481151561274957fe5b066103e8806103e8898681518110151561275f57fe5b9060200190602002015181151561277257fe5b06898681518110151561278157fe5b906020019060200201510381151561279557fe5b0481151561279f57fe5b061015156127ac57600192505b5b81806001019250506126d3565b82925050509392505050565b600080821115156127d657600080fd5b6103e883108061280057506103e8828115156127ee57fe5b066103e8848115156127fc57fe5b0614155b151561280b57600080fd5b600460009054906101000a900473ffffffffffffffffffffffffffffffffffffffff1673ffffffffffffffffffffffffffffffffffffffff16636facbe2b836040518263ffffffff167c010000000000000000000000000000000000000000000000000000000002815260040180828152602001915050602060405180830381600087803b15801561289c57600080fd5b505af11580156128b0573d6000803e3d6000fd5b505050506040513d60208110156128c657600080fd5b810190808051906020019092919050505015156128e257600080fd5b6001905092915050565b6000808290505b60086000858152602001908152602001600020805490508110156129e857600160086000868152602001908152602001600020805490500381141561297e5760086000858152602001908152602001600020600160086000878152602001908152602001600020805490500381548110151561296b57fe5b90600052602060002001600090556129db565b60086000858152602001908152602001600020600182018154811015156129a157fe5b906000526020600020015460086000868152602001908152602001600020828154811015156129cc57fe5b90600052602060002001819055505b80806001019150506128f3565b60016008600086815260200190815260200160002081818054905003915081612a119190612a6a565b50600191505092915050565b828054828255906000526020600020908101928215612a59579160200282015b82811115612a58578235825591602001919060010190612a3d565b5b509050612a669190612a96565b5090565b815481835581811115612a9157818360005260206000209182019101612a909190612a96565b5b505050565b612ab891905b80821115612ab4576000816000905550600101612a9c565b5090565b905600a165627a7a7230582035382740dc83e49a8ad09532a0999bdd38452654b61383ba15fe83a888054b870029",
  "source": "pragma solidity ^0.4.23;\n\nimport 'zeppelin-solidity/contracts/ownership/NoOwner.sol';\nimport './Versioned.sol';\nimport './BuildingsData.sol';\nimport './BuildingsQueue.sol';\nimport './UnitsData.sol';\nimport './UserBuildings.sol';\n\n/**\n * @title AssetsRequirements (WIP)\n * @notice This contract lists the assets creation requirements.\n * @dev You can add requirements and update them\n * @dev Issue: * https://github.com/e11-io/crypto-wars-solidity/issues/\n */\ncontract AssetsRequirements is NoOwner, Versioned {\n\n  /**\n   * @dev event for setting up the requirements for an asset\n   * @param id of the asset\n   * @param requirements the requirements array of the asset\n   */\n  event SetAssetRequirements(uint id, uint[] requirements);\n\n  /**\n   * @dev event for adding a new requirements to an asset\n   * @param id of the asset\n   * @param requirement the new requirement of the asset\n   */\n  event AddedAssetRequirement(uint id, uint requirement);\n\n  /**\n   * event for removing a requirement from an asset\n   * @param id of the asset to remove the requirement from\n   * @param requirement the requirement to remove\n   */\n  event RemovedAssetRequirement(uint id, uint requirement);\n\n  /**\n   * event for updating an asset requirement\n   * @param id of the asset to update\n   * @param oldRequirement the old requirement to be updated\n   * @param newRequirement the new requirement\n   */\n  event UpdatedAssetRequirement(uint id, uint oldRequirement, uint newRequirement);\n\n  AssetsRequirements previousAssetsRequirements;\n  BuildingsData buildingsData;\n  BuildingsQueue buildingsQueue;\n  UnitsData unitsData;\n  UserBuildings userBuildings;\n\n  // Mapping of uint (buildings id) -> uint[] (buildings ids).\n  mapping (uint => uint[]) public requirements;\n\n\n  /*\n   * @notice Constructor: Instantiate Assets Requirements contract.\n   * @dev Constructor function.\n   */\n  constructor() public {\n  }\n\n  /*\n   * @notice Makes the contract type verifiable.\n   * @dev Function to prove the contract is Assets Requirements.\n   */\n  function isAssetsRequirements() external pure returns (bool) {\n    return true;\n  }\n\n  /*\n   * @notice Sets the contract's version and instantiates the previous version contract.\n   * @dev Function to set the contract version and instantiate the previous Assets Requirements.\n   * @param _previousAssetsRequirements the address of previous Assets Requirements contract. (address)\n   * @param _version the current contract version number. (uint)\n   */\n  function setAssetsRequirementsVersion(AssetsRequirements _previousAssetsRequirements, uint _version) external onlyOwner {\n    require(_previousAssetsRequirements.isAssetsRequirements());\n    require(_version > _previousAssetsRequirements.version());\n    previousAssetsRequirements = _previousAssetsRequirements;\n    setVersion(_version);\n  }\n\n  /*\n   * @notice Instantiate Buildings Data contract.\n   * @dev Function to provide Buildings Data address and instantiate it.\n   * @param _buildingsData the address of Buildings Data contract. (address)\n   */\n  function setBuildingsData(BuildingsData _buildingsData) external onlyOwner {\n    require(_buildingsData.isBuildingsData());\n    buildingsData = _buildingsData;\n  }\n\n  /*\n   * @title Instantiate Buildings Queue contract.\n   * @dev Function to provide Buildings Queue address and instantiate it.\n   * @param _buildingsQueue the address of Buildings Queue contract. (address)\n   */\n  function setBuildingsQueue(BuildingsQueue _buildingsQueue) external onlyOwner {\n    require(_buildingsQueue.isBuildingsQueue());\n    buildingsQueue = _buildingsQueue;\n  }\n\n  /*\n   * @title Instantiate User Buildings contract.\n   * @dev Function to provide User Buildings address and instantiate it.\n   * @param _userBuildings the address of User Buildings contract. (address)\n   */\n  function setUserBuildings(UserBuildings _userBuildings) external onlyOwner {\n    require(_userBuildings.isUserBuildings());\n    userBuildings = _userBuildings;\n  }\n\n  /*\n   * @notice Instantiate Buildings Data contract.\n   * @dev Function to provide Buildings Data address and instantiate it.\n   * @param _buildingsData the address of Buildings Data contract. (address)\n   */\n  function setUnitsData(UnitsData _unitsData) external onlyOwner {\n    require(_unitsData.isUnitsData());\n    unitsData = _unitsData;\n  }\n\n  /*\n   * @notice Add new asset with requirements\n   * @dev This method create a new Asset Requirement definition that can be used on the game.\n   * @param _id (uint)\n   * @param _requirements (uint[]) array of requirements for the asset:\n   *      class (int32)\n   *      level (int32)\n   *      typeId (int32)\n   */\n  function setAssetRequirements(uint _id,\n                                uint[] _requirements) external onlyOwner {\n\n    require(_id > 0);\n    require(buildingsData.checkBuildingExist(_id) || unitsData.checkUnitExist(_id));\n    require(_requirements.length > 0);\n    require(requirements[_id].length == 0);\n\n    for (uint i = 0; i < _requirements.length; i++) {\n      validateRequirement(_id, _requirements[i]);\n    }\n\n    requirements[_id] = _requirements;\n\n    emit SetAssetRequirements(_id, _requirements);\n  }\n\n  /*\n   * @title Add a specific asset requirement\n   * @dev This method is used to add a requirement to an asset\n   * @param _id (uint)\n   * @param _requirement (uint)\n   */\n  function addAssetRequirement(uint _id,\n                               uint _requirement) external onlyOwner {\n\n    require(_requirement > 0);\n    require(_requirement != _id);\n    validateRequirement(_id, _requirement);\n\n    bool found = false;\n    for (uint i = 0; i < requirements[_id].length; i++) {\n      if (requirements[_id][i] == _requirement) {\n        found = true;\n      }\n    }\n    require(!found);\n\n    requirements[_id].push(_requirement);\n\n    emit AddedAssetRequirement(_id, _requirement);\n  }\n\n  /*\n   * @title Remove a specific asset requirement\n   * @dev This method is used to remove a requirement from an asset\n   * @param _id (uint)\n   * @param _requirement (uint)\n   */\n  function removeAssetRequirement(uint _id,\n                                  uint _requirement) external onlyOwner {\n    require(_requirement > 0);\n    require(_requirement != _id);\n\n    bool found = false;\n    uint i = 0;\n    while (i < requirements[_id].length && !found) {\n      if (requirements[_id][i] == _requirement) {\n        found = true;\n      } else {\n        i++;\n      }\n    }\n    require(found);\n\n    require(shiftRequirement(_id, i));\n\n    emit RemovedAssetRequirement(_id, _requirement);\n  }\n\n  /*\n   * @title Update a specific asset requirement\n   * @dev This method is used to update an asset requirement\n   * @param _id (uint)\n   * @param _oldRequirement (int32)\n   * @param _newRequirement (int32)\n   */\n  function updateAssetRequirement(uint _id,\n                                  uint _oldRequirement,\n                                  uint _newRequirement) external onlyOwner {\n    require(requirements[_id].length > 0);\n    validateRequirement(_id, _newRequirement);\n\n    uint i = 0;\n    bool updated = false;\n    while (i < requirements[_id].length && !updated) {\n      if (requirements[_id][i] == _oldRequirement) {\n        requirements[_id][i] = _newRequirement;\n        updated = true;\n      }\n      i++;\n    }\n\n    require(updated);\n\n    emit UpdatedAssetRequirement(_id, _oldRequirement, _newRequirement);\n  }\n\n  /*\n   * @title Check user asset requirements\n   * @dev This method is used to check if a user has the requirements for an asset\n   * @param _user (address)\n   * @param _id (uint)\n   */\n  function validateUserAssetRequirements(address _user, uint _id) external view returns (bool valid) {\n    if (requirements[_id].length == 0) return true;\n\n    uint[] memory userBuildingsIds;\n    uint userBuildingsLength;\n    (userBuildingsLength, userBuildingsIds) = getUserBuildingsIds(_user);\n\n    uint[] memory buildingsQueueIds;\n    uint buildingsQueueLength;\n    (buildingsQueueLength, buildingsQueueIds) = getBuildingsQueueIds(_user);\n\n    valid = true;\n    bool userBuildingRequirement = false;\n    bool buildingsQueueRequirement = false;\n    uint i = 0;\n    while (i < requirements[_id].length && valid) {\n      userBuildingRequirement = checkRequirement(userBuildingsIds, userBuildingsLength, requirements[_id][i]);\n      buildingsQueueRequirement = checkRequirement(buildingsQueueIds, buildingsQueueLength, requirements[_id][i]);\n      if (!userBuildingRequirement && !buildingsQueueRequirement) {\n        valid = false;\n      }\n      i++;\n    }\n    return valid;\n  }\n\n  /*\n   * @title Get User Buildings Ids\n   * @dev This method is used to get the buildings in User Buildings that are valid to check requirements.\n   * @param _user (address)\n   */\n  function getUserBuildingsIds(address _user) internal view returns (uint userBuildingsLength, uint[] userBuildingsIds) {\n    userBuildingsLength = userBuildings.getUserBuildingsLength(_user);\n    userBuildingsIds = new uint[](userBuildingsLength);\n    uint id;\n    uint diff = 0;\n    bool active;\n    for (uint index = 0; index < userBuildingsLength; index++) {\n      (id, active) = userBuildings.getUserBuildingIdAndStatus(_user, index);\n      if (active) {\n        userBuildingsIds[index - diff] = id;\n      } else {\n        bool isInQueue;\n        (isInQueue, )= buildingsQueue.findBuildingInQueue(_user, id + 1000, index);\n        if (isInQueue) {\n          userBuildingsIds[index - diff] = id;\n        } else {\n          diff++;\n        }\n      }\n    }\n    return (userBuildingsLength - diff, userBuildingsIds);\n  }\n\n  /*\n   * @title Get Buildings Queue Ids\n   * @dev This method is used to get the buildings in Buildings Queue that are valid to check requirements.\n   * @param _user (address)\n   */\n  function getBuildingsQueueIds(address _user) internal view returns (uint buildingsQueueLength, uint[] buildingsQueueIds) {\n    buildingsQueueLength = buildingsQueue.getBuildingsQueueLength(_user);\n    buildingsQueueIds = new uint[](buildingsQueueLength);\n    uint id;\n    uint index = 0;\n    uint endBlock;\n    while (index < buildingsQueueLength) {\n      (id, endBlock) = buildingsQueue.getBuildingIdAndEndBlock(_user, index);\n      if (endBlock < block.number) {\n        buildingsQueueIds[index] = id;\n      } else {\n        buildingsQueueLength = index;\n      }\n      index++;\n    }\n    return (buildingsQueueLength, buildingsQueueIds);\n  }\n\n  /*\n   * @title Check requirement type and level against an array of buildingIds\n   * @dev This method is a helper used to check if a user has the requirements for an asset\n   * @param _ids (uint[])\n   * @param _length (uint) the valid length from the filtered original array\n   * @param _requirement (uint)\n   */\n  function checkRequirement(uint[] _ids, uint _length, uint _requirement) internal pure returns (bool valid) {\n    uint i = 0;\n    bool found = false;\n    /* Loops through _ids until it find a building with the same typeId\n     * and then compares if the user level is the same or greater than the requirement level.\n     */\n    while (i < _length && !found) {\n      // Gets the last 3 digits (xxxxx000) of the id (typeId)\n      if (_ids[i] % 1000 == _requirement % 1000) {\n        found = true;\n        // Gets the previous 3 digits (xx000xxx) of the id (level)\n        if (((_ids[i] - (_ids[i] % 1000)) / 1000) % 1000 >=\n            ((_requirement - (_requirement % 1000)) / 1000) % 1000) {\n          valid = true;\n        }\n      }\n      i++;\n    }\n    return valid;\n  }\n\n  /*\n  * @title Validates if a specific requirement is valid\n  * @dev This method is used to check if a specific requirement is valid\n  * @param _id (uint)\n  * @param _requirement (uint)\n  */\n  function validateRequirement(uint _id, uint _requirement) internal view returns (bool valid)  {\n    require(_requirement > 0);\n\n    // Require to be a unit or to have a different type id\n    require(_id < 1000 || (_id % 1000 != _requirement % 1000));\n    require(buildingsData.checkBuildingExist(_requirement));\n    return true;\n  }\n\n  /*\n   * @title Get Requirements\n   * @dev Function to get the building requirements.\n   * @param _id The id of the building. (uint)\n   * @return an array of uints representing the requirements.\n   */\n  function getRequirements(uint _id) external view returns (uint[]) {\n    return requirements[_id];\n  }\n\n  /*\n   * @notice Shift Requirement.\n   * @dev Function to shift one specified building's requirement.\n   * @param _id The id of the building. (address)\n   * @param _index The index of the requirement to be removed. (uint)\n   * @return A boolean that indicates if the operation was successful.\n   */\n  function shiftRequirement(uint _id, uint _index) internal returns (bool) {\n    for (uint i = _index; i < requirements[_id].length; i++) {\n      if (i == requirements[_id].length - 1) {\n        delete requirements[_id][requirements[_id].length - 1];\n      } else {\n        requirements[_id][i] = requirements[_id][i + 1];\n      }\n    }\n    requirements[_id].length -= 1;\n    return true;\n  }\n\n}\n",
  "sourcePath": "/home/francisco/Truffle/crypto-wars-solidity/contracts/AssetsRequirements.sol",
  "compiler": {
    "name": "solc",
    "version": "0.4.23+commit.124ca40d.Emscripten.clang"
  },
  "schemaVersion": "2.0.0",
  "updatedAt": "2018-04-26T19:14:33.747Z"
}