{
  "contractName": "BuildingsQueue",
  "abi": [
    {
      "constant": false,
      "inputs": [
        {
          "name": "token",
          "type": "address"
        }
      ],
      "name": "reclaimToken",
      "outputs": [],
      "payable": false,
      "stateMutability": "nonpayable",
      "type": "function"
    },
    {
      "constant": false,
      "inputs": [
        {
          "name": "contractAddr",
          "type": "address"
        }
      ],
      "name": "reclaimContract",
      "outputs": [],
      "payable": false,
      "stateMutability": "nonpayable",
      "type": "function"
    },
    {
      "constant": false,
      "inputs": [
        {
          "name": "_version",
          "type": "uint256"
        }
      ],
      "name": "setVersion",
      "outputs": [],
      "payable": false,
      "stateMutability": "nonpayable",
      "type": "function"
    },
    {
      "constant": true,
      "inputs": [
        {
          "name": "",
          "type": "address"
        },
        {
          "name": "",
          "type": "uint256"
        }
      ],
      "name": "userBuildingsQueue",
      "outputs": [
        {
          "name": "id",
          "type": "uint32"
        },
        {
          "name": "index",
          "type": "uint32"
        },
        {
          "name": "startBlock",
          "type": "uint64"
        },
        {
          "name": "endBlock",
          "type": "uint64"
        }
      ],
      "payable": false,
      "stateMutability": "view",
      "type": "function"
    },
    {
      "constant": true,
      "inputs": [],
      "name": "version",
      "outputs": [
        {
          "name": "",
          "type": "uint256"
        }
      ],
      "payable": false,
      "stateMutability": "view",
      "type": "function"
    },
    {
      "constant": true,
      "inputs": [],
      "name": "owner",
      "outputs": [
        {
          "name": "",
          "type": "address"
        }
      ],
      "payable": false,
      "stateMutability": "view",
      "type": "function"
    },
    {
      "constant": false,
      "inputs": [],
      "name": "reclaimEther",
      "outputs": [],
      "payable": false,
      "stateMutability": "nonpayable",
      "type": "function"
    },
    {
      "constant": true,
      "inputs": [
        {
          "name": "",
          "type": "address"
        }
      ],
      "name": "migratedUsers",
      "outputs": [
        {
          "name": "",
          "type": "bool"
        }
      ],
      "payable": false,
      "stateMutability": "view",
      "type": "function"
    },
    {
      "constant": false,
      "inputs": [
        {
          "name": "from_",
          "type": "address"
        },
        {
          "name": "value_",
          "type": "uint256"
        },
        {
          "name": "data_",
          "type": "bytes"
        }
      ],
      "name": "tokenFallback",
      "outputs": [],
      "payable": false,
      "stateMutability": "nonpayable",
      "type": "function"
    },
    {
      "constant": false,
      "inputs": [
        {
          "name": "_newContract",
          "type": "address"
        }
      ],
      "name": "migrateUser",
      "outputs": [],
      "payable": false,
      "stateMutability": "nonpayable",
      "type": "function"
    },
    {
      "constant": false,
      "inputs": [
        {
          "name": "newOwner",
          "type": "address"
        }
      ],
      "name": "transferOwnership",
      "outputs": [],
      "payable": false,
      "stateMutability": "nonpayable",
      "type": "function"
    },
    {
      "inputs": [],
      "payable": false,
      "stateMutability": "nonpayable",
      "type": "constructor"
    },
    {
      "payable": false,
      "stateMutability": "nonpayable",
      "type": "fallback"
    },
    {
      "anonymous": false,
      "inputs": [
        {
          "indexed": false,
          "name": "_user",
          "type": "address"
        },
        {
          "indexed": false,
          "name": "_id",
          "type": "uint256"
        },
        {
          "indexed": false,
          "name": "_index",
          "type": "uint256"
        },
        {
          "indexed": false,
          "name": "_startBlock",
          "type": "uint256"
        },
        {
          "indexed": false,
          "name": "_endBlock",
          "type": "uint256"
        }
      ],
      "name": "AddNewBuildingToQueue",
      "type": "event"
    },
    {
      "anonymous": false,
      "inputs": [
        {
          "indexed": false,
          "name": "_user",
          "type": "address"
        },
        {
          "indexed": false,
          "name": "_ids",
          "type": "uint256[]"
        },
        {
          "indexed": false,
          "name": "_indexes",
          "type": "uint256[]"
        }
      ],
      "name": "UpdateQueue",
      "type": "event"
    },
    {
      "anonymous": false,
      "inputs": [
        {
          "indexed": false,
          "name": "_idOfUpgrade",
          "type": "uint256"
        },
        {
          "indexed": false,
          "name": "_index",
          "type": "uint256"
        },
        {
          "indexed": false,
          "name": "startBlock",
          "type": "uint256"
        },
        {
          "indexed": false,
          "name": "endBlock",
          "type": "uint256"
        }
      ],
      "name": "UpgradeBuilding",
      "type": "event"
    },
    {
      "anonymous": false,
      "inputs": [
        {
          "indexed": false,
          "name": "_user",
          "type": "address"
        },
        {
          "indexed": false,
          "name": "_id",
          "type": "uint256"
        },
        {
          "indexed": false,
          "name": "_index",
          "type": "uint256"
        }
      ],
      "name": "RemoveBuilding",
      "type": "event"
    },
    {
      "anonymous": false,
      "inputs": [
        {
          "indexed": true,
          "name": "user",
          "type": "address"
        },
        {
          "indexed": true,
          "name": "newContract",
          "type": "address"
        }
      ],
      "name": "UserMigrated",
      "type": "event"
    },
    {
      "anonymous": false,
      "inputs": [
        {
          "indexed": true,
          "name": "previousOwner",
          "type": "address"
        },
        {
          "indexed": true,
          "name": "newOwner",
          "type": "address"
        }
      ],
      "name": "OwnershipTransferred",
      "type": "event"
    },
    {
      "constant": true,
      "inputs": [],
      "name": "isBuildingsQueue",
      "outputs": [
        {
          "name": "",
          "type": "bool"
        }
      ],
      "payable": false,
      "stateMutability": "pure",
      "type": "function"
    },
    {
      "constant": false,
      "inputs": [
        {
          "name": "_previousBuildingsQueue",
          "type": "address"
        },
        {
          "name": "_version",
          "type": "uint256"
        }
      ],
      "name": "setBuildingsQueueVersion",
      "outputs": [],
      "payable": false,
      "stateMutability": "nonpayable",
      "type": "function"
    },
    {
      "constant": false,
      "inputs": [
        {
          "name": "_userBuildings",
          "type": "address"
        }
      ],
      "name": "setUserBuildings",
      "outputs": [],
      "payable": false,
      "stateMutability": "nonpayable",
      "type": "function"
    },
    {
      "constant": false,
      "inputs": [
        {
          "name": "_buildingsData",
          "type": "address"
        }
      ],
      "name": "setBuildingsData",
      "outputs": [],
      "payable": false,
      "stateMutability": "nonpayable",
      "type": "function"
    },
    {
      "constant": false,
      "inputs": [
        {
          "name": "_userResources",
          "type": "address"
        }
      ],
      "name": "setUserResources",
      "outputs": [],
      "payable": false,
      "stateMutability": "nonpayable",
      "type": "function"
    },
    {
      "constant": false,
      "inputs": [
        {
          "name": "_assetsRequirements",
          "type": "address"
        }
      ],
      "name": "setAssetsRequirements",
      "outputs": [],
      "payable": false,
      "stateMutability": "nonpayable",
      "type": "function"
    },
    {
      "constant": false,
      "inputs": [
        {
          "name": "_id",
          "type": "uint256"
        }
      ],
      "name": "addNewBuildingToQueue",
      "outputs": [],
      "payable": false,
      "stateMutability": "nonpayable",
      "type": "function"
    },
    {
      "constant": false,
      "inputs": [
        {
          "name": "_user",
          "type": "address"
        }
      ],
      "name": "updateQueue",
      "outputs": [],
      "payable": false,
      "stateMutability": "nonpayable",
      "type": "function"
    },
    {
      "constant": false,
      "inputs": [
        {
          "name": "_id",
          "type": "uint256"
        },
        {
          "name": "_idOfUpgrade",
          "type": "uint256"
        },
        {
          "name": "_index",
          "type": "uint256"
        }
      ],
      "name": "upgradeBuilding",
      "outputs": [],
      "payable": false,
      "stateMutability": "nonpayable",
      "type": "function"
    },
    {
      "constant": true,
      "inputs": [
        {
          "name": "_user",
          "type": "address"
        },
        {
          "name": "_id",
          "type": "uint256"
        },
        {
          "name": "_index",
          "type": "uint256"
        }
      ],
      "name": "findBuildingInQueue",
      "outputs": [
        {
          "name": "exists",
          "type": "bool"
        },
        {
          "name": "indexInQueue",
          "type": "uint256"
        }
      ],
      "payable": false,
      "stateMutability": "view",
      "type": "function"
    },
    {
      "constant": true,
      "inputs": [
        {
          "name": "_user",
          "type": "address"
        }
      ],
      "name": "getLastUserBuilding",
      "outputs": [
        {
          "name": "id",
          "type": "uint256"
        },
        {
          "name": "startBlock",
          "type": "uint256"
        },
        {
          "name": "endBlock",
          "type": "uint256"
        }
      ],
      "payable": false,
      "stateMutability": "view",
      "type": "function"
    },
    {
      "constant": true,
      "inputs": [
        {
          "name": "_user",
          "type": "address"
        }
      ],
      "name": "getBuildingsInQueue",
      "outputs": [
        {
          "name": "",
          "type": "uint256[]"
        }
      ],
      "payable": false,
      "stateMutability": "view",
      "type": "function"
    },
    {
      "constant": true,
      "inputs": [
        {
          "name": "_user",
          "type": "address"
        }
      ],
      "name": "getBuildings",
      "outputs": [
        {
          "name": "",
          "type": "uint256[]"
        },
        {
          "name": "",
          "type": "uint256[]"
        },
        {
          "name": "",
          "type": "uint256[]"
        },
        {
          "name": "",
          "type": "uint256[]"
        }
      ],
      "payable": false,
      "stateMutability": "view",
      "type": "function"
    },
    {
      "constant": true,
      "inputs": [
        {
          "name": "_user",
          "type": "address"
        },
        {
          "name": "_indexInQueue",
          "type": "uint256"
        }
      ],
      "name": "getBuildingIdAndEndBlock",
      "outputs": [
        {
          "name": "id",
          "type": "uint256"
        },
        {
          "name": "endBlock",
          "type": "uint256"
        }
      ],
      "payable": false,
      "stateMutability": "view",
      "type": "function"
    },
    {
      "constant": true,
      "inputs": [
        {
          "name": "_user",
          "type": "address"
        },
        {
          "name": "_indexInQueue",
          "type": "uint256"
        }
      ],
      "name": "getBuildingIndex",
      "outputs": [
        {
          "name": "id",
          "type": "uint256"
        },
        {
          "name": "index",
          "type": "uint256"
        }
      ],
      "payable": false,
      "stateMutability": "view",
      "type": "function"
    },
    {
      "constant": true,
      "inputs": [
        {
          "name": "_user",
          "type": "address"
        }
      ],
      "name": "getUserQueueResources",
      "outputs": [
        {
          "name": "queueGold",
          "type": "uint256"
        },
        {
          "name": "queueCrystal",
          "type": "uint256"
        }
      ],
      "payable": false,
      "stateMutability": "view",
      "type": "function"
    },
    {
      "constant": true,
      "inputs": [
        {
          "name": "_user",
          "type": "address"
        }
      ],
      "name": "getBuildingsQueueLength",
      "outputs": [
        {
          "name": "length",
          "type": "uint256"
        }
      ],
      "payable": false,
      "stateMutability": "view",
      "type": "function"
    },
    {
      "constant": false,
      "inputs": [
        {
          "name": "_id",
          "type": "uint256"
        },
        {
          "name": "_index",
          "type": "uint256"
        }
      ],
      "name": "cancelBuilding",
      "outputs": [],
      "payable": false,
      "stateMutability": "nonpayable",
      "type": "function"
    },
    {
      "constant": true,
      "inputs": [
        {
          "name": "_user",
          "type": "address"
        }
      ],
      "name": "getUserResourcesCapacity",
      "outputs": [
        {
          "name": "totalGoldCapacity",
          "type": "uint256"
        },
        {
          "name": "totalCrystalCapacity",
          "type": "uint256"
        }
      ],
      "payable": false,
      "stateMutability": "view",
      "type": "function"
    }
  ],
  "bytecode": "0x60806040523480156200001157600080fd5b50336000806101000a81548173ffffffffffffffffffffffffffffffffffffffff021916908373ffffffffffffffffffffffffffffffffffffffff1602179055506000341415156200006257600080fd5b615f2a80620000726000396000f300608060405260043610610180576000357c0100000000000000000000000000000000000000000000000000000000900463ffffffff16806311c68f1e1461018f57806317ffc32014610227578063243572111461026a5780632a730410146102ad5780632aed7f3f1461041d5780633f12cad014610460578063408def1e146104c557806347ac6136146104f257806354fd4d50146105a857806368992677146105d357806379eac4cc146106495780637c29763f146106965780637fb92b87146106cd5780638da5cb5b1461071057806396dc25b9146107675780639f727c27146107aa578063bbe768a4146107c1578063bfb4bbae1461081c578063bfe97e721461084b578063c0ee0b8a146108b3578063c3251e5514610918578063c5fbe6ce1461095b578063cc6ebc8b146109c3578063d5b999fd14610a04578063dd6c7e3114610a47578063e1247d0c14610a8a578063eb80520d14610ab7578063ec87155d14610b15578063f2fde38b14610b73578063f47579a714610bb6575b34801561018c57600080fd5b50005b34801561019b57600080fd5b506101d0600480360381019080803573ffffffffffffffffffffffffffffffffffffffff169060200190929190505050610c0d565b6040518080602001828103825283818151815260200191508051906020019060200280838360005b838110156102135780820151818401526020810190506101f8565b505050509050019250505060405180910390f35b34801561023357600080fd5b50610268600480360381019080803573ffffffffffffffffffffffffffffffffffffffff169060200190929190505050610d78565b005b34801561027657600080fd5b506102ab600480360381019080803573ffffffffffffffffffffffffffffffffffffffff169060200190929190505050610efd565b005b3480156102b957600080fd5b506102ee600480360381019080803573ffffffffffffffffffffffffffffffffffffffff169060200190929190505050611046565b6040518080602001806020018060200180602001858103855289818151815260200191508051906020019060200280838360005b8381101561033d578082015181840152602081019050610322565b50505050905001858103845288818151815260200191508051906020019060200280838360005b8381101561037f578082015181840152602081019050610364565b50505050905001858103835287818151815260200191508051906020019060200280838360005b838110156103c15780820151818401526020810190506103a6565b50505050905001858103825286818151815260200191508051906020019060200280838360005b838110156104035780820151818401526020810190506103e8565b505050509050019850505050505050505060405180910390f35b34801561042957600080fd5b5061045e600480360381019080803573ffffffffffffffffffffffffffffffffffffffff169060200190929190505050611411565b005b34801561046c57600080fd5b506104a1600480360381019080803573ffffffffffffffffffffffffffffffffffffffff169060200190929190505050611549565b60405180848152602001838152602001828152602001935050505060405180910390f35b3480156104d157600080fd5b506104f0600480360381019080803590602001909291905050506116f1565b005b3480156104fe57600080fd5b5061053d600480360381019080803573ffffffffffffffffffffffffffffffffffffffff16906020019092919080359060200190929190505050611756565b604051808563ffffffff1663ffffffff1681526020018463ffffffff1663ffffffff1681526020018367ffffffffffffffff1667ffffffffffffffff1681526020018267ffffffffffffffff1667ffffffffffffffff16815260200194505050505060405180910390f35b3480156105b457600080fd5b506105bd6117e6565b6040518082815260200191505060405180910390f35b3480156105df57600080fd5b50610628600480360381019080803573ffffffffffffffffffffffffffffffffffffffff16906020019092919080359060200190929190803590602001909291905050506117ec565b60405180831515151581526020018281526020019250505060405180910390f35b34801561065557600080fd5b50610694600480360381019080803573ffffffffffffffffffffffffffffffffffffffff1690602001909291908035906020019092919050505061195d565b005b3480156106a257600080fd5b506106cb6004803603810190808035906020019092919080359060200190929190505050611b5c565b005b3480156106d957600080fd5b5061070e600480360381019080803573ffffffffffffffffffffffffffffffffffffffff169060200190929190505050611f5a565b005b34801561071c57600080fd5b506107256120a3565b604051808273ffffffffffffffffffffffffffffffffffffffff1673ffffffffffffffffffffffffffffffffffffffff16815260200191505060405180910390f35b34801561077357600080fd5b506107a8600480360381019080803573ffffffffffffffffffffffffffffffffffffffff1690602001909291905050506120c8565b005b3480156107b657600080fd5b506107bf612211565b005b3480156107cd57600080fd5b50610802600480360381019080803573ffffffffffffffffffffffffffffffffffffffff1690602001909291905050506122e3565b604051808215151515815260200191505060405180910390f35b34801561082857600080fd5b50610831612303565b604051808215151515815260200191505060405180910390f35b34801561085757600080fd5b50610896600480360381019080803573ffffffffffffffffffffffffffffffffffffffff1690602001909291908035906020019092919050505061230c565b604051808381526020018281526020019250505060405180910390f35b3480156108bf57600080fd5b50610916600480360381019080803573ffffffffffffffffffffffffffffffffffffffff1690602001909291908035906020019092919080359060200190820180359060200191909192939192939050505061248c565b005b34801561092457600080fd5b50610959600480360381019080803573ffffffffffffffffffffffffffffffffffffffff169060200190929190505050612491565b005b34801561096757600080fd5b506109a6600480360381019080803573ffffffffffffffffffffffffffffffffffffffff16906020019092919080359060200190929190505050612af7565b604051808381526020018281526020019250505060405180910390f35b3480156109cf57600080fd5b50610a02600480360381019080803590602001909291908035906020019092919080359060200190929190505050612c43565b005b348015610a1057600080fd5b50610a45600480360381019080803573ffffffffffffffffffffffffffffffffffffffff16906020019092919050505061346a565b005b348015610a5357600080fd5b50610a88600480360381019080803573ffffffffffffffffffffffffffffffffffffffff1690602001909291905050506135b3565b005b348015610a9657600080fd5b50610ab560048036038101908080359060200190929190505050613776565b005b348015610ac357600080fd5b50610af8600480360381019080803573ffffffffffffffffffffffffffffffffffffffff169060200190929190505050613f8f565b604051808381526020018281526020019250505060405180910390f35b348015610b2157600080fd5b50610b56600480360381019080803573ffffffffffffffffffffffffffffffffffffffff16906020019092919050505061440d565b604051808381526020018281526020019250505060405180910390f35b348015610b7f57600080fd5b50610bb4600480360381019080803573ffffffffffffffffffffffffffffffffffffffff1690602001909291905050506148a6565b005b348015610bc257600080fd5b50610bf7600480360381019080803573ffffffffffffffffffffffffffffffffffffffff1690602001909291905050506149fb565b6040518082815260200191505060405180910390f35b60606000606060008073ffffffffffffffffffffffffffffffffffffffff168573ffffffffffffffffffffffffffffffffffffffff1614151515610c5057600080fd5b600860008673ffffffffffffffffffffffffffffffffffffffff1673ffffffffffffffffffffffffffffffffffffffff16815260200190815260200160002080549050925082604051908082528060200260200182016040528015610cc45781602001602082028038833980820191505090505b509150600090505b82811015610d6d57600860008673ffffffffffffffffffffffffffffffffffffffff1673ffffffffffffffffffffffffffffffffffffffff16815260200190815260200160002081815481101515610d2057fe5b9060005260206000200160000160009054906101000a900463ffffffff1663ffffffff168282815181101515610d5257fe5b90602001906020020181815250508080600101915050610ccc565b819350505050919050565b60008060009054906101000a900473ffffffffffffffffffffffffffffffffffffffff1673ffffffffffffffffffffffffffffffffffffffff163373ffffffffffffffffffffffffffffffffffffffff16141515610dd557600080fd5b8173ffffffffffffffffffffffffffffffffffffffff166370a08231306040518263ffffffff167c0100000000000000000000000000000000000000000000000000000000028152600401808273ffffffffffffffffffffffffffffffffffffffff1673ffffffffffffffffffffffffffffffffffffffff168152602001915050602060405180830381600087803b158015610e7057600080fd5b505af1158015610e84573d6000803e3d6000fd5b505050506040513d6020811015610e9a57600080fd5b81019080805190602001909291905050509050610ef96000809054906101000a900473ffffffffffffffffffffffffffffffffffffffff16828473ffffffffffffffffffffffffffffffffffffffff16614a479092919063ffffffff16565b5050565b6000809054906101000a900473ffffffffffffffffffffffffffffffffffffffff1673ffffffffffffffffffffffffffffffffffffffff163373ffffffffffffffffffffffffffffffffffffffff16141515610f5857600080fd5b8073ffffffffffffffffffffffffffffffffffffffff166319d6dfae6040518163ffffffff167c0100000000000000000000000000000000000000000000000000000000028152600401602060405180830381600087803b158015610fbc57600080fd5b505af1158015610fd0573d6000803e3d6000fd5b505050506040513d6020811015610fe657600080fd5b8101908080519060200190929190505050151561100257600080fd5b80600660006101000a81548173ffffffffffffffffffffffffffffffffffffffff021916908373ffffffffffffffffffffffffffffffffffffffff16021790555050565b606080606080600060608060608060008073ffffffffffffffffffffffffffffffffffffffff168b73ffffffffffffffffffffffffffffffffffffffff161415151561109157600080fd5b600860008c73ffffffffffffffffffffffffffffffffffffffff1673ffffffffffffffffffffffffffffffffffffffff168152602001908152602001600020805490509550856040519080825280602002602001820160405280156111055781602001602082028038833980820191505090505b509450856040519080825280602002602001820160405280156111375781602001602082028038833980820191505090505b509350856040519080825280602002602001820160405280156111695781602001602082028038833980820191505090505b5092508560405190808252806020026020018201604052801561119b5781602001602082028038833980820191505090505b509150600090505b858110156113f857600860008c73ffffffffffffffffffffffffffffffffffffffff1673ffffffffffffffffffffffffffffffffffffffff168152602001908152602001600020818154811015156111f757fe5b9060005260206000200160000160009054906101000a900463ffffffff1663ffffffff16858281518110151561122957fe5b9060200190602002018181525050600860008c73ffffffffffffffffffffffffffffffffffffffff1673ffffffffffffffffffffffffffffffffffffffff1681526020019081526020016000208181548110151561128357fe5b9060005260206000200160000160089054906101000a900467ffffffffffffffff1667ffffffffffffffff1684828151811015156112bd57fe5b9060200190602002018181525050600860008c73ffffffffffffffffffffffffffffffffffffffff1673ffffffffffffffffffffffffffffffffffffffff1681526020019081526020016000208181548110151561131757fe5b9060005260206000200160000160109054906101000a900467ffffffffffffffff1667ffffffffffffffff16838281518110151561135157fe5b9060200190602002018181525050600860008c73ffffffffffffffffffffffffffffffffffffffff1673ffffffffffffffffffffffffffffffffffffffff168152602001908152602001600020818154811015156113ab57fe5b9060005260206000200160000160049054906101000a900463ffffffff1663ffffffff1682828151811015156113dd57fe5b906020019060200201818152505080806001019150506111a3565b8484848499509950995099505050505050509193509193565b60008060009054906101000a900473ffffffffffffffffffffffffffffffffffffffff1673ffffffffffffffffffffffffffffffffffffffff163373ffffffffffffffffffffffffffffffffffffffff1614151561146e57600080fd5b8190508073ffffffffffffffffffffffffffffffffffffffff1663f2fde38b6000809054906101000a900473ffffffffffffffffffffffffffffffffffffffff166040518263ffffffff167c0100000000000000000000000000000000000000000000000000000000028152600401808273ffffffffffffffffffffffffffffffffffffffff1673ffffffffffffffffffffffffffffffffffffffff168152602001915050600060405180830381600087803b15801561152d57600080fd5b505af1158015611541573d6000803e3d6000fd5b505050505050565b600080600080600073ffffffffffffffffffffffffffffffffffffffff168573ffffffffffffffffffffffffffffffffffffffff161415151561158b57600080fd5b6000600860008773ffffffffffffffffffffffffffffffffffffffff1673ffffffffffffffffffffffffffffffffffffffff168152602001908152602001600020805490501115156115dc57600080fd5b600860008673ffffffffffffffffffffffffffffffffffffffff1673ffffffffffffffffffffffffffffffffffffffff1681526020019081526020016000206001600860008873ffffffffffffffffffffffffffffffffffffffff1673ffffffffffffffffffffffffffffffffffffffff168152602001908152602001600020805490500381548110151561166d57fe5b9060005260206000200190508060000160009054906101000a900463ffffffff168160000160089054906101000a900467ffffffffffffffff168260000160109054906101000a900467ffffffffffffffff168263ffffffff1692508167ffffffffffffffff1691508067ffffffffffffffff169050935093509350509193909250565b6000809054906101000a900473ffffffffffffffffffffffffffffffffffffffff1673ffffffffffffffffffffffffffffffffffffffff163373ffffffffffffffffffffffffffffffffffffffff1614151561174c57600080fd5b8060018190555050565b60086020528160005260406000208181548110151561177157fe5b90600052602060002001600091509150508060000160009054906101000a900463ffffffff16908060000160049054906101000a900463ffffffff16908060000160089054906101000a900467ffffffffffffffff16908060000160109054906101000a900467ffffffffffffffff16905084565b60015481565b60008060008090505b600860008773ffffffffffffffffffffffffffffffffffffffff1673ffffffffffffffffffffffffffffffffffffffff1681526020019081526020016000208054905081101561194957600860008773ffffffffffffffffffffffffffffffffffffffff1673ffffffffffffffffffffffffffffffffffffffff1681526020019081526020016000208181548110151561188b57fe5b9060005260206000200160000160049054906101000a900463ffffffff1663ffffffff168414801561192b5750600860008773ffffffffffffffffffffffffffffffffffffffff1673ffffffffffffffffffffffffffffffffffffffff1681526020019081526020016000208181548110151561190457fe5b9060005260206000200160000160009054906101000a900463ffffffff1663ffffffff1685145b1561193c5760018192509250611954565b80806001019150506117f5565b600080809050925092505b50935093915050565b6000809054906101000a900473ffffffffffffffffffffffffffffffffffffffff1673ffffffffffffffffffffffffffffffffffffffff163373ffffffffffffffffffffffffffffffffffffffff161415156119b857600080fd5b8173ffffffffffffffffffffffffffffffffffffffff1663bfb4bbae6040518163ffffffff167c0100000000000000000000000000000000000000000000000000000000028152600401602060405180830381600087803b158015611a1c57600080fd5b505af1158015611a30573d6000803e3d6000fd5b505050506040513d6020811015611a4657600080fd5b81019080805190602001909291905050501515611a6257600080fd5b8173ffffffffffffffffffffffffffffffffffffffff166354fd4d506040518163ffffffff167c0100000000000000000000000000000000000000000000000000000000028152600401602060405180830381600087803b158015611ac657600080fd5b505af1158015611ada573d6000803e3d6000fd5b505050506040513d6020811015611af057600080fd5b810190808051906020019092919050505081111515611b0e57600080fd5b81600560006101000a81548173ffffffffffffffffffffffffffffffffffffffff021916908373ffffffffffffffffffffffffffffffffffffffff160217905550611b58816116f1565b5050565b600080600460009054906101000a900473ffffffffffffffffffffffffffffffffffffffff1673ffffffffffffffffffffffffffffffffffffffff16636facbe2b856040518263ffffffff167c010000000000000000000000000000000000000000000000000000000002815260040180828152602001915050602060405180830381600087803b158015611bf057600080fd5b505af1158015611c04573d6000803e3d6000fd5b505050506040513d6020811015611c1a57600080fd5b81019080805190602001909291905050501515611c3657600080fd5b611c413385856117ec565b8092508193505050811515611c5557600080fd5b43600860003373ffffffffffffffffffffffffffffffffffffffff1673ffffffffffffffffffffffffffffffffffffffff16815260200190815260200160002082815481101515611ca257fe5b9060005260206000200160000160109054906101000a900467ffffffffffffffff1667ffffffffffffffff16111515611cda57600080fd5b600760009054906101000a900473ffffffffffffffffffffffffffffffffffffffff1673ffffffffffffffffffffffffffffffffffffffff16638e69ce58336040518263ffffffff167c0100000000000000000000000000000000000000000000000000000000028152600401808273ffffffffffffffffffffffffffffffffffffffff1673ffffffffffffffffffffffffffffffffffffffff168152602001915050600060405180830381600087803b158015611d9757600080fd5b505af1158015611dab573d6000803e3d6000fd5b50505050611db93382614b32565b611dc333826151c8565b1515611dce57600080fd5b600660009054906101000a900473ffffffffffffffffffffffffffffffffffffffff1673ffffffffffffffffffffffffffffffffffffffff1663d9fccbc23386866040518463ffffffff167c0100000000000000000000000000000000000000000000000000000000028152600401808473ffffffffffffffffffffffffffffffffffffffff1673ffffffffffffffffffffffffffffffffffffffff1681526020018381526020018281526020019350505050602060405180830381600087803b158015611e9b57600080fd5b505af1158015611eaf573d6000803e3d6000fd5b505050506040513d6020811015611ec557600080fd5b81019080805190602001909291905050501515611ee157600080fd5b7fd0f42a57d1892362ab6ed3c1942d02d00c5072d3b35757c8de7de996b96f3e7c338585604051808473ffffffffffffffffffffffffffffffffffffffff1673ffffffffffffffffffffffffffffffffffffffff168152602001838152602001828152602001935050505060405180910390a150505050565b6000809054906101000a900473ffffffffffffffffffffffffffffffffffffffff1673ffffffffffffffffffffffffffffffffffffffff163373ffffffffffffffffffffffffffffffffffffffff16141515611fb557600080fd5b8073ffffffffffffffffffffffffffffffffffffffff16633882c76d6040518163ffffffff167c0100000000000000000000000000000000000000000000000000000000028152600401602060405180830381600087803b15801561201957600080fd5b505af115801561202d573d6000803e3d6000fd5b505050506040513d602081101561204357600080fd5b8101908080519060200190929190505050151561205f57600080fd5b80600360006101000a81548173ffffffffffffffffffffffffffffffffffffffff021916908373ffffffffffffffffffffffffffffffffffffffff16021790555050565b6000809054906101000a900473ffffffffffffffffffffffffffffffffffffffff1681565b6000809054906101000a900473ffffffffffffffffffffffffffffffffffffffff1673ffffffffffffffffffffffffffffffffffffffff163373ffffffffffffffffffffffffffffffffffffffff1614151561212357600080fd5b8073ffffffffffffffffffffffffffffffffffffffff16633769feef6040518163ffffffff167c0100000000000000000000000000000000000000000000000000000000028152600401602060405180830381600087803b15801561218757600080fd5b505af115801561219b573d6000803e3d6000fd5b505050506040513d60208110156121b157600080fd5b810190808051906020019092919050505015156121cd57600080fd5b80600460006101000a81548173ffffffffffffffffffffffffffffffffffffffff021916908373ffffffffffffffffffffffffffffffffffffffff16021790555050565b6000809054906101000a900473ffffffffffffffffffffffffffffffffffffffff1673ffffffffffffffffffffffffffffffffffffffff163373ffffffffffffffffffffffffffffffffffffffff1614151561226c57600080fd5b6000809054906101000a900473ffffffffffffffffffffffffffffffffffffffff1673ffffffffffffffffffffffffffffffffffffffff166108fc3073ffffffffffffffffffffffffffffffffffffffff16319081150290604051600060405180830381858888f1935050505015156122e157fe5b565b60026020528060005260406000206000915054906101000a900460ff1681565b60006001905090565b600080600073ffffffffffffffffffffffffffffffffffffffff168473ffffffffffffffffffffffffffffffffffffffff161415151561234b57600080fd5b600860008573ffffffffffffffffffffffffffffffffffffffff1673ffffffffffffffffffffffffffffffffffffffff168152602001908152602001600020805490508310151561239b57600080fd5b600860008573ffffffffffffffffffffffffffffffffffffffff1673ffffffffffffffffffffffffffffffffffffffff168152602001908152602001600020838154811015156123e757fe5b9060005260206000200160000160009054906101000a900463ffffffff16600860008673ffffffffffffffffffffffffffffffffffffffff1673ffffffffffffffffffffffffffffffffffffffff1681526020019081526020016000208481548110151561245157fe5b9060005260206000200160000160049054906101000a900463ffffffff168163ffffffff1691508063ffffffff169050915091509250929050565b600080fd5b600080606080600080600073ffffffffffffffffffffffffffffffffffffffff168773ffffffffffffffffffffffffffffffffffffffff16141515156124d657600080fd5b6000600860008973ffffffffffffffffffffffffffffffffffffffff1673ffffffffffffffffffffffffffffffffffffffff16815260200190815260200160002080549050141561252657612aee565b600860008873ffffffffffffffffffffffffffffffffffffffff1673ffffffffffffffffffffffffffffffffffffffff168152602001908152602001600020805490509550600094505b85851080156125f5575043600860008973ffffffffffffffffffffffffffffffffffffffff1673ffffffffffffffffffffffffffffffffffffffff168152602001908152602001600020868154811015156125c757fe5b9060005260206000200160000160109054906101000a900467ffffffffffffffff1667ffffffffffffffff16105b15612607578480600101955050612570565b846040519080825280602002602001820160405280156126365781602001602082028038833980820191505090505b509350846040519080825280602002602001820160405280156126685781602001602082028038833980820191505090505b509250600085141561276e577fa8d1d3f2b178b60b09b86441670271d29f9f325b7904757bff329687232b21e8878585604051808473ffffffffffffffffffffffffffffffffffffffff1673ffffffffffffffffffffffffffffffffffffffff1681526020018060200180602001838103835285818151815260200191508051906020019060200280838360005b838110156127115780820151818401526020810190506126f6565b50505050905001838103825284818151815260200191508051906020019060200280838360005b83811015612753578082015181840152602081019050612738565b505050509050019550505050505060405180910390a1612aee565b600091505b8482101561284e57600860008873ffffffffffffffffffffffffffffffffffffffff1673ffffffffffffffffffffffffffffffffffffffff168152602001908152602001600020828154811015156127c757fe5b9060005260206000200190508060000160009054906101000a900463ffffffff1663ffffffff1684838151811015156127fc57fe5b90602001906020020181815250508060000160049054906101000a900463ffffffff1663ffffffff16838381518110151561283357fe5b90602001906020020181815250508180600101925050612773565b600660009054906101000a900473ffffffffffffffffffffffffffffffffffffffff1673ffffffffffffffffffffffffffffffffffffffff166376e52e188886866040518463ffffffff167c0100000000000000000000000000000000000000000000000000000000028152600401808473ffffffffffffffffffffffffffffffffffffffff1673ffffffffffffffffffffffffffffffffffffffff1681526020018060200180602001838103835285818151815260200191508051906020019060200280838360005b83811015612933578082015181840152602081019050612918565b50505050905001838103825284818151815260200191508051906020019060200280838360005b8381101561297557808201518184015260208101905061295a565b5050505090500195505050505050602060405180830381600087803b15801561299d57600080fd5b505af11580156129b1573d6000803e3d6000fd5b505050506040513d60208110156129c757600080fd5b810190808051906020019092919050505015156129e357600080fd5b6129ed8786615582565b15156129f857600080fd5b7fa8d1d3f2b178b60b09b86441670271d29f9f325b7904757bff329687232b21e8878585604051808473ffffffffffffffffffffffffffffffffffffffff1673ffffffffffffffffffffffffffffffffffffffff1681526020018060200180602001838103835285818151815260200191508051906020019060200280838360005b83811015612a95578082015181840152602081019050612a7a565b50505050905001838103825284818151815260200191508051906020019060200280838360005b83811015612ad7578082015181840152602081019050612abc565b505050509050019550505050505060405180910390a15b50505050505050565b60008082600860008673ffffffffffffffffffffffffffffffffffffffff1673ffffffffffffffffffffffffffffffffffffffff16815260200190815260200160002080549050111515612b4a57600080fd5b600860008573ffffffffffffffffffffffffffffffffffffffff1673ffffffffffffffffffffffffffffffffffffffff16815260200190815260200160002083815481101515612b9657fe5b9060005260206000200160000160009054906101000a900463ffffffff16600860008673ffffffffffffffffffffffffffffffffffffffff1673ffffffffffffffffffffffffffffffffffffffff16815260200190815260200160002084815481101515612c0057fe5b9060005260206000200160000160109054906101000a900467ffffffffffffffff168163ffffffff1691508067ffffffffffffffff169050915091509250929050565b6000806000806000806000600460009054906101000a900473ffffffffffffffffffffffffffffffffffffffff1673ffffffffffffffffffffffffffffffffffffffff16636facbe2b8b6040518263ffffffff167c010000000000000000000000000000000000000000000000000000000002815260040180828152602001915050602060405180830381600087803b158015612cdf57600080fd5b505af1158015612cf3573d6000803e3d6000fd5b505050506040513d6020811015612d0957600080fd5b81019080805190602001909291905050501515612d2557600080fd5b600460009054906101000a900473ffffffffffffffffffffffffffffffffffffffff1673ffffffffffffffffffffffffffffffffffffffff16636facbe2b8a6040518263ffffffff167c010000000000000000000000000000000000000000000000000000000002815260040180828152602001915050602060405180830381600087803b158015612db657600080fd5b505af1158015612dca573d6000803e3d6000fd5b505050506040513d6020811015612de057600080fd5b81019080805190602001909291905050501515612dfc57600080fd5b600460009054906101000a900473ffffffffffffffffffffffffffffffffffffffff1673ffffffffffffffffffffffffffffffffffffffff1663059b3e2e8b8b6040518363ffffffff167c01000000000000000000000000000000000000000000000000000000000281526004018083815260200182815260200192505050602060405180830381600087803b158015612e9557600080fd5b505af1158015612ea9573d6000803e3d6000fd5b505050506040513d6020811015612ebf57600080fd5b81019080805190602001909291905050501515612edb57600080fd5b600360009054906101000a900473ffffffffffffffffffffffffffffffffffffffff1673ffffffffffffffffffffffffffffffffffffffff1663540494a1338b6040518363ffffffff167c0100000000000000000000000000000000000000000000000000000000028152600401808373ffffffffffffffffffffffffffffffffffffffff1673ffffffffffffffffffffffffffffffffffffffff16815260200182815260200192505050602060405180830381600087803b158015612fa057600080fd5b505af1158015612fb4573d6000803e3d6000fd5b505050506040513d6020811015612fca57600080fd5b81019080805190602001909291905050501515612fe657600080fd5b612ff1338b8a6117ec565b8097508198505050600460009054906101000a900473ffffffffffffffffffffffffffffffffffffffff1673ffffffffffffffffffffffffffffffffffffffff16638709e9da8a6040518263ffffffff167c010000000000000000000000000000000000000000000000000000000002815260040180828152602001915050606060405180830381600087803b15801561308a57600080fd5b505af115801561309e573d6000803e3d6000fd5b505050506040513d60608110156130b457600080fd5b810190808051906020019092919080519060200190929190805190602001909291905050508095508196508297505050506130f0338686615955565b86156131855743600860003373ffffffffffffffffffffffffffffffffffffffff1673ffffffffffffffffffffffffffffffffffffffff1681526020019081526020016000208781548110151561314357fe5b9060005260206000200160000160109054906101000a900467ffffffffffffffff1667ffffffffffffffff1610151561317b57600080fd5b61318433612491565b5b600660009054906101000a900473ffffffffffffffffffffffffffffffffffffffff1673ffffffffffffffffffffffffffffffffffffffff166359da69a7338c8b6040518463ffffffff167c0100000000000000000000000000000000000000000000000000000000028152600401808473ffffffffffffffffffffffffffffffffffffffff1673ffffffffffffffffffffffffffffffffffffffff1681526020018381526020018281526020019350505050602060405180830381600087803b15801561325257600080fd5b505af1158015613266573d6000803e3d6000fd5b505050506040513d602081101561327c57600080fd5b8101908080519060200190929190505050151561329857600080fd5b6132a133615cc8565b91506132b68383615ddd90919063ffffffff16565b9050600860003373ffffffffffffffffffffffffffffffffffffffff1673ffffffffffffffffffffffffffffffffffffffff1681526020019081526020016000206080604051908101604052808b63ffffffff1681526020018a63ffffffff1681526020018467ffffffffffffffff1681526020018367ffffffffffffffff1681525090806001815401808255809150509060018203906000526020600020016000909192909190915060008201518160000160006101000a81548163ffffffff021916908363ffffffff16021790555060208201518160000160046101000a81548163ffffffff021916908363ffffffff16021790555060408201518160000160086101000a81548167ffffffffffffffff021916908367ffffffffffffffff16021790555060608201518160000160106101000a81548167ffffffffffffffff021916908367ffffffffffffffff1602179055505050507f1f9e9a415463c9bb0c6baa9a1c8aa8173189e0517b4b77163ad0cdbe89070ea5898984846040518085815260200184815260200183815260200182815260200194505050505060405180910390a150505050505050505050565b6000809054906101000a900473ffffffffffffffffffffffffffffffffffffffff1673ffffffffffffffffffffffffffffffffffffffff163373ffffffffffffffffffffffffffffffffffffffff161415156134c557600080fd5b8073ffffffffffffffffffffffffffffffffffffffff1663f229a4156040518163ffffffff167c0100000000000000000000000000000000000000000000000000000000028152600401602060405180830381600087803b15801561352957600080fd5b505af115801561353d573d6000803e3d6000fd5b505050506040513d602081101561355357600080fd5b8101908080519060200190929190505050151561356f57600080fd5b80600760006101000a81548173ffffffffffffffffffffffffffffffffffffffff021916908373ffffffffffffffffffffffffffffffffffffffff16021790555050565b60011515600260003373ffffffffffffffffffffffffffffffffffffffff1673ffffffffffffffffffffffffffffffffffffffff16815260200190815260200160002060009054906101000a900460ff1615151415151561361357600080fd5b6001548173ffffffffffffffffffffffffffffffffffffffff166354fd4d506040518163ffffffff167c0100000000000000000000000000000000000000000000000000000000028152600401602060405180830381600087803b15801561367a57600080fd5b505af115801561368e573d6000803e3d6000fd5b505050506040513d60208110156136a457600080fd5b81019080805190602001909291905050501115156136c157600080fd5b6001600260003373ffffffffffffffffffffffffffffffffffffffff1673ffffffffffffffffffffffffffffffffffffffff16815260200190815260200160002060006101000a81548160ff0219169083151502179055508073ffffffffffffffffffffffffffffffffffffffff163373ffffffffffffffffffffffffffffffffffffffff167fc123aa2e5c63456c59a4694ac50ba610152278a01162f3d5e3a6ffc457bc586e60405160405180910390a350565b6000806000806000806000600460009054906101000a900473ffffffffffffffffffffffffffffffffffffffff1673ffffffffffffffffffffffffffffffffffffffff16636facbe2b896040518263ffffffff167c010000000000000000000000000000000000000000000000000000000002815260040180828152602001915050602060405180830381600087803b15801561381257600080fd5b505af1158015613826573d6000803e3d6000fd5b505050506040513d602081101561383c57600080fd5b8101908080519060200190929190505050151561385857600080fd5b600360009054906101000a900473ffffffffffffffffffffffffffffffffffffffff1673ffffffffffffffffffffffffffffffffffffffff1663540494a1338a6040518363ffffffff167c0100000000000000000000000000000000000000000000000000000000028152600401808373ffffffffffffffffffffffffffffffffffffffff1673ffffffffffffffffffffffffffffffffffffffff16815260200182815260200192505050602060405180830381600087803b15801561391d57600080fd5b505af1158015613931573d6000803e3d6000fd5b505050506040513d602081101561394757600080fd5b8101908080519060200190929190505050151561396357600080fd5b600460009054906101000a900473ffffffffffffffffffffffffffffffffffffffff1673ffffffffffffffffffffffffffffffffffffffff1663614ad27f896040518263ffffffff167c010000000000000000000000000000000000000000000000000000000002815260040180828152602001915050602060405180830381600087803b1580156139f457600080fd5b505af1158015613a08573d6000803e3d6000fd5b505050506040513d6020811015613a1e57600080fd5b81019080805190602001909291905050509650600660009054906101000a900473ffffffffffffffffffffffffffffffffffffffff1673ffffffffffffffffffffffffffffffffffffffff16634a925dae33898b6040518463ffffffff167c0100000000000000000000000000000000000000000000000000000000028152600401808473ffffffffffffffffffffffffffffffffffffffff1673ffffffffffffffffffffffffffffffffffffffff1681526020018381526020018281526020019350505050602060405180830381600087803b158015613afe57600080fd5b505af1158015613b12573d6000803e3d6000fd5b505050506040513d6020811015613b2857600080fd5b810190808051906020019092919050505095507ffffffffffffffffffffffffffffffffffffffffffffffffffffffffffffffffe86131515613b6957600080fd5b600460009054906101000a900473ffffffffffffffffffffffffffffffffffffffff1673ffffffffffffffffffffffffffffffffffffffff16638709e9da896040518263ffffffff167c010000000000000000000000000000000000000000000000000000000002815260040180828152602001915050606060405180830381600087803b158015613bfa57600080fd5b505af1158015613c0e573d6000803e3d6000fd5b505050506040513d6060811015613c2457600080fd5b81019080805190602001909291908051906020019092919080519060200190929190505050809550819650829750505050613c60338686615955565b7fffffffffffffffffffffffffffffffffffffffffffffffffffffffffffffffff861415613d8b57600660009054906101000a900473ffffffffffffffffffffffffffffffffffffffff1673ffffffffffffffffffffffffffffffffffffffff16634fe6aa94338a6040518363ffffffff167c0100000000000000000000000000000000000000000000000000000000028152600401808373ffffffffffffffffffffffffffffffffffffffff1673ffffffffffffffffffffffffffffffffffffffff16815260200182815260200192505050602060405180830381600087803b158015613d4d57600080fd5b505af1158015613d61573d6000803e3d6000fd5b505050506040513d6020811015613d7757600080fd5b810190808051906020019092919050505095505b613d9433615cc8565b9150613da98383615ddd90919063ffffffff16565b9050600860003373ffffffffffffffffffffffffffffffffffffffff1673ffffffffffffffffffffffffffffffffffffffff1681526020019081526020016000206080604051908101604052808a63ffffffff1681526020018863ffffffff1681526020018467ffffffffffffffff1681526020018367ffffffffffffffff1681525090806001815401808255809150509060018203906000526020600020016000909192909190915060008201518160000160006101000a81548163ffffffff021916908363ffffffff16021790555060208201518160000160046101000a81548163ffffffff021916908363ffffffff16021790555060408201518160000160086101000a81548167ffffffffffffffff021916908367ffffffffffffffff16021790555060608201518160000160106101000a81548167ffffffffffffffff021916908367ffffffffffffffff1602179055505050507f75fd23547686f45a1bcfdeb2f3b7779a8096308567c5d69f245cc28b029258a83389888585604051808673ffffffffffffffffffffffffffffffffffffffff1673ffffffffffffffffffffffffffffffffffffffff1681526020018581526020018481526020018381526020018281526020019550505050505060405180910390a15050505050505050565b600080600080600080600091505b600860008873ffffffffffffffffffffffffffffffffffffffff1673ffffffffffffffffffffffffffffffffffffffff168152602001908152602001600020805490508210156143fe576000905043600860008973ffffffffffffffffffffffffffffffffffffffff1673ffffffffffffffffffffffffffffffffffffffff1681526020019081526020016000208381548110151561403857fe5b9060005260206000200160000160109054906101000a900467ffffffffffffffff1667ffffffffffffffff1610156140dd57600860008873ffffffffffffffffffffffffffffffffffffffff1673ffffffffffffffffffffffffffffffffffffffff168152602001908152602001600020828154811015156140b657fe5b9060005260206000200160000160009054906101000a900463ffffffff1663ffffffff1690505b43600860008973ffffffffffffffffffffffffffffffffffffffff1673ffffffffffffffffffffffffffffffffffffffff1681526020019081526020016000208381548110151561412a57fe5b9060005260206000200160000160109054906101000a900467ffffffffffffffff1667ffffffffffffffff1610158015614262575060016103e880600860008b73ffffffffffffffffffffffffffffffffffffffff1673ffffffffffffffffffffffffffffffffffffffff168152602001908152602001600020858154811015156141b157fe5b9060005260206000200160000160009054906101000a900463ffffffff1663ffffffff168115156141de57fe5b06600860008b73ffffffffffffffffffffffffffffffffffffffff1673ffffffffffffffffffffffffffffffffffffffff1681526020019081526020016000208581548110151561422b57fe5b9060005260206000200160000160009054906101000a900463ffffffff160363ffffffff1681151561425957fe5b0463ffffffff16115b156142de576103e8600860008973ffffffffffffffffffffffffffffffffffffffff1673ffffffffffffffffffffffffffffffffffffffff168152602001908152602001600020838154811015156142b657fe5b9060005260206000200160000160009054906101000a900463ffffffff160363ffffffff1690505b60008111156143f157600460009054906101000a900473ffffffffffffffffffffffffffffffffffffffff1673ffffffffffffffffffffffffffffffffffffffff16638bfa8771826040518263ffffffff167c0100000000000000000000000000000000000000000000000000000000028152600401808281526020019150506040805180830381600087803b15801561437757600080fd5b505af115801561438b573d6000803e3d6000fd5b505050506040513d60408110156143a157600080fd5b810190808051906020019092919080519060200190929190505050809450819550505060008411156143da576143d78685615ddd565b95505b60008311156143f0576143ed8584615ddd565b94505b5b8180600101925050613f9d565b85859550955050505050915091565b6000806000806000806000600760009054906101000a900473ffffffffffffffffffffffffffffffffffffffff1673ffffffffffffffffffffffffffffffffffffffff16632729663c896040518263ffffffff167c0100000000000000000000000000000000000000000000000000000000028152600401808273ffffffffffffffffffffffffffffffffffffffff1673ffffffffffffffffffffffffffffffffffffffff168152602001915050602060405180830381600087803b1580156144d557600080fd5b505af11580156144e9573d6000803e3d6000fd5b505050506040513d60208110156144ff57600080fd5b81019080805190602001909291905050509150600090505b600860008973ffffffffffffffffffffffffffffffffffffffff1673ffffffffffffffffffffffffffffffffffffffff168152602001908152602001600020805490508110156148965743600860008a73ffffffffffffffffffffffffffffffffffffffff1673ffffffffffffffffffffffffffffffffffffffff168152602001908152602001600020828154811015156145ae57fe5b9060005260206000200160000160109054906101000a900467ffffffffffffffff1667ffffffffffffffff16101561488957600460009054906101000a900473ffffffffffffffffffffffffffffffffffffffff1673ffffffffffffffffffffffffffffffffffffffff1663b5142cff600860008b73ffffffffffffffffffffffffffffffffffffffff1673ffffffffffffffffffffffffffffffffffffffff1681526020019081526020016000208381548110151561466a57fe5b9060005260206000200160000160009054906101000a900463ffffffff166040518263ffffffff167c0100000000000000000000000000000000000000000000000000000000028152600401808263ffffffff1681526020019150506040805180830381600087803b1580156146df57600080fd5b505af11580156146f3573d6000803e3d6000fd5b505050506040513d604081101561470957600080fd5b810190808051906020019092919080519060200190929190505050809550819650505081600860008a73ffffffffffffffffffffffffffffffffffffffff1673ffffffffffffffffffffffffffffffffffffffff1681526020019081526020016000208281548110151561477957fe5b9060005260206000200160000160109054906101000a900467ffffffffffffffff1667ffffffffffffffff1611156148335761482c43600860008b73ffffffffffffffffffffffffffffffffffffffff1673ffffffffffffffffffffffffffffffffffffffff168152602001908152602001600020838154811015156147fb57fe5b9060005260206000200160000160109054906101000a900467ffffffffffffffff1667ffffffffffffffff16615dfb565b9250614840565b61483d4383615dfb565b92505b600083111561488857600085111561486857614865876148608786615e14565b615ddd565b96505b6000841115614887576148848661487f8686615e14565b615ddd565b95505b5b5b8080600101915050614517565b8686965096505050505050915091565b6000809054906101000a900473ffffffffffffffffffffffffffffffffffffffff1673ffffffffffffffffffffffffffffffffffffffff163373ffffffffffffffffffffffffffffffffffffffff1614151561490157600080fd5b600073ffffffffffffffffffffffffffffffffffffffff168173ffffffffffffffffffffffffffffffffffffffff161415151561493d57600080fd5b8073ffffffffffffffffffffffffffffffffffffffff166000809054906101000a900473ffffffffffffffffffffffffffffffffffffffff1673ffffffffffffffffffffffffffffffffffffffff167f8be0079c531659141344cd1fd0a4f28419497f9722a3daafe3b4186f6b6457e060405160405180910390a3806000806101000a81548173ffffffffffffffffffffffffffffffffffffffff021916908373ffffffffffffffffffffffffffffffffffffffff16021790555050565b6000600860008373ffffffffffffffffffffffffffffffffffffffff1673ffffffffffffffffffffffffffffffffffffffff168152602001908152602001600020805490509050919050565b8273ffffffffffffffffffffffffffffffffffffffff1663a9059cbb83836040518363ffffffff167c0100000000000000000000000000000000000000000000000000000000028152600401808373ffffffffffffffffffffffffffffffffffffffff1673ffffffffffffffffffffffffffffffffffffffff16815260200182815260200192505050602060405180830381600087803b158015614aea57600080fd5b505af1158015614afe573d6000803e3d6000fd5b505050506040513d6020811015614b1457600080fd5b81019080805190602001909291905050501515614b2d57fe5b505050565b6000806001830190505b600860008573ffffffffffffffffffffffffffffffffffffffff1673ffffffffffffffffffffffffffffffffffffffff168152602001908152602001600020805490508110156151c257600860008573ffffffffffffffffffffffffffffffffffffffff1673ffffffffffffffffffffffffffffffffffffffff16815260200190815260200160002081815481101515614bd257fe5b9060005260206000200160000160089054906101000a900467ffffffffffffffff16600860008673ffffffffffffffffffffffffffffffffffffffff1673ffffffffffffffffffffffffffffffffffffffff16815260200190815260200160002082815481101515614c4057fe5b9060005260206000200160000160109054906101000a900467ffffffffffffffff1603915060018301811415614fd55743600860008673ffffffffffffffffffffffffffffffffffffffff1673ffffffffffffffffffffffffffffffffffffffff16815260200190815260200160002084815481101515614cbd57fe5b9060005260206000200160000160089054906101000a900467ffffffffffffffff1667ffffffffffffffff16101515614de157600860008573ffffffffffffffffffffffffffffffffffffffff1673ffffffffffffffffffffffffffffffffffffffff16815260200190815260200160002060018203815481101515614d3f57fe5b9060005260206000200160000160089054906101000a900467ffffffffffffffff16600860008673ffffffffffffffffffffffffffffffffffffffff1673ffffffffffffffffffffffffffffffffffffffff16815260200190815260200160002082815481101515614dad57fe5b9060005260206000200160000160086101000a81548167ffffffffffffffff021916908367ffffffffffffffff1602179055505b43600860008673ffffffffffffffffffffffffffffffffffffffff1673ffffffffffffffffffffffffffffffffffffffff16815260200190815260200160002084815481101515614e2e57fe5b9060005260206000200160000160089054906101000a900467ffffffffffffffff1667ffffffffffffffff161015614ee15743600860008673ffffffffffffffffffffffffffffffffffffffff1673ffffffffffffffffffffffffffffffffffffffff16815260200190815260200160002082815481101515614ead57fe5b9060005260206000200160000160086101000a81548167ffffffffffffffff021916908367ffffffffffffffff1602179055505b81600860008673ffffffffffffffffffffffffffffffffffffffff1673ffffffffffffffffffffffffffffffffffffffff16815260200190815260200160002082815481101515614f2e57fe5b9060005260206000200160000160089054906101000a900467ffffffffffffffff1601600860008673ffffffffffffffffffffffffffffffffffffffff1673ffffffffffffffffffffffffffffffffffffffff16815260200190815260200160002082815481101515614f9d57fe5b9060005260206000200160000160106101000a81548167ffffffffffffffff021916908367ffffffffffffffff1602179055506151b5565b600860008573ffffffffffffffffffffffffffffffffffffffff1673ffffffffffffffffffffffffffffffffffffffff1681526020019081526020016000206001820381548110151561502457fe5b9060005260206000200160000160109054906101000a900467ffffffffffffffff16600860008673ffffffffffffffffffffffffffffffffffffffff1673ffffffffffffffffffffffffffffffffffffffff1681526020019081526020016000208281548110151561509257fe5b9060005260206000200160000160086101000a81548167ffffffffffffffff021916908367ffffffffffffffff16021790555081600860008673ffffffffffffffffffffffffffffffffffffffff1673ffffffffffffffffffffffffffffffffffffffff1681526020019081526020016000208281548110151561511257fe5b9060005260206000200160000160089054906101000a900467ffffffffffffffff1601600860008673ffffffffffffffffffffffffffffffffffffffff1673ffffffffffffffffffffffffffffffffffffffff1681526020019081526020016000208281548110151561518157fe5b9060005260206000200160000160106101000a81548167ffffffffffffffff021916908367ffffffffffffffff1602179055505b8080600101915050614b3c565b50505050565b6000808290505b600860008573ffffffffffffffffffffffffffffffffffffffff1673ffffffffffffffffffffffffffffffffffffffff16815260200190815260200160002080549050811015615521576001600860008673ffffffffffffffffffffffffffffffffffffffff1673ffffffffffffffffffffffffffffffffffffffff168152602001908152602001600020805490500381141561536d57600860008573ffffffffffffffffffffffffffffffffffffffff1673ffffffffffffffffffffffffffffffffffffffff1681526020019081526020016000206001600860008773ffffffffffffffffffffffffffffffffffffffff1673ffffffffffffffffffffffffffffffffffffffff16815260200190815260200160002080549050038154811015156152f757fe5b90600052602060002001600080820160006101000a81549063ffffffff02191690556000820160046101000a81549063ffffffff02191690556000820160086101000a81549067ffffffffffffffff02191690556000820160106101000a81549067ffffffffffffffff02191690555050615514565b600860008573ffffffffffffffffffffffffffffffffffffffff1673ffffffffffffffffffffffffffffffffffffffff168152602001908152602001600020600182018154811015156153bc57fe5b90600052602060002001600860008673ffffffffffffffffffffffffffffffffffffffff1673ffffffffffffffffffffffffffffffffffffffff1681526020019081526020016000208281548110151561541257fe5b906000526020600020016000820160009054906101000a900463ffffffff168160000160006101000a81548163ffffffff021916908363ffffffff1602179055506000820160049054906101000a900463ffffffff168160000160046101000a81548163ffffffff021916908363ffffffff1602179055506000820160089054906101000a900467ffffffffffffffff168160000160086101000a81548167ffffffffffffffff021916908367ffffffffffffffff1602179055506000820160109054906101000a900467ffffffffffffffff168160000160106101000a81548167ffffffffffffffff021916908367ffffffffffffffff1602179055509050505b80806001019150506151cf565b6001600860008673ffffffffffffffffffffffffffffffffffffffff1673ffffffffffffffffffffffffffffffffffffffff168152602001908152602001600020818180549050039150816155769190615e4f565b50600191505092915050565b6000806000600860008673ffffffffffffffffffffffffffffffffffffffff1673ffffffffffffffffffffffffffffffffffffffff1681526020019081526020016000208054905084111515156155d857600080fd5b8391505b600860008673ffffffffffffffffffffffffffffffffffffffff1673ffffffffffffffffffffffffffffffffffffffff168152602001908152602001600020805490508210156157d857600860008673ffffffffffffffffffffffffffffffffffffffff1673ffffffffffffffffffffffffffffffffffffffff1681526020019081526020016000208281548110151561567257fe5b90600052602060002001600860008773ffffffffffffffffffffffffffffffffffffffff1673ffffffffffffffffffffffffffffffffffffffff1681526020019081526020016000208584038154811015156156ca57fe5b906000526020600020016000820160009054906101000a900463ffffffff168160000160006101000a81548163ffffffff021916908363ffffffff1602179055506000820160049054906101000a900463ffffffff168160000160046101000a81548163ffffffff021916908363ffffffff1602179055506000820160089054906101000a900467ffffffffffffffff168160000160086101000a81548167ffffffffffffffff021916908367ffffffffffffffff1602179055506000820160109054906101000a900467ffffffffffffffff168160000160106101000a81548167ffffffffffffffff021916908367ffffffffffffffff16021790555090505081806001019250506155dc565b600190505b83811115156158f457600860008673ffffffffffffffffffffffffffffffffffffffff1673ffffffffffffffffffffffffffffffffffffffff16815260200190815260200160002081600860008873ffffffffffffffffffffffffffffffffffffffff1673ffffffffffffffffffffffffffffffffffffffff168152602001908152602001600020805490500381548110151561587657fe5b90600052602060002001600080820160006101000a81549063ffffffff02191690556000820160046101000a81549063ffffffff02191690556000820160086101000a81549067ffffffffffffffff02191690556000820160106101000a81549067ffffffffffffffff0219169055505080806001019150506157dd565b83600860008773ffffffffffffffffffffffffffffffffffffffff1673ffffffffffffffffffffffffffffffffffffffff168152602001908152602001600020818180549050039150816159489190615e4f565b5060019250505092915050565b60008114806159645750600181145b8061596f5750600281145b151561597a57600080fd5b6000821115615cc3576000811415615a9857600760009054906101000a900473ffffffffffffffffffffffffffffffffffffffff1673ffffffffffffffffffffffffffffffffffffffff1663ec3191e984846040518363ffffffff167c0100000000000000000000000000000000000000000000000000000000028152600401808373ffffffffffffffffffffffffffffffffffffffff1673ffffffffffffffffffffffffffffffffffffffff16815260200182815260200192505050602060405180830381600087803b158015615a5157600080fd5b505af1158015615a65573d6000803e3d6000fd5b505050506040513d6020811015615a7b57600080fd5b81019080805190602001909291905050501515615a9757600080fd5b5b6001811415615bad57600760009054906101000a900473ffffffffffffffffffffffffffffffffffffffff1673ffffffffffffffffffffffffffffffffffffffff1663142ed04384846040518363ffffffff167c0100000000000000000000000000000000000000000000000000000000028152600401808373ffffffffffffffffffffffffffffffffffffffff1673ffffffffffffffffffffffffffffffffffffffff16815260200182815260200192505050602060405180830381600087803b158015615b6657600080fd5b505af1158015615b7a573d6000803e3d6000fd5b505050506040513d6020811015615b9057600080fd5b81019080805190602001909291905050501515615bac57600080fd5b5b6002811415615cc257600760009054906101000a900473ffffffffffffffffffffffffffffffffffffffff1673ffffffffffffffffffffffffffffffffffffffff16632f2e88f084846040518363ffffffff167c0100000000000000000000000000000000000000000000000000000000028152600401808373ffffffffffffffffffffffffffffffffffffffff1673ffffffffffffffffffffffffffffffffffffffff16815260200182815260200192505050602060405180830381600087803b158015615c7b57600080fd5b505af1158015615c8f573d6000803e3d6000fd5b505050506040513d6020811015615ca557600080fd5b81019080805190602001909291905050501515615cc157600080fd5b5b5b505050565b600080600080600860008673ffffffffffffffffffffffffffffffffffffffff1673ffffffffffffffffffffffffffffffffffffffff1681526020019081526020016000208054905092504391506000831115615dd257600860008673ffffffffffffffffffffffffffffffffffffffff1673ffffffffffffffffffffffffffffffffffffffff168152602001908152602001600020615d69846001615dfb565b815481101515615d7557fe5b9060005260206000200190508060000160109054906101000a900467ffffffffffffffff1667ffffffffffffffff16431015615dd1578060000160109054906101000a900467ffffffffffffffff1667ffffffffffffffff1691505b5b819350505050919050565b6000808284019050838110151515615df157fe5b8091505092915050565b6000828211151515615e0957fe5b818303905092915050565b6000806000841415615e295760009150615e48565b8284029050828482811515615e3a57fe5b04141515615e4457fe5b8091505b5092915050565b815481835581811115615e7657818360005260206000209182019101615e759190615e7b565b5b505050565b615efb91905b80821115615ef757600080820160006101000a81549063ffffffff02191690556000820160046101000a81549063ffffffff02191690556000820160086101000a81549067ffffffffffffffff02191690556000820160106101000a81549067ffffffffffffffff021916905550600101615e81565b5090565b905600a165627a7a723058204e59ab67c3734309674cb7eda35dc0c0ab2d3edd89c049c2f28db70526613f530029",
  "source": "pragma solidity ^0.4.23;\n\nimport 'zeppelin-solidity/contracts/math/SafeMath.sol';\nimport 'zeppelin-solidity/contracts/ownership/NoOwner.sol';\nimport './AssetsRequirements.sol';\nimport './BuildingsData.sol';\nimport './UserBuildings.sol';\nimport './UserResources.sol';\nimport './Versioned.sol';\n\n/*\n * @title BuildingsQueue (WIP)\n * @dev Issue: * https://github.com/e11-io/crypto-wars-solidity/issues/4\n */\ncontract BuildingsQueue is NoOwner, Versioned {\n  using SafeMath for uint;\n\n  /*\n   * @dev Event for Adding a building to the queue system logging.\n   * @param _user who receives the building.\n   * @param _id the id of the building to be added.\n   * @param _index the index of the building to be added.\n\t * @param _startBlock the number of the block where the construction is gonna start.\n\t * @param _endBlock the number of the block where the construction is gonna be ready.\n   */\n  event AddNewBuildingToQueue(address _user,\n                              uint _id,\n                              uint _index,\n                              uint _startBlock,\n                              uint _endBlock);\n\n /*\n  * @dev Event for Updating the buildings queue. Buildings that are ready will be\n  * tranfered to the user buildings contract, and removed from the queue.\n  * @param _user the address of the user's queue to be updated. (address)\n  * @param _ids The ids of the finished buldings. (uint[])\n  * @param _indexes The indexes of the finished buldings. (uint[])\n  */\n  event UpdateQueue(address _user,\n                    uint[] _ids,\n                    uint[] _indexes);\n\n /*\n  * @dev Event for upgrading a building to the queue system logging.\n  * @param _idOfUpgrade the id of the building to be added.\n  * @param _index the index of the building to be added.\n  * @param _startBlock the number of the block where the construction is gonna start.\n  * @param _endBlock the number of the block where the construction is gonna be ready.\n  */\n  event UpgradeBuilding(uint _idOfUpgrade, uint _index, uint startBlock, uint endBlock);\n\n /*\n  *\n  */\n  event RemoveBuilding(address _user, uint _id, uint _index);\n\n  struct Build {\n    uint32 id;\n    uint32 index;\n    uint64 startBlock;\n    uint64 endBlock;\n  }\n\n\n  AssetsRequirements assetsRequirements;\n  BuildingsData buildingsData;\n  BuildingsQueue previousBuildingsQueue;\n  UserBuildings userBuildings;\n  UserResources userResources;\n\n  // Mapping of user -> build struct array (keeps track of buildings in construction queue)\n  mapping (address => Build[]) public userBuildingsQueue;\n\n  /*\n   * @notice Constructor: Instantiate Buildings Queue contract.\n   * @dev Constructor function to provide User Buildings address and instantiate it.\n   */\n  constructor() public {\n  }\n\n  /*\n   * @notice Makes the contract type verifiable.\n   * @dev Function to prove the contract is Buildings Queue.\n   */\n  function isBuildingsQueue() external pure returns (bool) {\n    return true;\n  }\n\n  /*\n   * @notice Sets the contract's version and instantiates the previous version contract.\n   * @dev Function to set the contract version and instantiate the previous Buildings Queue.\n   * @param _previousBuildingsQueue the address of previous Buildings Queue contract. (address)\n   * @param _version the current contract version number. (uint)\n   */\n  function setBuildingsQueueVersion(BuildingsQueue _previousBuildingsQueue, uint _version) external onlyOwner {\n    require(_previousBuildingsQueue.isBuildingsQueue());\n    require(_version > _previousBuildingsQueue.version());\n    previousBuildingsQueue =_previousBuildingsQueue;\n    setVersion(_version);\n  }\n\n  /*\n   * @title Instantiate User Buildings contract.\n   * @dev Function to provide User Buildings address and instantiate it.\n   * @param _userBuildings the address of User Buildings contract. (address)\n   */\n  function setUserBuildings(UserBuildings _userBuildings) external onlyOwner {\n    require(_userBuildings.isUserBuildings());\n    userBuildings = _userBuildings;\n  }\n\n  /*\n   * @title Instantiate Buildings Data contract.\n   * @dev Function to provide Buildings Data address and instantiate it.\n   * @param _buildingsData the address of Buildings Data contract. (address)\n   */\n  function setBuildingsData(BuildingsData _buildingsData) external onlyOwner {\n    require(_buildingsData.isBuildingsData());\n    buildingsData = _buildingsData;\n  }\n\n  /*\n   * @title Instantiate User Resources contract.\n   * @dev Function to provide User Resources address and instantiate it.\n   * @param _userResources the address of User Resources contract. (address)\n   */\n  function setUserResources(UserResources _userResources) external onlyOwner {\n    require(_userResources.isUserResources());\n    userResources = _userResources;\n  }\n\n  /*\n   * @title Instantiate Assets Requirements contract.\n   * @dev Function to provide Assets Requirements address and instantiate it.\n   * @param _assetsRequirements the address of Assets Requirements contract. (address)\n   */\n  function setAssetsRequirements(AssetsRequirements _assetsRequirements) external onlyOwner {\n    require(_assetsRequirements.isAssetsRequirements());\n    assetsRequirements = _assetsRequirements;\n  }\n\n  /*\n   * @notice Add New Building To Queue.\n   * @dev Function to add a new building to the construction queue of the user.\n      index -2: building type is not unique and the builiding cant be created.\n      index -1: building type is unique and the building can be created. Must be initialized.\n      index >= 0: building was deleted and must be created again. Modifing it's active variable to true.\n   * @param _id of the building to add to the queue. (uint)\n   */\n  function addNewBuildingToQueue(uint _id) external {\n    require(buildingsData.checkBuildingExist(_id));\n    require(assetsRequirements.validateUserAssetRequirements(msg.sender, _id));\n\n    uint typeId = buildingsData.getBuildingTypeId(_id);\n    int index = userBuildings.buildingTypeIsUnique(msg.sender, typeId, _id);\n\n    require(index > -2);\n\n    uint price;\n    uint resourceType;\n    uint blocks;\n    (price, resourceType, blocks) = buildingsData.getBuildingData(_id);\n\n    consumeResources(msg.sender, price, resourceType);\n\n    if  (index == -1) {\n      index = int(userBuildings.initNewBuilding(msg.sender, _id));\n    }\n\n    uint startBlock = getStartBlock(msg.sender);\n    uint endBlock = startBlock.add(blocks);\n\n    userBuildingsQueue[msg.sender].push(Build(\n      uint32(_id),\n      uint32(uint(index)),\n      uint64(startBlock),\n      uint64(endBlock)\n    ));\n\n    emit AddNewBuildingToQueue(msg.sender,\n                               _id,\n                               uint(index),\n                               startBlock,\n                               endBlock);\n  }\n\n  /*\n   * @title Update Queue.\n   * @dev Function to update the user buildings queue. Finished buildings\n   *  will be send to the User Buildings contract and removed from the construction\n   *  queue. Queue will be resized and updated with only the unfinished buildings.\n   * @param _user the address of the user's queue to be updated. (address)\n   * @return an array of the finished buildings ids. (uint[])\n   */\n  function updateQueue(address _user) public {\n    require(_user != address(0));\n    if (userBuildingsQueue[_user].length == 0) {\n      return;\n    }\n\n    uint length = userBuildingsQueue[_user].length;\n    uint i = 0;\n\n    while (i < length && userBuildingsQueue[_user][i].endBlock < block.number) {\n      i++;\n    }\n\n    uint[] memory finishedIds = new uint[](i);\n    uint[] memory finishedIndexes = new uint[](i);\n\n    if (i == 0) {\n      emit UpdateQueue(_user, finishedIds, finishedIndexes);\n      return;\n    }\n\n    for (uint j = 0; j < i; j++) {\n      Build storage building = userBuildingsQueue[_user][j];\n      finishedIds[j] = building.id;\n      finishedIndexes[j] = building.index;\n    }\n\n    require(userBuildings.addUserBuildings(_user, finishedIds, finishedIndexes));\n\n    require(shiftUserBuildings(_user, i));\n\n    emit UpdateQueue(_user, finishedIds, finishedIndexes);\n  }\n\n  /*\n   * @title Upgrade Building.\n   * @dev Function to upgrade a buildings. If the building is in queue\n   *  the queue is updated.\n   * @param _id The id of the building that is gonna be replaced for the upgrade. (uint)\n   * @param _idOfUpgrade The id of the upgrade. (uint)\n   * @param _index The index of the building. (uint)\n   */\n  function upgradeBuilding(uint _id, uint _idOfUpgrade, uint _index) external {\n    require(buildingsData.checkBuildingExist(_id));\n    require(buildingsData.checkBuildingExist(_idOfUpgrade));\n    require(buildingsData.checkUpgrade(_id, _idOfUpgrade));\n    require(assetsRequirements.validateUserAssetRequirements(msg.sender, _idOfUpgrade));\n\n\n    bool buildingIsInQueue;\n    uint buildingIndexInQueue;\n    (buildingIsInQueue, buildingIndexInQueue) = findBuildingInQueue(msg.sender, _id, _index);\n\n    uint price;\n    uint resourceType;\n    uint blocks;\n    (price, resourceType, blocks) = buildingsData.getBuildingData(_idOfUpgrade);\n\n    consumeResources(msg.sender, price, resourceType);\n\n    if (buildingIsInQueue) {\n      require(userBuildingsQueue[msg.sender][buildingIndexInQueue].endBlock < block.number);\n      updateQueue(msg.sender);\n    }\n\n    require(userBuildings.upgradeBuilding(msg.sender, _id, _index));\n\n    uint startBlock = getStartBlock(msg.sender);\n    uint endBlock = startBlock.add(blocks);\n\n    userBuildingsQueue[msg.sender].push(Build(\n      uint32(_idOfUpgrade), uint32(_index), uint64(startBlock), uint64(endBlock)\n    ));\n\n    emit UpgradeBuilding(_idOfUpgrade, _index, startBlock, endBlock);\n  }\n\n  /*\n   * @title Find Building In Queue.\n   * @dev Function to find a building in queue.\n   * @param _user The address of the user. (address)\n   * @param _id The id of the building. (uint)\n   * @param _index The Index of the building. (uint)\n   * @return A boolean representing if the building exists in the queue\n   * and a uint representing the index/position of the building in the queue.\n   */\n  function findBuildingInQueue(address _user, uint _id, uint _index) public view returns (bool exists, uint indexInQueue) {\n    for (uint i = 0; i < userBuildingsQueue[_user].length; i++) {\n      if (_index == userBuildingsQueue[_user][i].index && _id == userBuildingsQueue[_user][i].id) {\n        return (true, i);\n      }\n    }\n    return (false, 0);\n  }\n\n  /*\n   * @title Update Queue Blocks.\n   * @dev Function to update the start and end blocks of each building in queue\n   * when a building is removed.\n   * @param _user The address of the user's queue to be updated. (address)\n   * @param _queueIndex The index in queue of the building. (uint)\n   */\n  function updateQueueBlocks(address _user, uint _queueIndex) internal {\n    uint64 blocks;\n    for (uint i = _queueIndex + 1; i < userBuildingsQueue[_user].length; i++) {\n      /* TODO: might need to implement safe math later*/\n      blocks = userBuildingsQueue[_user][i].endBlock - userBuildingsQueue[_user][i].startBlock;\n      if (i == _queueIndex + 1) {\n        if (userBuildingsQueue[_user][_queueIndex].startBlock >= block.number) {\n          userBuildingsQueue[_user][i].startBlock = userBuildingsQueue[_user][i - 1].startBlock;\n        }\n        if (userBuildingsQueue[_user][_queueIndex].startBlock < block.number) {\n          userBuildingsQueue[_user][i].startBlock = uint64(block.number);\n        }\n        userBuildingsQueue[_user][i].endBlock = userBuildingsQueue[_user][i].startBlock + blocks;\n      } else {\n        userBuildingsQueue[_user][i].startBlock = userBuildingsQueue[_user][i - 1].endBlock;\n        userBuildingsQueue[_user][i].endBlock = userBuildingsQueue[_user][i].startBlock + blocks;\n      }\n    }\n  }\n\n  /*\n   * @notice Shift User Buildings.\n   * @dev Function to shift the specified amount of builds from user buildings queue.\n   *  Being a chronologically ordered array, finished buildings will be always\n   *  first on the array.\n   * @param _user the address of the user's queue to be updated. (address)\n   * @param _amount of buildings to be shifted from the array. (uint)\n   * @return A boolean that indicates if the operation was successful.\n   */\n  function shiftUserBuildings(address _user, uint _amount) internal returns (bool) {\n    require(_amount <= userBuildingsQueue[_user].length);\n\n    for (uint i = _amount; i < userBuildingsQueue[_user].length; i++){\n      userBuildingsQueue[_user][i - _amount] = userBuildingsQueue[_user][i];\n    }\n    for (uint j = 1; j <= _amount; j++){\n      delete userBuildingsQueue[_user][userBuildingsQueue[_user].length - j];\n    }\n    userBuildingsQueue[_user].length -= _amount;\n    return true;\n  }\n\n  /*\n   * @notice Shift One User Buildings.\n   * @dev Function to shift one specified building from user buildings queue.\n   * @param _user The address of the user's queue to be updated. (address)\n   * @param _index The index of the building to be removed. (uint)\n   * @return A boolean that indicates if the operation was successful.\n   */\n  function shiftOneUserBuilding(address _user, uint _index) internal returns (bool) {\n    for (uint i = _index; i < userBuildingsQueue[_user].length; i++) {\n      if (i == userBuildingsQueue[_user].length - 1) {\n        delete userBuildingsQueue[_user][userBuildingsQueue[_user].length - 1];\n      } else {\n        userBuildingsQueue[_user][i] = userBuildingsQueue[_user][i + 1];\n      }\n    }\n    userBuildingsQueue[_user].length -= 1;\n    return true;\n  }\n\n  /*\n   * @notice Get the last building in the construction queue of the user.\n   * @param _user . (address)\n   */\n  function getLastUserBuilding(address _user) external view returns (uint id,\n                                                                uint startBlock,\n                                                                uint endBlock) {\n    require(_user != address(0));\n    require(userBuildingsQueue[_user].length > 0);\n\n    Build storage b = userBuildingsQueue[_user][userBuildingsQueue[_user].length -1];\n    return (b.id, b.startBlock, b.endBlock);\n  }\n\n  /*\n   * @notice Check Building Price and Get Block of it.\n   * @dev Function to check if the user has the necessary amount of resources\n   *  to build/upgrade the building. And returns the amount of blocks that\n   *  building takes to be done.\n   * @param _user the address of the user. (address)\n   * @param _price the price for the upgrade. (uint)\n   * @param _resourceType the type of the resource to consume. (uint)\n   * @return returns the amount of blocks that building takes to be done.\n   */\n  function consumeResources(address _user, uint _price, uint _resourceType) internal {\n    require(_resourceType == 0 || _resourceType == 1 || _resourceType == 2);\n    if (_price > 0) {\n      if (_resourceType == 0) {\n        require(userResources.consumeGold(_user, _price));\n      }\n      if (_resourceType == 1) {\n        require(userResources.consumeCrystal(_user, _price));\n      }\n      if (_resourceType == 2) {\n        require(userResources.consumeQuantumDust(_user, _price));\n      }\n    }\n  }\n\n  /*\n   * @notice Get Start Block.\n   * @dev Function to get the start block number of the new building to be\n   *  added in the queue.\n   * @param _user the address of the user (address)\n   */\n  function getStartBlock(address _user) internal view returns (uint) {\n    uint length = userBuildingsQueue[_user].length;\n    uint startBlock = block.number;\n    if (length > 0) {\n      Build storage lastBuilding = userBuildingsQueue[_user][SafeMath.sub(length, 1)];\n      if (block.number < lastBuilding.endBlock ) {\n        startBlock = lastBuilding.endBlock;\n      }\n    }\n    return startBlock;\n  }\n\n  /*\n   * @notice Get Buildings in Queue.\n   * @dev Function to check the ids of all the user's buildings in queue.\n   * @param _user the address of the user's queue to be shown. (address)\n   */\n  function getBuildingsInQueue(address _user) external view returns (uint[]) {\n    require(_user != address(0));\n\n    uint length = userBuildingsQueue[_user].length;\n    uint[] memory buildings = new uint[](length);\n    for (uint i = 0; i < length; i++) {\n      buildings[i] = userBuildingsQueue[_user][i].id;\n    }\n    return buildings;\n  }\n\n  /*\n   * @notice Get Ids and Blocks.\n   * @dev Function to get the ids, start block and end block of all buildings in queue.\n   * Used only for testing.\n   * @param _user the address of the user. (address)\n   * @return four uint arrays representiong the id, startBlock, endBlock and index of each building.\n   */\n  function getBuildings(address _user) external view returns (uint[], uint[], uint[], uint[]) {\n    require(_user != address(0));\n\n    uint length = userBuildingsQueue[_user].length;\n    uint[] memory ids = new uint[](length);\n    uint[] memory startBlocks = new uint[](length);\n    uint[] memory endBlocks = new uint[](length);\n    uint[] memory indexes = new uint[](length);\n    for (uint i = 0; i < length; i++) {\n      ids[i] = userBuildingsQueue[_user][i].id;\n      startBlocks[i] = userBuildingsQueue[_user][i].startBlock;\n      endBlocks[i] = userBuildingsQueue[_user][i].endBlock;\n      indexes[i] = userBuildingsQueue[_user][i].index;\n    }\n    return (ids, startBlocks, endBlocks, indexes);\n  }\n\n  /*\n   * @notice Get Building Id and Block.\n   * @dev Function to check the id and end block of a building in queue.\n   * @param _user The address of the user's queue to search in. (address)\n   * @param _index The index of the element to return in the array. (uint)\n   */\n  function getBuildingIdAndEndBlock(address _user, uint _indexInQueue) external view returns (uint id, uint endBlock) {\n    require(userBuildingsQueue[_user].length > _indexInQueue);\n    return (userBuildingsQueue[_user][_indexInQueue].id, userBuildingsQueue[_user][_indexInQueue].endBlock);\n  }\n\n  /*\n   * @notice Get Building Index.\n   * @dev Function to get the id and index of a building.\n   * Used only for testing.\n   * @param _user The address of the user. (address)\n   * @param _indexInQueue The index in queue of the building. (uint)\n   * @return Two uints representiong the id and index of a building.\n   */\n  function getBuildingIndex(address _user, uint _indexInQueue) external view returns (uint id, uint index) {\n    require(_user != address(0));\n    require(_indexInQueue < userBuildingsQueue[_user].length);\n\n    return (userBuildingsQueue[_user][_indexInQueue].id, userBuildingsQueue[_user][_indexInQueue].index);\n  }\n\n  /*\n   * @notice Get User Queue Resources.\n   * @dev Function to get the amount of gold and crystal produced in the buildings Queue\n   * since the last payout to the user.\n   * @param _user The address of the user to give the resources. (address)\n   * @param _payoutBlock The block where was the last payout to the user. (uint)\n   * @return Two uints representing the gold and crystal produced in the queue system.\n   */\n  function getUserQueueResources(address _user) external view returns (uint queueGold, uint queueCrystal) {\n    uint goldRate;\n    uint crystalRate;\n    uint diff;\n    uint payoutBlock = userResources.usersPayoutBlock(_user);\n\n\n\t\tfor (uint i = 0; i < userBuildingsQueue[_user].length; i++) {\n      if (userBuildingsQueue[_user][i].endBlock < block.number) {\n        (goldRate, crystalRate) = buildingsData.getGoldAndCrystalRates(userBuildingsQueue[_user][i].id);\n\n        if (userBuildingsQueue[_user][i].endBlock > payoutBlock) {\n          diff = SafeMath.sub(block.number, userBuildingsQueue[_user][i].endBlock);\n        } else {\n          diff = SafeMath.sub(block.number, payoutBlock);\n        }\n\n\n        if (diff > 0) {\n          if (goldRate > 0) {\n            queueGold = SafeMath.add(queueGold, SafeMath.mul(goldRate, diff));\n          }\n\n          if (crystalRate > 0) {\n            queueCrystal = SafeMath.add(queueCrystal, SafeMath.mul(crystalRate, diff));\n          }\n        }\n      }\n    }\n\n    return (queueGold, queueCrystal);\n\t}\n\n  /*\n   * @title Get Buildings Queue Length\n   * @dev Get the length of the buildings Queue.\n   * @param _user The address of the user. (address)\n   */\n  function getBuildingsQueueLength(address _user) external view returns (uint length) {\n    return userBuildingsQueue[_user].length;\n  }\n\n  /*\n   * @title Cancel Building.\n   * @dev Function to cancel/remove building from queue. The building is set\n   * to Active false in User Buildings.\n   * @param _id The id of the building to be removed. (uint)\n   * @param _index The Index of the building to be removed. (uint)\n   */\n  function cancelBuilding(uint _id, uint _index) external {\n    require(buildingsData.checkBuildingExist(_id));\n\n    bool buildingIsInQueue;\n    uint buildingIndexInQueue;\n\n    (buildingIsInQueue, buildingIndexInQueue) = findBuildingInQueue(msg.sender, _id, _index);\n\n    require(buildingIsInQueue);\n    require(userBuildingsQueue[msg.sender][buildingIndexInQueue].endBlock > block.number);\n\n    userResources.payoutResources(msg.sender);\n    updateQueueBlocks(msg.sender, buildingIndexInQueue);\n    require(shiftOneUserBuilding(msg.sender, buildingIndexInQueue));\n\n    require(userBuildings.updateBuildingStatus(msg.sender, _id, _index));\n\n    emit RemoveBuilding(msg.sender, _id, _index);\n\n  }\n\n  /*\n   * @title Get User Resources Capacity.\n   * @dev Function to get the resources capacity of the buildings in queue.\n   * @param _user The address of the user. (address)\n   * @return Two uints representing the gold and crystal capacity of the buildings in queue.\n   */\n  function getUserResourcesCapacity(address _user) external view returns (uint totalGoldCapacity, uint totalCrystalCapacity) {\n    uint goldCapacity;\n    uint crystalCapacity;\n\n\t\tfor (uint i = 0; i < userBuildingsQueue[_user].length; i++) {\n      uint buildingId = 0;\n      if (userBuildingsQueue[_user][i].endBlock < block.number) {\n        buildingId = userBuildingsQueue[_user][i].id;\n      }\n      if (userBuildingsQueue[_user][i].endBlock >= block.number &&\n         ((userBuildingsQueue[_user][i].id - userBuildingsQueue[_user][i].id % 1000) / 1000) > 1) {\n        buildingId = userBuildingsQueue[_user][i].id - 1000;\n      }\n\n      if (buildingId > 0) {\n        (goldCapacity, crystalCapacity) = buildingsData.getGoldAndCrystalCapacity(buildingId);\n\n        if (goldCapacity > 0) {\n          totalGoldCapacity = SafeMath.add(totalGoldCapacity, goldCapacity);\n        }\n\n        if (crystalCapacity > 0) {\n          totalCrystalCapacity = SafeMath.add(totalCrystalCapacity, crystalCapacity);\n        }\n      }\n    }\n\n    return (totalGoldCapacity, totalCrystalCapacity);\n  }\n\n}\n",
  "sourcePath": "/home/francisco/Truffle/crypto-wars-solidity/contracts/BuildingsQueue.sol",
  "compiler": {
    "name": "solc",
    "version": "0.4.23+commit.124ca40d.Emscripten.clang"
  },
  "schemaVersion": "2.0.0",
  "updatedAt": "2018-04-26T19:14:33.827Z"
}