{
  "contractName": "BuildingsData",
  "abi": [
    {
      "constant": false,
      "inputs": [
        {
          "name": "token",
          "type": "address"
        }
      ],
      "name": "reclaimToken",
      "outputs": [],
      "payable": false,
      "stateMutability": "nonpayable",
      "type": "function"
    },
    {
      "constant": false,
      "inputs": [
        {
          "name": "contractAddr",
          "type": "address"
        }
      ],
      "name": "reclaimContract",
      "outputs": [],
      "payable": false,
      "stateMutability": "nonpayable",
      "type": "function"
    },
    {
      "constant": false,
      "inputs": [
        {
          "name": "_version",
          "type": "uint256"
        }
      ],
      "name": "setVersion",
      "outputs": [],
      "payable": false,
      "stateMutability": "nonpayable",
      "type": "function"
    },
    {
      "constant": true,
      "inputs": [
        {
          "name": "",
          "type": "uint256"
        }
      ],
      "name": "buildings",
      "outputs": [
        {
          "name": "name",
          "type": "string"
        },
        {
          "name": "health",
          "type": "int32"
        },
        {
          "name": "defense",
          "type": "int32"
        },
        {
          "name": "attack",
          "type": "int32"
        },
        {
          "name": "goldCapacity",
          "type": "int32"
        },
        {
          "name": "crystalCapacity",
          "type": "int32"
        },
        {
          "name": "goldRate",
          "type": "int32"
        },
        {
          "name": "crystalRate",
          "type": "int32"
        },
        {
          "name": "price",
          "type": "int32"
        },
        {
          "name": "resource",
          "type": "int32"
        },
        {
          "name": "blocks",
          "type": "int32"
        },
        {
          "name": "previousLevelId",
          "type": "int32"
        },
        {
          "name": "typeId",
          "type": "int32"
        }
      ],
      "payable": false,
      "stateMutability": "view",
      "type": "function"
    },
    {
      "constant": true,
      "inputs": [],
      "name": "version",
      "outputs": [
        {
          "name": "",
          "type": "uint256"
        }
      ],
      "payable": false,
      "stateMutability": "view",
      "type": "function"
    },
    {
      "constant": true,
      "inputs": [],
      "name": "owner",
      "outputs": [
        {
          "name": "",
          "type": "address"
        }
      ],
      "payable": false,
      "stateMutability": "view",
      "type": "function"
    },
    {
      "constant": true,
      "inputs": [
        {
          "name": "",
          "type": "uint256"
        }
      ],
      "name": "buildingIds",
      "outputs": [
        {
          "name": "",
          "type": "uint256"
        }
      ],
      "payable": false,
      "stateMutability": "view",
      "type": "function"
    },
    {
      "constant": false,
      "inputs": [],
      "name": "reclaimEther",
      "outputs": [],
      "payable": false,
      "stateMutability": "nonpayable",
      "type": "function"
    },
    {
      "constant": true,
      "inputs": [
        {
          "name": "",
          "type": "address"
        }
      ],
      "name": "migratedUsers",
      "outputs": [
        {
          "name": "",
          "type": "bool"
        }
      ],
      "payable": false,
      "stateMutability": "view",
      "type": "function"
    },
    {
      "constant": false,
      "inputs": [
        {
          "name": "from_",
          "type": "address"
        },
        {
          "name": "value_",
          "type": "uint256"
        },
        {
          "name": "data_",
          "type": "bytes"
        }
      ],
      "name": "tokenFallback",
      "outputs": [],
      "payable": false,
      "stateMutability": "nonpayable",
      "type": "function"
    },
    {
      "constant": false,
      "inputs": [
        {
          "name": "_newContract",
          "type": "address"
        }
      ],
      "name": "migrateUser",
      "outputs": [],
      "payable": false,
      "stateMutability": "nonpayable",
      "type": "function"
    },
    {
      "constant": false,
      "inputs": [
        {
          "name": "newOwner",
          "type": "address"
        }
      ],
      "name": "transferOwnership",
      "outputs": [],
      "payable": false,
      "stateMutability": "nonpayable",
      "type": "function"
    },
    {
      "inputs": [],
      "payable": false,
      "stateMutability": "nonpayable",
      "type": "constructor"
    },
    {
      "payable": false,
      "stateMutability": "nonpayable",
      "type": "fallback"
    },
    {
      "anonymous": false,
      "inputs": [
        {
          "indexed": false,
          "name": "id",
          "type": "uint256"
        },
        {
          "indexed": false,
          "name": "name",
          "type": "string"
        }
      ],
      "name": "AddBuilding",
      "type": "event"
    },
    {
      "anonymous": false,
      "inputs": [
        {
          "indexed": false,
          "name": "id",
          "type": "uint256"
        },
        {
          "indexed": false,
          "name": "name",
          "type": "string"
        }
      ],
      "name": "UpdateBuilding",
      "type": "event"
    },
    {
      "anonymous": false,
      "inputs": [
        {
          "indexed": true,
          "name": "user",
          "type": "address"
        },
        {
          "indexed": true,
          "name": "newContract",
          "type": "address"
        }
      ],
      "name": "UserMigrated",
      "type": "event"
    },
    {
      "anonymous": false,
      "inputs": [
        {
          "indexed": true,
          "name": "previousOwner",
          "type": "address"
        },
        {
          "indexed": true,
          "name": "newOwner",
          "type": "address"
        }
      ],
      "name": "OwnershipTransferred",
      "type": "event"
    },
    {
      "constant": true,
      "inputs": [],
      "name": "isBuildingsData",
      "outputs": [
        {
          "name": "",
          "type": "bool"
        }
      ],
      "payable": false,
      "stateMutability": "pure",
      "type": "function"
    },
    {
      "constant": false,
      "inputs": [
        {
          "name": "_previousBuildingsData",
          "type": "address"
        },
        {
          "name": "_version",
          "type": "uint256"
        }
      ],
      "name": "setBuildingsDataVersion",
      "outputs": [],
      "payable": false,
      "stateMutability": "nonpayable",
      "type": "function"
    },
    {
      "constant": true,
      "inputs": [],
      "name": "getBuildingIdsLength",
      "outputs": [
        {
          "name": "",
          "type": "uint256"
        }
      ],
      "payable": false,
      "stateMutability": "view",
      "type": "function"
    },
    {
      "constant": false,
      "inputs": [
        {
          "name": "id",
          "type": "uint256"
        },
        {
          "name": "name",
          "type": "string"
        },
        {
          "name": "stats",
          "type": "int32[]"
        }
      ],
      "name": "addBuilding",
      "outputs": [],
      "payable": false,
      "stateMutability": "nonpayable",
      "type": "function"
    },
    {
      "constant": false,
      "inputs": [
        {
          "name": "id",
          "type": "uint256"
        },
        {
          "name": "name",
          "type": "string"
        },
        {
          "name": "stats",
          "type": "int32[]"
        }
      ],
      "name": "updateBuilding",
      "outputs": [],
      "payable": false,
      "stateMutability": "nonpayable",
      "type": "function"
    },
    {
      "constant": true,
      "inputs": [
        {
          "name": "_id",
          "type": "uint256"
        }
      ],
      "name": "checkBuildingExist",
      "outputs": [
        {
          "name": "",
          "type": "bool"
        }
      ],
      "payable": false,
      "stateMutability": "view",
      "type": "function"
    },
    {
      "constant": true,
      "inputs": [
        {
          "name": "_id",
          "type": "uint256"
        },
        {
          "name": "_idOfUpgrade",
          "type": "uint256"
        }
      ],
      "name": "checkUpgrade",
      "outputs": [
        {
          "name": "",
          "type": "bool"
        }
      ],
      "payable": false,
      "stateMutability": "view",
      "type": "function"
    },
    {
      "constant": true,
      "inputs": [
        {
          "name": "_id",
          "type": "uint256"
        }
      ],
      "name": "getBuildingData",
      "outputs": [
        {
          "name": "price",
          "type": "uint256"
        },
        {
          "name": "resource",
          "type": "uint256"
        },
        {
          "name": "blocks",
          "type": "uint256"
        }
      ],
      "payable": false,
      "stateMutability": "view",
      "type": "function"
    },
    {
      "constant": true,
      "inputs": [
        {
          "name": "_id",
          "type": "uint256"
        }
      ],
      "name": "getGoldAndCrystalRates",
      "outputs": [
        {
          "name": "goldRate",
          "type": "uint256"
        },
        {
          "name": "crystalRate",
          "type": "uint256"
        }
      ],
      "payable": false,
      "stateMutability": "view",
      "type": "function"
    },
    {
      "constant": true,
      "inputs": [
        {
          "name": "_id",
          "type": "uint256"
        }
      ],
      "name": "getBuildingTypeId",
      "outputs": [
        {
          "name": "",
          "type": "uint256"
        }
      ],
      "payable": false,
      "stateMutability": "view",
      "type": "function"
    },
    {
      "constant": true,
      "inputs": [
        {
          "name": "_id",
          "type": "uint256"
        }
      ],
      "name": "getGoldAndCrystalCapacity",
      "outputs": [
        {
          "name": "goldCapacity",
          "type": "uint256"
        },
        {
          "name": "crystalCapacity",
          "type": "uint256"
        }
      ],
      "payable": false,
      "stateMutability": "view",
      "type": "function"
    }
  ],
  "bytecode": "0x6060604052341561000f57600080fd5b336000806101000a81548173ffffffffffffffffffffffffffffffffffffffff021916908373ffffffffffffffffffffffffffffffffffffffff16021790555060003414151561005e57600080fd5b612c298061006d6000396000f300606060405260043610610133576000357c0100000000000000000000000000000000000000000000000000000000900463ffffffff168063059b3e2e1461014057806317ffc32014610184578063280d49b4146101bd5780632aed7f3f146102085780633769feef14610241578063408def1e1461026e5780634c96a0621461029157806354fd4d50146103e6578063614ad27f1461040f5780636facbe2b146104465780637d08280a146104815780638709e9da146104aa5780638bfa8771146104ef5780638da5cb5b1461052d57806399027c17146105825780639f727c27146105b9578063b5142cff146105ce578063bbe768a41461060c578063c0ee0b8a1461065d578063c457afa2146106b3578063d4049b8c146106fe578063dd6c7e3114610740578063f2fde38b14610779575b341561013e57600080fd5b005b341561014b57600080fd5b61016a60048080359060200190919080359060200190919050506107b2565b604051808215151515815260200191505060405180910390f35b341561018f57600080fd5b6101bb600480803573ffffffffffffffffffffffffffffffffffffffff169060200190919050506107f5565b005b34156101c857600080fd5b610206600480803590602001909190803590602001908201803590602001919091929080359060200190820180359060200191909192905050610962565b005b341561021357600080fd5b61023f600480803573ffffffffffffffffffffffffffffffffffffffff1690602001909190505061112f565b005b341561024c57600080fd5b610254611262565b604051808215151515815260200191505060405180910390f35b341561027957600080fd5b61028f600480803590602001909190505061126b565b005b341561029c57600080fd5b6102b260048080359060200190919050506112d0565b60405180806020018e60030b60030b81526020018d60030b60030b81526020018c60030b60030b81526020018b60030b60030b81526020018a60030b60030b81526020018960030b60030b81526020018860030b60030b81526020018760030b60030b81526020018660030b60030b81526020018560030b60030b81526020018460030b60030b81526020018360030b60030b815260200182810382528f8181546001816001161561010002031660029004815260200191508054600181600116156101000203166002900480156103cb5780601f106103a0576101008083540402835291602001916103cb565b820191906000526020600020905b8154815290600101906020018083116103ae57829003601f168201915b50509e50505050505050505050505050505060405180910390f35b34156103f157600080fd5b6103f96113d1565b6040518082815260200191505060405180910390f35b341561041a57600080fd5b61043060048080359060200190919050506113d7565b6040518082815260200191505060405180910390f35b341561045157600080fd5b6104676004808035906020019091905050611407565b604051808215151515815260200191505060405180910390f35b341561048c57600080fd5b6104946114b6565b6040518082815260200191505060405180910390f35b34156104b557600080fd5b6104cb60048080359060200190919050506114c3565b60405180848152602001838152602001828152602001935050505060405180910390f35b34156104fa57600080fd5b61051060048080359060200190919050506115ee565b604051808381526020018281526020019250505060405180910390f35b341561053857600080fd5b6105406116ec565b604051808273ffffffffffffffffffffffffffffffffffffffff1673ffffffffffffffffffffffffffffffffffffffff16815260200191505060405180910390f35b341561058d57600080fd5b6105a36004808035906020019091905050611711565b6040518082815260200191505060405180910390f35b34156105c457600080fd5b6105cc611735565b005b34156105d957600080fd5b6105ef6004808035906020019091905050611807565b604051808381526020018281526020019250505060405180910390f35b341561061757600080fd5b610643600480803573ffffffffffffffffffffffffffffffffffffffff16906020019091905050611905565b604051808215151515815260200191505060405180910390f35b341561066857600080fd5b6106b1600480803573ffffffffffffffffffffffffffffffffffffffff169060200190919080359060200190919080359060200190820180359060200191909192905050611925565b005b34156106be57600080fd5b6106fc60048080359060200190919080359060200190820180359060200191909192908035906020019082018035906020019190919290505061192a565b005b341561070957600080fd5b61073e600480803573ffffffffffffffffffffffffffffffffffffffff16906020019091908035906020019091905050611b2e565b005b341561074b57600080fd5b610777600480803573ffffffffffffffffffffffffffffffffffffffff16906020019091905050611cfd565b005b341561078457600080fd5b6107b0600480803573ffffffffffffffffffffffffffffffffffffffff16906020019091905050611ea8565b005b60008260030b6003600084815260200190815260200160002060020160089054906101000a900460030b60030b1415156107eb57600080fd5b6001905092915050565b60008060009054906101000a900473ffffffffffffffffffffffffffffffffffffffff1673ffffffffffffffffffffffffffffffffffffffff163373ffffffffffffffffffffffffffffffffffffffff1614151561085257600080fd5b8173ffffffffffffffffffffffffffffffffffffffff166370a08231306000604051602001526040518263ffffffff167c0100000000000000000000000000000000000000000000000000000000028152600401808273ffffffffffffffffffffffffffffffffffffffff1673ffffffffffffffffffffffffffffffffffffffff168152602001915050602060405180830381600087803b15156108f557600080fd5b6102c65a03f1151561090657600080fd5b50505060405180519050905061095e6000809054906101000a900473ffffffffffffffffffffffffffffffffffffffff16828473ffffffffffffffffffffffffffffffffffffffff16611ffd9092919063ffffffff16565b5050565b6000809054906101000a900473ffffffffffffffffffffffffffffffffffffffff1673ffffffffffffffffffffffffffffffffffffffff163373ffffffffffffffffffffffffffffffffffffffff161415156109bd57600080fd5b604051806000019050604051809103902060001916600360008781526020019081526020016000206000016040518082805460018160011615610100020316600290048015610a435780601f10610a21576101008083540402835291820191610a43565b820191906000526020600020905b815481529060010190602001808311610a2f575b5050915050604051809103902060001916141515610a6057600080fd5b60405180600001905060405180910390206000191684846040518083838082843782019150509250505060405180910390206000191614151515610aa357600080fd5b6000828260008181101515610ab457fe5b9050602002013560030b60030b12151515610ace57600080fd5b6000828260018181101515610adf57fe5b9050602002013560030b60030b12151515610af957600080fd5b6000828260028181101515610b0a57fe5b9050602002013560030b60030b12151515610b2457600080fd5b6000828260038181101515610b3557fe5b9050602002013560030b60030b12151515610b4f57600080fd5b6000828260048181101515610b6057fe5b9050602002013560030b60030b12151515610b7a57600080fd5b6000828260058181101515610b8b57fe5b9050602002013560030b60030b12151515610ba557600080fd5b6000828260068181101515610bb657fe5b9050602002013560030b60030b12151515610bd057600080fd5b6000828260078181101515610be157fe5b9050602002013560030b60030b12151515610bfb57600080fd5b6000828260088181101515610c0c57fe5b9050602002013560030b60030b12151515610c2657600080fd5b6000828260098181101515610c3757fe5b9050602002013560030b60030b12151515610c5157600080fd5b60008282600a8181101515610c6257fe5b9050602002013560030b60030b12151515610c7c57600080fd5b60008282600b8181101515610c8d57fe5b9050602002013560030b60030b12151515610ca757600080fd5b6101a06040519081016040528085858080601f0160208091040260200160405190810160405280939291908181526020018383808284378201915050505050508152602001838360008181101515610cfb57fe5b9050602002013560030b60030b8152602001838360018181101515610d1c57fe5b9050602002013560030b60030b8152602001838360028181101515610d3d57fe5b9050602002013560030b60030b8152602001838360038181101515610d5e57fe5b9050602002013560030b60030b8152602001838360048181101515610d7f57fe5b9050602002013560030b60030b8152602001838360058181101515610da057fe5b9050602002013560030b60030b8152602001838360068181101515610dc157fe5b9050602002013560030b60030b8152602001838360078181101515610de257fe5b9050602002013560030b60030b8152602001838360088181101515610e0357fe5b9050602002013560030b60030b8152602001838360098181101515610e2457fe5b9050602002013560030b60030b81526020018383600a8181101515610e4557fe5b9050602002013560030b60030b81526020018383600b8181101515610e6657fe5b9050602002013560030b60030b815250600360008781526020019081526020016000206000820151816000019080519060200190610ea5929190612aac565b5060208201518160010160006101000a81548163ffffffff021916908360030b63ffffffff16021790555060408201518160010160046101000a81548163ffffffff021916908360030b63ffffffff16021790555060608201518160010160086101000a81548163ffffffff021916908360030b63ffffffff160217905550608082015181600101600c6101000a81548163ffffffff021916908360030b63ffffffff16021790555060a08201518160010160106101000a81548163ffffffff021916908360030b63ffffffff16021790555060c08201518160010160146101000a81548163ffffffff021916908360030b63ffffffff16021790555060e08201518160010160186101000a81548163ffffffff021916908360030b63ffffffff16021790555061010082015181600101601c6101000a81548163ffffffff021916908360030b63ffffffff1602179055506101208201518160020160006101000a81548163ffffffff021916908360030b63ffffffff1602179055506101408201518160020160046101000a81548163ffffffff021916908360030b63ffffffff1602179055506101608201518160020160086101000a81548163ffffffff021916908360030b63ffffffff16021790555061018082015181600201600c6101000a81548163ffffffff021916908360030b63ffffffff160217905550905050600480548060010182816110ba9190612b2c565b9160005260206000209001600087909190915055507f6791e4b9812c79b9ac089b25c73b7e19ff69483a7d3166d248695060f15bb67a85858560405180848152602001806020018281038252848482818152602001925080828437820191505094505050505060405180910390a15050505050565b60008060009054906101000a900473ffffffffffffffffffffffffffffffffffffffff1673ffffffffffffffffffffffffffffffffffffffff163373ffffffffffffffffffffffffffffffffffffffff1614151561118c57600080fd5b8190508073ffffffffffffffffffffffffffffffffffffffff1663f2fde38b6000809054906101000a900473ffffffffffffffffffffffffffffffffffffffff166040518263ffffffff167c0100000000000000000000000000000000000000000000000000000000028152600401808273ffffffffffffffffffffffffffffffffffffffff1673ffffffffffffffffffffffffffffffffffffffff168152602001915050600060405180830381600087803b151561124a57600080fd5b6102c65a03f1151561125b57600080fd5b5050505050565b60006001905090565b6000809054906101000a900473ffffffffffffffffffffffffffffffffffffffff1673ffffffffffffffffffffffffffffffffffffffff163373ffffffffffffffffffffffffffffffffffffffff161415156112c657600080fd5b8060018190555050565b600360205280600052604060002060009150905080600001908060010160009054906101000a900460030b908060010160049054906101000a900460030b908060010160089054906101000a900460030b9080600101600c9054906101000a900460030b908060010160109054906101000a900460030b908060010160149054906101000a900460030b908060010160189054906101000a900460030b9080600101601c9054906101000a900460030b908060020160009054906101000a900460030b908060020160049054906101000a900460030b908060020160089054906101000a900460030b9080600201600c9054906101000a900460030b90508d565b60015481565b600060036000838152602001908152602001600020600201600c9054906101000a900460030b60030b9050919050565b600060405180600001905060405180910390206000191660036000848152602001908152602001600020600001604051808280546001816001161561010002031660029004801561148f5780601f1061146d57610100808354040283529182019161148f565b820191906000526020600020905b81548152906001019060200180831161147b575b5050915050604051809103902060001916141515156114ad57600080fd5b60019050919050565b6000600480549050905090565b600080600060405180600001905060405180910390206000191660036000868152602001908152602001600020600001604051808280546001816001161561010002031660029004801561154e5780601f1061152c57610100808354040283529182019161154e565b820191906000526020600020905b81548152906001019060200180831161153a575b50509150506040518091039020600019161415151561156c57600080fd5b60036000858152602001908152602001600020600101601c9054906101000a900460030b60030b6003600086815260200190815260200160002060020160009054906101000a900460030b60030b6003600087815260200190815260200160002060020160049054906101000a900460030b60030b9250925092509193909250565b6000806040518060000190506040518091039020600019166003600085815260200190815260200160002060000160405180828054600181600116156101000203166002900480156116775780601f10611655576101008083540402835291820191611677565b820191906000526020600020905b815481529060010190602001808311611663575b50509150506040518091039020600019161415151561169557600080fd5b60036000848152602001908152602001600020600101600c9054906101000a900460030b60030b6003600085815260200190815260200160002060010160109054906101000a900460030b60030b91509150915091565b6000809054906101000a900473ffffffffffffffffffffffffffffffffffffffff1681565b60048181548110151561172057fe5b90600052602060002090016000915090505481565b6000809054906101000a900473ffffffffffffffffffffffffffffffffffffffff1673ffffffffffffffffffffffffffffffffffffffff163373ffffffffffffffffffffffffffffffffffffffff1614151561179057600080fd5b6000809054906101000a900473ffffffffffffffffffffffffffffffffffffffff1673ffffffffffffffffffffffffffffffffffffffff166108fc3073ffffffffffffffffffffffffffffffffffffffff16319081150290604051600060405180830381858888f19350505050151561180557fe5b565b6000806040518060000190506040518091039020600019166003600085815260200190815260200160002060000160405180828054600181600116156101000203166002900480156118905780601f1061186e576101008083540402835291820191611890565b820191906000526020600020905b81548152906001019060200180831161187c575b5050915050604051809103902060001916141515156118ae57600080fd5b6003600084815260200190815260200160002060010160149054906101000a900460030b60030b6003600085815260200190815260200160002060010160189054906101000a900460030b60030b91509150915091565b60026020528060005260406000206000915054906101000a900460ff1681565b600080fd5b6000809054906101000a900473ffffffffffffffffffffffffffffffffffffffff1673ffffffffffffffffffffffffffffffffffffffff163373ffffffffffffffffffffffffffffffffffffffff1614151561198557600080fd5b604051806000019050604051809103902060001916600360008781526020019081526020016000206000016040518082805460018160011615610100020316600290048015611a0b5780601f106119e9576101008083540402835291820191611a0b565b820191906000526020600020905b8154815290600101906020018083116119f7575b505091505060405180910390206000191614151515611a2957600080fd5b611a958585858080601f0160208091040260200160405190810160405280939291908181526020018383808284378201915050505050508484808060200260200160405190810160405280939291908181526020018383602002808284378201915050505050506120d0565b611ace85838380806020026020016040519081016040528093929190818152602001838360200280828437820191505050505050612490565b7fa635e865ddaef0e8f72f758131f2dcf57455111cef6a6a5d8741d33f7999d12485858560405180848152602001806020018281038252848482818152602001925080828437820191505094505050505060405180910390a15050505050565b6000809054906101000a900473ffffffffffffffffffffffffffffffffffffffff1673ffffffffffffffffffffffffffffffffffffffff163373ffffffffffffffffffffffffffffffffffffffff16141515611b8957600080fd5b8173ffffffffffffffffffffffffffffffffffffffff16633769feef6000604051602001526040518163ffffffff167c0100000000000000000000000000000000000000000000000000000000028152600401602060405180830381600087803b1515611bf557600080fd5b6102c65a03f11515611c0657600080fd5b505050604051805190501515611c1b57600080fd5b8173ffffffffffffffffffffffffffffffffffffffff166354fd4d506000604051602001526040518163ffffffff167c0100000000000000000000000000000000000000000000000000000000028152600401602060405180830381600087803b1515611c8757600080fd5b6102c65a03f11515611c9857600080fd5b5050506040518051905081111515611caf57600080fd5b81600560006101000a81548173ffffffffffffffffffffffffffffffffffffffff021916908373ffffffffffffffffffffffffffffffffffffffff160217905550611cf98161126b565b5050565b60011515600260003373ffffffffffffffffffffffffffffffffffffffff1673ffffffffffffffffffffffffffffffffffffffff16815260200190815260200160002060009054906101000a900460ff16151514151515611d5d57600080fd5b6001548173ffffffffffffffffffffffffffffffffffffffff166354fd4d506000604051602001526040518163ffffffff167c0100000000000000000000000000000000000000000000000000000000028152600401602060405180830381600087803b1515611dcc57600080fd5b6102c65a03f11515611ddd57600080fd5b50505060405180519050111515611df357600080fd5b6001600260003373ffffffffffffffffffffffffffffffffffffffff1673ffffffffffffffffffffffffffffffffffffffff16815260200190815260200160002060006101000a81548160ff0219169083151502179055508073ffffffffffffffffffffffffffffffffffffffff163373ffffffffffffffffffffffffffffffffffffffff167fc123aa2e5c63456c59a4694ac50ba610152278a01162f3d5e3a6ffc457bc586e60405160405180910390a350565b6000809054906101000a900473ffffffffffffffffffffffffffffffffffffffff1673ffffffffffffffffffffffffffffffffffffffff163373ffffffffffffffffffffffffffffffffffffffff16141515611f0357600080fd5b600073ffffffffffffffffffffffffffffffffffffffff168173ffffffffffffffffffffffffffffffffffffffff1614151515611f3f57600080fd5b8073ffffffffffffffffffffffffffffffffffffffff166000809054906101000a900473ffffffffffffffffffffffffffffffffffffffff1673ffffffffffffffffffffffffffffffffffffffff167f8be0079c531659141344cd1fd0a4f28419497f9722a3daafe3b4186f6b6457e060405160405180910390a3806000806101000a81548173ffffffffffffffffffffffffffffffffffffffff021916908373ffffffffffffffffffffffffffffffffffffffff16021790555050565b8273ffffffffffffffffffffffffffffffffffffffff1663a9059cbb83836000604051602001526040518363ffffffff167c0100000000000000000000000000000000000000000000000000000000028152600401808373ffffffffffffffffffffffffffffffffffffffff1673ffffffffffffffffffffffffffffffffffffffff16815260200182815260200192505050602060405180830381600087803b15156120a857600080fd5b6102c65a03f115156120b957600080fd5b5050506040518051905015156120cb57fe5b505050565b604051806000019050604051809103902060001916826040518082805190602001908083835b60208310151561211b57805182526020820191506020810190506020830392506120f6565b6001836020036101000a03801982511681845116808217855250505050505090500191505060405180910390206000191614151561217f578160036000858152602001908152602001600020600001908051906020019061217d929190612b58565b505b600081600081518110151561219057fe5b9060200190602002015160030b121580156121ec57508060008151811015156121b557fe5b9060200190602002015160030b6003600085815260200190815260200160002060010160009054906101000a900460030b60030b14155b156122425780600081518110151561220057fe5b906020019060200201516003600085815260200190815260200160002060010160006101000a81548163ffffffff021916908360030b63ffffffff1602179055505b600081600181518110151561225357fe5b9060200190602002015160030b121580156122af575080600181518110151561227857fe5b9060200190602002015160030b6003600085815260200190815260200160002060010160049054906101000a900460030b60030b14155b15612305578060018151811015156122c357fe5b906020019060200201516003600085815260200190815260200160002060010160046101000a81548163ffffffff021916908360030b63ffffffff1602179055505b600081600281518110151561231657fe5b9060200190602002015160030b12158015612372575080600281518110151561233b57fe5b9060200190602002015160030b6003600085815260200190815260200160002060010160089054906101000a900460030b60030b14155b156123c85780600281518110151561238657fe5b906020019060200201516003600085815260200190815260200160002060010160086101000a81548163ffffffff021916908360030b63ffffffff1602179055505b60008160038151811015156123d957fe5b9060200190602002015160030b1215801561243557508060038151811015156123fe57fe5b9060200190602002015160030b60036000858152602001908152602001600020600101600c9054906101000a900460030b60030b14155b1561248b5780600381518110151561244957fe5b9060200190602002015160036000858152602001908152602001600020600101600c6101000a81548163ffffffff021916908360030b63ffffffff1602179055505b505050565b60008160048151811015156124a157fe5b9060200190602002015160030b121580156124fd57508060048151811015156124c657fe5b9060200190602002015160030b6003600084815260200190815260200160002060010160109054906101000a900460030b60030b14155b156125535780600481518110151561251157fe5b906020019060200201516003600084815260200190815260200160002060010160106101000a81548163ffffffff021916908360030b63ffffffff1602179055505b600081600581518110151561256457fe5b9060200190602002015160030b121580156125c0575080600581518110151561258957fe5b9060200190602002015160030b6003600084815260200190815260200160002060010160149054906101000a900460030b60030b14155b15612616578060058151811015156125d457fe5b906020019060200201516003600084815260200190815260200160002060010160146101000a81548163ffffffff021916908360030b63ffffffff1602179055505b600081600681518110151561262757fe5b9060200190602002015160030b12158015612683575080600681518110151561264c57fe5b9060200190602002015160030b6003600084815260200190815260200160002060010160189054906101000a900460030b60030b14155b156126d95780600681518110151561269757fe5b906020019060200201516003600084815260200190815260200160002060010160186101000a81548163ffffffff021916908360030b63ffffffff1602179055505b60008160078151811015156126ea57fe5b9060200190602002015160030b12158015612746575080600781518110151561270f57fe5b9060200190602002015160030b60036000848152602001908152602001600020600101601c9054906101000a900460030b60030b14155b1561279c5780600781518110151561275a57fe5b9060200190602002015160036000848152602001908152602001600020600101601c6101000a81548163ffffffff021916908360030b63ffffffff1602179055505b60008160088151811015156127ad57fe5b9060200190602002015160030b1215801561280957508060088151811015156127d257fe5b9060200190602002015160030b6003600084815260200190815260200160002060020160009054906101000a900460030b60030b14155b1561285f5780600881518110151561281d57fe5b906020019060200201516003600084815260200190815260200160002060020160006101000a81548163ffffffff021916908360030b63ffffffff1602179055505b600081600981518110151561287057fe5b9060200190602002015160030b121580156128cc575080600981518110151561289557fe5b9060200190602002015160030b6003600084815260200190815260200160002060020160049054906101000a900460030b60030b14155b15612922578060098151811015156128e057fe5b906020019060200201516003600084815260200190815260200160002060020160046101000a81548163ffffffff021916908360030b63ffffffff1602179055505b600081600a81518110151561293357fe5b9060200190602002015160030b1215801561298f575080600a81518110151561295857fe5b9060200190602002015160030b6003600084815260200190815260200160002060020160089054906101000a900460030b60030b14155b156129e55780600a8151811015156129a357fe5b906020019060200201516003600084815260200190815260200160002060020160086101000a81548163ffffffff021916908360030b63ffffffff1602179055505b600081600b8151811015156129f657fe5b9060200190602002015160030b12158015612a52575080600b815181101515612a1b57fe5b9060200190602002015160030b60036000848152602001908152602001600020600201600c9054906101000a900460030b60030b14155b15612aa85780600b815181101515612a6657fe5b9060200190602002015160036000848152602001908152602001600020600201600c6101000a81548163ffffffff021916908360030b63ffffffff1602179055505b5050565b828054600181600116156101000203166002900490600052602060002090601f016020900481019282601f10612aed57805160ff1916838001178555612b1b565b82800160010185558215612b1b579182015b82811115612b1a578251825591602001919060010190612aff565b5b509050612b289190612bd8565b5090565b815481835581811511612b5357818360005260206000209182019101612b529190612bd8565b5b505050565b828054600181600116156101000203166002900490600052602060002090601f016020900481019282601f10612b9957805160ff1916838001178555612bc7565b82800160010185558215612bc7579182015b82811115612bc6578251825591602001919060010190612bab565b5b509050612bd49190612bd8565b5090565b612bfa91905b80821115612bf6576000816000905550600101612bde565b5090565b905600a165627a7a7230582030b522c31bea40ff3be772b27f0488be9f5ebb2c0d0c1b4de21ed7f85c15a3990029",
  "source": "pragma solidity ^0.4.18;\n\nimport 'zeppelin-solidity/contracts/ownership/NoOwner.sol';\nimport './Versioned.sol';\n\n/**\n * @title BuildingsData (WIP)\n * @notice This contract specifies how buildings are set up.\n * @dev You can add buildings and update them\n * @dev Issue: * https://github.com/e11-io/crypto-wars-solidity/issues/5\n */\ncontract BuildingsData is NoOwner, Versioned {\n\n  /**\n   * @dev event for adding building to contract logging\n   * @param id of the added building\n   * @param name the name of the building\n   */\n  event AddBuilding(uint id, string name);\n\n  /**\n   * event for updating a building logging\n   * @param id of the updated building\n   * @param name the name of the building\n   */\n  event UpdateBuilding(uint id, string name);\n\n  struct Building {\n    string name;\n    int32 health;\n    int32 defense;\n    int32 attack;\n    int32 goldCapacity;\n    int32 crystalCapacity;\n    int32 goldRate;\n    int32 crystalRate;\n    int32 price;\n    int32 resource;\n    int32 blocks;\n    int32 previousLevelId;\n    int32 typeId;\n  }\n\n  // Mapping of id -> building struct.\n  mapping (uint => Building) public buildings;\n\n  uint[] public buildingIds;\n\n  BuildingsData previousBuildingsData;\n\n  /*\n   * @notice Constructor: Instantiate Buildings Data contract.\n   * @dev Constructor function.\n   */\n  function BuildingsData() public {\n  }\n\n  /*\n   * @notice Makes the contract type verifiable.\n   * @dev Function to prove the contract is Buildings Data.\n   */\n  function isBuildingsData() external pure returns (bool) {\n    return true;\n  }\n\n  /*\n   * @notice Sets the contract's version and instantiates the previous version contract.\n   * @dev Function to set the contract version and instantiate the previous Buildings Data.\n   * @param _previousBuildingsData the address of previous Buildings Data contract. (address)\n   * @param _version the current contract version number. (uint)\n   */\n  function setBuildingsDataVersion(BuildingsData _previousBuildingsData, uint _version) external onlyOwner {\n    require(_previousBuildingsData.isBuildingsData());\n    require(_version > _previousBuildingsData.version());\n    previousBuildingsData = _previousBuildingsData;\n    setVersion(_version);\n  }\n\n  /*\n   * @notice Get the amount of existing buildings.\n   */\n  function getBuildingIdsLength() external view returns(uint) {\n    return buildingIds.length;\n  }\n\n  /*\n   * @notice Create new definition of a building\n   * @dev This method create a new Building definition that can be use on the game.\n   * @param id (uint)\n   * @param name (string)\n   * @stats array of stats for the new building: (int32[])\n   *      health (int)\n   *      defense (int)\n   *      attack (int)\n   *      goldCapacity (int)\n   *      crystalCapacity (int)\n   *      price (int)\n   *      resource (int)\n   *      blocks (int)\n   *      previousLevelId (int)\n   *      typeId (int)\n   */\n  function addBuilding(uint id,\n                       string name,\n                       int32[] stats) external onlyOwner {\n\n    require(keccak256(buildings[id].name) == keccak256(\"\"));\n    require(keccak256(name) != keccak256(\"\"));\n    require(stats[0] >= 0); //\"health\"\n    require(stats[1] >= 0); //\"defense\"\n    require(stats[2] >= 0); //\"attack\"\n    require(stats[3] >= 0); //\"goldCapacity\"\n    require(stats[4] >= 0); //\"crystalCapacity\"\n    require(stats[5] >= 0); //\"goldRate\"\n    require(stats[6] >= 0); //\"crystalRate\"\n    require(stats[7] >= 0); //\"price\"\n    require(stats[8] >= 0); //\"resource\"\n    require(stats[9] >= 0); //\"block\"\n    require(stats[10] >= 0); //\"previousLevelId\"\n    require(stats[11] >= 0); //\"typeId\"\n\n    buildings[id] = Building(name,\n                             stats[0],\n                             stats[1],\n                             stats[2],\n                             stats[3],\n                             stats[4],\n                             stats[5],\n                             stats[6],\n                             stats[7],\n                             stats[8],\n                             stats[9],\n                             stats[10],\n                             stats[11]);\n    buildingIds.push(id);\n    AddBuilding(id, name);\n  }\n\n  /*\n   * @title Update building\n   * @dev This method is used to update buildings name and stats\n   * @param id (uint)\n   * @stats array of stats for the new building: (int32[])\n   *      health (int)\n   *      defense (int)\n   *      attack (int)\n   *      goldCapacity (int)\n   *      crystalCapacity (int)\n   *      price (int)\n   *      resource (int)\n   *      blocks (int)\n   *      previousLevelId (int)\n   *      typeId (int)\n   */\n  function updateBuilding(uint id,\n                          string name,\n                          int32[] stats) external onlyOwner {\n    require(keccak256(buildings[id].name) != keccak256(\"\"));\n\n    updateBuildingBasicsA(id, name, stats);\n    updateBuildingBasicsB(id, stats);\n\n    UpdateBuilding(id, name);\n  }\n\n  /*\n   * @title Update Building Basics A\n   * @dev This method does part of the checks to update or not each stat.\n   * Its necessary to divide in two function because of the limited amout of storage\n   * variables solidity allows to use.\n   * @param id (uint)\n   * @stats array of stats for the new building: (int32[])\n   *      health (int)\n   *      defense (int)\n   *      attack (int)\n   *      goldCapacity (int)\n   *      crystalCapacity (int)\n   *      price (int)\n   *      resource (int)\n   *      blocks (int)\n   *      previousLevelId (int)\n   *      typeId (int)\n   */\n  function updateBuildingBasicsA(uint id, string name, int32[] stats) internal {\n      if (keccak256(name) != keccak256(\"\")) {\n        buildings[id].name = name;\n      }\n      if (stats[0] >= 0 && buildings[id].health != stats[0]) {\n        buildings[id].health = stats[0];\n      }\n      if (stats[1] >= 0 && buildings[id].defense != stats[1]) {\n        buildings[id].defense = stats[1];\n      }\n      if (stats[2] >= 0 && buildings[id].attack != stats[2]) {\n        buildings[id].attack = stats[2];\n      }\n      if (stats[3] >= 0 && buildings[id].goldCapacity != stats[3]) {\n        buildings[id].goldCapacity = stats[3];\n      }\n  }\n\n  /*\n   * @title Update Building Basics B\n   * @dev This method does part of the checks to update or not each stat.\n   * Its necessary to divide in two function because of the limited amout of storage\n   * variables solidity allows to use.\n   * @param id (uint)\n   * @stats array of stats for the new building: (int32[])\n   *      health (int)\n   *      defense (int)\n   *      attack (int)\n   *      goldCapacity (int)\n   *      crystalCapacity (int)\n   *      price (int)\n   *      resource (int)\n   *      blocks (int)\n   *      previousLevelId (int)\n   *      typeId (int)\n   */\n  function updateBuildingBasicsB(uint id, int32[] stats) internal {\n      if (stats[4] >= 0 && buildings[id].crystalCapacity != stats[4]) {\n        buildings[id].crystalCapacity = stats[4];\n      }\n      if (stats[5] >= 0 && buildings[id].goldRate != stats[5]) {\n        buildings[id].goldRate = stats[5];\n      }\n      if (stats[6] >= 0 && buildings[id].crystalRate != stats[6]) {\n        buildings[id].crystalRate = stats[6];\n      }\n      if (stats[7] >= 0 && buildings[id].price != stats[7]) {\n        buildings[id].price = stats[7];\n      }\n      if (stats[8] >= 0 && buildings[id].resource != stats[8]) {\n        buildings[id].resource = stats[8];\n      }\n      if (stats[9] >= 0 && buildings[id].blocks != stats[9]) {\n        buildings[id].blocks = stats[9];\n      }\n      if (stats[10] >= 0 && buildings[id].previousLevelId != stats[10]) {\n        buildings[id].previousLevelId = stats[10];\n      }\n      if (stats[11] >= 0 && buildings[id].typeId != stats[11]) {\n        buildings[id].typeId = stats[11];\n      }\n  }\n\n  /*\n   * @title Check Building Exist\n   * @dev Check if a building exists.\n   * @param _id The id of the building to check. (uint)\n   * @return A boolean that indicates if the building exists or not.\n   */\n  function checkBuildingExist(uint _id) external view returns (bool) {\n    require(keccak256(buildings[_id].name) != keccak256(\"\"));\n    return true;\n  }\n\n  /*\n   * @title Check Upgrade\n   * @dev Check if the id of the previous level is the correct.\n   * @param _id The id of the previous level building. (uint)\n   * @param _idOfUpgrade The id of the upgrade. (uint)\n   * @return A boolean that indicates if the ids match or not.\n   */\n  function checkUpgrade(uint _id, uint _idOfUpgrade) external view returns (bool) {\n    require(buildings[_idOfUpgrade].previousLevelId == int32(_id));\n\n    return true;\n  }\n\n  /*\n   * @title Get Building Data\n   * @dev Get the price, resource type and number of blocks a building takes to build.\n   * @param _id The id of the building. (uint)\n   * @return An three uints.\n   */\n  function getBuildingData(uint _id) external view returns (uint price,\n                                                            uint resource,\n                                                            uint blocks) {\n    require(keccak256(buildings[_id].name) != keccak256(\"\"));\n    return (\n      uint(buildings[_id].price),\n      uint(buildings[_id].resource),\n      uint(buildings[_id].blocks)\n    );\n  }\n\n  /*\n   * @title Get Gold And Crystal Rates\n   * @dev Get the amount of gold and crystal a building produce for block.\n   * @param _id The id of the building. (uint)\n   * @return An two uints.\n   */\n  function getGoldAndCrystalRates(uint _id) external view returns (uint goldRate,\n                                                                   uint crystalRate) {\n    require(keccak256(buildings[_id].name) != keccak256(\"\"));\n    return (uint(buildings[_id].goldRate), uint(buildings[_id].crystalRate));\n  }\n\n  /*\n   * @title Get Building Type Id\n   * @dev Get the type id of a building.\n   */\n  function getBuildingTypeId(uint _id) external view returns (uint) {\n    return uint(buildings[_id].typeId);\n  }\n\n  /*\n   * @title Get Gold and Crystal Capacity\n   * @dev Get the gold a crystal capacity of a building.\n   */\n  function getGoldAndCrystalCapacity(uint _id) external view returns (uint goldCapacity,\n                                                                      uint crystalCapacity) {\n    require(keccak256(buildings[_id].name) != keccak256(\"\"));\n    return (uint(buildings[_id].goldCapacity), uint(buildings[_id].crystalCapacity));\n  }\n\n}\n",
  "sourcePath": "/home/francisco/Truffle/crypto-wars-solidity/contracts/BuildingsData.sol",
  "compiler": {
    "name": "solc",
    "version": "0.4.19+commit.c4cbbb05.Emscripten.clang"
  },
  "schemaVersion": "2.0.0",
  "updatedAt": "2018-03-22T14:36:23.844Z"
}