{
  "contractName": "BuildingsQueue",
  "abi": [
    {
      "constant": false,
      "inputs": [
        {
          "name": "token",
          "type": "address"
        }
      ],
      "name": "reclaimToken",
      "outputs": [],
      "payable": false,
      "stateMutability": "nonpayable",
      "type": "function"
    },
    {
      "constant": false,
      "inputs": [
        {
          "name": "contractAddr",
          "type": "address"
        }
      ],
      "name": "reclaimContract",
      "outputs": [],
      "payable": false,
      "stateMutability": "nonpayable",
      "type": "function"
    },
    {
      "constant": false,
      "inputs": [
        {
          "name": "_version",
          "type": "uint256"
        }
      ],
      "name": "setVersion",
      "outputs": [],
      "payable": false,
      "stateMutability": "nonpayable",
      "type": "function"
    },
    {
      "constant": true,
      "inputs": [
        {
          "name": "",
          "type": "address"
        },
        {
          "name": "",
          "type": "uint256"
        }
      ],
      "name": "userBuildingsQueue",
      "outputs": [
        {
          "name": "id",
          "type": "uint32"
        },
        {
          "name": "index",
          "type": "uint32"
        },
        {
          "name": "startBlock",
          "type": "uint64"
        },
        {
          "name": "endBlock",
          "type": "uint64"
        }
      ],
      "payable": false,
      "stateMutability": "view",
      "type": "function"
    },
    {
      "constant": true,
      "inputs": [],
      "name": "version",
      "outputs": [
        {
          "name": "",
          "type": "uint256"
        }
      ],
      "payable": false,
      "stateMutability": "view",
      "type": "function"
    },
    {
      "constant": true,
      "inputs": [],
      "name": "owner",
      "outputs": [
        {
          "name": "",
          "type": "address"
        }
      ],
      "payable": false,
      "stateMutability": "view",
      "type": "function"
    },
    {
      "constant": false,
      "inputs": [],
      "name": "reclaimEther",
      "outputs": [],
      "payable": false,
      "stateMutability": "nonpayable",
      "type": "function"
    },
    {
      "constant": true,
      "inputs": [
        {
          "name": "",
          "type": "address"
        }
      ],
      "name": "migratedUsers",
      "outputs": [
        {
          "name": "",
          "type": "bool"
        }
      ],
      "payable": false,
      "stateMutability": "view",
      "type": "function"
    },
    {
      "constant": false,
      "inputs": [
        {
          "name": "from_",
          "type": "address"
        },
        {
          "name": "value_",
          "type": "uint256"
        },
        {
          "name": "data_",
          "type": "bytes"
        }
      ],
      "name": "tokenFallback",
      "outputs": [],
      "payable": false,
      "stateMutability": "nonpayable",
      "type": "function"
    },
    {
      "constant": false,
      "inputs": [
        {
          "name": "_newContract",
          "type": "address"
        }
      ],
      "name": "migrateUser",
      "outputs": [],
      "payable": false,
      "stateMutability": "nonpayable",
      "type": "function"
    },
    {
      "constant": false,
      "inputs": [
        {
          "name": "newOwner",
          "type": "address"
        }
      ],
      "name": "transferOwnership",
      "outputs": [],
      "payable": false,
      "stateMutability": "nonpayable",
      "type": "function"
    },
    {
      "inputs": [],
      "payable": false,
      "stateMutability": "nonpayable",
      "type": "constructor"
    },
    {
      "payable": false,
      "stateMutability": "nonpayable",
      "type": "fallback"
    },
    {
      "anonymous": false,
      "inputs": [
        {
          "indexed": false,
          "name": "_user",
          "type": "address"
        },
        {
          "indexed": false,
          "name": "_id",
          "type": "uint256"
        },
        {
          "indexed": false,
          "name": "_index",
          "type": "uint256"
        },
        {
          "indexed": false,
          "name": "_startBlock",
          "type": "uint256"
        },
        {
          "indexed": false,
          "name": "_endBlock",
          "type": "uint256"
        }
      ],
      "name": "AddNewBuildingToQueue",
      "type": "event"
    },
    {
      "anonymous": false,
      "inputs": [
        {
          "indexed": false,
          "name": "_user",
          "type": "address"
        },
        {
          "indexed": false,
          "name": "_ids",
          "type": "uint256[]"
        },
        {
          "indexed": false,
          "name": "_indexes",
          "type": "uint256[]"
        }
      ],
      "name": "UpdateQueue",
      "type": "event"
    },
    {
      "anonymous": false,
      "inputs": [
        {
          "indexed": false,
          "name": "_idOfUpgrade",
          "type": "uint256"
        },
        {
          "indexed": false,
          "name": "_index",
          "type": "uint256"
        },
        {
          "indexed": false,
          "name": "startBlock",
          "type": "uint256"
        },
        {
          "indexed": false,
          "name": "endBlock",
          "type": "uint256"
        }
      ],
      "name": "UpgradeBuilding",
      "type": "event"
    },
    {
      "anonymous": false,
      "inputs": [
        {
          "indexed": false,
          "name": "_user",
          "type": "address"
        },
        {
          "indexed": false,
          "name": "_id",
          "type": "uint256"
        },
        {
          "indexed": false,
          "name": "_index",
          "type": "uint256"
        }
      ],
      "name": "RemoveBuilding",
      "type": "event"
    },
    {
      "anonymous": false,
      "inputs": [
        {
          "indexed": true,
          "name": "user",
          "type": "address"
        },
        {
          "indexed": true,
          "name": "newContract",
          "type": "address"
        }
      ],
      "name": "UserMigrated",
      "type": "event"
    },
    {
      "anonymous": false,
      "inputs": [
        {
          "indexed": true,
          "name": "previousOwner",
          "type": "address"
        },
        {
          "indexed": true,
          "name": "newOwner",
          "type": "address"
        }
      ],
      "name": "OwnershipTransferred",
      "type": "event"
    },
    {
      "constant": true,
      "inputs": [],
      "name": "isBuildingsQueue",
      "outputs": [
        {
          "name": "",
          "type": "bool"
        }
      ],
      "payable": false,
      "stateMutability": "pure",
      "type": "function"
    },
    {
      "constant": false,
      "inputs": [
        {
          "name": "_previousBuildingsQueue",
          "type": "address"
        },
        {
          "name": "_version",
          "type": "uint256"
        }
      ],
      "name": "setBuildingsQueueVersion",
      "outputs": [],
      "payable": false,
      "stateMutability": "nonpayable",
      "type": "function"
    },
    {
      "constant": false,
      "inputs": [
        {
          "name": "_userBuildings",
          "type": "address"
        }
      ],
      "name": "setUserBuildings",
      "outputs": [],
      "payable": false,
      "stateMutability": "nonpayable",
      "type": "function"
    },
    {
      "constant": false,
      "inputs": [
        {
          "name": "_buildingsData",
          "type": "address"
        }
      ],
      "name": "setBuildingsData",
      "outputs": [],
      "payable": false,
      "stateMutability": "nonpayable",
      "type": "function"
    },
    {
      "constant": false,
      "inputs": [
        {
          "name": "_userResources",
          "type": "address"
        }
      ],
      "name": "setUserResources",
      "outputs": [],
      "payable": false,
      "stateMutability": "nonpayable",
      "type": "function"
    },
    {
      "constant": false,
      "inputs": [
        {
          "name": "_assetsRequirements",
          "type": "address"
        }
      ],
      "name": "setAssetsRequirements",
      "outputs": [],
      "payable": false,
      "stateMutability": "nonpayable",
      "type": "function"
    },
    {
      "constant": false,
      "inputs": [
        {
          "name": "_id",
          "type": "uint256"
        }
      ],
      "name": "addNewBuildingToQueue",
      "outputs": [],
      "payable": false,
      "stateMutability": "nonpayable",
      "type": "function"
    },
    {
      "constant": false,
      "inputs": [
        {
          "name": "_user",
          "type": "address"
        }
      ],
      "name": "updateQueue",
      "outputs": [],
      "payable": false,
      "stateMutability": "nonpayable",
      "type": "function"
    },
    {
      "constant": false,
      "inputs": [
        {
          "name": "_id",
          "type": "uint256"
        },
        {
          "name": "_idOfUpgrade",
          "type": "uint256"
        },
        {
          "name": "_index",
          "type": "uint256"
        }
      ],
      "name": "upgradeBuilding",
      "outputs": [],
      "payable": false,
      "stateMutability": "nonpayable",
      "type": "function"
    },
    {
      "constant": true,
      "inputs": [
        {
          "name": "_user",
          "type": "address"
        },
        {
          "name": "_id",
          "type": "uint256"
        },
        {
          "name": "_index",
          "type": "uint256"
        }
      ],
      "name": "findBuildingInQueue",
      "outputs": [
        {
          "name": "exists",
          "type": "bool"
        },
        {
          "name": "indexInQueue",
          "type": "uint256"
        }
      ],
      "payable": false,
      "stateMutability": "view",
      "type": "function"
    },
    {
      "constant": true,
      "inputs": [
        {
          "name": "_user",
          "type": "address"
        }
      ],
      "name": "getLastUserBuilding",
      "outputs": [
        {
          "name": "id",
          "type": "uint256"
        },
        {
          "name": "startBlock",
          "type": "uint256"
        },
        {
          "name": "endBlock",
          "type": "uint256"
        }
      ],
      "payable": false,
      "stateMutability": "view",
      "type": "function"
    },
    {
      "constant": true,
      "inputs": [
        {
          "name": "_user",
          "type": "address"
        }
      ],
      "name": "getBuildingsInQueue",
      "outputs": [
        {
          "name": "",
          "type": "uint256[]"
        }
      ],
      "payable": false,
      "stateMutability": "view",
      "type": "function"
    },
    {
      "constant": true,
      "inputs": [
        {
          "name": "_user",
          "type": "address"
        }
      ],
      "name": "getBuildings",
      "outputs": [
        {
          "name": "",
          "type": "uint256[]"
        },
        {
          "name": "",
          "type": "uint256[]"
        },
        {
          "name": "",
          "type": "uint256[]"
        },
        {
          "name": "",
          "type": "uint256[]"
        }
      ],
      "payable": false,
      "stateMutability": "view",
      "type": "function"
    },
    {
      "constant": true,
      "inputs": [
        {
          "name": "_user",
          "type": "address"
        },
        {
          "name": "_indexInQueue",
          "type": "uint256"
        }
      ],
      "name": "getBuildingIdAndEndBlock",
      "outputs": [
        {
          "name": "id",
          "type": "uint256"
        },
        {
          "name": "endBlock",
          "type": "uint256"
        }
      ],
      "payable": false,
      "stateMutability": "view",
      "type": "function"
    },
    {
      "constant": true,
      "inputs": [
        {
          "name": "_user",
          "type": "address"
        },
        {
          "name": "_indexInQueue",
          "type": "uint256"
        }
      ],
      "name": "getBuildingIndex",
      "outputs": [
        {
          "name": "id",
          "type": "uint256"
        },
        {
          "name": "index",
          "type": "uint256"
        }
      ],
      "payable": false,
      "stateMutability": "view",
      "type": "function"
    },
    {
      "constant": true,
      "inputs": [
        {
          "name": "_user",
          "type": "address"
        }
      ],
      "name": "getUserQueueResources",
      "outputs": [
        {
          "name": "queueGold",
          "type": "uint256"
        },
        {
          "name": "queueCrystal",
          "type": "uint256"
        }
      ],
      "payable": false,
      "stateMutability": "view",
      "type": "function"
    },
    {
      "constant": true,
      "inputs": [
        {
          "name": "_user",
          "type": "address"
        }
      ],
      "name": "getBuildingsQueueLength",
      "outputs": [
        {
          "name": "length",
          "type": "uint256"
        }
      ],
      "payable": false,
      "stateMutability": "view",
      "type": "function"
    },
    {
      "constant": false,
      "inputs": [
        {
          "name": "_id",
          "type": "uint256"
        },
        {
          "name": "_index",
          "type": "uint256"
        }
      ],
      "name": "cancelBuilding",
      "outputs": [],
      "payable": false,
      "stateMutability": "nonpayable",
      "type": "function"
    },
    {
      "constant": true,
      "inputs": [
        {
          "name": "_user",
          "type": "address"
        }
      ],
      "name": "getUserResourcesCapacity",
      "outputs": [
        {
          "name": "totalGoldCapacity",
          "type": "uint256"
        },
        {
          "name": "totalCrystalCapacity",
          "type": "uint256"
        }
      ],
      "payable": false,
      "stateMutability": "view",
      "type": "function"
    }
  ],
  "bytecode": "0x606060405234156200001057600080fd5b336000806101000a81548173ffffffffffffffffffffffffffffffffffffffff021916908373ffffffffffffffffffffffffffffffffffffffff1602179055506000341415156200006057600080fd5b615b5e80620000706000396000f300606060405260043610610180576000357c0100000000000000000000000000000000000000000000000000000000900463ffffffff16806311c68f1e1461018d57806317ffc3201461021b57806324357211146102545780632a7304101461028d5780632aed7f3f146103f35780633f12cad01461042c578063408def1e1461048757806347ac6136146104aa57806354fd4d5014610555578063689926771461057e57806379eac4cc146105e85780637c29763f1461062a5780637fb92b87146106565780638da5cb5b1461068f57806396dc25b9146106e45780639f727c271461071d578063bbe768a414610732578063bfb4bbae14610783578063bfe97e72146107b0578063c0ee0b8a1461080d578063c3251e5514610863578063c5fbe6ce1461089c578063cc6ebc8b146108f9578063d5b999fd1461092e578063dd6c7e3114610967578063e1247d0c146109a0578063eb80520d146109c3578063ec87155d14610a17578063f2fde38b14610a6b578063f47579a714610aa4575b341561018b57600080fd5b005b341561019857600080fd5b6101c4600480803573ffffffffffffffffffffffffffffffffffffffff16906020019091905050610af1565b6040518080602001828103825283818151815260200191508051906020019060200280838360005b838110156102075780820151818401526020810190506101ec565b505050509050019250505060405180910390f35b341561022657600080fd5b610252600480803573ffffffffffffffffffffffffffffffffffffffff16906020019091905050610c58565b005b341561025f57600080fd5b61028b600480803573ffffffffffffffffffffffffffffffffffffffff16906020019091905050610dc5565b005b341561029857600080fd5b6102c4600480803573ffffffffffffffffffffffffffffffffffffffff16906020019091905050610ef6565b6040518080602001806020018060200180602001858103855289818151815260200191508051906020019060200280838360005b838110156103135780820151818401526020810190506102f8565b50505050905001858103845288818151815260200191508051906020019060200280838360005b8381101561035557808201518184015260208101905061033a565b50505050905001858103835287818151815260200191508051906020019060200280838360005b8381101561039757808201518184015260208101905061037c565b50505050905001858103825286818151815260200191508051906020019060200280838360005b838110156103d95780820151818401526020810190506103be565b505050509050019850505050505050505060405180910390f35b34156103fe57600080fd5b61042a600480803573ffffffffffffffffffffffffffffffffffffffff169060200190919050506112b5565b005b341561043757600080fd5b610463600480803573ffffffffffffffffffffffffffffffffffffffff169060200190919050506113e8565b60405180848152602001838152602001828152602001935050505060405180910390f35b341561049257600080fd5b6104a86004808035906020019091905050611591565b005b34156104b557600080fd5b6104ea600480803573ffffffffffffffffffffffffffffffffffffffff169060200190919080359060200190919050506115f6565b604051808563ffffffff1663ffffffff1681526020018463ffffffff1663ffffffff1681526020018367ffffffffffffffff1667ffffffffffffffff1681526020018267ffffffffffffffff1667ffffffffffffffff16815260200194505050505060405180910390f35b341561056057600080fd5b610568611687565b6040518082815260200191505060405180910390f35b341561058957600080fd5b6105c7600480803573ffffffffffffffffffffffffffffffffffffffff1690602001909190803590602001909190803590602001909190505061168d565b60405180831515151581526020018281526020019250505060405180910390f35b34156105f357600080fd5b610628600480803573ffffffffffffffffffffffffffffffffffffffff16906020019091908035906020019091905050611800565b005b341561063557600080fd5b61065460048080359060200190919080359060200190919050506119cf565b005b341561066157600080fd5b61068d600480803573ffffffffffffffffffffffffffffffffffffffff16906020019091905050611d99565b005b341561069a57600080fd5b6106a2611eca565b604051808273ffffffffffffffffffffffffffffffffffffffff1673ffffffffffffffffffffffffffffffffffffffff16815260200191505060405180910390f35b34156106ef57600080fd5b61071b600480803573ffffffffffffffffffffffffffffffffffffffff16906020019091905050611eef565b005b341561072857600080fd5b610730612020565b005b341561073d57600080fd5b610769600480803573ffffffffffffffffffffffffffffffffffffffff169060200190919050506120f2565b604051808215151515815260200191505060405180910390f35b341561078e57600080fd5b610796612112565b604051808215151515815260200191505060405180910390f35b34156107bb57600080fd5b6107f0600480803573ffffffffffffffffffffffffffffffffffffffff1690602001909190803590602001909190505061211b565b604051808381526020018281526020019250505060405180910390f35b341561081857600080fd5b610861600480803573ffffffffffffffffffffffffffffffffffffffff16906020019091908035906020019091908035906020019082018035906020019190919290505061229d565b005b341561086e57600080fd5b61089a600480803573ffffffffffffffffffffffffffffffffffffffff169060200190919050506122a2565b005b34156108a757600080fd5b6108dc600480803573ffffffffffffffffffffffffffffffffffffffff169060200190919080359060200190919050506128df565b604051808381526020018281526020019250505060405180910390f35b341561090457600080fd5b61092c6004808035906020019091908035906020019091908035906020019091905050612a2d565b005b341561093957600080fd5b610965600480803573ffffffffffffffffffffffffffffffffffffffff169060200190919050506131bb565b005b341561097257600080fd5b61099e600480803573ffffffffffffffffffffffffffffffffffffffff169060200190919050506132ec565b005b34156109ab57600080fd5b6109c16004808035906020019091905050613497565b005b34156109ce57600080fd5b6109fa600480803573ffffffffffffffffffffffffffffffffffffffff16906020019091905050613c15565b604051808381526020018281526020019250505060405180910390f35b3415610a2257600080fd5b610a4e600480803573ffffffffffffffffffffffffffffffffffffffff1690602001909190505061407d565b604051808381526020018281526020019250505060405180910390f35b3415610a7657600080fd5b610aa2600480803573ffffffffffffffffffffffffffffffffffffffff169060200190919050506144e6565b005b3415610aaf57600080fd5b610adb600480803573ffffffffffffffffffffffffffffffffffffffff1690602001909190505061463b565b6040518082815260200191505060405180910390f35b610af9615a43565b6000610b03615a43565b60008073ffffffffffffffffffffffffffffffffffffffff168573ffffffffffffffffffffffffffffffffffffffff1614151515610b4057600080fd5b600860008673ffffffffffffffffffffffffffffffffffffffff1673ffffffffffffffffffffffffffffffffffffffff16815260200190815260200160002080549050925082604051805910610b935750595b90808252806020026020018201604052509150600090505b82811015610c4d57600860008673ffffffffffffffffffffffffffffffffffffffff1673ffffffffffffffffffffffffffffffffffffffff16815260200190815260200160002081815481101515610bff57fe5b906000526020600020900160000160009054906101000a900463ffffffff1663ffffffff168282815181101515610c3257fe5b90602001906020020181815250508080600101915050610bab565b819350505050919050565b60008060009054906101000a900473ffffffffffffffffffffffffffffffffffffffff1673ffffffffffffffffffffffffffffffffffffffff163373ffffffffffffffffffffffffffffffffffffffff16141515610cb557600080fd5b8173ffffffffffffffffffffffffffffffffffffffff166370a08231306000604051602001526040518263ffffffff167c0100000000000000000000000000000000000000000000000000000000028152600401808273ffffffffffffffffffffffffffffffffffffffff1673ffffffffffffffffffffffffffffffffffffffff168152602001915050602060405180830381600087803b1515610d5857600080fd5b6102c65a03f11515610d6957600080fd5b505050604051805190509050610dc16000809054906101000a900473ffffffffffffffffffffffffffffffffffffffff16828473ffffffffffffffffffffffffffffffffffffffff166146879092919063ffffffff16565b5050565b6000809054906101000a900473ffffffffffffffffffffffffffffffffffffffff1673ffffffffffffffffffffffffffffffffffffffff163373ffffffffffffffffffffffffffffffffffffffff16141515610e2057600080fd5b8073ffffffffffffffffffffffffffffffffffffffff166319d6dfae6000604051602001526040518163ffffffff167c0100000000000000000000000000000000000000000000000000000000028152600401602060405180830381600087803b1515610e8c57600080fd5b6102c65a03f11515610e9d57600080fd5b505050604051805190501515610eb257600080fd5b80600660006101000a81548173ffffffffffffffffffffffffffffffffffffffff021916908373ffffffffffffffffffffffffffffffffffffffff16021790555050565b610efe615a43565b610f06615a43565b610f0e615a43565b610f16615a43565b6000610f20615a43565b610f28615a43565b610f30615a43565b610f38615a43565b60008073ffffffffffffffffffffffffffffffffffffffff168b73ffffffffffffffffffffffffffffffffffffffff1614151515610f7557600080fd5b600860008c73ffffffffffffffffffffffffffffffffffffffff1673ffffffffffffffffffffffffffffffffffffffff16815260200190815260200160002080549050955085604051805910610fc85750595b9080825280602002602001820160405250945085604051805910610fe95750595b908082528060200260200182016040525093508560405180591061100a5750595b908082528060200260200182016040525092508560405180591061102b5750595b90808252806020026020018201604052509150600090505b8581101561129c57600860008c73ffffffffffffffffffffffffffffffffffffffff1673ffffffffffffffffffffffffffffffffffffffff1681526020019081526020016000208181548110151561109757fe5b906000526020600020900160000160009054906101000a900463ffffffff1663ffffffff1685828151811015156110ca57fe5b9060200190602002018181525050600860008c73ffffffffffffffffffffffffffffffffffffffff1673ffffffffffffffffffffffffffffffffffffffff1681526020019081526020016000208181548110151561112457fe5b906000526020600020900160000160089054906101000a900467ffffffffffffffff1667ffffffffffffffff16848281518110151561115f57fe5b9060200190602002018181525050600860008c73ffffffffffffffffffffffffffffffffffffffff1673ffffffffffffffffffffffffffffffffffffffff168152602001908152602001600020818154811015156111b957fe5b906000526020600020900160000160109054906101000a900467ffffffffffffffff1667ffffffffffffffff1683828151811015156111f457fe5b9060200190602002018181525050600860008c73ffffffffffffffffffffffffffffffffffffffff1673ffffffffffffffffffffffffffffffffffffffff1681526020019081526020016000208181548110151561124e57fe5b906000526020600020900160000160049054906101000a900463ffffffff1663ffffffff16828281518110151561128157fe5b90602001906020020181815250508080600101915050611043565b8484848499509950995099505050505050509193509193565b60008060009054906101000a900473ffffffffffffffffffffffffffffffffffffffff1673ffffffffffffffffffffffffffffffffffffffff163373ffffffffffffffffffffffffffffffffffffffff1614151561131257600080fd5b8190508073ffffffffffffffffffffffffffffffffffffffff1663f2fde38b6000809054906101000a900473ffffffffffffffffffffffffffffffffffffffff166040518263ffffffff167c0100000000000000000000000000000000000000000000000000000000028152600401808273ffffffffffffffffffffffffffffffffffffffff1673ffffffffffffffffffffffffffffffffffffffff168152602001915050600060405180830381600087803b15156113d057600080fd5b6102c65a03f115156113e157600080fd5b5050505050565b600080600080600073ffffffffffffffffffffffffffffffffffffffff168573ffffffffffffffffffffffffffffffffffffffff161415151561142a57600080fd5b6000600860008773ffffffffffffffffffffffffffffffffffffffff1673ffffffffffffffffffffffffffffffffffffffff1681526020019081526020016000208054905011151561147b57600080fd5b600860008673ffffffffffffffffffffffffffffffffffffffff1673ffffffffffffffffffffffffffffffffffffffff1681526020019081526020016000206001600860008873ffffffffffffffffffffffffffffffffffffffff1673ffffffffffffffffffffffffffffffffffffffff168152602001908152602001600020805490500381548110151561150c57fe5b906000526020600020900190508060000160009054906101000a900463ffffffff168160000160089054906101000a900467ffffffffffffffff168260000160109054906101000a900467ffffffffffffffff168263ffffffff1692508167ffffffffffffffff1691508067ffffffffffffffff169050935093509350509193909250565b6000809054906101000a900473ffffffffffffffffffffffffffffffffffffffff1673ffffffffffffffffffffffffffffffffffffffff163373ffffffffffffffffffffffffffffffffffffffff161415156115ec57600080fd5b8060018190555050565b60086020528160005260406000208181548110151561161157fe5b9060005260206000209001600091509150508060000160009054906101000a900463ffffffff16908060000160049054906101000a900463ffffffff16908060000160089054906101000a900467ffffffffffffffff16908060000160109054906101000a900467ffffffffffffffff16905084565b60015481565b60008060008090505b600860008773ffffffffffffffffffffffffffffffffffffffff1673ffffffffffffffffffffffffffffffffffffffff168152602001908152602001600020805490508110156117ec57600860008773ffffffffffffffffffffffffffffffffffffffff1673ffffffffffffffffffffffffffffffffffffffff1681526020019081526020016000208181548110151561172c57fe5b906000526020600020900160000160049054906101000a900463ffffffff1663ffffffff16841480156117ce5750600860008773ffffffffffffffffffffffffffffffffffffffff1673ffffffffffffffffffffffffffffffffffffffff168152602001908152602001600020818154811015156117a657fe5b906000526020600020900160000160009054906101000a900463ffffffff1663ffffffff1685145b156117df57600181925092506117f7565b8080600101915050611696565b600080809050925092505b50935093915050565b6000809054906101000a900473ffffffffffffffffffffffffffffffffffffffff1673ffffffffffffffffffffffffffffffffffffffff163373ffffffffffffffffffffffffffffffffffffffff1614151561185b57600080fd5b8173ffffffffffffffffffffffffffffffffffffffff1663bfb4bbae6000604051602001526040518163ffffffff167c0100000000000000000000000000000000000000000000000000000000028152600401602060405180830381600087803b15156118c757600080fd5b6102c65a03f115156118d857600080fd5b5050506040518051905015156118ed57600080fd5b8173ffffffffffffffffffffffffffffffffffffffff166354fd4d506000604051602001526040518163ffffffff167c0100000000000000000000000000000000000000000000000000000000028152600401602060405180830381600087803b151561195957600080fd5b6102c65a03f1151561196a57600080fd5b505050604051805190508111151561198157600080fd5b81600560006101000a81548173ffffffffffffffffffffffffffffffffffffffff021916908373ffffffffffffffffffffffffffffffffffffffff1602179055506119cb81611591565b5050565b600080600460009054906101000a900473ffffffffffffffffffffffffffffffffffffffff1673ffffffffffffffffffffffffffffffffffffffff16636facbe2b856000604051602001526040518263ffffffff167c010000000000000000000000000000000000000000000000000000000002815260040180828152602001915050602060405180830381600087803b1515611a6b57600080fd5b6102c65a03f11515611a7c57600080fd5b505050604051805190501515611a9157600080fd5b611a9c33858561168d565b8092508193505050811515611ab057600080fd5b43600860003373ffffffffffffffffffffffffffffffffffffffff1673ffffffffffffffffffffffffffffffffffffffff16815260200190815260200160002082815481101515611afd57fe5b906000526020600020900160000160109054906101000a900467ffffffffffffffff1667ffffffffffffffff16111515611b3657600080fd5b600760009054906101000a900473ffffffffffffffffffffffffffffffffffffffff1673ffffffffffffffffffffffffffffffffffffffff16638e69ce58336040518263ffffffff167c0100000000000000000000000000000000000000000000000000000000028152600401808273ffffffffffffffffffffffffffffffffffffffff1673ffffffffffffffffffffffffffffffffffffffff168152602001915050600060405180830381600087803b1515611bf257600080fd5b6102c65a03f11515611c0357600080fd5b505050611c10338261475a565b611c1a3382614dfd565b1515611c2557600080fd5b600660009054906101000a900473ffffffffffffffffffffffffffffffffffffffff1673ffffffffffffffffffffffffffffffffffffffff1663d9fccbc23386866000604051602001526040518463ffffffff167c0100000000000000000000000000000000000000000000000000000000028152600401808473ffffffffffffffffffffffffffffffffffffffff1673ffffffffffffffffffffffffffffffffffffffff1681526020018381526020018281526020019350505050602060405180830381600087803b1515611cfa57600080fd5b6102c65a03f11515611d0b57600080fd5b505050604051805190501515611d2057600080fd5b7fd0f42a57d1892362ab6ed3c1942d02d00c5072d3b35757c8de7de996b96f3e7c338585604051808473ffffffffffffffffffffffffffffffffffffffff1673ffffffffffffffffffffffffffffffffffffffff168152602001838152602001828152602001935050505060405180910390a150505050565b6000809054906101000a900473ffffffffffffffffffffffffffffffffffffffff1673ffffffffffffffffffffffffffffffffffffffff163373ffffffffffffffffffffffffffffffffffffffff16141515611df457600080fd5b8073ffffffffffffffffffffffffffffffffffffffff16633882c76d6000604051602001526040518163ffffffff167c0100000000000000000000000000000000000000000000000000000000028152600401602060405180830381600087803b1515611e6057600080fd5b6102c65a03f11515611e7157600080fd5b505050604051805190501515611e8657600080fd5b80600360006101000a81548173ffffffffffffffffffffffffffffffffffffffff021916908373ffffffffffffffffffffffffffffffffffffffff16021790555050565b6000809054906101000a900473ffffffffffffffffffffffffffffffffffffffff1681565b6000809054906101000a900473ffffffffffffffffffffffffffffffffffffffff1673ffffffffffffffffffffffffffffffffffffffff163373ffffffffffffffffffffffffffffffffffffffff16141515611f4a57600080fd5b8073ffffffffffffffffffffffffffffffffffffffff16633769feef6000604051602001526040518163ffffffff167c0100000000000000000000000000000000000000000000000000000000028152600401602060405180830381600087803b1515611fb657600080fd5b6102c65a03f11515611fc757600080fd5b505050604051805190501515611fdc57600080fd5b80600460006101000a81548173ffffffffffffffffffffffffffffffffffffffff021916908373ffffffffffffffffffffffffffffffffffffffff16021790555050565b6000809054906101000a900473ffffffffffffffffffffffffffffffffffffffff1673ffffffffffffffffffffffffffffffffffffffff163373ffffffffffffffffffffffffffffffffffffffff1614151561207b57600080fd5b6000809054906101000a900473ffffffffffffffffffffffffffffffffffffffff1673ffffffffffffffffffffffffffffffffffffffff166108fc3073ffffffffffffffffffffffffffffffffffffffff16319081150290604051600060405180830381858888f1935050505015156120f057fe5b565b60026020528060005260406000206000915054906101000a900460ff1681565b60006001905090565b600080600073ffffffffffffffffffffffffffffffffffffffff168473ffffffffffffffffffffffffffffffffffffffff161415151561215a57600080fd5b600860008573ffffffffffffffffffffffffffffffffffffffff1673ffffffffffffffffffffffffffffffffffffffff16815260200190815260200160002080549050831015156121aa57600080fd5b600860008573ffffffffffffffffffffffffffffffffffffffff1673ffffffffffffffffffffffffffffffffffffffff168152602001908152602001600020838154811015156121f657fe5b906000526020600020900160000160009054906101000a900463ffffffff16600860008673ffffffffffffffffffffffffffffffffffffffff1673ffffffffffffffffffffffffffffffffffffffff1681526020019081526020016000208481548110151561226157fe5b906000526020600020900160000160049054906101000a900463ffffffff168163ffffffff1691508063ffffffff169050915091509250929050565b600080fd5b6000806122ad615a43565b6122b5615a43565b600080600073ffffffffffffffffffffffffffffffffffffffff168773ffffffffffffffffffffffffffffffffffffffff16141515156122f457600080fd5b6000600860008973ffffffffffffffffffffffffffffffffffffffff1673ffffffffffffffffffffffffffffffffffffffff1681526020019081526020016000208054905011151561234557600080fd5b600860008873ffffffffffffffffffffffffffffffffffffffff1673ffffffffffffffffffffffffffffffffffffffff168152602001908152602001600020805490509550600094505b8585108015612416575043600860008973ffffffffffffffffffffffffffffffffffffffff1673ffffffffffffffffffffffffffffffffffffffff168152602001908152602001600020868154811015156123e657fe5b906000526020600020900160000160109054906101000a900467ffffffffffffffff1667ffffffffffffffff1611155b1561242857848060010195505061238f565b846040518059106124365750595b90808252806020026020018201604052509350846040518059106124575750595b90808252806020026020018201604052509250600085141561256d577fa8d1d3f2b178b60b09b86441670271d29f9f325b7904757bff329687232b21e8878585604051808473ffffffffffffffffffffffffffffffffffffffff1673ffffffffffffffffffffffffffffffffffffffff1681526020018060200180602001838103835285818151815260200191508051906020019060200280838360005b838110156125105780820151818401526020810190506124f5565b50505050905001838103825284818151815260200191508051906020019060200280838360005b83811015612552578082015181840152602081019050612537565b505050509050019550505050505060405180910390a16128d6565b600091505b8482101561264e57600860008873ffffffffffffffffffffffffffffffffffffffff1673ffffffffffffffffffffffffffffffffffffffff168152602001908152602001600020828154811015156125c657fe5b906000526020600020900190508060000160009054906101000a900463ffffffff1663ffffffff1684838151811015156125fc57fe5b90602001906020020181815250508060000160049054906101000a900463ffffffff1663ffffffff16838381518110151561263357fe5b90602001906020020181815250508180600101925050612572565b600660009054906101000a900473ffffffffffffffffffffffffffffffffffffffff1673ffffffffffffffffffffffffffffffffffffffff166376e52e188886866000604051602001526040518463ffffffff167c0100000000000000000000000000000000000000000000000000000000028152600401808473ffffffffffffffffffffffffffffffffffffffff1673ffffffffffffffffffffffffffffffffffffffff1681526020018060200180602001838103835285818151815260200191508051906020019060200280838360005b8381101561273c578082015181840152602081019050612721565b50505050905001838103825284818151815260200191508051906020019060200280838360005b8381101561277e578082015181840152602081019050612763565b5050505090500195505050505050602060405180830381600087803b15156127a557600080fd5b6102c65a03f115156127b657600080fd5b5050506040518051905015156127cb57600080fd5b6127d587866151ba565b15156127e057600080fd5b7fa8d1d3f2b178b60b09b86441670271d29f9f325b7904757bff329687232b21e8878585604051808473ffffffffffffffffffffffffffffffffffffffff1673ffffffffffffffffffffffffffffffffffffffff1681526020018060200180602001838103835285818151815260200191508051906020019060200280838360005b8381101561287d578082015181840152602081019050612862565b50505050905001838103825284818151815260200191508051906020019060200280838360005b838110156128bf5780820151818401526020810190506128a4565b505050509050019550505050505060405180910390a15b50505050505050565b60008082600860008673ffffffffffffffffffffffffffffffffffffffff1673ffffffffffffffffffffffffffffffffffffffff1681526020019081526020016000208054905011151561293257600080fd5b600860008573ffffffffffffffffffffffffffffffffffffffff1673ffffffffffffffffffffffffffffffffffffffff1681526020019081526020016000208381548110151561297e57fe5b906000526020600020900160000160009054906101000a900463ffffffff16600860008673ffffffffffffffffffffffffffffffffffffffff1673ffffffffffffffffffffffffffffffffffffffff168152602001908152602001600020848154811015156129e957fe5b906000526020600020900160000160109054906101000a900467ffffffffffffffff168163ffffffff1691508067ffffffffffffffff169050915091509250929050565b6000806000806000806000600460009054906101000a900473ffffffffffffffffffffffffffffffffffffffff1673ffffffffffffffffffffffffffffffffffffffff16636facbe2b8b6000604051602001526040518263ffffffff167c010000000000000000000000000000000000000000000000000000000002815260040180828152602001915050602060405180830381600087803b1515612ad157600080fd5b6102c65a03f11515612ae257600080fd5b505050604051805190501515612af757600080fd5b600460009054906101000a900473ffffffffffffffffffffffffffffffffffffffff1673ffffffffffffffffffffffffffffffffffffffff16636facbe2b8a6000604051602001526040518263ffffffff167c010000000000000000000000000000000000000000000000000000000002815260040180828152602001915050602060405180830381600087803b1515612b9057600080fd5b6102c65a03f11515612ba157600080fd5b505050604051805190501515612bb657600080fd5b600460009054906101000a900473ffffffffffffffffffffffffffffffffffffffff1673ffffffffffffffffffffffffffffffffffffffff1663059b3e2e8b8b6000604051602001526040518363ffffffff167c01000000000000000000000000000000000000000000000000000000000281526004018083815260200182815260200192505050602060405180830381600087803b1515612c5757600080fd5b6102c65a03f11515612c6857600080fd5b505050604051805190501515612c7d57600080fd5b600360009054906101000a900473ffffffffffffffffffffffffffffffffffffffff1673ffffffffffffffffffffffffffffffffffffffff1663540494a1338b6000604051602001526040518363ffffffff167c0100000000000000000000000000000000000000000000000000000000028152600401808373ffffffffffffffffffffffffffffffffffffffff1673ffffffffffffffffffffffffffffffffffffffff16815260200182815260200192505050602060405180830381600087803b1515612d4a57600080fd5b6102c65a03f11515612d5b57600080fd5b505050604051805190501515612d7057600080fd5b612d7b338b8a61168d565b8097508198505050600460009054906101000a900473ffffffffffffffffffffffffffffffffffffffff1673ffffffffffffffffffffffffffffffffffffffff16638709e9da8a6000604051606001526040518263ffffffff167c010000000000000000000000000000000000000000000000000000000002815260040180828152602001915050606060405180830381600087803b1515612e1c57600080fd5b6102c65a03f11515612e2d57600080fd5b50505060405180519060200180519060200180519050809550819650829750505050612e5a338686615590565b8615612ef15743600860003373ffffffffffffffffffffffffffffffffffffffff1673ffffffffffffffffffffffffffffffffffffffff16815260200190815260200160002087815481101515612ead57fe5b906000526020600020900160000160109054906101000a900467ffffffffffffffff1667ffffffffffffffff1611151515612ee757600080fd5b612ef0336122a2565b5b600660009054906101000a900473ffffffffffffffffffffffffffffffffffffffff1673ffffffffffffffffffffffffffffffffffffffff166359da69a7338c8b6000604051602001526040518463ffffffff167c0100000000000000000000000000000000000000000000000000000000028152600401808473ffffffffffffffffffffffffffffffffffffffff1673ffffffffffffffffffffffffffffffffffffffff1681526020018381526020018281526020019350505050602060405180830381600087803b1515612fc657600080fd5b6102c65a03f11515612fd757600080fd5b505050604051805190501515612fec57600080fd5b612ff5336158bb565b915061300a83836159d190919063ffffffff16565b9050600860003373ffffffffffffffffffffffffffffffffffffffff1673ffffffffffffffffffffffffffffffffffffffff168152602001908152602001600020805480600101828161305d9190615a57565b916000526020600020900160006080604051908101604052808d63ffffffff1681526020018c63ffffffff1681526020018667ffffffffffffffff1681526020018567ffffffffffffffff16815250909190915060008201518160000160006101000a81548163ffffffff021916908363ffffffff16021790555060208201518160000160046101000a81548163ffffffff021916908363ffffffff16021790555060408201518160000160086101000a81548167ffffffffffffffff021916908367ffffffffffffffff16021790555060608201518160000160106101000a81548167ffffffffffffffff021916908367ffffffffffffffff1602179055505050507f1f9e9a415463c9bb0c6baa9a1c8aa8173189e0517b4b77163ad0cdbe89070ea5898984846040518085815260200184815260200183815260200182815260200194505050505060405180910390a150505050505050505050565b6000809054906101000a900473ffffffffffffffffffffffffffffffffffffffff1673ffffffffffffffffffffffffffffffffffffffff163373ffffffffffffffffffffffffffffffffffffffff1614151561321657600080fd5b8073ffffffffffffffffffffffffffffffffffffffff1663f229a4156000604051602001526040518163ffffffff167c0100000000000000000000000000000000000000000000000000000000028152600401602060405180830381600087803b151561328257600080fd5b6102c65a03f1151561329357600080fd5b5050506040518051905015156132a857600080fd5b80600760006101000a81548173ffffffffffffffffffffffffffffffffffffffff021916908373ffffffffffffffffffffffffffffffffffffffff16021790555050565b60011515600260003373ffffffffffffffffffffffffffffffffffffffff1673ffffffffffffffffffffffffffffffffffffffff16815260200190815260200160002060009054906101000a900460ff1615151415151561334c57600080fd5b6001548173ffffffffffffffffffffffffffffffffffffffff166354fd4d506000604051602001526040518163ffffffff167c0100000000000000000000000000000000000000000000000000000000028152600401602060405180830381600087803b15156133bb57600080fd5b6102c65a03f115156133cc57600080fd5b505050604051805190501115156133e257600080fd5b6001600260003373ffffffffffffffffffffffffffffffffffffffff1673ffffffffffffffffffffffffffffffffffffffff16815260200190815260200160002060006101000a81548160ff0219169083151502179055508073ffffffffffffffffffffffffffffffffffffffff163373ffffffffffffffffffffffffffffffffffffffff167fc123aa2e5c63456c59a4694ac50ba610152278a01162f3d5e3a6ffc457bc586e60405160405180910390a350565b6000806000806000806000600460009054906101000a900473ffffffffffffffffffffffffffffffffffffffff1673ffffffffffffffffffffffffffffffffffffffff16636facbe2b896000604051602001526040518263ffffffff167c010000000000000000000000000000000000000000000000000000000002815260040180828152602001915050602060405180830381600087803b151561353b57600080fd5b6102c65a03f1151561354c57600080fd5b50505060405180519050151561356157600080fd5b600360009054906101000a900473ffffffffffffffffffffffffffffffffffffffff1673ffffffffffffffffffffffffffffffffffffffff1663540494a1338a6000604051602001526040518363ffffffff167c0100000000000000000000000000000000000000000000000000000000028152600401808373ffffffffffffffffffffffffffffffffffffffff1673ffffffffffffffffffffffffffffffffffffffff16815260200182815260200192505050602060405180830381600087803b151561362e57600080fd5b6102c65a03f1151561363f57600080fd5b50505060405180519050151561365457600080fd5b600460009054906101000a900473ffffffffffffffffffffffffffffffffffffffff1673ffffffffffffffffffffffffffffffffffffffff1663614ad27f896000604051602001526040518263ffffffff167c010000000000000000000000000000000000000000000000000000000002815260040180828152602001915050602060405180830381600087803b15156136ed57600080fd5b6102c65a03f115156136fe57600080fd5b505050604051805190509650600660009054906101000a900473ffffffffffffffffffffffffffffffffffffffff1673ffffffffffffffffffffffffffffffffffffffff16634a925dae33898b6000604051602001526040518463ffffffff167c0100000000000000000000000000000000000000000000000000000000028152600401808473ffffffffffffffffffffffffffffffffffffffff1673ffffffffffffffffffffffffffffffffffffffff1681526020018381526020018281526020019350505050602060405180830381600087803b15156137df57600080fd5b6102c65a03f115156137f057600080fd5b5050506040518051905095507ffffffffffffffffffffffffffffffffffffffffffffffffffffffffffffffffe8613151561382a57600080fd5b600460009054906101000a900473ffffffffffffffffffffffffffffffffffffffff1673ffffffffffffffffffffffffffffffffffffffff16638709e9da896000604051606001526040518263ffffffff167c010000000000000000000000000000000000000000000000000000000002815260040180828152602001915050606060405180830381600087803b15156138c357600080fd5b6102c65a03f115156138d457600080fd5b50505060405180519060200180519060200180519050809550819650829750505050613901338686615590565b7fffffffffffffffffffffffffffffffffffffffffffffffffffffffffffffffff861415613a1457600660009054906101000a900473ffffffffffffffffffffffffffffffffffffffff1673ffffffffffffffffffffffffffffffffffffffff16634fe6aa94338a6000604051602001526040518363ffffffff167c0100000000000000000000000000000000000000000000000000000000028152600401808373ffffffffffffffffffffffffffffffffffffffff1673ffffffffffffffffffffffffffffffffffffffff16815260200182815260200192505050602060405180830381600087803b15156139f657600080fd5b6102c65a03f11515613a0757600080fd5b5050506040518051905095505b613a1d336158bb565b9150613a3283836159d190919063ffffffff16565b9050600860003373ffffffffffffffffffffffffffffffffffffffff1673ffffffffffffffffffffffffffffffffffffffff1681526020019081526020016000208054806001018281613a859190615a57565b916000526020600020900160006080604051908101604052808c63ffffffff1681526020018a63ffffffff1681526020018667ffffffffffffffff1681526020018567ffffffffffffffff16815250909190915060008201518160000160006101000a81548163ffffffff021916908363ffffffff16021790555060208201518160000160046101000a81548163ffffffff021916908363ffffffff16021790555060408201518160000160086101000a81548167ffffffffffffffff021916908367ffffffffffffffff16021790555060608201518160000160106101000a81548167ffffffffffffffff021916908367ffffffffffffffff1602179055505050507f75fd23547686f45a1bcfdeb2f3b7779a8096308567c5d69f245cc28b029258a83389888585604051808673ffffffffffffffffffffffffffffffffffffffff1673ffffffffffffffffffffffffffffffffffffffff1681526020018581526020018481526020018381526020018281526020019550505050505060405180910390a15050505050505050565b600080600080600080600091505b600860008873ffffffffffffffffffffffffffffffffffffffff1673ffffffffffffffffffffffffffffffffffffffff1681526020019081526020016000208054905082101561406e576000905043600860008973ffffffffffffffffffffffffffffffffffffffff1673ffffffffffffffffffffffffffffffffffffffff16815260200190815260200160002083815481101515613cbe57fe5b906000526020600020900160000160109054906101000a900467ffffffffffffffff1667ffffffffffffffff161015613d6557600860008873ffffffffffffffffffffffffffffffffffffffff1673ffffffffffffffffffffffffffffffffffffffff16815260200190815260200160002082815481101515613d3d57fe5b906000526020600020900160000160009054906101000a900463ffffffff1663ffffffff1690505b43600860008973ffffffffffffffffffffffffffffffffffffffff1673ffffffffffffffffffffffffffffffffffffffff16815260200190815260200160002083815481101515613db257fe5b906000526020600020900160000160109054906101000a900467ffffffffffffffff1667ffffffffffffffff1610158015613eed575060016103e880600860008b73ffffffffffffffffffffffffffffffffffffffff1673ffffffffffffffffffffffffffffffffffffffff16815260200190815260200160002085815481101515613e3a57fe5b906000526020600020900160000160009054906101000a900463ffffffff1663ffffffff16811515613e6857fe5b06600860008b73ffffffffffffffffffffffffffffffffffffffff1673ffffffffffffffffffffffffffffffffffffffff16815260200190815260200160002085815481101515613eb557fe5b906000526020600020900160000160009054906101000a900463ffffffff160363ffffffff16811515613ee457fe5b0463ffffffff16115b15613f6a576103e8600860008973ffffffffffffffffffffffffffffffffffffffff1673ffffffffffffffffffffffffffffffffffffffff16815260200190815260200160002083815481101515613f4157fe5b906000526020600020900160000160009054906101000a900463ffffffff160363ffffffff1690505b600081111561406157600460009054906101000a900473ffffffffffffffffffffffffffffffffffffffff1673ffffffffffffffffffffffffffffffffffffffff16638bfa8771826000604051604001526040518263ffffffff167c0100000000000000000000000000000000000000000000000000000000028152600401808281526020019150506040805180830381600087803b151561400b57600080fd5b6102c65a03f1151561401c57600080fd5b505050604051805190602001805190508094508195505050600084111561404a5761404786856159d1565b95505b60008311156140605761405d85846159d1565b94505b5b8180600101925050613c23565b85859550955050505050915091565b6000806000806000806000600760009054906101000a900473ffffffffffffffffffffffffffffffffffffffff1673ffffffffffffffffffffffffffffffffffffffff16632729663c896000604051602001526040518263ffffffff167c0100000000000000000000000000000000000000000000000000000000028152600401808273ffffffffffffffffffffffffffffffffffffffff1673ffffffffffffffffffffffffffffffffffffffff168152602001915050602060405180830381600087803b151561414d57600080fd5b6102c65a03f1151561415e57600080fd5b505050604051805190509150600090505b600860008973ffffffffffffffffffffffffffffffffffffffff1673ffffffffffffffffffffffffffffffffffffffff168152602001908152602001600020805490508110156144d65743600860008a73ffffffffffffffffffffffffffffffffffffffff1673ffffffffffffffffffffffffffffffffffffffff1681526020019081526020016000208281548110151561420657fe5b906000526020600020900160000160109054906101000a900467ffffffffffffffff1667ffffffffffffffff1610156144c957600460009054906101000a900473ffffffffffffffffffffffffffffffffffffffff1673ffffffffffffffffffffffffffffffffffffffff1663b5142cff600860008b73ffffffffffffffffffffffffffffffffffffffff1673ffffffffffffffffffffffffffffffffffffffff168152602001908152602001600020838154811015156142c357fe5b906000526020600020900160000160009054906101000a900463ffffffff166000604051604001526040518263ffffffff167c0100000000000000000000000000000000000000000000000000000000028152600401808263ffffffff1681526020019150506040805180830381600087803b151561434157600080fd5b6102c65a03f1151561435257600080fd5b50505060405180519060200180519050809550819650505081600860008a73ffffffffffffffffffffffffffffffffffffffff1673ffffffffffffffffffffffffffffffffffffffff168152602001908152602001600020828154811015156143b757fe5b906000526020600020900160000160109054906101000a900467ffffffffffffffff1667ffffffffffffffff1611156144735761446c43600860008b73ffffffffffffffffffffffffffffffffffffffff1673ffffffffffffffffffffffffffffffffffffffff1681526020019081526020016000208381548110151561443a57fe5b906000526020600020900160000160109054906101000a900467ffffffffffffffff1667ffffffffffffffff166159ef565b9250614480565b61447d43836159ef565b92505b60008311156144c85760008511156144a8576144a5876144a08786615a08565b6159d1565b96505b60008411156144c7576144c4866144bf8686615a08565b6159d1565b95505b5b5b808060010191505061416f565b8686965096505050505050915091565b6000809054906101000a900473ffffffffffffffffffffffffffffffffffffffff1673ffffffffffffffffffffffffffffffffffffffff163373ffffffffffffffffffffffffffffffffffffffff1614151561454157600080fd5b600073ffffffffffffffffffffffffffffffffffffffff168173ffffffffffffffffffffffffffffffffffffffff161415151561457d57600080fd5b8073ffffffffffffffffffffffffffffffffffffffff166000809054906101000a900473ffffffffffffffffffffffffffffffffffffffff1673ffffffffffffffffffffffffffffffffffffffff167f8be0079c531659141344cd1fd0a4f28419497f9722a3daafe3b4186f6b6457e060405160405180910390a3806000806101000a81548173ffffffffffffffffffffffffffffffffffffffff021916908373ffffffffffffffffffffffffffffffffffffffff16021790555050565b6000600860008373ffffffffffffffffffffffffffffffffffffffff1673ffffffffffffffffffffffffffffffffffffffff168152602001908152602001600020805490509050919050565b8273ffffffffffffffffffffffffffffffffffffffff1663a9059cbb83836000604051602001526040518363ffffffff167c0100000000000000000000000000000000000000000000000000000000028152600401808373ffffffffffffffffffffffffffffffffffffffff1673ffffffffffffffffffffffffffffffffffffffff16815260200182815260200192505050602060405180830381600087803b151561473257600080fd5b6102c65a03f1151561474357600080fd5b50505060405180519050151561475557fe5b505050565b6000806001830190505b600860008573ffffffffffffffffffffffffffffffffffffffff1673ffffffffffffffffffffffffffffffffffffffff16815260200190815260200160002080549050811015614df757600860008573ffffffffffffffffffffffffffffffffffffffff1673ffffffffffffffffffffffffffffffffffffffff168152602001908152602001600020818154811015156147fa57fe5b906000526020600020900160000160089054906101000a900467ffffffffffffffff16600860008673ffffffffffffffffffffffffffffffffffffffff1673ffffffffffffffffffffffffffffffffffffffff1681526020019081526020016000208281548110151561486957fe5b906000526020600020900160000160109054906101000a900467ffffffffffffffff1603915060018301811415614c065743600860008673ffffffffffffffffffffffffffffffffffffffff1673ffffffffffffffffffffffffffffffffffffffff168152602001908152602001600020848154811015156148e757fe5b906000526020600020900160000160089054906101000a900467ffffffffffffffff1667ffffffffffffffff16101515614a0e57600860008573ffffffffffffffffffffffffffffffffffffffff1673ffffffffffffffffffffffffffffffffffffffff1681526020019081526020016000206001820381548110151561496a57fe5b906000526020600020900160000160089054906101000a900467ffffffffffffffff16600860008673ffffffffffffffffffffffffffffffffffffffff1673ffffffffffffffffffffffffffffffffffffffff168152602001908152602001600020828154811015156149d957fe5b906000526020600020900160000160086101000a81548167ffffffffffffffff021916908367ffffffffffffffff1602179055505b43600860008673ffffffffffffffffffffffffffffffffffffffff1673ffffffffffffffffffffffffffffffffffffffff16815260200190815260200160002084815481101515614a5b57fe5b906000526020600020900160000160089054906101000a900467ffffffffffffffff1667ffffffffffffffff161015614b105743600860008673ffffffffffffffffffffffffffffffffffffffff1673ffffffffffffffffffffffffffffffffffffffff16815260200190815260200160002082815481101515614adb57fe5b906000526020600020900160000160086101000a81548167ffffffffffffffff021916908367ffffffffffffffff1602179055505b81600860008673ffffffffffffffffffffffffffffffffffffffff1673ffffffffffffffffffffffffffffffffffffffff16815260200190815260200160002082815481101515614b5d57fe5b906000526020600020900160000160089054906101000a900467ffffffffffffffff1601600860008673ffffffffffffffffffffffffffffffffffffffff1673ffffffffffffffffffffffffffffffffffffffff16815260200190815260200160002082815481101515614bcd57fe5b906000526020600020900160000160106101000a81548167ffffffffffffffff021916908367ffffffffffffffff160217905550614dea565b600860008573ffffffffffffffffffffffffffffffffffffffff1673ffffffffffffffffffffffffffffffffffffffff16815260200190815260200160002060018203815481101515614c5557fe5b906000526020600020900160000160109054906101000a900467ffffffffffffffff16600860008673ffffffffffffffffffffffffffffffffffffffff1673ffffffffffffffffffffffffffffffffffffffff16815260200190815260200160002082815481101515614cc457fe5b906000526020600020900160000160086101000a81548167ffffffffffffffff021916908367ffffffffffffffff16021790555081600860008673ffffffffffffffffffffffffffffffffffffffff1673ffffffffffffffffffffffffffffffffffffffff16815260200190815260200160002082815481101515614d4557fe5b906000526020600020900160000160089054906101000a900467ffffffffffffffff1601600860008673ffffffffffffffffffffffffffffffffffffffff1673ffffffffffffffffffffffffffffffffffffffff16815260200190815260200160002082815481101515614db557fe5b906000526020600020900160000160106101000a81548167ffffffffffffffff021916908367ffffffffffffffff1602179055505b8080600101915050614764565b50505050565b6000808290505b600860008573ffffffffffffffffffffffffffffffffffffffff1673ffffffffffffffffffffffffffffffffffffffff16815260200190815260200160002080549050811015615159576001600860008673ffffffffffffffffffffffffffffffffffffffff1673ffffffffffffffffffffffffffffffffffffffff1681526020019081526020016000208054905003811415614fa357600860008573ffffffffffffffffffffffffffffffffffffffff1673ffffffffffffffffffffffffffffffffffffffff1681526020019081526020016000206001600860008773ffffffffffffffffffffffffffffffffffffffff1673ffffffffffffffffffffffffffffffffffffffff1681526020019081526020016000208054905003815481101515614f2c57fe5b9060005260206000209001600080820160006101000a81549063ffffffff02191690556000820160046101000a81549063ffffffff02191690556000820160086101000a81549067ffffffffffffffff02191690556000820160106101000a81549067ffffffffffffffff0219169055505061514c565b600860008573ffffffffffffffffffffffffffffffffffffffff1673ffffffffffffffffffffffffffffffffffffffff16815260200190815260200160002060018201815481101515614ff257fe5b9060005260206000209001600860008673ffffffffffffffffffffffffffffffffffffffff1673ffffffffffffffffffffffffffffffffffffffff1681526020019081526020016000208281548110151561504957fe5b90600052602060002090016000820160009054906101000a900463ffffffff168160000160006101000a81548163ffffffff021916908363ffffffff1602179055506000820160049054906101000a900463ffffffff168160000160046101000a81548163ffffffff021916908363ffffffff1602179055506000820160089054906101000a900467ffffffffffffffff168160000160086101000a81548167ffffffffffffffff021916908367ffffffffffffffff1602179055506000820160109054906101000a900467ffffffffffffffff168160000160106101000a81548167ffffffffffffffff021916908367ffffffffffffffff1602179055509050505b8080600101915050614e04565b6001600860008673ffffffffffffffffffffffffffffffffffffffff1673ffffffffffffffffffffffffffffffffffffffff168152602001908152602001600020818180549050039150816151ae9190615a83565b50600191505092915050565b6000806000600860008673ffffffffffffffffffffffffffffffffffffffff1673ffffffffffffffffffffffffffffffffffffffff16815260200190815260200160002080549050841115151561521057600080fd5b8391505b600860008673ffffffffffffffffffffffffffffffffffffffff1673ffffffffffffffffffffffffffffffffffffffff1681526020019081526020016000208054905082101561541257600860008673ffffffffffffffffffffffffffffffffffffffff1673ffffffffffffffffffffffffffffffffffffffff168152602001908152602001600020828154811015156152aa57fe5b9060005260206000209001600860008773ffffffffffffffffffffffffffffffffffffffff1673ffffffffffffffffffffffffffffffffffffffff16815260200190815260200160002085840381548110151561530357fe5b90600052602060002090016000820160009054906101000a900463ffffffff168160000160006101000a81548163ffffffff021916908363ffffffff1602179055506000820160049054906101000a900463ffffffff168160000160046101000a81548163ffffffff021916908363ffffffff1602179055506000820160089054906101000a900467ffffffffffffffff168160000160086101000a81548167ffffffffffffffff021916908367ffffffffffffffff1602179055506000820160109054906101000a900467ffffffffffffffff168160000160106101000a81548167ffffffffffffffff021916908367ffffffffffffffff1602179055509050508180600101925050615214565b600190505b838111151561552f57600860008673ffffffffffffffffffffffffffffffffffffffff1673ffffffffffffffffffffffffffffffffffffffff16815260200190815260200160002081600860008873ffffffffffffffffffffffffffffffffffffffff1673ffffffffffffffffffffffffffffffffffffffff16815260200190815260200160002080549050038154811015156154b057fe5b9060005260206000209001600080820160006101000a81549063ffffffff02191690556000820160046101000a81549063ffffffff02191690556000820160086101000a81549067ffffffffffffffff02191690556000820160106101000a81549067ffffffffffffffff021916905550508080600101915050615417565b83600860008773ffffffffffffffffffffffffffffffffffffffff1673ffffffffffffffffffffffffffffffffffffffff168152602001908152602001600020818180549050039150816155839190615a83565b5060019250505092915050565b600081148061559f5750600181145b806155aa5750600281145b15156155b557600080fd5b60008211156158b65760008114156156bb57600760009054906101000a900473ffffffffffffffffffffffffffffffffffffffff1673ffffffffffffffffffffffffffffffffffffffff1663ec3191e984846000604051602001526040518363ffffffff167c0100000000000000000000000000000000000000000000000000000000028152600401808373ffffffffffffffffffffffffffffffffffffffff1673ffffffffffffffffffffffffffffffffffffffff16815260200182815260200192505050602060405180830381600087803b151561569457600080fd5b6102c65a03f115156156a557600080fd5b5050506040518051905015156156ba57600080fd5b5b60018114156157b857600760009054906101000a900473ffffffffffffffffffffffffffffffffffffffff1673ffffffffffffffffffffffffffffffffffffffff1663142ed04384846000604051602001526040518363ffffffff167c0100000000000000000000000000000000000000000000000000000000028152600401808373ffffffffffffffffffffffffffffffffffffffff1673ffffffffffffffffffffffffffffffffffffffff16815260200182815260200192505050602060405180830381600087803b151561579157600080fd5b6102c65a03f115156157a257600080fd5b5050506040518051905015156157b757600080fd5b5b60028114156158b557600760009054906101000a900473ffffffffffffffffffffffffffffffffffffffff1673ffffffffffffffffffffffffffffffffffffffff16632f2e88f084846000604051602001526040518363ffffffff167c0100000000000000000000000000000000000000000000000000000000028152600401808373ffffffffffffffffffffffffffffffffffffffff1673ffffffffffffffffffffffffffffffffffffffff16815260200182815260200192505050602060405180830381600087803b151561588e57600080fd5b6102c65a03f1151561589f57600080fd5b5050506040518051905015156158b457600080fd5b5b5b505050565b600080600080600860008673ffffffffffffffffffffffffffffffffffffffff1673ffffffffffffffffffffffffffffffffffffffff16815260200190815260200160002080549050925043915060008311156159c657600860008673ffffffffffffffffffffffffffffffffffffffff1673ffffffffffffffffffffffffffffffffffffffff16815260200190815260200160002061595c8460016159ef565b81548110151561596857fe5b906000526020600020900190508060000160109054906101000a900467ffffffffffffffff1667ffffffffffffffff164310156159c5578060000160109054906101000a900467ffffffffffffffff1667ffffffffffffffff1691505b5b819350505050919050565b60008082840190508381101515156159e557fe5b8091505092915050565b60008282111515156159fd57fe5b818303905092915050565b6000806000841415615a1d5760009150615a3c565b8284029050828482811515615a2e57fe5b04141515615a3857fe5b8091505b5092915050565b602060405190810160405280600081525090565b815481835581811511615a7e57818360005260206000209182019101615a7d9190615aaf565b5b505050565b815481835581811511615aaa57818360005260206000209182019101615aa99190615aaf565b5b505050565b615b2f91905b80821115615b2b57600080820160006101000a81549063ffffffff02191690556000820160046101000a81549063ffffffff02191690556000820160086101000a81549067ffffffffffffffff02191690556000820160106101000a81549067ffffffffffffffff021916905550600101615ab5565b5090565b905600a165627a7a72305820b50a4fc37524fa140027189246555a9af3686887efab770efdb2bec2919929390029",
  "source": "pragma solidity ^0.4.18;\n\nimport 'zeppelin-solidity/contracts/math/SafeMath.sol';\nimport 'zeppelin-solidity/contracts/ownership/NoOwner.sol';\nimport './AssetsRequirements.sol';\nimport './BuildingsData.sol';\nimport './UserBuildings.sol';\nimport './UserResources.sol';\nimport './Versioned.sol';\n\n/*\n * @title BuildingsQueue (WIP)\n * @dev Issue: * https://github.com/e11-io/crypto-wars-solidity/issues/4\n */\ncontract BuildingsQueue is NoOwner, Versioned {\n  using SafeMath for uint;\n\n  /*\n   * @dev Event for Adding a building to the queue system logging.\n   * @param _user who receives the building.\n   * @param _id the id of the building to be added.\n   * @param _index the index of the building to be added.\n\t * @param _startBlock the number of the block where the construction is gonna start.\n\t * @param _endBlock the number of the block where the construction is gonna be ready.\n   */\n  event AddNewBuildingToQueue(address _user,\n                              uint _id,\n                              uint _index,\n                              uint _startBlock,\n                              uint _endBlock);\n\n /*\n  * @dev Event for Updating the buildings queue. Buildings that are ready will be\n  * tranfered to the user buildings contract, and removed from the queue.\n  * @param _user the address of the user's queue to be updated. (address)\n  * @param _ids The ids of the finished buldings. (uint[])\n  * @param _indexes The indexes of the finished buldings. (uint[])\n  */\n  event UpdateQueue(address _user,\n                    uint[] _ids,\n                    uint[] _indexes);\n\n /*\n  * @dev Event for upgrading a building to the queue system logging.\n  * @param _idOfUpgrade the id of the building to be added.\n  * @param _index the index of the building to be added.\n  * @param _startBlock the number of the block where the construction is gonna start.\n  * @param _endBlock the number of the block where the construction is gonna be ready.\n  */\n  event UpgradeBuilding(uint _idOfUpgrade, uint _index, uint startBlock, uint endBlock);\n\n /*\n  *\n  */\n  event RemoveBuilding(address _user, uint _id, uint _index);\n\n  struct Build {\n    uint32 id;\n    uint32 index;\n    uint64 startBlock;\n    uint64 endBlock;\n  }\n\n\n  AssetsRequirements assetsRequirements;\n  BuildingsData buildingsData;\n  BuildingsQueue previousBuildingsQueue;\n  UserBuildings userBuildings;\n  UserResources userResources;\n\n  // Mapping of user -> build struct array (keeps track of buildings in construction queue)\n  mapping (address => Build[]) public userBuildingsQueue;\n\n  /*\n   * @notice Constructor: Instantiate Buildings Queue contract.\n   * @dev Constructor function to provide User Buildings address and instantiate it.\n   */\n  function BuildingsQueue() public {\n  }\n\n  /*\n   * @notice Makes the contract type verifiable.\n   * @dev Function to prove the contract is Buildings Queue.\n   */\n  function isBuildingsQueue() external pure returns (bool) {\n    return true;\n  }\n\n  /*\n   * @notice Sets the contract's version and instantiates the previous version contract.\n   * @dev Function to set the contract version and instantiate the previous Buildings Queue.\n   * @param _previousBuildingsQueue the address of previous Buildings Queue contract. (address)\n   * @param _version the current contract version number. (uint)\n   */\n  function setBuildingsQueueVersion(BuildingsQueue _previousBuildingsQueue, uint _version) external onlyOwner {\n    require(_previousBuildingsQueue.isBuildingsQueue());\n    require(_version > _previousBuildingsQueue.version());\n    previousBuildingsQueue =_previousBuildingsQueue;\n    setVersion(_version);\n  }\n\n  /*\n   * @title Instantiate User Buildings contract.\n   * @dev Function to provide User Buildings address and instantiate it.\n   * @param _userBuildings the address of User Buildings contract. (address)\n   */\n  function setUserBuildings(UserBuildings _userBuildings) external onlyOwner {\n    require(_userBuildings.isUserBuildings());\n    userBuildings = _userBuildings;\n  }\n\n  /*\n   * @title Instantiate Buildings Data contract.\n   * @dev Function to provide Buildings Data address and instantiate it.\n   * @param _buildingsData the address of Buildings Data contract. (address)\n   */\n  function setBuildingsData(BuildingsData _buildingsData) external onlyOwner {\n    require(_buildingsData.isBuildingsData());\n    buildingsData = _buildingsData;\n  }\n\n  /*\n   * @title Instantiate User Resources contract.\n   * @dev Function to provide User Resources address and instantiate it.\n   * @param _userResources the address of User Resources contract. (address)\n   */\n  function setUserResources(UserResources _userResources) external onlyOwner {\n    require(_userResources.isUserResources());\n    userResources = _userResources;\n  }\n\n  /*\n   * @title Instantiate Assets Requirements contract.\n   * @dev Function to provide Assets Requirements address and instantiate it.\n   * @param _assetsRequirements the address of Assets Requirements contract. (address)\n   */\n  function setAssetsRequirements(AssetsRequirements _assetsRequirements) external onlyOwner {\n    require(_assetsRequirements.isAssetsRequirements());\n    assetsRequirements = _assetsRequirements;\n  }\n\n  /*\n   * @notice Add New Building To Queue.\n   * @dev Function to add a new building to the construction queue of the user.\n      index -2: building type is not unique and the builiding cant be created.\n      index -1: building type is unique and the building can be created. Must be initialized.\n      index >= 0: building was deleted and must be created again. Modifing it's active variable to true.\n   * @param _id of the building to add to the queue. (uint)\n   */\n  function addNewBuildingToQueue(uint _id) external {\n    require(buildingsData.checkBuildingExist(_id));\n    require(assetsRequirements.validateUserAssetRequirements(msg.sender, _id));\n\n    uint typeId = buildingsData.getBuildingTypeId(_id);\n    int index = userBuildings.buildingTypeIsUnique(msg.sender, typeId, _id);\n\n    require(index > -2);\n\n    uint price;\n    uint resourceType;\n    uint blocks;\n    (price, resourceType, blocks) = buildingsData.getBuildingData(_id);\n\n    consumeResources(msg.sender, price, resourceType);\n\n    if  (index == -1) {\n      index = int(userBuildings.initNewBuilding(msg.sender, _id));\n    }\n\n    uint startBlock = getStartBlock(msg.sender);\n    uint endBlock = startBlock.add(blocks);\n\n    userBuildingsQueue[msg.sender].push(Build(\n      uint32(_id),\n      uint32(uint(index)),\n      uint64(startBlock),\n      uint64(endBlock)\n    ));\n\n    AddNewBuildingToQueue(msg.sender,\n                          _id,\n                          uint(index),\n                          startBlock,\n                          endBlock);\n  }\n\n  /*\n   * @title Update Queue.\n   * @dev Function to update the user buildings queue. Finished buildings\n   *  will be send to the User Buildings contract and removed from the construction\n   *  queue. Queue will be resized and updated with only the unfinished buildings.\n   * @param _user the address of the user's queue to be updated. (address)\n   * @return an array of the finished buildings ids. (uint[])\n   */\n  function updateQueue(address _user) public {\n    require(_user != address(0));\n    require(userBuildingsQueue[_user].length > 0);\n\n    uint length = userBuildingsQueue[_user].length;\n    uint i = 0;\n\n    while (i < length && userBuildingsQueue[_user][i].endBlock <= block.number) {\n      i++;\n    }\n\n    uint[] memory finishedIds = new uint[](i);\n    uint[] memory finishedIndexes = new uint[](i);\n\n    if (i == 0) {\n      UpdateQueue(_user, finishedIds, finishedIndexes);\n      return;\n    }\n\n    for (uint j = 0; j < i; j++) {\n      Build storage building = userBuildingsQueue[_user][j];\n      finishedIds[j] = building.id;\n      finishedIndexes[j] = building.index;\n    }\n\n    require(userBuildings.addUserBuildings(_user, finishedIds, finishedIndexes));\n\n    require(shiftUserBuildings(_user, i));\n\n    UpdateQueue(_user, finishedIds, finishedIndexes);\n  }\n\n  /*\n   * @title Upgrade Building.\n   * @dev Function to upgrade a buildings. If the building is in queue\n   *  the queue is updated.\n   * @param _id The id of the building that is gonna be replaced for the upgrade. (uint)\n   * @param _idOfUpgrade The id of the upgrade. (uint)\n   * @param _index The index of the building. (uint)\n   */\n  function upgradeBuilding(uint _id, uint _idOfUpgrade, uint _index) external {\n    require(buildingsData.checkBuildingExist(_id));\n    require(buildingsData.checkBuildingExist(_idOfUpgrade));\n    require(buildingsData.checkUpgrade(_id, _idOfUpgrade));\n    require(assetsRequirements.validateUserAssetRequirements(msg.sender, _idOfUpgrade));\n\n\n    bool buildingIsInQueue;\n    uint buildingIndexInQueue;\n    (buildingIsInQueue, buildingIndexInQueue) = findBuildingInQueue(msg.sender, _id, _index);\n\n    uint price;\n    uint resourceType;\n    uint blocks;\n    (price, resourceType, blocks) = buildingsData.getBuildingData(_idOfUpgrade);\n\n    consumeResources(msg.sender, price, resourceType);\n\n    if (buildingIsInQueue) {\n      require(userBuildingsQueue[msg.sender][buildingIndexInQueue].endBlock <= block.number);\n      updateQueue(msg.sender);\n    }\n\n    require(userBuildings.upgradeBuilding(msg.sender, _id, _index));\n\n    uint startBlock = getStartBlock(msg.sender);\n    uint endBlock = startBlock.add(blocks);\n\n    userBuildingsQueue[msg.sender].push(Build(\n      uint32(_idOfUpgrade), uint32(_index), uint64(startBlock), uint64(endBlock)\n    ));\n\n    UpgradeBuilding(_idOfUpgrade, _index, startBlock, endBlock);\n  }\n\n  /*\n   * @title Find Building In Queue.\n   * @dev Function to find a building in queue.\n   * @param _user The address of the user. (address)\n   * @param _id The id of the building. (uint)\n   * @param _index The Index of the building. (uint)\n   * @return A boolean representing if the building exists in the queue\n   * and a uint representing the index/position of the building in the queue.\n   */\n  function findBuildingInQueue(address _user, uint _id, uint _index) public view returns (bool exists, uint indexInQueue) {\n    for (uint i = 0; i < userBuildingsQueue[_user].length; i++) {\n      if (_index == userBuildingsQueue[_user][i].index && _id == userBuildingsQueue[_user][i].id) {\n        return (true, i);\n      }\n    }\n    return (false, 0);\n  }\n\n  /*\n   * @title Update Queue Blocks.\n   * @dev Function to update the start and end blocks of each building in queue\n   * when a building is removed.\n   * @param _user The address of the user's queue to be updated. (address)\n   * @param _queueIndex The index in queue of the building. (uint)\n   */\n  function updateQueueBlocks(address _user, uint _queueIndex) internal {\n    uint64 blocks;\n    for (uint i = _queueIndex + 1; i < userBuildingsQueue[_user].length; i++) {\n      /* TODO: might need to implement safe math later*/\n      blocks = userBuildingsQueue[_user][i].endBlock - userBuildingsQueue[_user][i].startBlock;\n      if (i == _queueIndex + 1) {\n        if (userBuildingsQueue[_user][_queueIndex].startBlock >= block.number) {\n          userBuildingsQueue[_user][i].startBlock = userBuildingsQueue[_user][i - 1].startBlock;\n        }\n        if (userBuildingsQueue[_user][_queueIndex].startBlock < block.number) {\n          userBuildingsQueue[_user][i].startBlock = uint64(block.number);\n        }\n        userBuildingsQueue[_user][i].endBlock = userBuildingsQueue[_user][i].startBlock + blocks;\n      } else {\n        userBuildingsQueue[_user][i].startBlock = userBuildingsQueue[_user][i - 1].endBlock;\n        userBuildingsQueue[_user][i].endBlock = userBuildingsQueue[_user][i].startBlock + blocks;\n      }\n    }\n  }\n\n  /*\n   * @notice Shift User Buildings.\n   * @dev Function to shift the specified amount of builds from user buildings queue.\n   *  Being a chronologically ordered array, finished buildings will be always\n   *  first on the array.\n   * @param _user the address of the user's queue to be updated. (address)\n   * @param _amount of buildings to be shifted from the array. (uint)\n   * @return A boolean that indicates if the operation was successful.\n   */\n  function shiftUserBuildings(address _user, uint _amount) internal returns (bool) {\n    require(_amount <= userBuildingsQueue[_user].length);\n\n    for (uint i = _amount; i < userBuildingsQueue[_user].length; i++){\n      userBuildingsQueue[_user][i - _amount] = userBuildingsQueue[_user][i];\n    }\n    for (uint j = 1; j <= _amount; j++){\n      delete userBuildingsQueue[_user][userBuildingsQueue[_user].length - j];\n    }\n    userBuildingsQueue[_user].length -= _amount;\n    return true;\n  }\n\n  /*\n   * @notice Shift One User Buildings.\n   * @dev Function to shift one specified building from user buildings queue.\n   * @param _user The address of the user's queue to be updated. (address)\n   * @param _index The index of the building to be removed. (uint)\n   * @return A boolean that indicates if the operation was successful.\n   */\n  function shiftOneUserBuilding(address _user, uint _index) internal returns (bool) {\n    for (uint i = _index; i < userBuildingsQueue[_user].length; i++) {\n      if (i == userBuildingsQueue[_user].length - 1) {\n        delete userBuildingsQueue[_user][userBuildingsQueue[_user].length - 1];\n      } else {\n        userBuildingsQueue[_user][i] = userBuildingsQueue[_user][i + 1];\n      }\n    }\n    userBuildingsQueue[_user].length -= 1;\n    return true;\n  }\n\n  /*\n   * @notice Get the last building in the construction queue of the user.\n   * @param _user . (address)\n   */\n  function getLastUserBuilding(address _user) external view returns (uint id,\n                                                                uint startBlock,\n                                                                uint endBlock) {\n    require(_user != address(0));\n    require(userBuildingsQueue[_user].length > 0);\n\n    Build storage b = userBuildingsQueue[_user][userBuildingsQueue[_user].length -1];\n    return (b.id, b.startBlock, b.endBlock);\n  }\n\n  /*\n   * @notice Check Building Price and Get Block of it.\n   * @dev Function to check if the user has the necessary amount of resources\n   *  to build/upgrade the building. And returns the amount of blocks that\n   *  building takes to be done.\n   * @param _user the address of the user. (address)\n   * @param _price the price for the upgrade. (uint)\n   * @param _resourceType the type of the resource to consume. (uint)\n   * @return returns the amount of blocks that building takes to be done.\n   */\n  function consumeResources(address _user, uint _price, uint _resourceType) internal {\n    require(_resourceType == 0 || _resourceType == 1 || _resourceType == 2);\n    if (_price > 0) {\n      if (_resourceType == 0) {\n        require(userResources.consumeGold(_user, _price));\n      }\n      if (_resourceType == 1) {\n        require(userResources.consumeCrystal(_user, _price));\n      }\n      if (_resourceType == 2) {\n        require(userResources.consumeQuantumDust(_user, _price));\n      }\n    }\n  }\n\n  /*\n   * @notice Get Start Block.\n   * @dev Function to get the start block number of the new building to be\n   *  added in the queue.\n   * @param _user the address of the user (address)\n   */\n  function getStartBlock(address _user) internal view returns (uint) {\n    uint length = userBuildingsQueue[_user].length;\n    uint startBlock = block.number;\n    if (length > 0) {\n      Build storage lastBuilding = userBuildingsQueue[_user][SafeMath.sub(length, 1)];\n      if (block.number < lastBuilding.endBlock ) {\n        startBlock = lastBuilding.endBlock;\n      }\n    }\n    return startBlock;\n  }\n\n  /*\n   * @notice Get Buildings in Queue.\n   * @dev Function to check the ids of all the user's buildings in queue.\n   * @param _user the address of the user's queue to be shown. (address)\n   */\n  function getBuildingsInQueue(address _user) external view returns (uint[]) {\n    require(_user != address(0));\n\n    uint length = userBuildingsQueue[_user].length;\n    uint[] memory buildings = new uint[](length);\n    for (uint i = 0; i < length; i++) {\n      buildings[i] = userBuildingsQueue[_user][i].id;\n    }\n    return buildings;\n  }\n\n  /*\n   * @notice Get Ids and Blocks.\n   * @dev Function to get the ids, start block and end block of all buildings in queue.\n   * Used only for testing.\n   * @param _user the address of the user. (address)\n   * @return four uint arrays representiong the id, startBlock, endBlock and index of each building.\n   */\n  function getBuildings(address _user) external view returns (uint[], uint[], uint[], uint[]) {\n    require(_user != address(0));\n\n    uint length = userBuildingsQueue[_user].length;\n    uint[] memory ids = new uint[](length);\n    uint[] memory startBlocks = new uint[](length);\n    uint[] memory endBlocks = new uint[](length);\n    uint[] memory indexes = new uint[](length);\n    for (uint i = 0; i < length; i++) {\n      ids[i] = userBuildingsQueue[_user][i].id;\n      startBlocks[i] = userBuildingsQueue[_user][i].startBlock;\n      endBlocks[i] = userBuildingsQueue[_user][i].endBlock;\n      indexes[i] = userBuildingsQueue[_user][i].index;\n    }\n    return (ids, startBlocks, endBlocks, indexes);\n  }\n\n  /*\n   * @notice Get Building Id and Block.\n   * @dev Function to check the id and end block of a building in queue.\n   * @param _user The address of the user's queue to search in. (address)\n   * @param _index The index of the element to return in the array. (uint)\n   */\n  function getBuildingIdAndEndBlock(address _user, uint _indexInQueue) external view returns (uint id, uint endBlock) {\n    require(userBuildingsQueue[_user].length > _indexInQueue);\n    return (userBuildingsQueue[_user][_indexInQueue].id, userBuildingsQueue[_user][_indexInQueue].endBlock);\n  }\n\n  /*\n   * @notice Get Building Index.\n   * @dev Function to get the id and index of a building.\n   * Used only for testing.\n   * @param _user The address of the user. (address)\n   * @param _indexInQueue The index in queue of the building. (uint)\n   * @return Two uints representiong the id and index of a building.\n   */\n  function getBuildingIndex(address _user, uint _indexInQueue) external view returns (uint id, uint index) {\n    require(_user != address(0));\n    require(_indexInQueue < userBuildingsQueue[_user].length);\n\n    return (userBuildingsQueue[_user][_indexInQueue].id, userBuildingsQueue[_user][_indexInQueue].index);\n  }\n\n  /*\n   * @notice Get User Queue Resources.\n   * @dev Function to get the amount of gold and crystal produced in the buildings Queue\n   * since the last payout to the user.\n   * @param _user The address of the user to give the resources. (address)\n   * @param _payoutBlock The block where was the last payout to the user. (uint)\n   * @return Two uints representing the gold and crystal produced in the queue system.\n   */\n  function getUserQueueResources(address _user) external view returns (uint queueGold, uint queueCrystal) {\n    uint goldRate;\n    uint crystalRate;\n    uint diff;\n    uint payoutBlock = userResources.usersPayoutBlock(_user);\n\n\n\t\tfor (uint i = 0; i < userBuildingsQueue[_user].length; i++) {\n      if (userBuildingsQueue[_user][i].endBlock < block.number) {\n        (goldRate, crystalRate) = buildingsData.getGoldAndCrystalRates(userBuildingsQueue[_user][i].id);\n\n        if (userBuildingsQueue[_user][i].endBlock > payoutBlock) {\n          diff = SafeMath.sub(block.number, userBuildingsQueue[_user][i].endBlock);\n        } else {\n          diff = SafeMath.sub(block.number, payoutBlock);\n        }\n\n\n        if (diff > 0) {\n          if (goldRate > 0) {\n            queueGold = SafeMath.add(queueGold, SafeMath.mul(goldRate, diff));\n          }\n\n          if (crystalRate > 0) {\n            queueCrystal = SafeMath.add(queueCrystal, SafeMath.mul(crystalRate, diff));\n          }\n        }\n      }\n    }\n\n    return (queueGold, queueCrystal);\n\t}\n\n  /*\n   * @title Get Buildings Queue Length\n   * @dev Get the length of the buildings Queue.\n   * @param _user The address of the user. (address)\n   */\n  function getBuildingsQueueLength(address _user) external view returns (uint length) {\n    return userBuildingsQueue[_user].length;\n  }\n\n  /*\n   * @title Cancel Building.\n   * @dev Function to cancel/remove building from queue. The building is set\n   * to Active false in User Buildings.\n   * @param _id The id of the building to be removed. (uint)\n   * @param _index The Index of the building to be removed. (uint)\n   */\n  function cancelBuilding(uint _id, uint _index) external {\n    require(buildingsData.checkBuildingExist(_id));\n\n    bool buildingIsInQueue;\n    uint buildingIndexInQueue;\n\n    (buildingIsInQueue, buildingIndexInQueue) = findBuildingInQueue(msg.sender, _id, _index);\n\n    require(buildingIsInQueue);\n    require(userBuildingsQueue[msg.sender][buildingIndexInQueue].endBlock > block.number);\n\n    userResources.payoutResources(msg.sender);\n    updateQueueBlocks(msg.sender, buildingIndexInQueue);\n    require(shiftOneUserBuilding(msg.sender, buildingIndexInQueue));\n\n    require(userBuildings.updateBuildingStatus(msg.sender, _id, _index));\n\n    RemoveBuilding(msg.sender, _id, _index);\n\n  }\n\n  /*\n   * @title Get User Resources Capacity.\n   * @dev Function to get the resources capacity of the buildings in queue.\n   * @param _user The address of the user. (address)\n   * @return Two uints representing the gold and crystal capacity of the buildings in queue.\n   */\n  function getUserResourcesCapacity(address _user) external view returns (uint totalGoldCapacity, uint totalCrystalCapacity) {\n    uint goldCapacity;\n    uint crystalCapacity;\n\n\t\tfor (uint i = 0; i < userBuildingsQueue[_user].length; i++) {\n      uint buildingId = 0;\n      if (userBuildingsQueue[_user][i].endBlock < block.number) {\n        buildingId = userBuildingsQueue[_user][i].id;\n      }\n      if (userBuildingsQueue[_user][i].endBlock >= block.number &&\n         ((userBuildingsQueue[_user][i].id - userBuildingsQueue[_user][i].id % 1000) / 1000) > 1) {\n        buildingId = userBuildingsQueue[_user][i].id - 1000;\n      }\n\n      if (buildingId > 0) {\n        (goldCapacity, crystalCapacity) = buildingsData.getGoldAndCrystalCapacity(buildingId);\n\n        if (goldCapacity > 0) {\n          totalGoldCapacity = SafeMath.add(totalGoldCapacity, goldCapacity);\n        }\n\n        if (crystalCapacity > 0) {\n          totalCrystalCapacity = SafeMath.add(totalCrystalCapacity, crystalCapacity);\n        }\n      }\n    }\n\n    return (totalGoldCapacity, totalCrystalCapacity);\n  }\n\n}\n",
  "sourcePath": "/home/francisco/Truffle/crypto-wars-solidity/contracts/BuildingsQueue.sol",
  "compiler": {
    "name": "solc",
    "version": "0.4.19+commit.c4cbbb05.Emscripten.clang"
  },
  "schemaVersion": "2.0.0",
  "updatedAt": "2018-03-22T14:36:23.884Z"
}