{
  "contractName": "BuildingsData",
  "abi": [
    {
      "constant": false,
      "inputs": [
        {
          "name": "token",
          "type": "address"
        }
      ],
      "name": "reclaimToken",
      "outputs": [],
      "payable": false,
      "stateMutability": "nonpayable",
      "type": "function"
    },
    {
      "constant": false,
      "inputs": [
        {
          "name": "contractAddr",
          "type": "address"
        }
      ],
      "name": "reclaimContract",
      "outputs": [],
      "payable": false,
      "stateMutability": "nonpayable",
      "type": "function"
    },
    {
      "constant": false,
      "inputs": [
        {
          "name": "_version",
          "type": "uint256"
        }
      ],
      "name": "setVersion",
      "outputs": [],
      "payable": false,
      "stateMutability": "nonpayable",
      "type": "function"
    },
    {
      "constant": true,
      "inputs": [
        {
          "name": "",
          "type": "uint256"
        }
      ],
      "name": "buildings",
      "outputs": [
        {
          "name": "name",
          "type": "string"
        },
        {
          "name": "health",
          "type": "int32"
        },
        {
          "name": "defense",
          "type": "int32"
        },
        {
          "name": "attack",
          "type": "int32"
        },
        {
          "name": "goldCapacity",
          "type": "int32"
        },
        {
          "name": "crystalCapacity",
          "type": "int32"
        },
        {
          "name": "goldRate",
          "type": "int32"
        },
        {
          "name": "crystalRate",
          "type": "int32"
        },
        {
          "name": "price",
          "type": "int32"
        },
        {
          "name": "resource",
          "type": "int32"
        },
        {
          "name": "blocks",
          "type": "int32"
        },
        {
          "name": "previousLevelId",
          "type": "int32"
        },
        {
          "name": "typeId",
          "type": "int32"
        }
      ],
      "payable": false,
      "stateMutability": "view",
      "type": "function"
    },
    {
      "constant": true,
      "inputs": [],
      "name": "version",
      "outputs": [
        {
          "name": "",
          "type": "uint256"
        }
      ],
      "payable": false,
      "stateMutability": "view",
      "type": "function"
    },
    {
      "constant": true,
      "inputs": [],
      "name": "owner",
      "outputs": [
        {
          "name": "",
          "type": "address"
        }
      ],
      "payable": false,
      "stateMutability": "view",
      "type": "function"
    },
    {
      "constant": true,
      "inputs": [
        {
          "name": "",
          "type": "uint256"
        }
      ],
      "name": "buildingIds",
      "outputs": [
        {
          "name": "",
          "type": "uint256"
        }
      ],
      "payable": false,
      "stateMutability": "view",
      "type": "function"
    },
    {
      "constant": false,
      "inputs": [],
      "name": "reclaimEther",
      "outputs": [],
      "payable": false,
      "stateMutability": "nonpayable",
      "type": "function"
    },
    {
      "constant": true,
      "inputs": [
        {
          "name": "",
          "type": "address"
        }
      ],
      "name": "migratedUsers",
      "outputs": [
        {
          "name": "",
          "type": "bool"
        }
      ],
      "payable": false,
      "stateMutability": "view",
      "type": "function"
    },
    {
      "constant": false,
      "inputs": [
        {
          "name": "from_",
          "type": "address"
        },
        {
          "name": "value_",
          "type": "uint256"
        },
        {
          "name": "data_",
          "type": "bytes"
        }
      ],
      "name": "tokenFallback",
      "outputs": [],
      "payable": false,
      "stateMutability": "nonpayable",
      "type": "function"
    },
    {
      "constant": false,
      "inputs": [
        {
          "name": "_newContract",
          "type": "address"
        }
      ],
      "name": "migrateUser",
      "outputs": [],
      "payable": false,
      "stateMutability": "nonpayable",
      "type": "function"
    },
    {
      "constant": false,
      "inputs": [
        {
          "name": "newOwner",
          "type": "address"
        }
      ],
      "name": "transferOwnership",
      "outputs": [],
      "payable": false,
      "stateMutability": "nonpayable",
      "type": "function"
    },
    {
      "inputs": [],
      "payable": false,
      "stateMutability": "nonpayable",
      "type": "constructor"
    },
    {
      "payable": false,
      "stateMutability": "nonpayable",
      "type": "fallback"
    },
    {
      "anonymous": false,
      "inputs": [
        {
          "indexed": false,
          "name": "id",
          "type": "uint256"
        },
        {
          "indexed": false,
          "name": "name",
          "type": "string"
        }
      ],
      "name": "AddBuilding",
      "type": "event"
    },
    {
      "anonymous": false,
      "inputs": [
        {
          "indexed": false,
          "name": "id",
          "type": "uint256"
        },
        {
          "indexed": false,
          "name": "name",
          "type": "string"
        }
      ],
      "name": "UpdateBuilding",
      "type": "event"
    },
    {
      "anonymous": false,
      "inputs": [
        {
          "indexed": true,
          "name": "user",
          "type": "address"
        },
        {
          "indexed": true,
          "name": "newContract",
          "type": "address"
        }
      ],
      "name": "UserMigrated",
      "type": "event"
    },
    {
      "anonymous": false,
      "inputs": [
        {
          "indexed": true,
          "name": "previousOwner",
          "type": "address"
        },
        {
          "indexed": true,
          "name": "newOwner",
          "type": "address"
        }
      ],
      "name": "OwnershipTransferred",
      "type": "event"
    },
    {
      "constant": true,
      "inputs": [],
      "name": "isBuildingsData",
      "outputs": [
        {
          "name": "",
          "type": "bool"
        }
      ],
      "payable": false,
      "stateMutability": "pure",
      "type": "function"
    },
    {
      "constant": false,
      "inputs": [
        {
          "name": "_previousBuildingsData",
          "type": "address"
        },
        {
          "name": "_version",
          "type": "uint256"
        }
      ],
      "name": "setBuildingsDataVersion",
      "outputs": [],
      "payable": false,
      "stateMutability": "nonpayable",
      "type": "function"
    },
    {
      "constant": true,
      "inputs": [],
      "name": "getBuildingIdsLength",
      "outputs": [
        {
          "name": "",
          "type": "uint256"
        }
      ],
      "payable": false,
      "stateMutability": "view",
      "type": "function"
    },
    {
      "constant": false,
      "inputs": [
        {
          "name": "id",
          "type": "uint256"
        },
        {
          "name": "name",
          "type": "string"
        },
        {
          "name": "stats",
          "type": "int32[]"
        }
      ],
      "name": "addBuilding",
      "outputs": [],
      "payable": false,
      "stateMutability": "nonpayable",
      "type": "function"
    },
    {
      "constant": false,
      "inputs": [
        {
          "name": "id",
          "type": "uint256"
        },
        {
          "name": "name",
          "type": "string"
        },
        {
          "name": "stats",
          "type": "int32[]"
        }
      ],
      "name": "updateBuilding",
      "outputs": [],
      "payable": false,
      "stateMutability": "nonpayable",
      "type": "function"
    },
    {
      "constant": true,
      "inputs": [
        {
          "name": "_id",
          "type": "uint256"
        }
      ],
      "name": "checkBuildingExist",
      "outputs": [
        {
          "name": "",
          "type": "bool"
        }
      ],
      "payable": false,
      "stateMutability": "view",
      "type": "function"
    },
    {
      "constant": true,
      "inputs": [
        {
          "name": "_id",
          "type": "uint256"
        },
        {
          "name": "_idOfUpgrade",
          "type": "uint256"
        }
      ],
      "name": "checkUpgrade",
      "outputs": [
        {
          "name": "",
          "type": "bool"
        }
      ],
      "payable": false,
      "stateMutability": "view",
      "type": "function"
    },
    {
      "constant": true,
      "inputs": [
        {
          "name": "_id",
          "type": "uint256"
        }
      ],
      "name": "getBuildingData",
      "outputs": [
        {
          "name": "price",
          "type": "uint256"
        },
        {
          "name": "resource",
          "type": "uint256"
        },
        {
          "name": "blocks",
          "type": "uint256"
        }
      ],
      "payable": false,
      "stateMutability": "view",
      "type": "function"
    },
    {
      "constant": true,
      "inputs": [
        {
          "name": "_id",
          "type": "uint256"
        }
      ],
      "name": "getGoldAndCrystalRates",
      "outputs": [
        {
          "name": "goldRate",
          "type": "uint256"
        },
        {
          "name": "crystalRate",
          "type": "uint256"
        }
      ],
      "payable": false,
      "stateMutability": "view",
      "type": "function"
    },
    {
      "constant": true,
      "inputs": [
        {
          "name": "_id",
          "type": "uint256"
        }
      ],
      "name": "getBuildingTypeId",
      "outputs": [
        {
          "name": "",
          "type": "uint256"
        }
      ],
      "payable": false,
      "stateMutability": "view",
      "type": "function"
    },
    {
      "constant": true,
      "inputs": [
        {
          "name": "_id",
          "type": "uint256"
        }
      ],
      "name": "getGoldAndCrystalCapacity",
      "outputs": [
        {
          "name": "goldCapacity",
          "type": "uint256"
        },
        {
          "name": "crystalCapacity",
          "type": "uint256"
        }
      ],
      "payable": false,
      "stateMutability": "view",
      "type": "function"
    }
  ],
  "bytecode": "0x608060405234801561001057600080fd5b50336000806101000a81548173ffffffffffffffffffffffffffffffffffffffff021916908373ffffffffffffffffffffffffffffffffffffffff16021790555060003414151561006057600080fd5b612dc28061006f6000396000f300608060405260043610610133576000357c0100000000000000000000000000000000000000000000000000000000900463ffffffff168063059b3e2e1461014257806317ffc32014610191578063280d49b4146101d45780632aed7f3f146102315780633769feef14610274578063408def1e146102a35780634c96a062146102d057806354fd4d5014610412578063614ad27f1461043d5780636facbe2b1461047e5780637d08280a146104c35780638709e9da146104ee5780638bfa87711461053d5780638da5cb5b1461058557806399027c17146105dc5780639f727c271461061d578063b5142cff14610634578063bbe768a41461067c578063c0ee0b8a146106d7578063c457afa21461073c578063d4049b8c14610799578063dd6c7e31146107e6578063f2fde38b14610829575b34801561013f57600080fd5b50005b34801561014e57600080fd5b50610177600480360381019080803590602001909291908035906020019092919050505061086c565b604051808215151515815260200191505060405180910390f35b34801561019d57600080fd5b506101d2600480360381019080803573ffffffffffffffffffffffffffffffffffffffff1690602001909291905050506108af565b005b3480156101e057600080fd5b5061022f60048036038101908080359060200190929190803590602001908201803590602001919091929391929390803590602001908201803590602001919091929391929390505050610a34565b005b34801561023d57600080fd5b50610272600480360381019080803573ffffffffffffffffffffffffffffffffffffffff169060200190929190505050611204565b005b34801561028057600080fd5b5061028961133c565b604051808215151515815260200191505060405180910390f35b3480156102af57600080fd5b506102ce60048036038101908080359060200190929190505050611345565b005b3480156102dc57600080fd5b506102fb600480360381019080803590602001909291905050506113aa565b60405180806020018e60030b60030b81526020018d60030b60030b81526020018c60030b60030b81526020018b60030b60030b81526020018a60030b60030b81526020018960030b60030b81526020018860030b60030b81526020018760030b60030b81526020018660030b60030b81526020018560030b60030b81526020018460030b60030b81526020018360030b60030b815260200182810382528f818151815260200191508051906020019080838360005b838110156103cb5780820151818401526020810190506103b0565b50505050905090810190601f1680156103f85780820380516001836020036101000a031916815260200191505b509e50505050505050505050505050505060405180910390f35b34801561041e57600080fd5b50610427611544565b6040518082815260200191505060405180910390f35b34801561044957600080fd5b506104686004803603810190808035906020019092919050505061154a565b6040518082815260200191505060405180910390f35b34801561048a57600080fd5b506104a96004803603810190808035906020019092919050505061157a565b604051808215151515815260200191505060405180910390f35b3480156104cf57600080fd5b506104d861161c565b6040518082815260200191505060405180910390f35b3480156104fa57600080fd5b5061051960048036038101908080359060200190929190505050611629565b60405180848152602001838152602001828152602001935050505060405180910390f35b34801561054957600080fd5b5061056860048036038101908080359060200190929190505050611754565b604051808381526020018281526020019250505060405180910390f35b34801561059157600080fd5b5061059a611852565b604051808273ffffffffffffffffffffffffffffffffffffffff1673ffffffffffffffffffffffffffffffffffffffff16815260200191505060405180910390f35b3480156105e857600080fd5b5061060760048036038101908080359060200190929190505050611877565b6040518082815260200191505060405180910390f35b34801561062957600080fd5b5061063261189a565b005b34801561064057600080fd5b5061065f6004803603810190808035906020019092919050505061196c565b604051808381526020018281526020019250505060405180910390f35b34801561068857600080fd5b506106bd600480360381019080803573ffffffffffffffffffffffffffffffffffffffff169060200190929190505050611a6a565b604051808215151515815260200191505060405180910390f35b3480156106e357600080fd5b5061073a600480360381019080803573ffffffffffffffffffffffffffffffffffffffff16906020019092919080359060200190929190803590602001908201803590602001919091929391929390505050611a8a565b005b34801561074857600080fd5b5061079760048036038101908080359060200190929190803590602001908201803590602001919091929391929390803590602001908201803590602001919091929391929390505050611a8f565b005b3480156107a557600080fd5b506107e4600480360381019080803573ffffffffffffffffffffffffffffffffffffffff16906020019092919080359060200190929190505050611c93565b005b3480156107f257600080fd5b50610827600480360381019080803573ffffffffffffffffffffffffffffffffffffffff169060200190929190505050611e92565b005b34801561083557600080fd5b5061086a600480360381019080803573ffffffffffffffffffffffffffffffffffffffff169060200190929190505050612055565b005b60008260030b6003600084815260200190815260200160002060020160089054906101000a900460030b60030b1415156108a557600080fd5b6001905092915050565b60008060009054906101000a900473ffffffffffffffffffffffffffffffffffffffff1673ffffffffffffffffffffffffffffffffffffffff163373ffffffffffffffffffffffffffffffffffffffff1614151561090c57600080fd5b8173ffffffffffffffffffffffffffffffffffffffff166370a08231306040518263ffffffff167c0100000000000000000000000000000000000000000000000000000000028152600401808273ffffffffffffffffffffffffffffffffffffffff1673ffffffffffffffffffffffffffffffffffffffff168152602001915050602060405180830381600087803b1580156109a757600080fd5b505af11580156109bb573d6000803e3d6000fd5b505050506040513d60208110156109d157600080fd5b81019080805190602001909291905050509050610a306000809054906101000a900473ffffffffffffffffffffffffffffffffffffffff16828473ffffffffffffffffffffffffffffffffffffffff166121aa9092919063ffffffff16565b5050565b6000809054906101000a900473ffffffffffffffffffffffffffffffffffffffff1673ffffffffffffffffffffffffffffffffffffffff163373ffffffffffffffffffffffffffffffffffffffff16141515610a8f57600080fd5b604051806000019050604051809103902060001916600360008781526020019081526020016000206000016040518082805460018160011615610100020316600290048015610b155780601f10610af3576101008083540402835291820191610b15565b820191906000526020600020905b815481529060010190602001808311610b01575b5050915050604051809103902060001916141515610b3257600080fd5b60405180600001905060405180910390206000191684846040518083838082843782019150509250505060405180910390206000191614151515610b7557600080fd5b6000828260008181101515610b8657fe5b9050602002013560030b60030b12151515610ba057600080fd5b6000828260018181101515610bb157fe5b9050602002013560030b60030b12151515610bcb57600080fd5b6000828260028181101515610bdc57fe5b9050602002013560030b60030b12151515610bf657600080fd5b6000828260038181101515610c0757fe5b9050602002013560030b60030b12151515610c2157600080fd5b6000828260048181101515610c3257fe5b9050602002013560030b60030b12151515610c4c57600080fd5b6000828260058181101515610c5d57fe5b9050602002013560030b60030b12151515610c7757600080fd5b6000828260068181101515610c8857fe5b9050602002013560030b60030b12151515610ca257600080fd5b6000828260078181101515610cb357fe5b9050602002013560030b60030b12151515610ccd57600080fd5b6000828260088181101515610cde57fe5b9050602002013560030b60030b12151515610cf857600080fd5b6000828260098181101515610d0957fe5b9050602002013560030b60030b12151515610d2357600080fd5b60008282600a8181101515610d3457fe5b9050602002013560030b60030b12151515610d4e57600080fd5b60008282600b8181101515610d5f57fe5b9050602002013560030b60030b12151515610d7957600080fd5b6101a06040519081016040528085858080601f0160208091040260200160405190810160405280939291908181526020018383808284378201915050505050508152602001838360008181101515610dcd57fe5b9050602002013560030b60030b8152602001838360018181101515610dee57fe5b9050602002013560030b60030b8152602001838360028181101515610e0f57fe5b9050602002013560030b60030b8152602001838360038181101515610e3057fe5b9050602002013560030b60030b8152602001838360048181101515610e5157fe5b9050602002013560030b60030b8152602001838360058181101515610e7257fe5b9050602002013560030b60030b8152602001838360068181101515610e9357fe5b9050602002013560030b60030b8152602001838360078181101515610eb457fe5b9050602002013560030b60030b8152602001838360088181101515610ed557fe5b9050602002013560030b60030b8152602001838360098181101515610ef657fe5b9050602002013560030b60030b81526020018383600a8181101515610f1757fe5b9050602002013560030b60030b81526020018383600b8181101515610f3857fe5b9050602002013560030b60030b815250600360008781526020019081526020016000206000820151816000019080519060200190610f77929190612c71565b5060208201518160010160006101000a81548163ffffffff021916908360030b63ffffffff16021790555060408201518160010160046101000a81548163ffffffff021916908360030b63ffffffff16021790555060608201518160010160086101000a81548163ffffffff021916908360030b63ffffffff160217905550608082015181600101600c6101000a81548163ffffffff021916908360030b63ffffffff16021790555060a08201518160010160106101000a81548163ffffffff021916908360030b63ffffffff16021790555060c08201518160010160146101000a81548163ffffffff021916908360030b63ffffffff16021790555060e08201518160010160186101000a81548163ffffffff021916908360030b63ffffffff16021790555061010082015181600101601c6101000a81548163ffffffff021916908360030b63ffffffff1602179055506101208201518160020160006101000a81548163ffffffff021916908360030b63ffffffff1602179055506101408201518160020160046101000a81548163ffffffff021916908360030b63ffffffff1602179055506101608201518160020160086101000a81548163ffffffff021916908360030b63ffffffff16021790555061018082015181600201600c6101000a81548163ffffffff021916908360030b63ffffffff16021790555090505060048590806001815401808255809150509060018203906000526020600020016000909192909190915055507f6791e4b9812c79b9ac089b25c73b7e19ff69483a7d3166d248695060f15bb67a85858560405180848152602001806020018281038252848482818152602001925080828437820191505094505050505060405180910390a15050505050565b60008060009054906101000a900473ffffffffffffffffffffffffffffffffffffffff1673ffffffffffffffffffffffffffffffffffffffff163373ffffffffffffffffffffffffffffffffffffffff1614151561126157600080fd5b8190508073ffffffffffffffffffffffffffffffffffffffff1663f2fde38b6000809054906101000a900473ffffffffffffffffffffffffffffffffffffffff166040518263ffffffff167c0100000000000000000000000000000000000000000000000000000000028152600401808273ffffffffffffffffffffffffffffffffffffffff1673ffffffffffffffffffffffffffffffffffffffff168152602001915050600060405180830381600087803b15801561132057600080fd5b505af1158015611334573d6000803e3d6000fd5b505050505050565b60006001905090565b6000809054906101000a900473ffffffffffffffffffffffffffffffffffffffff1673ffffffffffffffffffffffffffffffffffffffff163373ffffffffffffffffffffffffffffffffffffffff161415156113a057600080fd5b8060018190555050565b6003602052806000526040600020600091509050806000018054600181600116156101000203166002900480601f0160208091040260200160405190810160405280929190818152602001828054600181600116156101000203166002900480156114565780601f1061142b57610100808354040283529160200191611456565b820191906000526020600020905b81548152906001019060200180831161143957829003601f168201915b5050505050908060010160009054906101000a900460030b908060010160049054906101000a900460030b908060010160089054906101000a900460030b9080600101600c9054906101000a900460030b908060010160109054906101000a900460030b908060010160149054906101000a900460030b908060010160189054906101000a900460030b9080600101601c9054906101000a900460030b908060020160009054906101000a900460030b908060020160049054906101000a900460030b908060020160089054906101000a900460030b9080600201600c9054906101000a900460030b90508d565b60015481565b600060036000838152602001908152602001600020600201600c9054906101000a900460030b60030b9050919050565b60006040518060000190506040518091039020600019166003600084815260200190815260200160002060000160405180828054600181600116156101000203166002900480156116025780601f106115e0576101008083540402835291820191611602565b820191906000526020600020905b8154815290600101906020018083116115ee575b505091505060405180910390206000191614159050919050565b6000600480549050905090565b60008060006040518060000190506040518091039020600019166003600086815260200190815260200160002060000160405180828054600181600116156101000203166002900480156116b45780601f106116925761010080835404028352918201916116b4565b820191906000526020600020905b8154815290600101906020018083116116a0575b5050915050604051809103902060001916141515156116d257600080fd5b60036000858152602001908152602001600020600101601c9054906101000a900460030b60030b6003600086815260200190815260200160002060020160009054906101000a900460030b60030b6003600087815260200190815260200160002060020160049054906101000a900460030b60030b9250925092509193909250565b6000806040518060000190506040518091039020600019166003600085815260200190815260200160002060000160405180828054600181600116156101000203166002900480156117dd5780601f106117bb5761010080835404028352918201916117dd565b820191906000526020600020905b8154815290600101906020018083116117c9575b5050915050604051809103902060001916141515156117fb57600080fd5b60036000848152602001908152602001600020600101600c9054906101000a900460030b60030b6003600085815260200190815260200160002060010160109054906101000a900460030b60030b91509150915091565b6000809054906101000a900473ffffffffffffffffffffffffffffffffffffffff1681565b60048181548110151561188657fe5b906000526020600020016000915090505481565b6000809054906101000a900473ffffffffffffffffffffffffffffffffffffffff1673ffffffffffffffffffffffffffffffffffffffff163373ffffffffffffffffffffffffffffffffffffffff161415156118f557600080fd5b6000809054906101000a900473ffffffffffffffffffffffffffffffffffffffff1673ffffffffffffffffffffffffffffffffffffffff166108fc3073ffffffffffffffffffffffffffffffffffffffff16319081150290604051600060405180830381858888f19350505050151561196a57fe5b565b6000806040518060000190506040518091039020600019166003600085815260200190815260200160002060000160405180828054600181600116156101000203166002900480156119f55780601f106119d35761010080835404028352918201916119f5565b820191906000526020600020905b8154815290600101906020018083116119e1575b505091505060405180910390206000191614151515611a1357600080fd5b6003600084815260200190815260200160002060010160149054906101000a900460030b60030b6003600085815260200190815260200160002060010160189054906101000a900460030b60030b91509150915091565b60026020528060005260406000206000915054906101000a900460ff1681565b600080fd5b6000809054906101000a900473ffffffffffffffffffffffffffffffffffffffff1673ffffffffffffffffffffffffffffffffffffffff163373ffffffffffffffffffffffffffffffffffffffff16141515611aea57600080fd5b604051806000019050604051809103902060001916600360008781526020019081526020016000206000016040518082805460018160011615610100020316600290048015611b705780601f10611b4e576101008083540402835291820191611b70565b820191906000526020600020905b815481529060010190602001808311611b5c575b505091505060405180910390206000191614151515611b8e57600080fd5b611bfa8585858080601f016020809104026020016040519081016040528093929190818152602001838380828437820191505050505050848480806020026020016040519081016040528093929190818152602001838360200280828437820191505050505050612295565b611c3385838380806020026020016040519081016040528093929190818152602001838360200280828437820191505050505050612655565b7fa635e865ddaef0e8f72f758131f2dcf57455111cef6a6a5d8741d33f7999d12485858560405180848152602001806020018281038252848482818152602001925080828437820191505094505050505060405180910390a15050505050565b6000809054906101000a900473ffffffffffffffffffffffffffffffffffffffff1673ffffffffffffffffffffffffffffffffffffffff163373ffffffffffffffffffffffffffffffffffffffff16141515611cee57600080fd5b8173ffffffffffffffffffffffffffffffffffffffff16633769feef6040518163ffffffff167c0100000000000000000000000000000000000000000000000000000000028152600401602060405180830381600087803b158015611d5257600080fd5b505af1158015611d66573d6000803e3d6000fd5b505050506040513d6020811015611d7c57600080fd5b81019080805190602001909291905050501515611d9857600080fd5b8173ffffffffffffffffffffffffffffffffffffffff166354fd4d506040518163ffffffff167c0100000000000000000000000000000000000000000000000000000000028152600401602060405180830381600087803b158015611dfc57600080fd5b505af1158015611e10573d6000803e3d6000fd5b505050506040513d6020811015611e2657600080fd5b810190808051906020019092919050505081111515611e4457600080fd5b81600560006101000a81548173ffffffffffffffffffffffffffffffffffffffff021916908373ffffffffffffffffffffffffffffffffffffffff160217905550611e8e81611345565b5050565b60011515600260003373ffffffffffffffffffffffffffffffffffffffff1673ffffffffffffffffffffffffffffffffffffffff16815260200190815260200160002060009054906101000a900460ff16151514151515611ef257600080fd5b6001548173ffffffffffffffffffffffffffffffffffffffff166354fd4d506040518163ffffffff167c0100000000000000000000000000000000000000000000000000000000028152600401602060405180830381600087803b158015611f5957600080fd5b505af1158015611f6d573d6000803e3d6000fd5b505050506040513d6020811015611f8357600080fd5b8101908080519060200190929190505050111515611fa057600080fd5b6001600260003373ffffffffffffffffffffffffffffffffffffffff1673ffffffffffffffffffffffffffffffffffffffff16815260200190815260200160002060006101000a81548160ff0219169083151502179055508073ffffffffffffffffffffffffffffffffffffffff163373ffffffffffffffffffffffffffffffffffffffff167fc123aa2e5c63456c59a4694ac50ba610152278a01162f3d5e3a6ffc457bc586e60405160405180910390a350565b6000809054906101000a900473ffffffffffffffffffffffffffffffffffffffff1673ffffffffffffffffffffffffffffffffffffffff163373ffffffffffffffffffffffffffffffffffffffff161415156120b057600080fd5b600073ffffffffffffffffffffffffffffffffffffffff168173ffffffffffffffffffffffffffffffffffffffff16141515156120ec57600080fd5b8073ffffffffffffffffffffffffffffffffffffffff166000809054906101000a900473ffffffffffffffffffffffffffffffffffffffff1673ffffffffffffffffffffffffffffffffffffffff167f8be0079c531659141344cd1fd0a4f28419497f9722a3daafe3b4186f6b6457e060405160405180910390a3806000806101000a81548173ffffffffffffffffffffffffffffffffffffffff021916908373ffffffffffffffffffffffffffffffffffffffff16021790555050565b8273ffffffffffffffffffffffffffffffffffffffff1663a9059cbb83836040518363ffffffff167c0100000000000000000000000000000000000000000000000000000000028152600401808373ffffffffffffffffffffffffffffffffffffffff1673ffffffffffffffffffffffffffffffffffffffff16815260200182815260200192505050602060405180830381600087803b15801561224d57600080fd5b505af1158015612261573d6000803e3d6000fd5b505050506040513d602081101561227757600080fd5b8101908080519060200190929190505050151561229057fe5b505050565b604051806000019050604051809103902060001916826040518082805190602001908083835b6020831015156122e057805182526020820191506020810190506020830392506122bb565b6001836020036101000a0380198251168184511680821785525050505050509050019150506040518091039020600019161415156123445781600360008581526020019081526020016000206000019080519060200190612342929190612cf1565b505b600081600081518110151561235557fe5b9060200190602002015160030b121580156123b1575080600081518110151561237a57fe5b9060200190602002015160030b6003600085815260200190815260200160002060010160009054906101000a900460030b60030b14155b15612407578060008151811015156123c557fe5b906020019060200201516003600085815260200190815260200160002060010160006101000a81548163ffffffff021916908360030b63ffffffff1602179055505b600081600181518110151561241857fe5b9060200190602002015160030b12158015612474575080600181518110151561243d57fe5b9060200190602002015160030b6003600085815260200190815260200160002060010160049054906101000a900460030b60030b14155b156124ca5780600181518110151561248857fe5b906020019060200201516003600085815260200190815260200160002060010160046101000a81548163ffffffff021916908360030b63ffffffff1602179055505b60008160028151811015156124db57fe5b9060200190602002015160030b12158015612537575080600281518110151561250057fe5b9060200190602002015160030b6003600085815260200190815260200160002060010160089054906101000a900460030b60030b14155b1561258d5780600281518110151561254b57fe5b906020019060200201516003600085815260200190815260200160002060010160086101000a81548163ffffffff021916908360030b63ffffffff1602179055505b600081600381518110151561259e57fe5b9060200190602002015160030b121580156125fa57508060038151811015156125c357fe5b9060200190602002015160030b60036000858152602001908152602001600020600101600c9054906101000a900460030b60030b14155b156126505780600381518110151561260e57fe5b9060200190602002015160036000858152602001908152602001600020600101600c6101000a81548163ffffffff021916908360030b63ffffffff1602179055505b505050565b600081600481518110151561266657fe5b9060200190602002015160030b121580156126c2575080600481518110151561268b57fe5b9060200190602002015160030b6003600084815260200190815260200160002060010160109054906101000a900460030b60030b14155b15612718578060048151811015156126d657fe5b906020019060200201516003600084815260200190815260200160002060010160106101000a81548163ffffffff021916908360030b63ffffffff1602179055505b600081600581518110151561272957fe5b9060200190602002015160030b12158015612785575080600581518110151561274e57fe5b9060200190602002015160030b6003600084815260200190815260200160002060010160149054906101000a900460030b60030b14155b156127db5780600581518110151561279957fe5b906020019060200201516003600084815260200190815260200160002060010160146101000a81548163ffffffff021916908360030b63ffffffff1602179055505b60008160068151811015156127ec57fe5b9060200190602002015160030b12158015612848575080600681518110151561281157fe5b9060200190602002015160030b6003600084815260200190815260200160002060010160189054906101000a900460030b60030b14155b1561289e5780600681518110151561285c57fe5b906020019060200201516003600084815260200190815260200160002060010160186101000a81548163ffffffff021916908360030b63ffffffff1602179055505b60008160078151811015156128af57fe5b9060200190602002015160030b1215801561290b57508060078151811015156128d457fe5b9060200190602002015160030b60036000848152602001908152602001600020600101601c9054906101000a900460030b60030b14155b156129615780600781518110151561291f57fe5b9060200190602002015160036000848152602001908152602001600020600101601c6101000a81548163ffffffff021916908360030b63ffffffff1602179055505b600081600881518110151561297257fe5b9060200190602002015160030b121580156129ce575080600881518110151561299757fe5b9060200190602002015160030b6003600084815260200190815260200160002060020160009054906101000a900460030b60030b14155b15612a24578060088151811015156129e257fe5b906020019060200201516003600084815260200190815260200160002060020160006101000a81548163ffffffff021916908360030b63ffffffff1602179055505b6000816009815181101515612a3557fe5b9060200190602002015160030b12158015612a915750806009815181101515612a5a57fe5b9060200190602002015160030b6003600084815260200190815260200160002060020160049054906101000a900460030b60030b14155b15612ae757806009815181101515612aa557fe5b906020019060200201516003600084815260200190815260200160002060020160046101000a81548163ffffffff021916908360030b63ffffffff1602179055505b600081600a815181101515612af857fe5b9060200190602002015160030b12158015612b54575080600a815181101515612b1d57fe5b9060200190602002015160030b6003600084815260200190815260200160002060020160089054906101000a900460030b60030b14155b15612baa5780600a815181101515612b6857fe5b906020019060200201516003600084815260200190815260200160002060020160086101000a81548163ffffffff021916908360030b63ffffffff1602179055505b600081600b815181101515612bbb57fe5b9060200190602002015160030b12158015612c17575080600b815181101515612be057fe5b9060200190602002015160030b60036000848152602001908152602001600020600201600c9054906101000a900460030b60030b14155b15612c6d5780600b815181101515612c2b57fe5b9060200190602002015160036000848152602001908152602001600020600201600c6101000a81548163ffffffff021916908360030b63ffffffff1602179055505b5050565b828054600181600116156101000203166002900490600052602060002090601f016020900481019282601f10612cb257805160ff1916838001178555612ce0565b82800160010185558215612ce0579182015b82811115612cdf578251825591602001919060010190612cc4565b5b509050612ced9190612d71565b5090565b828054600181600116156101000203166002900490600052602060002090601f016020900481019282601f10612d3257805160ff1916838001178555612d60565b82800160010185558215612d60579182015b82811115612d5f578251825591602001919060010190612d44565b5b509050612d6d9190612d71565b5090565b612d9391905b80821115612d8f576000816000905550600101612d77565b5090565b905600a165627a7a723058207143b53cf77ec545f4a2634ffc04e37628fbb8e7390376d1f2d2cf2209a0d5580029",
  "source": "pragma solidity ^0.4.23;\n\nimport 'zeppelin-solidity/contracts/ownership/NoOwner.sol';\nimport './Versioned.sol';\n\n/**\n * @title BuildingsData (WIP)\n * @notice This contract specifies how buildings are set up.\n * @dev You can add buildings and update them\n * @dev Issue: * https://github.com/e11-io/crypto-wars-solidity/issues/5\n */\ncontract BuildingsData is NoOwner, Versioned {\n\n  /**\n   * @dev event for adding building to contract logging\n   * @param id of the added building\n   * @param name the name of the building\n   */\n  event AddBuilding(uint id, string name);\n\n  /**\n   * event for updating a building logging\n   * @param id of the updated building\n   * @param name the name of the building\n   */\n  event UpdateBuilding(uint id, string name);\n\n  struct Building {\n    string name;\n    int32 health;\n    int32 defense;\n    int32 attack;\n    int32 goldCapacity;\n    int32 crystalCapacity;\n    int32 goldRate;\n    int32 crystalRate;\n    int32 price;\n    int32 resource;\n    int32 blocks;\n    int32 previousLevelId;\n    int32 typeId;\n  }\n\n  // Mapping of id -> building struct.\n  mapping (uint => Building) public buildings;\n\n  uint[] public buildingIds;\n\n  BuildingsData previousBuildingsData;\n\n  /*\n   * @notice Constructor: Instantiate Buildings Data contract.\n   * @dev Constructor function.\n   */\n  constructor() public {\n  }\n\n  /*\n   * @notice Makes the contract type verifiable.\n   * @dev Function to prove the contract is Buildings Data.\n   */\n  function isBuildingsData() external pure returns (bool) {\n    return true;\n  }\n\n  /*\n   * @notice Sets the contract's version and instantiates the previous version contract.\n   * @dev Function to set the contract version and instantiate the previous Buildings Data.\n   * @param _previousBuildingsData the address of previous Buildings Data contract. (address)\n   * @param _version the current contract version number. (uint)\n   */\n  function setBuildingsDataVersion(BuildingsData _previousBuildingsData, uint _version) external onlyOwner {\n    require(_previousBuildingsData.isBuildingsData());\n    require(_version > _previousBuildingsData.version());\n    previousBuildingsData = _previousBuildingsData;\n    setVersion(_version);\n  }\n\n  /*\n   * @notice Get the amount of existing buildings.\n   */\n  function getBuildingIdsLength() external view returns(uint) {\n    return buildingIds.length;\n  }\n\n  /*\n   * @notice Create new definition of a building\n   * @dev This method create a new Building definition that can be use on the game.\n   * @param id (uint)\n   * @param name (string)\n   * @stats array of stats for the new building: (int32[])\n   *      health (int)\n   *      defense (int)\n   *      attack (int)\n   *      goldCapacity (int)\n   *      crystalCapacity (int)\n   *      goldRate (int)\n   *      crystalRate (int)\n   *      price (int)\n   *      resource (int)\n   *      blocks (int)\n   *      previousLevelId (int)\n   *      typeId (int)\n   */\n  function addBuilding(uint id,\n                       string name,\n                       int32[] stats) external onlyOwner {\n\n    require(keccak256(buildings[id].name) == keccak256(\"\"));\n    require(keccak256(name) != keccak256(\"\"));\n    require(stats[0] >= 0); //\"health\"\n    require(stats[1] >= 0); //\"defense\"\n    require(stats[2] >= 0); //\"attack\"\n    require(stats[3] >= 0); //\"goldCapacity\"\n    require(stats[4] >= 0); //\"crystalCapacity\"\n    require(stats[5] >= 0); //\"goldRate\"\n    require(stats[6] >= 0); //\"crystalRate\"\n    require(stats[7] >= 0); //\"price\"\n    require(stats[8] >= 0); //\"resource\"\n    require(stats[9] >= 0); //\"block\"\n    require(stats[10] >= 0); //\"previousLevelId\"\n    require(stats[11] >= 0); //\"typeId\"\n\n    buildings[id] = Building(name,\n                             stats[0],\n                             stats[1],\n                             stats[2],\n                             stats[3],\n                             stats[4],\n                             stats[5],\n                             stats[6],\n                             stats[7],\n                             stats[8],\n                             stats[9],\n                             stats[10],\n                             stats[11]);\n    buildingIds.push(id);\n    emit AddBuilding(id, name);\n  }\n\n  /*\n   * @title Update building\n   * @dev This method is used to update buildings name and stats\n   * @param id (uint)\n   * @stats array of stats for the new building: (int32[])\n   *      health (int)\n   *      defense (int)\n   *      attack (int)\n   *      goldCapacity (int)\n   *      crystalCapacity (int)\n   *      goldRate (int)\n   *      crystalRate (int)\n   *      price (int)\n   *      resource (int)\n   *      blocks (int)\n   *      previousLevelId (int)\n   *      typeId (int)\n   */\n  function updateBuilding(uint id,\n                          string name,\n                          int32[] stats) external onlyOwner {\n    require(keccak256(buildings[id].name) != keccak256(\"\"));\n\n    updateBuildingBasicsA(id, name, stats);\n    updateBuildingBasicsB(id, stats);\n\n    emit UpdateBuilding(id, name);\n  }\n\n  /*\n   * @title Update Building Basics A\n   * @dev This method does part of the checks to update or not each stat.\n   * Its necessary to divide in two function because of the limited amout of storage\n   * variables solidity allows to use.\n   * @param id (uint)\n   * @stats array of stats for the new building: (int32[])\n   *      health (int)\n   *      defense (int)\n   *      attack (int)\n   *      goldCapacity (int)\n   *      crystalCapacity (int)\n   *      goldRate (int)\n   *      crystalRate (int)\n   *      price (int)\n   *      resource (int)\n   *      blocks (int)\n   *      previousLevelId (int)\n   *      typeId (int)\n   */\n  function updateBuildingBasicsA(uint id, string name, int32[] stats) internal {\n      if (keccak256(name) != keccak256(\"\")) {\n        buildings[id].name = name;\n      }\n      if (stats[0] >= 0 && buildings[id].health != stats[0]) {\n        buildings[id].health = stats[0];\n      }\n      if (stats[1] >= 0 && buildings[id].defense != stats[1]) {\n        buildings[id].defense = stats[1];\n      }\n      if (stats[2] >= 0 && buildings[id].attack != stats[2]) {\n        buildings[id].attack = stats[2];\n      }\n      if (stats[3] >= 0 && buildings[id].goldCapacity != stats[3]) {\n        buildings[id].goldCapacity = stats[3];\n      }\n  }\n\n  /*\n   * @title Update Building Basics B\n   * @dev This method does part of the checks to update or not each stat.\n   * Its necessary to divide in two function because of the limited amout of storage\n   * variables solidity allows to use.\n   * @param id (uint)\n   * @stats array of stats for the new building: (int32[])\n   *      health (int)\n   *      defense (int)\n   *      attack (int)\n   *      goldCapacity (int)\n   *      crystalCapacity (int)\n   *      goldRate (int)\n   *      crystalRate (int)\n   *      price (int)\n   *      resource (int)\n   *      blocks (int)\n   *      previousLevelId (int)\n   *      typeId (int)\n   */\n  function updateBuildingBasicsB(uint id, int32[] stats) internal {\n      if (stats[4] >= 0 && buildings[id].crystalCapacity != stats[4]) {\n        buildings[id].crystalCapacity = stats[4];\n      }\n      if (stats[5] >= 0 && buildings[id].goldRate != stats[5]) {\n        buildings[id].goldRate = stats[5];\n      }\n      if (stats[6] >= 0 && buildings[id].crystalRate != stats[6]) {\n        buildings[id].crystalRate = stats[6];\n      }\n      if (stats[7] >= 0 && buildings[id].price != stats[7]) {\n        buildings[id].price = stats[7];\n      }\n      if (stats[8] >= 0 && buildings[id].resource != stats[8]) {\n        buildings[id].resource = stats[8];\n      }\n      if (stats[9] >= 0 && buildings[id].blocks != stats[9]) {\n        buildings[id].blocks = stats[9];\n      }\n      if (stats[10] >= 0 && buildings[id].previousLevelId != stats[10]) {\n        buildings[id].previousLevelId = stats[10];\n      }\n      if (stats[11] >= 0 && buildings[id].typeId != stats[11]) {\n        buildings[id].typeId = stats[11];\n      }\n  }\n\n  /*\n   * @title Check Building Exist\n   * @dev Check if a building exists.\n   * @param _id The id of the building to check. (uint)\n   * @return A boolean that indicates if the building exists or not.\n   */\n  function checkBuildingExist(uint _id) external view returns (bool) {\n    return keccak256(buildings[_id].name) != keccak256(\"\");\n  }\n\n  /*\n   * @title Check Upgrade\n   * @dev Check if the id of the previous level is the correct.\n   * @param _id The id of the previous level building. (uint)\n   * @param _idOfUpgrade The id of the upgrade. (uint)\n   * @return A boolean that indicates if the ids match or not.\n   */\n  function checkUpgrade(uint _id, uint _idOfUpgrade) external view returns (bool) {\n    require(buildings[_idOfUpgrade].previousLevelId == int32(_id));\n    return true;\n  }\n\n  /*\n   * @title Get Building Data\n   * @dev Get the price, resource type and number of blocks a building takes to build.\n   * @param _id The id of the building. (uint)\n   * @return An three uints.\n   */\n  function getBuildingData(uint _id) external view returns (uint price,\n                                                            uint resource,\n                                                            uint blocks) {\n    require(keccak256(buildings[_id].name) != keccak256(\"\"));\n    return (\n      uint(buildings[_id].price),\n      uint(buildings[_id].resource),\n      uint(buildings[_id].blocks)\n    );\n  }\n\n  /*\n   * @title Get Gold And Crystal Rates\n   * @dev Get the amount of gold and crystal a building produce for block.\n   * @param _id The id of the building. (uint)\n   * @return An two uints.\n   */\n  function getGoldAndCrystalRates(uint _id) external view returns (uint goldRate,\n                                                                   uint crystalRate) {\n    require(keccak256(buildings[_id].name) != keccak256(\"\"));\n    return (uint(buildings[_id].goldRate), uint(buildings[_id].crystalRate));\n  }\n\n  /*\n   * @title Get Building Type Id\n   * @dev Get the type id of a building.\n   */\n  function getBuildingTypeId(uint _id) external view returns (uint) {\n    return uint(buildings[_id].typeId);\n  }\n\n  /*\n   * @title Get Gold and Crystal Capacity\n   * @dev Get the gold a crystal capacity of a building.\n   */\n  function getGoldAndCrystalCapacity(uint _id) external view returns (uint goldCapacity,\n                                                                      uint crystalCapacity) {\n    require(keccak256(buildings[_id].name) != keccak256(\"\"));\n    return (uint(buildings[_id].goldCapacity), uint(buildings[_id].crystalCapacity));\n  }\n\n}\n",
  "sourcePath": "/home/francisco/Truffle/crypto-wars-solidity/contracts/BuildingsData.sol",
  "compiler": {
    "name": "solc",
    "version": "0.4.23+commit.124ca40d.Emscripten.clang"
  },
  "schemaVersion": "2.0.0",
  "updatedAt": "2018-04-26T19:14:33.730Z"
}