{
  "contractName": "BuildingsQueue",
  "abi": [
    {
      "constant": false,
      "inputs": [
        {
          "name": "token",
          "type": "address"
        }
      ],
      "name": "reclaimToken",
      "outputs": [],
      "payable": false,
      "stateMutability": "nonpayable",
      "type": "function"
    },
    {
      "constant": false,
      "inputs": [
        {
          "name": "contractAddr",
          "type": "address"
        }
      ],
      "name": "reclaimContract",
      "outputs": [],
      "payable": false,
      "stateMutability": "nonpayable",
      "type": "function"
    },
    {
      "constant": false,
      "inputs": [
        {
          "name": "_version",
          "type": "uint256"
        }
      ],
      "name": "setVersion",
      "outputs": [],
      "payable": false,
      "stateMutability": "nonpayable",
      "type": "function"
    },
    {
      "constant": true,
      "inputs": [
        {
          "name": "",
          "type": "address"
        },
        {
          "name": "",
          "type": "uint256"
        }
      ],
      "name": "userBuildingsQueue",
      "outputs": [
        {
          "name": "id",
          "type": "uint32"
        },
        {
          "name": "index",
          "type": "uint32"
        },
        {
          "name": "startBlock",
          "type": "uint64"
        },
        {
          "name": "endBlock",
          "type": "uint64"
        }
      ],
      "payable": false,
      "stateMutability": "view",
      "type": "function"
    },
    {
      "constant": true,
      "inputs": [],
      "name": "version",
      "outputs": [
        {
          "name": "",
          "type": "uint256"
        }
      ],
      "payable": false,
      "stateMutability": "view",
      "type": "function"
    },
    {
      "constant": true,
      "inputs": [],
      "name": "owner",
      "outputs": [
        {
          "name": "",
          "type": "address"
        }
      ],
      "payable": false,
      "stateMutability": "view",
      "type": "function"
    },
    {
      "constant": false,
      "inputs": [],
      "name": "reclaimEther",
      "outputs": [],
      "payable": false,
      "stateMutability": "nonpayable",
      "type": "function"
    },
    {
      "constant": true,
      "inputs": [
        {
          "name": "",
          "type": "address"
        }
      ],
      "name": "migratedUsers",
      "outputs": [
        {
          "name": "",
          "type": "bool"
        }
      ],
      "payable": false,
      "stateMutability": "view",
      "type": "function"
    },
    {
      "constant": false,
      "inputs": [
        {
          "name": "from_",
          "type": "address"
        },
        {
          "name": "value_",
          "type": "uint256"
        },
        {
          "name": "data_",
          "type": "bytes"
        }
      ],
      "name": "tokenFallback",
      "outputs": [],
      "payable": false,
      "stateMutability": "nonpayable",
      "type": "function"
    },
    {
      "constant": false,
      "inputs": [
        {
          "name": "_newContract",
          "type": "address"
        }
      ],
      "name": "migrateUser",
      "outputs": [],
      "payable": false,
      "stateMutability": "nonpayable",
      "type": "function"
    },
    {
      "constant": false,
      "inputs": [
        {
          "name": "newOwner",
          "type": "address"
        }
      ],
      "name": "transferOwnership",
      "outputs": [],
      "payable": false,
      "stateMutability": "nonpayable",
      "type": "function"
    },
    {
      "inputs": [],
      "payable": false,
      "stateMutability": "nonpayable",
      "type": "constructor"
    },
    {
      "payable": false,
      "stateMutability": "nonpayable",
      "type": "fallback"
    },
    {
      "anonymous": false,
      "inputs": [
        {
          "indexed": false,
          "name": "_user",
          "type": "address"
        },
        {
          "indexed": false,
          "name": "_id",
          "type": "uint256"
        },
        {
          "indexed": false,
          "name": "_index",
          "type": "uint256"
        },
        {
          "indexed": false,
          "name": "_startBlock",
          "type": "uint256"
        },
        {
          "indexed": false,
          "name": "_endBlock",
          "type": "uint256"
        }
      ],
      "name": "AddNewBuildingToQueue",
      "type": "event"
    },
    {
      "anonymous": false,
      "inputs": [
        {
          "indexed": false,
          "name": "_user",
          "type": "address"
        },
        {
          "indexed": false,
          "name": "_ids",
          "type": "uint256[]"
        },
        {
          "indexed": false,
          "name": "_indexes",
          "type": "uint256[]"
        }
      ],
      "name": "UpdateQueue",
      "type": "event"
    },
    {
      "anonymous": false,
      "inputs": [
        {
          "indexed": false,
          "name": "_idOfUpgrade",
          "type": "uint256"
        },
        {
          "indexed": false,
          "name": "_index",
          "type": "uint256"
        },
        {
          "indexed": false,
          "name": "startBlock",
          "type": "uint256"
        },
        {
          "indexed": false,
          "name": "endBlock",
          "type": "uint256"
        }
      ],
      "name": "UpgradeBuilding",
      "type": "event"
    },
    {
      "anonymous": false,
      "inputs": [
        {
          "indexed": false,
          "name": "_user",
          "type": "address"
        },
        {
          "indexed": false,
          "name": "_id",
          "type": "uint256"
        },
        {
          "indexed": false,
          "name": "_index",
          "type": "uint256"
        }
      ],
      "name": "RemoveBuilding",
      "type": "event"
    },
    {
      "anonymous": false,
      "inputs": [
        {
          "indexed": true,
          "name": "user",
          "type": "address"
        },
        {
          "indexed": true,
          "name": "newContract",
          "type": "address"
        }
      ],
      "name": "UserMigrated",
      "type": "event"
    },
    {
      "anonymous": false,
      "inputs": [
        {
          "indexed": true,
          "name": "previousOwner",
          "type": "address"
        },
        {
          "indexed": true,
          "name": "newOwner",
          "type": "address"
        }
      ],
      "name": "OwnershipTransferred",
      "type": "event"
    },
    {
      "constant": true,
      "inputs": [],
      "name": "isBuildingsQueue",
      "outputs": [
        {
          "name": "",
          "type": "bool"
        }
      ],
      "payable": false,
      "stateMutability": "pure",
      "type": "function"
    },
    {
      "constant": false,
      "inputs": [
        {
          "name": "_previousBuildingsQueue",
          "type": "address"
        },
        {
          "name": "_version",
          "type": "uint256"
        }
      ],
      "name": "setBuildingsQueueVersion",
      "outputs": [],
      "payable": false,
      "stateMutability": "nonpayable",
      "type": "function"
    },
    {
      "constant": false,
      "inputs": [
        {
          "name": "_userBuildings",
          "type": "address"
        }
      ],
      "name": "setUserBuildings",
      "outputs": [],
      "payable": false,
      "stateMutability": "nonpayable",
      "type": "function"
    },
    {
      "constant": false,
      "inputs": [
        {
          "name": "_buildingsData",
          "type": "address"
        }
      ],
      "name": "setBuildingsData",
      "outputs": [],
      "payable": false,
      "stateMutability": "nonpayable",
      "type": "function"
    },
    {
      "constant": false,
      "inputs": [
        {
          "name": "_userResources",
          "type": "address"
        }
      ],
      "name": "setUserResources",
      "outputs": [],
      "payable": false,
      "stateMutability": "nonpayable",
      "type": "function"
    },
    {
      "constant": false,
      "inputs": [
        {
          "name": "_id",
          "type": "uint256"
        }
      ],
      "name": "addNewBuildingToQueue",
      "outputs": [],
      "payable": false,
      "stateMutability": "nonpayable",
      "type": "function"
    },
    {
      "constant": false,
      "inputs": [
        {
          "name": "_user",
          "type": "address"
        }
      ],
      "name": "updateQueue",
      "outputs": [],
      "payable": false,
      "stateMutability": "nonpayable",
      "type": "function"
    },
    {
      "constant": false,
      "inputs": [
        {
          "name": "_id",
          "type": "uint256"
        },
        {
          "name": "_idOfUpgrade",
          "type": "uint256"
        },
        {
          "name": "_index",
          "type": "uint256"
        }
      ],
      "name": "upgradeBuilding",
      "outputs": [],
      "payable": false,
      "stateMutability": "nonpayable",
      "type": "function"
    },
    {
      "constant": true,
      "inputs": [
        {
          "name": "_user",
          "type": "address"
        },
        {
          "name": "_id",
          "type": "uint256"
        },
        {
          "name": "_index",
          "type": "uint256"
        }
      ],
      "name": "findBuildingInQueue",
      "outputs": [
        {
          "name": "exists",
          "type": "bool"
        },
        {
          "name": "indexInQueue",
          "type": "uint256"
        }
      ],
      "payable": false,
      "stateMutability": "view",
      "type": "function"
    },
    {
      "constant": true,
      "inputs": [
        {
          "name": "_user",
          "type": "address"
        }
      ],
      "name": "getLastUserBuilding",
      "outputs": [
        {
          "name": "id",
          "type": "uint256"
        },
        {
          "name": "startBlock",
          "type": "uint256"
        },
        {
          "name": "endBlock",
          "type": "uint256"
        }
      ],
      "payable": false,
      "stateMutability": "view",
      "type": "function"
    },
    {
      "constant": true,
      "inputs": [
        {
          "name": "_user",
          "type": "address"
        }
      ],
      "name": "getBuildingsInQueue",
      "outputs": [
        {
          "name": "",
          "type": "uint256[]"
        }
      ],
      "payable": false,
      "stateMutability": "view",
      "type": "function"
    },
    {
      "constant": true,
      "inputs": [
        {
          "name": "_user",
          "type": "address"
        }
      ],
      "name": "getBuildings",
      "outputs": [
        {
          "name": "",
          "type": "uint256[]"
        },
        {
          "name": "",
          "type": "uint256[]"
        },
        {
          "name": "",
          "type": "uint256[]"
        },
        {
          "name": "",
          "type": "uint256[]"
        }
      ],
      "payable": false,
      "stateMutability": "view",
      "type": "function"
    },
    {
      "constant": true,
      "inputs": [
        {
          "name": "_user",
          "type": "address"
        },
        {
          "name": "_indexInQueue",
          "type": "uint256"
        }
      ],
      "name": "getBuildingIdAndEndBlock",
      "outputs": [
        {
          "name": "id",
          "type": "uint256"
        },
        {
          "name": "endBlock",
          "type": "uint256"
        }
      ],
      "payable": false,
      "stateMutability": "view",
      "type": "function"
    },
    {
      "constant": true,
      "inputs": [
        {
          "name": "_user",
          "type": "address"
        },
        {
          "name": "_indexInQueue",
          "type": "uint256"
        }
      ],
      "name": "getBuildingIndex",
      "outputs": [
        {
          "name": "id",
          "type": "uint256"
        },
        {
          "name": "index",
          "type": "uint256"
        }
      ],
      "payable": false,
      "stateMutability": "view",
      "type": "function"
    },
    {
      "constant": true,
      "inputs": [
        {
          "name": "_user",
          "type": "address"
        }
      ],
      "name": "getUserQueueResources",
      "outputs": [
        {
          "name": "queueGold",
          "type": "uint256"
        },
        {
          "name": "queueCrystal",
          "type": "uint256"
        }
      ],
      "payable": false,
      "stateMutability": "view",
      "type": "function"
    },
    {
      "constant": true,
      "inputs": [
        {
          "name": "_user",
          "type": "address"
        }
      ],
      "name": "getBuildingsQueueLength",
      "outputs": [
        {
          "name": "length",
          "type": "uint256"
        }
      ],
      "payable": false,
      "stateMutability": "view",
      "type": "function"
    },
    {
      "constant": false,
      "inputs": [
        {
          "name": "_id",
          "type": "uint256"
        },
        {
          "name": "_index",
          "type": "uint256"
        }
      ],
      "name": "cancelBuilding",
      "outputs": [],
      "payable": false,
      "stateMutability": "nonpayable",
      "type": "function"
    },
    {
      "constant": true,
      "inputs": [
        {
          "name": "_user",
          "type": "address"
        }
      ],
      "name": "getUserResourcesCapacity",
      "outputs": [
        {
          "name": "totalGoldCapacity",
          "type": "uint256"
        },
        {
          "name": "totalCrystalCapacity",
          "type": "uint256"
        }
      ],
      "payable": false,
      "stateMutability": "view",
      "type": "function"
    }
  ],
  "bytecode": "0x606060405234156200001057600080fd5b336000806101000a81548173ffffffffffffffffffffffffffffffffffffffff021916908373ffffffffffffffffffffffffffffffffffffffff1602179055506000341415156200006057600080fd5b61580380620000706000396000f300606060405260043610610175576000357c0100000000000000000000000000000000000000000000000000000000900463ffffffff16806311c68f1e1461018257806317ffc3201461021057806324357211146102495780632a730410146102825780632aed7f3f146103e85780633f12cad014610421578063408def1e1461047c57806347ac61361461049f57806354fd4d501461054a578063689926771461057357806379eac4cc146105dd5780637c29763f1461061f5780638da5cb5b1461064b57806396dc25b9146106a05780639f727c27146106d9578063bbe768a4146106ee578063bfb4bbae1461073f578063bfe97e721461076c578063c0ee0b8a146107c9578063c3251e551461081f578063c5fbe6ce14610858578063cc6ebc8b146108b5578063d5b999fd146108ea578063dd6c7e3114610923578063e1247d0c1461095c578063eb80520d1461097f578063ec87155d146109d3578063f2fde38b14610a27578063f47579a714610a60575b341561018057600080fd5b005b341561018d57600080fd5b6101b9600480803573ffffffffffffffffffffffffffffffffffffffff16906020019091905050610aad565b6040518080602001828103825283818151815260200191508051906020019060200280838360005b838110156101fc5780820151818401526020810190506101e1565b505050509050019250505060405180910390f35b341561021b57600080fd5b610247600480803573ffffffffffffffffffffffffffffffffffffffff16906020019091905050610c14565b005b341561025457600080fd5b610280600480803573ffffffffffffffffffffffffffffffffffffffff16906020019091905050610d81565b005b341561028d57600080fd5b6102b9600480803573ffffffffffffffffffffffffffffffffffffffff16906020019091905050610eb2565b6040518080602001806020018060200180602001858103855289818151815260200191508051906020019060200280838360005b838110156103085780820151818401526020810190506102ed565b50505050905001858103845288818151815260200191508051906020019060200280838360005b8381101561034a57808201518184015260208101905061032f565b50505050905001858103835287818151815260200191508051906020019060200280838360005b8381101561038c578082015181840152602081019050610371565b50505050905001858103825286818151815260200191508051906020019060200280838360005b838110156103ce5780820151818401526020810190506103b3565b505050509050019850505050505050505060405180910390f35b34156103f357600080fd5b61041f600480803573ffffffffffffffffffffffffffffffffffffffff16906020019091905050611271565b005b341561042c57600080fd5b610458600480803573ffffffffffffffffffffffffffffffffffffffff169060200190919050506113a4565b60405180848152602001838152602001828152602001935050505060405180910390f35b341561048757600080fd5b61049d600480803590602001909190505061154d565b005b34156104aa57600080fd5b6104df600480803573ffffffffffffffffffffffffffffffffffffffff169060200190919080359060200190919050506115b2565b604051808563ffffffff1663ffffffff1681526020018463ffffffff1663ffffffff1681526020018367ffffffffffffffff1667ffffffffffffffff1681526020018267ffffffffffffffff1667ffffffffffffffff16815260200194505050505060405180910390f35b341561055557600080fd5b61055d611643565b6040518082815260200191505060405180910390f35b341561057e57600080fd5b6105bc600480803573ffffffffffffffffffffffffffffffffffffffff16906020019091908035906020019091908035906020019091905050611649565b60405180831515151581526020018281526020019250505060405180910390f35b34156105e857600080fd5b61061d600480803573ffffffffffffffffffffffffffffffffffffffff169060200190919080359060200190919050506117bc565b005b341561062a57600080fd5b610649600480803590602001909190803590602001909190505061198b565b005b341561065657600080fd5b61065e611d55565b604051808273ffffffffffffffffffffffffffffffffffffffff1673ffffffffffffffffffffffffffffffffffffffff16815260200191505060405180910390f35b34156106ab57600080fd5b6106d7600480803573ffffffffffffffffffffffffffffffffffffffff16906020019091905050611d7a565b005b34156106e457600080fd5b6106ec611eab565b005b34156106f957600080fd5b610725600480803573ffffffffffffffffffffffffffffffffffffffff16906020019091905050611f7d565b604051808215151515815260200191505060405180910390f35b341561074a57600080fd5b610752611f9d565b604051808215151515815260200191505060405180910390f35b341561077757600080fd5b6107ac600480803573ffffffffffffffffffffffffffffffffffffffff16906020019091908035906020019091905050611fa6565b604051808381526020018281526020019250505060405180910390f35b34156107d457600080fd5b61081d600480803573ffffffffffffffffffffffffffffffffffffffff169060200190919080359060200190919080359060200190820180359060200191909192905050612128565b005b341561082a57600080fd5b610856600480803573ffffffffffffffffffffffffffffffffffffffff1690602001909190505061212d565b005b341561086357600080fd5b610898600480803573ffffffffffffffffffffffffffffffffffffffff1690602001909190803590602001909190505061276a565b604051808381526020018281526020019250505060405180910390f35b34156108c057600080fd5b6108e860048080359060200190919080359060200190919080359060200190919050506128b8565b005b34156108f557600080fd5b610921600480803573ffffffffffffffffffffffffffffffffffffffff16906020019091905050612f53565b005b341561092e57600080fd5b61095a600480803573ffffffffffffffffffffffffffffffffffffffff16906020019091905050613084565b005b341561096757600080fd5b61097d600480803590602001909190505061322f565b005b341561098a57600080fd5b6109b6600480803573ffffffffffffffffffffffffffffffffffffffff169060200190919050506138ba565b604051808381526020018281526020019250505060405180910390f35b34156109de57600080fd5b610a0a600480803573ffffffffffffffffffffffffffffffffffffffff16906020019091905050613d22565b604051808381526020018281526020019250505060405180910390f35b3415610a3257600080fd5b610a5e600480803573ffffffffffffffffffffffffffffffffffffffff1690602001909190505061418b565b005b3415610a6b57600080fd5b610a97600480803573ffffffffffffffffffffffffffffffffffffffff169060200190919050506142e0565b6040518082815260200191505060405180910390f35b610ab56156e8565b6000610abf6156e8565b60008073ffffffffffffffffffffffffffffffffffffffff168573ffffffffffffffffffffffffffffffffffffffff1614151515610afc57600080fd5b600760008673ffffffffffffffffffffffffffffffffffffffff1673ffffffffffffffffffffffffffffffffffffffff16815260200190815260200160002080549050925082604051805910610b4f5750595b90808252806020026020018201604052509150600090505b82811015610c0957600760008673ffffffffffffffffffffffffffffffffffffffff1673ffffffffffffffffffffffffffffffffffffffff16815260200190815260200160002081815481101515610bbb57fe5b906000526020600020900160000160009054906101000a900463ffffffff1663ffffffff168282815181101515610bee57fe5b90602001906020020181815250508080600101915050610b67565b819350505050919050565b60008060009054906101000a900473ffffffffffffffffffffffffffffffffffffffff1673ffffffffffffffffffffffffffffffffffffffff163373ffffffffffffffffffffffffffffffffffffffff16141515610c7157600080fd5b8173ffffffffffffffffffffffffffffffffffffffff166370a08231306000604051602001526040518263ffffffff167c0100000000000000000000000000000000000000000000000000000000028152600401808273ffffffffffffffffffffffffffffffffffffffff1673ffffffffffffffffffffffffffffffffffffffff168152602001915050602060405180830381600087803b1515610d1457600080fd5b6102c65a03f11515610d2557600080fd5b505050604051805190509050610d7d6000809054906101000a900473ffffffffffffffffffffffffffffffffffffffff16828473ffffffffffffffffffffffffffffffffffffffff1661432c9092919063ffffffff16565b5050565b6000809054906101000a900473ffffffffffffffffffffffffffffffffffffffff1673ffffffffffffffffffffffffffffffffffffffff163373ffffffffffffffffffffffffffffffffffffffff16141515610ddc57600080fd5b8073ffffffffffffffffffffffffffffffffffffffff166319d6dfae6000604051602001526040518163ffffffff167c0100000000000000000000000000000000000000000000000000000000028152600401602060405180830381600087803b1515610e4857600080fd5b6102c65a03f11515610e5957600080fd5b505050604051805190501515610e6e57600080fd5b80600560006101000a81548173ffffffffffffffffffffffffffffffffffffffff021916908373ffffffffffffffffffffffffffffffffffffffff16021790555050565b610eba6156e8565b610ec26156e8565b610eca6156e8565b610ed26156e8565b6000610edc6156e8565b610ee46156e8565b610eec6156e8565b610ef46156e8565b60008073ffffffffffffffffffffffffffffffffffffffff168b73ffffffffffffffffffffffffffffffffffffffff1614151515610f3157600080fd5b600760008c73ffffffffffffffffffffffffffffffffffffffff1673ffffffffffffffffffffffffffffffffffffffff16815260200190815260200160002080549050955085604051805910610f845750595b9080825280602002602001820160405250945085604051805910610fa55750595b9080825280602002602001820160405250935085604051805910610fc65750595b9080825280602002602001820160405250925085604051805910610fe75750595b90808252806020026020018201604052509150600090505b8581101561125857600760008c73ffffffffffffffffffffffffffffffffffffffff1673ffffffffffffffffffffffffffffffffffffffff1681526020019081526020016000208181548110151561105357fe5b906000526020600020900160000160009054906101000a900463ffffffff1663ffffffff16858281518110151561108657fe5b9060200190602002018181525050600760008c73ffffffffffffffffffffffffffffffffffffffff1673ffffffffffffffffffffffffffffffffffffffff168152602001908152602001600020818154811015156110e057fe5b906000526020600020900160000160089054906101000a900467ffffffffffffffff1667ffffffffffffffff16848281518110151561111b57fe5b9060200190602002018181525050600760008c73ffffffffffffffffffffffffffffffffffffffff1673ffffffffffffffffffffffffffffffffffffffff1681526020019081526020016000208181548110151561117557fe5b906000526020600020900160000160109054906101000a900467ffffffffffffffff1667ffffffffffffffff1683828151811015156111b057fe5b9060200190602002018181525050600760008c73ffffffffffffffffffffffffffffffffffffffff1673ffffffffffffffffffffffffffffffffffffffff1681526020019081526020016000208181548110151561120a57fe5b906000526020600020900160000160049054906101000a900463ffffffff1663ffffffff16828281518110151561123d57fe5b90602001906020020181815250508080600101915050610fff565b8484848499509950995099505050505050509193509193565b60008060009054906101000a900473ffffffffffffffffffffffffffffffffffffffff1673ffffffffffffffffffffffffffffffffffffffff163373ffffffffffffffffffffffffffffffffffffffff161415156112ce57600080fd5b8190508073ffffffffffffffffffffffffffffffffffffffff1663f2fde38b6000809054906101000a900473ffffffffffffffffffffffffffffffffffffffff166040518263ffffffff167c0100000000000000000000000000000000000000000000000000000000028152600401808273ffffffffffffffffffffffffffffffffffffffff1673ffffffffffffffffffffffffffffffffffffffff168152602001915050600060405180830381600087803b151561138c57600080fd5b6102c65a03f1151561139d57600080fd5b5050505050565b600080600080600073ffffffffffffffffffffffffffffffffffffffff168573ffffffffffffffffffffffffffffffffffffffff16141515156113e657600080fd5b6000600760008773ffffffffffffffffffffffffffffffffffffffff1673ffffffffffffffffffffffffffffffffffffffff1681526020019081526020016000208054905011151561143757600080fd5b600760008673ffffffffffffffffffffffffffffffffffffffff1673ffffffffffffffffffffffffffffffffffffffff1681526020019081526020016000206001600760008873ffffffffffffffffffffffffffffffffffffffff1673ffffffffffffffffffffffffffffffffffffffff16815260200190815260200160002080549050038154811015156114c857fe5b906000526020600020900190508060000160009054906101000a900463ffffffff168160000160089054906101000a900467ffffffffffffffff168260000160109054906101000a900467ffffffffffffffff168263ffffffff1692508167ffffffffffffffff1691508067ffffffffffffffff169050935093509350509193909250565b6000809054906101000a900473ffffffffffffffffffffffffffffffffffffffff1673ffffffffffffffffffffffffffffffffffffffff163373ffffffffffffffffffffffffffffffffffffffff161415156115a857600080fd5b8060018190555050565b6007602052816000526040600020818154811015156115cd57fe5b9060005260206000209001600091509150508060000160009054906101000a900463ffffffff16908060000160049054906101000a900463ffffffff16908060000160089054906101000a900467ffffffffffffffff16908060000160109054906101000a900467ffffffffffffffff16905084565b60015481565b60008060008090505b600760008773ffffffffffffffffffffffffffffffffffffffff1673ffffffffffffffffffffffffffffffffffffffff168152602001908152602001600020805490508110156117a857600760008773ffffffffffffffffffffffffffffffffffffffff1673ffffffffffffffffffffffffffffffffffffffff168152602001908152602001600020818154811015156116e857fe5b906000526020600020900160000160049054906101000a900463ffffffff1663ffffffff168414801561178a5750600760008773ffffffffffffffffffffffffffffffffffffffff1673ffffffffffffffffffffffffffffffffffffffff1681526020019081526020016000208181548110151561176257fe5b906000526020600020900160000160009054906101000a900463ffffffff1663ffffffff1685145b1561179b57600181925092506117b3565b8080600101915050611652565b600080809050925092505b50935093915050565b6000809054906101000a900473ffffffffffffffffffffffffffffffffffffffff1673ffffffffffffffffffffffffffffffffffffffff163373ffffffffffffffffffffffffffffffffffffffff1614151561181757600080fd5b8173ffffffffffffffffffffffffffffffffffffffff1663bfb4bbae6000604051602001526040518163ffffffff167c0100000000000000000000000000000000000000000000000000000000028152600401602060405180830381600087803b151561188357600080fd5b6102c65a03f1151561189457600080fd5b5050506040518051905015156118a957600080fd5b8173ffffffffffffffffffffffffffffffffffffffff166354fd4d506000604051602001526040518163ffffffff167c0100000000000000000000000000000000000000000000000000000000028152600401602060405180830381600087803b151561191557600080fd5b6102c65a03f1151561192657600080fd5b505050604051805190508111151561193d57600080fd5b81600460006101000a81548173ffffffffffffffffffffffffffffffffffffffff021916908373ffffffffffffffffffffffffffffffffffffffff1602179055506119878161154d565b5050565b600080600360009054906101000a900473ffffffffffffffffffffffffffffffffffffffff1673ffffffffffffffffffffffffffffffffffffffff16636facbe2b856000604051602001526040518263ffffffff167c010000000000000000000000000000000000000000000000000000000002815260040180828152602001915050602060405180830381600087803b1515611a2757600080fd5b6102c65a03f11515611a3857600080fd5b505050604051805190501515611a4d57600080fd5b611a58338585611649565b8092508193505050811515611a6c57600080fd5b43600760003373ffffffffffffffffffffffffffffffffffffffff1673ffffffffffffffffffffffffffffffffffffffff16815260200190815260200160002082815481101515611ab957fe5b906000526020600020900160000160109054906101000a900467ffffffffffffffff1667ffffffffffffffff16111515611af257600080fd5b600660009054906101000a900473ffffffffffffffffffffffffffffffffffffffff1673ffffffffffffffffffffffffffffffffffffffff16638e69ce58336040518263ffffffff167c0100000000000000000000000000000000000000000000000000000000028152600401808273ffffffffffffffffffffffffffffffffffffffff1673ffffffffffffffffffffffffffffffffffffffff168152602001915050600060405180830381600087803b1515611bae57600080fd5b6102c65a03f11515611bbf57600080fd5b505050611bcc33826143ff565b611bd63382614aa2565b1515611be157600080fd5b600560009054906101000a900473ffffffffffffffffffffffffffffffffffffffff1673ffffffffffffffffffffffffffffffffffffffff1663d9fccbc23386866000604051602001526040518463ffffffff167c0100000000000000000000000000000000000000000000000000000000028152600401808473ffffffffffffffffffffffffffffffffffffffff1673ffffffffffffffffffffffffffffffffffffffff1681526020018381526020018281526020019350505050602060405180830381600087803b1515611cb657600080fd5b6102c65a03f11515611cc757600080fd5b505050604051805190501515611cdc57600080fd5b7fd0f42a57d1892362ab6ed3c1942d02d00c5072d3b35757c8de7de996b96f3e7c338585604051808473ffffffffffffffffffffffffffffffffffffffff1673ffffffffffffffffffffffffffffffffffffffff168152602001838152602001828152602001935050505060405180910390a150505050565b6000809054906101000a900473ffffffffffffffffffffffffffffffffffffffff1681565b6000809054906101000a900473ffffffffffffffffffffffffffffffffffffffff1673ffffffffffffffffffffffffffffffffffffffff163373ffffffffffffffffffffffffffffffffffffffff16141515611dd557600080fd5b8073ffffffffffffffffffffffffffffffffffffffff16633769feef6000604051602001526040518163ffffffff167c0100000000000000000000000000000000000000000000000000000000028152600401602060405180830381600087803b1515611e4157600080fd5b6102c65a03f11515611e5257600080fd5b505050604051805190501515611e6757600080fd5b80600360006101000a81548173ffffffffffffffffffffffffffffffffffffffff021916908373ffffffffffffffffffffffffffffffffffffffff16021790555050565b6000809054906101000a900473ffffffffffffffffffffffffffffffffffffffff1673ffffffffffffffffffffffffffffffffffffffff163373ffffffffffffffffffffffffffffffffffffffff16141515611f0657600080fd5b6000809054906101000a900473ffffffffffffffffffffffffffffffffffffffff1673ffffffffffffffffffffffffffffffffffffffff166108fc3073ffffffffffffffffffffffffffffffffffffffff16319081150290604051600060405180830381858888f193505050501515611f7b57fe5b565b60026020528060005260406000206000915054906101000a900460ff1681565b60006001905090565b600080600073ffffffffffffffffffffffffffffffffffffffff168473ffffffffffffffffffffffffffffffffffffffff1614151515611fe557600080fd5b600760008573ffffffffffffffffffffffffffffffffffffffff1673ffffffffffffffffffffffffffffffffffffffff168152602001908152602001600020805490508310151561203557600080fd5b600760008573ffffffffffffffffffffffffffffffffffffffff1673ffffffffffffffffffffffffffffffffffffffff1681526020019081526020016000208381548110151561208157fe5b906000526020600020900160000160009054906101000a900463ffffffff16600760008673ffffffffffffffffffffffffffffffffffffffff1673ffffffffffffffffffffffffffffffffffffffff168152602001908152602001600020848154811015156120ec57fe5b906000526020600020900160000160049054906101000a900463ffffffff168163ffffffff1691508063ffffffff169050915091509250929050565b600080fd5b6000806121386156e8565b6121406156e8565b600080600073ffffffffffffffffffffffffffffffffffffffff168773ffffffffffffffffffffffffffffffffffffffff161415151561217f57600080fd5b6000600760008973ffffffffffffffffffffffffffffffffffffffff1673ffffffffffffffffffffffffffffffffffffffff168152602001908152602001600020805490501115156121d057600080fd5b600760008873ffffffffffffffffffffffffffffffffffffffff1673ffffffffffffffffffffffffffffffffffffffff168152602001908152602001600020805490509550600094505b85851080156122a1575043600760008973ffffffffffffffffffffffffffffffffffffffff1673ffffffffffffffffffffffffffffffffffffffff1681526020019081526020016000208681548110151561227157fe5b906000526020600020900160000160109054906101000a900467ffffffffffffffff1667ffffffffffffffff1611155b156122b357848060010195505061221a565b846040518059106122c15750595b90808252806020026020018201604052509350846040518059106122e25750595b9080825280602002602001820160405250925060008514156123f8577fa8d1d3f2b178b60b09b86441670271d29f9f325b7904757bff329687232b21e8878585604051808473ffffffffffffffffffffffffffffffffffffffff1673ffffffffffffffffffffffffffffffffffffffff1681526020018060200180602001838103835285818151815260200191508051906020019060200280838360005b8381101561239b578082015181840152602081019050612380565b50505050905001838103825284818151815260200191508051906020019060200280838360005b838110156123dd5780820151818401526020810190506123c2565b505050509050019550505050505060405180910390a1612761565b600091505b848210156124d957600760008873ffffffffffffffffffffffffffffffffffffffff1673ffffffffffffffffffffffffffffffffffffffff1681526020019081526020016000208281548110151561245157fe5b906000526020600020900190508060000160009054906101000a900463ffffffff1663ffffffff16848381518110151561248757fe5b90602001906020020181815250508060000160049054906101000a900463ffffffff1663ffffffff1683838151811015156124be57fe5b906020019060200201818152505081806001019250506123fd565b600560009054906101000a900473ffffffffffffffffffffffffffffffffffffffff1673ffffffffffffffffffffffffffffffffffffffff166376e52e188886866000604051602001526040518463ffffffff167c0100000000000000000000000000000000000000000000000000000000028152600401808473ffffffffffffffffffffffffffffffffffffffff1673ffffffffffffffffffffffffffffffffffffffff1681526020018060200180602001838103835285818151815260200191508051906020019060200280838360005b838110156125c75780820151818401526020810190506125ac565b50505050905001838103825284818151815260200191508051906020019060200280838360005b838110156126095780820151818401526020810190506125ee565b5050505090500195505050505050602060405180830381600087803b151561263057600080fd5b6102c65a03f1151561264157600080fd5b50505060405180519050151561265657600080fd5b6126608786614e5f565b151561266b57600080fd5b7fa8d1d3f2b178b60b09b86441670271d29f9f325b7904757bff329687232b21e8878585604051808473ffffffffffffffffffffffffffffffffffffffff1673ffffffffffffffffffffffffffffffffffffffff1681526020018060200180602001838103835285818151815260200191508051906020019060200280838360005b838110156127085780820151818401526020810190506126ed565b50505050905001838103825284818151815260200191508051906020019060200280838360005b8381101561274a57808201518184015260208101905061272f565b505050509050019550505050505060405180910390a15b50505050505050565b60008082600760008673ffffffffffffffffffffffffffffffffffffffff1673ffffffffffffffffffffffffffffffffffffffff168152602001908152602001600020805490501115156127bd57600080fd5b600760008573ffffffffffffffffffffffffffffffffffffffff1673ffffffffffffffffffffffffffffffffffffffff1681526020019081526020016000208381548110151561280957fe5b906000526020600020900160000160009054906101000a900463ffffffff16600760008673ffffffffffffffffffffffffffffffffffffffff1673ffffffffffffffffffffffffffffffffffffffff1681526020019081526020016000208481548110151561287457fe5b906000526020600020900160000160109054906101000a900467ffffffffffffffff168163ffffffff1691508067ffffffffffffffff169050915091509250929050565b6000806000806000806000600360009054906101000a900473ffffffffffffffffffffffffffffffffffffffff1673ffffffffffffffffffffffffffffffffffffffff16636facbe2b8b6000604051602001526040518263ffffffff167c010000000000000000000000000000000000000000000000000000000002815260040180828152602001915050602060405180830381600087803b151561295c57600080fd5b6102c65a03f1151561296d57600080fd5b50505060405180519050151561298257600080fd5b600360009054906101000a900473ffffffffffffffffffffffffffffffffffffffff1673ffffffffffffffffffffffffffffffffffffffff16636facbe2b8a6000604051602001526040518263ffffffff167c010000000000000000000000000000000000000000000000000000000002815260040180828152602001915050602060405180830381600087803b1515612a1b57600080fd5b6102c65a03f11515612a2c57600080fd5b505050604051805190501515612a4157600080fd5b600360009054906101000a900473ffffffffffffffffffffffffffffffffffffffff1673ffffffffffffffffffffffffffffffffffffffff1663059b3e2e8b8b6000604051602001526040518363ffffffff167c01000000000000000000000000000000000000000000000000000000000281526004018083815260200182815260200192505050602060405180830381600087803b1515612ae257600080fd5b6102c65a03f11515612af357600080fd5b505050604051805190501515612b0857600080fd5b612b13338b8a611649565b8097508198505050600360009054906101000a900473ffffffffffffffffffffffffffffffffffffffff1673ffffffffffffffffffffffffffffffffffffffff16638709e9da8a6000604051606001526040518263ffffffff167c010000000000000000000000000000000000000000000000000000000002815260040180828152602001915050606060405180830381600087803b1515612bb457600080fd5b6102c65a03f11515612bc557600080fd5b50505060405180519060200180519060200180519050809550819650829750505050612bf2338686615235565b8615612c895743600760003373ffffffffffffffffffffffffffffffffffffffff1673ffffffffffffffffffffffffffffffffffffffff16815260200190815260200160002087815481101515612c4557fe5b906000526020600020900160000160109054906101000a900467ffffffffffffffff1667ffffffffffffffff1611151515612c7f57600080fd5b612c883361212d565b5b600560009054906101000a900473ffffffffffffffffffffffffffffffffffffffff1673ffffffffffffffffffffffffffffffffffffffff166359da69a7338c8b6000604051602001526040518463ffffffff167c0100000000000000000000000000000000000000000000000000000000028152600401808473ffffffffffffffffffffffffffffffffffffffff1673ffffffffffffffffffffffffffffffffffffffff1681526020018381526020018281526020019350505050602060405180830381600087803b1515612d5e57600080fd5b6102c65a03f11515612d6f57600080fd5b505050604051805190501515612d8457600080fd5b612d8d33615560565b9150612da2838361567690919063ffffffff16565b9050600760003373ffffffffffffffffffffffffffffffffffffffff1673ffffffffffffffffffffffffffffffffffffffff1681526020019081526020016000208054806001018281612df591906156fc565b916000526020600020900160006080604051908101604052808d63ffffffff1681526020018c63ffffffff1681526020018667ffffffffffffffff1681526020018567ffffffffffffffff16815250909190915060008201518160000160006101000a81548163ffffffff021916908363ffffffff16021790555060208201518160000160046101000a81548163ffffffff021916908363ffffffff16021790555060408201518160000160086101000a81548167ffffffffffffffff021916908367ffffffffffffffff16021790555060608201518160000160106101000a81548167ffffffffffffffff021916908367ffffffffffffffff1602179055505050507f1f9e9a415463c9bb0c6baa9a1c8aa8173189e0517b4b77163ad0cdbe89070ea5898984846040518085815260200184815260200183815260200182815260200194505050505060405180910390a150505050505050505050565b6000809054906101000a900473ffffffffffffffffffffffffffffffffffffffff1673ffffffffffffffffffffffffffffffffffffffff163373ffffffffffffffffffffffffffffffffffffffff16141515612fae57600080fd5b8073ffffffffffffffffffffffffffffffffffffffff1663f229a4156000604051602001526040518163ffffffff167c0100000000000000000000000000000000000000000000000000000000028152600401602060405180830381600087803b151561301a57600080fd5b6102c65a03f1151561302b57600080fd5b50505060405180519050151561304057600080fd5b80600660006101000a81548173ffffffffffffffffffffffffffffffffffffffff021916908373ffffffffffffffffffffffffffffffffffffffff16021790555050565b60011515600260003373ffffffffffffffffffffffffffffffffffffffff1673ffffffffffffffffffffffffffffffffffffffff16815260200190815260200160002060009054906101000a900460ff161515141515156130e457600080fd5b6001548173ffffffffffffffffffffffffffffffffffffffff166354fd4d506000604051602001526040518163ffffffff167c0100000000000000000000000000000000000000000000000000000000028152600401602060405180830381600087803b151561315357600080fd5b6102c65a03f1151561316457600080fd5b5050506040518051905011151561317a57600080fd5b6001600260003373ffffffffffffffffffffffffffffffffffffffff1673ffffffffffffffffffffffffffffffffffffffff16815260200190815260200160002060006101000a81548160ff0219169083151502179055508073ffffffffffffffffffffffffffffffffffffffff163373ffffffffffffffffffffffffffffffffffffffff167fc123aa2e5c63456c59a4694ac50ba610152278a01162f3d5e3a6ffc457bc586e60405160405180910390a350565b6000806000806000806000600360009054906101000a900473ffffffffffffffffffffffffffffffffffffffff1673ffffffffffffffffffffffffffffffffffffffff16636facbe2b896000604051602001526040518263ffffffff167c010000000000000000000000000000000000000000000000000000000002815260040180828152602001915050602060405180830381600087803b15156132d357600080fd5b6102c65a03f115156132e457600080fd5b5050506040518051905015156132f957600080fd5b600360009054906101000a900473ffffffffffffffffffffffffffffffffffffffff1673ffffffffffffffffffffffffffffffffffffffff1663614ad27f896000604051602001526040518263ffffffff167c010000000000000000000000000000000000000000000000000000000002815260040180828152602001915050602060405180830381600087803b151561339257600080fd5b6102c65a03f115156133a357600080fd5b505050604051805190509650600560009054906101000a900473ffffffffffffffffffffffffffffffffffffffff1673ffffffffffffffffffffffffffffffffffffffff16634a925dae33898b6000604051602001526040518463ffffffff167c0100000000000000000000000000000000000000000000000000000000028152600401808473ffffffffffffffffffffffffffffffffffffffff1673ffffffffffffffffffffffffffffffffffffffff1681526020018381526020018281526020019350505050602060405180830381600087803b151561348457600080fd5b6102c65a03f1151561349557600080fd5b5050506040518051905095507ffffffffffffffffffffffffffffffffffffffffffffffffffffffffffffffffe861315156134cf57600080fd5b600360009054906101000a900473ffffffffffffffffffffffffffffffffffffffff1673ffffffffffffffffffffffffffffffffffffffff16638709e9da896000604051606001526040518263ffffffff167c010000000000000000000000000000000000000000000000000000000002815260040180828152602001915050606060405180830381600087803b151561356857600080fd5b6102c65a03f1151561357957600080fd5b505050604051805190602001805190602001805190508095508196508297505050506135a6338686615235565b7fffffffffffffffffffffffffffffffffffffffffffffffffffffffffffffffff8614156136b957600560009054906101000a900473ffffffffffffffffffffffffffffffffffffffff1673ffffffffffffffffffffffffffffffffffffffff16634fe6aa94338a6000604051602001526040518363ffffffff167c0100000000000000000000000000000000000000000000000000000000028152600401808373ffffffffffffffffffffffffffffffffffffffff1673ffffffffffffffffffffffffffffffffffffffff16815260200182815260200192505050602060405180830381600087803b151561369b57600080fd5b6102c65a03f115156136ac57600080fd5b5050506040518051905095505b6136c233615560565b91506136d7838361567690919063ffffffff16565b9050600760003373ffffffffffffffffffffffffffffffffffffffff1673ffffffffffffffffffffffffffffffffffffffff168152602001908152602001600020805480600101828161372a91906156fc565b916000526020600020900160006080604051908101604052808c63ffffffff1681526020018a63ffffffff1681526020018667ffffffffffffffff1681526020018567ffffffffffffffff16815250909190915060008201518160000160006101000a81548163ffffffff021916908363ffffffff16021790555060208201518160000160046101000a81548163ffffffff021916908363ffffffff16021790555060408201518160000160086101000a81548167ffffffffffffffff021916908367ffffffffffffffff16021790555060608201518160000160106101000a81548167ffffffffffffffff021916908367ffffffffffffffff1602179055505050507f75fd23547686f45a1bcfdeb2f3b7779a8096308567c5d69f245cc28b029258a83389888585604051808673ffffffffffffffffffffffffffffffffffffffff1673ffffffffffffffffffffffffffffffffffffffff1681526020018581526020018481526020018381526020018281526020019550505050505060405180910390a15050505050505050565b600080600080600080600091505b600760008873ffffffffffffffffffffffffffffffffffffffff1673ffffffffffffffffffffffffffffffffffffffff16815260200190815260200160002080549050821015613d13576000905043600760008973ffffffffffffffffffffffffffffffffffffffff1673ffffffffffffffffffffffffffffffffffffffff1681526020019081526020016000208381548110151561396357fe5b906000526020600020900160000160109054906101000a900467ffffffffffffffff1667ffffffffffffffff161015613a0a57600760008873ffffffffffffffffffffffffffffffffffffffff1673ffffffffffffffffffffffffffffffffffffffff168152602001908152602001600020828154811015156139e257fe5b906000526020600020900160000160009054906101000a900463ffffffff1663ffffffff1690505b43600760008973ffffffffffffffffffffffffffffffffffffffff1673ffffffffffffffffffffffffffffffffffffffff16815260200190815260200160002083815481101515613a5757fe5b906000526020600020900160000160109054906101000a900467ffffffffffffffff1667ffffffffffffffff1610158015613b92575060016103e880600760008b73ffffffffffffffffffffffffffffffffffffffff1673ffffffffffffffffffffffffffffffffffffffff16815260200190815260200160002085815481101515613adf57fe5b906000526020600020900160000160009054906101000a900463ffffffff1663ffffffff16811515613b0d57fe5b06600760008b73ffffffffffffffffffffffffffffffffffffffff1673ffffffffffffffffffffffffffffffffffffffff16815260200190815260200160002085815481101515613b5a57fe5b906000526020600020900160000160009054906101000a900463ffffffff160363ffffffff16811515613b8957fe5b0463ffffffff16115b15613c0f576103e8600760008973ffffffffffffffffffffffffffffffffffffffff1673ffffffffffffffffffffffffffffffffffffffff16815260200190815260200160002083815481101515613be657fe5b906000526020600020900160000160009054906101000a900463ffffffff160363ffffffff1690505b6000811115613d0657600360009054906101000a900473ffffffffffffffffffffffffffffffffffffffff1673ffffffffffffffffffffffffffffffffffffffff16638bfa8771826000604051604001526040518263ffffffff167c0100000000000000000000000000000000000000000000000000000000028152600401808281526020019150506040805180830381600087803b1515613cb057600080fd5b6102c65a03f11515613cc157600080fd5b5050506040518051906020018051905080945081955050506000841115613cef57613cec8685615676565b95505b6000831115613d0557613d028584615676565b94505b5b81806001019250506138c8565b85859550955050505050915091565b6000806000806000806000600660009054906101000a900473ffffffffffffffffffffffffffffffffffffffff1673ffffffffffffffffffffffffffffffffffffffff16632729663c896000604051602001526040518263ffffffff167c0100000000000000000000000000000000000000000000000000000000028152600401808273ffffffffffffffffffffffffffffffffffffffff1673ffffffffffffffffffffffffffffffffffffffff168152602001915050602060405180830381600087803b1515613df257600080fd5b6102c65a03f11515613e0357600080fd5b505050604051805190509150600090505b600760008973ffffffffffffffffffffffffffffffffffffffff1673ffffffffffffffffffffffffffffffffffffffff1681526020019081526020016000208054905081101561417b5743600760008a73ffffffffffffffffffffffffffffffffffffffff1673ffffffffffffffffffffffffffffffffffffffff16815260200190815260200160002082815481101515613eab57fe5b906000526020600020900160000160109054906101000a900467ffffffffffffffff1667ffffffffffffffff16101561416e57600360009054906101000a900473ffffffffffffffffffffffffffffffffffffffff1673ffffffffffffffffffffffffffffffffffffffff1663b5142cff600760008b73ffffffffffffffffffffffffffffffffffffffff1673ffffffffffffffffffffffffffffffffffffffff16815260200190815260200160002083815481101515613f6857fe5b906000526020600020900160000160009054906101000a900463ffffffff166000604051604001526040518263ffffffff167c0100000000000000000000000000000000000000000000000000000000028152600401808263ffffffff1681526020019150506040805180830381600087803b1515613fe657600080fd5b6102c65a03f11515613ff757600080fd5b50505060405180519060200180519050809550819650505081600760008a73ffffffffffffffffffffffffffffffffffffffff1673ffffffffffffffffffffffffffffffffffffffff1681526020019081526020016000208281548110151561405c57fe5b906000526020600020900160000160109054906101000a900467ffffffffffffffff1667ffffffffffffffff1611156141185761411143600760008b73ffffffffffffffffffffffffffffffffffffffff1673ffffffffffffffffffffffffffffffffffffffff168152602001908152602001600020838154811015156140df57fe5b906000526020600020900160000160109054906101000a900467ffffffffffffffff1667ffffffffffffffff16615694565b9250614125565b6141224383615694565b92505b600083111561416d57600085111561414d5761414a8761414587866156ad565b615676565b96505b600084111561416c576141698661416486866156ad565b615676565b95505b5b5b8080600101915050613e14565b8686965096505050505050915091565b6000809054906101000a900473ffffffffffffffffffffffffffffffffffffffff1673ffffffffffffffffffffffffffffffffffffffff163373ffffffffffffffffffffffffffffffffffffffff161415156141e657600080fd5b600073ffffffffffffffffffffffffffffffffffffffff168173ffffffffffffffffffffffffffffffffffffffff161415151561422257600080fd5b8073ffffffffffffffffffffffffffffffffffffffff166000809054906101000a900473ffffffffffffffffffffffffffffffffffffffff1673ffffffffffffffffffffffffffffffffffffffff167f8be0079c531659141344cd1fd0a4f28419497f9722a3daafe3b4186f6b6457e060405160405180910390a3806000806101000a81548173ffffffffffffffffffffffffffffffffffffffff021916908373ffffffffffffffffffffffffffffffffffffffff16021790555050565b6000600760008373ffffffffffffffffffffffffffffffffffffffff1673ffffffffffffffffffffffffffffffffffffffff168152602001908152602001600020805490509050919050565b8273ffffffffffffffffffffffffffffffffffffffff1663a9059cbb83836000604051602001526040518363ffffffff167c0100000000000000000000000000000000000000000000000000000000028152600401808373ffffffffffffffffffffffffffffffffffffffff1673ffffffffffffffffffffffffffffffffffffffff16815260200182815260200192505050602060405180830381600087803b15156143d757600080fd5b6102c65a03f115156143e857600080fd5b5050506040518051905015156143fa57fe5b505050565b6000806001830190505b600760008573ffffffffffffffffffffffffffffffffffffffff1673ffffffffffffffffffffffffffffffffffffffff16815260200190815260200160002080549050811015614a9c57600760008573ffffffffffffffffffffffffffffffffffffffff1673ffffffffffffffffffffffffffffffffffffffff1681526020019081526020016000208181548110151561449f57fe5b906000526020600020900160000160089054906101000a900467ffffffffffffffff16600760008673ffffffffffffffffffffffffffffffffffffffff1673ffffffffffffffffffffffffffffffffffffffff1681526020019081526020016000208281548110151561450e57fe5b906000526020600020900160000160109054906101000a900467ffffffffffffffff16039150600183018114156148ab5743600760008673ffffffffffffffffffffffffffffffffffffffff1673ffffffffffffffffffffffffffffffffffffffff1681526020019081526020016000208481548110151561458c57fe5b906000526020600020900160000160089054906101000a900467ffffffffffffffff1667ffffffffffffffff161015156146b357600760008573ffffffffffffffffffffffffffffffffffffffff1673ffffffffffffffffffffffffffffffffffffffff1681526020019081526020016000206001820381548110151561460f57fe5b906000526020600020900160000160089054906101000a900467ffffffffffffffff16600760008673ffffffffffffffffffffffffffffffffffffffff1673ffffffffffffffffffffffffffffffffffffffff1681526020019081526020016000208281548110151561467e57fe5b906000526020600020900160000160086101000a81548167ffffffffffffffff021916908367ffffffffffffffff1602179055505b43600760008673ffffffffffffffffffffffffffffffffffffffff1673ffffffffffffffffffffffffffffffffffffffff1681526020019081526020016000208481548110151561470057fe5b906000526020600020900160000160089054906101000a900467ffffffffffffffff1667ffffffffffffffff1610156147b55743600760008673ffffffffffffffffffffffffffffffffffffffff1673ffffffffffffffffffffffffffffffffffffffff1681526020019081526020016000208281548110151561478057fe5b906000526020600020900160000160086101000a81548167ffffffffffffffff021916908367ffffffffffffffff1602179055505b81600760008673ffffffffffffffffffffffffffffffffffffffff1673ffffffffffffffffffffffffffffffffffffffff1681526020019081526020016000208281548110151561480257fe5b906000526020600020900160000160089054906101000a900467ffffffffffffffff1601600760008673ffffffffffffffffffffffffffffffffffffffff1673ffffffffffffffffffffffffffffffffffffffff1681526020019081526020016000208281548110151561487257fe5b906000526020600020900160000160106101000a81548167ffffffffffffffff021916908367ffffffffffffffff160217905550614a8f565b600760008573ffffffffffffffffffffffffffffffffffffffff1673ffffffffffffffffffffffffffffffffffffffff168152602001908152602001600020600182038154811015156148fa57fe5b906000526020600020900160000160109054906101000a900467ffffffffffffffff16600760008673ffffffffffffffffffffffffffffffffffffffff1673ffffffffffffffffffffffffffffffffffffffff1681526020019081526020016000208281548110151561496957fe5b906000526020600020900160000160086101000a81548167ffffffffffffffff021916908367ffffffffffffffff16021790555081600760008673ffffffffffffffffffffffffffffffffffffffff1673ffffffffffffffffffffffffffffffffffffffff168152602001908152602001600020828154811015156149ea57fe5b906000526020600020900160000160089054906101000a900467ffffffffffffffff1601600760008673ffffffffffffffffffffffffffffffffffffffff1673ffffffffffffffffffffffffffffffffffffffff16815260200190815260200160002082815481101515614a5a57fe5b906000526020600020900160000160106101000a81548167ffffffffffffffff021916908367ffffffffffffffff1602179055505b8080600101915050614409565b50505050565b6000808290505b600760008573ffffffffffffffffffffffffffffffffffffffff1673ffffffffffffffffffffffffffffffffffffffff16815260200190815260200160002080549050811015614dfe576001600760008673ffffffffffffffffffffffffffffffffffffffff1673ffffffffffffffffffffffffffffffffffffffff1681526020019081526020016000208054905003811415614c4857600760008573ffffffffffffffffffffffffffffffffffffffff1673ffffffffffffffffffffffffffffffffffffffff1681526020019081526020016000206001600760008773ffffffffffffffffffffffffffffffffffffffff1673ffffffffffffffffffffffffffffffffffffffff1681526020019081526020016000208054905003815481101515614bd157fe5b9060005260206000209001600080820160006101000a81549063ffffffff02191690556000820160046101000a81549063ffffffff02191690556000820160086101000a81549067ffffffffffffffff02191690556000820160106101000a81549067ffffffffffffffff02191690555050614df1565b600760008573ffffffffffffffffffffffffffffffffffffffff1673ffffffffffffffffffffffffffffffffffffffff16815260200190815260200160002060018201815481101515614c9757fe5b9060005260206000209001600760008673ffffffffffffffffffffffffffffffffffffffff1673ffffffffffffffffffffffffffffffffffffffff16815260200190815260200160002082815481101515614cee57fe5b90600052602060002090016000820160009054906101000a900463ffffffff168160000160006101000a81548163ffffffff021916908363ffffffff1602179055506000820160049054906101000a900463ffffffff168160000160046101000a81548163ffffffff021916908363ffffffff1602179055506000820160089054906101000a900467ffffffffffffffff168160000160086101000a81548167ffffffffffffffff021916908367ffffffffffffffff1602179055506000820160109054906101000a900467ffffffffffffffff168160000160106101000a81548167ffffffffffffffff021916908367ffffffffffffffff1602179055509050505b8080600101915050614aa9565b6001600760008673ffffffffffffffffffffffffffffffffffffffff1673ffffffffffffffffffffffffffffffffffffffff16815260200190815260200160002081818054905003915081614e539190615728565b50600191505092915050565b6000806000600760008673ffffffffffffffffffffffffffffffffffffffff1673ffffffffffffffffffffffffffffffffffffffff168152602001908152602001600020805490508411151515614eb557600080fd5b8391505b600760008673ffffffffffffffffffffffffffffffffffffffff1673ffffffffffffffffffffffffffffffffffffffff168152602001908152602001600020805490508210156150b757600760008673ffffffffffffffffffffffffffffffffffffffff1673ffffffffffffffffffffffffffffffffffffffff16815260200190815260200160002082815481101515614f4f57fe5b9060005260206000209001600760008773ffffffffffffffffffffffffffffffffffffffff1673ffffffffffffffffffffffffffffffffffffffff168152602001908152602001600020858403815481101515614fa857fe5b90600052602060002090016000820160009054906101000a900463ffffffff168160000160006101000a81548163ffffffff021916908363ffffffff1602179055506000820160049054906101000a900463ffffffff168160000160046101000a81548163ffffffff021916908363ffffffff1602179055506000820160089054906101000a900467ffffffffffffffff168160000160086101000a81548167ffffffffffffffff021916908367ffffffffffffffff1602179055506000820160109054906101000a900467ffffffffffffffff168160000160106101000a81548167ffffffffffffffff021916908367ffffffffffffffff1602179055509050508180600101925050614eb9565b600190505b83811115156151d457600760008673ffffffffffffffffffffffffffffffffffffffff1673ffffffffffffffffffffffffffffffffffffffff16815260200190815260200160002081600760008873ffffffffffffffffffffffffffffffffffffffff1673ffffffffffffffffffffffffffffffffffffffff168152602001908152602001600020805490500381548110151561515557fe5b9060005260206000209001600080820160006101000a81549063ffffffff02191690556000820160046101000a81549063ffffffff02191690556000820160086101000a81549067ffffffffffffffff02191690556000820160106101000a81549067ffffffffffffffff0219169055505080806001019150506150bc565b83600760008773ffffffffffffffffffffffffffffffffffffffff1673ffffffffffffffffffffffffffffffffffffffff168152602001908152602001600020818180549050039150816152289190615728565b5060019250505092915050565b60008114806152445750600181145b8061524f5750600281145b151561525a57600080fd5b600082111561555b57600081141561536057600660009054906101000a900473ffffffffffffffffffffffffffffffffffffffff1673ffffffffffffffffffffffffffffffffffffffff1663ec3191e984846000604051602001526040518363ffffffff167c0100000000000000000000000000000000000000000000000000000000028152600401808373ffffffffffffffffffffffffffffffffffffffff1673ffffffffffffffffffffffffffffffffffffffff16815260200182815260200192505050602060405180830381600087803b151561533957600080fd5b6102c65a03f1151561534a57600080fd5b50505060405180519050151561535f57600080fd5b5b600181141561545d57600660009054906101000a900473ffffffffffffffffffffffffffffffffffffffff1673ffffffffffffffffffffffffffffffffffffffff1663142ed04384846000604051602001526040518363ffffffff167c0100000000000000000000000000000000000000000000000000000000028152600401808373ffffffffffffffffffffffffffffffffffffffff1673ffffffffffffffffffffffffffffffffffffffff16815260200182815260200192505050602060405180830381600087803b151561543657600080fd5b6102c65a03f1151561544757600080fd5b50505060405180519050151561545c57600080fd5b5b600281141561555a57600660009054906101000a900473ffffffffffffffffffffffffffffffffffffffff1673ffffffffffffffffffffffffffffffffffffffff16632f2e88f084846000604051602001526040518363ffffffff167c0100000000000000000000000000000000000000000000000000000000028152600401808373ffffffffffffffffffffffffffffffffffffffff1673ffffffffffffffffffffffffffffffffffffffff16815260200182815260200192505050602060405180830381600087803b151561553357600080fd5b6102c65a03f1151561554457600080fd5b50505060405180519050151561555957600080fd5b5b5b505050565b600080600080600760008673ffffffffffffffffffffffffffffffffffffffff1673ffffffffffffffffffffffffffffffffffffffff168152602001908152602001600020805490509250439150600083111561566b57600760008673ffffffffffffffffffffffffffffffffffffffff1673ffffffffffffffffffffffffffffffffffffffff168152602001908152602001600020615601846001615694565b81548110151561560d57fe5b906000526020600020900190508060000160109054906101000a900467ffffffffffffffff1667ffffffffffffffff1643101561566a578060000160109054906101000a900467ffffffffffffffff1667ffffffffffffffff1691505b5b819350505050919050565b600080828401905083811015151561568a57fe5b8091505092915050565b60008282111515156156a257fe5b818303905092915050565b60008060008414156156c257600091506156e1565b82840290508284828115156156d357fe5b041415156156dd57fe5b8091505b5092915050565b602060405190810160405280600081525090565b815481835581811511615723578183600052602060002091820191016157229190615754565b5b505050565b81548183558181151161574f5781836000526020600020918201910161574e9190615754565b5b505050565b6157d491905b808211156157d057600080820160006101000a81549063ffffffff02191690556000820160046101000a81549063ffffffff02191690556000820160086101000a81549067ffffffffffffffff02191690556000820160106101000a81549067ffffffffffffffff02191690555060010161575a565b5090565b905600a165627a7a723058201f5cf82f1fc8988f82f3c47d777de71e376b09d2176c82a830e0bceb68332c4f0029",
  "source": "pragma solidity ^0.4.18;\n\nimport 'zeppelin-solidity/contracts/math/SafeMath.sol';\nimport 'zeppelin-solidity/contracts/ownership/NoOwner.sol';\nimport './UserBuildings.sol';\nimport './BuildingsData.sol';\nimport './UserResources.sol';\nimport './Versioned.sol';\n\n/*\n * @title BuildingsQueue (WIP)\n * @dev Issue: * https://github.com/e11-io/crypto-wars-solidity/issues/4\n */\ncontract BuildingsQueue is NoOwner, Versioned {\n  using SafeMath for uint;\n\n  /*\n   * @dev Event for Adding a building to the queue system logging.\n   * @param _user who receives the building.\n   * @param _id the id of the building to be added.\n   * @param _index the index of the building to be added.\n\t * @param _startBlock the number of the block where the construction is gonna start.\n\t * @param _endBlock the number of the block where the construction is gonna be ready.\n   */\n  event AddNewBuildingToQueue(address _user,\n                              uint _id,\n                              uint _index,\n                              uint _startBlock,\n                              uint _endBlock);\n\n /*\n  * @dev Event for Updating the buildings queue. Buildings that are ready will be\n  * tranfered to the user buildings contract, and removed from the queue.\n  * @param _user the address of the user's queue to be updated. (address)\n  * @param _ids The ids of the finished buldings. (uint[])\n  * @param _indexes The indexes of the finished buldings. (uint[])\n  */\n  event UpdateQueue(address _user,\n                    uint[] _ids,\n                    uint[] _indexes);\n\n /*\n  * @dev Event for upgrading a building to the queue system logging.\n  * @param _idOfUpgrade the id of the building to be added.\n  * @param _index the index of the building to be added.\n  * @param _startBlock the number of the block where the construction is gonna start.\n  * @param _endBlock the number of the block where the construction is gonna be ready.\n  */\n  event UpgradeBuilding(uint _idOfUpgrade, uint _index, uint startBlock, uint endBlock);\n\n /*\n  *\n  */\n  event RemoveBuilding(address _user, uint _id, uint _index);\n\n  struct Build {\n    uint32 id;\n    uint32 index;\n    uint64 startBlock;\n    uint64 endBlock;\n  }\n\n  BuildingsData buildingsData;\n  BuildingsQueue previousBuildingsQueue;\n  UserBuildings userBuildings;\n  UserResources userResources;\n\n  // Mapping of user -> build struct array (keeps track of buildings in construction queue)\n  mapping (address => Build[]) public userBuildingsQueue;\n\n  /*\n   * @notice Constructor: Instantiate Buildings Queue contract.\n   * @dev Constructor function to provide User Buildings address and instantiate it.\n   */\n  function BuildingsQueue() public {\n  }\n\n  /*\n   * @notice Makes the contract type verifiable.\n   * @dev Function to prove the contract is Buildings Queue.\n   */\n  function isBuildingsQueue() external pure returns (bool) {\n    return true;\n  }\n\n  /*\n   * @notice Sets the contract's version and instantiates the previous version contract.\n   * @dev Function to set the contract version and instantiate the previous Buildings Queue.\n   * @param _previousBuildingsQueue the address of previous Buildings Queue contract. (address)\n   * @param _version the current contract version number. (uint)\n   */\n  function setBuildingsQueueVersion(BuildingsQueue _previousBuildingsQueue, uint _version) external onlyOwner {\n    require(_previousBuildingsQueue.isBuildingsQueue());\n    require(_version > _previousBuildingsQueue.version());\n    previousBuildingsQueue =_previousBuildingsQueue;\n    setVersion(_version);\n  }\n\n  /*\n   * @title Instantiate User Buildings contract.\n   * @dev Function to provide User Buildings address and instantiate it.\n   * @param _userBuildings the address of User Buildings contract. (address)\n   */\n  function setUserBuildings(UserBuildings _userBuildings) external onlyOwner {\n    require(_userBuildings.isUserBuildings());\n    userBuildings = _userBuildings;\n  }\n\n  /*\n   * @title Instantiate Buildings Data contract.\n   * @dev Function to provide Buildings Data address and instantiate it.\n   * @param _buildingsData the address of Buildings Data contract. (address)\n   */\n  function setBuildingsData(BuildingsData _buildingsData) external onlyOwner {\n    require(_buildingsData.isBuildingsData());\n    buildingsData = _buildingsData;\n  }\n\n  /*\n   * @title Instantiate User Resources contract.\n   * @dev Function to provide User Resources address and instantiate it.\n   * @param _userResources the address of User Resources contract. (address)\n   */\n  function setUserResources(UserResources _userResources) external onlyOwner {\n    require(_userResources.isUserResources());\n    userResources = _userResources;\n  }\n\n  /*\n   * @notice Add New Building To Queue.\n   * @dev Function to add a new building to the construction queue of the user.\n      index -2: building type is not unique and the builiding cant be created.\n      index -1: building type is unique and the building can be created. Must be initialized.\n      index >= 0: building was deleted and must be created again. Modifing it's active variable to true.\n   * @param _id of the building to add to the queue. (uint)\n   */\n  function addNewBuildingToQueue(uint _id) external {\n    require(buildingsData.checkBuildingExist(_id));\n\n    uint typeId = buildingsData.getBuildingTypeId(_id);\n    int index = userBuildings.buildingTypeIsUnique(msg.sender, typeId, _id);\n\n    require(index > -2);\n\n    uint price;\n    uint resourceType;\n    uint blocks;\n    (price, resourceType, blocks) = buildingsData.getBuildingData(_id);\n\n    consumeResources(msg.sender, price, resourceType);\n\n    if  (index == -1) {\n      index = int(userBuildings.initNewBuilding(msg.sender, _id));\n    }\n\n    uint startBlock = getStartBlock(msg.sender);\n    uint endBlock = startBlock.add(blocks);\n\n    userBuildingsQueue[msg.sender].push(Build(\n      uint32(_id),\n      uint32(uint(index)),\n      uint64(startBlock),\n      uint64(endBlock)\n    ));\n\n    AddNewBuildingToQueue(msg.sender,\n                          _id,\n                          uint(index),\n                          startBlock,\n                          endBlock);\n  }\n\n  /*\n   * @title Update Queue.\n   * @dev Function to update the user buildings queue. Finished buildings\n   *  will be send to the User Buildings contract and removed from the construction\n   *  queue. Queue will be resized and updated with only the unfinished buildings.\n   * @param _user the address of the user's queue to be updated. (address)\n   * @return an array of the finished buildings ids. (uint[])\n   */\n  function updateQueue(address _user) public {\n    require(_user != address(0));\n    require(userBuildingsQueue[_user].length > 0);\n\n    uint length = userBuildingsQueue[_user].length;\n    uint i = 0;\n\n    while (i < length && userBuildingsQueue[_user][i].endBlock <= block.number) {\n      i++;\n    }\n\n    uint[] memory finishedIds = new uint[](i);\n    uint[] memory finishedIndexes = new uint[](i);\n\n    if (i == 0) {\n      UpdateQueue(_user, finishedIds, finishedIndexes);\n      return;\n    }\n\n    for (uint j = 0; j < i; j++) {\n      Build storage building = userBuildingsQueue[_user][j];\n      finishedIds[j] = building.id;\n      finishedIndexes[j] = building.index;\n    }\n\n    require(userBuildings.addUserBuildings(_user, finishedIds, finishedIndexes));\n\n    require(shiftUserBuildings(_user, i));\n\n    UpdateQueue(_user, finishedIds, finishedIndexes);\n  }\n\n  /*\n   * @title Upgrade Building.\n   * @dev Function to upgrade a buildings. If the building is in queue\n   *  the queue is updated.\n   * @param _id The id of the building that is gonna be replaced for the upgrade. (uint)\n   * @param _idOfUpgrade The id of the upgrade. (uint)\n   * @param _index The index of the building. (uint)\n   */\n  function upgradeBuilding(uint _id, uint _idOfUpgrade, uint _index) external {\n    require(buildingsData.checkBuildingExist(_id));\n    require(buildingsData.checkBuildingExist(_idOfUpgrade));\n    require(buildingsData.checkUpgrade(_id, _idOfUpgrade));\n\n    bool buildingIsInQueue;\n    uint buildingIndexInQueue;\n    (buildingIsInQueue, buildingIndexInQueue) = findBuildingInQueue(msg.sender, _id, _index);\n\n    uint price;\n    uint resourceType;\n    uint blocks;\n    (price, resourceType, blocks) = buildingsData.getBuildingData(_idOfUpgrade);\n\n    consumeResources(msg.sender, price, resourceType);\n\n    if (buildingIsInQueue) {\n      require(userBuildingsQueue[msg.sender][buildingIndexInQueue].endBlock <= block.number);\n      updateQueue(msg.sender);\n    }\n\n    require(userBuildings.upgradeBuilding(msg.sender, _id, _index));\n\n    uint startBlock = getStartBlock(msg.sender);\n    uint endBlock = startBlock.add(blocks);\n\n    userBuildingsQueue[msg.sender].push(Build(\n      uint32(_idOfUpgrade), uint32(_index), uint64(startBlock), uint64(endBlock)\n    ));\n\n    UpgradeBuilding(_idOfUpgrade, _index, startBlock, endBlock);\n  }\n\n  /*\n   * @title Find Building In Queue.\n   * @dev Function to find a building in queue.\n   * @param _user The address of the user. (address)\n   * @param _id The id of the building. (uint)\n   * @param _index The Index of the building. (uint)\n   * @return A boolean representing if the building exists in the queue\n   * and a uint representing the index/position of the building in the queue.\n   */\n  function findBuildingInQueue(address _user, uint _id, uint _index) public view returns (bool exists, uint indexInQueue) {\n    for (uint i = 0; i < userBuildingsQueue[_user].length; i++) {\n      if (_index == userBuildingsQueue[_user][i].index && _id == userBuildingsQueue[_user][i].id) {\n        return (true, i);\n      }\n    }\n    return (false, 0);\n  }\n\n  /*\n   * @title Update Queue Blocks.\n   * @dev Function to update the start and end blocks of each building in queue\n   * when a building is removed.\n   * @param _user The address of the user's queue to be updated. (address)\n   * @param _queueIndex The index in queue of the building. (uint)\n   */\n  function updateQueueBlocks(address _user, uint _queueIndex) internal {\n    uint64 blocks;\n    for (uint i = _queueIndex + 1; i < userBuildingsQueue[_user].length; i++) {\n      /* TODO: might need to implement safe math later*/\n      blocks = userBuildingsQueue[_user][i].endBlock - userBuildingsQueue[_user][i].startBlock;\n      if (i == _queueIndex + 1) {\n        if (userBuildingsQueue[_user][_queueIndex].startBlock >= block.number) {\n          userBuildingsQueue[_user][i].startBlock = userBuildingsQueue[_user][i - 1].startBlock;\n        }\n        if (userBuildingsQueue[_user][_queueIndex].startBlock < block.number) {\n          userBuildingsQueue[_user][i].startBlock = uint64(block.number);\n        }\n        userBuildingsQueue[_user][i].endBlock = userBuildingsQueue[_user][i].startBlock + blocks;\n      } else {\n        userBuildingsQueue[_user][i].startBlock = userBuildingsQueue[_user][i - 1].endBlock;\n        userBuildingsQueue[_user][i].endBlock = userBuildingsQueue[_user][i].startBlock + blocks;\n      }\n    }\n  }\n\n  /*\n   * @notice Shift User Buildings.\n   * @dev Function to shift the specified amount of builds from user buildings queue.\n   *  Being a chronologically ordered array, finished buildings will be always\n   *  first on the array.\n   * @param _user the address of the user's queue to be updated. (address)\n   * @param _amount of buildings to be shifted from the array. (uint)\n   * @return A boolean that indicates if the operation was successful.\n   */\n  function shiftUserBuildings(address _user, uint _amount) internal returns (bool) {\n        require(_amount <= userBuildingsQueue[_user].length);\n\n        for (uint i = _amount; i < userBuildingsQueue[_user].length; i++){\n            userBuildingsQueue[_user][i - _amount] = userBuildingsQueue[_user][i];\n        }\n        for (uint j = 1; j <= _amount; j++){\n          delete userBuildingsQueue[_user][userBuildingsQueue[_user].length - j];\n        }\n        userBuildingsQueue[_user].length -= _amount;\n        return true;\n    }\n\n  /*\n   * @notice Shift One User Buildings.\n   * @dev Function to shift one specified building from user buildings queue.\n   * @param _user The address of the user's queue to be updated. (address)\n   * @param _index The index of the building to be removed. (uint)\n   * @return A boolean that indicates if the operation was successful.\n   */\n  function shiftOneUserBuilding(address _user, uint _index) internal returns (bool) {\n    for (uint i = _index; i < userBuildingsQueue[_user].length; i++) {\n      if (i == userBuildingsQueue[_user].length - 1) {\n        delete userBuildingsQueue[_user][userBuildingsQueue[_user].length - 1];\n      } else {\n        userBuildingsQueue[_user][i] = userBuildingsQueue[_user][i + 1];\n      }\n    }\n    userBuildingsQueue[_user].length -= 1;\n    return true;\n  }\n\n  /*\n   * @notice Get the last building in the construction queue of the user.\n   * @param _user . (address)\n   */\n  function getLastUserBuilding(address _user) external view returns (uint id,\n                                                                uint startBlock,\n                                                                uint endBlock) {\n    require(_user != address(0));\n    require(userBuildingsQueue[_user].length > 0);\n\n    Build storage b = userBuildingsQueue[_user][userBuildingsQueue[_user].length -1];\n    return (b.id, b.startBlock, b.endBlock);\n  }\n\n  /*\n   * @notice Check Building Price and Get Block of it.\n   * @dev Function to check if the user has the necessary amount of resources\n   *  to build/upgrade the building. And returns the amount of blocks that\n   *  building takes to be done.\n   * @param _user the address of the user. (address)\n   * @param _price the price for the upgrade. (uint)\n   * @param _resourceType the type of the resource to consume. (uint)\n   * @return returns the amount of blocks that building takes to be done.\n   */\n  function consumeResources(address _user, uint _price, uint _resourceType) internal {\n    require(_resourceType == 0 || _resourceType == 1 || _resourceType == 2);\n    if (_price > 0) {\n      if (_resourceType == 0) {\n        require(userResources.consumeGold(_user, _price));\n      }\n      if (_resourceType == 1) {\n        require(userResources.consumeCrystal(_user, _price));\n      }\n      if (_resourceType == 2) {\n        require(userResources.consumeQuantumDust(_user, _price));\n      }\n    }\n  }\n\n  /*\n   * @notice Get Start Block.\n   * @dev Function to get the start block number of the new building to be\n   *  added in the queue.\n   * @param _user the address of the user (address)\n   */\n  function getStartBlock(address _user) internal view returns (uint) {\n    uint length = userBuildingsQueue[_user].length;\n    uint startBlock = block.number;\n    if (length > 0) {\n      Build storage lastBuilding = userBuildingsQueue[_user][SafeMath.sub(length, 1)];\n      if (block.number < lastBuilding.endBlock ) {\n        startBlock = lastBuilding.endBlock;\n      }\n    }\n    return startBlock;\n  }\n\n  /*\n   * @notice Get Buildings in Queue.\n   * @dev Function to check the ids of all the user's buildings in queue.\n   * @param _user the address of the user's queue to be shown. (address)\n   */\n  function getBuildingsInQueue(address _user) external view returns (uint[]) {\n    require(_user != address(0));\n\n    uint length = userBuildingsQueue[_user].length;\n    uint[] memory buildings = new uint[](length);\n    for (uint i = 0; i < length; i++) {\n      buildings[i] = userBuildingsQueue[_user][i].id;\n    }\n    return buildings;\n  }\n\n  /*\n   * @notice Get Ids and Blocks.\n   * @dev Function to get the ids, start block and end block of all buildings in queue.\n   * Used only for testing.\n   * @param _user the address of the user. (address)\n   * @return four uint arrays representiong the id, startBlock, endBlock and index of each building.\n   */\n  function getBuildings(address _user) external view returns (uint[], uint[], uint[], uint[]) {\n    require(_user != address(0));\n\n    uint length = userBuildingsQueue[_user].length;\n    uint[] memory ids = new uint[](length);\n    uint[] memory startBlocks = new uint[](length);\n    uint[] memory endBlocks = new uint[](length);\n    uint[] memory indexes = new uint[](length);\n    for (uint i = 0; i < length; i++) {\n      ids[i] = userBuildingsQueue[_user][i].id;\n      startBlocks[i] = userBuildingsQueue[_user][i].startBlock;\n      endBlocks[i] = userBuildingsQueue[_user][i].endBlock;\n      indexes[i] = userBuildingsQueue[_user][i].index;\n    }\n    return (ids, startBlocks, endBlocks, indexes);\n  }\n\n  /*\n   * @notice Get Building Id and Block.\n   * @dev Function to check the id and end block of a building in queue.\n   *  Only used for testing.\n   * @param _user The address of the user's queue to search in. (address)\n   * @param _index The index of the element to return in the array. (uint)\n   */\n  function getBuildingIdAndEndBlock(address _user, uint _indexInQueue) external view returns (uint id, uint endBlock) {\n    require(userBuildingsQueue[_user].length > _indexInQueue);\n    return (userBuildingsQueue[_user][_indexInQueue].id, userBuildingsQueue[_user][_indexInQueue].endBlock);\n  }\n\n  /*\n   * @notice Get Building Index.\n   * @dev Function to get the id and index of a building.\n   * Used only for testing.\n   * @param _user The address of the user. (address)\n   * @param _indexInQueue The index in queue of the building. (uint)\n   * @return Two uints representiong the id and index of a building.\n   */\n  function getBuildingIndex(address _user, uint _indexInQueue) external view returns (uint id, uint index) {\n    require(_user != address(0));\n    require(_indexInQueue < userBuildingsQueue[_user].length);\n\n    return (userBuildingsQueue[_user][_indexInQueue].id, userBuildingsQueue[_user][_indexInQueue].index);\n  }\n\n  /*\n   * @notice Get User Queue Resources.\n   * @dev Function to get the amount of gold and crystal produced in the buildings Queue\n   * since the last payout to the user.\n   * @param _user The address of the user to give the resources. (address)\n   * @param _payoutBlock The block where was the last payout to the user. (uint)\n   * @return Two uints representing the gold and crystal produced in the queue system.\n   */\n  function getUserQueueResources(address _user) external view returns (uint queueGold, uint queueCrystal) {\n    uint goldRate;\n    uint crystalRate;\n    uint diff;\n    uint payoutBlock = userResources.usersPayoutBlock(_user);\n\n\n\t\tfor (uint i = 0; i < userBuildingsQueue[_user].length; i++) {\n      if (userBuildingsQueue[_user][i].endBlock < block.number) {\n        (goldRate, crystalRate) = buildingsData.getGoldAndCrystalRates(userBuildingsQueue[_user][i].id);\n\n        if (userBuildingsQueue[_user][i].endBlock > payoutBlock) {\n          diff = SafeMath.sub(block.number, userBuildingsQueue[_user][i].endBlock);\n        } else {\n          diff = SafeMath.sub(block.number, payoutBlock);\n        }\n\n\n        if (diff > 0) {\n          if (goldRate > 0) {\n            queueGold = SafeMath.add(queueGold, SafeMath.mul(goldRate, diff));\n          }\n\n          if (crystalRate > 0) {\n            queueCrystal = SafeMath.add(queueCrystal, SafeMath.mul(crystalRate, diff));\n          }\n        }\n      }\n    }\n\n    return (queueGold, queueCrystal);\n\t}\n\n  /*\n   * @title Get Buildings Queue Length\n   * @dev Get the length of the buildings Queue.\n   * @param _user The address of the user. (address)\n   */\n  function getBuildingsQueueLength(address _user) external view returns (uint length) {\n    return userBuildingsQueue[_user].length;\n  }\n\n  /*\n   * @title Cancel Building.\n   * @dev Function to cancel/remove building from queue. The building is set\n   * to Active false in User Buildings.\n   * @param _id The id of the building to be removed. (uint)\n   * @param _index The Index of the building to be removed. (uint)\n   */\n  function cancelBuilding(uint _id, uint _index) external {\n    require(buildingsData.checkBuildingExist(_id));\n\n    bool buildingIsInQueue;\n    uint buildingIndexInQueue;\n\n    (buildingIsInQueue, buildingIndexInQueue) = findBuildingInQueue(msg.sender, _id, _index);\n\n    require(buildingIsInQueue);\n    require(userBuildingsQueue[msg.sender][buildingIndexInQueue].endBlock > block.number);\n\n    userResources.payoutResources(msg.sender);\n    updateQueueBlocks(msg.sender, buildingIndexInQueue);\n    require(shiftOneUserBuilding(msg.sender, buildingIndexInQueue));\n\n    require(userBuildings.updateBuildingStatus(msg.sender, _id, _index));\n\n    RemoveBuilding(msg.sender, _id, _index);\n\n  }\n\n  /*\n   * @title Get User Resources Capacity.\n   * @dev Function to get the resources capacity of the buildings in queue.\n   * @param _user The address of the user. (address)\n   * @return Two uints representing the gold and crystal capacity of the buildings in queue.\n   */\n  function getUserResourcesCapacity(address _user) external view returns (uint totalGoldCapacity, uint totalCrystalCapacity) {\n    uint goldCapacity;\n    uint crystalCapacity;\n\n\t\tfor (uint i = 0; i < userBuildingsQueue[_user].length; i++) {\n      uint buildingId = 0;\n      if (userBuildingsQueue[_user][i].endBlock < block.number) {\n        buildingId = userBuildingsQueue[_user][i].id;\n      }\n      if (userBuildingsQueue[_user][i].endBlock >= block.number &&\n         ((userBuildingsQueue[_user][i].id - userBuildingsQueue[_user][i].id % 1000) / 1000) > 1) {\n        buildingId = userBuildingsQueue[_user][i].id - 1000;\n      }\n\n      if (buildingId > 0) {\n        (goldCapacity, crystalCapacity) = buildingsData.getGoldAndCrystalCapacity(buildingId);\n\n        if (goldCapacity > 0) {\n          totalGoldCapacity = SafeMath.add(totalGoldCapacity, goldCapacity);\n        }\n\n        if (crystalCapacity > 0) {\n          totalCrystalCapacity = SafeMath.add(totalCrystalCapacity, crystalCapacity);\n        }\n      }\n    }\n\n    return (totalGoldCapacity, totalCrystalCapacity);\n  }\n\n}\n",
  "sourcePath": "/home/francisco/Truffle/crypto-wars-solidity/contracts/BuildingsQueue.sol",
  "compiler": {
    "name": "solc",
    "version": "0.4.19+commit.c4cbbb05.Emscripten.clang"
  },
  "schemaVersion": "2.0.0",
  "updatedAt": "2018-03-15T18:51:10.652Z"
}