{
  "contractName": "HasNoEther",
  "abi": [
    {
      "constant": true,
      "inputs": [],
      "name": "owner",
      "outputs": [
        {
          "name": "",
          "type": "address"
        }
      ],
      "payable": false,
      "stateMutability": "view",
      "type": "function"
    },
    {
      "constant": false,
      "inputs": [
        {
          "name": "newOwner",
          "type": "address"
        }
      ],
      "name": "transferOwnership",
      "outputs": [],
      "payable": false,
      "stateMutability": "nonpayable",
      "type": "function"
    },
    {
      "inputs": [],
      "payable": true,
      "stateMutability": "payable",
      "type": "constructor"
    },
    {
      "payable": false,
      "stateMutability": "nonpayable",
      "type": "fallback"
    },
    {
      "anonymous": false,
      "inputs": [
        {
          "indexed": true,
          "name": "previousOwner",
          "type": "address"
        },
        {
          "indexed": true,
          "name": "newOwner",
          "type": "address"
        }
      ],
      "name": "OwnershipTransferred",
      "type": "event"
    },
    {
      "constant": false,
      "inputs": [],
      "name": "reclaimEther",
      "outputs": [],
      "payable": false,
      "stateMutability": "nonpayable",
      "type": "function"
    }
  ],
  "bytecode": "0x6080604052336000806101000a81548173ffffffffffffffffffffffffffffffffffffffff021916908373ffffffffffffffffffffffffffffffffffffffff16021790555060003414151561005357600080fd5b61038f806100626000396000f300608060405260043610610057576000357c0100000000000000000000000000000000000000000000000000000000900463ffffffff1680638da5cb5b146100665780639f727c27146100bd578063f2fde38b146100d4575b34801561006357600080fd5b50005b34801561007257600080fd5b5061007b610117565b604051808273ffffffffffffffffffffffffffffffffffffffff1673ffffffffffffffffffffffffffffffffffffffff16815260200191505060405180910390f35b3480156100c957600080fd5b506100d261013c565b005b3480156100e057600080fd5b50610115600480360381019080803573ffffffffffffffffffffffffffffffffffffffff16906020019092919050505061020e565b005b6000809054906101000a900473ffffffffffffffffffffffffffffffffffffffff1681565b6000809054906101000a900473ffffffffffffffffffffffffffffffffffffffff1673ffffffffffffffffffffffffffffffffffffffff163373ffffffffffffffffffffffffffffffffffffffff1614151561019757600080fd5b6000809054906101000a900473ffffffffffffffffffffffffffffffffffffffff1673ffffffffffffffffffffffffffffffffffffffff166108fc3073ffffffffffffffffffffffffffffffffffffffff16319081150290604051600060405180830381858888f19350505050151561020c57fe5b565b6000809054906101000a900473ffffffffffffffffffffffffffffffffffffffff1673ffffffffffffffffffffffffffffffffffffffff163373ffffffffffffffffffffffffffffffffffffffff1614151561026957600080fd5b600073ffffffffffffffffffffffffffffffffffffffff168173ffffffffffffffffffffffffffffffffffffffff16141515156102a557600080fd5b8073ffffffffffffffffffffffffffffffffffffffff166000809054906101000a900473ffffffffffffffffffffffffffffffffffffffff1673ffffffffffffffffffffffffffffffffffffffff167f8be0079c531659141344cd1fd0a4f28419497f9722a3daafe3b4186f6b6457e060405160405180910390a3806000806101000a81548173ffffffffffffffffffffffffffffffffffffffff021916908373ffffffffffffffffffffffffffffffffffffffff160217905550505600a165627a7a7230582028b8df67084be9892f0c94b17c626874bb793c6b06a0a1dbbe8c239582a611fc0029",
  "source": "pragma solidity ^0.4.18;\n\nimport \"./Ownable.sol\";\n\n/**\n * @title Contracts that should not own Ether\n * @author Remco Bloemen <remco@2π.com>\n * @dev This tries to block incoming ether to prevent accidental loss of Ether. Should Ether end up\n * in the contract, it will allow the owner to reclaim this ether.\n * @notice Ether can still be send to this contract by:\n * calling functions labeled `payable`\n * `selfdestruct(contract_address)`\n * mining directly to the contract address\n*/\ncontract HasNoEther is Ownable {\n\n  /**\n  * @dev Constructor that rejects incoming Ether\n  * @dev The `payable` flag is added so we can access `msg.value` without compiler warning. If we\n  * leave out payable, then Solidity will allow inheriting contracts to implement a payable\n  * constructor. By doing it this way we prevent a payable constructor from working. Alternatively\n  * we could use assembly to access msg.value.\n  */\n  function HasNoEther() public payable {\n    require(msg.value == 0);\n  }\n\n  /**\n   * @dev Disallows direct send by settings a default function without the `payable` flag.\n   */\n  function() external {\n  }\n\n  /**\n   * @dev Transfer all Ether held by the contract to the owner.\n   */\n  function reclaimEther() external onlyOwner {\n    assert(owner.send(this.balance));\n  }\n}\n",
  "sourcePath": "zeppelin-solidity/contracts/ownership/HasNoEther.sol",
  "compiler": {
    "name": "solc",
    "version": "0.4.23+commit.124ca40d.Emscripten.clang"
  },
  "schemaVersion": "2.0.0",
  "updatedAt": "2018-04-26T18:57:36.768Z"
}