{
  "contractName": "UnitsData",
  "abi": [
    {
      "constant": false,
      "inputs": [
        {
          "name": "token",
          "type": "address"
        }
      ],
      "name": "reclaimToken",
      "outputs": [],
      "payable": false,
      "stateMutability": "nonpayable",
      "type": "function"
    },
    {
      "constant": false,
      "inputs": [
        {
          "name": "contractAddr",
          "type": "address"
        }
      ],
      "name": "reclaimContract",
      "outputs": [],
      "payable": false,
      "stateMutability": "nonpayable",
      "type": "function"
    },
    {
      "constant": false,
      "inputs": [
        {
          "name": "_version",
          "type": "uint256"
        }
      ],
      "name": "setVersion",
      "outputs": [],
      "payable": false,
      "stateMutability": "nonpayable",
      "type": "function"
    },
    {
      "constant": true,
      "inputs": [],
      "name": "version",
      "outputs": [
        {
          "name": "",
          "type": "uint256"
        }
      ],
      "payable": false,
      "stateMutability": "view",
      "type": "function"
    },
    {
      "constant": true,
      "inputs": [],
      "name": "owner",
      "outputs": [
        {
          "name": "",
          "type": "address"
        }
      ],
      "payable": false,
      "stateMutability": "view",
      "type": "function"
    },
    {
      "constant": false,
      "inputs": [],
      "name": "reclaimEther",
      "outputs": [],
      "payable": false,
      "stateMutability": "nonpayable",
      "type": "function"
    },
    {
      "constant": true,
      "inputs": [
        {
          "name": "",
          "type": "address"
        }
      ],
      "name": "migratedUsers",
      "outputs": [
        {
          "name": "",
          "type": "bool"
        }
      ],
      "payable": false,
      "stateMutability": "view",
      "type": "function"
    },
    {
      "constant": false,
      "inputs": [
        {
          "name": "from_",
          "type": "address"
        },
        {
          "name": "value_",
          "type": "uint256"
        },
        {
          "name": "data_",
          "type": "bytes"
        }
      ],
      "name": "tokenFallback",
      "outputs": [],
      "payable": false,
      "stateMutability": "nonpayable",
      "type": "function"
    },
    {
      "constant": false,
      "inputs": [
        {
          "name": "_newContract",
          "type": "address"
        }
      ],
      "name": "migrateUser",
      "outputs": [],
      "payable": false,
      "stateMutability": "nonpayable",
      "type": "function"
    },
    {
      "constant": true,
      "inputs": [
        {
          "name": "",
          "type": "uint256"
        }
      ],
      "name": "unitIds",
      "outputs": [
        {
          "name": "",
          "type": "uint256"
        }
      ],
      "payable": false,
      "stateMutability": "view",
      "type": "function"
    },
    {
      "constant": true,
      "inputs": [
        {
          "name": "",
          "type": "uint256"
        }
      ],
      "name": "units",
      "outputs": [
        {
          "name": "name",
          "type": "string"
        },
        {
          "name": "health",
          "type": "int32"
        },
        {
          "name": "defense",
          "type": "int32"
        },
        {
          "name": "attack",
          "type": "int32"
        },
        {
          "name": "price",
          "type": "int32"
        },
        {
          "name": "resource",
          "type": "int32"
        },
        {
          "name": "blocks",
          "type": "int32"
        }
      ],
      "payable": false,
      "stateMutability": "view",
      "type": "function"
    },
    {
      "constant": false,
      "inputs": [
        {
          "name": "newOwner",
          "type": "address"
        }
      ],
      "name": "transferOwnership",
      "outputs": [],
      "payable": false,
      "stateMutability": "nonpayable",
      "type": "function"
    },
    {
      "inputs": [],
      "payable": false,
      "stateMutability": "nonpayable",
      "type": "constructor"
    },
    {
      "payable": false,
      "stateMutability": "nonpayable",
      "type": "fallback"
    },
    {
      "anonymous": false,
      "inputs": [
        {
          "indexed": false,
          "name": "id",
          "type": "uint256"
        },
        {
          "indexed": false,
          "name": "name",
          "type": "string"
        }
      ],
      "name": "AddUnit",
      "type": "event"
    },
    {
      "anonymous": false,
      "inputs": [
        {
          "indexed": false,
          "name": "id",
          "type": "uint256"
        },
        {
          "indexed": false,
          "name": "name",
          "type": "string"
        }
      ],
      "name": "UpdateUnit",
      "type": "event"
    },
    {
      "anonymous": false,
      "inputs": [
        {
          "indexed": true,
          "name": "user",
          "type": "address"
        },
        {
          "indexed": true,
          "name": "newContract",
          "type": "address"
        }
      ],
      "name": "UserMigrated",
      "type": "event"
    },
    {
      "anonymous": false,
      "inputs": [
        {
          "indexed": true,
          "name": "previousOwner",
          "type": "address"
        },
        {
          "indexed": true,
          "name": "newOwner",
          "type": "address"
        }
      ],
      "name": "OwnershipTransferred",
      "type": "event"
    },
    {
      "constant": true,
      "inputs": [],
      "name": "isUnitsData",
      "outputs": [
        {
          "name": "",
          "type": "bool"
        }
      ],
      "payable": false,
      "stateMutability": "pure",
      "type": "function"
    },
    {
      "constant": false,
      "inputs": [
        {
          "name": "_previousUnitsData",
          "type": "address"
        },
        {
          "name": "_version",
          "type": "uint256"
        }
      ],
      "name": "setUnitsDataVersion",
      "outputs": [],
      "payable": false,
      "stateMutability": "nonpayable",
      "type": "function"
    },
    {
      "constant": true,
      "inputs": [],
      "name": "getUnitIdsLength",
      "outputs": [
        {
          "name": "",
          "type": "uint256"
        }
      ],
      "payable": false,
      "stateMutability": "view",
      "type": "function"
    },
    {
      "constant": false,
      "inputs": [
        {
          "name": "id",
          "type": "uint256"
        },
        {
          "name": "name",
          "type": "string"
        },
        {
          "name": "stats",
          "type": "int32[]"
        }
      ],
      "name": "addUnit",
      "outputs": [],
      "payable": false,
      "stateMutability": "nonpayable",
      "type": "function"
    },
    {
      "constant": false,
      "inputs": [
        {
          "name": "id",
          "type": "uint256"
        },
        {
          "name": "name",
          "type": "string"
        },
        {
          "name": "stats",
          "type": "int32[]"
        }
      ],
      "name": "updateUnit",
      "outputs": [],
      "payable": false,
      "stateMutability": "nonpayable",
      "type": "function"
    },
    {
      "constant": true,
      "inputs": [
        {
          "name": "_id",
          "type": "uint256"
        }
      ],
      "name": "checkUnitExist",
      "outputs": [
        {
          "name": "",
          "type": "bool"
        }
      ],
      "payable": false,
      "stateMutability": "view",
      "type": "function"
    },
    {
      "constant": true,
      "inputs": [
        {
          "name": "_id",
          "type": "uint256"
        }
      ],
      "name": "getUnitData",
      "outputs": [
        {
          "name": "price",
          "type": "uint256"
        },
        {
          "name": "resource",
          "type": "uint256"
        },
        {
          "name": "blocks",
          "type": "uint256"
        }
      ],
      "payable": false,
      "stateMutability": "view",
      "type": "function"
    },
    {
      "constant": true,
      "inputs": [
        {
          "name": "_id",
          "type": "uint256"
        }
      ],
      "name": "getBattleRates",
      "outputs": [
        {
          "name": "health",
          "type": "uint256"
        },
        {
          "name": "defense",
          "type": "uint256"
        },
        {
          "name": "attack",
          "type": "uint256"
        }
      ],
      "payable": false,
      "stateMutability": "view",
      "type": "function"
    }
  ],
  "bytecode": "0x608060405234801561001057600080fd5b50336000806101000a81548173ffffffffffffffffffffffffffffffffffffffff021916908373ffffffffffffffffffffffffffffffffffffffff16021790555060003414151561006057600080fd5b6123338061006f6000396000f300608060405260043610610112576000357c0100000000000000000000000000000000000000000000000000000000900463ffffffff168063078d8c281461012157806317ffc3201461016e5780632aed7f3f146101b15780632e44f197146101f45780632e6dd36514610223578063399cc115146102805780633e8bd415146102ab578063408def1e1461030857806354fd4d50146103355780638a063b63146103605780638da5cb5b146103af5780639d4f9e33146104065780639f727c271461044b578063a3118b2414610462578063bbe768a4146104b1578063c0ee0b8a1461050c578063dd6c7e3114610571578063ddfd538c146105b4578063e5fba6cc146105f5578063f2fde38b146106e9575b34801561011e57600080fd5b50005b34801561012d57600080fd5b5061016c600480360381019080803573ffffffffffffffffffffffffffffffffffffffff1690602001909291908035906020019092919050505061072c565b005b34801561017a57600080fd5b506101af600480360381019080803573ffffffffffffffffffffffffffffffffffffffff16906020019092919050505061092b565b005b3480156101bd57600080fd5b506101f2600480360381019080803573ffffffffffffffffffffffffffffffffffffffff169060200190929190505050610ab0565b005b34801561020057600080fd5b50610209610be8565b604051808215151515815260200191505060405180910390f35b34801561022f57600080fd5b5061027e60048036038101908080359060200190929190803590602001908201803590602001919091929391929390803590602001908201803590602001919091929391929390505050610bf1565b005b34801561028c57600080fd5b50610295610dbc565b6040518082815260200191505060405180910390f35b3480156102b757600080fd5b5061030660048036038101908080359060200190929190803590602001908201803590602001919091929391929390803590602001908201803590602001919091929391929390505050610dc9565b005b34801561031457600080fd5b50610333600480360381019080803590602001909291905050506112cf565b005b34801561034157600080fd5b5061034a611334565b6040518082815260200191505060405180910390f35b34801561036c57600080fd5b5061038b6004803603810190808035906020019092919050505061133a565b60405180848152602001838152602001828152602001935050505060405180910390f35b3480156103bb57600080fd5b506103c4611465565b604051808273ffffffffffffffffffffffffffffffffffffffff1673ffffffffffffffffffffffffffffffffffffffff16815260200191505060405180910390f35b34801561041257600080fd5b506104316004803603810190808035906020019092919050505061148a565b604051808215151515815260200191505060405180910390f35b34801561045757600080fd5b5061046061152c565b005b34801561046e57600080fd5b5061048d600480360381019080803590602001909291905050506115fe565b60405180848152602001838152602001828152602001935050505060405180910390f35b3480156104bd57600080fd5b506104f2600480360381019080803573ffffffffffffffffffffffffffffffffffffffff169060200190929190505050611729565b604051808215151515815260200191505060405180910390f35b34801561051857600080fd5b5061056f600480360381019080803573ffffffffffffffffffffffffffffffffffffffff16906020019092919080359060200190929190803590602001908201803590602001919091929391929390505050611749565b005b34801561057d57600080fd5b506105b2600480360381019080803573ffffffffffffffffffffffffffffffffffffffff16906020019092919050505061174e565b005b3480156105c057600080fd5b506105df60048036038101908080359060200190929190505050611911565b6040518082815260200191505060405180910390f35b34801561060157600080fd5b5061062060048036038101908080359060200190929190505050611934565b60405180806020018860030b60030b81526020018760030b60030b81526020018660030b60030b81526020018560030b60030b81526020018460030b60030b81526020018360030b60030b8152602001828103825289818151815260200191508051906020019080838360005b838110156106a857808201518184015260208101905061068d565b50505050905090810190601f1680156106d55780820380516001836020036101000a031916815260200191505b509850505050505050505060405180910390f35b3480156106f557600080fd5b5061072a600480360381019080803573ffffffffffffffffffffffffffffffffffffffff169060200190929190505050611a5c565b005b6000809054906101000a900473ffffffffffffffffffffffffffffffffffffffff1673ffffffffffffffffffffffffffffffffffffffff163373ffffffffffffffffffffffffffffffffffffffff1614151561078757600080fd5b8173ffffffffffffffffffffffffffffffffffffffff16632e44f1976040518163ffffffff167c0100000000000000000000000000000000000000000000000000000000028152600401602060405180830381600087803b1580156107eb57600080fd5b505af11580156107ff573d6000803e3d6000fd5b505050506040513d602081101561081557600080fd5b8101908080519060200190929190505050151561083157600080fd5b8173ffffffffffffffffffffffffffffffffffffffff166354fd4d506040518163ffffffff167c0100000000000000000000000000000000000000000000000000000000028152600401602060405180830381600087803b15801561089557600080fd5b505af11580156108a9573d6000803e3d6000fd5b505050506040513d60208110156108bf57600080fd5b8101908080519060200190929190505050811115156108dd57600080fd5b81600560006101000a81548173ffffffffffffffffffffffffffffffffffffffff021916908373ffffffffffffffffffffffffffffffffffffffff160217905550610927816112cf565b5050565b60008060009054906101000a900473ffffffffffffffffffffffffffffffffffffffff1673ffffffffffffffffffffffffffffffffffffffff163373ffffffffffffffffffffffffffffffffffffffff1614151561098857600080fd5b8173ffffffffffffffffffffffffffffffffffffffff166370a08231306040518263ffffffff167c0100000000000000000000000000000000000000000000000000000000028152600401808273ffffffffffffffffffffffffffffffffffffffff1673ffffffffffffffffffffffffffffffffffffffff168152602001915050602060405180830381600087803b158015610a2357600080fd5b505af1158015610a37573d6000803e3d6000fd5b505050506040513d6020811015610a4d57600080fd5b81019080805190602001909291905050509050610aac6000809054906101000a900473ffffffffffffffffffffffffffffffffffffffff16828473ffffffffffffffffffffffffffffffffffffffff16611bb19092919063ffffffff16565b5050565b60008060009054906101000a900473ffffffffffffffffffffffffffffffffffffffff1673ffffffffffffffffffffffffffffffffffffffff163373ffffffffffffffffffffffffffffffffffffffff16141515610b0d57600080fd5b8190508073ffffffffffffffffffffffffffffffffffffffff1663f2fde38b6000809054906101000a900473ffffffffffffffffffffffffffffffffffffffff166040518263ffffffff167c0100000000000000000000000000000000000000000000000000000000028152600401808273ffffffffffffffffffffffffffffffffffffffff1673ffffffffffffffffffffffffffffffffffffffff168152602001915050600060405180830381600087803b158015610bcc57600080fd5b505af1158015610be0573d6000803e3d6000fd5b505050505050565b60006001905090565b6000809054906101000a900473ffffffffffffffffffffffffffffffffffffffff1673ffffffffffffffffffffffffffffffffffffffff163373ffffffffffffffffffffffffffffffffffffffff16141515610c4c57600080fd5b604051806000019050604051809103902060001916600360008781526020019081526020016000206000016040518082805460018160011615610100020316600290048015610cd25780601f10610cb0576101008083540402835291820191610cd2565b820191906000526020600020905b815481529060010190602001808311610cbe575b505091505060405180910390206000191614151515610cf057600080fd5b610d5c8585858080601f016020809104026020016040519081016040528093929190818152602001838380828437820191505050505050848480806020026020016040519081016040528093929190818152602001838360200280828437820191505050505050611c9c565b7f4e9f344492cc332fee544014a6fdf5726a611af4dff176caedefe395a491ee8085858560405180848152602001806020018281038252848482818152602001925080828437820191505094505050505060405180910390a15050505050565b6000600480549050905090565b6000809054906101000a900473ffffffffffffffffffffffffffffffffffffffff1673ffffffffffffffffffffffffffffffffffffffff163373ffffffffffffffffffffffffffffffffffffffff16141515610e2457600080fd5b604051806000019050604051809103902060001916600360008781526020019081526020016000206000016040518082805460018160011615610100020316600290048015610eaa5780601f10610e88576101008083540402835291820191610eaa565b820191906000526020600020905b815481529060010190602001808311610e96575b5050915050604051809103902060001916141515610ec757600080fd5b60405180600001905060405180910390206000191684846040518083838082843782019150509250505060405180910390206000191614151515610f0a57600080fd5b6000828260008181101515610f1b57fe5b9050602002013560030b60030b12151515610f3557600080fd5b6000828260018181101515610f4657fe5b9050602002013560030b60030b12151515610f6057600080fd5b6000828260028181101515610f7157fe5b9050602002013560030b60030b12151515610f8b57600080fd5b6000828260038181101515610f9c57fe5b9050602002013560030b60030b12151515610fb657600080fd5b6000828260048181101515610fc757fe5b9050602002013560030b60030b12151515610fe157600080fd5b6000828260058181101515610ff257fe5b9050602002013560030b60030b1215151561100c57600080fd5b60e06040519081016040528085858080601f016020809104026020016040519081016040528093929190818152602001838380828437820191505050505050815260200183836000818110151561105f57fe5b9050602002013560030b60030b815260200183836001818110151561108057fe5b9050602002013560030b60030b81526020018383600281811015156110a157fe5b9050602002013560030b60030b81526020018383600381811015156110c257fe5b9050602002013560030b60030b81526020018383600481811015156110e357fe5b9050602002013560030b60030b815260200183836005818110151561110457fe5b9050602002013560030b60030b8152506003600087815260200190815260200160002060008201518160000190805190602001906111439291906121e2565b5060208201518160010160006101000a81548163ffffffff021916908360030b63ffffffff16021790555060408201518160010160046101000a81548163ffffffff021916908360030b63ffffffff16021790555060608201518160010160086101000a81548163ffffffff021916908360030b63ffffffff160217905550608082015181600101600c6101000a81548163ffffffff021916908360030b63ffffffff16021790555060a08201518160010160106101000a81548163ffffffff021916908360030b63ffffffff16021790555060c08201518160010160146101000a81548163ffffffff021916908360030b63ffffffff16021790555090505060048590806001815401808255809150509060018203906000526020600020016000909192909190915055507f6494d5a45bee337c574fefdd184bb864e048a358378725ace8f067e8b532148b85858560405180848152602001806020018281038252848482818152602001925080828437820191505094505050505060405180910390a15050505050565b6000809054906101000a900473ffffffffffffffffffffffffffffffffffffffff1673ffffffffffffffffffffffffffffffffffffffff163373ffffffffffffffffffffffffffffffffffffffff1614151561132a57600080fd5b8060018190555050565b60015481565b60008060006040518060000190506040518091039020600019166003600086815260200190815260200160002060000160405180828054600181600116156101000203166002900480156113c55780601f106113a35761010080835404028352918201916113c5565b820191906000526020600020905b8154815290600101906020018083116113b1575b5050915050604051809103902060001916141515156113e357600080fd5b6003600085815260200190815260200160002060010160009054906101000a900460030b60030b6003600086815260200190815260200160002060010160049054906101000a900460030b60030b6003600087815260200190815260200160002060010160089054906101000a900460030b60030b9250925092509193909250565b6000809054906101000a900473ffffffffffffffffffffffffffffffffffffffff1681565b60006040518060000190506040518091039020600019166003600084815260200190815260200160002060000160405180828054600181600116156101000203166002900480156115125780601f106114f0576101008083540402835291820191611512565b820191906000526020600020905b8154815290600101906020018083116114fe575b505091505060405180910390206000191614159050919050565b6000809054906101000a900473ffffffffffffffffffffffffffffffffffffffff1673ffffffffffffffffffffffffffffffffffffffff163373ffffffffffffffffffffffffffffffffffffffff1614151561158757600080fd5b6000809054906101000a900473ffffffffffffffffffffffffffffffffffffffff1673ffffffffffffffffffffffffffffffffffffffff166108fc3073ffffffffffffffffffffffffffffffffffffffff16319081150290604051600060405180830381858888f1935050505015156115fc57fe5b565b60008060006040518060000190506040518091039020600019166003600086815260200190815260200160002060000160405180828054600181600116156101000203166002900480156116895780601f10611667576101008083540402835291820191611689565b820191906000526020600020905b815481529060010190602001808311611675575b5050915050604051809103902060001916141515156116a757600080fd5b60036000858152602001908152602001600020600101600c9054906101000a900460030b60030b6003600086815260200190815260200160002060010160109054906101000a900460030b60030b6003600087815260200190815260200160002060010160149054906101000a900460030b60030b9250925092509193909250565b60026020528060005260406000206000915054906101000a900460ff1681565b600080fd5b60011515600260003373ffffffffffffffffffffffffffffffffffffffff1673ffffffffffffffffffffffffffffffffffffffff16815260200190815260200160002060009054906101000a900460ff161515141515156117ae57600080fd5b6001548173ffffffffffffffffffffffffffffffffffffffff166354fd4d506040518163ffffffff167c0100000000000000000000000000000000000000000000000000000000028152600401602060405180830381600087803b15801561181557600080fd5b505af1158015611829573d6000803e3d6000fd5b505050506040513d602081101561183f57600080fd5b810190808051906020019092919050505011151561185c57600080fd5b6001600260003373ffffffffffffffffffffffffffffffffffffffff1673ffffffffffffffffffffffffffffffffffffffff16815260200190815260200160002060006101000a81548160ff0219169083151502179055508073ffffffffffffffffffffffffffffffffffffffff163373ffffffffffffffffffffffffffffffffffffffff167fc123aa2e5c63456c59a4694ac50ba610152278a01162f3d5e3a6ffc457bc586e60405160405180910390a350565b60048181548110151561192057fe5b906000526020600020016000915090505481565b6003602052806000526040600020600091509050806000018054600181600116156101000203166002900480601f0160208091040260200160405190810160405280929190818152602001828054600181600116156101000203166002900480156119e05780601f106119b5576101008083540402835291602001916119e0565b820191906000526020600020905b8154815290600101906020018083116119c357829003601f168201915b5050505050908060010160009054906101000a900460030b908060010160049054906101000a900460030b908060010160089054906101000a900460030b9080600101600c9054906101000a900460030b908060010160109054906101000a900460030b908060010160149054906101000a900460030b905087565b6000809054906101000a900473ffffffffffffffffffffffffffffffffffffffff1673ffffffffffffffffffffffffffffffffffffffff163373ffffffffffffffffffffffffffffffffffffffff16141515611ab757600080fd5b600073ffffffffffffffffffffffffffffffffffffffff168173ffffffffffffffffffffffffffffffffffffffff1614151515611af357600080fd5b8073ffffffffffffffffffffffffffffffffffffffff166000809054906101000a900473ffffffffffffffffffffffffffffffffffffffff1673ffffffffffffffffffffffffffffffffffffffff167f8be0079c531659141344cd1fd0a4f28419497f9722a3daafe3b4186f6b6457e060405160405180910390a3806000806101000a81548173ffffffffffffffffffffffffffffffffffffffff021916908373ffffffffffffffffffffffffffffffffffffffff16021790555050565b8273ffffffffffffffffffffffffffffffffffffffff1663a9059cbb83836040518363ffffffff167c0100000000000000000000000000000000000000000000000000000000028152600401808373ffffffffffffffffffffffffffffffffffffffff1673ffffffffffffffffffffffffffffffffffffffff16815260200182815260200192505050602060405180830381600087803b158015611c5457600080fd5b505af1158015611c68573d6000803e3d6000fd5b505050506040513d6020811015611c7e57600080fd5b81019080805190602001909291905050501515611c9757fe5b505050565b604051806000019050604051809103902060001916826040518082805190602001908083835b602083101515611ce75780518252602082019150602081019050602083039250611cc2565b6001836020036101000a038019825116818451168082178552505050505050905001915050604051809103902060001916141515611d4b5781600360008581526020019081526020016000206000019080519060200190611d49929190612262565b505b6000816000815181101515611d5c57fe5b9060200190602002015160030b12158015611db85750806000815181101515611d8157fe5b9060200190602002015160030b6003600085815260200190815260200160002060010160009054906101000a900460030b60030b14155b15611e0e57806000815181101515611dcc57fe5b906020019060200201516003600085815260200190815260200160002060010160006101000a81548163ffffffff021916908360030b63ffffffff1602179055505b6000816001815181101515611e1f57fe5b9060200190602002015160030b12158015611e7b5750806001815181101515611e4457fe5b9060200190602002015160030b6003600085815260200190815260200160002060010160049054906101000a900460030b60030b14155b15611ed157806001815181101515611e8f57fe5b906020019060200201516003600085815260200190815260200160002060010160046101000a81548163ffffffff021916908360030b63ffffffff1602179055505b6000816002815181101515611ee257fe5b9060200190602002015160030b12158015611f3e5750806002815181101515611f0757fe5b9060200190602002015160030b6003600085815260200190815260200160002060010160089054906101000a900460030b60030b14155b15611f9457806002815181101515611f5257fe5b906020019060200201516003600085815260200190815260200160002060010160086101000a81548163ffffffff021916908360030b63ffffffff1602179055505b6000816003815181101515611fa557fe5b9060200190602002015160030b121580156120015750806003815181101515611fca57fe5b9060200190602002015160030b60036000858152602001908152602001600020600101600c9054906101000a900460030b60030b14155b156120575780600381518110151561201557fe5b9060200190602002015160036000858152602001908152602001600020600101600c6101000a81548163ffffffff021916908360030b63ffffffff1602179055505b600081600481518110151561206857fe5b9060200190602002015160030b121580156120c4575080600481518110151561208d57fe5b9060200190602002015160030b6003600085815260200190815260200160002060010160109054906101000a900460030b60030b14155b1561211a578060048151811015156120d857fe5b906020019060200201516003600085815260200190815260200160002060010160106101000a81548163ffffffff021916908360030b63ffffffff1602179055505b600081600581518110151561212b57fe5b9060200190602002015160030b12158015612187575080600581518110151561215057fe5b9060200190602002015160030b6003600085815260200190815260200160002060010160149054906101000a900460030b60030b14155b156121dd5780600581518110151561219b57fe5b906020019060200201516003600085815260200190815260200160002060010160146101000a81548163ffffffff021916908360030b63ffffffff1602179055505b505050565b828054600181600116156101000203166002900490600052602060002090601f016020900481019282601f1061222357805160ff1916838001178555612251565b82800160010185558215612251579182015b82811115612250578251825591602001919060010190612235565b5b50905061225e91906122e2565b5090565b828054600181600116156101000203166002900490600052602060002090601f016020900481019282601f106122a357805160ff19168380011785556122d1565b828001600101855582156122d1579182015b828111156122d05782518255916020019190600101906122b5565b5b5090506122de91906122e2565b5090565b61230491905b808211156123005760008160009055506001016122e8565b5090565b905600a165627a7a7230582070cc7261602843327a3627bc2405bb13a2de3202116235525cd4dbfc05af953d0029",
  "source": "pragma solidity ^0.4.23;\n\nimport 'zeppelin-solidity/contracts/ownership/NoOwner.sol';\nimport './Versioned.sol';\n\n/**\n * @title UnitsData (WIP)\n * @notice This contract specifies how units are set up.\n * @dev You can add units and update them\n * @dev Issue: * https://github.com/e11-io/crypto-wars-solidity/issues/\n */\ncontract UnitsData is NoOwner, Versioned {\n\n  /**\n   * @dev event for adding unit to contract logging\n   * @param id of the added unit\n   * @param name the name of the unit\n   */\n  event AddUnit(uint id, string name);\n\n  /**\n   * event for updating a unit logging\n   * @param id of the updated unit\n   * @param name the name of the unit\n   */\n  event UpdateUnit(uint id, string name);\n\n  struct Unit {\n    string name;\n    int32 health;\n    int32 defense;\n    int32 attack;\n    int32 price;\n    int32 resource;\n    int32 blocks;\n  }\n\n  // Mapping of id -> unit struct.\n  mapping (uint => Unit) public units;\n\n  uint[] public unitIds;\n\n  UnitsData previousUnitsData;\n\n  /*\n   * @notice Constructor: Instantiate Units Data contract.\n   * @dev Constructor function.\n   */\n  constructor() public {\n  }\n\n  /*\n   * @notice Makes the contract type verifiable.\n   * @dev Function to prove the contract is Units Data.\n   */\n  function isUnitsData() external pure returns (bool) {\n    return true;\n  }\n\n  /*\n   * @notice Sets the contract's version and instantiates the previous version contract.\n   * @dev Function to set the contract version and instantiate the previous Units Data.\n   * @param _previousUnitsData the address of previous Units Data contract. (address)\n   * @param _version the current contract version number. (uint)\n   */\n  function setUnitsDataVersion(UnitsData _previousUnitsData, uint _version) external onlyOwner {\n    require(_previousUnitsData.isUnitsData());\n    require(_version > _previousUnitsData.version());\n    previousUnitsData = _previousUnitsData;\n    setVersion(_version);\n  }\n\n  /*\n   * @notice Get the amount of existing units.\n   */\n  function getUnitIdsLength() external view returns(uint) {\n    return unitIds.length;\n  }\n\n  /*\n   * @notice Create new definition of a unit\n   * @dev This method create a new Unit definition that can be use on the game.\n   * @param id (uint)\n   * @param name (string)\n   * @stats array of stats for the new unit: (int32[])\n   *      health (int)\n   *      defense (int)\n   *      attack (int)\n   *      price (int)\n   *      resource (int)\n   *      blocks (int)\n   */\n  function addUnit(uint id,\n                   string name,\n                   int32[] stats) external onlyOwner {\n\n    require(keccak256(units[id].name) == keccak256(\"\"));\n    require(keccak256(name) != keccak256(\"\"));\n    require(stats[0] >= 0); //\"health\"\n    require(stats[1] >= 0); //\"defense\"\n    require(stats[2] >= 0); //\"attack\"\n    require(stats[3] >= 0); //\"price\"\n    require(stats[4] >= 0); //\"resource\"\n    require(stats[5] >= 0); //\"block\"\n\n    units[id] = Unit(name,\n                     stats[0],\n                     stats[1],\n                     stats[2],\n                     stats[3],\n                     stats[4],\n                     stats[5]);\n    unitIds.push(id);\n    emit AddUnit(id, name);\n  }\n\n  /*\n   * @title Update unit\n   * @dev This method is used to update units name and stats\n   * @param id (uint)\n   * @stats array of stats for the new unit: (int32[])\n   *      health (int)\n   *      defense (int)\n   *      attack (int)\n   *      price (int)\n   *      resource (int)\n   *      blocks (int)\n   */\n  function updateUnit(uint id,\n                      string name,\n                      int32[] stats) external onlyOwner {\n    require(keccak256(units[id].name) != keccak256(\"\"));\n\n    updateUnitBasics(id, name, stats);\n\n    emit UpdateUnit(id, name);\n  }\n\n  /*\n   * @title Update Unit Basics\n   * @dev This method does part of the checks to update or not each stat.\n   * Its necessary to divide in two function because of the limited amout of storage\n   * variables solidity allows to use.\n   * @param id (uint)\n   * @stats array of stats for the new unit: (int32[])\n   *      health (int)\n   *      defense (int)\n   *      attack (int)\n   *      price (int)\n   *      resource (int)\n   *      blocks (int)\n   */\n  function updateUnitBasics(uint id, string name, int32[] stats) internal {\n      if (keccak256(name) != keccak256(\"\")) {\n        units[id].name = name;\n      }\n      if (stats[0] >= 0 && units[id].health != stats[0]) {\n        units[id].health = stats[0];\n      }\n      if (stats[1] >= 0 && units[id].defense != stats[1]) {\n        units[id].defense = stats[1];\n      }\n      if (stats[2] >= 0 && units[id].attack != stats[2]) {\n        units[id].attack = stats[2];\n      }\n      if (stats[3] >= 0 && units[id].price != stats[3]) {\n        units[id].price = stats[3];\n      }\n      if (stats[4] >= 0 && units[id].resource != stats[4]) {\n        units[id].resource = stats[4];\n      }\n      if (stats[5] >= 0 && units[id].blocks != stats[5]) {\n        units[id].blocks = stats[5];\n      }\n  }\n\n  /*\n   * @title Check Unit Exist\n   * @dev Check if a unit exists.\n   * @param _id The id of the unit to check. (uint)\n   * @return A boolean that indicates if the unit exists or not.\n   */\n  function checkUnitExist(uint _id) external view returns (bool) {\n    return keccak256(units[_id].name) != keccak256(\"\");\n  }\n\n  /*\n   * @title Get Unit Data\n   * @dev Gets the price, resource type and number of blocks a unit takes to build.\n   * @param _id The id of the unit. (uint)\n   * @return price, resource and blocks of the unit.\n   */\n  function getUnitData(uint _id) external view returns (uint price,\n                                                        uint resource,\n                                                        uint blocks) {\n    require(keccak256(units[_id].name) != keccak256(\"\"));\n    return (\n      uint(units[_id].price),\n      uint(units[_id].resource),\n      uint(units[_id].blocks)\n    );\n  }\n\n  /*\n   * @title Get Battle Rates\n   * @dev Get the amount of health, defense and attack a unit has.\n   * @param _id The id of the unit. (uint)\n   * @return .\n   */\n  function getBattleRates(uint _id) external view returns (uint health,\n                                                           uint defense,\n                                                           uint attack) {\n    require(keccak256(units[_id].name) != keccak256(\"\"));\n    return (uint(units[_id].health), uint(units[_id].defense), uint(units[_id].attack));\n  }\n\n}\n",
  "sourcePath": "/home/francisco/Truffle/crypto-wars-solidity/contracts/UnitsData.sol",
  "compiler": {
    "name": "solc",
    "version": "0.4.23+commit.124ca40d.Emscripten.clang"
  },
  "schemaVersion": "2.0.0",
  "updatedAt": "2018-04-26T19:14:33.759Z"
}