{
  "contractName": "UnitsQueue",
  "abi": [
    {
      "constant": false,
      "inputs": [
        {
          "name": "token",
          "type": "address"
        }
      ],
      "name": "reclaimToken",
      "outputs": [],
      "payable": false,
      "stateMutability": "nonpayable",
      "type": "function"
    },
    {
      "constant": false,
      "inputs": [
        {
          "name": "contractAddr",
          "type": "address"
        }
      ],
      "name": "reclaimContract",
      "outputs": [],
      "payable": false,
      "stateMutability": "nonpayable",
      "type": "function"
    },
    {
      "constant": false,
      "inputs": [
        {
          "name": "_version",
          "type": "uint256"
        }
      ],
      "name": "setVersion",
      "outputs": [],
      "payable": false,
      "stateMutability": "nonpayable",
      "type": "function"
    },
    {
      "constant": true,
      "inputs": [],
      "name": "version",
      "outputs": [
        {
          "name": "",
          "type": "uint256"
        }
      ],
      "payable": false,
      "stateMutability": "view",
      "type": "function"
    },
    {
      "constant": true,
      "inputs": [],
      "name": "owner",
      "outputs": [
        {
          "name": "",
          "type": "address"
        }
      ],
      "payable": false,
      "stateMutability": "view",
      "type": "function"
    },
    {
      "constant": true,
      "inputs": [
        {
          "name": "",
          "type": "address"
        },
        {
          "name": "",
          "type": "uint256"
        }
      ],
      "name": "userUnitsQueue",
      "outputs": [
        {
          "name": "id",
          "type": "uint32"
        },
        {
          "name": "quantity",
          "type": "uint256"
        },
        {
          "name": "startBlock",
          "type": "uint64"
        },
        {
          "name": "endBlock",
          "type": "uint64"
        }
      ],
      "payable": false,
      "stateMutability": "view",
      "type": "function"
    },
    {
      "constant": false,
      "inputs": [],
      "name": "reclaimEther",
      "outputs": [],
      "payable": false,
      "stateMutability": "nonpayable",
      "type": "function"
    },
    {
      "constant": true,
      "inputs": [
        {
          "name": "",
          "type": "address"
        }
      ],
      "name": "migratedUsers",
      "outputs": [
        {
          "name": "",
          "type": "bool"
        }
      ],
      "payable": false,
      "stateMutability": "view",
      "type": "function"
    },
    {
      "constant": false,
      "inputs": [
        {
          "name": "from_",
          "type": "address"
        },
        {
          "name": "value_",
          "type": "uint256"
        },
        {
          "name": "data_",
          "type": "bytes"
        }
      ],
      "name": "tokenFallback",
      "outputs": [],
      "payable": false,
      "stateMutability": "nonpayable",
      "type": "function"
    },
    {
      "constant": false,
      "inputs": [
        {
          "name": "_newContract",
          "type": "address"
        }
      ],
      "name": "migrateUser",
      "outputs": [],
      "payable": false,
      "stateMutability": "nonpayable",
      "type": "function"
    },
    {
      "constant": false,
      "inputs": [
        {
          "name": "newOwner",
          "type": "address"
        }
      ],
      "name": "transferOwnership",
      "outputs": [],
      "payable": false,
      "stateMutability": "nonpayable",
      "type": "function"
    },
    {
      "inputs": [],
      "payable": false,
      "stateMutability": "nonpayable",
      "type": "constructor"
    },
    {
      "payable": false,
      "stateMutability": "nonpayable",
      "type": "fallback"
    },
    {
      "anonymous": false,
      "inputs": [
        {
          "indexed": false,
          "name": "_user",
          "type": "address"
        },
        {
          "indexed": false,
          "name": "_id",
          "type": "uint256"
        },
        {
          "indexed": false,
          "name": "_quantity",
          "type": "uint256"
        },
        {
          "indexed": false,
          "name": "_startBlock",
          "type": "uint256"
        },
        {
          "indexed": false,
          "name": "_endBlock",
          "type": "uint256"
        }
      ],
      "name": "AddUnitsToQueue",
      "type": "event"
    },
    {
      "anonymous": false,
      "inputs": [
        {
          "indexed": false,
          "name": "_user",
          "type": "address"
        },
        {
          "indexed": false,
          "name": "_ids",
          "type": "uint256[]"
        },
        {
          "indexed": false,
          "name": "_indexes",
          "type": "uint256[]"
        }
      ],
      "name": "UpdateQueue",
      "type": "event"
    },
    {
      "anonymous": false,
      "inputs": [
        {
          "indexed": false,
          "name": "_idOfUpgrade",
          "type": "uint256"
        },
        {
          "indexed": false,
          "name": "_index",
          "type": "uint256"
        },
        {
          "indexed": false,
          "name": "startBlock",
          "type": "uint256"
        },
        {
          "indexed": false,
          "name": "endBlock",
          "type": "uint256"
        }
      ],
      "name": "UpgradeUnit",
      "type": "event"
    },
    {
      "anonymous": false,
      "inputs": [
        {
          "indexed": true,
          "name": "user",
          "type": "address"
        },
        {
          "indexed": true,
          "name": "newContract",
          "type": "address"
        }
      ],
      "name": "UserMigrated",
      "type": "event"
    },
    {
      "anonymous": false,
      "inputs": [
        {
          "indexed": true,
          "name": "previousOwner",
          "type": "address"
        },
        {
          "indexed": true,
          "name": "newOwner",
          "type": "address"
        }
      ],
      "name": "OwnershipTransferred",
      "type": "event"
    },
    {
      "constant": true,
      "inputs": [],
      "name": "isUnitsQueue",
      "outputs": [
        {
          "name": "",
          "type": "bool"
        }
      ],
      "payable": false,
      "stateMutability": "pure",
      "type": "function"
    },
    {
      "constant": false,
      "inputs": [
        {
          "name": "_previousUnitsQueue",
          "type": "address"
        },
        {
          "name": "_version",
          "type": "uint256"
        }
      ],
      "name": "setUnitsQueueVersion",
      "outputs": [],
      "payable": false,
      "stateMutability": "nonpayable",
      "type": "function"
    },
    {
      "constant": false,
      "inputs": [
        {
          "name": "_userUnits",
          "type": "address"
        }
      ],
      "name": "setUserUnits",
      "outputs": [],
      "payable": false,
      "stateMutability": "nonpayable",
      "type": "function"
    },
    {
      "constant": false,
      "inputs": [
        {
          "name": "_unitsData",
          "type": "address"
        }
      ],
      "name": "setUnitsData",
      "outputs": [],
      "payable": false,
      "stateMutability": "nonpayable",
      "type": "function"
    },
    {
      "constant": false,
      "inputs": [
        {
          "name": "_userResources",
          "type": "address"
        }
      ],
      "name": "setUserResources",
      "outputs": [],
      "payable": false,
      "stateMutability": "nonpayable",
      "type": "function"
    },
    {
      "constant": false,
      "inputs": [
        {
          "name": "_assetsRequirements",
          "type": "address"
        }
      ],
      "name": "setAssetsRequirements",
      "outputs": [],
      "payable": false,
      "stateMutability": "nonpayable",
      "type": "function"
    },
    {
      "constant": false,
      "inputs": [
        {
          "name": "_id",
          "type": "uint256"
        },
        {
          "name": "_quantity",
          "type": "uint256"
        }
      ],
      "name": "addUnitsToQueue",
      "outputs": [],
      "payable": false,
      "stateMutability": "nonpayable",
      "type": "function"
    },
    {
      "constant": false,
      "inputs": [
        {
          "name": "_user",
          "type": "address"
        }
      ],
      "name": "updateQueue",
      "outputs": [],
      "payable": false,
      "stateMutability": "nonpayable",
      "type": "function"
    },
    {
      "constant": true,
      "inputs": [
        {
          "name": "_user",
          "type": "address"
        }
      ],
      "name": "getUnitsInQueue",
      "outputs": [
        {
          "name": "",
          "type": "uint256[]"
        }
      ],
      "payable": false,
      "stateMutability": "view",
      "type": "function"
    },
    {
      "constant": true,
      "inputs": [
        {
          "name": "_user",
          "type": "address"
        }
      ],
      "name": "getUnits",
      "outputs": [
        {
          "name": "",
          "type": "uint256[]"
        },
        {
          "name": "",
          "type": "uint256[]"
        },
        {
          "name": "",
          "type": "uint256[]"
        },
        {
          "name": "",
          "type": "uint256[]"
        }
      ],
      "payable": false,
      "stateMutability": "view",
      "type": "function"
    },
    {
      "constant": true,
      "inputs": [
        {
          "name": "_user",
          "type": "address"
        },
        {
          "name": "_indexInQueue",
          "type": "uint256"
        }
      ],
      "name": "getUnitIdAndBlocks",
      "outputs": [
        {
          "name": "id",
          "type": "uint256"
        },
        {
          "name": "startBlock",
          "type": "uint256"
        },
        {
          "name": "endBlock",
          "type": "uint256"
        }
      ],
      "payable": false,
      "stateMutability": "view",
      "type": "function"
    },
    {
      "constant": true,
      "inputs": [
        {
          "name": "_user",
          "type": "address"
        }
      ],
      "name": "getBattleStats",
      "outputs": [
        {
          "name": "queueHealth",
          "type": "uint256"
        },
        {
          "name": "queueDefense",
          "type": "uint256"
        },
        {
          "name": "queueAttack",
          "type": "uint256"
        }
      ],
      "payable": false,
      "stateMutability": "view",
      "type": "function"
    },
    {
      "constant": true,
      "inputs": [
        {
          "name": "_user",
          "type": "address"
        }
      ],
      "name": "getUnitsQueueLength",
      "outputs": [
        {
          "name": "length",
          "type": "uint256"
        }
      ],
      "payable": false,
      "stateMutability": "view",
      "type": "function"
    },
    {
      "constant": true,
      "inputs": [
        {
          "name": "_user",
          "type": "address"
        }
      ],
      "name": "getUserUnitsQueueLength",
      "outputs": [
        {
          "name": "length",
          "type": "uint256"
        }
      ],
      "payable": false,
      "stateMutability": "view",
      "type": "function"
    }
  ],
  "bytecode": "0x608060405234801561001057600080fd5b50336000806101000a81548173ffffffffffffffffffffffffffffffffffffffff021916908373ffffffffffffffffffffffffffffffffffffffff16021790555060003414151561006057600080fd5b6142ec80620000706000396000f300608060405260043610610149576000357c0100000000000000000000000000000000000000000000000000000000900463ffffffff168063087d15ff146101585780630fefbc091461018f57806317ffc320146102ff57806318208672146103425780632aed7f3f14610399578063398afc68146103dc578063408def1e1461044157806341002a471461046e57806354fd4d501461049d57806366137af5146104c85780637fb92b87146105375780638da5cb5b1461057a5780639628c42c146105d15780639f727c271461067b578063b20dbfac14610692578063b94ffcb1146106d5578063bbe768a414610718578063c0ee0b8a14610773578063c3251e55146107d8578063d16ccf1b1461081b578063d5b999fd14610868578063dd6c7e31146108ab578063f2fde38b146108ee578063f9ee259914610931578063fa77cde214610988575b34801561015557600080fd5b50005b34801561016457600080fd5b5061018d6004803603810190808035906020019092919080359060200190929190505050610a20565b005b34801561019b57600080fd5b506101d0600480360381019080803573ffffffffffffffffffffffffffffffffffffffff169060200190929190505050610f23565b6040518080602001806020018060200180602001858103855289818151815260200191508051906020019060200280838360005b8381101561021f578082015181840152602081019050610204565b50505050905001858103845288818151815260200191508051906020019060200280838360005b83811015610261578082015181840152602081019050610246565b50505050905001858103835287818151815260200191508051906020019060200280838360005b838110156102a3578082015181840152602081019050610288565b50505050905001858103825286818151815260200191508051906020019060200280838360005b838110156102e55780820151818401526020810190506102ca565b505050509050019850505050505050505060405180910390f35b34801561030b57600080fd5b50610340600480360381019080803573ffffffffffffffffffffffffffffffffffffffff1690602001909291905050506112e8565b005b34801561034e57600080fd5b50610383600480360381019080803573ffffffffffffffffffffffffffffffffffffffff16906020019092919050505061146d565b6040518082815260200191505060405180910390f35b3480156103a557600080fd5b506103da600480360381019080803573ffffffffffffffffffffffffffffffffffffffff1690602001909291905050506114b9565b005b3480156103e857600080fd5b5061041d600480360381019080803573ffffffffffffffffffffffffffffffffffffffff1690602001909291905050506115f1565b60405180848152602001838152602001828152602001935050505060405180910390f35b34801561044d57600080fd5b5061046c60048036038101908080359060200190929190505050611c68565b005b34801561047a57600080fd5b50610483611ccd565b604051808215151515815260200191505060405180910390f35b3480156104a957600080fd5b506104b2611cd6565b6040518082815260200191505060405180910390f35b3480156104d457600080fd5b50610513600480360381019080803573ffffffffffffffffffffffffffffffffffffffff16906020019092919080359060200190929190505050611cdc565b60405180848152602001838152602001828152602001935050505060405180910390f35b34801561054357600080fd5b50610578600480360381019080803573ffffffffffffffffffffffffffffffffffffffff169060200190929190505050611eb3565b005b34801561058657600080fd5b5061058f611ffc565b604051808273ffffffffffffffffffffffffffffffffffffffff1673ffffffffffffffffffffffffffffffffffffffff16815260200191505060405180910390f35b3480156105dd57600080fd5b5061061c600480360381019080803573ffffffffffffffffffffffffffffffffffffffff16906020019092919080359060200190929190505050612021565b604051808563ffffffff1663ffffffff1681526020018481526020018367ffffffffffffffff1667ffffffffffffffff1681526020018267ffffffffffffffff1667ffffffffffffffff16815260200194505050505060405180910390f35b34801561068757600080fd5b506106906120a5565b005b34801561069e57600080fd5b506106d3600480360381019080803573ffffffffffffffffffffffffffffffffffffffff169060200190929190505050612177565b005b3480156106e157600080fd5b50610716600480360381019080803573ffffffffffffffffffffffffffffffffffffffff1690602001909291905050506122c0565b005b34801561072457600080fd5b50610759600480360381019080803573ffffffffffffffffffffffffffffffffffffffff169060200190929190505050612409565b604051808215151515815260200191505060405180910390f35b34801561077f57600080fd5b506107d6600480360381019080803573ffffffffffffffffffffffffffffffffffffffff16906020019092919080359060200190929190803590602001908201803590602001919091929391929390505050612429565b005b3480156107e457600080fd5b50610819600480360381019080803573ffffffffffffffffffffffffffffffffffffffff16906020019092919050505061242e565b005b34801561082757600080fd5b50610866600480360381019080803573ffffffffffffffffffffffffffffffffffffffff16906020019092919080359060200190929190505050612b7a565b005b34801561087457600080fd5b506108a9600480360381019080803573ffffffffffffffffffffffffffffffffffffffff169060200190929190505050612d79565b005b3480156108b757600080fd5b506108ec600480360381019080803573ffffffffffffffffffffffffffffffffffffffff169060200190929190505050612ec2565b005b3480156108fa57600080fd5b5061092f600480360381019080803573ffffffffffffffffffffffffffffffffffffffff169060200190929190505050613085565b005b34801561093d57600080fd5b50610972600480360381019080803573ffffffffffffffffffffffffffffffffffffffff1690602001909291905050506131da565b6040518082815260200191505060405180910390f35b34801561099457600080fd5b506109c9600480360381019080803573ffffffffffffffffffffffffffffffffffffffff169060200190929190505050613226565b6040518080602001828103825283818151815260200191508051906020019060200280838360005b83811015610a0c5780820151818401526020810190506109f1565b505050509050019250505060405180910390f35b60008060008060008086111515610a3657600080fd5b600460009054906101000a900473ffffffffffffffffffffffffffffffffffffffff1673ffffffffffffffffffffffffffffffffffffffff16639d4f9e33886040518263ffffffff167c010000000000000000000000000000000000000000000000000000000002815260040180828152602001915050602060405180830381600087803b158015610ac757600080fd5b505af1158015610adb573d6000803e3d6000fd5b505050506040513d6020811015610af157600080fd5b81019080805190602001909291905050501515610b0d57600080fd5b600360009054906101000a900473ffffffffffffffffffffffffffffffffffffffff1673ffffffffffffffffffffffffffffffffffffffff1663540494a133896040518363ffffffff167c0100000000000000000000000000000000000000000000000000000000028152600401808373ffffffffffffffffffffffffffffffffffffffff1673ffffffffffffffffffffffffffffffffffffffff16815260200182815260200192505050602060405180830381600087803b158015610bd257600080fd5b505af1158015610be6573d6000803e3d6000fd5b505050506040513d6020811015610bfc57600080fd5b81019080805190602001909291905050501515610c1857600080fd5b600460009054906101000a900473ffffffffffffffffffffffffffffffffffffffff1673ffffffffffffffffffffffffffffffffffffffff1663a3118b24886040518263ffffffff167c010000000000000000000000000000000000000000000000000000000002815260040180828152602001915050606060405180830381600087803b158015610ca957600080fd5b505af1158015610cbd573d6000803e3d6000fd5b505050506040513d6060811015610cd357600080fd5b81019080805190602001909291908051906020019092919080519060200190929190505050809550819650829750505050610d17868661339590919063ffffffff16565b9450610d243386866133d0565b610d37868461339590919063ffffffff16565b9250610d4233613743565b9150610d57838361385c90919063ffffffff16565b9050600860003373ffffffffffffffffffffffffffffffffffffffff1673ffffffffffffffffffffffffffffffffffffffff1681526020019081526020016000206080604051908101604052808963ffffffff1681526020018863ffffffff1681526020018467ffffffffffffffff1681526020018367ffffffffffffffff168152509080600181540180825580915050906001820390600052602060002090600302016000909192909190915060008201518160000160006101000a81548163ffffffff021916908363ffffffff1602179055506020820151816001015560408201518160020160006101000a81548167ffffffffffffffff021916908367ffffffffffffffff16021790555060608201518160020160086101000a81548167ffffffffffffffff021916908367ffffffffffffffff1602179055505050507f47da9b624f16c75ba06da9b4c6d6f2cdb0f089b4e7a98b4308af68b3fcdcc0793388888585604051808673ffffffffffffffffffffffffffffffffffffffff1673ffffffffffffffffffffffffffffffffffffffff1681526020018581526020018481526020018381526020018281526020019550505050505060405180910390a150505050505050565b606080606080600060608060608060008073ffffffffffffffffffffffffffffffffffffffff168b73ffffffffffffffffffffffffffffffffffffffff1614151515610f6e57600080fd5b600860008c73ffffffffffffffffffffffffffffffffffffffff1673ffffffffffffffffffffffffffffffffffffffff16815260200190815260200160002080549050955085604051908082528060200260200182016040528015610fe25781602001602082028038833980820191505090505b509450856040519080825280602002602001820160405280156110145781602001602082028038833980820191505090505b509350856040519080825280602002602001820160405280156110465781602001602082028038833980820191505090505b509250856040519080825280602002602001820160405280156110785781602001602082028038833980820191505090505b509150600090505b858110156112cf57600860008c73ffffffffffffffffffffffffffffffffffffffff1673ffffffffffffffffffffffffffffffffffffffff168152602001908152602001600020818154811015156110d457fe5b906000526020600020906003020160000160009054906101000a900463ffffffff1663ffffffff16858281518110151561110a57fe5b9060200190602002018181525050600860008c73ffffffffffffffffffffffffffffffffffffffff1673ffffffffffffffffffffffffffffffffffffffff1681526020019081526020016000208181548110151561116457fe5b906000526020600020906003020160010154848281518110151561118457fe5b9060200190602002018181525050600860008c73ffffffffffffffffffffffffffffffffffffffff1673ffffffffffffffffffffffffffffffffffffffff168152602001908152602001600020818154811015156111de57fe5b906000526020600020906003020160020160009054906101000a900467ffffffffffffffff1667ffffffffffffffff16838281518110151561121c57fe5b9060200190602002018181525050600860008c73ffffffffffffffffffffffffffffffffffffffff1673ffffffffffffffffffffffffffffffffffffffff1681526020019081526020016000208181548110151561127657fe5b906000526020600020906003020160020160089054906101000a900467ffffffffffffffff1667ffffffffffffffff1682828151811015156112b457fe5b90602001906020020181815250508080600101915050611080565b8484848499509950995099505050505050509193509193565b60008060009054906101000a900473ffffffffffffffffffffffffffffffffffffffff1673ffffffffffffffffffffffffffffffffffffffff163373ffffffffffffffffffffffffffffffffffffffff1614151561134557600080fd5b8173ffffffffffffffffffffffffffffffffffffffff166370a08231306040518263ffffffff167c0100000000000000000000000000000000000000000000000000000000028152600401808273ffffffffffffffffffffffffffffffffffffffff1673ffffffffffffffffffffffffffffffffffffffff168152602001915050602060405180830381600087803b1580156113e057600080fd5b505af11580156113f4573d6000803e3d6000fd5b505050506040513d602081101561140a57600080fd5b810190808051906020019092919050505090506114696000809054906101000a900473ffffffffffffffffffffffffffffffffffffffff16828473ffffffffffffffffffffffffffffffffffffffff1661387a9092919063ffffffff16565b5050565b6000600860008373ffffffffffffffffffffffffffffffffffffffff1673ffffffffffffffffffffffffffffffffffffffff168152602001908152602001600020805490509050919050565b60008060009054906101000a900473ffffffffffffffffffffffffffffffffffffffff1673ffffffffffffffffffffffffffffffffffffffff163373ffffffffffffffffffffffffffffffffffffffff1614151561151657600080fd5b8190508073ffffffffffffffffffffffffffffffffffffffff1663f2fde38b6000809054906101000a900473ffffffffffffffffffffffffffffffffffffffff166040518263ffffffff167c0100000000000000000000000000000000000000000000000000000000028152600401808273ffffffffffffffffffffffffffffffffffffffff1673ffffffffffffffffffffffffffffffffffffffff168152602001915050600060405180830381600087803b1580156115d557600080fd5b505af11580156115e9573d6000803e3d6000fd5b505050505050565b6000806000806000806000806000600860008b73ffffffffffffffffffffffffffffffffffffffff1673ffffffffffffffffffffffffffffffffffffffff168152602001908152602001600020805490509250600091505b82821015611c525743600860008c73ffffffffffffffffffffffffffffffffffffffff1673ffffffffffffffffffffffffffffffffffffffff1681526020019081526020016000208381548110151561169e57fe5b906000526020600020906003020160020160089054906101000a900467ffffffffffffffff1667ffffffffffffffff1610156119c057600460009054906101000a900473ffffffffffffffffffffffffffffffffffffffff1673ffffffffffffffffffffffffffffffffffffffff16638a063b63600860008d73ffffffffffffffffffffffffffffffffffffffff1673ffffffffffffffffffffffffffffffffffffffff1681526020019081526020016000208481548110151561175e57fe5b906000526020600020906003020160000160009054906101000a900463ffffffff166040518263ffffffff167c0100000000000000000000000000000000000000000000000000000000028152600401808263ffffffff168152602001915050606060405180830381600087803b1580156117d857600080fd5b505af11580156117ec573d6000803e3d6000fd5b505050506040513d606081101561180257600080fd5b810190808051906020019092919080519060200190929190805190602001909291905050508096508197508298505050506118b56118a687600860008e73ffffffffffffffffffffffffffffffffffffffff1673ffffffffffffffffffffffffffffffffffffffff1681526020019081526020016000208581548110151561188657fe5b90600052602060002090600302016001015461339590919063ffffffff16565b8a61385c90919063ffffffff16565b985061193961192a86600860008e73ffffffffffffffffffffffffffffffffffffffff1673ffffffffffffffffffffffffffffffffffffffff1681526020019081526020016000208581548110151561190a57fe5b90600052602060002090600302016001015461339590919063ffffffff16565b8961385c90919063ffffffff16565b97506119bd6119ae85600860008e73ffffffffffffffffffffffffffffffffffffffff1673ffffffffffffffffffffffffffffffffffffffff1681526020019081526020016000208581548110151561198e57fe5b90600052602060002090600302016001015461339590919063ffffffff16565b8861385c90919063ffffffff16565b96505b43600860008c73ffffffffffffffffffffffffffffffffffffffff1673ffffffffffffffffffffffffffffffffffffffff16815260200190815260200160002083815481101515611a0d57fe5b906000526020600020906003020160020160089054906101000a900467ffffffffffffffff1667ffffffffffffffff1610158015611a4e5750600183038211155b15611c4557611a5d8a83613965565b9050809150506000811115611c4157600460009054906101000a900473ffffffffffffffffffffffffffffffffffffffff1673ffffffffffffffffffffffffffffffffffffffff16638a063b63600860008d73ffffffffffffffffffffffffffffffffffffffff1673ffffffffffffffffffffffffffffffffffffffff16815260200190815260200160002084815481101515611af657fe5b906000526020600020906003020160000160009054906101000a900463ffffffff166040518263ffffffff167c0100000000000000000000000000000000000000000000000000000000028152600401808263ffffffff168152602001915050606060405180830381600087803b158015611b7057600080fd5b505af1158015611b84573d6000803e3d6000fd5b505050506040513d6060811015611b9a57600080fd5b81019080805190602001909291908051906020019092919080519060200190929190505050809650819750829850505050611bf0611be1878361339590919063ffffffff16565b8a61385c90919063ffffffff16565b9850611c17611c08868361339590919063ffffffff16565b8961385c90919063ffffffff16565b9750611c3e611c2f858361339590919063ffffffff16565b8861385c90919063ffffffff16565b96505b8291505b8180600101925050611649565b8888889850985098505050505050509193909250565b6000809054906101000a900473ffffffffffffffffffffffffffffffffffffffff1673ffffffffffffffffffffffffffffffffffffffff163373ffffffffffffffffffffffffffffffffffffffff16141515611cc357600080fd5b8060018190555050565b60006001905090565b60015481565b600080600083600860008773ffffffffffffffffffffffffffffffffffffffff1673ffffffffffffffffffffffffffffffffffffffff16815260200190815260200160002080549050111515611d3157600080fd5b600860008673ffffffffffffffffffffffffffffffffffffffff1673ffffffffffffffffffffffffffffffffffffffff16815260200190815260200160002084815481101515611d7d57fe5b906000526020600020906003020160000160009054906101000a900463ffffffff16600860008773ffffffffffffffffffffffffffffffffffffffff1673ffffffffffffffffffffffffffffffffffffffff16815260200190815260200160002085815481101515611deb57fe5b906000526020600020906003020160020160009054906101000a900467ffffffffffffffff16600860008873ffffffffffffffffffffffffffffffffffffffff1673ffffffffffffffffffffffffffffffffffffffff16815260200190815260200160002086815481101515611e5d57fe5b906000526020600020906003020160020160089054906101000a900467ffffffffffffffff168263ffffffff1692508167ffffffffffffffff1691508067ffffffffffffffff1690509250925092509250925092565b6000809054906101000a900473ffffffffffffffffffffffffffffffffffffffff1673ffffffffffffffffffffffffffffffffffffffff163373ffffffffffffffffffffffffffffffffffffffff16141515611f0e57600080fd5b8073ffffffffffffffffffffffffffffffffffffffff16633882c76d6040518163ffffffff167c0100000000000000000000000000000000000000000000000000000000028152600401602060405180830381600087803b158015611f7257600080fd5b505af1158015611f86573d6000803e3d6000fd5b505050506040513d6020811015611f9c57600080fd5b81019080805190602001909291905050501515611fb857600080fd5b80600360006101000a81548173ffffffffffffffffffffffffffffffffffffffff021916908373ffffffffffffffffffffffffffffffffffffffff16021790555050565b6000809054906101000a900473ffffffffffffffffffffffffffffffffffffffff1681565b60086020528160005260406000208181548110151561203c57fe5b9060005260206000209060030201600091509150508060000160009054906101000a900463ffffffff16908060010154908060020160009054906101000a900467ffffffffffffffff16908060020160089054906101000a900467ffffffffffffffff16905084565b6000809054906101000a900473ffffffffffffffffffffffffffffffffffffffff1673ffffffffffffffffffffffffffffffffffffffff163373ffffffffffffffffffffffffffffffffffffffff1614151561210057600080fd5b6000809054906101000a900473ffffffffffffffffffffffffffffffffffffffff1673ffffffffffffffffffffffffffffffffffffffff166108fc3073ffffffffffffffffffffffffffffffffffffffff16319081150290604051600060405180830381858888f19350505050151561217557fe5b565b6000809054906101000a900473ffffffffffffffffffffffffffffffffffffffff1673ffffffffffffffffffffffffffffffffffffffff163373ffffffffffffffffffffffffffffffffffffffff161415156121d257600080fd5b8073ffffffffffffffffffffffffffffffffffffffff16632e44f1976040518163ffffffff167c0100000000000000000000000000000000000000000000000000000000028152600401602060405180830381600087803b15801561223657600080fd5b505af115801561224a573d6000803e3d6000fd5b505050506040513d602081101561226057600080fd5b8101908080519060200190929190505050151561227c57600080fd5b80600460006101000a81548173ffffffffffffffffffffffffffffffffffffffff021916908373ffffffffffffffffffffffffffffffffffffffff16021790555050565b6000809054906101000a900473ffffffffffffffffffffffffffffffffffffffff1673ffffffffffffffffffffffffffffffffffffffff163373ffffffffffffffffffffffffffffffffffffffff1614151561231b57600080fd5b8073ffffffffffffffffffffffffffffffffffffffff1663cfad879e6040518163ffffffff167c0100000000000000000000000000000000000000000000000000000000028152600401602060405180830381600087803b15801561237f57600080fd5b505af1158015612393573d6000803e3d6000fd5b505050506040513d60208110156123a957600080fd5b810190808051906020019092919050505015156123c557600080fd5b80600660006101000a81548173ffffffffffffffffffffffffffffffffffffffff021916908373ffffffffffffffffffffffffffffffffffffffff16021790555050565b60026020528060005260406000206000915054906101000a900460ff1681565b600080fd5b600080600080606080600080600073ffffffffffffffffffffffffffffffffffffffff168973ffffffffffffffffffffffffffffffffffffffff161415151561247657600080fd5b6000600860008b73ffffffffffffffffffffffffffffffffffffffff1673ffffffffffffffffffffffffffffffffffffffff1681526020019081526020016000208054905014156124c657612b6f565b600860008a73ffffffffffffffffffffffffffffffffffffffff1673ffffffffffffffffffffffffffffffffffffffff168152602001908152602001600020805490509750600096505b8787108015612599575043600860008b73ffffffffffffffffffffffffffffffffffffffff1673ffffffffffffffffffffffffffffffffffffffff1681526020019081526020016000208881548110151561256757fe5b906000526020600020906003020160020160089054906101000a900467ffffffffffffffff1667ffffffffffffffff16105b156125ab578680600101975050612510565b6000955060009450878710156125da576125c58988613c20565b945060008511156125d95785806001019650505b5b85870160405190808252806020026020018201604052801561260b5781602001602082028038833980820191505090505b50935085870160405190808252806020026020018201604052801561263f5781602001602082028038833980820191505090505b50925060008688011415612747577fa8d1d3f2b178b60b09b86441670271d29f9f325b7904757bff329687232b21e8898585604051808473ffffffffffffffffffffffffffffffffffffffff1673ffffffffffffffffffffffffffffffffffffffff1681526020018060200180602001838103835285818151815260200191508051906020019060200280838360005b838110156126ea5780820151818401526020810190506126cf565b50505050905001838103825284818151815260200191508051906020019060200280838360005b8381101561272c578082015181840152602081019050612711565b505050509050019550505050505060405180910390a1612b6f565b600091505b8682101561281557600860008a73ffffffffffffffffffffffffffffffffffffffff1673ffffffffffffffffffffffffffffffffffffffff168152602001908152602001600020828154811015156127a057fe5b906000526020600020906003020190508060000160009054906101000a900463ffffffff1663ffffffff1684838151811015156127d957fe5b9060200190602002018181525050806001015483838151811015156127fa57fe5b9060200190602002018181525050818060010192505061274c565b60008511156128cf57600860008a73ffffffffffffffffffffffffffffffffffffffff1673ffffffffffffffffffffffffffffffffffffffff1681526020019081526020016000208781548110151561286a57fe5b906000526020600020906003020190508060000160009054906101000a900463ffffffff1663ffffffff1684888151811015156128a357fe5b90602001906020020181815250508483888151811015156128c057fe5b90602001906020020181815250505b600660009054906101000a900473ffffffffffffffffffffffffffffffffffffffff1673ffffffffffffffffffffffffffffffffffffffff16630a99dfce8a86866040518463ffffffff167c0100000000000000000000000000000000000000000000000000000000028152600401808473ffffffffffffffffffffffffffffffffffffffff1673ffffffffffffffffffffffffffffffffffffffff1681526020018060200180602001838103835285818151815260200191508051906020019060200280838360005b838110156129b4578082015181840152602081019050612999565b50505050905001838103825284818151815260200191508051906020019060200280838360005b838110156129f65780820151818401526020810190506129db565b5050505090500195505050505050602060405180830381600087803b158015612a1e57600080fd5b505af1158015612a32573d6000803e3d6000fd5b505050506040513d6020811015612a4857600080fd5b81019080805190602001909291905050501515612a6457600080fd5b612a6e8988613e43565b1515612a7957600080fd5b7fa8d1d3f2b178b60b09b86441670271d29f9f325b7904757bff329687232b21e8898585604051808473ffffffffffffffffffffffffffffffffffffffff1673ffffffffffffffffffffffffffffffffffffffff1681526020018060200180602001838103835285818151815260200191508051906020019060200280838360005b83811015612b16578082015181840152602081019050612afb565b50505050905001838103825284818151815260200191508051906020019060200280838360005b83811015612b58578082015181840152602081019050612b3d565b505050509050019550505050505060405180910390a15b505050505050505050565b6000809054906101000a900473ffffffffffffffffffffffffffffffffffffffff1673ffffffffffffffffffffffffffffffffffffffff163373ffffffffffffffffffffffffffffffffffffffff16141515612bd557600080fd5b8173ffffffffffffffffffffffffffffffffffffffff166341002a476040518163ffffffff167c0100000000000000000000000000000000000000000000000000000000028152600401602060405180830381600087803b158015612c3957600080fd5b505af1158015612c4d573d6000803e3d6000fd5b505050506040513d6020811015612c6357600080fd5b81019080805190602001909291905050501515612c7f57600080fd5b8173ffffffffffffffffffffffffffffffffffffffff166354fd4d506040518163ffffffff167c0100000000000000000000000000000000000000000000000000000000028152600401602060405180830381600087803b158015612ce357600080fd5b505af1158015612cf7573d6000803e3d6000fd5b505050506040513d6020811015612d0d57600080fd5b810190808051906020019092919050505081111515612d2b57600080fd5b81600560006101000a81548173ffffffffffffffffffffffffffffffffffffffff021916908373ffffffffffffffffffffffffffffffffffffffff160217905550612d7581611c68565b5050565b6000809054906101000a900473ffffffffffffffffffffffffffffffffffffffff1673ffffffffffffffffffffffffffffffffffffffff163373ffffffffffffffffffffffffffffffffffffffff16141515612dd457600080fd5b8073ffffffffffffffffffffffffffffffffffffffff1663f229a4156040518163ffffffff167c0100000000000000000000000000000000000000000000000000000000028152600401602060405180830381600087803b158015612e3857600080fd5b505af1158015612e4c573d6000803e3d6000fd5b505050506040513d6020811015612e6257600080fd5b81019080805190602001909291905050501515612e7e57600080fd5b80600760006101000a81548173ffffffffffffffffffffffffffffffffffffffff021916908373ffffffffffffffffffffffffffffffffffffffff16021790555050565b60011515600260003373ffffffffffffffffffffffffffffffffffffffff1673ffffffffffffffffffffffffffffffffffffffff16815260200190815260200160002060009054906101000a900460ff16151514151515612f2257600080fd5b6001548173ffffffffffffffffffffffffffffffffffffffff166354fd4d506040518163ffffffff167c0100000000000000000000000000000000000000000000000000000000028152600401602060405180830381600087803b158015612f8957600080fd5b505af1158015612f9d573d6000803e3d6000fd5b505050506040513d6020811015612fb357600080fd5b8101908080519060200190929190505050111515612fd057600080fd5b6001600260003373ffffffffffffffffffffffffffffffffffffffff1673ffffffffffffffffffffffffffffffffffffffff16815260200190815260200160002060006101000a81548160ff0219169083151502179055508073ffffffffffffffffffffffffffffffffffffffff163373ffffffffffffffffffffffffffffffffffffffff167fc123aa2e5c63456c59a4694ac50ba610152278a01162f3d5e3a6ffc457bc586e60405160405180910390a350565b6000809054906101000a900473ffffffffffffffffffffffffffffffffffffffff1673ffffffffffffffffffffffffffffffffffffffff163373ffffffffffffffffffffffffffffffffffffffff161415156130e057600080fd5b600073ffffffffffffffffffffffffffffffffffffffff168173ffffffffffffffffffffffffffffffffffffffff161415151561311c57600080fd5b8073ffffffffffffffffffffffffffffffffffffffff166000809054906101000a900473ffffffffffffffffffffffffffffffffffffffff1673ffffffffffffffffffffffffffffffffffffffff167f8be0079c531659141344cd1fd0a4f28419497f9722a3daafe3b4186f6b6457e060405160405180910390a3806000806101000a81548173ffffffffffffffffffffffffffffffffffffffff021916908373ffffffffffffffffffffffffffffffffffffffff16021790555050565b6000600860008373ffffffffffffffffffffffffffffffffffffffff1673ffffffffffffffffffffffffffffffffffffffff168152602001908152602001600020805490509050919050565b60606000606060008073ffffffffffffffffffffffffffffffffffffffff168573ffffffffffffffffffffffffffffffffffffffff161415151561326957600080fd5b600860008673ffffffffffffffffffffffffffffffffffffffff1673ffffffffffffffffffffffffffffffffffffffff168152602001908152602001600020805490509250826040519080825280602002602001820160405280156132dd5781602001602082028038833980820191505090505b509150600090505b8281101561338a57600860008673ffffffffffffffffffffffffffffffffffffffff1673ffffffffffffffffffffffffffffffffffffffff1681526020019081526020016000208181548110151561333957fe5b906000526020600020906003020160000160009054906101000a900463ffffffff1663ffffffff16828281518110151561336f57fe5b906020019060200201818152505080806001019150506132e5565b819350505050919050565b60008060008414156133aa57600091506133c9565b82840290508284828115156133bb57fe5b041415156133c557fe5b8091505b5092915050565b60008114806133df5750600181145b806133ea5750600281145b15156133f557600080fd5b600082111561373e57600081141561351357600760009054906101000a900473ffffffffffffffffffffffffffffffffffffffff1673ffffffffffffffffffffffffffffffffffffffff1663ec3191e984846040518363ffffffff167c0100000000000000000000000000000000000000000000000000000000028152600401808373ffffffffffffffffffffffffffffffffffffffff1673ffffffffffffffffffffffffffffffffffffffff16815260200182815260200192505050602060405180830381600087803b1580156134cc57600080fd5b505af11580156134e0573d6000803e3d6000fd5b505050506040513d60208110156134f657600080fd5b8101908080519060200190929190505050151561351257600080fd5b5b600181141561362857600760009054906101000a900473ffffffffffffffffffffffffffffffffffffffff1673ffffffffffffffffffffffffffffffffffffffff1663142ed04384846040518363ffffffff167c0100000000000000000000000000000000000000000000000000000000028152600401808373ffffffffffffffffffffffffffffffffffffffff1673ffffffffffffffffffffffffffffffffffffffff16815260200182815260200192505050602060405180830381600087803b1580156135e157600080fd5b505af11580156135f5573d6000803e3d6000fd5b505050506040513d602081101561360b57600080fd5b8101908080519060200190929190505050151561362757600080fd5b5b600281141561373d57600760009054906101000a900473ffffffffffffffffffffffffffffffffffffffff1673ffffffffffffffffffffffffffffffffffffffff16632f2e88f084846040518363ffffffff167c0100000000000000000000000000000000000000000000000000000000028152600401808373ffffffffffffffffffffffffffffffffffffffff1673ffffffffffffffffffffffffffffffffffffffff16815260200182815260200192505050602060405180830381600087803b1580156136f657600080fd5b505af115801561370a573d6000803e3d6000fd5b505050506040513d602081101561372057600080fd5b8101908080519060200190929190505050151561373c57600080fd5b5b5b505050565b600080600080600860008673ffffffffffffffffffffffffffffffffffffffff1673ffffffffffffffffffffffffffffffffffffffff168152602001908152602001600020805490509250439150600083111561385157600860008673ffffffffffffffffffffffffffffffffffffffff1673ffffffffffffffffffffffffffffffffffffffff1681526020019081526020016000206137e48460016141e6565b8154811015156137f057fe5b906000526020600020906003020190508060020160089054906101000a900467ffffffffffffffff1667ffffffffffffffff16431015613850578060020160089054906101000a900467ffffffffffffffff1667ffffffffffffffff1691505b5b819350505050919050565b600080828401905083811015151561387057fe5b8091505092915050565b8273ffffffffffffffffffffffffffffffffffffffff1663a9059cbb83836040518363ffffffff167c0100000000000000000000000000000000000000000000000000000000028152600401808373ffffffffffffffffffffffffffffffffffffffff1673ffffffffffffffffffffffffffffffffffffffff16815260200182815260200192505050602060405180830381600087803b15801561391d57600080fd5b505af1158015613931573d6000803e3d6000fd5b505050506040513d602081101561394757600080fd5b8101908080519060200190929190505050151561396057fe5b505050565b6000806000600460009054906101000a900473ffffffffffffffffffffffffffffffffffffffff1673ffffffffffffffffffffffffffffffffffffffff1663a3118b24600860008873ffffffffffffffffffffffffffffffffffffffff1673ffffffffffffffffffffffffffffffffffffffff168152602001908152602001600020868154811015156139f457fe5b906000526020600020906003020160000160009054906101000a900463ffffffff166040518263ffffffff167c0100000000000000000000000000000000000000000000000000000000028152600401808263ffffffff168152602001915050606060405180830381600087803b158015613a6e57600080fd5b505af1158015613a82573d6000803e3d6000fd5b505050506040513d6060811015613a9857600080fd5b81019080805190602001909291908051906020019092919080519060200190929190505050909150905080935050600860008673ffffffffffffffffffffffffffffffffffffffff1673ffffffffffffffffffffffffffffffffffffffff16815260200190815260200160002084815481101515613b1257fe5b906000526020600020906003020160020160009054906101000a900467ffffffffffffffff1667ffffffffffffffff1643111515613b595782600080905092509250613c18565b613bfa6001613bec600860008973ffffffffffffffffffffffffffffffffffffffff1673ffffffffffffffffffffffffffffffffffffffff16815260200190815260200160002087815481101515613bad57fe5b906000526020600020906003020160020160009054906101000a900467ffffffffffffffff1667ffffffffffffffff16436141e690919063ffffffff16565b6141e690919063ffffffff16565b9050613c0f83826141ff90919063ffffffff16565b91508282925092505b509250929050565b6000806000613c2f8585613965565b80945081935050506000831115613e3857613cb083600860008873ffffffffffffffffffffffffffffffffffffffff1673ffffffffffffffffffffffffffffffffffffffff16815260200190815260200160002086815481101515613c9057fe5b9060005260206000209060030201600101546141e690919063ffffffff16565b600860008773ffffffffffffffffffffffffffffffffffffffff1673ffffffffffffffffffffffffffffffffffffffff16815260200190815260200160002085815481101515613cfc57fe5b906000526020600020906003020160010181905550600860008673ffffffffffffffffffffffffffffffffffffffff1673ffffffffffffffffffffffffffffffffffffffff16815260200190815260200160002084815481101515613d5d57fe5b906000526020600020906003020160020160009054906101000a900467ffffffffffffffff1667ffffffffffffffff169050613db4613da5838561339590919063ffffffff16565b8261385c90919063ffffffff16565b600860008773ffffffffffffffffffffffffffffffffffffffff1673ffffffffffffffffffffffffffffffffffffffff16815260200190815260200160002085815481101515613e0057fe5b906000526020600020906003020160020160006101000a81548167ffffffffffffffff021916908367ffffffffffffffff1602179055505b829250505092915050565b6000806000600860008673ffffffffffffffffffffffffffffffffffffffff1673ffffffffffffffffffffffffffffffffffffffff168152602001908152602001600020805490508411151515613e9957600080fd5b8391505b600860008673ffffffffffffffffffffffffffffffffffffffff1673ffffffffffffffffffffffffffffffffffffffff1681526020019081526020016000208054905082101561407457600860008673ffffffffffffffffffffffffffffffffffffffff1673ffffffffffffffffffffffffffffffffffffffff16815260200190815260200160002082815481101515613f3357fe5b9060005260206000209060030201600860008773ffffffffffffffffffffffffffffffffffffffff1673ffffffffffffffffffffffffffffffffffffffff168152602001908152602001600020858403815481101515613f8f57fe5b90600052602060002090600302016000820160009054906101000a900463ffffffff168160000160006101000a81548163ffffffff021916908363ffffffff160217905550600182015481600101556002820160009054906101000a900467ffffffffffffffff168160020160006101000a81548167ffffffffffffffff021916908367ffffffffffffffff1602179055506002820160089054906101000a900467ffffffffffffffff168160020160086101000a81548167ffffffffffffffff021916908367ffffffffffffffff1602179055509050508180600101925050613e9d565b600190505b838111151561418557600860008673ffffffffffffffffffffffffffffffffffffffff1673ffffffffffffffffffffffffffffffffffffffff16815260200190815260200160002081600860008873ffffffffffffffffffffffffffffffffffffffff1673ffffffffffffffffffffffffffffffffffffffff168152602001908152602001600020805490500381548110151561411257fe5b9060005260206000209060030201600080820160006101000a81549063ffffffff021916905560018201600090556002820160006101000a81549067ffffffffffffffff02191690556002820160086101000a81549067ffffffffffffffff021916905550508080600101915050614079565b83600860008773ffffffffffffffffffffffffffffffffffffffff1673ffffffffffffffffffffffffffffffffffffffff168152602001908152602001600020818180549050039150816141d9919061421a565b5060019250505092915050565b60008282111515156141f457fe5b818303905092915050565b600080828481151561420d57fe5b0490508091505092915050565b81548183558181111561424757600302816003028360005260206000209182019101614246919061424c565b5b505050565b6142bd91905b808211156142b957600080820160006101000a81549063ffffffff021916905560018201600090556002820160006101000a81549067ffffffffffffffff02191690556002820160086101000a81549067ffffffffffffffff021916905550600301614252565b5090565b905600a165627a7a723058205a24e3cea21aaf6ca0e274959e7dc3c7edd4c0f80fba9f007b64d67ac47bef9a0029",
  "source": "pragma solidity ^0.4.23;\n\nimport 'zeppelin-solidity/contracts/math/SafeMath.sol';\nimport 'zeppelin-solidity/contracts/ownership/NoOwner.sol';\nimport './AssetsRequirements.sol';\nimport './UnitsData.sol';\nimport './UserUnits.sol';\nimport './UserResources.sol';\nimport './Versioned.sol';\n\n/*\n * @title UnitsQueue (WIP)\n * @dev Issue: * https://github.com/e11-io/crypto-wars-solidity/issues/4\n */\ncontract UnitsQueue is NoOwner, Versioned {\n  using SafeMath for uint;\n\n  /*\n   * @dev Event for Adding a unit to the queue system logging.\n   * @param _user who receives the unit.\n   * @param _id the id of the unit to be added.\n   * @param _quantity the amount of the unit to be added.\n\t * @param _startBlock the number of the block where the construction is gonna start.\n\t * @param _endBlock the number of the block where the construction is gonna be ready.\n   */\n  event AddUnitsToQueue(address _user,\n                        uint _id,\n                        uint _quantity,\n                        uint _startBlock,\n                        uint _endBlock);\n\n /*\n  * @dev Event for Updating the units queue. Units that are ready will be\n  * tranfered to the user units contract, and removed from the queue.\n  * @param _user the address of the user's queue to be updated. (address)\n  * @param _ids The ids of the finished buldings. (uint[])\n  * @param _indexes The indexes of the finished buldings. (uint[])\n  */\n  event UpdateQueue(address _user,\n                    uint[] _ids,\n                    uint[] _indexes);\n\n /*\n  * @dev Event for upgrading a unit to the queue system logging.\n  * @param _idOfUpgrade the id of the unit to be added.\n  * @param _index the index of the unit to be added.\n  * @param _startBlock the number of the block where the construction is gonna start.\n  * @param _endBlock the number of the block where the construction is gonna be ready.\n  */\n  event UpgradeUnit(uint _idOfUpgrade, uint _index, uint startBlock, uint endBlock);\n\n  struct Build {\n    uint32 id;\n    uint quantity;\n    uint64 startBlock;\n    uint64 endBlock;\n  }\n\n  AssetsRequirements assetsRequirements;\n  UnitsData unitsData;\n  UnitsQueue previousUnitsQueue;\n  UserUnits userUnits;\n  UserResources userResources;\n\n  // Mapping of user -> build struct array (keeps track of units in construction queue)\n  mapping (address => Build[]) public userUnitsQueue;\n\n  /*\n   * @notice Constructor: Instantiate Units Queue contract.\n   * @dev Constructor function to provide User Units address and instantiate it.\n   */\n  constructor() public {\n  }\n\n  /*\n   * @notice Makes the contract type verifiable.\n   * @dev Function to prove the contract is Units Queue.\n   */\n  function isUnitsQueue() external pure returns (bool) {\n    return true;\n  }\n\n  /*\n   * @notice Sets the contract's version and instantiates the previous version contract.\n   * @dev Function to set the contract version and instantiate the previous Units Queue.\n   * @param _previousUnitsQueue the address of previous Units Queue contract. (address)\n   * @param _version the current contract version number. (uint)\n   */\n  function setUnitsQueueVersion(UnitsQueue _previousUnitsQueue, uint _version) external onlyOwner {\n    require(_previousUnitsQueue.isUnitsQueue());\n    require(_version > _previousUnitsQueue.version());\n    previousUnitsQueue =_previousUnitsQueue;\n    setVersion(_version);\n  }\n\n  /*\n   * @title Instantiate User Units contract.\n   * @dev Function to provide User Units address and instantiate it.\n   * @param _userUnits the address of User Units contract. (address)\n   */\n  function setUserUnits(UserUnits _userUnits) external onlyOwner {\n    require(_userUnits.isUserUnits());\n    userUnits = _userUnits;\n  }\n\n  /*\n   * @title Instantiate Units Data contract.\n   * @dev Function to provide Units Data address and instantiate it.\n   * @param _unitsData the address of Units Data contract. (address)\n   */\n  function setUnitsData(UnitsData _unitsData) external onlyOwner {\n    require(_unitsData.isUnitsData());\n    unitsData = _unitsData;\n  }\n\n  /*\n   * @title Instantiate User Resources contract.\n   * @dev Function to provide User Resources address and instantiate it.\n   * @param _userResources the address of User Resources contract. (address)\n   */\n  function setUserResources(UserResources _userResources) external onlyOwner {\n    require(_userResources.isUserResources());\n    userResources = _userResources;\n  }\n\n  /*\n   * @title Instantiate Assets Requirements contract.\n   * @dev Function to provide Assets Requirements address and instantiate it.\n   * @param _assetsRequirements the address of Assets Requirements contract. (address)\n   */\n  function setAssetsRequirements(AssetsRequirements _assetsRequirements) external onlyOwner {\n    require(_assetsRequirements.isAssetsRequirements());\n    assetsRequirements = _assetsRequirements;\n  }\n\n  /*\n   * @notice Add Units To Queue.\n   * @dev Function to add units to the construction queue of the user.\n   * @param _id of the unit to add to the queue. (uint)\n   * @param _quantity: the amount of units to be created. (uint)\n   */\n  function addUnitsToQueue(uint _id, uint _quantity) external {\n    require(_quantity > 0);\n    require(unitsData.checkUnitExist(_id));\n    require(assetsRequirements.validateUserAssetRequirements(msg.sender, _id));\n\n    uint price;\n    uint resourceType;\n    uint blocks;\n    (price, resourceType, blocks) = unitsData.getUnitData(_id);\n\n    price = price.mul(_quantity);\n\n    consumeResources(msg.sender, price, resourceType);\n\n    blocks = blocks.mul(_quantity);\n\n    uint startBlock = getStartBlock(msg.sender);\n    uint endBlock = startBlock.add(blocks);\n\n    userUnitsQueue[msg.sender].push(Build(\n      uint32(_id),\n      uint32(_quantity),\n      uint64(startBlock),\n      uint64(endBlock)\n    ));\n\n    emit AddUnitsToQueue(msg.sender,\n                         _id,\n                         _quantity,\n                         startBlock,\n                         endBlock);\n  }\n\n  /*\n   * @title Update Queue.\n   * @dev Function to update the user units queue.\n   *  Finished units will be send to the User Units contract and removed from the construction queue.\n   *  Queue will be resized and updated with only the unfinished units.\n   * @param _user the address of the user's queue to be updated. (address)\n   * @return an array of the finished units ids. (uint[])\n   */\n  function updateQueue(address _user) public {\n    require(_user != address(0));\n    if (userUnitsQueue[_user].length == 0) {\n      return;\n    }\n\n    uint length = userUnitsQueue[_user].length;\n    uint i = 0;\n\n    while (i < length && userUnitsQueue[_user][i].endBlock < block.number) {\n      i++;\n    }\n\n    uint indexDiff = 0;\n    uint unitQuantity = 0;\n\n    if (i < length) {\n      unitQuantity = proccessCurrentBlockUnits(_user, i);\n      if (unitQuantity > 0) {\n        indexDiff++;\n      }\n    }\n\n    uint[] memory finishedIds = new uint[](i + indexDiff);\n    uint[] memory finishedQuantities = new uint[](i + indexDiff);\n\n    if (i + indexDiff == 0) {\n      emit UpdateQueue(_user, finishedIds, finishedQuantities);\n      return;\n    }\n\n    for (uint j = 0; j < i; j++) {\n      Build storage unit = userUnitsQueue[_user][j];\n      finishedIds[j] = unit.id;\n      finishedQuantities[j] = unit.quantity;\n    }\n\n    if (unitQuantity > 0) {\n      unit = userUnitsQueue[_user][i];\n      finishedIds[i] = unit.id;\n      finishedQuantities[i] = unitQuantity;\n    }\n\n    require(userUnits.addUserUnits(_user, finishedIds, finishedQuantities));\n\n    require(shiftUserUnits(_user, i));\n\n    emit UpdateQueue(_user, finishedIds, finishedQuantities);\n  }\n\n  /*\n   * @notice Shift User Units.\n   * @dev Function to shift the specified amount of builds from user units queue.\n   *  Being a chronologically ordered array, finished units will be always first on the array.\n   * @param _user the address of the user's queue to be updated. (address)\n   * @param _amount of units to be shifted from the array. (uint)\n   * @return A boolean that indicates if the operation was successful.\n   */\n  function shiftUserUnits(address _user, uint _amount) internal returns (bool) {\n    require(_amount <= userUnitsQueue[_user].length);\n\n    for (uint i = _amount; i < userUnitsQueue[_user].length; i++){\n      userUnitsQueue[_user][i - _amount] = userUnitsQueue[_user][i];\n    }\n    for (uint j = 1; j <= _amount; j++){\n      delete userUnitsQueue[_user][userUnitsQueue[_user].length - j];\n    }\n    userUnitsQueue[_user].length -= _amount;\n    return true;\n  }\n\n\n  /*\n   * @notice Check Unit Price and Get Block of it.\n   * @dev Function to check if the user has the necessary amount of resources to build/upgrade the unit.\n   *  And returns the amount of blocks that unit takes to be done.\n   * @param _user the address of the user. (address)\n   * @param _price the price for the upgrade. (uint)\n   * @param _resourceType the type of the resource to consume. (uint)\n   * @return returns the amount of blocks that unit takes to be done.\n   */\n  function consumeResources(address _user, uint _price, uint _resourceType) internal {\n    require(_resourceType == 0 || _resourceType == 1 || _resourceType == 2);\n    if (_price > 0) {\n      if (_resourceType == 0) {\n        require(userResources.consumeGold(_user, _price));\n      }\n      if (_resourceType == 1) {\n        require(userResources.consumeCrystal(_user, _price));\n      }\n      if (_resourceType == 2) {\n        require(userResources.consumeQuantumDust(_user, _price));\n      }\n    }\n  }\n\n  /*\n   * @notice Get Start Block.\n   * @dev Function to get the start block number of the new unit to be added in the queue.\n   * @param _user the address of the user (address)\n   */\n  function getStartBlock(address _user) internal view returns (uint) {\n    uint length = userUnitsQueue[_user].length;\n    uint startBlock = block.number;\n    if (length > 0) {\n      Build storage lastUnit = userUnitsQueue[_user][SafeMath.sub(length, 1)];\n      if (block.number < lastUnit.endBlock ) {\n        startBlock = lastUnit.endBlock;\n      }\n    }\n    return startBlock;\n  }\n\n  /*\n   * @notice Get Units in Queue.\n   * @dev Function to check the ids of all the user's units in queue.\n   * @param _user the address of the user's queue to be shown. (address)\n   */\n  function getUnitsInQueue(address _user) external view returns (uint[]) {\n    require(_user != address(0));\n\n    uint length = userUnitsQueue[_user].length;\n    uint[] memory units = new uint[](length);\n    for (uint i = 0; i < length; i++) {\n      units[i] = userUnitsQueue[_user][i].id;\n    }\n    return units;\n  }\n\n  /*\n   * @notice Get Ids and Blocks.\n   * @dev Function to get the ids, quiantities, start block and end block of all units in queue.\n   * Used only for testing.\n   * @param _user the address of the user. (address)\n   * @return four uint arrays representiong the id, quiantities, startBlock and endBlock of each unit.\n   */\n  function getUnits(address _user) external view returns (uint[], uint[], uint[], uint[]) {\n    require(_user != address(0));\n\n    uint length = userUnitsQueue[_user].length;\n    uint[] memory ids = new uint[](length);\n    uint[] memory quantities = new uint[](length);\n    uint[] memory startBlocks = new uint[](length);\n    uint[] memory endBlocks = new uint[](length);\n    for (uint i = 0; i < length; i++) {\n      ids[i] = userUnitsQueue[_user][i].id;\n      quantities[i] = userUnitsQueue[_user][i].quantity;\n      startBlocks[i] = userUnitsQueue[_user][i].startBlock;\n      endBlocks[i] = userUnitsQueue[_user][i].endBlock;\n    }\n    return (ids, quantities, startBlocks, endBlocks);\n  }\n\n  /*\n   * @notice Get Unit Id and Block.\n   * @dev Function to check the id and end block of a unit in queue.\n   * @param _user The address of the user's queue to search in. (address)\n   * @param _index The index of the element to return in the array. (uint)\n   */\n  function getUnitIdAndBlocks(address _user, uint _indexInQueue) external view returns (uint id,\n                                                                                        uint startBlock,\n                                                                                        uint endBlock) {\n    require(userUnitsQueue[_user].length > _indexInQueue);\n    return (userUnitsQueue[_user][_indexInQueue].id,\n            userUnitsQueue[_user][_indexInQueue].startBlock,\n            userUnitsQueue[_user][_indexInQueue].endBlock);\n  }\n\n  /*\n   * @notice Get User Queue Resources.\n   * @dev Function to get the amount of health, defense and attack in the units Queue\n   * @param _user The address of the user to give the resources. (address)\n   * @return Two uints representing the health, defense and attack of the units in Units Queue.\n   */\n  function getBattleStats(address _user) external view returns (uint queueHealth,\n                                                                uint queueDefense,\n                                                                uint queueAttack) {\n    uint health;\n    uint defense;\n    uint attack;\n    uint length = userUnitsQueue[_user].length;\n    uint i = 0;\n\n\t\twhile (i < length) {\n      if (userUnitsQueue[_user][i].endBlock < block.number) {\n        (health, defense, attack) = unitsData.getBattleRates(userUnitsQueue[_user][i].id);\n\n        queueHealth = queueHealth.add(userUnitsQueue[_user][i].quantity.mul(health));\n        queueDefense = queueDefense.add(userUnitsQueue[_user][i].quantity.mul(defense));\n        queueAttack = queueAttack.add(userUnitsQueue[_user][i].quantity.mul(attack));\n      }\n\n      if (userUnitsQueue[_user][i].endBlock >= block.number && i <= length - 1) {\n        uint unitQuantity;\n        (, unitQuantity) = calculateUnitQuantity(_user, i);\n\n        if (unitQuantity > 0) {\n          (health, defense, attack) = unitsData.getBattleRates(userUnitsQueue[_user][i].id);\n\n          queueHealth = queueHealth.add(unitQuantity.mul(health));\n          queueDefense = queueDefense.add(unitQuantity.mul(defense));\n          queueAttack = queueAttack.add(unitQuantity.mul(attack));\n        }\n        i = length;\n      }\n      i++;\n    }\n    return (queueHealth, queueDefense, queueAttack);\n\t}\n\n  /*\n   * @title Get Units Queue Length\n   * @dev Get the length of the units Queue.\n   * @param _user The address of the user. (address)\n   */\n  function getUnitsQueueLength(address _user) external view returns (uint length) {\n    return userUnitsQueue[_user].length;\n  }\n\n\n  /*\n   * @title Sets the remaining number of units and it's new startBlock and returns the amount of ready ones.\n   * @dev\n   * @param _user The address of the user. (address)\n   * @param _index The index of the user queue where the units are. (uint)\n   */\n  function proccessCurrentBlockUnits(address _user, uint _index) internal returns (uint unitQuantity) {\n    /*_index = _index.add(1);*/\n    uint unitBlocks;\n\n    (unitBlocks, unitQuantity) = calculateUnitQuantity(_user, _index);\n\n    if (unitQuantity > 0) {\n      userUnitsQueue[_user][_index].quantity = userUnitsQueue[_user][_index].quantity.sub(unitQuantity);\n      uint startBlock = userUnitsQueue[_user][_index].startBlock;\n      userUnitsQueue[_user][_index].startBlock = uint64(startBlock.add(unitQuantity.mul(unitBlocks)));\n    }\n\n    return unitQuantity;\n  }\n\n  /*\n   * @title Returns the quantity of units that are ready and the block time of the unit.\n   * @dev Helper used by proccessCurrentBlockUnits to get the quantity of ready units and their block time.\n   * @param _user The address of the user. (address)\n   * @param _index The index of the user queue where the units are. (uint)\n   */\n  function calculateUnitQuantity(address _user, uint _index) internal view returns (uint unitBlocks, uint unitQuantity) {\n    (,, unitBlocks) = unitsData.getUnitData(userUnitsQueue[_user][_index].id);\n\n    /* If the batch didnt start yet or is on its first block*/\n    if (block.number <= userUnitsQueue[_user][_index].startBlock) {\n      return (unitBlocks, 0);\n    }\n\n    /* We substract 1 to not count the current block*/\n    uint diff = block.number.sub(userUnitsQueue[_user][_index].startBlock).sub(1);\n    unitQuantity = diff.div(unitBlocks);\n\n    return (unitBlocks, unitQuantity);\n  }\n\n  /*\n   * @title Get User Units Queue Length\n   * @dev Function to get the lenght of user unist queue.\n   * @param _user The address to query the queue length. (address)\n   * @return A uint representing the length of the user units queue.\n   */\n  function getUserUnitsQueueLength(address _user) external view returns (uint length) {\n    return userUnitsQueue[_user].length;\n  }\n\n}\n",
  "sourcePath": "/home/francisco/Truffle/crypto-wars-solidity/contracts/UnitsQueue.sol",
  "compiler": {
    "name": "solc",
    "version": "0.4.23+commit.124ca40d.Emscripten.clang"
  },
  "schemaVersion": "2.0.0",
  "updatedAt": "2018-04-26T19:14:33.788Z"
}