{
  "contractName": "UserResources",
  "abi": [
    {
      "constant": false,
      "inputs": [
        {
          "name": "token",
          "type": "address"
        }
      ],
      "name": "reclaimToken",
      "outputs": [],
      "payable": false,
      "stateMutability": "nonpayable",
      "type": "function"
    },
    {
      "constant": true,
      "inputs": [
        {
          "name": "",
          "type": "address"
        }
      ],
      "name": "usersPayoutBlock",
      "outputs": [
        {
          "name": "",
          "type": "uint256"
        }
      ],
      "payable": false,
      "stateMutability": "view",
      "type": "function"
    },
    {
      "constant": false,
      "inputs": [
        {
          "name": "contractAddr",
          "type": "address"
        }
      ],
      "name": "reclaimContract",
      "outputs": [],
      "payable": false,
      "stateMutability": "nonpayable",
      "type": "function"
    },
    {
      "constant": false,
      "inputs": [
        {
          "name": "_version",
          "type": "uint256"
        }
      ],
      "name": "setVersion",
      "outputs": [],
      "payable": false,
      "stateMutability": "nonpayable",
      "type": "function"
    },
    {
      "constant": true,
      "inputs": [],
      "name": "version",
      "outputs": [
        {
          "name": "",
          "type": "uint256"
        }
      ],
      "payable": false,
      "stateMutability": "view",
      "type": "function"
    },
    {
      "constant": true,
      "inputs": [
        {
          "name": "",
          "type": "address"
        }
      ],
      "name": "usersResources",
      "outputs": [
        {
          "name": "initialized",
          "type": "bool"
        },
        {
          "name": "gold",
          "type": "uint256"
        },
        {
          "name": "crystal",
          "type": "uint256"
        },
        {
          "name": "quantumDust",
          "type": "uint256"
        }
      ],
      "payable": false,
      "stateMutability": "view",
      "type": "function"
    },
    {
      "constant": true,
      "inputs": [],
      "name": "owner",
      "outputs": [
        {
          "name": "",
          "type": "address"
        }
      ],
      "payable": false,
      "stateMutability": "view",
      "type": "function"
    },
    {
      "constant": false,
      "inputs": [],
      "name": "reclaimEther",
      "outputs": [],
      "payable": false,
      "stateMutability": "nonpayable",
      "type": "function"
    },
    {
      "constant": true,
      "inputs": [
        {
          "name": "",
          "type": "address"
        }
      ],
      "name": "migratedUsers",
      "outputs": [
        {
          "name": "",
          "type": "bool"
        }
      ],
      "payable": false,
      "stateMutability": "view",
      "type": "function"
    },
    {
      "constant": false,
      "inputs": [
        {
          "name": "from_",
          "type": "address"
        },
        {
          "name": "value_",
          "type": "uint256"
        },
        {
          "name": "data_",
          "type": "bytes"
        }
      ],
      "name": "tokenFallback",
      "outputs": [],
      "payable": false,
      "stateMutability": "nonpayable",
      "type": "function"
    },
    {
      "constant": false,
      "inputs": [
        {
          "name": "_newContract",
          "type": "address"
        }
      ],
      "name": "migrateUser",
      "outputs": [],
      "payable": false,
      "stateMutability": "nonpayable",
      "type": "function"
    },
    {
      "constant": false,
      "inputs": [
        {
          "name": "newOwner",
          "type": "address"
        }
      ],
      "name": "transferOwnership",
      "outputs": [],
      "payable": false,
      "stateMutability": "nonpayable",
      "type": "function"
    },
    {
      "inputs": [],
      "payable": false,
      "stateMutability": "nonpayable",
      "type": "constructor"
    },
    {
      "payable": false,
      "stateMutability": "nonpayable",
      "type": "fallback"
    },
    {
      "anonymous": false,
      "inputs": [
        {
          "indexed": false,
          "name": "_user",
          "type": "address"
        },
        {
          "indexed": false,
          "name": "_gold",
          "type": "uint256"
        },
        {
          "indexed": false,
          "name": "_crystal",
          "type": "uint256"
        },
        {
          "indexed": false,
          "name": "_quantumDust",
          "type": "uint256"
        }
      ],
      "name": "InitUserResources",
      "type": "event"
    },
    {
      "anonymous": false,
      "inputs": [
        {
          "indexed": false,
          "name": "_user",
          "type": "address"
        },
        {
          "indexed": false,
          "name": "_gold",
          "type": "uint256"
        },
        {
          "indexed": false,
          "name": "_crystal",
          "type": "uint256"
        },
        {
          "indexed": false,
          "name": "_quantumDust",
          "type": "uint256"
        }
      ],
      "name": "GiveResourcesToUser",
      "type": "event"
    },
    {
      "anonymous": false,
      "inputs": [
        {
          "indexed": false,
          "name": "_user",
          "type": "address"
        },
        {
          "indexed": false,
          "name": "_price",
          "type": "uint256"
        }
      ],
      "name": "ConsumeGold",
      "type": "event"
    },
    {
      "anonymous": false,
      "inputs": [
        {
          "indexed": false,
          "name": "_user",
          "type": "address"
        },
        {
          "indexed": false,
          "name": "_price",
          "type": "uint256"
        }
      ],
      "name": "ConsumeCrystal",
      "type": "event"
    },
    {
      "anonymous": false,
      "inputs": [
        {
          "indexed": false,
          "name": "_user",
          "type": "address"
        },
        {
          "indexed": false,
          "name": "_price",
          "type": "uint256"
        }
      ],
      "name": "ConsumeQuantum",
      "type": "event"
    },
    {
      "anonymous": false,
      "inputs": [
        {
          "indexed": false,
          "name": "_gold",
          "type": "uint256"
        },
        {
          "indexed": false,
          "name": "_crystal",
          "type": "uint256"
        }
      ],
      "name": "PayoutResources",
      "type": "event"
    },
    {
      "anonymous": false,
      "inputs": [
        {
          "indexed": false,
          "name": "_gold",
          "type": "uint256"
        },
        {
          "indexed": false,
          "name": "_crystal",
          "type": "uint256"
        },
        {
          "indexed": false,
          "name": "_quantumDust",
          "type": "uint256"
        }
      ],
      "name": "SetInitialResources",
      "type": "event"
    },
    {
      "anonymous": false,
      "inputs": [
        {
          "indexed": true,
          "name": "user",
          "type": "address"
        },
        {
          "indexed": true,
          "name": "newContract",
          "type": "address"
        }
      ],
      "name": "UserMigrated",
      "type": "event"
    },
    {
      "anonymous": false,
      "inputs": [
        {
          "indexed": true,
          "name": "previousOwner",
          "type": "address"
        },
        {
          "indexed": true,
          "name": "newOwner",
          "type": "address"
        }
      ],
      "name": "OwnershipTransferred",
      "type": "event"
    },
    {
      "constant": true,
      "inputs": [],
      "name": "isUserResources",
      "outputs": [
        {
          "name": "",
          "type": "bool"
        }
      ],
      "payable": false,
      "stateMutability": "pure",
      "type": "function"
    },
    {
      "constant": false,
      "inputs": [
        {
          "name": "_previousUserResources",
          "type": "address"
        },
        {
          "name": "_version",
          "type": "uint256"
        }
      ],
      "name": "setUserResourcesVersion",
      "outputs": [],
      "payable": false,
      "stateMutability": "nonpayable",
      "type": "function"
    },
    {
      "constant": false,
      "inputs": [
        {
          "name": "_userVillage",
          "type": "address"
        }
      ],
      "name": "setUserVillage",
      "outputs": [],
      "payable": false,
      "stateMutability": "nonpayable",
      "type": "function"
    },
    {
      "constant": false,
      "inputs": [
        {
          "name": "_buildingsQueue",
          "type": "address"
        }
      ],
      "name": "setBuildingsQueue",
      "outputs": [],
      "payable": false,
      "stateMutability": "nonpayable",
      "type": "function"
    },
    {
      "constant": false,
      "inputs": [
        {
          "name": "_userBuildings",
          "type": "address"
        }
      ],
      "name": "setUserBuildings",
      "outputs": [],
      "payable": false,
      "stateMutability": "nonpayable",
      "type": "function"
    },
    {
      "constant": false,
      "inputs": [
        {
          "name": "_user",
          "type": "address"
        }
      ],
      "name": "initUserResources",
      "outputs": [
        {
          "name": "",
          "type": "bool"
        }
      ],
      "payable": false,
      "stateMutability": "nonpayable",
      "type": "function"
    },
    {
      "constant": true,
      "inputs": [
        {
          "name": "_user",
          "type": "address"
        }
      ],
      "name": "getUserResources",
      "outputs": [
        {
          "name": "gold",
          "type": "uint256"
        },
        {
          "name": "crystal",
          "type": "uint256"
        },
        {
          "name": "quantumDust",
          "type": "uint256"
        }
      ],
      "payable": false,
      "stateMutability": "view",
      "type": "function"
    },
    {
      "constant": false,
      "inputs": [
        {
          "name": "_gold",
          "type": "uint256"
        },
        {
          "name": "_crystal",
          "type": "uint256"
        },
        {
          "name": "_quantumDust",
          "type": "uint256"
        }
      ],
      "name": "setInitialResources",
      "outputs": [],
      "payable": false,
      "stateMutability": "nonpayable",
      "type": "function"
    },
    {
      "constant": false,
      "inputs": [
        {
          "name": "_user",
          "type": "address"
        },
        {
          "name": "_price",
          "type": "uint256"
        }
      ],
      "name": "consumeGold",
      "outputs": [
        {
          "name": "",
          "type": "bool"
        }
      ],
      "payable": false,
      "stateMutability": "nonpayable",
      "type": "function"
    },
    {
      "constant": false,
      "inputs": [
        {
          "name": "_user",
          "type": "address"
        },
        {
          "name": "_price",
          "type": "uint256"
        }
      ],
      "name": "consumeCrystal",
      "outputs": [
        {
          "name": "",
          "type": "bool"
        }
      ],
      "payable": false,
      "stateMutability": "nonpayable",
      "type": "function"
    },
    {
      "constant": false,
      "inputs": [
        {
          "name": "_user",
          "type": "address"
        },
        {
          "name": "_price",
          "type": "uint256"
        }
      ],
      "name": "consumeQuantumDust",
      "outputs": [
        {
          "name": "",
          "type": "bool"
        }
      ],
      "payable": false,
      "stateMutability": "nonpayable",
      "type": "function"
    },
    {
      "constant": false,
      "inputs": [
        {
          "name": "_user",
          "type": "address"
        },
        {
          "name": "_gold",
          "type": "uint256"
        },
        {
          "name": "_crystal",
          "type": "uint256"
        },
        {
          "name": "_quantumDust",
          "type": "uint256"
        }
      ],
      "name": "giveResourcesToUser",
      "outputs": [],
      "payable": false,
      "stateMutability": "nonpayable",
      "type": "function"
    },
    {
      "constant": false,
      "inputs": [
        {
          "name": "_user",
          "type": "address"
        }
      ],
      "name": "initPayoutBlock",
      "outputs": [],
      "payable": false,
      "stateMutability": "nonpayable",
      "type": "function"
    },
    {
      "constant": false,
      "inputs": [
        {
          "name": "_user",
          "type": "address"
        }
      ],
      "name": "payoutResources",
      "outputs": [],
      "payable": false,
      "stateMutability": "nonpayable",
      "type": "function"
    },
    {
      "constant": true,
      "inputs": [
        {
          "name": "_user",
          "type": "address"
        }
      ],
      "name": "calculateUserResources",
      "outputs": [
        {
          "name": "userGold",
          "type": "uint256"
        },
        {
          "name": "userCrystal",
          "type": "uint256"
        }
      ],
      "payable": false,
      "stateMutability": "view",
      "type": "function"
    },
    {
      "constant": true,
      "inputs": [
        {
          "name": "_user",
          "type": "address"
        }
      ],
      "name": "calculateUserResourcesCapacity",
      "outputs": [
        {
          "name": "goldCapacity",
          "type": "uint256"
        },
        {
          "name": "crystalCapacity",
          "type": "uint256"
        }
      ],
      "payable": false,
      "stateMutability": "view",
      "type": "function"
    },
    {
      "constant": true,
      "inputs": [
        {
          "name": "_user",
          "type": "address"
        }
      ],
      "name": "getUserPayoutBlock",
      "outputs": [
        {
          "name": "",
          "type": "uint256"
        }
      ],
      "payable": false,
      "stateMutability": "view",
      "type": "function"
    }
  ],
  "bytecode": "0x6060604052600060035560006004556000600555341561001e57600080fd5b336000806101000a81548173ffffffffffffffffffffffffffffffffffffffff021916908373ffffffffffffffffffffffffffffffffffffffff16021790555060003414151561006d57600080fd5b612ef38061007c6000396000f300606060405260043610610175576000357c0100000000000000000000000000000000000000000000000000000000900463ffffffff168063142ed0431461018257806317ffc320146101dc5780631ede90431461021557806324357211146102625780632729663c1461029b57806328624942146102e85780632aed7f3f1461033c5780632f2e88f014610375578063408def1e146103cf57806354fd4d50146103f25780635d0365001461041b57806377889afa146104815780637c137edd146104ba5780638da5cb5b146104f35780638e69ce58146105485780639c7aab0a146105815780639f727c27146105c3578063a2631133146105d8578063ac42c67b1461060d578063b1dc576f14610661578063bbe768a41461069a578063bd6b4ed9146106eb578063c0ee0b8a1461073c578063dd6c7e3114610792578063ec3191e9146107cb578063f229a41514610825578063f2fde38b14610852578063f6c552021461088b578063f76611f8146108e6575b341561018057600080fd5b005b341561018d57600080fd5b6101c2600480803573ffffffffffffffffffffffffffffffffffffffff1690602001909190803590602001909190505061093a565b604051808215151515815260200191505060405180910390f35b34156101e757600080fd5b610213600480803573ffffffffffffffffffffffffffffffffffffffff16906020019091905050610b50565b005b341561022057600080fd5b61024c600480803573ffffffffffffffffffffffffffffffffffffffff16906020019091905050610cbd565b6040518082815260200191505060405180910390f35b341561026d57600080fd5b610299600480803573ffffffffffffffffffffffffffffffffffffffff16906020019091905050610d06565b005b34156102a657600080fd5b6102d2600480803573ffffffffffffffffffffffffffffffffffffffff16906020019091905050610e37565b6040518082815260200191505060405180910390f35b34156102f357600080fd5b61031f600480803573ffffffffffffffffffffffffffffffffffffffff16906020019091905050610e4f565b604051808381526020018281526020019250505060405180910390f35b341561034757600080fd5b610373600480803573ffffffffffffffffffffffffffffffffffffffff169060200190919050506110c6565b005b341561038057600080fd5b6103b5600480803573ffffffffffffffffffffffffffffffffffffffff169060200190919080359060200190919050506111f9565b604051808215151515815260200191505060405180910390f35b34156103da57600080fd5b6103f06004808035906020019091905050611406565b005b34156103fd57600080fd5b61040561146b565b6040518082815260200191505060405180910390f35b341561042657600080fd5b610452600480803573ffffffffffffffffffffffffffffffffffffffff16906020019091905050611471565b604051808515151515815260200184815260200183815260200182815260200194505050505060405180910390f35b341561048c57600080fd5b6104b8600480803573ffffffffffffffffffffffffffffffffffffffff169060200190919050506114ae565b005b34156104c557600080fd5b6104f1600480803573ffffffffffffffffffffffffffffffffffffffff169060200190919050506115df565b005b34156104fe57600080fd5b6105066116d9565b604051808273ffffffffffffffffffffffffffffffffffffffff1673ffffffffffffffffffffffffffffffffffffffff16815260200191505060405180910390f35b341561055357600080fd5b61057f600480803573ffffffffffffffffffffffffffffffffffffffff169060200190919050506116fe565b005b341561058c57600080fd5b6105c1600480803573ffffffffffffffffffffffffffffffffffffffff16906020019091908035906020019091905050611b30565b005b34156105ce57600080fd5b6105d6611cff565b005b34156105e357600080fd5b61060b6004808035906020019091908035906020019091908035906020019091905050611dd1565b005b341561061857600080fd5b61065f600480803573ffffffffffffffffffffffffffffffffffffffff16906020019091908035906020019091908035906020019091908035906020019091905050611ed8565b005b341561066c57600080fd5b610698600480803573ffffffffffffffffffffffffffffffffffffffff16906020019091905050612154565b005b34156106a557600080fd5b6106d1600480803573ffffffffffffffffffffffffffffffffffffffff16906020019091905050612285565b604051808215151515815260200191505060405180910390f35b34156106f657600080fd5b610722600480803573ffffffffffffffffffffffffffffffffffffffff169060200190919050506122a5565b604051808215151515815260200191505060405180910390f35b341561074757600080fd5b610790600480803573ffffffffffffffffffffffffffffffffffffffff169060200190919080359060200190919080359060200190820180359060200191909192905050612576565b005b341561079d57600080fd5b6107c9600480803573ffffffffffffffffffffffffffffffffffffffff1690602001909190505061257b565b005b34156107d657600080fd5b61080b600480803573ffffffffffffffffffffffffffffffffffffffff16906020019091908035906020019091905050612726565b604051808215151515815260200191505060405180910390f35b341561083057600080fd5b61083861293c565b604051808215151515815260200191505060405180910390f35b341561085d57600080fd5b610889600480803573ffffffffffffffffffffffffffffffffffffffff16906020019091905050612945565b005b341561089657600080fd5b6108c2600480803573ffffffffffffffffffffffffffffffffffffffff16906020019091905050612a9a565b60405180848152602001838152602001828152602001935050505060405180910390f35b34156108f157600080fd5b61091d600480803573ffffffffffffffffffffffffffffffffffffffff16906020019091905050612b75565b604051808381526020018281526020019250505060405180910390f35b6000600860009054906101000a900473ffffffffffffffffffffffffffffffffffffffff1673ffffffffffffffffffffffffffffffffffffffff163373ffffffffffffffffffffffffffffffffffffffff1614806109e457506000809054906101000a900473ffffffffffffffffffffffffffffffffffffffff1673ffffffffffffffffffffffffffffffffffffffff163373ffffffffffffffffffffffffffffffffffffffff16145b15156109ef57600080fd5b6109f8836116fe565b81600660008573ffffffffffffffffffffffffffffffffffffffff1673ffffffffffffffffffffffffffffffffffffffff1681526020019081526020016000206002015410151515610a4957600080fd5b610a95600660008573ffffffffffffffffffffffffffffffffffffffff1673ffffffffffffffffffffffffffffffffffffffff1681526020019081526020016000206002015483612d82565b600660008573ffffffffffffffffffffffffffffffffffffffff1673ffffffffffffffffffffffffffffffffffffffff168152602001908152602001600020600201819055507f955b62cb64131a07d6f9880467771f5b08ddeadfbe3886956a7121c4a0dfa0bf8383604051808373ffffffffffffffffffffffffffffffffffffffff1673ffffffffffffffffffffffffffffffffffffffff1681526020018281526020019250505060405180910390a16001905092915050565b60008060009054906101000a900473ffffffffffffffffffffffffffffffffffffffff1673ffffffffffffffffffffffffffffffffffffffff163373ffffffffffffffffffffffffffffffffffffffff16141515610bad57600080fd5b8173ffffffffffffffffffffffffffffffffffffffff166370a08231306000604051602001526040518263ffffffff167c0100000000000000000000000000000000000000000000000000000000028152600401808273ffffffffffffffffffffffffffffffffffffffff1673ffffffffffffffffffffffffffffffffffffffff168152602001915050602060405180830381600087803b1515610c5057600080fd5b6102c65a03f11515610c6157600080fd5b505050604051805190509050610cb96000809054906101000a900473ffffffffffffffffffffffffffffffffffffffff16828473ffffffffffffffffffffffffffffffffffffffff16612d9b9092919063ffffffff16565b5050565b6000600760008373ffffffffffffffffffffffffffffffffffffffff1673ffffffffffffffffffffffffffffffffffffffff168152602001908152602001600020549050919050565b6000809054906101000a900473ffffffffffffffffffffffffffffffffffffffff1673ffffffffffffffffffffffffffffffffffffffff163373ffffffffffffffffffffffffffffffffffffffff16141515610d6157600080fd5b8073ffffffffffffffffffffffffffffffffffffffff166319d6dfae6000604051602001526040518163ffffffff167c0100000000000000000000000000000000000000000000000000000000028152600401602060405180830381600087803b1515610dcd57600080fd5b6102c65a03f11515610dde57600080fd5b505050604051805190501515610df357600080fd5b80600a60006101000a81548173ffffffffffffffffffffffffffffffffffffffff021916908373ffffffffffffffffffffffffffffffffffffffff16021790555050565b60076020528060005260406000206000915090505481565b6000806000806000610ea043600760008973ffffffffffffffffffffffffffffffffffffffff1673ffffffffffffffffffffffffffffffffffffffff16815260200190815260200160002054612d82565b925060008311156110b8576000915060009050600a60009054906101000a900473ffffffffffffffffffffffffffffffffffffffff1673ffffffffffffffffffffffffffffffffffffffff16639f6650d6876000604051604001526040518263ffffffff167c0100000000000000000000000000000000000000000000000000000000028152600401808273ffffffffffffffffffffffffffffffffffffffff1673ffffffffffffffffffffffffffffffffffffffff1681526020019150506040805180830381600087803b1515610f7757600080fd5b6102c65a03f11515610f8857600080fd5b505050604051805190602001805190508092508193505050600860009054906101000a900473ffffffffffffffffffffffffffffffffffffffff1673ffffffffffffffffffffffffffffffffffffffff1663ec87155d876000604051604001526040518263ffffffff167c0100000000000000000000000000000000000000000000000000000000028152600401808273ffffffffffffffffffffffffffffffffffffffff1673ffffffffffffffffffffffffffffffffffffffff1681526020019150506040805180830381600087803b151561106457600080fd5b6102c65a03f1151561107557600080fd5b5050506040518051906020018051905080955081965050506110a08561109b8486612e6e565b612ea9565b94506110b5846110b08386612e6e565b612ea9565b93505b848494509450505050915091565b60008060009054906101000a900473ffffffffffffffffffffffffffffffffffffffff1673ffffffffffffffffffffffffffffffffffffffff163373ffffffffffffffffffffffffffffffffffffffff1614151561112357600080fd5b8190508073ffffffffffffffffffffffffffffffffffffffff1663f2fde38b6000809054906101000a900473ffffffffffffffffffffffffffffffffffffffff166040518263ffffffff167c0100000000000000000000000000000000000000000000000000000000028152600401808273ffffffffffffffffffffffffffffffffffffffff1673ffffffffffffffffffffffffffffffffffffffff168152602001915050600060405180830381600087803b15156111e157600080fd5b6102c65a03f115156111f257600080fd5b5050505050565b6000600860009054906101000a900473ffffffffffffffffffffffffffffffffffffffff1673ffffffffffffffffffffffffffffffffffffffff163373ffffffffffffffffffffffffffffffffffffffff1614806112a357506000809054906101000a900473ffffffffffffffffffffffffffffffffffffffff1673ffffffffffffffffffffffffffffffffffffffff163373ffffffffffffffffffffffffffffffffffffffff16145b15156112ae57600080fd5b81600660008573ffffffffffffffffffffffffffffffffffffffff1673ffffffffffffffffffffffffffffffffffffffff16815260200190815260200160002060030154101515156112ff57600080fd5b61134b600660008573ffffffffffffffffffffffffffffffffffffffff1673ffffffffffffffffffffffffffffffffffffffff1681526020019081526020016000206003015483612d82565b600660008573ffffffffffffffffffffffffffffffffffffffff1673ffffffffffffffffffffffffffffffffffffffff168152602001908152602001600020600301819055507f31256573c81ce5b84c7d8b84b9679b324513f8b09439fe3a0d7d0f79c0f22f6b8383604051808373ffffffffffffffffffffffffffffffffffffffff1673ffffffffffffffffffffffffffffffffffffffff1681526020018281526020019250505060405180910390a16001905092915050565b6000809054906101000a900473ffffffffffffffffffffffffffffffffffffffff1673ffffffffffffffffffffffffffffffffffffffff163373ffffffffffffffffffffffffffffffffffffffff1614151561146157600080fd5b8060018190555050565b60015481565b60066020528060005260406000206000915090508060000160009054906101000a900460ff16908060010154908060020154908060030154905084565b6000809054906101000a900473ffffffffffffffffffffffffffffffffffffffff1673ffffffffffffffffffffffffffffffffffffffff163373ffffffffffffffffffffffffffffffffffffffff1614151561150957600080fd5b8073ffffffffffffffffffffffffffffffffffffffff1663bfb4bbae6000604051602001526040518163ffffffff167c0100000000000000000000000000000000000000000000000000000000028152600401602060405180830381600087803b151561157557600080fd5b6102c65a03f1151561158657600080fd5b50505060405180519050151561159b57600080fd5b80600860006101000a81548173ffffffffffffffffffffffffffffffffffffffff021916908373ffffffffffffffffffffffffffffffffffffffff16021790555050565b600b60009054906101000a900473ffffffffffffffffffffffffffffffffffffffff1673ffffffffffffffffffffffffffffffffffffffff163373ffffffffffffffffffffffffffffffffffffffff16148061168757506000809054906101000a900473ffffffffffffffffffffffffffffffffffffffff1673ffffffffffffffffffffffffffffffffffffffff163373ffffffffffffffffffffffffffffffffffffffff16145b151561169257600080fd5b43600760008373ffffffffffffffffffffffffffffffffffffffff1673ffffffffffffffffffffffffffffffffffffffff1681526020019081526020016000208190555050565b6000809054906101000a900473ffffffffffffffffffffffffffffffffffffffff1681565b600080600080600061174f43600760008973ffffffffffffffffffffffffffffffffffffffff1673ffffffffffffffffffffffffffffffffffffffff16815260200190815260200160002054612d82565b94506000851115611b28576000935060009250600091506000905061177386610e4f565b809450819550505061178486612b75565b80925081935050506000841115611918576117e1600660008873ffffffffffffffffffffffffffffffffffffffff1673ffffffffffffffffffffffffffffffffffffffff1681526020019081526020016000206001015485612ea9565b821115156118315781600660008873ffffffffffffffffffffffffffffffffffffffff1673ffffffffffffffffffffffffffffffffffffffff168152602001908152602001600020600101819055505b61187d600660008873ffffffffffffffffffffffffffffffffffffffff1673ffffffffffffffffffffffffffffffffffffffff1681526020019081526020016000206001015485612ea9565b821115611917576118d0600660008873ffffffffffffffffffffffffffffffffffffffff1673ffffffffffffffffffffffffffffffffffffffff1681526020019081526020016000206001015485612ea9565b600660008873ffffffffffffffffffffffffffffffffffffffff1673ffffffffffffffffffffffffffffffffffffffff168152602001908152602001600020600101819055505b5b6000831115611aa45761196d600660008873ffffffffffffffffffffffffffffffffffffffff1673ffffffffffffffffffffffffffffffffffffffff1681526020019081526020016000206002015484612ea9565b811115156119bd5780600660008873ffffffffffffffffffffffffffffffffffffffff1673ffffffffffffffffffffffffffffffffffffffff168152602001908152602001600020600201819055505b611a09600660008873ffffffffffffffffffffffffffffffffffffffff1673ffffffffffffffffffffffffffffffffffffffff1681526020019081526020016000206002015484612ea9565b811115611aa357611a5c600660008873ffffffffffffffffffffffffffffffffffffffff1673ffffffffffffffffffffffffffffffffffffffff1681526020019081526020016000206002015484612ea9565b600660008873ffffffffffffffffffffffffffffffffffffffff1673ffffffffffffffffffffffffffffffffffffffff168152602001908152602001600020600201819055505b5b43600760008873ffffffffffffffffffffffffffffffffffffffff1673ffffffffffffffffffffffffffffffffffffffff168152602001908152602001600020819055507fda5bf3ca8a00d4e67e26e80bfdef37638f08e5e673d015c93c87c3c6697141c88484604051808381526020018281526020019250505060405180910390a15b505050505050565b6000809054906101000a900473ffffffffffffffffffffffffffffffffffffffff1673ffffffffffffffffffffffffffffffffffffffff163373ffffffffffffffffffffffffffffffffffffffff16141515611b8b57600080fd5b8173ffffffffffffffffffffffffffffffffffffffff1663f229a4156000604051602001526040518163ffffffff167c0100000000000000000000000000000000000000000000000000000000028152600401602060405180830381600087803b1515611bf757600080fd5b6102c65a03f11515611c0857600080fd5b505050604051805190501515611c1d57600080fd5b8173ffffffffffffffffffffffffffffffffffffffff166354fd4d506000604051602001526040518163ffffffff167c0100000000000000000000000000000000000000000000000000000000028152600401602060405180830381600087803b1515611c8957600080fd5b6102c65a03f11515611c9a57600080fd5b5050506040518051905081111515611cb157600080fd5b81600960006101000a81548173ffffffffffffffffffffffffffffffffffffffff021916908373ffffffffffffffffffffffffffffffffffffffff160217905550611cfb81611406565b5050565b6000809054906101000a900473ffffffffffffffffffffffffffffffffffffffff1673ffffffffffffffffffffffffffffffffffffffff163373ffffffffffffffffffffffffffffffffffffffff16141515611d5a57600080fd5b6000809054906101000a900473ffffffffffffffffffffffffffffffffffffffff1673ffffffffffffffffffffffffffffffffffffffff166108fc3073ffffffffffffffffffffffffffffffffffffffff16319081150290604051600060405180830381858888f193505050501515611dcf57fe5b565b6000809054906101000a900473ffffffffffffffffffffffffffffffffffffffff1673ffffffffffffffffffffffffffffffffffffffff163373ffffffffffffffffffffffffffffffffffffffff16141515611e2c57600080fd5b60008310158015611e3f57508260035414155b15611e4c57826003819055505b60008210158015611e5f57508160045414155b15611e6c57816004819055505b60008110158015611e7f57508060055414155b15611e8c57806005819055505b7f6862a25d0001b4d08fb0da21066be0d7d96a3aaeee8a6554023262cde1bd4e9e83838360405180848152602001838152602001828152602001935050505060405180910390a1505050565b6000809054906101000a900473ffffffffffffffffffffffffffffffffffffffff1673ffffffffffffffffffffffffffffffffffffffff163373ffffffffffffffffffffffffffffffffffffffff161480611f805750600860009054906101000a900473ffffffffffffffffffffffffffffffffffffffff1673ffffffffffffffffffffffffffffffffffffffff163373ffffffffffffffffffffffffffffffffffffffff16145b80611fd85750600a60009054906101000a900473ffffffffffffffffffffffffffffffffffffffff1673ffffffffffffffffffffffffffffffffffffffff163373ffffffffffffffffffffffffffffffffffffffff16145b1515611fe357600080fd5b82600660008673ffffffffffffffffffffffffffffffffffffffff1673ffffffffffffffffffffffffffffffffffffffff1681526020019081526020016000206001016000828254019250508190555081600660008673ffffffffffffffffffffffffffffffffffffffff1673ffffffffffffffffffffffffffffffffffffffff1681526020019081526020016000206002016000828254019250508190555080600660008673ffffffffffffffffffffffffffffffffffffffff1673ffffffffffffffffffffffffffffffffffffffff168152602001908152602001600020600301600082825401925050819055507f56c83da31f10f70f5e0e4a85870dd477ba4cb363d484c5934a030a7b75d2d4e284848484604051808573ffffffffffffffffffffffffffffffffffffffff1673ffffffffffffffffffffffffffffffffffffffff16815260200184815260200183815260200182815260200194505050505060405180910390a150505050565b6000809054906101000a900473ffffffffffffffffffffffffffffffffffffffff1673ffffffffffffffffffffffffffffffffffffffff163373ffffffffffffffffffffffffffffffffffffffff161415156121af57600080fd5b8073ffffffffffffffffffffffffffffffffffffffff1663c19d6f5f6000604051602001526040518163ffffffff167c0100000000000000000000000000000000000000000000000000000000028152600401602060405180830381600087803b151561221b57600080fd5b6102c65a03f1151561222c57600080fd5b50505060405180519050151561224157600080fd5b80600b60006101000a81548173ffffffffffffffffffffffffffffffffffffffff021916908373ffffffffffffffffffffffffffffffffffffffff16021790555050565b60026020528060005260406000206000915054906101000a900460ff1681565b6000600b60009054906101000a900473ffffffffffffffffffffffffffffffffffffffff1673ffffffffffffffffffffffffffffffffffffffff163373ffffffffffffffffffffffffffffffffffffffff16148061234f57506000809054906101000a900473ffffffffffffffffffffffffffffffffffffffff1673ffffffffffffffffffffffffffffffffffffffff163373ffffffffffffffffffffffffffffffffffffffff16145b151561235a57600080fd5b600660008373ffffffffffffffffffffffffffffffffffffffff1673ffffffffffffffffffffffffffffffffffffffff16815260200190815260200160002060000160009054906101000a900460ff161515156123b657600080fd5b6001600660008473ffffffffffffffffffffffffffffffffffffffff1673ffffffffffffffffffffffffffffffffffffffff16815260200190815260200160002060000160006101000a81548160ff021916908315150217905550600354600660008473ffffffffffffffffffffffffffffffffffffffff1673ffffffffffffffffffffffffffffffffffffffff16815260200190815260200160002060010181905550600454600660008473ffffffffffffffffffffffffffffffffffffffff1673ffffffffffffffffffffffffffffffffffffffff16815260200190815260200160002060020181905550600554600660008473ffffffffffffffffffffffffffffffffffffffff1673ffffffffffffffffffffffffffffffffffffffff168152602001908152602001600020600301819055507f6547981d969434c46d20151ead2da0a8e75c6511827b33319532854b59c2b8a882600354600454600554604051808573ffffffffffffffffffffffffffffffffffffffff1673ffffffffffffffffffffffffffffffffffffffff16815260200184815260200183815260200182815260200194505050505060405180910390a160019050919050565b600080fd5b60011515600260003373ffffffffffffffffffffffffffffffffffffffff1673ffffffffffffffffffffffffffffffffffffffff16815260200190815260200160002060009054906101000a900460ff161515141515156125db57600080fd5b6001548173ffffffffffffffffffffffffffffffffffffffff166354fd4d506000604051602001526040518163ffffffff167c0100000000000000000000000000000000000000000000000000000000028152600401602060405180830381600087803b151561264a57600080fd5b6102c65a03f1151561265b57600080fd5b5050506040518051905011151561267157600080fd5b6001600260003373ffffffffffffffffffffffffffffffffffffffff1673ffffffffffffffffffffffffffffffffffffffff16815260200190815260200160002060006101000a81548160ff0219169083151502179055508073ffffffffffffffffffffffffffffffffffffffff163373ffffffffffffffffffffffffffffffffffffffff167fc123aa2e5c63456c59a4694ac50ba610152278a01162f3d5e3a6ffc457bc586e60405160405180910390a350565b6000600860009054906101000a900473ffffffffffffffffffffffffffffffffffffffff1673ffffffffffffffffffffffffffffffffffffffff163373ffffffffffffffffffffffffffffffffffffffff1614806127d057506000809054906101000a900473ffffffffffffffffffffffffffffffffffffffff1673ffffffffffffffffffffffffffffffffffffffff163373ffffffffffffffffffffffffffffffffffffffff16145b15156127db57600080fd5b6127e4836116fe565b81600660008573ffffffffffffffffffffffffffffffffffffffff1673ffffffffffffffffffffffffffffffffffffffff168152602001908152602001600020600101541015151561283557600080fd5b612881600660008573ffffffffffffffffffffffffffffffffffffffff1673ffffffffffffffffffffffffffffffffffffffff1681526020019081526020016000206001015483612d82565b600660008573ffffffffffffffffffffffffffffffffffffffff1673ffffffffffffffffffffffffffffffffffffffff168152602001908152602001600020600101819055507fc5d838e50d036135856735e0fdb074bb5edacbb457ede6ff246b76f8365d6e038383604051808373ffffffffffffffffffffffffffffffffffffffff1673ffffffffffffffffffffffffffffffffffffffff1681526020018281526020019250505060405180910390a16001905092915050565b60006001905090565b6000809054906101000a900473ffffffffffffffffffffffffffffffffffffffff1673ffffffffffffffffffffffffffffffffffffffff163373ffffffffffffffffffffffffffffffffffffffff161415156129a057600080fd5b600073ffffffffffffffffffffffffffffffffffffffff168173ffffffffffffffffffffffffffffffffffffffff16141515156129dc57600080fd5b8073ffffffffffffffffffffffffffffffffffffffff166000809054906101000a900473ffffffffffffffffffffffffffffffffffffffff1673ffffffffffffffffffffffffffffffffffffffff167f8be0079c531659141344cd1fd0a4f28419497f9722a3daafe3b4186f6b6457e060405160405180910390a3806000806101000a81548173ffffffffffffffffffffffffffffffffffffffff021916908373ffffffffffffffffffffffffffffffffffffffff16021790555050565b6000806000600660008573ffffffffffffffffffffffffffffffffffffffff1673ffffffffffffffffffffffffffffffffffffffff16815260200190815260200160002060010154600660008673ffffffffffffffffffffffffffffffffffffffff1673ffffffffffffffffffffffffffffffffffffffff16815260200190815260200160002060020154600660008773ffffffffffffffffffffffffffffffffffffffff1673ffffffffffffffffffffffffffffffffffffffff168152602001908152602001600020600301549250925092509193909250565b6000806000806000915060009050600a60009054906101000a900473ffffffffffffffffffffffffffffffffffffffff1673ffffffffffffffffffffffffffffffffffffffff1663eb80520d866000604051604001526040518263ffffffff167c0100000000000000000000000000000000000000000000000000000000028152600401808273ffffffffffffffffffffffffffffffffffffffff1673ffffffffffffffffffffffffffffffffffffffff1681526020019150506040805180830381600087803b1515612c4757600080fd5b6102c65a03f11515612c5857600080fd5b505050604051805190602001805190508094508195505050600860009054906101000a900473ffffffffffffffffffffffffffffffffffffffff1673ffffffffffffffffffffffffffffffffffffffff1663eb80520d866000604051604001526040518263ffffffff167c0100000000000000000000000000000000000000000000000000000000028152600401808273ffffffffffffffffffffffffffffffffffffffff1673ffffffffffffffffffffffffffffffffffffffff1681526020019150506040805180830381600087803b1515612d3457600080fd5b6102c65a03f11515612d4557600080fd5b505050604051805190602001805190508092508193505050612d678483612ea9565b9350612d738382612ea9565b92508383935093505050915091565b6000828211151515612d9057fe5b818303905092915050565b8273ffffffffffffffffffffffffffffffffffffffff1663a9059cbb83836000604051602001526040518363ffffffff167c0100000000000000000000000000000000000000000000000000000000028152600401808373ffffffffffffffffffffffffffffffffffffffff1673ffffffffffffffffffffffffffffffffffffffff16815260200182815260200192505050602060405180830381600087803b1515612e4657600080fd5b6102c65a03f11515612e5757600080fd5b505050604051805190501515612e6957fe5b505050565b6000806000841415612e835760009150612ea2565b8284029050828482811515612e9457fe5b04141515612e9e57fe5b8091505b5092915050565b6000808284019050838110151515612ebd57fe5b80915050929150505600a165627a7a723058207ec41d216dc664015a4c4efd9df90cb43da0e068e157196ade49774f730520de0029",
  "source": "pragma solidity ^0.4.18;\n\nimport 'zeppelin-solidity/contracts/math/SafeMath.sol';\nimport 'zeppelin-solidity/contracts/ownership/NoOwner.sol';\nimport './BuildingsQueue.sol';\nimport './UserBuildings.sol';\nimport './UserVillage.sol';\nimport './Versioned.sol';\n\n/*\n * @title UserResources (WIP)\n * @notice This contract handles the user resources.\n * @dev Keeps track of users active resources.\n * Additional functionality might be added to ...\n * @dev Issue: * https://github.com/e11-io/crypto-wars-solidity/issues/6\n */\ncontract UserResources is NoOwner, Versioned {\n\n\t/*\n   * @event Event for initializing user resources.\n   * @param _user who receives the resources.\n\t * @param _gold the amount of gold.\n\t * @param _crystal the amount of crystal.\n\t * @param _quantumDust the amount of quantum Dust.\n   */\n\tevent InitUserResources(address _user,\n\t\t \t\t\t\t\t\t\t\t\t\t\tuint _gold,\n\t\t\t\t\t\t\t\t\t\t\t\t\tuint _crystal,\n\t\t\t\t\t\t\t\t\t\t\t\t\tuint _quantumDust);\n\n\t/*\n\t * @event Event for giving resources to a user.\n\t * @param _user who receives the resources.\n\t * @param _gold the amount of gold.\n\t * @param _crystal the amount of crystal.\n\t * @param _quantumDust the amount of quantum Dust.\n\t */\n  event GiveResourcesToUser(address _user,\n\t\t\t\t\t\t\t\t\t\t\t\t\t  uint _gold,\n\t\t\t\t\t\t\t\t\t\t\t\t\t  uint _crystal,\n\t\t\t\t\t\t\t\t\t\t\t\t\t  uint _quantumDust);\n\n\t/*\n\t * @event Event for consuming user gold.\n\t * @param _user The user to consume gold from.\n\t * @param _price the amount of gold.\n\t */\n  event ConsumeGold(address _user, uint _price);\n\n\t/*\n\t * @event Event for consuming user crystal.\n\t * @param _user The user to consume crystal from.\n\t * @param _price the amount of crystal.\n\t */\n  event ConsumeCrystal(address _user, uint _price);\n\n\t/*\n\t * @event Event for consuming user quantum.\n\t * @param _user The user to consume quantum from.\n\t * @param _price the amount of quantum.\n\t */\n  event ConsumeQuantum(address _user, uint _price);\n\n\t/*\n\t * @event Event for paying out resources to user.\n\t * @param _gold The amount of gold the user generated and will receive.\n\t * @param _crystal The amount of crystal the user generated and will receive.\n\t */\n\tevent PayoutResources(uint _gold, uint _crystal);\n\n\t/*\n\t * @event Event for seting initial resources of user.\n\t * @param _gold the amount of gold.\n\t * @param _crystal the amount of crystal.\n\t * @param _quantumDust the amount of quantum Dust.\n\t */\n\tevent SetInitialResources(uint _gold, uint _crystal, uint _quantumDust);\n\n\tuint initialGold = 0;\n\tuint initialCrystal = 0;\n\tuint initialQuantumDust = 0;\n\n\tstruct Resources {\n\t\tbool initialized;\n\t\tuint gold;\n\t\tuint crystal;\n\t\tuint quantumDust;\n\t}\n\n\t// Mapping of user -> resources (keeps track of owned resources).\n\tmapping (address => Resources) public usersResources;\n\n\t// Mapping of user -> last payout block (keeps track of the last block where the user was paid).\n\tmapping (address => uint) public usersPayoutBlock;\n\n\tBuildingsQueue buildingsQueue;\n\tUserResources previousUserResources;\n\tUserBuildings userBuildings;\n\tUserVillage userVillage;\n\n\t/**\n\t * @notice Constructor: Instantiate User Resources contract.\n\t * @dev Constructor function.\n\t */\n\tfunction UserResources() public {\n\t}\n\n\t/**\n\t * @notice Makes the contract type verifiable.\n\t * @dev Function to prove the contract is User Resources.\n\t */\n\tfunction isUserResources() external pure returns (bool) {\n\t\treturn true;\n\t}\n\n\t/**\n\t * @notice Sets the contract's version and instantiates the previous version contract.\n\t * @dev Function to set the contract version and instantiate the previous User Resources.\n\t * @param _previousUserResources the address of previous User Resources contract. (address)\n\t * @param _version the current contract version number. (uint)\n\t */\n\tfunction setUserResourcesVersion(UserResources _previousUserResources, uint _version) external onlyOwner {\n\t\trequire(_previousUserResources.isUserResources());\n\t\trequire(_version > _previousUserResources.version());\n\t\tpreviousUserResources = _previousUserResources;\n\t\tsetVersion(_version);\n\t}\n\n\t/*\n   * @title Instantiate User Village contract.\n   * @dev Function to provide User Village address and instantiate it.\n   * @param _userVillage the address of User Village contract. (address)\n   */\n\tfunction setUserVillage(UserVillage _userVillage) external onlyOwner {\n\t\trequire(_userVillage.isUserVillage());\n\t\tuserVillage = _userVillage;\n\t}\n\n\t/*\n   * @title Instantiate Buildings Queue contract.\n   * @dev Function to provide Buildings Queue address and instantiate it.\n   * @param _buildingsQueue the address of Buildings Queue contract. (address)\n   */\n\tfunction setBuildingsQueue(BuildingsQueue _buildingsQueue) external onlyOwner {\n\t\trequire(_buildingsQueue.isBuildingsQueue());\n\t\tbuildingsQueue = _buildingsQueue;\n\t}\n\n\t/*\n   * @title Instantiate User Buildings contract.\n   * @dev Function to provide User Buildings address and instantiate it.\n   * @param _userBuildings the address of User Buildings contract. (address)\n   */\n\tfunction setUserBuildings(UserBuildings _userBuildings) external onlyOwner {\n\t\trequire(_userBuildings.isUserBuildings());\n\t\tuserBuildings = _userBuildings;\n\t}\n\n\t/*\n   * @title Initiate user resources.\n   * @dev Function to add the initial resources to a new user.\n   * @param _user address of the user to give the resources. (address)\n\t * @return A boolean that indicates if the operation was successful.\n   */\n\tfunction initUserResources(address _user) external returns (bool) {\n\t\trequire(msg.sender == address(userVillage) || msg.sender == owner);\n\t\trequire(!usersResources[_user].initialized);\n\n\t\tusersResources[_user].initialized = true;\n\t\tusersResources[_user].gold = initialGold;\n\t\tusersResources[_user].crystal = initialCrystal;\n\t\tusersResources[_user].quantumDust = initialQuantumDust;\n\n\t\tInitUserResources(_user, initialGold, initialCrystal, initialQuantumDust);\n\t\treturn true;\n\t}\n\n\t/*\n   * @title Get user resources.\n   * @dev Function that returns the user resources amount.\n   * @param _user address of the user to give the resources. (address)\n   */\n\tfunction getUserResources(address _user) external view returns (uint gold,\n\t\t\t\t\t\t\t\t\t\t\t\t\t\t\t\t\t\t\t\t\t\t\t\t\t\t\t\t\t\t\t\t\tuint crystal,\n\t\t\t\t\t\t\t\t\t\t\t\t\t\t\t\t\t\t\t\t\t\t\t\t\t\t\t\t\t\t\t\t\tuint quantumDust) {\n\t\treturn (usersResources[_user].gold,\n\t\t\t\t\t\tusersResources[_user].crystal,\n\t\t\t\t\t\tusersResources[_user].quantumDust);\n\t}\n\n\t/*\n   * @title Set initial resources.\n   * @dev Function to set the initial amount of each resource.\n   * @param _gold the initial amount of gold a user will receive. (uint)\n   * @param _crystal the initial amount of crystal a user will receive. (uint)\n   * @param _quantumDust the initial amount of quantumDust a user will. receive (uint)\n   */\n\tfunction setInitialResources(uint _gold,\n\t\t\t\t\t\t\t\t\t\t\t\t\t\t\t uint _crystal,\n\t\t\t\t\t\t\t\t\t\t\t\t\t\t\t uint _quantumDust) external onlyOwner {\n\t if (_gold >= 0 && initialGold != _gold) {\n     initialGold = _gold;\n   }\n\t if (_crystal >= 0 && initialCrystal != _crystal) {\n     initialCrystal = _crystal;\n   }\n\t if (_quantumDust >= 0 && initialQuantumDust != _quantumDust) {\n     initialQuantumDust = _quantumDust;\n   }\n\n\t SetInitialResources(_gold, _crystal, _quantumDust);\n\t}\n\n\t/*\n   * @title Consume user's Gold.\n   * @dev Function to consume an amount of gold from a user. Only callable from BuildingsQueue\n   * @param _user the user that is going to consume the resource. (address)\n   * @param _price the amount of gold to be consumed. (uint)\n   */\n\tfunction consumeGold(address _user, uint _price) external returns (bool) {\n\t\trequire(msg.sender == address(buildingsQueue) || msg.sender == owner);\n\t\tpayoutResources(_user);\n\t\trequire(usersResources[_user].gold >= _price);\n\t\tusersResources[_user].gold = SafeMath.sub(usersResources[_user].gold, _price);\n\n\t\tConsumeGold(_user, _price);\n\n\t\treturn true;\n\t}\n\n\t/*\n   * @title Consume user's Crystal.\n   * @dev Function to consume an amount of crystal from a user. Only callable from BuildingsQueue\n   * @param _user the user that is going to consume the resource. (address)\n   * @param _price the amount of crystal to be consumed. (uint)\n   */\n\tfunction consumeCrystal(address _user, uint _price) external returns (bool) {\n\t\trequire(msg.sender == address(buildingsQueue) || msg.sender == owner);\n\t\tpayoutResources(_user);\n\t\trequire(usersResources[_user].crystal >= _price);\n\t\tusersResources[_user].crystal = SafeMath.sub(usersResources[_user].crystal, _price);\n\n\t\tConsumeCrystal(_user, _price);\n\n\t\treturn true;\n\t}\n\n\t/*\n   * @title Consume user's Quantum Dust.\n   * @dev Function to consume an amount of quantum dust from a user. Only callable from BuildingsQueue\n   * @param _user the user that is going to consume the resource. (address)\n   * @param _price the amount of quantum dust to be consumed. (uint)\n   */\n\tfunction consumeQuantumDust(address _user, uint _price) external returns (bool) {\n\t\trequire(msg.sender == address(buildingsQueue) || msg.sender == owner);\n\t\trequire(usersResources[_user].quantumDust >= _price);\n\t\tusersResources[_user].quantumDust = SafeMath.sub(usersResources[_user].quantumDust, _price);\n\n\t\tConsumeQuantum(_user, _price);\n\n\t\treturn true;\n\t}\n\n\t/*\n   * @title Give Resources To User.\n   * @dev Function give the specified resources to the user. Only callable from Buildings Queue or User Buildings\n\t * @param _user who receives the resources.\n\t * @param _gold the amount of gold.\n\t * @param _crystal the amount of crystal.\n\t * @param _quantumDust the amount of quantum Dust.\n   */\n\tfunction giveResourcesToUser(address _user,\n\t\t\t\t\t\t\t\t\t\t\t\t\t\t\t uint _gold,\n\t\t\t\t\t\t\t\t\t\t\t\t\t\t\t uint _crystal,\n\t\t\t\t\t\t\t\t\t\t\t\t\t\t\t uint _quantumDust) external {\n\t\trequire(msg.sender == owner ||\n\t\t\t\t\t\tmsg.sender == address(buildingsQueue) ||\n\t\t\t\t\t\tmsg.sender == address(userBuildings));\n\n\t\tusersResources[_user].gold += _gold;\n\t\tusersResources[_user].crystal += _crystal;\n\t\tusersResources[_user].quantumDust += _quantumDust;\n\n\t\tGiveResourcesToUser(_user, _gold, _crystal, _quantumDust);\n\t}\n\n\t/*\n   * @title Initialize User Payout Block.\n   * @dev Function to initialize the payout block when creating a new user/village.\n\t * Only callable from User Village contract.\n\t * @param _user The new user.\n   */\n\tfunction initPayoutBlock(address _user) external {\n\t\trequire(msg.sender == address(userVillage) || msg.sender == owner);\n\t\tusersPayoutBlock[_user] = block.number;\n\t}\n\n\t/*\n   * @title Payout Resources.\n   * @dev Function to payout the user the resources generated since previous payout.\n\t * @param _user The user to calculate and receive the payout.\n   */\n\tfunction payoutResources(address _user) public {\n\t  uint256 diff = SafeMath.sub(block.number, usersPayoutBlock[_user]);\n\n\t\tif (diff > 0) {\n\t\t\tuint gold = 0;\n\t\t\tuint crystal = 0;\n\t\t\tuint goldCapacity = 0;\n\t\t\tuint crystalCapacity = 0;\n\n\t\t\t(gold, crystal) = calculateUserResources(_user);\n\n\t\t\t(goldCapacity, crystalCapacity) = calculateUserResourcesCapacity(_user);\n\n\t\t\tif (gold > 0) {\n\t\t\t\tif (goldCapacity <= SafeMath.add(usersResources[_user].gold, gold)) {\n\t\t\t\t\tusersResources[_user].gold = goldCapacity;\n\t\t\t\t}\n\t\t\t\tif (goldCapacity > SafeMath.add(usersResources[_user].gold, gold)) {\n\t\t\t\t\tusersResources[_user].gold = SafeMath.add(\n\t\t\t\t\t\tusersResources[_user].gold, gold\n\t\t\t\t\t);\n\t\t\t\t}\n\t\t\t}\n\n\t\t\tif (crystal > 0) {\n\t\t\t\tif (crystalCapacity <= SafeMath.add(usersResources[_user].crystal, crystal)) {\n\t\t\t\t\tusersResources[_user].crystal = crystalCapacity;\n\t\t\t\t}\n\n\t\t\t\tif (crystalCapacity > SafeMath.add(usersResources[_user].crystal, crystal)) {\n\t\t\t\t\tusersResources[_user].crystal = SafeMath.add(\n\t\t\t\t\t\tusersResources[_user].crystal, crystal\n\t\t\t\t\t);\n\t\t\t\t}\n\t\t\t}\n\n\t\t\tusersPayoutBlock[_user] = block.number;\n\n\t\t\tPayoutResources(gold, crystal);\n\t\t}\n\t}\n\n\t/*\n   * @title Calculate User Resources.\n   * @dev Function to calculate the resources generated in buildings queue and user buildings.\n\t * @param _user The user to calculate the resources.\n   */\n\n\tfunction calculateUserResources(address _user) public view returns (uint userGold, uint userCrystal) {\n\t\tuint256 diff = SafeMath.sub(block.number, usersPayoutBlock[_user]);\n\n\t\tif (diff > 0) {\n\t\t\tuint goldRate = 0;\n\t\t\tuint crystalRate = 0;\n\n\t\t\t(goldRate, crystalRate) = userBuildings.getUserRates(_user);\n\n\t\t\t(userGold, userCrystal) = buildingsQueue.getUserQueueResources(_user);\n\n\t\t\tuserGold = SafeMath.add(userGold, SafeMath.mul(goldRate, diff));\n\t\t\tuserCrystal = SafeMath.add(userCrystal, SafeMath.mul(crystalRate, diff));\n\t\t}\n\n\t\treturn (userGold, userCrystal);\n\t}\n\n\t/*\n   * @title Calculate User Resources.\n   * @dev Function to calculate the resources generated in buildings queue and user buildings.\n\t * @param _user The user to calculate the resources.\n   */\n\n\tfunction calculateUserResourcesCapacity(address _user) public view returns (uint goldCapacity, uint crystalCapacity) {\n\t\tuint queueGoldCapacity = 0;\n\t\tuint queueCyrstalCapacity = 0;\n\n\t\t(goldCapacity, crystalCapacity) = userBuildings.getUserResourcesCapacity(_user);\n\n\t\t(queueGoldCapacity, queueCyrstalCapacity) = buildingsQueue.getUserResourcesCapacity(_user);\n\n\t\tgoldCapacity = SafeMath.add(goldCapacity, queueGoldCapacity);\n\t\tcrystalCapacity = SafeMath.add(crystalCapacity, queueCyrstalCapacity);\n\n\t\treturn (goldCapacity, crystalCapacity);\n\t}\n\n\t/*\n   * @title Get User Payout Block.\n   * @dev Function to get the last payout block number of that user.\n\t * @param _user The user to calculate and receive the payout.\n\t * @return a uint representing the number of the block where the user was paid.\n   */\n\tfunction getUserPayoutBlock(address _user) external view returns (uint) {\n\t\treturn usersPayoutBlock[_user];\n\t}\n\n}\n",
  "sourcePath": "/home/francisco/Truffle/crypto-wars-solidity/contracts/UserResources.sol",
  "compiler": {
    "name": "solc",
    "version": "0.4.19+commit.c4cbbb05.Emscripten.clang"
  },
  "schemaVersion": "2.0.0",
  "updatedAt": "2018-03-22T14:36:23.904Z"
}