{
  "contractName": "UserUnits",
  "abi": [
    {
      "constant": false,
      "inputs": [
        {
          "name": "token",
          "type": "address"
        }
      ],
      "name": "reclaimToken",
      "outputs": [],
      "payable": false,
      "stateMutability": "nonpayable",
      "type": "function"
    },
    {
      "constant": false,
      "inputs": [
        {
          "name": "contractAddr",
          "type": "address"
        }
      ],
      "name": "reclaimContract",
      "outputs": [],
      "payable": false,
      "stateMutability": "nonpayable",
      "type": "function"
    },
    {
      "constant": false,
      "inputs": [
        {
          "name": "_version",
          "type": "uint256"
        }
      ],
      "name": "setVersion",
      "outputs": [],
      "payable": false,
      "stateMutability": "nonpayable",
      "type": "function"
    },
    {
      "constant": true,
      "inputs": [],
      "name": "version",
      "outputs": [
        {
          "name": "",
          "type": "uint256"
        }
      ],
      "payable": false,
      "stateMutability": "view",
      "type": "function"
    },
    {
      "constant": true,
      "inputs": [],
      "name": "owner",
      "outputs": [
        {
          "name": "",
          "type": "address"
        }
      ],
      "payable": false,
      "stateMutability": "view",
      "type": "function"
    },
    {
      "constant": false,
      "inputs": [],
      "name": "reclaimEther",
      "outputs": [],
      "payable": false,
      "stateMutability": "nonpayable",
      "type": "function"
    },
    {
      "constant": true,
      "inputs": [
        {
          "name": "",
          "type": "address"
        }
      ],
      "name": "migratedUsers",
      "outputs": [
        {
          "name": "",
          "type": "bool"
        }
      ],
      "payable": false,
      "stateMutability": "view",
      "type": "function"
    },
    {
      "constant": false,
      "inputs": [
        {
          "name": "from_",
          "type": "address"
        },
        {
          "name": "value_",
          "type": "uint256"
        },
        {
          "name": "data_",
          "type": "bytes"
        }
      ],
      "name": "tokenFallback",
      "outputs": [],
      "payable": false,
      "stateMutability": "nonpayable",
      "type": "function"
    },
    {
      "constant": false,
      "inputs": [
        {
          "name": "_newContract",
          "type": "address"
        }
      ],
      "name": "migrateUser",
      "outputs": [],
      "payable": false,
      "stateMutability": "nonpayable",
      "type": "function"
    },
    {
      "constant": false,
      "inputs": [
        {
          "name": "newOwner",
          "type": "address"
        }
      ],
      "name": "transferOwnership",
      "outputs": [],
      "payable": false,
      "stateMutability": "nonpayable",
      "type": "function"
    },
    {
      "inputs": [],
      "payable": false,
      "stateMutability": "nonpayable",
      "type": "constructor"
    },
    {
      "payable": false,
      "stateMutability": "nonpayable",
      "type": "fallback"
    },
    {
      "anonymous": false,
      "inputs": [
        {
          "indexed": false,
          "name": "user",
          "type": "address"
        },
        {
          "indexed": false,
          "name": "ids",
          "type": "uint256[]"
        },
        {
          "indexed": false,
          "name": "quantity",
          "type": "uint256[]"
        }
      ],
      "name": "AddUserUnits",
      "type": "event"
    },
    {
      "anonymous": false,
      "inputs": [
        {
          "indexed": false,
          "name": "user",
          "type": "address"
        },
        {
          "indexed": false,
          "name": "ids",
          "type": "uint256[]"
        },
        {
          "indexed": false,
          "name": "quantity",
          "type": "uint256[]"
        }
      ],
      "name": "RemoveUserUnits",
      "type": "event"
    },
    {
      "anonymous": false,
      "inputs": [
        {
          "indexed": false,
          "name": "user",
          "type": "address"
        },
        {
          "indexed": false,
          "name": "to",
          "type": "address"
        },
        {
          "indexed": false,
          "name": "ids",
          "type": "uint256[]"
        },
        {
          "indexed": false,
          "name": "quantity",
          "type": "uint256[]"
        }
      ],
      "name": "TransferUserUnits",
      "type": "event"
    },
    {
      "anonymous": false,
      "inputs": [
        {
          "indexed": true,
          "name": "user",
          "type": "address"
        },
        {
          "indexed": true,
          "name": "newContract",
          "type": "address"
        }
      ],
      "name": "UserMigrated",
      "type": "event"
    },
    {
      "anonymous": false,
      "inputs": [
        {
          "indexed": true,
          "name": "previousOwner",
          "type": "address"
        },
        {
          "indexed": true,
          "name": "newOwner",
          "type": "address"
        }
      ],
      "name": "OwnershipTransferred",
      "type": "event"
    },
    {
      "constant": true,
      "inputs": [],
      "name": "isUserUnits",
      "outputs": [
        {
          "name": "",
          "type": "bool"
        }
      ],
      "payable": false,
      "stateMutability": "pure",
      "type": "function"
    },
    {
      "constant": false,
      "inputs": [
        {
          "name": "_previousUserUnits",
          "type": "address"
        },
        {
          "name": "_version",
          "type": "uint256"
        }
      ],
      "name": "setUserUnitsVersion",
      "outputs": [],
      "payable": false,
      "stateMutability": "nonpayable",
      "type": "function"
    },
    {
      "constant": false,
      "inputs": [
        {
          "name": "_unitsData",
          "type": "address"
        }
      ],
      "name": "setUnitsData",
      "outputs": [],
      "payable": false,
      "stateMutability": "nonpayable",
      "type": "function"
    },
    {
      "constant": false,
      "inputs": [
        {
          "name": "_unitsQueue",
          "type": "address"
        }
      ],
      "name": "setUnitsQueue",
      "outputs": [],
      "payable": false,
      "stateMutability": "nonpayable",
      "type": "function"
    },
    {
      "constant": false,
      "inputs": [
        {
          "name": "_user",
          "type": "address"
        },
        {
          "name": "_ids",
          "type": "uint256[]"
        },
        {
          "name": "_quantity",
          "type": "uint256[]"
        }
      ],
      "name": "addUserUnits",
      "outputs": [
        {
          "name": "",
          "type": "bool"
        }
      ],
      "payable": false,
      "stateMutability": "nonpayable",
      "type": "function"
    },
    {
      "constant": false,
      "inputs": [
        {
          "name": "_user",
          "type": "address"
        },
        {
          "name": "_ids",
          "type": "uint256[]"
        },
        {
          "name": "_quantity",
          "type": "uint256[]"
        }
      ],
      "name": "removeUserUnits",
      "outputs": [
        {
          "name": "",
          "type": "bool"
        }
      ],
      "payable": false,
      "stateMutability": "nonpayable",
      "type": "function"
    },
    {
      "constant": true,
      "inputs": [
        {
          "name": "_user",
          "type": "address"
        }
      ],
      "name": "getBattleStats",
      "outputs": [
        {
          "name": "totalHealthStat",
          "type": "uint256"
        },
        {
          "name": "totalDefenseStat",
          "type": "uint256"
        },
        {
          "name": "totalAttackStat",
          "type": "uint256"
        }
      ],
      "payable": false,
      "stateMutability": "view",
      "type": "function"
    },
    {
      "constant": false,
      "inputs": [
        {
          "name": "_to",
          "type": "address"
        },
        {
          "name": "_ids",
          "type": "uint256[]"
        },
        {
          "name": "_quantity",
          "type": "uint256[]"
        }
      ],
      "name": "transferUserUnits",
      "outputs": [
        {
          "name": "",
          "type": "bool"
        }
      ],
      "payable": false,
      "stateMutability": "nonpayable",
      "type": "function"
    },
    {
      "constant": true,
      "inputs": [
        {
          "name": "_user",
          "type": "address"
        },
        {
          "name": "_id",
          "type": "uint256"
        }
      ],
      "name": "getUserUnitQuantity",
      "outputs": [
        {
          "name": "unitAmount",
          "type": "uint256"
        }
      ],
      "payable": false,
      "stateMutability": "view",
      "type": "function"
    },
    {
      "constant": true,
      "inputs": [
        {
          "name": "_user",
          "type": "address"
        }
      ],
      "name": "getUserUnitsIds",
      "outputs": [
        {
          "name": "",
          "type": "uint256[]"
        }
      ],
      "payable": false,
      "stateMutability": "view",
      "type": "function"
    }
  ],
  "bytecode": "0x608060405234801561001057600080fd5b50336000806101000a81548173ffffffffffffffffffffffffffffffffffffffff021916908373ffffffffffffffffffffffffffffffffffffffff16021790555060003414151561006057600080fd5b612a2b8061006f6000396000f300608060405260043610610112576000357c0100000000000000000000000000000000000000000000000000000000900463ffffffff1680630a99dfce1461012157806317ffc320146101ac57806329378294146101ef5780632aed7f3f1461023c578063398afc681461027f578063408def1e146102e457806354fd4d50146103115780638da5cb5b1461033c578063958e918b146103935780639f727c271461042b578063b20dbfac14610442578063bbe768a414610485578063c0ee0b8a146104e0578063ce5a77c914610545578063cfad879e14610588578063dd6c7e31146105b7578063e18b2e15146105fa578063f1001b561461065b578063f2fde38b146106e6578063fb9a400214610729575b34801561011e57600080fd5b50005b34801561012d57600080fd5b50610192600480360381019080803573ffffffffffffffffffffffffffffffffffffffff1690602001909291908035906020019082018035906020019190919293919293908035906020019082018035906020019190919293919293905050506107b4565b604051808215151515815260200191505060405180910390f35b3480156101b857600080fd5b506101ed600480360381019080803573ffffffffffffffffffffffffffffffffffffffff169060200190929190505050610b3a565b005b3480156101fb57600080fd5b5061023a600480360381019080803573ffffffffffffffffffffffffffffffffffffffff16906020019092919080359060200190929190505050610cbf565b005b34801561024857600080fd5b5061027d600480360381019080803573ffffffffffffffffffffffffffffffffffffffff169060200190929190505050610ebe565b005b34801561028b57600080fd5b506102c0600480360381019080803573ffffffffffffffffffffffffffffffffffffffff169060200190929190505050610ff6565b60405180848152602001838152602001828152602001935050505060405180910390f35b3480156102f057600080fd5b5061030f6004803603810190808035906020019092919050505061154d565b005b34801561031d57600080fd5b506103266115b2565b6040518082815260200191505060405180910390f35b34801561034857600080fd5b506103516115b8565b604051808273ffffffffffffffffffffffffffffffffffffffff1673ffffffffffffffffffffffffffffffffffffffff16815260200191505060405180910390f35b34801561039f57600080fd5b506103d4600480360381019080803573ffffffffffffffffffffffffffffffffffffffff1690602001909291905050506115dd565b6040518080602001828103825283818151815260200191508051906020019060200280838360005b838110156104175780820151818401526020810190506103fc565b505050509050019250505060405180910390f35b34801561043757600080fd5b5061044061196b565b005b34801561044e57600080fd5b50610483600480360381019080803573ffffffffffffffffffffffffffffffffffffffff169060200190929190505050611a3d565b005b34801561049157600080fd5b506104c6600480360381019080803573ffffffffffffffffffffffffffffffffffffffff169060200190929190505050611b86565b604051808215151515815260200191505060405180910390f35b3480156104ec57600080fd5b50610543600480360381019080803573ffffffffffffffffffffffffffffffffffffffff16906020019092919080359060200190929190803590602001908201803590602001919091929391929390505050611ba6565b005b34801561055157600080fd5b50610586600480360381019080803573ffffffffffffffffffffffffffffffffffffffff169060200190929190505050611bab565b005b34801561059457600080fd5b5061059d611cf4565b604051808215151515815260200191505060405180910390f35b3480156105c357600080fd5b506105f8600480360381019080803573ffffffffffffffffffffffffffffffffffffffff169060200190929190505050611cfd565b005b34801561060657600080fd5b50610645600480360381019080803573ffffffffffffffffffffffffffffffffffffffff16906020019092919080359060200190929190505050611ec0565b6040518082815260200191505060405180910390f35b34801561066757600080fd5b506106cc600480360381019080803573ffffffffffffffffffffffffffffffffffffffff169060200190929190803590602001908201803590602001919091929391929390803590602001908201803590602001919091929391929390505050611f1b565b604051808215151515815260200191505060405180910390f35b3480156106f257600080fd5b50610727600480360381019080803573ffffffffffffffffffffffffffffffffffffffff169060200190929190505050612425565b005b34801561073557600080fd5b5061079a600480360381019080803573ffffffffffffffffffffffffffffffffffffffff16906020019092919080359060200190820180359060200191909192939192939080359060200190820180359060200191909192939192939050505061257a565b604051808215151515815260200191505060405180910390f35b6000806000600560009054906101000a900473ffffffffffffffffffffffffffffffffffffffff1673ffffffffffffffffffffffffffffffffffffffff163373ffffffffffffffffffffffffffffffffffffffff16148061086157506000809054906101000a900473ffffffffffffffffffffffffffffffffffffffff1673ffffffffffffffffffffffffffffffffffffffff163373ffffffffffffffffffffffffffffffffffffffff16145b151561086c57600080fd5b848490508787905014151561088057600080fd5b868690509150600090505b81811015610a7e57600460009054906101000a900473ffffffffffffffffffffffffffffffffffffffff1673ffffffffffffffffffffffffffffffffffffffff16639d4f9e3388888481811015156108df57fe5b905060200201356040518263ffffffff167c010000000000000000000000000000000000000000000000000000000002815260040180828152602001915050602060405180830381600087803b15801561093857600080fd5b505af115801561094c573d6000803e3d6000fd5b505050506040513d602081101561096257600080fd5b8101908080519060200190929190505050151561097e57600080fd5b610a09858583818110151561098f57fe5b90506020020135600360008b73ffffffffffffffffffffffffffffffffffffffff1673ffffffffffffffffffffffffffffffffffffffff16815260200190815260200160002060008a8a8681811015156109e557fe5b905060200201358152602001908152602001600020546128a290919063ffffffff16565b600360008a73ffffffffffffffffffffffffffffffffffffffff1673ffffffffffffffffffffffffffffffffffffffff16815260200190815260200160002060008989858181101515610a5857fe5b90506020020135815260200190815260200160002081905550808060010191505061088b565b7fc635c89b43f0fa4cf17048eafd8d18fed7488c35bc88cbd5fe2cd4730bda5dd38888888888604051808673ffffffffffffffffffffffffffffffffffffffff1673ffffffffffffffffffffffffffffffffffffffff1681526020018060200180602001838103835287878281815260200192506020028082843782019150508381038252858582818152602001925060200280828437820191505097505050505050505060405180910390a160019250505095945050505050565b60008060009054906101000a900473ffffffffffffffffffffffffffffffffffffffff1673ffffffffffffffffffffffffffffffffffffffff163373ffffffffffffffffffffffffffffffffffffffff16141515610b9757600080fd5b8173ffffffffffffffffffffffffffffffffffffffff166370a08231306040518263ffffffff167c0100000000000000000000000000000000000000000000000000000000028152600401808273ffffffffffffffffffffffffffffffffffffffff1673ffffffffffffffffffffffffffffffffffffffff168152602001915050602060405180830381600087803b158015610c3257600080fd5b505af1158015610c46573d6000803e3d6000fd5b505050506040513d6020811015610c5c57600080fd5b81019080805190602001909291905050509050610cbb6000809054906101000a900473ffffffffffffffffffffffffffffffffffffffff16828473ffffffffffffffffffffffffffffffffffffffff166128c09092919063ffffffff16565b5050565b6000809054906101000a900473ffffffffffffffffffffffffffffffffffffffff1673ffffffffffffffffffffffffffffffffffffffff163373ffffffffffffffffffffffffffffffffffffffff16141515610d1a57600080fd5b8173ffffffffffffffffffffffffffffffffffffffff1663cfad879e6040518163ffffffff167c0100000000000000000000000000000000000000000000000000000000028152600401602060405180830381600087803b158015610d7e57600080fd5b505af1158015610d92573d6000803e3d6000fd5b505050506040513d6020811015610da857600080fd5b81019080805190602001909291905050501515610dc457600080fd5b8173ffffffffffffffffffffffffffffffffffffffff166354fd4d506040518163ffffffff167c0100000000000000000000000000000000000000000000000000000000028152600401602060405180830381600087803b158015610e2857600080fd5b505af1158015610e3c573d6000803e3d6000fd5b505050506040513d6020811015610e5257600080fd5b810190808051906020019092919050505081111515610e7057600080fd5b81600660006101000a81548173ffffffffffffffffffffffffffffffffffffffff021916908373ffffffffffffffffffffffffffffffffffffffff160217905550610eba8161154d565b5050565b60008060009054906101000a900473ffffffffffffffffffffffffffffffffffffffff1673ffffffffffffffffffffffffffffffffffffffff163373ffffffffffffffffffffffffffffffffffffffff16141515610f1b57600080fd5b8190508073ffffffffffffffffffffffffffffffffffffffff1663f2fde38b6000809054906101000a900473ffffffffffffffffffffffffffffffffffffffff166040518263ffffffff167c0100000000000000000000000000000000000000000000000000000000028152600401808273ffffffffffffffffffffffffffffffffffffffff1673ffffffffffffffffffffffffffffffffffffffff168152602001915050600060405180830381600087803b158015610fda57600080fd5b505af1158015610fee573d6000803e3d6000fd5b505050505050565b600080600080600080600060606000600460009054906101000a900473ffffffffffffffffffffffffffffffffffffffff1673ffffffffffffffffffffffffffffffffffffffff1663399cc1156040518163ffffffff167c0100000000000000000000000000000000000000000000000000000000028152600401602060405180830381600087803b15801561108b57600080fd5b505af115801561109f573d6000803e3d6000fd5b505050506040513d60208110156110b557600080fd5b81019080805190602001909291905050509250826040519080825280602002602001820160405280156110f75781602001602082028038833980820191505090505b509150600090505b828110156111fc57600460009054906101000a900473ffffffffffffffffffffffffffffffffffffffff1673ffffffffffffffffffffffffffffffffffffffff1663ddfd538c826040518263ffffffff167c010000000000000000000000000000000000000000000000000000000002815260040180828152602001915050602060405180830381600087803b15801561119857600080fd5b505af11580156111ac573d6000803e3d6000fd5b505050506040513d60208110156111c257600080fd5b810190808051906020019092919050505082828151811015156111e157fe5b906020019060200201818152505080806001019150506110ff565b600090505b82811015611537576000600360008c73ffffffffffffffffffffffffffffffffffffffff1673ffffffffffffffffffffffffffffffffffffffff1681526020019081526020016000206000848481518110151561125a57fe5b90602001906020020151815260200190815260200160002054111561152a57600460009054906101000a900473ffffffffffffffffffffffffffffffffffffffff1673ffffffffffffffffffffffffffffffffffffffff16638a063b6383838151811015156112c557fe5b906020019060200201516040518263ffffffff167c010000000000000000000000000000000000000000000000000000000002815260040180828152602001915050606060405180830381600087803b15801561132157600080fd5b505af1158015611335573d6000803e3d6000fd5b505050506040513d606081101561134b57600080fd5b81019080805190602001909291908051906020019092919080519060200190929190505050809650819750829850505050600086111561140b576114088961140388600360008f73ffffffffffffffffffffffffffffffffffffffff1673ffffffffffffffffffffffffffffffffffffffff168152602001908152602001600020600087878151811015156113dc57fe5b906020019060200201518152602001908152602001600020546129ab90919063ffffffff16565b6128a2565b98505b600085111561149a576114978861149287600360008f73ffffffffffffffffffffffffffffffffffffffff1673ffffffffffffffffffffffffffffffffffffffff1681526020019081526020016000206000878781518110151561146b57fe5b906020019060200201518152602001908152602001600020546129ab90919063ffffffff16565b6128a2565b97505b6000841115611529576115268761152186600360008f73ffffffffffffffffffffffffffffffffffffffff1673ffffffffffffffffffffffffffffffffffffffff168152602001908152602001600020600087878151811015156114fa57fe5b906020019060200201518152602001908152602001600020546129ab90919063ffffffff16565b6128a2565b96505b5b8080600101915050611201565b8888889850985098505050505050509193909250565b6000809054906101000a900473ffffffffffffffffffffffffffffffffffffffff1673ffffffffffffffffffffffffffffffffffffffff163373ffffffffffffffffffffffffffffffffffffffff161415156115a857600080fd5b8060018190555050565b60015481565b6000809054906101000a900473ffffffffffffffffffffffffffffffffffffffff1681565b606060006060806000806060600460009054906101000a900473ffffffffffffffffffffffffffffffffffffffff1673ffffffffffffffffffffffffffffffffffffffff1663399cc1156040518163ffffffff167c0100000000000000000000000000000000000000000000000000000000028152600401602060405180830381600087803b15801561166f57600080fd5b505af1158015611683573d6000803e3d6000fd5b505050506040513d602081101561169957600080fd5b81019080805190602001909291905050509550856040519080825280602002602001820160405280156116db5781602001602082028038833980820191505090505b5094508560405190808252806020026020018201604052801561170d5781602001602082028038833980820191505090505b509350600092505b8583101561181257600460009054906101000a900473ffffffffffffffffffffffffffffffffffffffff1673ffffffffffffffffffffffffffffffffffffffff1663ddfd538c846040518263ffffffff167c010000000000000000000000000000000000000000000000000000000002815260040180828152602001915050602060405180830381600087803b1580156117ae57600080fd5b505af11580156117c2573d6000803e3d6000fd5b505050506040513d60208110156117d857600080fd5b810190808051906020019092919050505084848151811015156117f757fe5b90602001906020020181815250508280600101935050611715565b60009150600092505b858310156118dd576000600360008a73ffffffffffffffffffffffffffffffffffffffff1673ffffffffffffffffffffffffffffffffffffffff1681526020019081526020016000206000868681518110151561187457fe5b9060200190602002015181526020019081526020016000205411156118d05783838151811015156118a157fe5b9060200190602002015185838151811015156118b957fe5b906020019060200201818152505081806001019250505b828060010193505061181b565b8160405190808252806020026020018201604052801561190c5781602001602082028038833980820191505090505b509050600092505b8183101561195d57848381518110151561192a57fe5b90602001906020020151818481518110151561194257fe5b90602001906020020181815250508280600101935050611914565b809650505050505050919050565b6000809054906101000a900473ffffffffffffffffffffffffffffffffffffffff1673ffffffffffffffffffffffffffffffffffffffff163373ffffffffffffffffffffffffffffffffffffffff161415156119c657600080fd5b6000809054906101000a900473ffffffffffffffffffffffffffffffffffffffff1673ffffffffffffffffffffffffffffffffffffffff166108fc3073ffffffffffffffffffffffffffffffffffffffff16319081150290604051600060405180830381858888f193505050501515611a3b57fe5b565b6000809054906101000a900473ffffffffffffffffffffffffffffffffffffffff1673ffffffffffffffffffffffffffffffffffffffff163373ffffffffffffffffffffffffffffffffffffffff16141515611a9857600080fd5b8073ffffffffffffffffffffffffffffffffffffffff16632e44f1976040518163ffffffff167c0100000000000000000000000000000000000000000000000000000000028152600401602060405180830381600087803b158015611afc57600080fd5b505af1158015611b10573d6000803e3d6000fd5b505050506040513d6020811015611b2657600080fd5b81019080805190602001909291905050501515611b4257600080fd5b80600460006101000a81548173ffffffffffffffffffffffffffffffffffffffff021916908373ffffffffffffffffffffffffffffffffffffffff16021790555050565b60026020528060005260406000206000915054906101000a900460ff1681565b600080fd5b6000809054906101000a900473ffffffffffffffffffffffffffffffffffffffff1673ffffffffffffffffffffffffffffffffffffffff163373ffffffffffffffffffffffffffffffffffffffff16141515611c0657600080fd5b8073ffffffffffffffffffffffffffffffffffffffff166341002a476040518163ffffffff167c0100000000000000000000000000000000000000000000000000000000028152600401602060405180830381600087803b158015611c6a57600080fd5b505af1158015611c7e573d6000803e3d6000fd5b505050506040513d6020811015611c9457600080fd5b81019080805190602001909291905050501515611cb057600080fd5b80600560006101000a81548173ffffffffffffffffffffffffffffffffffffffff021916908373ffffffffffffffffffffffffffffffffffffffff16021790555050565b60006001905090565b60011515600260003373ffffffffffffffffffffffffffffffffffffffff1673ffffffffffffffffffffffffffffffffffffffff16815260200190815260200160002060009054906101000a900460ff16151514151515611d5d57600080fd5b6001548173ffffffffffffffffffffffffffffffffffffffff166354fd4d506040518163ffffffff167c0100000000000000000000000000000000000000000000000000000000028152600401602060405180830381600087803b158015611dc457600080fd5b505af1158015611dd8573d6000803e3d6000fd5b505050506040513d6020811015611dee57600080fd5b8101908080519060200190929190505050111515611e0b57600080fd5b6001600260003373ffffffffffffffffffffffffffffffffffffffff1673ffffffffffffffffffffffffffffffffffffffff16815260200190815260200160002060006101000a81548160ff0219169083151502179055508073ffffffffffffffffffffffffffffffffffffffff163373ffffffffffffffffffffffffffffffffffffffff167fc123aa2e5c63456c59a4694ac50ba610152278a01162f3d5e3a6ffc457bc586e60405160405180910390a350565b6000600360008473ffffffffffffffffffffffffffffffffffffffff1673ffffffffffffffffffffffffffffffffffffffff168152602001908152602001600020600083815260200190815260200160002054905092915050565b60008060003373ffffffffffffffffffffffffffffffffffffffff168873ffffffffffffffffffffffffffffffffffffffff1614151515611f5b57600080fd5b8484905087879050141515611f6f57600080fd5b600560009054906101000a900473ffffffffffffffffffffffffffffffffffffffff1673ffffffffffffffffffffffffffffffffffffffff1663c3251e55336040518263ffffffff167c0100000000000000000000000000000000000000000000000000000000028152600401808273ffffffffffffffffffffffffffffffffffffffff1673ffffffffffffffffffffffffffffffffffffffff168152602001915050600060405180830381600087803b15801561202c57600080fd5b505af1158015612040573d6000803e3d6000fd5b50505050868690509150600090505b8181101561233557600460009054906101000a900473ffffffffffffffffffffffffffffffffffffffff1673ffffffffffffffffffffffffffffffffffffffff16639d4f9e3388888481811015156120a357fe5b905060200201356040518263ffffffff167c010000000000000000000000000000000000000000000000000000000002815260040180828152602001915050602060405180830381600087803b1580156120fc57600080fd5b505af1158015612110573d6000803e3d6000fd5b505050506040513d602081101561212657600080fd5b8101908080519060200190929190505050151561214257600080fd5b6121cd858583818110151561215357fe5b90506020020135600360003373ffffffffffffffffffffffffffffffffffffffff1673ffffffffffffffffffffffffffffffffffffffff16815260200190815260200160002060008a8a8681811015156121a957fe5b905060200201358152602001908152602001600020546129e690919063ffffffff16565b600360003373ffffffffffffffffffffffffffffffffffffffff1673ffffffffffffffffffffffffffffffffffffffff1681526020019081526020016000206000898985818110151561221c57fe5b905060200201358152602001908152602001600020819055506122c0858583818110151561224657fe5b90506020020135600360008b73ffffffffffffffffffffffffffffffffffffffff1673ffffffffffffffffffffffffffffffffffffffff16815260200190815260200160002060008a8a86818110151561229c57fe5b905060200201358152602001908152602001600020546128a290919063ffffffff16565b600360008a73ffffffffffffffffffffffffffffffffffffffff1673ffffffffffffffffffffffffffffffffffffffff1681526020019081526020016000206000898985818110151561230f57fe5b90506020020135815260200190815260200160002081905550808060010191505061204f565b7f3b4362c36d89a1364ab2a1f64e44a5dc6c0e5f86b9ce8b660bc961c7d1fd9f71338989898989604051808773ffffffffffffffffffffffffffffffffffffffff1673ffffffffffffffffffffffffffffffffffffffff1681526020018673ffffffffffffffffffffffffffffffffffffffff1673ffffffffffffffffffffffffffffffffffffffff168152602001806020018060200183810383528787828181526020019250602002808284378201915050838103825285858281815260200192506020028082843782019150509850505050505050505060405180910390a160019250505095945050505050565b6000809054906101000a900473ffffffffffffffffffffffffffffffffffffffff1673ffffffffffffffffffffffffffffffffffffffff163373ffffffffffffffffffffffffffffffffffffffff1614151561248057600080fd5b600073ffffffffffffffffffffffffffffffffffffffff168173ffffffffffffffffffffffffffffffffffffffff16141515156124bc57600080fd5b8073ffffffffffffffffffffffffffffffffffffffff166000809054906101000a900473ffffffffffffffffffffffffffffffffffffffff1673ffffffffffffffffffffffffffffffffffffffff167f8be0079c531659141344cd1fd0a4f28419497f9722a3daafe3b4186f6b6457e060405160405180910390a3806000806101000a81548173ffffffffffffffffffffffffffffffffffffffff021916908373ffffffffffffffffffffffffffffffffffffffff16021790555050565b6000806000809054906101000a900473ffffffffffffffffffffffffffffffffffffffff1673ffffffffffffffffffffffffffffffffffffffff163373ffffffffffffffffffffffffffffffffffffffff161415156125d857600080fd5b83839050868690501415156125ec57600080fd5b600090505b858590508110156127e757600460009054906101000a900473ffffffffffffffffffffffffffffffffffffffff1673ffffffffffffffffffffffffffffffffffffffff16639d4f9e33878784818110151561264857fe5b905060200201356040518263ffffffff167c010000000000000000000000000000000000000000000000000000000002815260040180828152602001915050602060405180830381600087803b1580156126a157600080fd5b505af11580156126b5573d6000803e3d6000fd5b505050506040513d60208110156126cb57600080fd5b810190808051906020019092919050505015156126e757600080fd5b61277284848381811015156126f857fe5b90506020020135600360008a73ffffffffffffffffffffffffffffffffffffffff1673ffffffffffffffffffffffffffffffffffffffff1681526020019081526020016000206000898986818110151561274e57fe5b905060200201358152602001908152602001600020546129e690919063ffffffff16565b600360008973ffffffffffffffffffffffffffffffffffffffff1673ffffffffffffffffffffffffffffffffffffffff168152602001908152602001600020600088888581811015156127c157fe5b9050602002013581526020019081526020016000208190555080806001019150506125f1565b7faf8e9f2ee9ec0904113be024bbec03c1a4367c950bc5291cee59d2c771293f0a8787878787604051808673ffffffffffffffffffffffffffffffffffffffff1673ffffffffffffffffffffffffffffffffffffffff1681526020018060200180602001838103835287878281815260200192506020028082843782019150508381038252858582818152602001925060200280828437820191505097505050505050505060405180910390a1600191505095945050505050565b60008082840190508381101515156128b657fe5b8091505092915050565b8273ffffffffffffffffffffffffffffffffffffffff1663a9059cbb83836040518363ffffffff167c0100000000000000000000000000000000000000000000000000000000028152600401808373ffffffffffffffffffffffffffffffffffffffff1673ffffffffffffffffffffffffffffffffffffffff16815260200182815260200192505050602060405180830381600087803b15801561296357600080fd5b505af1158015612977573d6000803e3d6000fd5b505050506040513d602081101561298d57600080fd5b810190808051906020019092919050505015156129a657fe5b505050565b60008060008414156129c057600091506129df565b82840290508284828115156129d157fe5b041415156129db57fe5b8091505b5092915050565b60008282111515156129f457fe5b8183039050929150505600a165627a7a723058208c5f7559f6f270828ccbfb221b005f5f351dde6a71a122d967eeb3c6172b6d110029",
  "source": "pragma solidity ^0.4.23;\n\nimport 'zeppelin-solidity/contracts/math/SafeMath.sol';\nimport 'zeppelin-solidity/contracts/ownership/NoOwner.sol';\nimport './UnitsData.sol';\nimport './UnitsQueue.sol';\nimport './Versioned.sol';\n\n/**\n * @title UserUnits (WIP)\n * @notice This contract sets which units belongs to which user.\n * @dev Keeps track of users units.\n * Additional functionality might be added to ...\n * @dev Issue: * https://github.com/e11-io/crypto-wars-solidity/issues/\n */\n\ncontract UserUnits is NoOwner, Versioned {\n  using SafeMath for uint;\n\n  /**\n   * event for adding multiple units to a user\n   * @param user the address of the user to add the units\n   * @param ids the IDs of the units to be added\n   * @param quantity the quantity of the units to be added\n   */\n  event AddUserUnits(address user, uint[] ids, uint[] quantity);\n\n  /**\n   * event for removing units to a user\n   * @param user the address of the user to remove the units\n   * @param ids the IDs of the units to be removed\n   * @param quantity the quantity of the units to be removed\n   */\n  event RemoveUserUnits(address user, uint[] ids, uint[] quantity);\n\n  /**\n  * event for transfering multiple units to a user\n  * @param user the address of the user to add the units\n  * @param to the address of the user to add the units\n  * @param ids the IDs of the units to be added\n  * @param quantity the quantity of the units to be transfered\n  */\n  event TransferUserUnits(address user, address to, uint[] ids, uint[] quantity);\n\n  // Mapping of user -> (units ids -> unit quantity) (keeps track of owned units and it's quantity)\n  mapping (address => mapping(uint => uint)) userUnits;\n\n  UnitsData unitsData;\n  UnitsQueue unitsQueue;\n  UserUnits previousUserUnits;\n\n  /**\n   * @notice Constructor: Instantiate User Units contract.\n   * @dev Constructor function to provide User Units address and instantiate it.\n   */\n  constructor() public {\n  }\n\n  /**\n   * @notice Makes the contract type verifiable.\n   * @dev Function to prove the contract is User Units.\n   */\n  function isUserUnits() external pure returns (bool) {\n    return true;\n  }\n\n  /**\n   * @notice Sets the contract's version and instantiates the previous version contract.\n   * @dev Function to set the contract version and instantiate the previous User Units.\n   * @param _previousUserUnits the address of previous User Units contract. (address)\n   * @param _version the current contract version number. (uint)\n   */\n  function setUserUnitsVersion(UserUnits _previousUserUnits, uint _version) external onlyOwner {\n    require(_previousUserUnits.isUserUnits());\n    require(_version > _previousUserUnits.version());\n    previousUserUnits = _previousUserUnits;\n    setVersion(_version);\n  }\n\n  /**\n   * @notice Instantiate Units Data contract.\n   * @dev Function to provide Units Data address and instantiate it.\n   * @param _unitsData the address of Units Data contract. (address)\n   */\n  function setUnitsData(UnitsData _unitsData) external onlyOwner {\n    require(_unitsData.isUnitsData());\n    unitsData = _unitsData;\n  }\n\n  /**\n   * @notice Instantiate Units Queue contract.\n   * @dev Function to provide Units Queue address and instantiate it.\n   * @param _unitsQueue the address of Units Queue contract. (address)\n   */\n  function setUnitsQueue(UnitsQueue _unitsQueue) external onlyOwner {\n    require(_unitsQueue.isUnitsQueue());\n    unitsQueue = _unitsQueue;\n  }\n\n  /*\n   * @title Add User Units\n   * @dev Function to add multiple units to a user\n   * @params _user the address of the user to add unit. (address)\n   * @param _ids An array of IDs of the units to add. (uint)\n   * @param _quantity An array of quantity of units to add. (uint)\n   * @return A boolean that indicates if the operation was successful.\n   */\n  function addUserUnits(address _user, uint[] _ids, uint[] _quantity) external returns (bool) {\n    require(msg.sender == address(unitsQueue) || msg.sender == owner);\n\n    require(_ids.length == _quantity.length);\n\n    uint length = _ids.length;\n\n    for (uint i = 0; i < length; i++) {\n      require(unitsData.checkUnitExist(_ids[i]));\n      userUnits[_user][_ids[i]] = userUnits[_user][_ids[i]].add(_quantity[i]);\n    }\n\n    emit AddUserUnits(_user, _ids, _quantity);\n\n    return true;\n  }\n\n  /*\n   * @title Remove User Units\n   * @dev Function to remove multiple user units.\n   * @param _user the address of the user to remove the units from\n   * @param _ids the ids of the unit to be removed\n   * @param _quantity the quantity of the unit to be removed\n   * @return A boolean that indicates if the operation was successful.\n   */\n  function removeUserUnits(address _user, uint[] _ids, uint[] _quantity) external returns (bool) {\n    /*TODO can be called from the Battle Contract too*/\n    require(msg.sender == owner);\n    require(_ids.length == _quantity.length);\n\n    for (uint i = 0; i < _ids.length; i++) {\n      require(unitsData.checkUnitExist(_ids[i]));\n      userUnits[_user][_ids[i]] = userUnits[_user][_ids[i]].sub(_quantity[i]);\n    }\n\n    emit RemoveUserUnits(_user, _ids, _quantity);\n\n    return true;\n  }\n\n\n  /*\n   * @title Get User Battle Rates\n   * @dev Function to iterate through the user units and calculate the battle rate.\n   * @param _user The address of the user to get the battle rates of. (address)\n   * @return Three uints indicating the amount of health, defense and attack.\n   */\n  function getBattleStats(address _user) external view returns (uint totalHealthStat,\n                                                                uint totalDefenseStat,\n                                                                uint totalAttackStat) {\n    uint healthRate;\n    uint defenseRate;\n    uint attackRate;\n\n    uint unitsLength = unitsData.getUnitIdsLength();\n    uint[] memory allUnitsIds = new uint[](unitsLength);\n    for (uint i = 0; i < unitsLength; i++) {\n      allUnitsIds[i] = unitsData.unitIds(i);\n    }\n\n\t\tfor (i = 0; i < unitsLength; i++) {\n      if (userUnits[_user][allUnitsIds[i]] > 0) {\n        (healthRate, defenseRate, attackRate) = unitsData.getBattleRates(allUnitsIds[i]);\n        if (healthRate > 0) {\n          totalHealthStat = SafeMath.add(\n            totalHealthStat,\n            userUnits[_user][allUnitsIds[i]].mul(healthRate)\n          );\n        }\n        if (defenseRate > 0) {\n          totalDefenseStat = SafeMath.add(\n            totalDefenseStat,\n            userUnits[_user][allUnitsIds[i]].mul(defenseRate)\n          );\n        }\n        if (attackRate > 0) {\n          totalAttackStat = SafeMath.add(\n            totalAttackStat,\n            userUnits[_user][allUnitsIds[i]].mul(attackRate)\n          );\n        }\n      }\n    }\n\n    return (totalHealthStat, totalDefenseStat, totalAttackStat);\n\t}\n\n  /*\n   * @title Transfer User Units\n   * @dev Function to transfer multiple units to another user\n   * @params _to the address of the user to transfer units to. (address)\n   * @param _ids An array of IDs of the units to transfer. (uint)\n   * @param _quantity An array of quantity of units to transfer. (uint)\n   * @return A boolean that indicates if the operation was successful.\n   */\n  function transferUserUnits(address _to, uint[] _ids, uint[] _quantity) external returns (bool) {\n\n    require(_to != msg.sender);\n    require(_ids.length == _quantity.length);\n\n    // TODO require msg.sender and _to to be part of the same alliance\n    unitsQueue.updateQueue(msg.sender);\n\n    uint length = _ids.length;\n\n    for (uint i = 0; i < length; i++) {\n      require(unitsData.checkUnitExist(_ids[i]));\n      userUnits[msg.sender][_ids[i]] = userUnits[msg.sender][_ids[i]].sub(_quantity[i]);\n      userUnits[_to][_ids[i]] = userUnits[_to][_ids[i]].add(_quantity[i]);\n    }\n\n    emit TransferUserUnits(msg.sender, _to, _ids, _quantity);\n\n    return true;\n  }\n\n  /*\n   * @title Get User Unit Quantity\n   * @dev Function to get the quantity of a specific unit.\n   * @param _user The address to query the units of. (address)\n   * @param _id The id of the unit. (uint)\n   * @return A uint representing how many units of this type the user has.\n   */\n  function getUserUnitQuantity(address _user, uint _id) external view returns (uint unitAmount) {\n    return userUnits[_user][_id];\n  }\n\n  /*\n   * @title Get User Units Ids\n   * @dev Function to get the ids of all the units the user has.\n   * @param _user The address to query the ids. (address)\n   * @return A uint array representing all the units ids that the user has.\n   */\n  function getUserUnitsIds(address _user) external view returns (uint[]) {\n    uint unitsLength = unitsData.getUnitIdsLength();\n    uint[] memory ids = new uint[](unitsLength);\n    uint[] memory allUnitsIds = new uint[](unitsLength);\n    for (uint i = 0; i < unitsLength; i++) {\n      allUnitsIds[i] = unitsData.unitIds(i);\n    }\n\n    uint counter = 0;\n    for (i = 0; i < unitsLength; i++) {\n      if (userUnits[_user][allUnitsIds[i]] > 0) {\n        ids[counter] = allUnitsIds[i];\n        counter++;\n      }\n    }\n\n    uint[] memory unitsIds = new uint[](counter);\n    for (i = 0; i < counter; i++) {\n      unitsIds[i] = ids[i];\n    }\n\n    return unitsIds;\n  }\n\n}\n",
  "sourcePath": "/home/francisco/Truffle/crypto-wars-solidity/contracts/UserUnits.sol",
  "compiler": {
    "name": "solc",
    "version": "0.4.23+commit.124ca40d.Emscripten.clang"
  },
  "schemaVersion": "2.0.0",
  "updatedAt": "2018-04-26T19:14:33.863Z"
}