{
  "contractName": "UserBuildings",
  "abi": [
    {
      "constant": false,
      "inputs": [
        {
          "name": "token",
          "type": "address"
        }
      ],
      "name": "reclaimToken",
      "outputs": [],
      "payable": false,
      "stateMutability": "nonpayable",
      "type": "function"
    },
    {
      "constant": false,
      "inputs": [
        {
          "name": "contractAddr",
          "type": "address"
        }
      ],
      "name": "reclaimContract",
      "outputs": [],
      "payable": false,
      "stateMutability": "nonpayable",
      "type": "function"
    },
    {
      "constant": false,
      "inputs": [
        {
          "name": "_version",
          "type": "uint256"
        }
      ],
      "name": "setVersion",
      "outputs": [],
      "payable": false,
      "stateMutability": "nonpayable",
      "type": "function"
    },
    {
      "constant": true,
      "inputs": [],
      "name": "version",
      "outputs": [
        {
          "name": "",
          "type": "uint256"
        }
      ],
      "payable": false,
      "stateMutability": "view",
      "type": "function"
    },
    {
      "constant": true,
      "inputs": [],
      "name": "owner",
      "outputs": [
        {
          "name": "",
          "type": "address"
        }
      ],
      "payable": false,
      "stateMutability": "view",
      "type": "function"
    },
    {
      "constant": false,
      "inputs": [],
      "name": "reclaimEther",
      "outputs": [],
      "payable": false,
      "stateMutability": "nonpayable",
      "type": "function"
    },
    {
      "constant": true,
      "inputs": [
        {
          "name": "",
          "type": "address"
        },
        {
          "name": "",
          "type": "uint256"
        }
      ],
      "name": "userBuildings",
      "outputs": [
        {
          "name": "id",
          "type": "uint256"
        },
        {
          "name": "active",
          "type": "bool"
        }
      ],
      "payable": false,
      "stateMutability": "view",
      "type": "function"
    },
    {
      "constant": true,
      "inputs": [
        {
          "name": "",
          "type": "address"
        }
      ],
      "name": "migratedUsers",
      "outputs": [
        {
          "name": "",
          "type": "bool"
        }
      ],
      "payable": false,
      "stateMutability": "view",
      "type": "function"
    },
    {
      "constant": false,
      "inputs": [
        {
          "name": "from_",
          "type": "address"
        },
        {
          "name": "value_",
          "type": "uint256"
        },
        {
          "name": "data_",
          "type": "bytes"
        }
      ],
      "name": "tokenFallback",
      "outputs": [],
      "payable": false,
      "stateMutability": "nonpayable",
      "type": "function"
    },
    {
      "constant": false,
      "inputs": [
        {
          "name": "_newContract",
          "type": "address"
        }
      ],
      "name": "migrateUser",
      "outputs": [],
      "payable": false,
      "stateMutability": "nonpayable",
      "type": "function"
    },
    {
      "constant": false,
      "inputs": [
        {
          "name": "newOwner",
          "type": "address"
        }
      ],
      "name": "transferOwnership",
      "outputs": [],
      "payable": false,
      "stateMutability": "nonpayable",
      "type": "function"
    },
    {
      "inputs": [],
      "payable": false,
      "stateMutability": "nonpayable",
      "type": "constructor"
    },
    {
      "payable": false,
      "stateMutability": "nonpayable",
      "type": "fallback"
    },
    {
      "anonymous": false,
      "inputs": [
        {
          "indexed": false,
          "name": "user",
          "type": "address"
        },
        {
          "indexed": false,
          "name": "ids",
          "type": "uint256[]"
        },
        {
          "indexed": false,
          "name": "indexes",
          "type": "uint256[]"
        }
      ],
      "name": "AddUserBuildings",
      "type": "event"
    },
    {
      "anonymous": false,
      "inputs": [
        {
          "indexed": false,
          "name": "user",
          "type": "address"
        },
        {
          "indexed": false,
          "name": "id",
          "type": "uint256"
        },
        {
          "indexed": false,
          "name": "index",
          "type": "uint256"
        }
      ],
      "name": "UpgradeBuilding",
      "type": "event"
    },
    {
      "anonymous": false,
      "inputs": [
        {
          "indexed": false,
          "name": "user",
          "type": "address"
        },
        {
          "indexed": false,
          "name": "ids",
          "type": "uint256[]"
        }
      ],
      "name": "AddInitialBuildings",
      "type": "event"
    },
    {
      "anonymous": false,
      "inputs": [
        {
          "indexed": false,
          "name": "user",
          "type": "address"
        },
        {
          "indexed": false,
          "name": "ids",
          "type": "uint256[]"
        },
        {
          "indexed": false,
          "name": "indexes",
          "type": "uint256[]"
        }
      ],
      "name": "RemoveUserBuildings",
      "type": "event"
    },
    {
      "anonymous": false,
      "inputs": [
        {
          "indexed": false,
          "name": "user",
          "type": "address"
        },
        {
          "indexed": false,
          "name": "index",
          "type": "uint256"
        }
      ],
      "name": "InitNewBuilding",
      "type": "event"
    },
    {
      "anonymous": false,
      "inputs": [
        {
          "indexed": true,
          "name": "user",
          "type": "address"
        },
        {
          "indexed": true,
          "name": "newContract",
          "type": "address"
        }
      ],
      "name": "UserMigrated",
      "type": "event"
    },
    {
      "anonymous": false,
      "inputs": [
        {
          "indexed": true,
          "name": "previousOwner",
          "type": "address"
        },
        {
          "indexed": true,
          "name": "newOwner",
          "type": "address"
        }
      ],
      "name": "OwnershipTransferred",
      "type": "event"
    },
    {
      "constant": true,
      "inputs": [],
      "name": "isUserBuildings",
      "outputs": [
        {
          "name": "",
          "type": "bool"
        }
      ],
      "payable": false,
      "stateMutability": "pure",
      "type": "function"
    },
    {
      "constant": false,
      "inputs": [
        {
          "name": "_previousUserBuildings",
          "type": "address"
        },
        {
          "name": "_version",
          "type": "uint256"
        }
      ],
      "name": "setUserBuildingsVersion",
      "outputs": [],
      "payable": false,
      "stateMutability": "nonpayable",
      "type": "function"
    },
    {
      "constant": false,
      "inputs": [
        {
          "name": "_userVillage",
          "type": "address"
        }
      ],
      "name": "setUserVillage",
      "outputs": [],
      "payable": false,
      "stateMutability": "nonpayable",
      "type": "function"
    },
    {
      "constant": false,
      "inputs": [
        {
          "name": "_userResources",
          "type": "address"
        }
      ],
      "name": "setUserResources",
      "outputs": [],
      "payable": false,
      "stateMutability": "nonpayable",
      "type": "function"
    },
    {
      "constant": false,
      "inputs": [
        {
          "name": "_buildingsData",
          "type": "address"
        }
      ],
      "name": "setBuildingsData",
      "outputs": [],
      "payable": false,
      "stateMutability": "nonpayable",
      "type": "function"
    },
    {
      "constant": false,
      "inputs": [
        {
          "name": "_buildingsQueue",
          "type": "address"
        }
      ],
      "name": "setBuildingsQueue",
      "outputs": [],
      "payable": false,
      "stateMutability": "nonpayable",
      "type": "function"
    },
    {
      "constant": false,
      "inputs": [
        {
          "name": "_user",
          "type": "address"
        },
        {
          "name": "_ids",
          "type": "uint256[]"
        },
        {
          "name": "_indexes",
          "type": "uint256[]"
        }
      ],
      "name": "addUserBuildings",
      "outputs": [
        {
          "name": "",
          "type": "bool"
        }
      ],
      "payable": false,
      "stateMutability": "nonpayable",
      "type": "function"
    },
    {
      "constant": false,
      "inputs": [
        {
          "name": "_user",
          "type": "address"
        },
        {
          "name": "_ids",
          "type": "uint256[]"
        }
      ],
      "name": "addInitialBuildings",
      "outputs": [
        {
          "name": "",
          "type": "bool"
        }
      ],
      "payable": false,
      "stateMutability": "nonpayable",
      "type": "function"
    },
    {
      "constant": false,
      "inputs": [
        {
          "name": "_user",
          "type": "address"
        },
        {
          "name": "_id",
          "type": "uint256"
        }
      ],
      "name": "initNewBuilding",
      "outputs": [
        {
          "name": "index",
          "type": "uint256"
        }
      ],
      "payable": false,
      "stateMutability": "nonpayable",
      "type": "function"
    },
    {
      "constant": false,
      "inputs": [
        {
          "name": "_user",
          "type": "address"
        },
        {
          "name": "_ids",
          "type": "uint256[]"
        },
        {
          "name": "_indexes",
          "type": "uint256[]"
        }
      ],
      "name": "removeUserBuildings",
      "outputs": [
        {
          "name": "",
          "type": "bool"
        }
      ],
      "payable": false,
      "stateMutability": "nonpayable",
      "type": "function"
    },
    {
      "constant": false,
      "inputs": [
        {
          "name": "_user",
          "type": "address"
        },
        {
          "name": "_id",
          "type": "uint256"
        },
        {
          "name": "_index",
          "type": "uint256"
        }
      ],
      "name": "upgradeBuilding",
      "outputs": [
        {
          "name": "",
          "type": "bool"
        }
      ],
      "payable": false,
      "stateMutability": "nonpayable",
      "type": "function"
    },
    {
      "constant": true,
      "inputs": [
        {
          "name": "_user",
          "type": "address"
        }
      ],
      "name": "getUserBuildingsLength",
      "outputs": [
        {
          "name": "length",
          "type": "uint256"
        }
      ],
      "payable": false,
      "stateMutability": "view",
      "type": "function"
    },
    {
      "constant": true,
      "inputs": [
        {
          "name": "_user",
          "type": "address"
        }
      ],
      "name": "getUserBuildings",
      "outputs": [
        {
          "name": "",
          "type": "uint256[]"
        }
      ],
      "payable": false,
      "stateMutability": "view",
      "type": "function"
    },
    {
      "constant": true,
      "inputs": [
        {
          "name": "_user",
          "type": "address"
        },
        {
          "name": "_index",
          "type": "uint256"
        }
      ],
      "name": "getUserBuildingIdAndStatus",
      "outputs": [
        {
          "name": "id",
          "type": "uint256"
        },
        {
          "name": "active",
          "type": "bool"
        }
      ],
      "payable": false,
      "stateMutability": "view",
      "type": "function"
    },
    {
      "constant": true,
      "inputs": [
        {
          "name": "_user",
          "type": "address"
        }
      ],
      "name": "getUserRates",
      "outputs": [
        {
          "name": "totalGoldRate",
          "type": "uint256"
        },
        {
          "name": "totalCrystalRate",
          "type": "uint256"
        }
      ],
      "payable": false,
      "stateMutability": "view",
      "type": "function"
    },
    {
      "constant": true,
      "inputs": [
        {
          "name": "_user",
          "type": "address"
        },
        {
          "name": "_typeId",
          "type": "uint256"
        },
        {
          "name": "_id",
          "type": "uint256"
        }
      ],
      "name": "buildingTypeIsUnique",
      "outputs": [
        {
          "name": "",
          "type": "int256"
        }
      ],
      "payable": false,
      "stateMutability": "view",
      "type": "function"
    },
    {
      "constant": false,
      "inputs": [
        {
          "name": "_user",
          "type": "address"
        },
        {
          "name": "_id",
          "type": "uint256"
        },
        {
          "name": "_index",
          "type": "uint256"
        }
      ],
      "name": "updateBuildingStatus",
      "outputs": [
        {
          "name": "",
          "type": "bool"
        }
      ],
      "payable": false,
      "stateMutability": "nonpayable",
      "type": "function"
    },
    {
      "constant": true,
      "inputs": [
        {
          "name": "_user",
          "type": "address"
        }
      ],
      "name": "getUserResourcesCapacity",
      "outputs": [
        {
          "name": "totalGoldCapacity",
          "type": "uint256"
        },
        {
          "name": "totalCrystalCapacity",
          "type": "uint256"
        }
      ],
      "payable": false,
      "stateMutability": "view",
      "type": "function"
    }
  ],
  "bytecode": "0x608060405234801561001057600080fd5b50336000806101000a81548173ffffffffffffffffffffffffffffffffffffffff021916908373ffffffffffffffffffffffffffffffffffffffff16021790555060003414151561006057600080fd5b613bd48061006f6000396000f300608060405260043610610175576000357c0100000000000000000000000000000000000000000000000000000000900463ffffffff16806317ffc3201461018457806319d6dfae146101c75780632aed7f3f146101f6578063408def1e146102395780634a925dae146102665780634fe6aa94146102d157806354fd4d501461033257806359da69a71461035d5780636d6a1d78146103cc578063750f51db1461042357806376e52e181461047057806377889afa146104fb5780637fdfb10c1461053e5780638da5cb5b146105aa57806396dc25b9146106015780639f6650d6146106445780639f727c27146106a2578063b1dc576f146106b9578063b9c2f240146106fc578063bb9960101461076f578063bbe768a4146107db578063c0ee0b8a14610836578063d5b999fd1461089b578063d9fccbc2146108de578063dd6c7e311461094d578063e81a735414610990578063eb80520d14610a1b578063ed51d10414610a79578063f2fde38b14610b11575b34801561018157600080fd5b50005b34801561019057600080fd5b506101c5600480360381019080803573ffffffffffffffffffffffffffffffffffffffff169060200190929190505050610b54565b005b3480156101d357600080fd5b506101dc610cd9565b604051808215151515815260200191505060405180910390f35b34801561020257600080fd5b50610237600480360381019080803573ffffffffffffffffffffffffffffffffffffffff169060200190929190505050610ce2565b005b34801561024557600080fd5b5061026460048036038101908080359060200190929190505050610e1a565b005b34801561027257600080fd5b506102bb600480360381019080803573ffffffffffffffffffffffffffffffffffffffff1690602001909291908035906020019092919080359060200190929190505050610e7f565b6040518082815260200191505060405180910390f35b3480156102dd57600080fd5b5061031c600480360381019080803573ffffffffffffffffffffffffffffffffffffffff16906020019092919080359060200190929190505050611220565b6040518082815260200191505060405180910390f35b34801561033e57600080fd5b50610347611559565b6040518082815260200191505060405180910390f35b34801561036957600080fd5b506103b2600480360381019080803573ffffffffffffffffffffffffffffffffffffffff169060200190929190803590602001909291908035906020019092919050505061155f565b604051808215151515815260200191505060405180910390f35b3480156103d857600080fd5b5061040d600480360381019080803573ffffffffffffffffffffffffffffffffffffffff169060200190929190505050611757565b6040518082815260200191505060405180910390f35b34801561042f57600080fd5b5061046e600480360381019080803573ffffffffffffffffffffffffffffffffffffffff169060200190929190803590602001909291905050506117a3565b005b34801561047c57600080fd5b506104e1600480360381019080803573ffffffffffffffffffffffffffffffffffffffff1690602001909291908035906020019082018035906020019190919293919293908035906020019082018035906020019190919293919293905050506119a2565b604051808215151515815260200191505060405180910390f35b34801561050757600080fd5b5061053c600480360381019080803573ffffffffffffffffffffffffffffffffffffffff169060200190929190505050611cc1565b005b34801561054a57600080fd5b50610589600480360381019080803573ffffffffffffffffffffffffffffffffffffffff16906020019092919080359060200190929190505050611e0a565b60405180838152602001821515151581526020019250505060405180910390f35b3480156105b657600080fd5b506105bf611ee1565b604051808273ffffffffffffffffffffffffffffffffffffffff1673ffffffffffffffffffffffffffffffffffffffff16815260200191505060405180910390f35b34801561060d57600080fd5b50610642600480360381019080803573ffffffffffffffffffffffffffffffffffffffff169060200190929190505050611f06565b005b34801561065057600080fd5b50610685600480360381019080803573ffffffffffffffffffffffffffffffffffffffff16906020019092919050505061204f565b604051808381526020018281526020019250505060405180910390f35b3480156106ae57600080fd5b506106b761229e565b005b3480156106c557600080fd5b506106fa600480360381019080803573ffffffffffffffffffffffffffffffffffffffff169060200190929190505050612370565b005b34801561070857600080fd5b50610755600480360381019080803573ffffffffffffffffffffffffffffffffffffffff1690602001909291908035906020019082018035906020019190919293919293905050506124b9565b604051808215151515815260200191505060405180910390f35b34801561077b57600080fd5b506107ba600480360381019080803573ffffffffffffffffffffffffffffffffffffffff169060200190929190803590602001909291905050506127ee565b60405180838152602001821515151581526020019250505060405180910390f35b3480156107e757600080fd5b5061081c600480360381019080803573ffffffffffffffffffffffffffffffffffffffff16906020019092919050505061283b565b604051808215151515815260200191505060405180910390f35b34801561084257600080fd5b50610899600480360381019080803573ffffffffffffffffffffffffffffffffffffffff1690602001909291908035906020019092919080359060200190820180359060200191909192939192939050505061285b565b005b3480156108a757600080fd5b506108dc600480360381019080803573ffffffffffffffffffffffffffffffffffffffff169060200190929190505050612860565b005b3480156108ea57600080fd5b50610933600480360381019080803573ffffffffffffffffffffffffffffffffffffffff16906020019092919080359060200190929190803590602001909291905050506129a9565b604051808215151515815260200191505060405180910390f35b34801561095957600080fd5b5061098e600480360381019080803573ffffffffffffffffffffffffffffffffffffffff169060200190929190505050612bec565b005b34801561099c57600080fd5b50610a01600480360381019080803573ffffffffffffffffffffffffffffffffffffffff169060200190929190803590602001908201803590602001919091929391929390803590602001908201803590602001919091929391929390505050612daf565b604051808215151515815260200191505060405180910390f35b348015610a2757600080fd5b50610a5c600480360381019080803573ffffffffffffffffffffffffffffffffffffffff16906020019092919050505061319d565b604051808381526020018281526020019250505060405180910390f35b348015610a8557600080fd5b50610aba600480360381019080803573ffffffffffffffffffffffffffffffffffffffff1690602001909291905050506133f4565b6040518080602001828103825283818151815260200191508051906020019060200280838360005b83811015610afd578082015181840152602081019050610ae2565b505050509050019250505060405180910390f35b348015610b1d57600080fd5b50610b52600480360381019080803573ffffffffffffffffffffffffffffffffffffffff169060200190929190505050613512565b005b60008060009054906101000a900473ffffffffffffffffffffffffffffffffffffffff1673ffffffffffffffffffffffffffffffffffffffff163373ffffffffffffffffffffffffffffffffffffffff16141515610bb157600080fd5b8173ffffffffffffffffffffffffffffffffffffffff166370a08231306040518263ffffffff167c0100000000000000000000000000000000000000000000000000000000028152600401808273ffffffffffffffffffffffffffffffffffffffff1673ffffffffffffffffffffffffffffffffffffffff168152602001915050602060405180830381600087803b158015610c4c57600080fd5b505af1158015610c60573d6000803e3d6000fd5b505050506040513d6020811015610c7657600080fd5b81019080805190602001909291905050509050610cd56000809054906101000a900473ffffffffffffffffffffffffffffffffffffffff16828473ffffffffffffffffffffffffffffffffffffffff166136679092919063ffffffff16565b5050565b60006001905090565b60008060009054906101000a900473ffffffffffffffffffffffffffffffffffffffff1673ffffffffffffffffffffffffffffffffffffffff163373ffffffffffffffffffffffffffffffffffffffff16141515610d3f57600080fd5b8190508073ffffffffffffffffffffffffffffffffffffffff1663f2fde38b6000809054906101000a900473ffffffffffffffffffffffffffffffffffffffff166040518263ffffffff167c0100000000000000000000000000000000000000000000000000000000028152600401808273ffffffffffffffffffffffffffffffffffffffff1673ffffffffffffffffffffffffffffffffffffffff168152602001915050600060405180830381600087803b158015610dfe57600080fd5b505af1158015610e12573d6000803e3d6000fd5b505050505050565b6000809054906101000a900473ffffffffffffffffffffffffffffffffffffffff1673ffffffffffffffffffffffffffffffffffffffff163373ffffffffffffffffffffffffffffffffffffffff16141515610e7557600080fd5b8060018190555050565b60008060008091505b600360008773ffffffffffffffffffffffffffffffffffffffff1673ffffffffffffffffffffffffffffffffffffffff168152602001908152602001600020805490508210156111f357600460009054906101000a900473ffffffffffffffffffffffffffffffffffffffff1673ffffffffffffffffffffffffffffffffffffffff1663614ad27f600360008973ffffffffffffffffffffffffffffffffffffffff1673ffffffffffffffffffffffffffffffffffffffff16815260200190815260200160002084815481101515610f5c57fe5b9060005260206000209060020201600001546040518263ffffffff167c010000000000000000000000000000000000000000000000000000000002815260040180828152602001915050602060405180830381600087803b158015610fc057600080fd5b505af1158015610fd4573d6000803e3d6000fd5b505050506040513d6020811015610fea57600080fd5b81019080805190602001909291905050508514156111e657600360008773ffffffffffffffffffffffffffffffffffffffff1673ffffffffffffffffffffffffffffffffffffffff1681526020019081526020016000208281548110151561104e57fe5b906000526020600020906002020160010160009054906101000a900460ff161561109a577ffffffffffffffffffffffffffffffffffffffffffffffffffffffffffffffffe9250611217565b600560009054906101000a900473ffffffffffffffffffffffffffffffffffffffff1673ffffffffffffffffffffffffffffffffffffffff1663689926778786856040518463ffffffff167c0100000000000000000000000000000000000000000000000000000000028152600401808473ffffffffffffffffffffffffffffffffffffffff1673ffffffffffffffffffffffffffffffffffffffff16815260200183815260200182815260200193505050506040805180830381600087803b15801561116657600080fd5b505af115801561117a573d6000803e3d6000fd5b505050506040513d604081101561119057600080fd5b810190808051906020019092919080519060200190929190505050508091505080156111de577ffffffffffffffffffffffffffffffffffffffffffffffffffffffffffffffffe9250611217565b819250611217565b8180600101925050610e88565b7fffffffffffffffffffffffffffffffffffffffffffffffffffffffffffffffff92505b50509392505050565b6000600560009054906101000a900473ffffffffffffffffffffffffffffffffffffffff1673ffffffffffffffffffffffffffffffffffffffff163373ffffffffffffffffffffffffffffffffffffffff1614806112ca57506000809054906101000a900473ffffffffffffffffffffffffffffffffffffffff1673ffffffffffffffffffffffffffffffffffffffff163373ffffffffffffffffffffffffffffffffffffffff16145b15156112d557600080fd5b600460009054906101000a900473ffffffffffffffffffffffffffffffffffffffff1673ffffffffffffffffffffffffffffffffffffffff16636facbe2b836040518263ffffffff167c010000000000000000000000000000000000000000000000000000000002815260040180828152602001915050602060405180830381600087803b15801561136657600080fd5b505af115801561137a573d6000803e3d6000fd5b505050506040513d602081101561139057600080fd5b810190808051906020019092919050505015156113ac57600080fd5b600360008473ffffffffffffffffffffffffffffffffffffffff1673ffffffffffffffffffffffffffffffffffffffff168152602001908152602001600020604080519081016040528084815260200160001515815250908060018154018082558091505090600182039060005260206000209060020201600090919290919091506000820151816000015560208201518160010160006101000a81548160ff0219169083151502179055505050507f9abc8e94269f5b79c9486cb53cf245e450e0fef12503b6c58f016aef9369dfa6836001600360008773ffffffffffffffffffffffffffffffffffffffff1673ffffffffffffffffffffffffffffffffffffffff1681526020019081526020016000208054905003604051808373ffffffffffffffffffffffffffffffffffffffff1673ffffffffffffffffffffffffffffffffffffffff1681526020018281526020019250505060405180910390a16001600360008573ffffffffffffffffffffffffffffffffffffffff1673ffffffffffffffffffffffffffffffffffffffff1681526020019081526020016000208054905003905092915050565b60015481565b60008073ffffffffffffffffffffffffffffffffffffffff168473ffffffffffffffffffffffffffffffffffffffff161415151561159c57600080fd5b600560009054906101000a900473ffffffffffffffffffffffffffffffffffffffff1673ffffffffffffffffffffffffffffffffffffffff163373ffffffffffffffffffffffffffffffffffffffff161415156115f857600080fd5b82600360008673ffffffffffffffffffffffffffffffffffffffff1673ffffffffffffffffffffffffffffffffffffffff1681526020019081526020016000208381548110151561164557fe5b90600052602060002090600202016000015414151561166357600080fd5b6000600360008673ffffffffffffffffffffffffffffffffffffffff1673ffffffffffffffffffffffffffffffffffffffff168152602001908152602001600020838154811015156116b157fe5b906000526020600020906002020160010160006101000a81548160ff0219169083151502179055507f701241dfd7395ad15d49f041aea666026f3c02fabe42f474b906850c6c2603b2848484604051808473ffffffffffffffffffffffffffffffffffffffff1673ffffffffffffffffffffffffffffffffffffffff168152602001838152602001828152602001935050505060405180910390a1600190509392505050565b6000600360008373ffffffffffffffffffffffffffffffffffffffff1673ffffffffffffffffffffffffffffffffffffffff168152602001908152602001600020805490509050919050565b6000809054906101000a900473ffffffffffffffffffffffffffffffffffffffff1673ffffffffffffffffffffffffffffffffffffffff163373ffffffffffffffffffffffffffffffffffffffff161415156117fe57600080fd5b8173ffffffffffffffffffffffffffffffffffffffff166319d6dfae6040518163ffffffff167c0100000000000000000000000000000000000000000000000000000000028152600401602060405180830381600087803b15801561186257600080fd5b505af1158015611876573d6000803e3d6000fd5b505050506040513d602081101561188c57600080fd5b810190808051906020019092919050505015156118a857600080fd5b8173ffffffffffffffffffffffffffffffffffffffff166354fd4d506040518163ffffffff167c0100000000000000000000000000000000000000000000000000000000028152600401602060405180830381600087803b15801561190c57600080fd5b505af1158015611920573d6000803e3d6000fd5b505050506040513d602081101561193657600080fd5b81019080805190602001909291905050508111151561195457600080fd5b81600660006101000a81548173ffffffffffffffffffffffffffffffffffffffff021916908373ffffffffffffffffffffffffffffffffffffffff16021790555061199e81610e1a565b5050565b600080600080600560009054906101000a900473ffffffffffffffffffffffffffffffffffffffff1673ffffffffffffffffffffffffffffffffffffffff163373ffffffffffffffffffffffffffffffffffffffff16141515611a0457600080fd5b8585905088889050141515611a1857600080fd5b878790509250600091505b82821015611b2357600460009054906101000a900473ffffffffffffffffffffffffffffffffffffffff1673ffffffffffffffffffffffffffffffffffffffff16636facbe2b8989858181101515611a7757fe5b905060200201356040518263ffffffff167c010000000000000000000000000000000000000000000000000000000002815260040180828152602001915050602060405180830381600087803b158015611ad057600080fd5b505af1158015611ae4573d6000803e3d6000fd5b505050506040513d6020811015611afa57600080fd5b81019080805190602001909291905050501515611b1657600080fd5b8180600101925050611a23565b600090505b82811015611c045760408051908101604052808989848181101515611b4957fe5b90506020020135815260200160011515815250600360008b73ffffffffffffffffffffffffffffffffffffffff1673ffffffffffffffffffffffffffffffffffffffff1681526020019081526020016000208787848181101515611ba957fe5b90506020020135815481101515611bbc57fe5b90600052602060002090600202016000820151816000015560208201518160010160006101000a81548160ff0219169083151502179055509050508080600101915050611b28565b7f476e9953f2047833efb902cf6835b7c52fed08301babfdb4364f114ab0dd8cdd8989898989604051808673ffffffffffffffffffffffffffffffffffffffff1673ffffffffffffffffffffffffffffffffffffffff1681526020018060200180602001838103835287878281815260200192506020028082843782019150508381038252858582818152602001925060200280828437820191505097505050505050505060405180910390a16001935050505095945050505050565b6000809054906101000a900473ffffffffffffffffffffffffffffffffffffffff1673ffffffffffffffffffffffffffffffffffffffff163373ffffffffffffffffffffffffffffffffffffffff16141515611d1c57600080fd5b8073ffffffffffffffffffffffffffffffffffffffff1663bfb4bbae6040518163ffffffff167c0100000000000000000000000000000000000000000000000000000000028152600401602060405180830381600087803b158015611d8057600080fd5b505af1158015611d94573d6000803e3d6000fd5b505050506040513d6020811015611daa57600080fd5b81019080805190602001909291905050501515611dc657600080fd5b80600560006101000a81548173ffffffffffffffffffffffffffffffffffffffff021916908373ffffffffffffffffffffffffffffffffffffffff16021790555050565b600080600360008573ffffffffffffffffffffffffffffffffffffffff1673ffffffffffffffffffffffffffffffffffffffff16815260200190815260200160002083815481101515611e5957fe5b906000526020600020906002020160000154600360008673ffffffffffffffffffffffffffffffffffffffff1673ffffffffffffffffffffffffffffffffffffffff16815260200190815260200160002084815481101515611eb757fe5b906000526020600020906002020160010160009054906101000a900460ff16915091509250929050565b6000809054906101000a900473ffffffffffffffffffffffffffffffffffffffff1681565b6000809054906101000a900473ffffffffffffffffffffffffffffffffffffffff1673ffffffffffffffffffffffffffffffffffffffff163373ffffffffffffffffffffffffffffffffffffffff16141515611f6157600080fd5b8073ffffffffffffffffffffffffffffffffffffffff16633769feef6040518163ffffffff167c0100000000000000000000000000000000000000000000000000000000028152600401602060405180830381600087803b158015611fc557600080fd5b505af1158015611fd9573d6000803e3d6000fd5b505050506040513d6020811015611fef57600080fd5b8101908080519060200190929190505050151561200b57600080fd5b80600460006101000a81548173ffffffffffffffffffffffffffffffffffffffff021916908373ffffffffffffffffffffffffffffffffffffffff16021790555050565b60008060008060008090505b600360008773ffffffffffffffffffffffffffffffffffffffff1673ffffffffffffffffffffffffffffffffffffffff168152602001908152602001600020805490508110156122905760011515600360008873ffffffffffffffffffffffffffffffffffffffff1673ffffffffffffffffffffffffffffffffffffffff168152602001908152602001600020828154811015156120f557fe5b906000526020600020906002020160010160009054906101000a900460ff161515141561228357600460009054906101000a900473ffffffffffffffffffffffffffffffffffffffff1673ffffffffffffffffffffffffffffffffffffffff1663b5142cff600360008973ffffffffffffffffffffffffffffffffffffffff1673ffffffffffffffffffffffffffffffffffffffff168152602001908152602001600020838154811015156121a657fe5b9060005260206000209060020201600001546040518263ffffffff167c0100000000000000000000000000000000000000000000000000000000028152600401808281526020019150506040805180830381600087803b15801561220957600080fd5b505af115801561221d573d6000803e3d6000fd5b505050506040513d604081101561223357600080fd5b8101908080519060200190929190805190602001909291905050508093508194505050600083111561226c576122698584613752565b94505b60008211156122825761227f8483613752565b93505b5b808060010191505061205b565b848494509450505050915091565b6000809054906101000a900473ffffffffffffffffffffffffffffffffffffffff1673ffffffffffffffffffffffffffffffffffffffff163373ffffffffffffffffffffffffffffffffffffffff161415156122f957600080fd5b6000809054906101000a900473ffffffffffffffffffffffffffffffffffffffff1673ffffffffffffffffffffffffffffffffffffffff166108fc3073ffffffffffffffffffffffffffffffffffffffff16319081150290604051600060405180830381858888f19350505050151561236e57fe5b565b6000809054906101000a900473ffffffffffffffffffffffffffffffffffffffff1673ffffffffffffffffffffffffffffffffffffffff163373ffffffffffffffffffffffffffffffffffffffff161415156123cb57600080fd5b8073ffffffffffffffffffffffffffffffffffffffff1663c19d6f5f6040518163ffffffff167c0100000000000000000000000000000000000000000000000000000000028152600401602060405180830381600087803b15801561242f57600080fd5b505af1158015612443573d6000803e3d6000fd5b505050506040513d602081101561245957600080fd5b8101908080519060200190929190505050151561247557600080fd5b80600860006101000a81548173ffffffffffffffffffffffffffffffffffffffff021916908373ffffffffffffffffffffffffffffffffffffffff16021790555050565b6000806000600860009054906101000a900473ffffffffffffffffffffffffffffffffffffffff1673ffffffffffffffffffffffffffffffffffffffff163373ffffffffffffffffffffffffffffffffffffffff16148061256657506000809054906101000a900473ffffffffffffffffffffffffffffffffffffffff1673ffffffffffffffffffffffffffffffffffffffff163373ffffffffffffffffffffffffffffffffffffffff16145b151561257157600080fd5b600091505b8484905082101561267957600460009054906101000a900473ffffffffffffffffffffffffffffffffffffffff1673ffffffffffffffffffffffffffffffffffffffff16636facbe2b86868581811015156125cd57fe5b905060200201356040518263ffffffff167c010000000000000000000000000000000000000000000000000000000002815260040180828152602001915050602060405180830381600087803b15801561262657600080fd5b505af115801561263a573d6000803e3d6000fd5b505050506040513d602081101561265057600080fd5b8101908080519060200190929190505050151561266c57600080fd5b8180600101925050612576565b600090505b8484905081101561275957600360008773ffffffffffffffffffffffffffffffffffffffff1673ffffffffffffffffffffffffffffffffffffffff168152602001908152602001600020604080519081016040528087878581811015156126e157fe5b90506020020135815260200160011515815250908060018154018082558091505090600182039060005260206000209060020201600090919290919091506000820151816000015560208201518160010160006101000a81548160ff021916908315150217905550505050808060010191505061267e565b7f7e4357b0674cde231359e0a9dd90dcf1b5f9f93fe0ec9cb68e05dff54e15bd15868686604051808473ffffffffffffffffffffffffffffffffffffffff1673ffffffffffffffffffffffffffffffffffffffff168152602001806020018281038252848482818152602001925060200280828437820191505094505050505060405180910390a16001925050509392505050565b60036020528160005260406000208181548110151561280957fe5b9060005260206000209060020201600091509150508060000154908060010160009054906101000a900460ff16905082565b60026020528060005260406000206000915054906101000a900460ff1681565b600080fd5b6000809054906101000a900473ffffffffffffffffffffffffffffffffffffffff1673ffffffffffffffffffffffffffffffffffffffff163373ffffffffffffffffffffffffffffffffffffffff161415156128bb57600080fd5b8073ffffffffffffffffffffffffffffffffffffffff1663f229a4156040518163ffffffff167c0100000000000000000000000000000000000000000000000000000000028152600401602060405180830381600087803b15801561291f57600080fd5b505af1158015612933573d6000803e3d6000fd5b505050506040513d602081101561294957600080fd5b8101908080519060200190929190505050151561296557600080fd5b80600760006101000a81548173ffffffffffffffffffffffffffffffffffffffff021916908373ffffffffffffffffffffffffffffffffffffffff16021790555050565b6000600560009054906101000a900473ffffffffffffffffffffffffffffffffffffffff1673ffffffffffffffffffffffffffffffffffffffff163373ffffffffffffffffffffffffffffffffffffffff16141515612a0757600080fd5b6107d0831115612aff576103e88303600360008673ffffffffffffffffffffffffffffffffffffffff1673ffffffffffffffffffffffffffffffffffffffff16815260200190815260200160002083815481101515612a6257fe5b906000526020600020906002020160000154141515612a8057600080fd5b6001600360008673ffffffffffffffffffffffffffffffffffffffff1673ffffffffffffffffffffffffffffffffffffffff16815260200190815260200160002083815481101515612ace57fe5b906000526020600020906002020160010160006101000a81548160ff02191690831515021790555060019050612be5565b82600360008673ffffffffffffffffffffffffffffffffffffffff1673ffffffffffffffffffffffffffffffffffffffff16815260200190815260200160002083815481101515612b4c57fe5b906000526020600020906002020160000154141515612b6a57600080fd5b6000600360008673ffffffffffffffffffffffffffffffffffffffff1673ffffffffffffffffffffffffffffffffffffffff16815260200190815260200160002083815481101515612bb857fe5b906000526020600020906002020160010160006101000a81548160ff021916908315150217905550600190505b9392505050565b60011515600260003373ffffffffffffffffffffffffffffffffffffffff1673ffffffffffffffffffffffffffffffffffffffff16815260200190815260200160002060009054906101000a900460ff16151514151515612c4c57600080fd5b6001548173ffffffffffffffffffffffffffffffffffffffff166354fd4d506040518163ffffffff167c0100000000000000000000000000000000000000000000000000000000028152600401602060405180830381600087803b158015612cb357600080fd5b505af1158015612cc7573d6000803e3d6000fd5b505050506040513d6020811015612cdd57600080fd5b8101908080519060200190929190505050111515612cfa57600080fd5b6001600260003373ffffffffffffffffffffffffffffffffffffffff1673ffffffffffffffffffffffffffffffffffffffff16815260200190815260200160002060006101000a81548160ff0219169083151502179055508073ffffffffffffffffffffffffffffffffffffffff163373ffffffffffffffffffffffffffffffffffffffff167fc123aa2e5c63456c59a4694ac50ba610152278a01162f3d5e3a6ffc457bc586e60405160405180910390a350565b600080600560009054906101000a900473ffffffffffffffffffffffffffffffffffffffff1673ffffffffffffffffffffffffffffffffffffffff163373ffffffffffffffffffffffffffffffffffffffff161480612e5a57506000809054906101000a900473ffffffffffffffffffffffffffffffffffffffff1673ffffffffffffffffffffffffffffffffffffffff163373ffffffffffffffffffffffffffffffffffffffff16145b1515612e6557600080fd5b8383905086869050141515612e7957600080fd5b600090505b8585905081101561309e57600460009054906101000a900473ffffffffffffffffffffffffffffffffffffffff1673ffffffffffffffffffffffffffffffffffffffff16636facbe2b8787848181101515612ed557fe5b905060200201356040518263ffffffff167c010000000000000000000000000000000000000000000000000000000002815260040180828152602001915050602060405180830381600087803b158015612f2e57600080fd5b505af1158015612f42573d6000803e3d6000fd5b505050506040513d6020811015612f5857600080fd5b81019080805190602001909291905050501515612f7457600080fd5b8585828181101515612f8257fe5b90506020020135600360008973ffffffffffffffffffffffffffffffffffffffff1673ffffffffffffffffffffffffffffffffffffffff1681526020019081526020016000208585848181101515612fd657fe5b90506020020135815481101515612fe957fe5b90600052602060002090600202016000015414151561300757600080fd5b6000600360008973ffffffffffffffffffffffffffffffffffffffff1673ffffffffffffffffffffffffffffffffffffffff168152602001908152602001600020858584818110151561305657fe5b9050602002013581548110151561306957fe5b906000526020600020906002020160010160006101000a81548160ff0219169083151502179055508080600101915050612e7e565b6130d787878780806020026020016040519081016040528093929190818152602001838360200280828437820191505050505050613770565b15156130e257600080fd5b7f19971e44184625db3749f4ba9d29a96e37592edaf90b0da6cac7f07b4ed65a548787878787604051808673ffffffffffffffffffffffffffffffffffffffff1673ffffffffffffffffffffffffffffffffffffffff1681526020018060200180602001838103835287878281815260200192506020028082843782019150508381038252858582818152602001925060200280828437820191505097505050505050505060405180910390a1600191505095945050505050565b600080600080600080925060009150600090505b600360008773ffffffffffffffffffffffffffffffffffffffff1673ffffffffffffffffffffffffffffffffffffffff168152602001908152602001600020805490508110156133e65760011515600360008873ffffffffffffffffffffffffffffffffffffffff1673ffffffffffffffffffffffffffffffffffffffff1681526020019081526020016000208281548110151561324b57fe5b906000526020600020906002020160010160009054906101000a900460ff16151514156133d957600460009054906101000a900473ffffffffffffffffffffffffffffffffffffffff1673ffffffffffffffffffffffffffffffffffffffff16638bfa8771600360008973ffffffffffffffffffffffffffffffffffffffff1673ffffffffffffffffffffffffffffffffffffffff168152602001908152602001600020838154811015156132fc57fe5b9060005260206000209060020201600001546040518263ffffffff167c0100000000000000000000000000000000000000000000000000000000028152600401808281526020019150506040805180830381600087803b15801561335f57600080fd5b505af1158015613373573d6000803e3d6000fd5b505050506040513d604081101561338957600080fd5b810190808051906020019092919080519060200190929190505050809350819450505060008311156133c2576133bf8584613752565b94505b60008211156133d8576133d58483613752565b93505b5b80806001019150506131b1565b848494509450505050915091565b6060600060606000600360008673ffffffffffffffffffffffffffffffffffffffff1673ffffffffffffffffffffffffffffffffffffffff168152602001908152602001600020805490509250826040519080825280602002602001820160405280156134705781602001602082028038833980820191505090505b509150600090505b8281101561350757600360008673ffffffffffffffffffffffffffffffffffffffff1673ffffffffffffffffffffffffffffffffffffffff168152602001908152602001600020818154811015156134cc57fe5b90600052602060002090600202016000015482828151811015156134ec57fe5b90602001906020020181815250508080600101915050613478565b819350505050919050565b6000809054906101000a900473ffffffffffffffffffffffffffffffffffffffff1673ffffffffffffffffffffffffffffffffffffffff163373ffffffffffffffffffffffffffffffffffffffff1614151561356d57600080fd5b600073ffffffffffffffffffffffffffffffffffffffff168173ffffffffffffffffffffffffffffffffffffffff16141515156135a957600080fd5b8073ffffffffffffffffffffffffffffffffffffffff166000809054906101000a900473ffffffffffffffffffffffffffffffffffffffff1673ffffffffffffffffffffffffffffffffffffffff167f8be0079c531659141344cd1fd0a4f28419497f9722a3daafe3b4186f6b6457e060405160405180910390a3806000806101000a81548173ffffffffffffffffffffffffffffffffffffffff021916908373ffffffffffffffffffffffffffffffffffffffff16021790555050565b8273ffffffffffffffffffffffffffffffffffffffff1663a9059cbb83836040518363ffffffff167c0100000000000000000000000000000000000000000000000000000000028152600401808373ffffffffffffffffffffffffffffffffffffffff1673ffffffffffffffffffffffffffffffffffffffff16815260200182815260200192505050602060405180830381600087803b15801561370a57600080fd5b505af115801561371e573d6000803e3d6000fd5b505050506040513d602081101561373457600080fd5b8101908080519060200190929190505050151561374d57fe5b505050565b600080828401905083811015151561376657fe5b8091505092915050565b60008060008060008090505b8551811015613b9a57600460009054906101000a900473ffffffffffffffffffffffffffffffffffffffff1673ffffffffffffffffffffffffffffffffffffffff16638709e9da87838151811015156137d157fe5b906020019060200201516040518263ffffffff167c010000000000000000000000000000000000000000000000000000000002815260040180828152602001915050606060405180830381600087803b15801561382d57600080fd5b505af1158015613841573d6000803e3d6000fd5b505050506040513d606081101561385757600080fd5b810190808051906020019092919080519060200190929190805190602001909291905050508094508195508296505050506000841115613b8d576064603c85028115156138a057fe5b049350600083141561399b57600760009054906101000a900473ffffffffffffffffffffffffffffffffffffffff1673ffffffffffffffffffffffffffffffffffffffff1663ac42c67b88866000806040518563ffffffff167c0100000000000000000000000000000000000000000000000000000000028152600401808573ffffffffffffffffffffffffffffffffffffffff1673ffffffffffffffffffffffffffffffffffffffff168152602001848152602001838152602001828152602001945050505050600060405180830381600087803b15801561398257600080fd5b505af1158015613996573d6000803e3d6000fd5b505050505b6001831415613a9457600760009054906101000a900473ffffffffffffffffffffffffffffffffffffffff1673ffffffffffffffffffffffffffffffffffffffff1663ac42c67b8860008760006040518563ffffffff167c0100000000000000000000000000000000000000000000000000000000028152600401808573ffffffffffffffffffffffffffffffffffffffff1673ffffffffffffffffffffffffffffffffffffffff168152602001848152602001838152602001828152602001945050505050600060405180830381600087803b158015613a7b57600080fd5b505af1158015613a8f573d6000803e3d6000fd5b505050505b6002831415613b8c57600760009054906101000a900473ffffffffffffffffffffffffffffffffffffffff1673ffffffffffffffffffffffffffffffffffffffff1663ac42c67b88600080886040518563ffffffff167c0100000000000000000000000000000000000000000000000000000000028152600401808573ffffffffffffffffffffffffffffffffffffffff1673ffffffffffffffffffffffffffffffffffffffff168152602001848152602001838152602001828152602001945050505050600060405180830381600087803b158015613b7357600080fd5b505af1158015613b87573d6000803e3d6000fd5b505050505b5b808060010191505061377c565b6001945050505050929150505600a165627a7a72305820ede5ad51dfdaf168ca08024d3b664242c8b84da931316ccd25e02731cf9af66e0029",
  "source": "pragma solidity ^0.4.23;\n\nimport 'zeppelin-solidity/contracts/math/SafeMath.sol';\nimport 'zeppelin-solidity/contracts/ownership/NoOwner.sol';\nimport './BuildingsData.sol';\nimport './BuildingsQueue.sol';\nimport './UserResources.sol';\nimport './UserVillage.sol';\nimport './Versioned.sol';\n\n/**\n * @title UserBuildings (WIP)\n * @notice This contract set which buildings belongs to an user.\n * @dev Keeps track of users active buildings.\n * Additional functionality might be added to ...\n * @dev Issue: * https://github.com/e11-io/crypto-wars-solidity/issues/3\n */\n\ncontract UserBuildings is NoOwner, Versioned {\n  using SafeMath for uint;\n\n  /**\n   * event for adding multiple buildings to a user logging\n   * @param user the address of the user to add the buildings\n   * @param ids the IDs of the buildings to be added\n   * @param indexes the indexes of the buildings to be added\n   */\n  event AddUserBuildings(address user, uint[] ids, uint[] indexes);\n\n  /**\n   * event for upgrading a building to a user logging\n   * @param user the address of the user to give the upgraded building\n   * @param id the id of the new building (upgrade)\n   * @param index the index of the building (upgrade)\n   */\n  event UpgradeBuilding(address user, uint id, uint index);\n\n  /**\n   * event for adding the initial buildings to a user logging\n   * @param user the address of the user to add the buildings\n   * @param ids the IDs of the buildings to be added to user\n   */\n  event AddInitialBuildings(address user, uint[] ids);\n\n  /**\n   * event for removing buildings to a user logging\n   * @param user the address of the user to remove the buildings\n   * @param ids the IDs of the buildings to be removed\n   * @param indexes the indexes of the buildings to be removed\n   */\n  event RemoveUserBuildings(address user, uint[] ids, uint[] indexes);\n\n  /*\n   * event for initializing a new building right before the construction starts logging.\n   * @param _user the address of the user to initialize the buildings\n   * @param _id the id of the building to be initialize\n   */\n  event InitNewBuilding(address user, uint index);\n\n  struct Building {\n    uint id;\n    bool active;\n  }\n\n  // Mapping of user -> buildings ids (keeps track of owned buildings)\n  mapping (address => Building[]) public userBuildings;\n\n  BuildingsData buildingsData;\n  BuildingsQueue buildingsQueue;\n  UserBuildings previousUserBuildings;\n  UserResources userResources;\n  UserVillage userVillage;\n\n  /**\n   * @notice Constructor: Instantiate User Buildings contract.\n   * @dev Constructor function to provide User Buildings address and instantiate it.\n   */\n  constructor() public {\n  }\n\n  /**\n   * @notice Makes the contract type verifiable.\n   * @dev Function to prove the contract is User Buildings.\n   */\n  function isUserBuildings() external pure returns (bool) {\n    return true;\n  }\n\n  /**\n   * @notice Sets the contract's version and instantiates the previous version contract.\n   * @dev Function to set the contract version and instantiate the previous User Buildings.\n   * @param _previousUserBuildings the address of previous User Buildings contract. (address)\n   * @param _version the current contract version number. (uint)\n   */\n  function setUserBuildingsVersion(UserBuildings _previousUserBuildings, uint _version) external onlyOwner {\n    require(_previousUserBuildings.isUserBuildings());\n    require(_version > _previousUserBuildings.version());\n    previousUserBuildings = _previousUserBuildings;\n    setVersion(_version);\n  }\n\n  /**\n   * @notice Instantiate User Village contract.\n   * @dev Function to provide User Village address and instantiate it.\n   * @param _userVillage the address of User Village contract. (address)\n   */\n  function setUserVillage(UserVillage _userVillage) external onlyOwner {\n    require(_userVillage.isUserVillage());\n    userVillage = _userVillage;\n  }\n\n  /**\n   * @notice Instantiate User Resources contract.\n   * @dev Function to provide User Resources address and instantiate it.\n   * @param _userResources the address of User Resources contract. (address)\n   */\n  function setUserResources(UserResources _userResources) external onlyOwner {\n    require(_userResources.isUserResources());\n    userResources = _userResources;\n  }\n\n  /**\n   * @notice Instantiate Buildings Data contract.\n   * @dev Function to provide Buildings Data address and instantiate it.\n   * @param _buildingsData the address of Buildings Data contract. (address)\n   */\n  function setBuildingsData(BuildingsData _buildingsData) external onlyOwner {\n    require(_buildingsData.isBuildingsData());\n    buildingsData = _buildingsData;\n  }\n\n  /**\n   * @notice Instantiate Buildings Queue contract.\n   * @dev Function to provide Buildings Queue address and instantiate it.\n   * @param _buildingsQueue the address of Buildings Queue contract. (address)\n   */\n  function setBuildingsQueue(BuildingsQueue _buildingsQueue) external onlyOwner {\n    require(_buildingsQueue.isBuildingsQueue());\n    buildingsQueue = _buildingsQueue;\n  }\n\n  /*\n   * @title Add User Buildings\n   * @dev Function to add multiple buildings to a user\n   * @params _user the address of the user to add building. (address)\n   * @param _ids An array of IDs of the buildings to add. (uint)\n   * @param _indexes An array of indexes of the buildings to add. (uint)\n   * @return A boolean that indicates if the operation was successful.\n   */\n  function addUserBuildings(address _user, uint[] _ids, uint[] _indexes) external returns (bool) {\n    require(msg.sender == address(buildingsQueue));\n\n    require(_ids.length == _indexes.length);\n\n    uint length = _ids.length;\n\n    for (uint i = 0; i < length; i++) {\n      require(buildingsData.checkBuildingExist(_ids[i]));\n    }\n\n    for (uint j = 0; j < length; j++) {\n      userBuildings[_user][_indexes[j]] = Building(_ids[j], true);\n    }\n\n    emit AddUserBuildings(_user, _ids, _indexes);\n\n    return true;\n  }\n\n  /*\n   * @title Add Initial Buildings\n   * @dev Function to add the initial buildings to a user\n   * @param user the address of the user to add the buildings\n   * @param ids the IDs of the buildings to be added to user\n   * @return A boolean that indicates if the operation was successful.\n   */\n  function addInitialBuildings(address _user, uint[] _ids) external returns (bool) {\n    require(msg.sender == address(userVillage) || msg.sender == owner);\n\n    for (uint i = 0; i < _ids.length; i++) {\n      require(buildingsData.checkBuildingExist(_ids[i]));\n    }\n\n    for (uint j = 0; j < _ids.length; j++) {\n      userBuildings[_user].push(Building(_ids[j], true));\n    }\n\n    emit AddInitialBuildings(_user, _ids);\n\n    return true;\n  }\n\n  /*\n   * @title Init New Building\n   * @dev Function to initialize a new building right before the construction starts.\n   * Its added to the UserBuildings array to give it and index, and set as Active False.\n   * @param _user the address of the user to initialize the buildings\n   * @param _id the id of the building to be initialize\n   * @return A uint that indicates the index of the initialized building.\n   */\n  function initNewBuilding(address _user, uint _id) external returns (uint index) {\n    require(msg.sender == address(buildingsQueue) || msg.sender == owner);\n    require(buildingsData.checkBuildingExist(_id));\n\n    userBuildings[_user].push(Building(_id, false));\n\n    emit InitNewBuilding(_user, userBuildings[_user].length - 1);\n\n    return userBuildings[_user].length - 1;\n  }\n\n  /*\n   * @title Remove User Buildings\n   * @dev Function to disable multiple user buildings.\n   * The buildings are not removed from the array, they are all set to Active False.\n   * @param _user the address of the user to remove the buildings\n   * @param _ids the ids of the building to be removed\n   * @param _indexes the indexes of the building to be removed\n   * @return A boolean that indicates if the operation was successful.\n   */\n  function removeUserBuildings(address _user, uint[] _ids, uint[] _indexes) external returns (bool) {\n    require(msg.sender == address(buildingsQueue) || msg.sender == owner);\n    require(_ids.length == _indexes.length);\n\n    for (uint i = 0; i < _ids.length; i++) {\n      require(buildingsData.checkBuildingExist(_ids[i]));\n      require(userBuildings[_user][_indexes[i]].id == _ids[i]);\n      userBuildings[_user][_indexes[i]].active = false;\n    }\n\n    require(returnResourcesToUser(_user, _ids));\n\n    emit RemoveUserBuildings(_user, _ids, _indexes);\n\n    return true;\n  }\n\n  /*\n   * @title Upgrade Building\n   * @dev Function to upgrade a user building.\n   * The upgrade (building) replace the old building in the array.\n   * @param _user the address of the user\n   * @param _id the id of the upgrade\n   * @param _index the index of the building to be replace\n   * @return A boolean that indicates if the operation was successful.\n   */\n  function upgradeBuilding(address _user, uint _id, uint _index) external returns (bool) {\n    require(_user != address(0));\n    require(msg.sender == address(buildingsQueue));\n    require(userBuildings[_user][_index].id == _id);\n\n    userBuildings[_user][_index].active = false;\n\n    emit UpgradeBuilding(_user, _id, _index);\n\n    return true;\n  }\n\n  /*\n   * @title Get User Buildings Length\n   * @dev Function to get the buildings length of the specified address.\n   * @param _user The address to query the buildings length of. (address)\n   * @return A uint representing the array length of buildings owned by the user.\n   */\n  function getUserBuildingsLength(address _user) external view returns (uint length) {\n    return userBuildings[_user].length;\n  }\n\n  /*\n   * @title Get User Buildings\n   * @dev Function to get the buildings of the specified address.\n   * @param _user The address to query the buildings of. (address)\n   * @return A uint[] representing the array of buildings ids owned by the user.\n   */\n  function getUserBuildings(address _user) external view returns (uint[]) {\n    uint length = userBuildings[_user].length;\n    uint[] memory buildingIds = new uint[](length);\n    for (uint i = 0; i < length; i++) {\n      buildingIds[i] = userBuildings[_user][i].id;\n    }\n    return buildingIds;\n  }\n\n  /*\n   * @title Get Building Id and Status\n   * @dev Function to get the id and status of a building.\n   * @param _user The address to query the buildings of. (address)\n   * @param _index The index of the building. (uint)\n   * @return A uint representing the id and a bool representing if the building is active or not.\n   */\n  function getUserBuildingIdAndStatus(address _user, uint _index) external view returns (uint id, bool active) {\n    return (userBuildings[_user][_index].id, userBuildings[_user][_index].active);\n  }\n\n  /*\n   * @title Return Resources To User\n   * @dev Used when removing a building. Gets the price and resource type of the building\n   * been removed, and returns a percentage of the price to the user.\n   * @param _user The address of the user to return resources. (address)\n   * @param _ids The ids of the building been remove. (address)\n   * @return A boolean that indicates if the operation was successful.\n   */\n  function returnResourcesToUser(address _user, uint[] _ids) internal returns (bool) {\n    /*TODO: re-use this function in BuildingsQueue*/\n    uint price;\n    uint resourceType;\n    uint blocks;\n    for (uint i = 0; i < _ids.length; i++) {\n      (price, resourceType, blocks) = buildingsData.getBuildingData(_ids[i]);\n      if (price > 0) {\n        price = (price * 60 / 100);\n        if (resourceType == 0) {\n          userResources.giveResourcesToUser(_user, price, 0, 0);\n        }\n        if (resourceType == 1) {\n          userResources.giveResourcesToUser(_user, 0, price, 0);\n        }\n        if (resourceType == 2) {\n          userResources.giveResourcesToUser(_user, 0, 0, price);\n        }\n      }\n    }\n    return true;\n  }\n\n  /*\n   * @title Get User Rates\n   * @dev Function to iterate through the user buildings and calculate the gold and crystal rates.\n   * @param _user The address of the user to get the rates of. (address)\n   * @return A two uints that indicates if the amount of gold and crystal rates.\n   */\n  function getUserRates(address _user) external view returns (uint totalGoldRate, uint totalCrystalRate) {\n    uint goldRate;\n    uint crystalRate;\n\n\t\tfor (uint i = 0; i < userBuildings[_user].length; i++) {\n      if (userBuildings[_user][i].active == true) {\n        (goldRate, crystalRate) = buildingsData.getGoldAndCrystalRates(userBuildings[_user][i].id);\n        if (goldRate > 0) {\n          totalGoldRate = SafeMath.add(totalGoldRate, goldRate);\n        }\n\n        if (crystalRate > 0) {\n          totalCrystalRate = SafeMath.add(totalCrystalRate, crystalRate);\n        }\n      }\n    }\n\n    return (totalGoldRate, totalCrystalRate);\n\t}\n\n  /*\n   * @title Building Type is Unique\n   * @dev Function to check if the user has or not a specific building type in his buildings.\n   * @param _user The address of the user to get the rates of. (address)\n   * @param _typeid The id of the type to look for in the buildings. (uint)\n   * @param id The id of the building to be checked. (uint)\n   * @return An int that indicates if the user has or not that type of building.\n   * index -2: building type is not unique and the builiding cant be created.\n   * index -1: building type is unique and the building can be created. Must be initialized.\n   * index >= 0: building was deleted and must be created again. Modifing it's active variable to true.\n   */\n  function buildingTypeIsUnique(address _user, uint _typeId, uint _id) public view returns (int) {\n    uint i = 0;\n    while (i < userBuildings[_user].length) {\n      if (_typeId == buildingsData.getBuildingTypeId(userBuildings[_user][i].id)) {\n        if  (userBuildings[_user][i].active) {\n          return -2;\n        }\n\n        bool buildingIsInQueue;\n\n        (buildingIsInQueue,) = buildingsQueue.findBuildingInQueue(_user, _id, i);\n\n        if (buildingIsInQueue) {\n          return -2;\n        }\n\n        return int(i);\n      }\n      i++;\n    }\n    return -1;\n  }\n\n  /*\n   * @title Update Building Status.\n   * @dev Function to update the active status of the building.\n   * @param _user The owner of the building. (address)\n   * @param _id The id of the building to be updated. (uint)\n   * @param _index The Index of the building to be updated. (uint)\n   */\n  function updateBuildingStatus(address _user, uint _id, uint _index) external returns (bool) {\n    require(msg.sender == address(buildingsQueue));\n\n    if  (_id > 2000) {\n      require(userBuildings[_user][_index].id == _id - 1000);\n      userBuildings[_user][_index].active = true;\n      return true;\n    }\n\n    require(userBuildings[_user][_index].id == _id);\n    userBuildings[_user][_index].active = false;\n    return true;\n  }\n\n  /*\n   * @title Get User Resources Capacity.\n   * @dev Function to get the resources capacity of the buildings in user buildings.\n   * @param _user The address of the user. (address)\n   * @return Two uints representing the gold and crystal capacity of the buildings in queue.\n   */\n  function getUserResourcesCapacity(address _user) external view returns (uint totalGoldCapacity, uint totalCrystalCapacity) {\n    uint goldCapacity = 0;\n    uint crystalCapacity = 0;\n\n    for (uint i = 0; i < userBuildings[_user].length; i++) {\n      if (userBuildings[_user][i].active == true) {\n        (goldCapacity, crystalCapacity) = buildingsData.getGoldAndCrystalCapacity(userBuildings[_user][i].id);\n        if (goldCapacity > 0) {\n          totalGoldCapacity = SafeMath.add(totalGoldCapacity, goldCapacity);\n        }\n\n        if (crystalCapacity > 0) {\n          totalCrystalCapacity = SafeMath.add(totalCrystalCapacity, crystalCapacity);\n        }\n      }\n    }\n    return (totalGoldCapacity, totalCrystalCapacity);\n  }\n\n\n}\n",
  "sourcePath": "/home/francisco/Truffle/crypto-wars-solidity/contracts/UserBuildings.sol",
  "compiler": {
    "name": "solc",
    "version": "0.4.23+commit.124ca40d.Emscripten.clang"
  },
  "schemaVersion": "2.0.0",
  "updatedAt": "2018-04-26T19:14:33.808Z"
}