{
  "contractName": "UserResources",
  "abi": [
    {
      "constant": false,
      "inputs": [
        {
          "name": "token",
          "type": "address"
        }
      ],
      "name": "reclaimToken",
      "outputs": [],
      "payable": false,
      "stateMutability": "nonpayable",
      "type": "function"
    },
    {
      "constant": true,
      "inputs": [
        {
          "name": "",
          "type": "address"
        }
      ],
      "name": "usersPayoutBlock",
      "outputs": [
        {
          "name": "",
          "type": "uint256"
        }
      ],
      "payable": false,
      "stateMutability": "view",
      "type": "function"
    },
    {
      "constant": false,
      "inputs": [
        {
          "name": "contractAddr",
          "type": "address"
        }
      ],
      "name": "reclaimContract",
      "outputs": [],
      "payable": false,
      "stateMutability": "nonpayable",
      "type": "function"
    },
    {
      "constant": false,
      "inputs": [
        {
          "name": "_version",
          "type": "uint256"
        }
      ],
      "name": "setVersion",
      "outputs": [],
      "payable": false,
      "stateMutability": "nonpayable",
      "type": "function"
    },
    {
      "constant": true,
      "inputs": [],
      "name": "version",
      "outputs": [
        {
          "name": "",
          "type": "uint256"
        }
      ],
      "payable": false,
      "stateMutability": "view",
      "type": "function"
    },
    {
      "constant": true,
      "inputs": [
        {
          "name": "",
          "type": "address"
        }
      ],
      "name": "usersResources",
      "outputs": [
        {
          "name": "initialized",
          "type": "bool"
        },
        {
          "name": "gold",
          "type": "uint256"
        },
        {
          "name": "crystal",
          "type": "uint256"
        },
        {
          "name": "quantumDust",
          "type": "uint256"
        }
      ],
      "payable": false,
      "stateMutability": "view",
      "type": "function"
    },
    {
      "constant": true,
      "inputs": [],
      "name": "owner",
      "outputs": [
        {
          "name": "",
          "type": "address"
        }
      ],
      "payable": false,
      "stateMutability": "view",
      "type": "function"
    },
    {
      "constant": false,
      "inputs": [],
      "name": "reclaimEther",
      "outputs": [],
      "payable": false,
      "stateMutability": "nonpayable",
      "type": "function"
    },
    {
      "constant": true,
      "inputs": [
        {
          "name": "",
          "type": "address"
        }
      ],
      "name": "migratedUsers",
      "outputs": [
        {
          "name": "",
          "type": "bool"
        }
      ],
      "payable": false,
      "stateMutability": "view",
      "type": "function"
    },
    {
      "constant": false,
      "inputs": [
        {
          "name": "from_",
          "type": "address"
        },
        {
          "name": "value_",
          "type": "uint256"
        },
        {
          "name": "data_",
          "type": "bytes"
        }
      ],
      "name": "tokenFallback",
      "outputs": [],
      "payable": false,
      "stateMutability": "nonpayable",
      "type": "function"
    },
    {
      "constant": false,
      "inputs": [
        {
          "name": "_newContract",
          "type": "address"
        }
      ],
      "name": "migrateUser",
      "outputs": [],
      "payable": false,
      "stateMutability": "nonpayable",
      "type": "function"
    },
    {
      "constant": false,
      "inputs": [
        {
          "name": "newOwner",
          "type": "address"
        }
      ],
      "name": "transferOwnership",
      "outputs": [],
      "payable": false,
      "stateMutability": "nonpayable",
      "type": "function"
    },
    {
      "inputs": [],
      "payable": false,
      "stateMutability": "nonpayable",
      "type": "constructor"
    },
    {
      "payable": false,
      "stateMutability": "nonpayable",
      "type": "fallback"
    },
    {
      "anonymous": false,
      "inputs": [
        {
          "indexed": false,
          "name": "_user",
          "type": "address"
        },
        {
          "indexed": false,
          "name": "_gold",
          "type": "uint256"
        },
        {
          "indexed": false,
          "name": "_crystal",
          "type": "uint256"
        },
        {
          "indexed": false,
          "name": "_quantumDust",
          "type": "uint256"
        }
      ],
      "name": "InitUserResources",
      "type": "event"
    },
    {
      "anonymous": false,
      "inputs": [
        {
          "indexed": false,
          "name": "_user",
          "type": "address"
        },
        {
          "indexed": false,
          "name": "_gold",
          "type": "uint256"
        },
        {
          "indexed": false,
          "name": "_crystal",
          "type": "uint256"
        },
        {
          "indexed": false,
          "name": "_quantumDust",
          "type": "uint256"
        }
      ],
      "name": "GiveResourcesToUser",
      "type": "event"
    },
    {
      "anonymous": false,
      "inputs": [
        {
          "indexed": false,
          "name": "_user",
          "type": "address"
        },
        {
          "indexed": false,
          "name": "_price",
          "type": "uint256"
        }
      ],
      "name": "ConsumeGold",
      "type": "event"
    },
    {
      "anonymous": false,
      "inputs": [
        {
          "indexed": false,
          "name": "_user",
          "type": "address"
        },
        {
          "indexed": false,
          "name": "_price",
          "type": "uint256"
        }
      ],
      "name": "ConsumeCrystal",
      "type": "event"
    },
    {
      "anonymous": false,
      "inputs": [
        {
          "indexed": false,
          "name": "_user",
          "type": "address"
        },
        {
          "indexed": false,
          "name": "_price",
          "type": "uint256"
        }
      ],
      "name": "ConsumeQuantum",
      "type": "event"
    },
    {
      "anonymous": false,
      "inputs": [
        {
          "indexed": false,
          "name": "_gold",
          "type": "uint256"
        },
        {
          "indexed": false,
          "name": "_crystal",
          "type": "uint256"
        }
      ],
      "name": "PayoutResources",
      "type": "event"
    },
    {
      "anonymous": false,
      "inputs": [
        {
          "indexed": false,
          "name": "_gold",
          "type": "uint256"
        },
        {
          "indexed": false,
          "name": "_crystal",
          "type": "uint256"
        },
        {
          "indexed": false,
          "name": "_quantumDust",
          "type": "uint256"
        }
      ],
      "name": "SetInitialResources",
      "type": "event"
    },
    {
      "anonymous": false,
      "inputs": [
        {
          "indexed": true,
          "name": "user",
          "type": "address"
        },
        {
          "indexed": true,
          "name": "newContract",
          "type": "address"
        }
      ],
      "name": "UserMigrated",
      "type": "event"
    },
    {
      "anonymous": false,
      "inputs": [
        {
          "indexed": true,
          "name": "previousOwner",
          "type": "address"
        },
        {
          "indexed": true,
          "name": "newOwner",
          "type": "address"
        }
      ],
      "name": "OwnershipTransferred",
      "type": "event"
    },
    {
      "constant": true,
      "inputs": [],
      "name": "isUserResources",
      "outputs": [
        {
          "name": "",
          "type": "bool"
        }
      ],
      "payable": false,
      "stateMutability": "pure",
      "type": "function"
    },
    {
      "constant": false,
      "inputs": [
        {
          "name": "_previousUserResources",
          "type": "address"
        },
        {
          "name": "_version",
          "type": "uint256"
        }
      ],
      "name": "setUserResourcesVersion",
      "outputs": [],
      "payable": false,
      "stateMutability": "nonpayable",
      "type": "function"
    },
    {
      "constant": false,
      "inputs": [
        {
          "name": "_userVillage",
          "type": "address"
        }
      ],
      "name": "setUserVillage",
      "outputs": [],
      "payable": false,
      "stateMutability": "nonpayable",
      "type": "function"
    },
    {
      "constant": false,
      "inputs": [
        {
          "name": "_buildingsQueue",
          "type": "address"
        }
      ],
      "name": "setBuildingsQueue",
      "outputs": [],
      "payable": false,
      "stateMutability": "nonpayable",
      "type": "function"
    },
    {
      "constant": false,
      "inputs": [
        {
          "name": "_userBuildings",
          "type": "address"
        }
      ],
      "name": "setUserBuildings",
      "outputs": [],
      "payable": false,
      "stateMutability": "nonpayable",
      "type": "function"
    },
    {
      "constant": false,
      "inputs": [
        {
          "name": "_unitsQueue",
          "type": "address"
        }
      ],
      "name": "setUnitsQueue",
      "outputs": [],
      "payable": false,
      "stateMutability": "nonpayable",
      "type": "function"
    },
    {
      "constant": false,
      "inputs": [
        {
          "name": "_user",
          "type": "address"
        }
      ],
      "name": "initUserResources",
      "outputs": [
        {
          "name": "",
          "type": "bool"
        }
      ],
      "payable": false,
      "stateMutability": "nonpayable",
      "type": "function"
    },
    {
      "constant": true,
      "inputs": [
        {
          "name": "_user",
          "type": "address"
        }
      ],
      "name": "getUserResources",
      "outputs": [
        {
          "name": "gold",
          "type": "uint256"
        },
        {
          "name": "crystal",
          "type": "uint256"
        },
        {
          "name": "quantumDust",
          "type": "uint256"
        }
      ],
      "payable": false,
      "stateMutability": "view",
      "type": "function"
    },
    {
      "constant": false,
      "inputs": [
        {
          "name": "_gold",
          "type": "uint256"
        },
        {
          "name": "_crystal",
          "type": "uint256"
        },
        {
          "name": "_quantumDust",
          "type": "uint256"
        }
      ],
      "name": "setInitialResources",
      "outputs": [],
      "payable": false,
      "stateMutability": "nonpayable",
      "type": "function"
    },
    {
      "constant": false,
      "inputs": [
        {
          "name": "_user",
          "type": "address"
        },
        {
          "name": "_price",
          "type": "uint256"
        }
      ],
      "name": "consumeGold",
      "outputs": [
        {
          "name": "",
          "type": "bool"
        }
      ],
      "payable": false,
      "stateMutability": "nonpayable",
      "type": "function"
    },
    {
      "constant": false,
      "inputs": [
        {
          "name": "_user",
          "type": "address"
        },
        {
          "name": "_price",
          "type": "uint256"
        }
      ],
      "name": "consumeCrystal",
      "outputs": [
        {
          "name": "",
          "type": "bool"
        }
      ],
      "payable": false,
      "stateMutability": "nonpayable",
      "type": "function"
    },
    {
      "constant": false,
      "inputs": [
        {
          "name": "_user",
          "type": "address"
        },
        {
          "name": "_price",
          "type": "uint256"
        }
      ],
      "name": "consumeQuantumDust",
      "outputs": [
        {
          "name": "",
          "type": "bool"
        }
      ],
      "payable": false,
      "stateMutability": "nonpayable",
      "type": "function"
    },
    {
      "constant": false,
      "inputs": [
        {
          "name": "_user",
          "type": "address"
        },
        {
          "name": "_gold",
          "type": "uint256"
        },
        {
          "name": "_crystal",
          "type": "uint256"
        },
        {
          "name": "_quantumDust",
          "type": "uint256"
        }
      ],
      "name": "giveResourcesToUser",
      "outputs": [],
      "payable": false,
      "stateMutability": "nonpayable",
      "type": "function"
    },
    {
      "constant": false,
      "inputs": [
        {
          "name": "_user",
          "type": "address"
        }
      ],
      "name": "initPayoutBlock",
      "outputs": [],
      "payable": false,
      "stateMutability": "nonpayable",
      "type": "function"
    },
    {
      "constant": false,
      "inputs": [
        {
          "name": "_user",
          "type": "address"
        }
      ],
      "name": "payoutResources",
      "outputs": [],
      "payable": false,
      "stateMutability": "nonpayable",
      "type": "function"
    },
    {
      "constant": true,
      "inputs": [
        {
          "name": "_user",
          "type": "address"
        }
      ],
      "name": "calculateUserResources",
      "outputs": [
        {
          "name": "userGold",
          "type": "uint256"
        },
        {
          "name": "userCrystal",
          "type": "uint256"
        }
      ],
      "payable": false,
      "stateMutability": "view",
      "type": "function"
    },
    {
      "constant": true,
      "inputs": [
        {
          "name": "_user",
          "type": "address"
        }
      ],
      "name": "calculateUserResourcesCapacity",
      "outputs": [
        {
          "name": "goldCapacity",
          "type": "uint256"
        },
        {
          "name": "crystalCapacity",
          "type": "uint256"
        }
      ],
      "payable": false,
      "stateMutability": "view",
      "type": "function"
    },
    {
      "constant": true,
      "inputs": [
        {
          "name": "_user",
          "type": "address"
        }
      ],
      "name": "getUserPayoutBlock",
      "outputs": [
        {
          "name": "",
          "type": "uint256"
        }
      ],
      "payable": false,
      "stateMutability": "view",
      "type": "function"
    }
  ],
  "bytecode": "0x608060405260006003556000600455600060055534801561001f57600080fd5b50336000806101000a81548173ffffffffffffffffffffffffffffffffffffffff021916908373ffffffffffffffffffffffffffffffffffffffff16021790555060003414151561006f57600080fd5b6133d98061007e6000396000f300608060405260043610610180576000357c0100000000000000000000000000000000000000000000000000000000900463ffffffff168063142ed0431461018f57806317ffc320146101f45780631ede904314610237578063243572111461028e5780632729663c146102d157806328624942146103285780632aed7f3f146103865780632f2e88f0146103c9578063408def1e1461042e57806354fd4d501461045b5780635d0365001461048657806377889afa146104f65780637c137edd146105395780638da5cb5b1461057c5780638e69ce58146105d35780639c7aab0a146106165780639f727c2714610663578063a26311331461067a578063ac42c67b146106bb578063b1dc576f1461071c578063bbe768a41461075f578063bd6b4ed9146107ba578063c0ee0b8a14610815578063ce5a77c91461087a578063dd6c7e31146108bd578063ec3191e914610900578063f229a41514610965578063f2fde38b14610994578063f6c55202146109d7578063f76611f814610a3c575b34801561018c57600080fd5b50005b34801561019b57600080fd5b506101da600480360381019080803573ffffffffffffffffffffffffffffffffffffffff16906020019092919080359060200190929190505050610a9a565b604051808215151515815260200191505060405180910390f35b34801561020057600080fd5b50610235600480360381019080803573ffffffffffffffffffffffffffffffffffffffff169060200190929190505050610d08565b005b34801561024357600080fd5b50610278600480360381019080803573ffffffffffffffffffffffffffffffffffffffff169060200190929190505050610e8d565b6040518082815260200191505060405180910390f35b34801561029a57600080fd5b506102cf600480360381019080803573ffffffffffffffffffffffffffffffffffffffff169060200190929190505050610ed6565b005b3480156102dd57600080fd5b50610312600480360381019080803573ffffffffffffffffffffffffffffffffffffffff16906020019092919050505061101f565b6040518082815260200191505060405180910390f35b34801561033457600080fd5b50610369600480360381019080803573ffffffffffffffffffffffffffffffffffffffff169060200190929190505050611037565b604051808381526020018281526020019250505060405180910390f35b34801561039257600080fd5b506103c7600480360381019080803573ffffffffffffffffffffffffffffffffffffffff1690602001909291905050506112e6565b005b3480156103d557600080fd5b50610414600480360381019080803573ffffffffffffffffffffffffffffffffffffffff1690602001909291908035906020019092919050505061141e565b604051808215151515815260200191505060405180910390f35b34801561043a57600080fd5b5061045960048036038101908080359060200190929190505050611683565b005b34801561046757600080fd5b506104706116e8565b6040518082815260200191505060405180910390f35b34801561049257600080fd5b506104c7600480360381019080803573ffffffffffffffffffffffffffffffffffffffff1690602001909291905050506116ee565b604051808515151515815260200184815260200183815260200182815260200194505050505060405180910390f35b34801561050257600080fd5b50610537600480360381019080803573ffffffffffffffffffffffffffffffffffffffff16906020019092919050505061172b565b005b34801561054557600080fd5b5061057a600480360381019080803573ffffffffffffffffffffffffffffffffffffffff169060200190929190505050611874565b005b34801561058857600080fd5b5061059161196e565b604051808273ffffffffffffffffffffffffffffffffffffffff1673ffffffffffffffffffffffffffffffffffffffff16815260200191505060405180910390f35b3480156105df57600080fd5b50610614600480360381019080803573ffffffffffffffffffffffffffffffffffffffff169060200190929190505050611993565b005b34801561062257600080fd5b50610661600480360381019080803573ffffffffffffffffffffffffffffffffffffffff16906020019092919080359060200190929190505050611dc5565b005b34801561066f57600080fd5b50610678611fc4565b005b34801561068657600080fd5b506106b9600480360381019080803590602001909291908035906020019092919080359060200190929190505050612096565b005b3480156106c757600080fd5b5061071a600480360381019080803573ffffffffffffffffffffffffffffffffffffffff16906020019092919080359060200190929190803590602001909291908035906020019092919050505061219d565b005b34801561072857600080fd5b5061075d600480360381019080803573ffffffffffffffffffffffffffffffffffffffff169060200190929190505050612419565b005b34801561076b57600080fd5b506107a0600480360381019080803573ffffffffffffffffffffffffffffffffffffffff169060200190929190505050612562565b604051808215151515815260200191505060405180910390f35b3480156107c657600080fd5b506107fb600480360381019080803573ffffffffffffffffffffffffffffffffffffffff169060200190929190505050612582565b604051808215151515815260200191505060405180910390f35b34801561082157600080fd5b50610878600480360381019080803573ffffffffffffffffffffffffffffffffffffffff16906020019092919080359060200190929190803590602001908201803590602001919091929391929390505050612853565b005b34801561088657600080fd5b506108bb600480360381019080803573ffffffffffffffffffffffffffffffffffffffff169060200190929190505050612858565b005b3480156108c957600080fd5b506108fe600480360381019080803573ffffffffffffffffffffffffffffffffffffffff1690602001909291905050506129a1565b005b34801561090c57600080fd5b5061094b600480360381019080803573ffffffffffffffffffffffffffffffffffffffff16906020019092919080359060200190929190505050612b64565b604051808215151515815260200191505060405180910390f35b34801561097157600080fd5b5061097a612dd2565b604051808215151515815260200191505060405180910390f35b3480156109a057600080fd5b506109d5600480360381019080803573ffffffffffffffffffffffffffffffffffffffff169060200190929190505050612ddb565b005b3480156109e357600080fd5b50610a18600480360381019080803573ffffffffffffffffffffffffffffffffffffffff169060200190929190505050612f30565b60405180848152602001838152602001828152602001935050505060405180910390f35b348015610a4857600080fd5b50610a7d600480360381019080803573ffffffffffffffffffffffffffffffffffffffff16906020019092919050505061300b565b604051808381526020018281526020019250505060405180910390f35b6000600860009054906101000a900473ffffffffffffffffffffffffffffffffffffffff1673ffffffffffffffffffffffffffffffffffffffff163373ffffffffffffffffffffffffffffffffffffffff161480610b455750600960009054906101000a900473ffffffffffffffffffffffffffffffffffffffff1673ffffffffffffffffffffffffffffffffffffffff163373ffffffffffffffffffffffffffffffffffffffff16145b80610b9c57506000809054906101000a900473ffffffffffffffffffffffffffffffffffffffff1673ffffffffffffffffffffffffffffffffffffffff163373ffffffffffffffffffffffffffffffffffffffff16145b1515610ba757600080fd5b610bb083611993565b81600660008573ffffffffffffffffffffffffffffffffffffffff1673ffffffffffffffffffffffffffffffffffffffff1681526020019081526020016000206002015410151515610c0157600080fd5b610c4d600660008573ffffffffffffffffffffffffffffffffffffffff1673ffffffffffffffffffffffffffffffffffffffff1681526020019081526020016000206002015483613250565b600660008573ffffffffffffffffffffffffffffffffffffffff1673ffffffffffffffffffffffffffffffffffffffff168152602001908152602001600020600201819055507f955b62cb64131a07d6f9880467771f5b08ddeadfbe3886956a7121c4a0dfa0bf8383604051808373ffffffffffffffffffffffffffffffffffffffff1673ffffffffffffffffffffffffffffffffffffffff1681526020018281526020019250505060405180910390a16001905092915050565b60008060009054906101000a900473ffffffffffffffffffffffffffffffffffffffff1673ffffffffffffffffffffffffffffffffffffffff163373ffffffffffffffffffffffffffffffffffffffff16141515610d6557600080fd5b8173ffffffffffffffffffffffffffffffffffffffff166370a08231306040518263ffffffff167c0100000000000000000000000000000000000000000000000000000000028152600401808273ffffffffffffffffffffffffffffffffffffffff1673ffffffffffffffffffffffffffffffffffffffff168152602001915050602060405180830381600087803b158015610e0057600080fd5b505af1158015610e14573d6000803e3d6000fd5b505050506040513d6020811015610e2a57600080fd5b81019080805190602001909291905050509050610e896000809054906101000a900473ffffffffffffffffffffffffffffffffffffffff16828473ffffffffffffffffffffffffffffffffffffffff166132699092919063ffffffff16565b5050565b6000600760008373ffffffffffffffffffffffffffffffffffffffff1673ffffffffffffffffffffffffffffffffffffffff168152602001908152602001600020549050919050565b6000809054906101000a900473ffffffffffffffffffffffffffffffffffffffff1673ffffffffffffffffffffffffffffffffffffffff163373ffffffffffffffffffffffffffffffffffffffff16141515610f3157600080fd5b8073ffffffffffffffffffffffffffffffffffffffff166319d6dfae6040518163ffffffff167c0100000000000000000000000000000000000000000000000000000000028152600401602060405180830381600087803b158015610f9557600080fd5b505af1158015610fa9573d6000803e3d6000fd5b505050506040513d6020811015610fbf57600080fd5b81019080805190602001909291905050501515610fdb57600080fd5b80600b60006101000a81548173ffffffffffffffffffffffffffffffffffffffff021916908373ffffffffffffffffffffffffffffffffffffffff16021790555050565b60076020528060005260406000206000915090505481565b600080600080600061108843600760008973ffffffffffffffffffffffffffffffffffffffff1673ffffffffffffffffffffffffffffffffffffffff16815260200190815260200160002054613250565b925060008311156112d8576000915060009050600b60009054906101000a900473ffffffffffffffffffffffffffffffffffffffff1673ffffffffffffffffffffffffffffffffffffffff16639f6650d6876040518263ffffffff167c0100000000000000000000000000000000000000000000000000000000028152600401808273ffffffffffffffffffffffffffffffffffffffff1673ffffffffffffffffffffffffffffffffffffffff1681526020019150506040805180830381600087803b15801561115757600080fd5b505af115801561116b573d6000803e3d6000fd5b505050506040513d604081101561118157600080fd5b8101908080519060200190929190805190602001909291905050508092508193505050600860009054906101000a900473ffffffffffffffffffffffffffffffffffffffff1673ffffffffffffffffffffffffffffffffffffffff1663ec87155d876040518263ffffffff167c0100000000000000000000000000000000000000000000000000000000028152600401808273ffffffffffffffffffffffffffffffffffffffff1673ffffffffffffffffffffffffffffffffffffffff1681526020019150506040805180830381600087803b15801561126057600080fd5b505af1158015611274573d6000803e3d6000fd5b505050506040513d604081101561128a57600080fd5b81019080805190602001909291908051906020019092919050505080955081965050506112c0856112bb8486613354565b61338f565b94506112d5846112d08386613354565b61338f565b93505b848494509450505050915091565b60008060009054906101000a900473ffffffffffffffffffffffffffffffffffffffff1673ffffffffffffffffffffffffffffffffffffffff163373ffffffffffffffffffffffffffffffffffffffff1614151561134357600080fd5b8190508073ffffffffffffffffffffffffffffffffffffffff1663f2fde38b6000809054906101000a900473ffffffffffffffffffffffffffffffffffffffff166040518263ffffffff167c0100000000000000000000000000000000000000000000000000000000028152600401808273ffffffffffffffffffffffffffffffffffffffff1673ffffffffffffffffffffffffffffffffffffffff168152602001915050600060405180830381600087803b15801561140257600080fd5b505af1158015611416573d6000803e3d6000fd5b505050505050565b6000600860009054906101000a900473ffffffffffffffffffffffffffffffffffffffff1673ffffffffffffffffffffffffffffffffffffffff163373ffffffffffffffffffffffffffffffffffffffff1614806114c95750600960009054906101000a900473ffffffffffffffffffffffffffffffffffffffff1673ffffffffffffffffffffffffffffffffffffffff163373ffffffffffffffffffffffffffffffffffffffff16145b8061152057506000809054906101000a900473ffffffffffffffffffffffffffffffffffffffff1673ffffffffffffffffffffffffffffffffffffffff163373ffffffffffffffffffffffffffffffffffffffff16145b151561152b57600080fd5b81600660008573ffffffffffffffffffffffffffffffffffffffff1673ffffffffffffffffffffffffffffffffffffffff168152602001908152602001600020600301541015151561157c57600080fd5b6115c8600660008573ffffffffffffffffffffffffffffffffffffffff1673ffffffffffffffffffffffffffffffffffffffff1681526020019081526020016000206003015483613250565b600660008573ffffffffffffffffffffffffffffffffffffffff1673ffffffffffffffffffffffffffffffffffffffff168152602001908152602001600020600301819055507f31256573c81ce5b84c7d8b84b9679b324513f8b09439fe3a0d7d0f79c0f22f6b8383604051808373ffffffffffffffffffffffffffffffffffffffff1673ffffffffffffffffffffffffffffffffffffffff1681526020018281526020019250505060405180910390a16001905092915050565b6000809054906101000a900473ffffffffffffffffffffffffffffffffffffffff1673ffffffffffffffffffffffffffffffffffffffff163373ffffffffffffffffffffffffffffffffffffffff161415156116de57600080fd5b8060018190555050565b60015481565b60066020528060005260406000206000915090508060000160009054906101000a900460ff16908060010154908060020154908060030154905084565b6000809054906101000a900473ffffffffffffffffffffffffffffffffffffffff1673ffffffffffffffffffffffffffffffffffffffff163373ffffffffffffffffffffffffffffffffffffffff1614151561178657600080fd5b8073ffffffffffffffffffffffffffffffffffffffff1663bfb4bbae6040518163ffffffff167c0100000000000000000000000000000000000000000000000000000000028152600401602060405180830381600087803b1580156117ea57600080fd5b505af11580156117fe573d6000803e3d6000fd5b505050506040513d602081101561181457600080fd5b8101908080519060200190929190505050151561183057600080fd5b80600860006101000a81548173ffffffffffffffffffffffffffffffffffffffff021916908373ffffffffffffffffffffffffffffffffffffffff16021790555050565b600c60009054906101000a900473ffffffffffffffffffffffffffffffffffffffff1673ffffffffffffffffffffffffffffffffffffffff163373ffffffffffffffffffffffffffffffffffffffff16148061191c57506000809054906101000a900473ffffffffffffffffffffffffffffffffffffffff1673ffffffffffffffffffffffffffffffffffffffff163373ffffffffffffffffffffffffffffffffffffffff16145b151561192757600080fd5b43600760008373ffffffffffffffffffffffffffffffffffffffff1673ffffffffffffffffffffffffffffffffffffffff1681526020019081526020016000208190555050565b6000809054906101000a900473ffffffffffffffffffffffffffffffffffffffff1681565b60008060008060006119e443600760008973ffffffffffffffffffffffffffffffffffffffff1673ffffffffffffffffffffffffffffffffffffffff16815260200190815260200160002054613250565b94506000851115611dbd5760009350600092506000915060009050611a0886611037565b8094508195505050611a198661300b565b80925081935050506000841115611bad57611a76600660008873ffffffffffffffffffffffffffffffffffffffff1673ffffffffffffffffffffffffffffffffffffffff168152602001908152602001600020600101548561338f565b82111515611ac65781600660008873ffffffffffffffffffffffffffffffffffffffff1673ffffffffffffffffffffffffffffffffffffffff168152602001908152602001600020600101819055505b611b12600660008873ffffffffffffffffffffffffffffffffffffffff1673ffffffffffffffffffffffffffffffffffffffff168152602001908152602001600020600101548561338f565b821115611bac57611b65600660008873ffffffffffffffffffffffffffffffffffffffff1673ffffffffffffffffffffffffffffffffffffffff168152602001908152602001600020600101548561338f565b600660008873ffffffffffffffffffffffffffffffffffffffff1673ffffffffffffffffffffffffffffffffffffffff168152602001908152602001600020600101819055505b5b6000831115611d3957611c02600660008873ffffffffffffffffffffffffffffffffffffffff1673ffffffffffffffffffffffffffffffffffffffff168152602001908152602001600020600201548461338f565b81111515611c525780600660008873ffffffffffffffffffffffffffffffffffffffff1673ffffffffffffffffffffffffffffffffffffffff168152602001908152602001600020600201819055505b611c9e600660008873ffffffffffffffffffffffffffffffffffffffff1673ffffffffffffffffffffffffffffffffffffffff168152602001908152602001600020600201548461338f565b811115611d3857611cf1600660008873ffffffffffffffffffffffffffffffffffffffff1673ffffffffffffffffffffffffffffffffffffffff168152602001908152602001600020600201548461338f565b600660008873ffffffffffffffffffffffffffffffffffffffff1673ffffffffffffffffffffffffffffffffffffffff168152602001908152602001600020600201819055505b5b43600760008873ffffffffffffffffffffffffffffffffffffffff1673ffffffffffffffffffffffffffffffffffffffff168152602001908152602001600020819055507fda5bf3ca8a00d4e67e26e80bfdef37638f08e5e673d015c93c87c3c6697141c88484604051808381526020018281526020019250505060405180910390a15b505050505050565b6000809054906101000a900473ffffffffffffffffffffffffffffffffffffffff1673ffffffffffffffffffffffffffffffffffffffff163373ffffffffffffffffffffffffffffffffffffffff16141515611e2057600080fd5b8173ffffffffffffffffffffffffffffffffffffffff1663f229a4156040518163ffffffff167c0100000000000000000000000000000000000000000000000000000000028152600401602060405180830381600087803b158015611e8457600080fd5b505af1158015611e98573d6000803e3d6000fd5b505050506040513d6020811015611eae57600080fd5b81019080805190602001909291905050501515611eca57600080fd5b8173ffffffffffffffffffffffffffffffffffffffff166354fd4d506040518163ffffffff167c0100000000000000000000000000000000000000000000000000000000028152600401602060405180830381600087803b158015611f2e57600080fd5b505af1158015611f42573d6000803e3d6000fd5b505050506040513d6020811015611f5857600080fd5b810190808051906020019092919050505081111515611f7657600080fd5b81600a60006101000a81548173ffffffffffffffffffffffffffffffffffffffff021916908373ffffffffffffffffffffffffffffffffffffffff160217905550611fc081611683565b5050565b6000809054906101000a900473ffffffffffffffffffffffffffffffffffffffff1673ffffffffffffffffffffffffffffffffffffffff163373ffffffffffffffffffffffffffffffffffffffff1614151561201f57600080fd5b6000809054906101000a900473ffffffffffffffffffffffffffffffffffffffff1673ffffffffffffffffffffffffffffffffffffffff166108fc3073ffffffffffffffffffffffffffffffffffffffff16319081150290604051600060405180830381858888f19350505050151561209457fe5b565b6000809054906101000a900473ffffffffffffffffffffffffffffffffffffffff1673ffffffffffffffffffffffffffffffffffffffff163373ffffffffffffffffffffffffffffffffffffffff161415156120f157600080fd5b6000831015801561210457508260035414155b1561211157826003819055505b6000821015801561212457508160045414155b1561213157816004819055505b6000811015801561214457508060055414155b1561215157806005819055505b7f6862a25d0001b4d08fb0da21066be0d7d96a3aaeee8a6554023262cde1bd4e9e83838360405180848152602001838152602001828152602001935050505060405180910390a1505050565b6000809054906101000a900473ffffffffffffffffffffffffffffffffffffffff1673ffffffffffffffffffffffffffffffffffffffff163373ffffffffffffffffffffffffffffffffffffffff1614806122455750600860009054906101000a900473ffffffffffffffffffffffffffffffffffffffff1673ffffffffffffffffffffffffffffffffffffffff163373ffffffffffffffffffffffffffffffffffffffff16145b8061229d5750600b60009054906101000a900473ffffffffffffffffffffffffffffffffffffffff1673ffffffffffffffffffffffffffffffffffffffff163373ffffffffffffffffffffffffffffffffffffffff16145b15156122a857600080fd5b82600660008673ffffffffffffffffffffffffffffffffffffffff1673ffffffffffffffffffffffffffffffffffffffff1681526020019081526020016000206001016000828254019250508190555081600660008673ffffffffffffffffffffffffffffffffffffffff1673ffffffffffffffffffffffffffffffffffffffff1681526020019081526020016000206002016000828254019250508190555080600660008673ffffffffffffffffffffffffffffffffffffffff1673ffffffffffffffffffffffffffffffffffffffff168152602001908152602001600020600301600082825401925050819055507f56c83da31f10f70f5e0e4a85870dd477ba4cb363d484c5934a030a7b75d2d4e284848484604051808573ffffffffffffffffffffffffffffffffffffffff1673ffffffffffffffffffffffffffffffffffffffff16815260200184815260200183815260200182815260200194505050505060405180910390a150505050565b6000809054906101000a900473ffffffffffffffffffffffffffffffffffffffff1673ffffffffffffffffffffffffffffffffffffffff163373ffffffffffffffffffffffffffffffffffffffff1614151561247457600080fd5b8073ffffffffffffffffffffffffffffffffffffffff1663c19d6f5f6040518163ffffffff167c0100000000000000000000000000000000000000000000000000000000028152600401602060405180830381600087803b1580156124d857600080fd5b505af11580156124ec573d6000803e3d6000fd5b505050506040513d602081101561250257600080fd5b8101908080519060200190929190505050151561251e57600080fd5b80600c60006101000a81548173ffffffffffffffffffffffffffffffffffffffff021916908373ffffffffffffffffffffffffffffffffffffffff16021790555050565b60026020528060005260406000206000915054906101000a900460ff1681565b6000600c60009054906101000a900473ffffffffffffffffffffffffffffffffffffffff1673ffffffffffffffffffffffffffffffffffffffff163373ffffffffffffffffffffffffffffffffffffffff16148061262c57506000809054906101000a900473ffffffffffffffffffffffffffffffffffffffff1673ffffffffffffffffffffffffffffffffffffffff163373ffffffffffffffffffffffffffffffffffffffff16145b151561263757600080fd5b600660008373ffffffffffffffffffffffffffffffffffffffff1673ffffffffffffffffffffffffffffffffffffffff16815260200190815260200160002060000160009054906101000a900460ff1615151561269357600080fd5b6001600660008473ffffffffffffffffffffffffffffffffffffffff1673ffffffffffffffffffffffffffffffffffffffff16815260200190815260200160002060000160006101000a81548160ff021916908315150217905550600354600660008473ffffffffffffffffffffffffffffffffffffffff1673ffffffffffffffffffffffffffffffffffffffff16815260200190815260200160002060010181905550600454600660008473ffffffffffffffffffffffffffffffffffffffff1673ffffffffffffffffffffffffffffffffffffffff16815260200190815260200160002060020181905550600554600660008473ffffffffffffffffffffffffffffffffffffffff1673ffffffffffffffffffffffffffffffffffffffff168152602001908152602001600020600301819055507f6547981d969434c46d20151ead2da0a8e75c6511827b33319532854b59c2b8a882600354600454600554604051808573ffffffffffffffffffffffffffffffffffffffff1673ffffffffffffffffffffffffffffffffffffffff16815260200184815260200183815260200182815260200194505050505060405180910390a160019050919050565b600080fd5b6000809054906101000a900473ffffffffffffffffffffffffffffffffffffffff1673ffffffffffffffffffffffffffffffffffffffff163373ffffffffffffffffffffffffffffffffffffffff161415156128b357600080fd5b8073ffffffffffffffffffffffffffffffffffffffff166341002a476040518163ffffffff167c0100000000000000000000000000000000000000000000000000000000028152600401602060405180830381600087803b15801561291757600080fd5b505af115801561292b573d6000803e3d6000fd5b505050506040513d602081101561294157600080fd5b8101908080519060200190929190505050151561295d57600080fd5b80600960006101000a81548173ffffffffffffffffffffffffffffffffffffffff021916908373ffffffffffffffffffffffffffffffffffffffff16021790555050565b60011515600260003373ffffffffffffffffffffffffffffffffffffffff1673ffffffffffffffffffffffffffffffffffffffff16815260200190815260200160002060009054906101000a900460ff16151514151515612a0157600080fd5b6001548173ffffffffffffffffffffffffffffffffffffffff166354fd4d506040518163ffffffff167c0100000000000000000000000000000000000000000000000000000000028152600401602060405180830381600087803b158015612a6857600080fd5b505af1158015612a7c573d6000803e3d6000fd5b505050506040513d6020811015612a9257600080fd5b8101908080519060200190929190505050111515612aaf57600080fd5b6001600260003373ffffffffffffffffffffffffffffffffffffffff1673ffffffffffffffffffffffffffffffffffffffff16815260200190815260200160002060006101000a81548160ff0219169083151502179055508073ffffffffffffffffffffffffffffffffffffffff163373ffffffffffffffffffffffffffffffffffffffff167fc123aa2e5c63456c59a4694ac50ba610152278a01162f3d5e3a6ffc457bc586e60405160405180910390a350565b6000600860009054906101000a900473ffffffffffffffffffffffffffffffffffffffff1673ffffffffffffffffffffffffffffffffffffffff163373ffffffffffffffffffffffffffffffffffffffff161480612c0f5750600960009054906101000a900473ffffffffffffffffffffffffffffffffffffffff1673ffffffffffffffffffffffffffffffffffffffff163373ffffffffffffffffffffffffffffffffffffffff16145b80612c6657506000809054906101000a900473ffffffffffffffffffffffffffffffffffffffff1673ffffffffffffffffffffffffffffffffffffffff163373ffffffffffffffffffffffffffffffffffffffff16145b1515612c7157600080fd5b612c7a83611993565b81600660008573ffffffffffffffffffffffffffffffffffffffff1673ffffffffffffffffffffffffffffffffffffffff1681526020019081526020016000206001015410151515612ccb57600080fd5b612d17600660008573ffffffffffffffffffffffffffffffffffffffff1673ffffffffffffffffffffffffffffffffffffffff1681526020019081526020016000206001015483613250565b600660008573ffffffffffffffffffffffffffffffffffffffff1673ffffffffffffffffffffffffffffffffffffffff168152602001908152602001600020600101819055507fc5d838e50d036135856735e0fdb074bb5edacbb457ede6ff246b76f8365d6e038383604051808373ffffffffffffffffffffffffffffffffffffffff1673ffffffffffffffffffffffffffffffffffffffff1681526020018281526020019250505060405180910390a16001905092915050565b60006001905090565b6000809054906101000a900473ffffffffffffffffffffffffffffffffffffffff1673ffffffffffffffffffffffffffffffffffffffff163373ffffffffffffffffffffffffffffffffffffffff16141515612e3657600080fd5b600073ffffffffffffffffffffffffffffffffffffffff168173ffffffffffffffffffffffffffffffffffffffff1614151515612e7257600080fd5b8073ffffffffffffffffffffffffffffffffffffffff166000809054906101000a900473ffffffffffffffffffffffffffffffffffffffff1673ffffffffffffffffffffffffffffffffffffffff167f8be0079c531659141344cd1fd0a4f28419497f9722a3daafe3b4186f6b6457e060405160405180910390a3806000806101000a81548173ffffffffffffffffffffffffffffffffffffffff021916908373ffffffffffffffffffffffffffffffffffffffff16021790555050565b6000806000600660008573ffffffffffffffffffffffffffffffffffffffff1673ffffffffffffffffffffffffffffffffffffffff16815260200190815260200160002060010154600660008673ffffffffffffffffffffffffffffffffffffffff1673ffffffffffffffffffffffffffffffffffffffff16815260200190815260200160002060020154600660008773ffffffffffffffffffffffffffffffffffffffff1673ffffffffffffffffffffffffffffffffffffffff168152602001908152602001600020600301549250925092509193909250565b6000806000806000915060009050600b60009054906101000a900473ffffffffffffffffffffffffffffffffffffffff1673ffffffffffffffffffffffffffffffffffffffff1663eb80520d866040518263ffffffff167c0100000000000000000000000000000000000000000000000000000000028152600401808273ffffffffffffffffffffffffffffffffffffffff1673ffffffffffffffffffffffffffffffffffffffff1681526020019150506040805180830381600087803b1580156130d557600080fd5b505af11580156130e9573d6000803e3d6000fd5b505050506040513d60408110156130ff57600080fd5b8101908080519060200190929190805190602001909291905050508094508195505050600860009054906101000a900473ffffffffffffffffffffffffffffffffffffffff1673ffffffffffffffffffffffffffffffffffffffff1663eb80520d866040518263ffffffff167c0100000000000000000000000000000000000000000000000000000000028152600401808273ffffffffffffffffffffffffffffffffffffffff1673ffffffffffffffffffffffffffffffffffffffff1681526020019150506040805180830381600087803b1580156131de57600080fd5b505af11580156131f2573d6000803e3d6000fd5b505050506040513d604081101561320857600080fd5b8101908080519060200190929190805190602001909291905050508092508193505050613235848361338f565b9350613241838261338f565b92508383935093505050915091565b600082821115151561325e57fe5b818303905092915050565b8273ffffffffffffffffffffffffffffffffffffffff1663a9059cbb83836040518363ffffffff167c0100000000000000000000000000000000000000000000000000000000028152600401808373ffffffffffffffffffffffffffffffffffffffff1673ffffffffffffffffffffffffffffffffffffffff16815260200182815260200192505050602060405180830381600087803b15801561330c57600080fd5b505af1158015613320573d6000803e3d6000fd5b505050506040513d602081101561333657600080fd5b8101908080519060200190929190505050151561334f57fe5b505050565b60008060008414156133695760009150613388565b828402905082848281151561337a57fe5b0414151561338457fe5b8091505b5092915050565b60008082840190508381101515156133a357fe5b80915050929150505600a165627a7a72305820cd771e287d9660b347086154de871657d2f7f147fd94b433244e6a6e8078f5530029",
  "source": "pragma solidity ^0.4.23;\n\nimport 'zeppelin-solidity/contracts/math/SafeMath.sol';\nimport 'zeppelin-solidity/contracts/ownership/NoOwner.sol';\nimport './BuildingsQueue.sol';\nimport './UserBuildings.sol';\nimport './UserVillage.sol';\nimport './UnitsQueue.sol';\nimport './Versioned.sol';\n\n/*\n * @title UserResources (WIP)\n * @notice This contract handles the user resources.\n * @dev Keeps track of users active resources.\n * Additional functionality might be added to ...\n * @dev Issue: * https://github.com/e11-io/crypto-wars-solidity/issues/6\n */\ncontract UserResources is NoOwner, Versioned {\n\n\t/*\n   * @event Event for initializing user resources.\n   * @param _user who receives the resources.\n\t * @param _gold the amount of gold.\n\t * @param _crystal the amount of crystal.\n\t * @param _quantumDust the amount of quantum Dust.\n   */\n\tevent InitUserResources(address _user,\n\t\t \t\t\t\t\t\t\t\t\t\t\tuint _gold,\n\t\t\t\t\t\t\t\t\t\t\t\t\tuint _crystal,\n\t\t\t\t\t\t\t\t\t\t\t\t\tuint _quantumDust);\n\n\t/*\n\t * @event Event for giving resources to a user.\n\t * @param _user who receives the resources.\n\t * @param _gold the amount of gold.\n\t * @param _crystal the amount of crystal.\n\t * @param _quantumDust the amount of quantum Dust.\n\t */\n  event GiveResourcesToUser(address _user,\n\t\t\t\t\t\t\t\t\t\t\t\t\t  uint _gold,\n\t\t\t\t\t\t\t\t\t\t\t\t\t  uint _crystal,\n\t\t\t\t\t\t\t\t\t\t\t\t\t  uint _quantumDust);\n\n\t/*\n\t * @event Event for consuming user gold.\n\t * @param _user The user to consume gold from.\n\t * @param _price the amount of gold.\n\t */\n  event ConsumeGold(address _user, uint _price);\n\n\t/*\n\t * @event Event for consuming user crystal.\n\t * @param _user The user to consume crystal from.\n\t * @param _price the amount of crystal.\n\t */\n  event ConsumeCrystal(address _user, uint _price);\n\n\t/*\n\t * @event Event for consuming user quantum.\n\t * @param _user The user to consume quantum from.\n\t * @param _price the amount of quantum.\n\t */\n  event ConsumeQuantum(address _user, uint _price);\n\n\t/*\n\t * @event Event for paying out resources to user.\n\t * @param _gold The amount of gold the user generated and will receive.\n\t * @param _crystal The amount of crystal the user generated and will receive.\n\t */\n\tevent PayoutResources(uint _gold, uint _crystal);\n\n\t/*\n\t * @event Event for seting initial resources of user.\n\t * @param _gold the amount of gold.\n\t * @param _crystal the amount of crystal.\n\t * @param _quantumDust the amount of quantum Dust.\n\t */\n\tevent SetInitialResources(uint _gold, uint _crystal, uint _quantumDust);\n\n\tuint initialGold = 0;\n\tuint initialCrystal = 0;\n\tuint initialQuantumDust = 0;\n\n\tstruct Resources {\n\t\tbool initialized;\n\t\tuint gold;\n\t\tuint crystal;\n\t\tuint quantumDust;\n\t}\n\n\t// Mapping of user -> resources (keeps track of owned resources).\n\tmapping (address => Resources) public usersResources;\n\n\t// Mapping of user -> last payout block (keeps track of the last block where the user was paid).\n\tmapping (address => uint) public usersPayoutBlock;\n\n\tBuildingsQueue buildingsQueue;\n\tUnitsQueue unitsQueue;\n\tUserResources previousUserResources;\n\tUserBuildings userBuildings;\n\tUserVillage userVillage;\n\n\t/**\n\t * @notice Constructor: Instantiate User Resources contract.\n\t * @dev Constructor function.\n\t */\n\tconstructor() public {\n\t}\n\n\t/**\n\t * @notice Makes the contract type verifiable.\n\t * @dev Function to prove the contract is User Resources.\n\t */\n\tfunction isUserResources() external pure returns (bool) {\n\t\treturn true;\n\t}\n\n\t/**\n\t * @notice Sets the contract's version and instantiates the previous version contract.\n\t * @dev Function to set the contract version and instantiate the previous User Resources.\n\t * @param _previousUserResources the address of previous User Resources contract. (address)\n\t * @param _version the current contract version number. (uint)\n\t */\n\tfunction setUserResourcesVersion(UserResources _previousUserResources, uint _version) external onlyOwner {\n\t\trequire(_previousUserResources.isUserResources());\n\t\trequire(_version > _previousUserResources.version());\n\t\tpreviousUserResources = _previousUserResources;\n\t\tsetVersion(_version);\n\t}\n\n\t/*\n   * @title Instantiate User Village contract.\n   * @dev Function to provide User Village address and instantiate it.\n   * @param _userVillage the address of User Village contract. (address)\n   */\n\tfunction setUserVillage(UserVillage _userVillage) external onlyOwner {\n\t\trequire(_userVillage.isUserVillage());\n\t\tuserVillage = _userVillage;\n\t}\n\n\t/*\n   * @title Instantiate Buildings Queue contract.\n   * @dev Function to provide Buildings Queue address and instantiate it.\n   * @param _buildingsQueue the address of Buildings Queue contract. (address)\n   */\n\tfunction setBuildingsQueue(BuildingsQueue _buildingsQueue) external onlyOwner {\n\t\trequire(_buildingsQueue.isBuildingsQueue());\n\t\tbuildingsQueue = _buildingsQueue;\n\t}\n\n\t/*\n   * @title Instantiate User Buildings contract.\n   * @dev Function to provide User Buildings address and instantiate it.\n   * @param _userBuildings the address of User Buildings contract. (address)\n   */\n\tfunction setUserBuildings(UserBuildings _userBuildings) external onlyOwner {\n\t\trequire(_userBuildings.isUserBuildings());\n\t\tuserBuildings = _userBuildings;\n\t}\n\n\t/*\n   * @title Instantiate Units Queue contract.\n   * @dev Function to provide Units Queue address and instantiate it.\n   * @param _unitsQueue the address of Units Queue contract. (address)\n   */\n\tfunction setUnitsQueue(UnitsQueue _unitsQueue) external onlyOwner {\n\t\trequire(_unitsQueue.isUnitsQueue());\n\t\tunitsQueue = _unitsQueue;\n\t}\n\n\t/*\n   * @title Initiate user resources.\n   * @dev Function to add the initial resources to a new user.\n   * @param _user address of the user to give the resources. (address)\n\t * @return A boolean that indicates if the operation was successful.\n   */\n\tfunction initUserResources(address _user) external returns (bool) {\n\t\trequire(msg.sender == address(userVillage) || msg.sender == owner);\n\t\trequire(!usersResources[_user].initialized);\n\n\t\tusersResources[_user].initialized = true;\n\t\tusersResources[_user].gold = initialGold;\n\t\tusersResources[_user].crystal = initialCrystal;\n\t\tusersResources[_user].quantumDust = initialQuantumDust;\n\n\t\temit InitUserResources(_user, initialGold, initialCrystal, initialQuantumDust);\n\t\treturn true;\n\t}\n\n\t/*\n   * @title Get user resources.\n   * @dev Function that returns the user resources amount.\n   * @param _user address of the user to give the resources. (address)\n   */\n\tfunction getUserResources(address _user) external view returns (uint gold,\n\t\t\t\t\t\t\t\t\t\t\t\t\t\t\t\t\t\t\t\t\t\t\t\t\t\t\t\t\t\t\t\t\tuint crystal,\n\t\t\t\t\t\t\t\t\t\t\t\t\t\t\t\t\t\t\t\t\t\t\t\t\t\t\t\t\t\t\t\t\tuint quantumDust) {\n\t\treturn (usersResources[_user].gold,\n\t\t\t\t\t\tusersResources[_user].crystal,\n\t\t\t\t\t\tusersResources[_user].quantumDust);\n\t}\n\n\t/*\n   * @title Set initial resources.\n   * @dev Function to set the initial amount of each resource.\n   * @param _gold the initial amount of gold a user will receive. (uint)\n   * @param _crystal the initial amount of crystal a user will receive. (uint)\n   * @param _quantumDust the initial amount of quantumDust a user will. receive (uint)\n   */\n\tfunction setInitialResources(uint _gold,\n\t\t\t\t\t\t\t\t\t\t\t\t\t\t\t uint _crystal,\n\t\t\t\t\t\t\t\t\t\t\t\t\t\t\t uint _quantumDust) external onlyOwner {\n\t if (_gold >= 0 && initialGold != _gold) {\n     initialGold = _gold;\n   }\n\t if (_crystal >= 0 && initialCrystal != _crystal) {\n     initialCrystal = _crystal;\n   }\n\t if (_quantumDust >= 0 && initialQuantumDust != _quantumDust) {\n     initialQuantumDust = _quantumDust;\n   }\n\n\t emit SetInitialResources(_gold, _crystal, _quantumDust);\n\t}\n\n\t/*\n   * @title Consume user's Gold.\n   * @dev Function to consume an amount of gold from a user. Only callable from BuildingsQueue\n   * @param _user the user that is going to consume the resource. (address)\n   * @param _price the amount of gold to be consumed. (uint)\n   */\n\tfunction consumeGold(address _user, uint _price) external returns (bool) {\n\t\trequire(msg.sender == address(buildingsQueue) || msg.sender == address(unitsQueue) ||msg.sender == owner);\n\t\tpayoutResources(_user);\n\t\trequire(usersResources[_user].gold >= _price);\n\t\tusersResources[_user].gold = SafeMath.sub(usersResources[_user].gold, _price);\n\n\t\temit ConsumeGold(_user, _price);\n\n\t\treturn true;\n\t}\n\n\t/*\n   * @title Consume user's Crystal.\n   * @dev Function to consume an amount of crystal from a user. Only callable from BuildingsQueue\n   * @param _user the user that is going to consume the resource. (address)\n   * @param _price the amount of crystal to be consumed. (uint)\n   */\n\tfunction consumeCrystal(address _user, uint _price) external returns (bool) {\n\t\trequire(msg.sender == address(buildingsQueue) || msg.sender == address(unitsQueue) || msg.sender == owner);\n\t\tpayoutResources(_user);\n\t\trequire(usersResources[_user].crystal >= _price);\n\t\tusersResources[_user].crystal = SafeMath.sub(usersResources[_user].crystal, _price);\n\n\t\temit ConsumeCrystal(_user, _price);\n\n\t\treturn true;\n\t}\n\n\t/*\n   * @title Consume user's Quantum Dust.\n   * @dev Function to consume an amount of quantum dust from a user. Only callable from BuildingsQueue\n   * @param _user the user that is going to consume the resource. (address)\n   * @param _price the amount of quantum dust to be consumed. (uint)\n   */\n\tfunction consumeQuantumDust(address _user, uint _price) external returns (bool) {\n\t\trequire(msg.sender == address(buildingsQueue) || msg.sender == address(unitsQueue) || msg.sender == owner);\n\t\trequire(usersResources[_user].quantumDust >= _price);\n\t\tusersResources[_user].quantumDust = SafeMath.sub(usersResources[_user].quantumDust, _price);\n\n\t\temit ConsumeQuantum(_user, _price);\n\n\t\treturn true;\n\t}\n\n\t/*\n   * @title Give Resources To User.\n   * @dev Function give the specified resources to the user. Only callable from Buildings Queue or User Buildings\n\t * @param _user who receives the resources.\n\t * @param _gold the amount of gold.\n\t * @param _crystal the amount of crystal.\n\t * @param _quantumDust the amount of quantum Dust.\n   */\n\tfunction giveResourcesToUser(address _user,\n\t\t\t\t\t\t\t\t\t\t\t\t\t\t\t uint _gold,\n\t\t\t\t\t\t\t\t\t\t\t\t\t\t\t uint _crystal,\n\t\t\t\t\t\t\t\t\t\t\t\t\t\t\t uint _quantumDust) external {\n\t\trequire(msg.sender == owner ||\n\t\t\t\t\t\tmsg.sender == address(buildingsQueue) ||\n\t\t\t\t\t\tmsg.sender == address(userBuildings));\n\n\t\tusersResources[_user].gold += _gold;\n\t\tusersResources[_user].crystal += _crystal;\n\t\tusersResources[_user].quantumDust += _quantumDust;\n\n\t\temit GiveResourcesToUser(_user, _gold, _crystal, _quantumDust);\n\t}\n\n\t/*\n   * @title Initialize User Payout Block.\n   * @dev Function to initialize the payout block when creating a new user/village.\n\t * Only callable from User Village contract.\n\t * @param _user The new user.\n   */\n\tfunction initPayoutBlock(address _user) external {\n\t\trequire(msg.sender == address(userVillage) || msg.sender == owner);\n\t\tusersPayoutBlock[_user] = block.number;\n\t}\n\n\t/*\n   * @title Payout Resources.\n   * @dev Function to payout the user the resources generated since previous payout.\n\t * @param _user The user to calculate and receive the payout.\n   */\n\tfunction payoutResources(address _user) public {\n\t  uint256 diff = SafeMath.sub(block.number, usersPayoutBlock[_user]);\n\n\t\tif (diff > 0) {\n\t\t\tuint gold = 0;\n\t\t\tuint crystal = 0;\n\t\t\tuint goldCapacity = 0;\n\t\t\tuint crystalCapacity = 0;\n\n\t\t\t(gold, crystal) = calculateUserResources(_user);\n\n\t\t\t(goldCapacity, crystalCapacity) = calculateUserResourcesCapacity(_user);\n\n\t\t\tif (gold > 0) {\n\t\t\t\tif (goldCapacity <= SafeMath.add(usersResources[_user].gold, gold)) {\n\t\t\t\t\tusersResources[_user].gold = goldCapacity;\n\t\t\t\t}\n\t\t\t\tif (goldCapacity > SafeMath.add(usersResources[_user].gold, gold)) {\n\t\t\t\t\tusersResources[_user].gold = SafeMath.add(\n\t\t\t\t\t\tusersResources[_user].gold, gold\n\t\t\t\t\t);\n\t\t\t\t}\n\t\t\t}\n\n\t\t\tif (crystal > 0) {\n\t\t\t\tif (crystalCapacity <= SafeMath.add(usersResources[_user].crystal, crystal)) {\n\t\t\t\t\tusersResources[_user].crystal = crystalCapacity;\n\t\t\t\t}\n\n\t\t\t\tif (crystalCapacity > SafeMath.add(usersResources[_user].crystal, crystal)) {\n\t\t\t\t\tusersResources[_user].crystal = SafeMath.add(\n\t\t\t\t\t\tusersResources[_user].crystal, crystal\n\t\t\t\t\t);\n\t\t\t\t}\n\t\t\t}\n\n\t\t\tusersPayoutBlock[_user] = block.number;\n\n\t\t\temit PayoutResources(gold, crystal);\n\t\t}\n\t}\n\n\t/*\n   * @title Calculate User Resources.\n   * @dev Function to calculate the resources generated in buildings queue and user buildings.\n\t * @param _user The user to calculate the resources.\n   */\n\n\tfunction calculateUserResources(address _user) public view returns (uint userGold, uint userCrystal) {\n\t\tuint256 diff = SafeMath.sub(block.number, usersPayoutBlock[_user]);\n\n\t\tif (diff > 0) {\n\t\t\tuint goldRate = 0;\n\t\t\tuint crystalRate = 0;\n\n\t\t\t(goldRate, crystalRate) = userBuildings.getUserRates(_user);\n\n\t\t\t(userGold, userCrystal) = buildingsQueue.getUserQueueResources(_user);\n\n\t\t\tuserGold = SafeMath.add(userGold, SafeMath.mul(goldRate, diff));\n\t\t\tuserCrystal = SafeMath.add(userCrystal, SafeMath.mul(crystalRate, diff));\n\t\t}\n\n\t\treturn (userGold, userCrystal);\n\t}\n\n\t/*\n   * @title Calculate User Resources.\n   * @dev Function to calculate the resources generated in buildings queue and user buildings.\n\t * @param _user The user to calculate the resources.\n   */\n\n\tfunction calculateUserResourcesCapacity(address _user) public view returns (uint goldCapacity, uint crystalCapacity) {\n\t\tuint queueGoldCapacity = 0;\n\t\tuint queueCyrstalCapacity = 0;\n\n\t\t(goldCapacity, crystalCapacity) = userBuildings.getUserResourcesCapacity(_user);\n\n\t\t(queueGoldCapacity, queueCyrstalCapacity) = buildingsQueue.getUserResourcesCapacity(_user);\n\n\t\tgoldCapacity = SafeMath.add(goldCapacity, queueGoldCapacity);\n\t\tcrystalCapacity = SafeMath.add(crystalCapacity, queueCyrstalCapacity);\n\n\t\treturn (goldCapacity, crystalCapacity);\n\t}\n\n\t/*\n   * @title Get User Payout Block.\n   * @dev Function to get the last payout block number of that user.\n\t * @param _user The user to calculate and receive the payout.\n\t * @return a uint representing the number of the block where the user was paid.\n   */\n\tfunction getUserPayoutBlock(address _user) external view returns (uint) {\n\t\treturn usersPayoutBlock[_user];\n\t}\n\n}\n",
  "sourcePath": "/home/francisco/Truffle/crypto-wars-solidity/contracts/UserResources.sol",
  "compiler": {
    "name": "solc",
    "version": "0.4.23+commit.124ca40d.Emscripten.clang"
  },
  "schemaVersion": "2.0.0",
  "updatedAt": "2018-04-26T19:14:33.855Z"
}