{
  "contractName": "UserBuildings",
  "abi": [
    {
      "constant": false,
      "inputs": [
        {
          "name": "token",
          "type": "address"
        }
      ],
      "name": "reclaimToken",
      "outputs": [],
      "payable": false,
      "stateMutability": "nonpayable",
      "type": "function"
    },
    {
      "constant": false,
      "inputs": [
        {
          "name": "contractAddr",
          "type": "address"
        }
      ],
      "name": "reclaimContract",
      "outputs": [],
      "payable": false,
      "stateMutability": "nonpayable",
      "type": "function"
    },
    {
      "constant": false,
      "inputs": [
        {
          "name": "_version",
          "type": "uint256"
        }
      ],
      "name": "setVersion",
      "outputs": [],
      "payable": false,
      "stateMutability": "nonpayable",
      "type": "function"
    },
    {
      "constant": true,
      "inputs": [],
      "name": "version",
      "outputs": [
        {
          "name": "",
          "type": "uint256"
        }
      ],
      "payable": false,
      "stateMutability": "view",
      "type": "function"
    },
    {
      "constant": true,
      "inputs": [],
      "name": "owner",
      "outputs": [
        {
          "name": "",
          "type": "address"
        }
      ],
      "payable": false,
      "stateMutability": "view",
      "type": "function"
    },
    {
      "constant": false,
      "inputs": [],
      "name": "reclaimEther",
      "outputs": [],
      "payable": false,
      "stateMutability": "nonpayable",
      "type": "function"
    },
    {
      "constant": true,
      "inputs": [
        {
          "name": "",
          "type": "address"
        },
        {
          "name": "",
          "type": "uint256"
        }
      ],
      "name": "userBuildings",
      "outputs": [
        {
          "name": "id",
          "type": "uint256"
        },
        {
          "name": "active",
          "type": "bool"
        }
      ],
      "payable": false,
      "stateMutability": "view",
      "type": "function"
    },
    {
      "constant": true,
      "inputs": [
        {
          "name": "",
          "type": "address"
        }
      ],
      "name": "migratedUsers",
      "outputs": [
        {
          "name": "",
          "type": "bool"
        }
      ],
      "payable": false,
      "stateMutability": "view",
      "type": "function"
    },
    {
      "constant": false,
      "inputs": [
        {
          "name": "from_",
          "type": "address"
        },
        {
          "name": "value_",
          "type": "uint256"
        },
        {
          "name": "data_",
          "type": "bytes"
        }
      ],
      "name": "tokenFallback",
      "outputs": [],
      "payable": false,
      "stateMutability": "nonpayable",
      "type": "function"
    },
    {
      "constant": false,
      "inputs": [
        {
          "name": "_newContract",
          "type": "address"
        }
      ],
      "name": "migrateUser",
      "outputs": [],
      "payable": false,
      "stateMutability": "nonpayable",
      "type": "function"
    },
    {
      "constant": false,
      "inputs": [
        {
          "name": "newOwner",
          "type": "address"
        }
      ],
      "name": "transferOwnership",
      "outputs": [],
      "payable": false,
      "stateMutability": "nonpayable",
      "type": "function"
    },
    {
      "inputs": [],
      "payable": false,
      "stateMutability": "nonpayable",
      "type": "constructor"
    },
    {
      "payable": false,
      "stateMutability": "nonpayable",
      "type": "fallback"
    },
    {
      "anonymous": false,
      "inputs": [
        {
          "indexed": false,
          "name": "user",
          "type": "address"
        },
        {
          "indexed": false,
          "name": "ids",
          "type": "uint256[]"
        },
        {
          "indexed": false,
          "name": "indexes",
          "type": "uint256[]"
        }
      ],
      "name": "AddUserBuildings",
      "type": "event"
    },
    {
      "anonymous": false,
      "inputs": [
        {
          "indexed": false,
          "name": "user",
          "type": "address"
        },
        {
          "indexed": false,
          "name": "id",
          "type": "uint256"
        },
        {
          "indexed": false,
          "name": "index",
          "type": "uint256"
        }
      ],
      "name": "UpgradeBuilding",
      "type": "event"
    },
    {
      "anonymous": false,
      "inputs": [
        {
          "indexed": false,
          "name": "user",
          "type": "address"
        },
        {
          "indexed": false,
          "name": "ids",
          "type": "uint256[]"
        }
      ],
      "name": "AddInitialBuildings",
      "type": "event"
    },
    {
      "anonymous": false,
      "inputs": [
        {
          "indexed": false,
          "name": "user",
          "type": "address"
        },
        {
          "indexed": false,
          "name": "ids",
          "type": "uint256[]"
        },
        {
          "indexed": false,
          "name": "indexes",
          "type": "uint256[]"
        }
      ],
      "name": "RemoveUserBuildings",
      "type": "event"
    },
    {
      "anonymous": false,
      "inputs": [
        {
          "indexed": false,
          "name": "user",
          "type": "address"
        },
        {
          "indexed": false,
          "name": "index",
          "type": "uint256"
        }
      ],
      "name": "InitNewBuilding",
      "type": "event"
    },
    {
      "anonymous": false,
      "inputs": [
        {
          "indexed": true,
          "name": "user",
          "type": "address"
        },
        {
          "indexed": true,
          "name": "newContract",
          "type": "address"
        }
      ],
      "name": "UserMigrated",
      "type": "event"
    },
    {
      "anonymous": false,
      "inputs": [
        {
          "indexed": true,
          "name": "previousOwner",
          "type": "address"
        },
        {
          "indexed": true,
          "name": "newOwner",
          "type": "address"
        }
      ],
      "name": "OwnershipTransferred",
      "type": "event"
    },
    {
      "constant": true,
      "inputs": [],
      "name": "isUserBuildings",
      "outputs": [
        {
          "name": "",
          "type": "bool"
        }
      ],
      "payable": false,
      "stateMutability": "pure",
      "type": "function"
    },
    {
      "constant": false,
      "inputs": [
        {
          "name": "_previousUserBuildings",
          "type": "address"
        },
        {
          "name": "_version",
          "type": "uint256"
        }
      ],
      "name": "setUserBuildingsVersion",
      "outputs": [],
      "payable": false,
      "stateMutability": "nonpayable",
      "type": "function"
    },
    {
      "constant": false,
      "inputs": [
        {
          "name": "_userVillage",
          "type": "address"
        }
      ],
      "name": "setUserVillage",
      "outputs": [],
      "payable": false,
      "stateMutability": "nonpayable",
      "type": "function"
    },
    {
      "constant": false,
      "inputs": [
        {
          "name": "_userResources",
          "type": "address"
        }
      ],
      "name": "setUserResources",
      "outputs": [],
      "payable": false,
      "stateMutability": "nonpayable",
      "type": "function"
    },
    {
      "constant": false,
      "inputs": [
        {
          "name": "_buildingsData",
          "type": "address"
        }
      ],
      "name": "setBuildingsData",
      "outputs": [],
      "payable": false,
      "stateMutability": "nonpayable",
      "type": "function"
    },
    {
      "constant": false,
      "inputs": [
        {
          "name": "_buildingsQueue",
          "type": "address"
        }
      ],
      "name": "setBuildingsQueue",
      "outputs": [],
      "payable": false,
      "stateMutability": "nonpayable",
      "type": "function"
    },
    {
      "constant": false,
      "inputs": [
        {
          "name": "_user",
          "type": "address"
        },
        {
          "name": "_ids",
          "type": "uint256[]"
        },
        {
          "name": "_indexes",
          "type": "uint256[]"
        }
      ],
      "name": "addUserBuildings",
      "outputs": [
        {
          "name": "",
          "type": "bool"
        }
      ],
      "payable": false,
      "stateMutability": "nonpayable",
      "type": "function"
    },
    {
      "constant": false,
      "inputs": [
        {
          "name": "_user",
          "type": "address"
        },
        {
          "name": "_ids",
          "type": "uint256[]"
        }
      ],
      "name": "addInitialBuildings",
      "outputs": [
        {
          "name": "",
          "type": "bool"
        }
      ],
      "payable": false,
      "stateMutability": "nonpayable",
      "type": "function"
    },
    {
      "constant": false,
      "inputs": [
        {
          "name": "_user",
          "type": "address"
        },
        {
          "name": "_id",
          "type": "uint256"
        }
      ],
      "name": "initNewBuilding",
      "outputs": [
        {
          "name": "index",
          "type": "uint256"
        }
      ],
      "payable": false,
      "stateMutability": "nonpayable",
      "type": "function"
    },
    {
      "constant": false,
      "inputs": [
        {
          "name": "_user",
          "type": "address"
        },
        {
          "name": "_ids",
          "type": "uint256[]"
        },
        {
          "name": "_indexes",
          "type": "uint256[]"
        }
      ],
      "name": "removeUserBuildings",
      "outputs": [
        {
          "name": "",
          "type": "bool"
        }
      ],
      "payable": false,
      "stateMutability": "nonpayable",
      "type": "function"
    },
    {
      "constant": false,
      "inputs": [
        {
          "name": "_user",
          "type": "address"
        },
        {
          "name": "_id",
          "type": "uint256"
        },
        {
          "name": "_index",
          "type": "uint256"
        }
      ],
      "name": "upgradeBuilding",
      "outputs": [
        {
          "name": "",
          "type": "bool"
        }
      ],
      "payable": false,
      "stateMutability": "nonpayable",
      "type": "function"
    },
    {
      "constant": true,
      "inputs": [
        {
          "name": "_user",
          "type": "address"
        }
      ],
      "name": "getUserBuildings",
      "outputs": [
        {
          "name": "",
          "type": "uint256[]"
        }
      ],
      "payable": false,
      "stateMutability": "view",
      "type": "function"
    },
    {
      "constant": true,
      "inputs": [
        {
          "name": "_user",
          "type": "address"
        },
        {
          "name": "_index",
          "type": "uint256"
        }
      ],
      "name": "getUserBuildingIdAndStatus",
      "outputs": [
        {
          "name": "id",
          "type": "uint256"
        },
        {
          "name": "active",
          "type": "bool"
        }
      ],
      "payable": false,
      "stateMutability": "view",
      "type": "function"
    },
    {
      "constant": true,
      "inputs": [
        {
          "name": "_user",
          "type": "address"
        }
      ],
      "name": "getUserRates",
      "outputs": [
        {
          "name": "totalGoldRate",
          "type": "uint256"
        },
        {
          "name": "totalCrystalRate",
          "type": "uint256"
        }
      ],
      "payable": false,
      "stateMutability": "view",
      "type": "function"
    },
    {
      "constant": true,
      "inputs": [
        {
          "name": "_user",
          "type": "address"
        },
        {
          "name": "_typeId",
          "type": "uint256"
        },
        {
          "name": "_id",
          "type": "uint256"
        }
      ],
      "name": "buildingTypeIsUnique",
      "outputs": [
        {
          "name": "",
          "type": "int256"
        }
      ],
      "payable": false,
      "stateMutability": "view",
      "type": "function"
    },
    {
      "constant": false,
      "inputs": [
        {
          "name": "_user",
          "type": "address"
        },
        {
          "name": "_id",
          "type": "uint256"
        },
        {
          "name": "_index",
          "type": "uint256"
        }
      ],
      "name": "updateBuildingStatus",
      "outputs": [
        {
          "name": "",
          "type": "bool"
        }
      ],
      "payable": false,
      "stateMutability": "nonpayable",
      "type": "function"
    },
    {
      "constant": true,
      "inputs": [
        {
          "name": "_user",
          "type": "address"
        }
      ],
      "name": "getUserResourcesCapacity",
      "outputs": [
        {
          "name": "totalGoldCapacity",
          "type": "uint256"
        },
        {
          "name": "totalCrystalCapacity",
          "type": "uint256"
        }
      ],
      "payable": false,
      "stateMutability": "view",
      "type": "function"
    }
  ],
  "bytecode": "0x6060604052341561000f57600080fd5b336000806101000a81548173ffffffffffffffffffffffffffffffffffffffff021916908373ffffffffffffffffffffffffffffffffffffffff16021790555060003414151561005e57600080fd5b6138328061006d6000396000f30060606040526004361061016a576000357c0100000000000000000000000000000000000000000000000000000000900463ffffffff16806317ffc3201461017757806319d6dfae146101b05780632aed7f3f146101dd578063408def1e146102165780634a925dae146102395780634fe6aa941461029857806354fd4d50146102ee57806359da69a714610317578063750f51db1461037a57806376e52e18146103bc57806377889afa146104355780637fdfb10c1461046e5780638da5cb5b146104cf57806396dc25b9146105245780639f6650d61461055d5780639f727c27146105b1578063b1dc576f146105c6578063b9c2f240146105ff578063bb99601014610664578063bbe768a4146106c5578063c0ee0b8a14610716578063d5b999fd1461076c578063d9fccbc2146107a5578063dd6c7e3114610808578063e81a735414610841578063eb80520d146108ba578063ed51d1041461090e578063f2fde38b1461099c575b341561017557600080fd5b005b341561018257600080fd5b6101ae600480803573ffffffffffffffffffffffffffffffffffffffff169060200190919050506109d5565b005b34156101bb57600080fd5b6101c3610b42565b604051808215151515815260200191505060405180910390f35b34156101e857600080fd5b610214600480803573ffffffffffffffffffffffffffffffffffffffff16906020019091905050610b4b565b005b341561022157600080fd5b6102376004808035906020019091905050610c7e565b005b341561024457600080fd5b610282600480803573ffffffffffffffffffffffffffffffffffffffff16906020019091908035906020019091908035906020019091905050610ce3565b6040518082815260200191505060405180910390f35b34156102a357600080fd5b6102d8600480803573ffffffffffffffffffffffffffffffffffffffff16906020019091908035906020019091905050611050565b6040518082815260200191505060405180910390f35b34156102f957600080fd5b61030161136d565b6040518082815260200191505060405180910390f35b341561032257600080fd5b610360600480803573ffffffffffffffffffffffffffffffffffffffff16906020019091908035906020019091908035906020019091905050611373565b604051808215151515815260200191505060405180910390f35b341561038557600080fd5b6103ba600480803573ffffffffffffffffffffffffffffffffffffffff169060200190919080359060200190919050506114f8565b005b34156103c757600080fd5b61041b600480803573ffffffffffffffffffffffffffffffffffffffff16906020019091908035906020019082018035906020019190919290803590602001908201803590602001919091929050506116c7565b604051808215151515815260200191505060405180910390f35b341561044057600080fd5b61046c600480803573ffffffffffffffffffffffffffffffffffffffff169060200190919050506119ce565b005b341561047957600080fd5b6104ae600480803573ffffffffffffffffffffffffffffffffffffffff16906020019091908035906020019091905050611aff565b60405180838152602001821515151581526020019250505060405180910390f35b34156104da57600080fd5b6104e2611bd6565b604051808273ffffffffffffffffffffffffffffffffffffffff1673ffffffffffffffffffffffffffffffffffffffff16815260200191505060405180910390f35b341561052f57600080fd5b61055b600480803573ffffffffffffffffffffffffffffffffffffffff16906020019091905050611bfb565b005b341561056857600080fd5b610594600480803573ffffffffffffffffffffffffffffffffffffffff16906020019091905050611d2c565b604051808381526020018281526020019250505060405180910390f35b34156105bc57600080fd5b6105c4611f5f565b005b34156105d157600080fd5b6105fd600480803573ffffffffffffffffffffffffffffffffffffffff16906020019091905050612031565b005b341561060a57600080fd5b61064a600480803573ffffffffffffffffffffffffffffffffffffffff169060200190919080359060200190820180359060200191909192905050612162565b604051808215151515815260200191505060405180910390f35b341561066f57600080fd5b6106a4600480803573ffffffffffffffffffffffffffffffffffffffff1690602001909190803590602001909190505061247b565b60405180838152602001821515151581526020019250505060405180910390f35b34156106d057600080fd5b6106fc600480803573ffffffffffffffffffffffffffffffffffffffff169060200190919050506124c8565b604051808215151515815260200191505060405180910390f35b341561072157600080fd5b61076a600480803573ffffffffffffffffffffffffffffffffffffffff1690602001909190803590602001909190803590602001908201803590602001919091929050506124e8565b005b341561077757600080fd5b6107a3600480803573ffffffffffffffffffffffffffffffffffffffff169060200190919050506124ed565b005b34156107b057600080fd5b6107ee600480803573ffffffffffffffffffffffffffffffffffffffff1690602001909190803590602001909190803590602001909190505061261e565b604051808215151515815260200191505060405180910390f35b341561081357600080fd5b61083f600480803573ffffffffffffffffffffffffffffffffffffffff16906020019091905050612861565b005b341561084c57600080fd5b6108a0600480803573ffffffffffffffffffffffffffffffffffffffff1690602001909190803590602001908201803590602001919091929080359060200190820180359060200191909192905050612a0c565b604051808215151515815260200191505060405180910390f35b34156108c557600080fd5b6108f1600480803573ffffffffffffffffffffffffffffffffffffffff16906020019091905050612de2565b604051808381526020018281526020019250505060405180910390f35b341561091957600080fd5b610945600480803573ffffffffffffffffffffffffffffffffffffffff1690602001909190505061301d565b6040518080602001828103825283818151815260200191508051906020019060200280838360005b8381101561098857808201518184015260208101905061096d565b505050509050019250505060405180910390f35b34156109a757600080fd5b6109d3600480803573ffffffffffffffffffffffffffffffffffffffff16906020019091905050613136565b005b60008060009054906101000a900473ffffffffffffffffffffffffffffffffffffffff1673ffffffffffffffffffffffffffffffffffffffff163373ffffffffffffffffffffffffffffffffffffffff16141515610a3257600080fd5b8173ffffffffffffffffffffffffffffffffffffffff166370a08231306000604051602001526040518263ffffffff167c0100000000000000000000000000000000000000000000000000000000028152600401808273ffffffffffffffffffffffffffffffffffffffff1673ffffffffffffffffffffffffffffffffffffffff168152602001915050602060405180830381600087803b1515610ad557600080fd5b6102c65a03f11515610ae657600080fd5b505050604051805190509050610b3e6000809054906101000a900473ffffffffffffffffffffffffffffffffffffffff16828473ffffffffffffffffffffffffffffffffffffffff1661328b9092919063ffffffff16565b5050565b60006001905090565b60008060009054906101000a900473ffffffffffffffffffffffffffffffffffffffff1673ffffffffffffffffffffffffffffffffffffffff163373ffffffffffffffffffffffffffffffffffffffff16141515610ba857600080fd5b8190508073ffffffffffffffffffffffffffffffffffffffff1663f2fde38b6000809054906101000a900473ffffffffffffffffffffffffffffffffffffffff166040518263ffffffff167c0100000000000000000000000000000000000000000000000000000000028152600401808273ffffffffffffffffffffffffffffffffffffffff1673ffffffffffffffffffffffffffffffffffffffff168152602001915050600060405180830381600087803b1515610c6657600080fd5b6102c65a03f11515610c7757600080fd5b5050505050565b6000809054906101000a900473ffffffffffffffffffffffffffffffffffffffff1673ffffffffffffffffffffffffffffffffffffffff163373ffffffffffffffffffffffffffffffffffffffff16141515610cd957600080fd5b8060018190555050565b60008060008091505b600360008773ffffffffffffffffffffffffffffffffffffffff1673ffffffffffffffffffffffffffffffffffffffff1681526020019081526020016000208054905082101561102357600460009054906101000a900473ffffffffffffffffffffffffffffffffffffffff1673ffffffffffffffffffffffffffffffffffffffff1663614ad27f600360008973ffffffffffffffffffffffffffffffffffffffff1673ffffffffffffffffffffffffffffffffffffffff16815260200190815260200160002084815481101515610dc057fe5b9060005260206000209060020201600001546000604051602001526040518263ffffffff167c010000000000000000000000000000000000000000000000000000000002815260040180828152602001915050602060405180830381600087803b1515610e2c57600080fd5b6102c65a03f11515610e3d57600080fd5b5050506040518051905085141561101657600360008773ffffffffffffffffffffffffffffffffffffffff1673ffffffffffffffffffffffffffffffffffffffff16815260200190815260200160002082815481101515610e9a57fe5b906000526020600020906002020160010160009054906101000a900460ff1615610ee6577ffffffffffffffffffffffffffffffffffffffffffffffffffffffffffffffffe9250611047565b600560009054906101000a900473ffffffffffffffffffffffffffffffffffffffff1673ffffffffffffffffffffffffffffffffffffffff1663689926778786856000604051604001526040518463ffffffff167c0100000000000000000000000000000000000000000000000000000000028152600401808473ffffffffffffffffffffffffffffffffffffffff1673ffffffffffffffffffffffffffffffffffffffff16815260200183815260200182815260200193505050506040805180830381600087803b1515610fba57600080fd5b6102c65a03f11515610fcb57600080fd5b505050604051805190602001805190505080915050801561100e577ffffffffffffffffffffffffffffffffffffffffffffffffffffffffffffffffe9250611047565b819250611047565b8180600101925050610cec565b7fffffffffffffffffffffffffffffffffffffffffffffffffffffffffffffffff92505b50509392505050565b6000600560009054906101000a900473ffffffffffffffffffffffffffffffffffffffff1673ffffffffffffffffffffffffffffffffffffffff163373ffffffffffffffffffffffffffffffffffffffff1614806110fa57506000809054906101000a900473ffffffffffffffffffffffffffffffffffffffff1673ffffffffffffffffffffffffffffffffffffffff163373ffffffffffffffffffffffffffffffffffffffff16145b151561110557600080fd5b600460009054906101000a900473ffffffffffffffffffffffffffffffffffffffff1673ffffffffffffffffffffffffffffffffffffffff16636facbe2b836000604051602001526040518263ffffffff167c010000000000000000000000000000000000000000000000000000000002815260040180828152602001915050602060405180830381600087803b151561119e57600080fd5b6102c65a03f115156111af57600080fd5b5050506040518051905015156111c457600080fd5b600360008473ffffffffffffffffffffffffffffffffffffffff1673ffffffffffffffffffffffffffffffffffffffff16815260200190815260200160002080548060010182816112159190613785565b9160005260206000209060020201600060408051908101604052808681526020016000151581525090919091506000820151816000015560208201518160010160006101000a81548160ff0219169083151502179055505050507f9abc8e94269f5b79c9486cb53cf245e450e0fef12503b6c58f016aef9369dfa6836001600360008773ffffffffffffffffffffffffffffffffffffffff1673ffffffffffffffffffffffffffffffffffffffff1681526020019081526020016000208054905003604051808373ffffffffffffffffffffffffffffffffffffffff1673ffffffffffffffffffffffffffffffffffffffff1681526020018281526020019250505060405180910390a16001600360008573ffffffffffffffffffffffffffffffffffffffff1673ffffffffffffffffffffffffffffffffffffffff1681526020019081526020016000208054905003905092915050565b60015481565b60008073ffffffffffffffffffffffffffffffffffffffff168473ffffffffffffffffffffffffffffffffffffffff16141515156113b057600080fd5b600560009054906101000a900473ffffffffffffffffffffffffffffffffffffffff1673ffffffffffffffffffffffffffffffffffffffff163373ffffffffffffffffffffffffffffffffffffffff1614151561140c57600080fd5b82600360008673ffffffffffffffffffffffffffffffffffffffff1673ffffffffffffffffffffffffffffffffffffffff1681526020019081526020016000208381548110151561145957fe5b90600052602060002090600202016000015414151561147757600080fd5b6000600360008673ffffffffffffffffffffffffffffffffffffffff1673ffffffffffffffffffffffffffffffffffffffff168152602001908152602001600020838154811015156114c557fe5b906000526020600020906002020160010160006101000a81548160ff021916908315150217905550600190509392505050565b6000809054906101000a900473ffffffffffffffffffffffffffffffffffffffff1673ffffffffffffffffffffffffffffffffffffffff163373ffffffffffffffffffffffffffffffffffffffff1614151561155357600080fd5b8173ffffffffffffffffffffffffffffffffffffffff166319d6dfae6000604051602001526040518163ffffffff167c0100000000000000000000000000000000000000000000000000000000028152600401602060405180830381600087803b15156115bf57600080fd5b6102c65a03f115156115d057600080fd5b5050506040518051905015156115e557600080fd5b8173ffffffffffffffffffffffffffffffffffffffff166354fd4d506000604051602001526040518163ffffffff167c0100000000000000000000000000000000000000000000000000000000028152600401602060405180830381600087803b151561165157600080fd5b6102c65a03f1151561166257600080fd5b505050604051805190508111151561167957600080fd5b81600660006101000a81548173ffffffffffffffffffffffffffffffffffffffff021916908373ffffffffffffffffffffffffffffffffffffffff1602179055506116c381610c7e565b5050565b600080600080600560009054906101000a900473ffffffffffffffffffffffffffffffffffffffff1673ffffffffffffffffffffffffffffffffffffffff163373ffffffffffffffffffffffffffffffffffffffff1614151561172957600080fd5b858590508888905014151561173d57600080fd5b878790509250600091505b8282101561183057600460009054906101000a900473ffffffffffffffffffffffffffffffffffffffff1673ffffffffffffffffffffffffffffffffffffffff16636facbe2b898985818110151561179c57fe5b905060200201356000604051602001526040518263ffffffff167c010000000000000000000000000000000000000000000000000000000002815260040180828152602001915050602060405180830381600087803b15156117fd57600080fd5b6102c65a03f1151561180e57600080fd5b50505060405180519050151561182357600080fd5b8180600101925050611748565b600090505b82811015611911576040805190810160405280898984818110151561185657fe5b90506020020135815260200160011515815250600360008b73ffffffffffffffffffffffffffffffffffffffff1673ffffffffffffffffffffffffffffffffffffffff16815260200190815260200160002087878481811015156118b657fe5b905060200201358154811015156118c957fe5b90600052602060002090600202016000820151816000015560208201518160010160006101000a81548160ff0219169083151502179055509050508080600101915050611835565b7f476e9953f2047833efb902cf6835b7c52fed08301babfdb4364f114ab0dd8cdd8989898989604051808673ffffffffffffffffffffffffffffffffffffffff1673ffffffffffffffffffffffffffffffffffffffff1681526020018060200180602001838103835287878281815260200192506020028082843782019150508381038252858582818152602001925060200280828437820191505097505050505050505060405180910390a16001935050505095945050505050565b6000809054906101000a900473ffffffffffffffffffffffffffffffffffffffff1673ffffffffffffffffffffffffffffffffffffffff163373ffffffffffffffffffffffffffffffffffffffff16141515611a2957600080fd5b8073ffffffffffffffffffffffffffffffffffffffff1663bfb4bbae6000604051602001526040518163ffffffff167c0100000000000000000000000000000000000000000000000000000000028152600401602060405180830381600087803b1515611a9557600080fd5b6102c65a03f11515611aa657600080fd5b505050604051805190501515611abb57600080fd5b80600560006101000a81548173ffffffffffffffffffffffffffffffffffffffff021916908373ffffffffffffffffffffffffffffffffffffffff16021790555050565b600080600360008573ffffffffffffffffffffffffffffffffffffffff1673ffffffffffffffffffffffffffffffffffffffff16815260200190815260200160002083815481101515611b4e57fe5b906000526020600020906002020160000154600360008673ffffffffffffffffffffffffffffffffffffffff1673ffffffffffffffffffffffffffffffffffffffff16815260200190815260200160002084815481101515611bac57fe5b906000526020600020906002020160010160009054906101000a900460ff16915091509250929050565b6000809054906101000a900473ffffffffffffffffffffffffffffffffffffffff1681565b6000809054906101000a900473ffffffffffffffffffffffffffffffffffffffff1673ffffffffffffffffffffffffffffffffffffffff163373ffffffffffffffffffffffffffffffffffffffff16141515611c5657600080fd5b8073ffffffffffffffffffffffffffffffffffffffff16633769feef6000604051602001526040518163ffffffff167c0100000000000000000000000000000000000000000000000000000000028152600401602060405180830381600087803b1515611cc257600080fd5b6102c65a03f11515611cd357600080fd5b505050604051805190501515611ce857600080fd5b80600460006101000a81548173ffffffffffffffffffffffffffffffffffffffff021916908373ffffffffffffffffffffffffffffffffffffffff16021790555050565b60008060008060008090505b600360008773ffffffffffffffffffffffffffffffffffffffff1673ffffffffffffffffffffffffffffffffffffffff16815260200190815260200160002080549050811015611f515760011515600360008873ffffffffffffffffffffffffffffffffffffffff1673ffffffffffffffffffffffffffffffffffffffff16815260200190815260200160002082815481101515611dd257fe5b906000526020600020906002020160010160009054906101000a900460ff1615151415611f4457600460009054906101000a900473ffffffffffffffffffffffffffffffffffffffff1673ffffffffffffffffffffffffffffffffffffffff1663b5142cff600360008973ffffffffffffffffffffffffffffffffffffffff1673ffffffffffffffffffffffffffffffffffffffff16815260200190815260200160002083815481101515611e8357fe5b9060005260206000209060020201600001546000604051604001526040518263ffffffff167c0100000000000000000000000000000000000000000000000000000000028152600401808281526020019150506040805180830381600087803b1515611eee57600080fd5b6102c65a03f11515611eff57600080fd5b5050506040518051906020018051905080935081945050506000831115611f2d57611f2a858461335e565b94505b6000821115611f4357611f40848361335e565b93505b5b8080600101915050611d38565b848494509450505050915091565b6000809054906101000a900473ffffffffffffffffffffffffffffffffffffffff1673ffffffffffffffffffffffffffffffffffffffff163373ffffffffffffffffffffffffffffffffffffffff16141515611fba57600080fd5b6000809054906101000a900473ffffffffffffffffffffffffffffffffffffffff1673ffffffffffffffffffffffffffffffffffffffff166108fc3073ffffffffffffffffffffffffffffffffffffffff16319081150290604051600060405180830381858888f19350505050151561202f57fe5b565b6000809054906101000a900473ffffffffffffffffffffffffffffffffffffffff1673ffffffffffffffffffffffffffffffffffffffff163373ffffffffffffffffffffffffffffffffffffffff1614151561208c57600080fd5b8073ffffffffffffffffffffffffffffffffffffffff1663c19d6f5f6000604051602001526040518163ffffffff167c0100000000000000000000000000000000000000000000000000000000028152600401602060405180830381600087803b15156120f857600080fd5b6102c65a03f1151561210957600080fd5b50505060405180519050151561211e57600080fd5b80600860006101000a81548173ffffffffffffffffffffffffffffffffffffffff021916908373ffffffffffffffffffffffffffffffffffffffff16021790555050565b6000806000600860009054906101000a900473ffffffffffffffffffffffffffffffffffffffff1673ffffffffffffffffffffffffffffffffffffffff163373ffffffffffffffffffffffffffffffffffffffff16148061220f57506000809054906101000a900473ffffffffffffffffffffffffffffffffffffffff1673ffffffffffffffffffffffffffffffffffffffff163373ffffffffffffffffffffffffffffffffffffffff16145b151561221a57600080fd5b600091505b8484905082101561230a57600460009054906101000a900473ffffffffffffffffffffffffffffffffffffffff1673ffffffffffffffffffffffffffffffffffffffff16636facbe2b868685818110151561227657fe5b905060200201356000604051602001526040518263ffffffff167c010000000000000000000000000000000000000000000000000000000002815260040180828152602001915050602060405180830381600087803b15156122d757600080fd5b6102c65a03f115156122e857600080fd5b5050506040518051905015156122fd57600080fd5b818060010192505061221f565b600090505b848490508110156123e657600360008773ffffffffffffffffffffffffffffffffffffffff1673ffffffffffffffffffffffffffffffffffffffff168152602001908152602001600020805480600101828161236b9190613785565b916000526020600020906002020160006040805190810160405280898987818110151561239457fe5b9050602002013581526020016001151581525090919091506000820151816000015560208201518160010160006101000a81548160ff021916908315150217905550505050808060010191505061230f565b7f7e4357b0674cde231359e0a9dd90dcf1b5f9f93fe0ec9cb68e05dff54e15bd15868686604051808473ffffffffffffffffffffffffffffffffffffffff1673ffffffffffffffffffffffffffffffffffffffff168152602001806020018281038252848482818152602001925060200280828437820191505094505050505060405180910390a16001925050509392505050565b60036020528160005260406000208181548110151561249657fe5b9060005260206000209060020201600091509150508060000154908060010160009054906101000a900460ff16905082565b60026020528060005260406000206000915054906101000a900460ff1681565b600080fd5b6000809054906101000a900473ffffffffffffffffffffffffffffffffffffffff1673ffffffffffffffffffffffffffffffffffffffff163373ffffffffffffffffffffffffffffffffffffffff1614151561254857600080fd5b8073ffffffffffffffffffffffffffffffffffffffff1663f229a4156000604051602001526040518163ffffffff167c0100000000000000000000000000000000000000000000000000000000028152600401602060405180830381600087803b15156125b457600080fd5b6102c65a03f115156125c557600080fd5b5050506040518051905015156125da57600080fd5b80600760006101000a81548173ffffffffffffffffffffffffffffffffffffffff021916908373ffffffffffffffffffffffffffffffffffffffff16021790555050565b6000600560009054906101000a900473ffffffffffffffffffffffffffffffffffffffff1673ffffffffffffffffffffffffffffffffffffffff163373ffffffffffffffffffffffffffffffffffffffff1614151561267c57600080fd5b6107d0831115612774576103e88303600360008673ffffffffffffffffffffffffffffffffffffffff1673ffffffffffffffffffffffffffffffffffffffff168152602001908152602001600020838154811015156126d757fe5b9060005260206000209060020201600001541415156126f557600080fd5b6001600360008673ffffffffffffffffffffffffffffffffffffffff1673ffffffffffffffffffffffffffffffffffffffff1681526020019081526020016000208381548110151561274357fe5b906000526020600020906002020160010160006101000a81548160ff0219169083151502179055506001905061285a565b82600360008673ffffffffffffffffffffffffffffffffffffffff1673ffffffffffffffffffffffffffffffffffffffff168152602001908152602001600020838154811015156127c157fe5b9060005260206000209060020201600001541415156127df57600080fd5b6000600360008673ffffffffffffffffffffffffffffffffffffffff1673ffffffffffffffffffffffffffffffffffffffff1681526020019081526020016000208381548110151561282d57fe5b906000526020600020906002020160010160006101000a81548160ff021916908315150217905550600190505b9392505050565b60011515600260003373ffffffffffffffffffffffffffffffffffffffff1673ffffffffffffffffffffffffffffffffffffffff16815260200190815260200160002060009054906101000a900460ff161515141515156128c157600080fd5b6001548173ffffffffffffffffffffffffffffffffffffffff166354fd4d506000604051602001526040518163ffffffff167c0100000000000000000000000000000000000000000000000000000000028152600401602060405180830381600087803b151561293057600080fd5b6102c65a03f1151561294157600080fd5b5050506040518051905011151561295757600080fd5b6001600260003373ffffffffffffffffffffffffffffffffffffffff1673ffffffffffffffffffffffffffffffffffffffff16815260200190815260200160002060006101000a81548160ff0219169083151502179055508073ffffffffffffffffffffffffffffffffffffffff163373ffffffffffffffffffffffffffffffffffffffff167fc123aa2e5c63456c59a4694ac50ba610152278a01162f3d5e3a6ffc457bc586e60405160405180910390a350565b600080600560009054906101000a900473ffffffffffffffffffffffffffffffffffffffff1673ffffffffffffffffffffffffffffffffffffffff163373ffffffffffffffffffffffffffffffffffffffff161480612ab757506000809054906101000a900473ffffffffffffffffffffffffffffffffffffffff1673ffffffffffffffffffffffffffffffffffffffff163373ffffffffffffffffffffffffffffffffffffffff16145b1515612ac257600080fd5b8383905086869050141515612ad657600080fd5b600090505b85859050811015612ce357600460009054906101000a900473ffffffffffffffffffffffffffffffffffffffff1673ffffffffffffffffffffffffffffffffffffffff16636facbe2b8787848181101515612b3257fe5b905060200201356000604051602001526040518263ffffffff167c010000000000000000000000000000000000000000000000000000000002815260040180828152602001915050602060405180830381600087803b1515612b9357600080fd5b6102c65a03f11515612ba457600080fd5b505050604051805190501515612bb957600080fd5b8585828181101515612bc757fe5b90506020020135600360008973ffffffffffffffffffffffffffffffffffffffff1673ffffffffffffffffffffffffffffffffffffffff1681526020019081526020016000208585848181101515612c1b57fe5b90506020020135815481101515612c2e57fe5b906000526020600020906002020160000154141515612c4c57600080fd5b6000600360008973ffffffffffffffffffffffffffffffffffffffff1673ffffffffffffffffffffffffffffffffffffffff1681526020019081526020016000208585848181101515612c9b57fe5b90506020020135815481101515612cae57fe5b906000526020600020906002020160010160006101000a81548160ff0219169083151502179055508080600101915050612adb565b612d1c8787878080602002602001604051908101604052809392919081815260200183836020028082843782019150505050505061337c565b1515612d2757600080fd5b7f19971e44184625db3749f4ba9d29a96e37592edaf90b0da6cac7f07b4ed65a548787878787604051808673ffffffffffffffffffffffffffffffffffffffff1673ffffffffffffffffffffffffffffffffffffffff1681526020018060200180602001838103835287878281815260200192506020028082843782019150508381038252858582818152602001925060200280828437820191505097505050505050505060405180910390a1600191505095945050505050565b600080600080600080925060009150600090505b600360008773ffffffffffffffffffffffffffffffffffffffff1673ffffffffffffffffffffffffffffffffffffffff1681526020019081526020016000208054905081101561300f5760011515600360008873ffffffffffffffffffffffffffffffffffffffff1673ffffffffffffffffffffffffffffffffffffffff16815260200190815260200160002082815481101515612e9057fe5b906000526020600020906002020160010160009054906101000a900460ff161515141561300257600460009054906101000a900473ffffffffffffffffffffffffffffffffffffffff1673ffffffffffffffffffffffffffffffffffffffff16638bfa8771600360008973ffffffffffffffffffffffffffffffffffffffff1673ffffffffffffffffffffffffffffffffffffffff16815260200190815260200160002083815481101515612f4157fe5b9060005260206000209060020201600001546000604051604001526040518263ffffffff167c0100000000000000000000000000000000000000000000000000000000028152600401808281526020019150506040805180830381600087803b1515612fac57600080fd5b6102c65a03f11515612fbd57600080fd5b5050506040518051906020018051905080935081945050506000831115612feb57612fe8858461335e565b94505b600082111561300157612ffe848361335e565b93505b5b8080600101915050612df6565b848494509450505050915091565b6130256137b7565b600061302f6137b7565b6000600360008673ffffffffffffffffffffffffffffffffffffffff1673ffffffffffffffffffffffffffffffffffffffff168152602001908152602001600020805490509250826040518059106130845750595b90808252806020026020018201604052509150600090505b8281101561312b57600360008673ffffffffffffffffffffffffffffffffffffffff1673ffffffffffffffffffffffffffffffffffffffff168152602001908152602001600020818154811015156130f057fe5b906000526020600020906002020160000154828281518110151561311057fe5b9060200190602002018181525050808060010191505061309c565b819350505050919050565b6000809054906101000a900473ffffffffffffffffffffffffffffffffffffffff1673ffffffffffffffffffffffffffffffffffffffff163373ffffffffffffffffffffffffffffffffffffffff1614151561319157600080fd5b600073ffffffffffffffffffffffffffffffffffffffff168173ffffffffffffffffffffffffffffffffffffffff16141515156131cd57600080fd5b8073ffffffffffffffffffffffffffffffffffffffff166000809054906101000a900473ffffffffffffffffffffffffffffffffffffffff1673ffffffffffffffffffffffffffffffffffffffff167f8be0079c531659141344cd1fd0a4f28419497f9722a3daafe3b4186f6b6457e060405160405180910390a3806000806101000a81548173ffffffffffffffffffffffffffffffffffffffff021916908373ffffffffffffffffffffffffffffffffffffffff16021790555050565b8273ffffffffffffffffffffffffffffffffffffffff1663a9059cbb83836000604051602001526040518363ffffffff167c0100000000000000000000000000000000000000000000000000000000028152600401808373ffffffffffffffffffffffffffffffffffffffff1673ffffffffffffffffffffffffffffffffffffffff16815260200182815260200192505050602060405180830381600087803b151561333657600080fd5b6102c65a03f1151561334757600080fd5b50505060405180519050151561335957fe5b505050565b600080828401905083811015151561337257fe5b8091505092915050565b60008060008060008090505b855181101561377757600460009054906101000a900473ffffffffffffffffffffffffffffffffffffffff1673ffffffffffffffffffffffffffffffffffffffff16638709e9da87838151811015156133dd57fe5b906020019060200201516000604051606001526040518263ffffffff167c010000000000000000000000000000000000000000000000000000000002815260040180828152602001915050606060405180830381600087803b151561344157600080fd5b6102c65a03f1151561345257600080fd5b50505060405180519060200180519060200180519050809450819550829650505050600084111561376a576064603c850281151561348c57fe5b049350600083141561358257600760009054906101000a900473ffffffffffffffffffffffffffffffffffffffff1673ffffffffffffffffffffffffffffffffffffffff1663ac42c67b88866000806040518563ffffffff167c0100000000000000000000000000000000000000000000000000000000028152600401808573ffffffffffffffffffffffffffffffffffffffff1673ffffffffffffffffffffffffffffffffffffffff168152602001848152602001838152602001828152602001945050505050600060405180830381600087803b151561356d57600080fd5b6102c65a03f1151561357e57600080fd5b5050505b600183141561367657600760009054906101000a900473ffffffffffffffffffffffffffffffffffffffff1673ffffffffffffffffffffffffffffffffffffffff1663ac42c67b8860008760006040518563ffffffff167c0100000000000000000000000000000000000000000000000000000000028152600401808573ffffffffffffffffffffffffffffffffffffffff1673ffffffffffffffffffffffffffffffffffffffff168152602001848152602001838152602001828152602001945050505050600060405180830381600087803b151561366157600080fd5b6102c65a03f1151561367257600080fd5b5050505b600283141561376957600760009054906101000a900473ffffffffffffffffffffffffffffffffffffffff1673ffffffffffffffffffffffffffffffffffffffff1663ac42c67b88600080886040518563ffffffff167c0100000000000000000000000000000000000000000000000000000000028152600401808573ffffffffffffffffffffffffffffffffffffffff1673ffffffffffffffffffffffffffffffffffffffff168152602001848152602001838152602001828152602001945050505050600060405180830381600087803b151561375457600080fd5b6102c65a03f1151561376557600080fd5b5050505b5b8080600101915050613388565b600194505050505092915050565b8154818355818115116137b2576002028160020283600052602060002091820191016137b191906137cb565b5b505050565b602060405190810160405280600081525090565b61380391905b808211156137ff576000808201600090556001820160006101000a81549060ff0219169055506002016137d1565b5090565b905600a165627a7a7230582085f3b8bebaf38cdeb7c91d6728348ae9762fa64ac05caa5057fdcd8ff56d67ef0029",
  "source": "pragma solidity ^0.4.18;\n\nimport 'zeppelin-solidity/contracts/math/SafeMath.sol';\nimport 'zeppelin-solidity/contracts/ownership/NoOwner.sol';\nimport './BuildingsData.sol';\nimport './BuildingsQueue.sol';\nimport './UserResources.sol';\nimport './UserVillage.sol';\nimport './Versioned.sol';\n\n/**\n * @title UserBuildings (WIP)\n * @notice This contract set which buildings belongs to an user.\n * @dev Keeps track of users active buildings.\n * Additional functionality might be added to ...\n * @dev Issue: * https://github.com/e11-io/crypto-wars-solidity/issues/3\n */\n\ncontract UserBuildings is NoOwner, Versioned {\n  using SafeMath for uint;\n\n  /**\n   * event for adding multiple buildings to a user logging\n   * @param user the address of the user to add the buildings\n   * @param ids the IDs of the buildings to be added\n   * @param indexes the indexes of the buildings to be added\n   */\n  event AddUserBuildings(address user, uint[] ids, uint[] indexes);\n\n  /**\n   * event for upgrading a building to a user logging\n   * @param user the address of the user to give the upgraded building\n   * @param id the id of the new building (upgrade)\n   * @param index the index of the building (upgrade)\n   */\n  event UpgradeBuilding(address user, uint id, uint index);\n\n  /**\n   * event for adding the initial buildings to a user logging\n   * @param user the address of the user to add the buildings\n   * @param ids the IDs of the buildings to be added to user\n   */\n  event AddInitialBuildings(address user, uint[] ids);\n\n  /**\n   * event for removing buildings to a user logging\n   * @param user the address of the user to remove the buildings\n   * @param ids the IDs of the buildings to be removed\n   * @param indexes the indexes of the buildings to be removed\n   */\n  event RemoveUserBuildings(address user, uint[] ids, uint[] indexes);\n\n  /*\n   * event for initializing a new building right before the construction starts logging.\n   * @param _user the address of the user to initialize the buildings\n   * @param _id the id of the building to be initialize\n   */\n  event InitNewBuilding(address user, uint index);\n\n  struct Building {\n    uint id;\n    bool active;\n  }\n\n  // Mapping of user -> buildings ids (keeps track of owned buildings)\n  mapping (address => Building[]) public userBuildings;\n\n  BuildingsData buildingsData;\n  BuildingsQueue buildingsQueue;\n  UserBuildings previousUserBuildings;\n  UserResources userResources;\n  UserVillage userVillage;\n\n  /**\n   * @notice Constructor: Instantiate User Buildings contract.\n   * @dev Constructor function to provide User Buildings address and instantiate it.\n   */\n  function UserBuildings() public {\n  }\n\n  /**\n   * @notice Makes the contract type verifiable.\n   * @dev Function to prove the contract is User Buildings.\n   */\n  function isUserBuildings() external pure returns (bool) {\n    return true;\n  }\n\n  /**\n   * @notice Sets the contract's version and instantiates the previous version contract.\n   * @dev Function to set the contract version and instantiate the previous User Buildings.\n   * @param _previousUserBuildings the address of previous User Buildings contract. (address)\n   * @param _version the current contract version number. (uint)\n   */\n  function setUserBuildingsVersion(UserBuildings _previousUserBuildings, uint _version) external onlyOwner {\n    require(_previousUserBuildings.isUserBuildings());\n    require(_version > _previousUserBuildings.version());\n    previousUserBuildings = _previousUserBuildings;\n    setVersion(_version);\n  }\n\n  /**\n   * @notice Instantiate User Village contract.\n   * @dev Function to provide User Village address and instantiate it.\n   * @param _userVillage the address of User Village contract. (address)\n   */\n  function setUserVillage(UserVillage _userVillage) external onlyOwner {\n    require(_userVillage.isUserVillage());\n    userVillage = _userVillage;\n  }\n\n  /**\n   * @notice Instantiate User Resources contract.\n   * @dev Function to provide User Resources address and instantiate it.\n   * @param _userResources the address of User Resources contract. (address)\n   */\n  function setUserResources(UserResources _userResources) external onlyOwner {\n    require(_userResources.isUserResources());\n    userResources = _userResources;\n  }\n\n  /**\n   * @notice Instantiate Buildings Data contract.\n   * @dev Function to provide Buildings Data address and instantiate it.\n   * @param _buildingsData the address of Buildings Data contract. (address)\n   */\n  function setBuildingsData(BuildingsData _buildingsData) external onlyOwner {\n    require(_buildingsData.isBuildingsData());\n    buildingsData = _buildingsData;\n  }\n\n  /**\n   * @notice Instantiate Buildings Queue contract.\n   * @dev Function to provide Buildings Queue address and instantiate it.\n   * @param _buildingsQueue the address of Buildings Queue contract. (address)\n   */\n  function setBuildingsQueue(BuildingsQueue _buildingsQueue) external onlyOwner {\n    require(_buildingsQueue.isBuildingsQueue());\n    buildingsQueue = _buildingsQueue;\n  }\n\n  /*\n   * @title Add User Buildings\n   * @dev Function to add multiple buildings to a user\n   * @params _user the address of the user to add building. (address)\n   * @param _ids An array of IDs of the buildings to add. (uint)\n   * @param _indexes An array of indexes of the buildings to add. (uint)\n   * @return A boolean that indicates if the operation was successful.\n   */\n  function addUserBuildings(address _user, uint[] _ids, uint[] _indexes) external returns (bool) {\n    require(msg.sender == address(buildingsQueue));\n\n    require(_ids.length == _indexes.length);\n\n    uint length = _ids.length;\n\n    for (uint i = 0; i < length; i++) {\n      require(buildingsData.checkBuildingExist(_ids[i]));\n    }\n\n    for (uint j = 0; j < length; j++) {\n      userBuildings[_user][_indexes[j]] = Building(_ids[j], true);\n    }\n\n    AddUserBuildings(_user, _ids, _indexes);\n\n    return true;\n  }\n\n  /*\n   * @title Add Initial Buildings\n   * @dev Function to add the initial buildings to a user\n   * @param user the address of the user to add the buildings\n   * @param ids the IDs of the buildings to be added to user\n   * @return A boolean that indicates if the operation was successful.\n   */\n  function addInitialBuildings(address _user, uint[] _ids) external returns (bool) {\n    require(msg.sender == address(userVillage) || msg.sender == owner);\n\n    for (uint i = 0; i < _ids.length; i++) {\n      require(buildingsData.checkBuildingExist(_ids[i]));\n    }\n\n    for (uint j = 0; j < _ids.length; j++) {\n      userBuildings[_user].push(Building(_ids[j], true));\n    }\n\n    AddInitialBuildings(_user, _ids);\n\n    return true;\n  }\n\n  /*\n   * @title Init New Building\n   * @dev Function to initialize a new building right before the construction starts.\n   * Its added to the UserBuildings array to give it and index, and set as Active False.\n   * @param _user the address of the user to initialize the buildings\n   * @param _id the id of the building to be initialize\n   * @return A uint that indicates the index of the initialized building.\n   */\n  function initNewBuilding(address _user, uint _id) external returns (uint index) {\n    require(msg.sender == address(buildingsQueue) || msg.sender == owner);\n    require(buildingsData.checkBuildingExist(_id));\n\n    userBuildings[_user].push(Building(_id, false));\n\n    InitNewBuilding(_user, userBuildings[_user].length - 1);\n\n    return userBuildings[_user].length - 1;\n  }\n\n  /*\n   * @title Remove User Buildings\n   * @dev Function to disable multiple user buildings.\n   * The buildings are not removed from the array, they are all set to Active False.\n   * @param _user the address of the user to remove the buildings\n   * @param _ids the ids of the building to be removed\n   * @param _indexes the indexes of the building to be removed\n   * @return A boolean that indicates if the operation was successful.\n   */\n  function removeUserBuildings(address _user, uint[] _ids, uint[] _indexes) external returns (bool) {\n    require(msg.sender == address(buildingsQueue) || msg.sender == owner);\n    require(_ids.length == _indexes.length);\n\n    for (uint i = 0; i < _ids.length; i++) {\n      require(buildingsData.checkBuildingExist(_ids[i]));\n      require(userBuildings[_user][_indexes[i]].id == _ids[i]);\n      userBuildings[_user][_indexes[i]].active = false;\n    }\n\n    require(returnResourcesToUser(_user, _ids));\n\n    RemoveUserBuildings(_user, _ids, _indexes);\n\n    return true;\n  }\n\n  /*\n   * @title Upgrade Building\n   * @dev Function to upgrade a user building.\n   * The upgrade (building) replace the old building in the array.\n   * @param _user the address of the user\n   * @param _id the id of the upgrade\n   * @param _index the index of the building to be replace\n   * @return A boolean that indicates if the operation was successful.\n   */\n  function upgradeBuilding(address _user, uint _id, uint _index) external returns (bool) {\n    require(_user != address(0));\n    require(msg.sender == address(buildingsQueue));\n    require(userBuildings[_user][_index].id == _id);\n\n    userBuildings[_user][_index].active = false;\n\n    return true;\n  }\n\n  /*\n   * @title Get User Buildings\n   * @dev Function to get the buildings of the specified address.\n   * @param _user The address to query the buildings of. (address)\n   * @return A uint[] representing the array of buildings owned by the passed address.\n   */\n  function getUserBuildings(address _user) external view returns (uint[]) {\n    uint length = userBuildings[_user].length;\n    uint[] memory buildingIds = new uint[](length);\n    for (uint i = 0; i < length; i++) {\n      buildingIds[i] = userBuildings[_user][i].id;\n    }\n    return buildingIds;\n  }\n\n  /*\n   * @title Get Building Id and Status\n   * @dev Function to get id and status of a building. Only used for for testing.\n   * @param _user The address to query the buildings of. (address)\n   * @param _index The index of the building. (address)\n   * @return A a uint representing the id and a bool representing if the building is active or not.\n   */\n  function getUserBuildingIdAndStatus(address _user, uint _index) external view returns (uint id, bool active) {\n    return (userBuildings[_user][_index].id, userBuildings[_user][_index].active);\n  }\n\n  /*\n   * @title Return Resources To User\n   * @dev Used when removing a building. Gets the price and resource type of the building\n   * been removed, and returns a percentage of the price to the user.\n   * @param _user The address of the user to return resources. (address)\n   * @param _ids The ids of the building been remove. (address)\n   * @return A boolean that indicates if the operation was successful.\n   */\n  function returnResourcesToUser(address _user, uint[] _ids) internal returns (bool) {\n    /*TODO: re-use this function in BuildingsQueue*/\n    uint price;\n    uint resourceType;\n    uint blocks;\n    for (uint i = 0; i < _ids.length; i++) {\n      (price, resourceType, blocks) = buildingsData.getBuildingData(_ids[i]);\n      if (price > 0) {\n        price = (price * 60 / 100);\n        if (resourceType == 0) {\n          userResources.giveResourcesToUser(_user, price, 0, 0);\n        }\n        if (resourceType == 1) {\n          userResources.giveResourcesToUser(_user, 0, price, 0);\n        }\n        if (resourceType == 2) {\n          userResources.giveResourcesToUser(_user, 0, 0, price);\n        }\n      }\n    }\n    return true;\n  }\n\n  /*\n   * @title Get User Rates\n   * @dev Function to iterate through the user buildings and calculate the gold and crystal rates.\n   * @param _user The address of the user to get the rates of. (address)\n   * @return A two uints that indicates if the amount of gold and crystal rates.\n   */\n  function getUserRates(address _user) external view returns (uint totalGoldRate, uint totalCrystalRate) {\n    uint goldRate;\n    uint crystalRate;\n\n\t\tfor (uint i = 0; i < userBuildings[_user].length; i++) {\n      if (userBuildings[_user][i].active == true) {\n        (goldRate, crystalRate) = buildingsData.getGoldAndCrystalRates(userBuildings[_user][i].id);\n        if (goldRate > 0) {\n          totalGoldRate = SafeMath.add(totalGoldRate, goldRate);\n        }\n\n        if (crystalRate > 0) {\n          totalCrystalRate = SafeMath.add(totalCrystalRate, crystalRate);\n        }\n      }\n    }\n\n    return (totalGoldRate, totalCrystalRate);\n\t}\n\n  /*\n   * @title Building Type is Unique\n   * @dev Function to check if the user has or not a specific building type in his buildings.\n   * @param _user The address of the user to get the rates of. (address)\n   * @param _typeid The id of the type to look for in the buildings. (uint)\n   * @param id The id of the building to be checked. (uint)\n   * @return An int that indicates if the user has or not that type of building.\n   * index -2: building type is not unique and the builiding cant be created.\n   * index -1: building type is unique and the building can be created. Must be initialized.\n   * index >= 0: building was deleted and must be created again. Modifing it's active variable to true.\n   */\n  function buildingTypeIsUnique(address _user, uint _typeId, uint _id) public view returns (int) {\n    uint i = 0;\n    while (i < userBuildings[_user].length) {\n      if (_typeId == buildingsData.getBuildingTypeId(userBuildings[_user][i].id)) {\n        if  (userBuildings[_user][i].active) {\n          return -2;\n        }\n\n        bool buildingIsInQueue;\n\n        (buildingIsInQueue,) = buildingsQueue.findBuildingInQueue(_user, _id, i);\n\n        if (buildingIsInQueue) {\n          return -2;\n        }\n\n        return int(i);\n      }\n      i++;\n    }\n    return -1;\n  }\n\n  /*\n   * @title Update Building Status.\n   * @dev Function to update the active status of the building.\n   * @param _user The owner of the building. (address)\n   * @param _id The id of the building to be updated. (uint)\n   * @param _index The Index of the building to be updated. (uint)\n   */\n  function updateBuildingStatus(address _user, uint _id, uint _index) external returns (bool) {\n    require(msg.sender == address(buildingsQueue));\n\n    if  (_id > 2000) {\n      require(userBuildings[_user][_index].id == _id - 1000);\n      userBuildings[_user][_index].active = true;\n      return true;\n    }\n\n    require(userBuildings[_user][_index].id == _id);\n    userBuildings[_user][_index].active = false;\n    return true;\n  }\n\n  /*\n   * @title Get User Resources Capacity.\n   * @dev Function to get the resources capacity of the buildings in user buildings.\n   * @param _user The address of the user. (address)\n   * @return Two uints representing the gold and crystal capacity of the buildings in queue.\n   */\n  function getUserResourcesCapacity(address _user) external view returns (uint totalGoldCapacity, uint totalCrystalCapacity) {\n    uint goldCapacity = 0;\n    uint crystalCapacity = 0;\n\n    for (uint i = 0; i < userBuildings[_user].length; i++) {\n      if (userBuildings[_user][i].active == true) {\n        (goldCapacity, crystalCapacity) = buildingsData.getGoldAndCrystalCapacity(userBuildings[_user][i].id);\n        if (goldCapacity > 0) {\n          totalGoldCapacity = SafeMath.add(totalGoldCapacity, goldCapacity);\n        }\n\n        if (crystalCapacity > 0) {\n          totalCrystalCapacity = SafeMath.add(totalCrystalCapacity, crystalCapacity);\n        }\n      }\n    }\n    return (totalGoldCapacity, totalCrystalCapacity);\n  }\n\n\n}\n",
  "sourcePath": "/home/francisco/Truffle/crypto-wars-solidity/contracts/UserBuildings.sol",
  "compiler": {
    "name": "solc",
    "version": "0.4.19+commit.c4cbbb05.Emscripten.clang"
  },
  "schemaVersion": "2.0.0",
  "updatedAt": "2018-03-15T18:51:10.631Z"
}