{
  "contractName": "UserVault",
  "abi": [
    {
      "constant": true,
      "inputs": [
        {
          "name": "",
          "type": "address"
        }
      ],
      "name": "balances",
      "outputs": [
        {
          "name": "",
          "type": "uint256"
        }
      ],
      "payable": false,
      "stateMutability": "view",
      "type": "function"
    },
    {
      "constant": false,
      "inputs": [
        {
          "name": "contractAddr",
          "type": "address"
        }
      ],
      "name": "reclaimContract",
      "outputs": [],
      "payable": false,
      "stateMutability": "nonpayable",
      "type": "function"
    },
    {
      "constant": false,
      "inputs": [
        {
          "name": "_version",
          "type": "uint256"
        }
      ],
      "name": "setVersion",
      "outputs": [],
      "payable": false,
      "stateMutability": "nonpayable",
      "type": "function"
    },
    {
      "constant": true,
      "inputs": [],
      "name": "version",
      "outputs": [
        {
          "name": "",
          "type": "uint256"
        }
      ],
      "payable": false,
      "stateMutability": "view",
      "type": "function"
    },
    {
      "constant": true,
      "inputs": [],
      "name": "owner",
      "outputs": [
        {
          "name": "",
          "type": "address"
        }
      ],
      "payable": false,
      "stateMutability": "view",
      "type": "function"
    },
    {
      "constant": false,
      "inputs": [],
      "name": "reclaimEther",
      "outputs": [],
      "payable": false,
      "stateMutability": "nonpayable",
      "type": "function"
    },
    {
      "constant": true,
      "inputs": [
        {
          "name": "",
          "type": "address"
        }
      ],
      "name": "migratedUsers",
      "outputs": [
        {
          "name": "",
          "type": "bool"
        }
      ],
      "payable": false,
      "stateMutability": "view",
      "type": "function"
    },
    {
      "constant": false,
      "inputs": [
        {
          "name": "from_",
          "type": "address"
        },
        {
          "name": "value_",
          "type": "uint256"
        },
        {
          "name": "data_",
          "type": "bytes"
        }
      ],
      "name": "tokenFallback",
      "outputs": [],
      "payable": false,
      "stateMutability": "nonpayable",
      "type": "function"
    },
    {
      "constant": false,
      "inputs": [
        {
          "name": "_newContract",
          "type": "address"
        }
      ],
      "name": "migrateUser",
      "outputs": [],
      "payable": false,
      "stateMutability": "nonpayable",
      "type": "function"
    },
    {
      "constant": false,
      "inputs": [
        {
          "name": "newOwner",
          "type": "address"
        }
      ],
      "name": "transferOwnership",
      "outputs": [],
      "payable": false,
      "stateMutability": "nonpayable",
      "type": "function"
    },
    {
      "inputs": [],
      "payable": false,
      "stateMutability": "nonpayable",
      "type": "constructor"
    },
    {
      "payable": false,
      "stateMutability": "nonpayable",
      "type": "fallback"
    },
    {
      "anonymous": false,
      "inputs": [
        {
          "indexed": true,
          "name": "owner",
          "type": "address"
        },
        {
          "indexed": false,
          "name": "amount",
          "type": "uint256"
        }
      ],
      "name": "VaultAdd",
      "type": "event"
    },
    {
      "anonymous": false,
      "inputs": [
        {
          "indexed": true,
          "name": "user",
          "type": "address"
        },
        {
          "indexed": true,
          "name": "newContract",
          "type": "address"
        }
      ],
      "name": "UserMigrated",
      "type": "event"
    },
    {
      "anonymous": false,
      "inputs": [
        {
          "indexed": true,
          "name": "previousOwner",
          "type": "address"
        },
        {
          "indexed": true,
          "name": "newOwner",
          "type": "address"
        }
      ],
      "name": "OwnershipTransferred",
      "type": "event"
    },
    {
      "constant": true,
      "inputs": [],
      "name": "isUserVault",
      "outputs": [
        {
          "name": "",
          "type": "bool"
        }
      ],
      "payable": false,
      "stateMutability": "pure",
      "type": "function"
    },
    {
      "constant": false,
      "inputs": [
        {
          "name": "_previousUserVault",
          "type": "address"
        },
        {
          "name": "_version",
          "type": "uint256"
        }
      ],
      "name": "setUserVaultVersion",
      "outputs": [],
      "payable": false,
      "stateMutability": "nonpayable",
      "type": "function"
    },
    {
      "constant": false,
      "inputs": [
        {
          "name": "_experimentalToken",
          "type": "address"
        }
      ],
      "name": "setExperimentalToken",
      "outputs": [],
      "payable": false,
      "stateMutability": "nonpayable",
      "type": "function"
    },
    {
      "constant": false,
      "inputs": [
        {
          "name": "_userVillage",
          "type": "address"
        }
      ],
      "name": "setUserVillage",
      "outputs": [],
      "payable": false,
      "stateMutability": "nonpayable",
      "type": "function"
    },
    {
      "constant": false,
      "inputs": [
        {
          "name": "_from",
          "type": "address"
        },
        {
          "name": "_amount",
          "type": "uint256"
        }
      ],
      "name": "add",
      "outputs": [
        {
          "name": "",
          "type": "bool"
        }
      ],
      "payable": false,
      "stateMutability": "nonpayable",
      "type": "function"
    },
    {
      "constant": false,
      "inputs": [
        {
          "name": "_token",
          "type": "address"
        }
      ],
      "name": "reclaimToken",
      "outputs": [],
      "payable": false,
      "stateMutability": "nonpayable",
      "type": "function"
    },
    {
      "constant": true,
      "inputs": [
        {
          "name": "_user",
          "type": "address"
        }
      ],
      "name": "balanceOf",
      "outputs": [
        {
          "name": "balance",
          "type": "uint256"
        }
      ],
      "payable": false,
      "stateMutability": "view",
      "type": "function"
    }
  ],
  "bytecode": "0x6060604052341561000f57600080fd5b336000806101000a81548173ffffffffffffffffffffffffffffffffffffffff021916908373ffffffffffffffffffffffffffffffffffffffff16021790555060003414151561005e57600080fd5b6114878061006d6000396000f3006060604052600436106100f1576000357c0100000000000000000000000000000000000000000000000000000000900463ffffffff1680630bc02948146100fe57806317ffc3201461014057806327e235e3146101795780632aed7f3f146101c6578063408def1e146101ff57806354fd4d501461022257806370a082311461024b57806385d65332146102985780638da5cb5b146102d15780639f727c2714610326578063b1dc576f1461033b578063bbe768a414610374578063c0d7e07b146103c5578063c0ee0b8a146103f2578063dd6c7e3114610448578063f2fde38b14610481578063f5d82b6b146104ba575b34156100fc57600080fd5b005b341561010957600080fd5b61013e600480803573ffffffffffffffffffffffffffffffffffffffff16906020019091908035906020019091905050610514565b005b341561014b57600080fd5b610177600480803573ffffffffffffffffffffffffffffffffffffffff169060200190919050506106e3565b005b341561018457600080fd5b6101b0600480803573ffffffffffffffffffffffffffffffffffffffff169060200190919050506108ad565b6040518082815260200191505060405180910390f35b34156101d157600080fd5b6101fd600480803573ffffffffffffffffffffffffffffffffffffffff169060200190919050506108c5565b005b341561020a57600080fd5b61022060048080359060200190919050506109f8565b005b341561022d57600080fd5b610235610a5d565b6040518082815260200191505060405180910390f35b341561025657600080fd5b610282600480803573ffffffffffffffffffffffffffffffffffffffff16906020019091905050610a63565b6040518082815260200191505060405180910390f35b34156102a357600080fd5b6102cf600480803573ffffffffffffffffffffffffffffffffffffffff16906020019091905050610aac565b005b34156102dc57600080fd5b6102e4610b4b565b604051808273ffffffffffffffffffffffffffffffffffffffff1673ffffffffffffffffffffffffffffffffffffffff16815260200191505060405180910390f35b341561033157600080fd5b610339610b70565b005b341561034657600080fd5b610372600480803573ffffffffffffffffffffffffffffffffffffffff16906020019091905050610c42565b005b341561037f57600080fd5b6103ab600480803573ffffffffffffffffffffffffffffffffffffffff16906020019091905050610d73565b604051808215151515815260200191505060405180910390f35b34156103d057600080fd5b6103d8610d93565b604051808215151515815260200191505060405180910390f35b34156103fd57600080fd5b610446600480803573ffffffffffffffffffffffffffffffffffffffff169060200190919080359060200190919080359060200190820180359060200191909192905050610d9c565b005b341561045357600080fd5b61047f600480803573ffffffffffffffffffffffffffffffffffffffff16906020019091905050610da1565b005b341561048c57600080fd5b6104b8600480803573ffffffffffffffffffffffffffffffffffffffff16906020019091905050610f4c565b005b34156104c557600080fd5b6104fa600480803573ffffffffffffffffffffffffffffffffffffffff169060200190919080359060200190919050506110a1565b604051808215151515815260200191505060405180910390f35b6000809054906101000a900473ffffffffffffffffffffffffffffffffffffffff1673ffffffffffffffffffffffffffffffffffffffff163373ffffffffffffffffffffffffffffffffffffffff1614151561056f57600080fd5b8173ffffffffffffffffffffffffffffffffffffffff1663c0d7e07b6000604051602001526040518163ffffffff167c0100000000000000000000000000000000000000000000000000000000028152600401602060405180830381600087803b15156105db57600080fd5b6102c65a03f115156105ec57600080fd5b50505060405180519050151561060157600080fd5b8173ffffffffffffffffffffffffffffffffffffffff166354fd4d506000604051602001526040518163ffffffff167c0100000000000000000000000000000000000000000000000000000000028152600401602060405180830381600087803b151561066d57600080fd5b6102c65a03f1151561067e57600080fd5b505050604051805190508111151561069557600080fd5b81600560006101000a81548173ffffffffffffffffffffffffffffffffffffffff021916908373ffffffffffffffffffffffffffffffffffffffff1602179055506106df816109f8565b5050565b60008060009054906101000a900473ffffffffffffffffffffffffffffffffffffffff1673ffffffffffffffffffffffffffffffffffffffff163373ffffffffffffffffffffffffffffffffffffffff1614151561074057600080fd5b600460009054906101000a900473ffffffffffffffffffffffffffffffffffffffff1673ffffffffffffffffffffffffffffffffffffffff168273ffffffffffffffffffffffffffffffffffffffff161415151561079d57600080fd5b8173ffffffffffffffffffffffffffffffffffffffff166370a08231306000604051602001526040518263ffffffff167c0100000000000000000000000000000000000000000000000000000000028152600401808273ffffffffffffffffffffffffffffffffffffffff1673ffffffffffffffffffffffffffffffffffffffff168152602001915050602060405180830381600087803b151561084057600080fd5b6102c65a03f1151561085157600080fd5b5050506040518051905090506108a96000809054906101000a900473ffffffffffffffffffffffffffffffffffffffff16828473ffffffffffffffffffffffffffffffffffffffff1661136a9092919063ffffffff16565b5050565b60036020528060005260406000206000915090505481565b60008060009054906101000a900473ffffffffffffffffffffffffffffffffffffffff1673ffffffffffffffffffffffffffffffffffffffff163373ffffffffffffffffffffffffffffffffffffffff1614151561092257600080fd5b8190508073ffffffffffffffffffffffffffffffffffffffff1663f2fde38b6000809054906101000a900473ffffffffffffffffffffffffffffffffffffffff166040518263ffffffff167c0100000000000000000000000000000000000000000000000000000000028152600401808273ffffffffffffffffffffffffffffffffffffffff1673ffffffffffffffffffffffffffffffffffffffff168152602001915050600060405180830381600087803b15156109e057600080fd5b6102c65a03f115156109f157600080fd5b5050505050565b6000809054906101000a900473ffffffffffffffffffffffffffffffffffffffff1673ffffffffffffffffffffffffffffffffffffffff163373ffffffffffffffffffffffffffffffffffffffff16141515610a5357600080fd5b8060018190555050565b60015481565b6000600360008373ffffffffffffffffffffffffffffffffffffffff1673ffffffffffffffffffffffffffffffffffffffff168152602001908152602001600020549050919050565b6000809054906101000a900473ffffffffffffffffffffffffffffffffffffffff1673ffffffffffffffffffffffffffffffffffffffff163373ffffffffffffffffffffffffffffffffffffffff16141515610b0757600080fd5b80600460006101000a81548173ffffffffffffffffffffffffffffffffffffffff021916908373ffffffffffffffffffffffffffffffffffffffff16021790555050565b6000809054906101000a900473ffffffffffffffffffffffffffffffffffffffff1681565b6000809054906101000a900473ffffffffffffffffffffffffffffffffffffffff1673ffffffffffffffffffffffffffffffffffffffff163373ffffffffffffffffffffffffffffffffffffffff16141515610bcb57600080fd5b6000809054906101000a900473ffffffffffffffffffffffffffffffffffffffff1673ffffffffffffffffffffffffffffffffffffffff166108fc3073ffffffffffffffffffffffffffffffffffffffff16319081150290604051600060405180830381858888f193505050501515610c4057fe5b565b6000809054906101000a900473ffffffffffffffffffffffffffffffffffffffff1673ffffffffffffffffffffffffffffffffffffffff163373ffffffffffffffffffffffffffffffffffffffff16141515610c9d57600080fd5b8073ffffffffffffffffffffffffffffffffffffffff1663c19d6f5f6000604051602001526040518163ffffffff167c0100000000000000000000000000000000000000000000000000000000028152600401602060405180830381600087803b1515610d0957600080fd5b6102c65a03f11515610d1a57600080fd5b505050604051805190501515610d2f57600080fd5b80600660006101000a81548173ffffffffffffffffffffffffffffffffffffffff021916908373ffffffffffffffffffffffffffffffffffffffff16021790555050565b60026020528060005260406000206000915054906101000a900460ff1681565b60006001905090565b600080fd5b60011515600260003373ffffffffffffffffffffffffffffffffffffffff1673ffffffffffffffffffffffffffffffffffffffff16815260200190815260200160002060009054906101000a900460ff16151514151515610e0157600080fd5b6001548173ffffffffffffffffffffffffffffffffffffffff166354fd4d506000604051602001526040518163ffffffff167c0100000000000000000000000000000000000000000000000000000000028152600401602060405180830381600087803b1515610e7057600080fd5b6102c65a03f11515610e8157600080fd5b50505060405180519050111515610e9757600080fd5b6001600260003373ffffffffffffffffffffffffffffffffffffffff1673ffffffffffffffffffffffffffffffffffffffff16815260200190815260200160002060006101000a81548160ff0219169083151502179055508073ffffffffffffffffffffffffffffffffffffffff163373ffffffffffffffffffffffffffffffffffffffff167fc123aa2e5c63456c59a4694ac50ba610152278a01162f3d5e3a6ffc457bc586e60405160405180910390a350565b6000809054906101000a900473ffffffffffffffffffffffffffffffffffffffff1673ffffffffffffffffffffffffffffffffffffffff163373ffffffffffffffffffffffffffffffffffffffff16141515610fa757600080fd5b600073ffffffffffffffffffffffffffffffffffffffff168173ffffffffffffffffffffffffffffffffffffffff1614151515610fe357600080fd5b8073ffffffffffffffffffffffffffffffffffffffff166000809054906101000a900473ffffffffffffffffffffffffffffffffffffffff1673ffffffffffffffffffffffffffffffffffffffff167f8be0079c531659141344cd1fd0a4f28419497f9722a3daafe3b4186f6b6457e060405160405180910390a3806000806101000a81548173ffffffffffffffffffffffffffffffffffffffff021916908373ffffffffffffffffffffffffffffffffffffffff16021790555050565b6000600660009054906101000a900473ffffffffffffffffffffffffffffffffffffffff1673ffffffffffffffffffffffffffffffffffffffff163373ffffffffffffffffffffffffffffffffffffffff16148061114b57506000809054906101000a900473ffffffffffffffffffffffffffffffffffffffff1673ffffffffffffffffffffffffffffffffffffffff163373ffffffffffffffffffffffffffffffffffffffff16145b151561115657600080fd5b600460009054906101000a900473ffffffffffffffffffffffffffffffffffffffff1673ffffffffffffffffffffffffffffffffffffffff166323b872dd8430856000604051602001526040518463ffffffff167c0100000000000000000000000000000000000000000000000000000000028152600401808473ffffffffffffffffffffffffffffffffffffffff1673ffffffffffffffffffffffffffffffffffffffff1681526020018373ffffffffffffffffffffffffffffffffffffffff1673ffffffffffffffffffffffffffffffffffffffff1681526020018281526020019350505050602060405180830381600087803b151561125757600080fd5b6102c65a03f1151561126857600080fd5b50505060405180519050151561127d57600080fd5b6112cf82600360008673ffffffffffffffffffffffffffffffffffffffff1673ffffffffffffffffffffffffffffffffffffffff1681526020019081526020016000205461143d90919063ffffffff16565b600360008573ffffffffffffffffffffffffffffffffffffffff1673ffffffffffffffffffffffffffffffffffffffff168152602001908152602001600020819055508273ffffffffffffffffffffffffffffffffffffffff167f31bad5e33d78c53a4fff2a1a5a76a3298afae45e741f0961945f77f20a578995836040518082815260200191505060405180910390a26001905092915050565b8273ffffffffffffffffffffffffffffffffffffffff1663a9059cbb83836000604051602001526040518363ffffffff167c0100000000000000000000000000000000000000000000000000000000028152600401808373ffffffffffffffffffffffffffffffffffffffff1673ffffffffffffffffffffffffffffffffffffffff16815260200182815260200192505050602060405180830381600087803b151561141557600080fd5b6102c65a03f1151561142657600080fd5b50505060405180519050151561143857fe5b505050565b600080828401905083811015151561145157fe5b80915050929150505600a165627a7a7230582092ec2a60665596a0bfe2c353b160320dbbe7e22f42f5f838017fc3354d9680490029",
  "source": "pragma solidity ^0.4.18;\n\nimport 'e11-contracts/contracts/ExperimentalToken.sol';\nimport 'zeppelin-solidity/contracts/math/SafeMath.sol';\nimport 'zeppelin-solidity/contracts/ownership/NoOwner.sol';\nimport './UserVillage.sol';\nimport './Versioned.sol';\n\n /**\n  * @title UserVault (WIP)\n  * @dev Keeps track of users e11 balance inside the game.\n  * Additional functionality might be added to allow withdraws, implement time locks on withdraws,\n  * and enable internal transfers between users.\n  * @dev Issue: * https://github.com/e11-io/crypto-wars-solidity/issues/2\n  */\ncontract UserVault is NoOwner, Versioned {\n  using SafeMath for uint256;\n\n  /**\n   * @dev event for adding tokens logging\n   * @param owner The address that will receive the tokens.\n   * @param amount The amount of tokens to add.\n   */\n\tevent VaultAdd(address indexed owner, uint256 amount);\n\n  // Mapping of user -> balance (keeps track of owned balance)\n  mapping(address => uint256) public balances;\n\n\tExperimentalToken experimentalToken;\n  UserVault previousUserVault;\n  UserVillage userVillage;\n\n\n  /**\n   * @dev Constructor: Instantiate User Vault contract.\n   */\n\tfunction UserVault() public {\n\t}\n\n\t/**\n\t * @notice Makes the contract type verifiable.\n\t * @dev Function to prove the contract is User Vault.\n\t */\n\tfunction isUserVault() external pure returns (bool) {\n\t\treturn true;\n\t}\n\n\t/**\n\t * @notice Sets the contract's version and instantiates the previous version contract.\n\t * @dev Function to set the contract version and instantiate the previous User Buildings.\n\t * @param _previousUserVault the address of previous User Vault contract. (address)\n\t * @param _version the current contract version number. (uint)\n\t */\n\tfunction setUserVaultVersion(UserVault _previousUserVault, uint _version) external onlyOwner {\n\t\trequire(_previousUserVault.isUserVault());\n\t\trequire(_version > _previousUserVault.version());\n\t\tpreviousUserVault = _previousUserVault;\n    setVersion(_version);\n\t}\n\n  /**\n   * @notice Instantiate Experimental Token contract.\n   * @dev Function to provide Experimental Token address and instantiate it.\n   * @param _experimentalToken the address of Experimental Token contract. (address)\n   */\n  function setExperimentalToken(ExperimentalToken _experimentalToken) external onlyOwner {\n    experimentalToken = _experimentalToken;\n  }\n\n  /**\n   * @notice Instantiate User Village contract.\n   * @dev Function to provide User Village address and instantiate it.\n   * @param _userVillage the address of User Village contract. (address)\n   */\n  function setUserVillage(UserVillage _userVillage) external onlyOwner {\n    require(_userVillage.isUserVillage());\n    userVillage = _userVillage;\n  }\n\n  /**\n   * @dev Function to add tokens\n   * @param _from The address that will receive the tokens.\n   * @param _amount The amount of tokens to add.\n   * @return A boolean that indicates if the operation was successful.\n   */\n  function add(address _from, uint256 _amount) external returns(bool) {\n    require(msg.sender == address(userVillage) || msg.sender == owner);\n    require(experimentalToken.transferFrom(_from, this, _amount));\n    balances[_from] = balances[_from].add(_amount);\n\t\tVaultAdd(_from, _amount);\n    return true;\n  }\n\n  /**\n   * @dev Function to overwrite reclaimToken\n   * Do not allow owner to reclaim contract specific tokens.\n   * @param _token The token address that will be reclaimed.\n   * @return A boolean that indicates if the operation was successful.\n   */\n  function reclaimToken(ERC20Basic _token) external onlyOwner {\n    require(_token != experimentalToken);\n    uint256 balance = _token.balanceOf(this);\n    _token.safeTransfer(owner, balance);\n  }\n\n  /**\n   * @dev Gets the balance of the specified address.\n   * @param _user The address to query the balance of.\n   * @return An uint256 representing the amount owned by the passed address.\n   */\n  function balanceOf(address _user) external constant returns (uint256 balance) {\n    return balances[_user];\n  }\n}\n",
  "sourcePath": "/home/francisco/Truffle/crypto-wars-solidity/contracts/UserVault.sol",
  "compiler": {
    "name": "solc",
    "version": "0.4.19+commit.c4cbbb05.Emscripten.clang"
  },
  "schemaVersion": "2.0.0",
  "updatedAt": "2018-03-15T18:51:10.670Z"
}