{
  "contractName": "UserVillage",
  "abi": [
    {
      "constant": false,
      "inputs": [
        {
          "name": "token",
          "type": "address"
        }
      ],
      "name": "reclaimToken",
      "outputs": [],
      "payable": false,
      "stateMutability": "nonpayable",
      "type": "function"
    },
    {
      "constant": false,
      "inputs": [
        {
          "name": "contractAddr",
          "type": "address"
        }
      ],
      "name": "reclaimContract",
      "outputs": [],
      "payable": false,
      "stateMutability": "nonpayable",
      "type": "function"
    },
    {
      "constant": false,
      "inputs": [
        {
          "name": "_version",
          "type": "uint256"
        }
      ],
      "name": "setVersion",
      "outputs": [],
      "payable": false,
      "stateMutability": "nonpayable",
      "type": "function"
    },
    {
      "constant": true,
      "inputs": [],
      "name": "version",
      "outputs": [
        {
          "name": "",
          "type": "uint256"
        }
      ],
      "payable": false,
      "stateMutability": "view",
      "type": "function"
    },
    {
      "constant": true,
      "inputs": [
        {
          "name": "",
          "type": "bytes32"
        }
      ],
      "name": "addresses",
      "outputs": [
        {
          "name": "",
          "type": "address"
        }
      ],
      "payable": false,
      "stateMutability": "view",
      "type": "function"
    },
    {
      "constant": true,
      "inputs": [
        {
          "name": "",
          "type": "address"
        }
      ],
      "name": "villages",
      "outputs": [
        {
          "name": "",
          "type": "string"
        }
      ],
      "payable": false,
      "stateMutability": "view",
      "type": "function"
    },
    {
      "constant": true,
      "inputs": [],
      "name": "owner",
      "outputs": [
        {
          "name": "",
          "type": "address"
        }
      ],
      "payable": false,
      "stateMutability": "view",
      "type": "function"
    },
    {
      "constant": false,
      "inputs": [],
      "name": "reclaimEther",
      "outputs": [],
      "payable": false,
      "stateMutability": "nonpayable",
      "type": "function"
    },
    {
      "constant": true,
      "inputs": [
        {
          "name": "",
          "type": "address"
        }
      ],
      "name": "migratedUsers",
      "outputs": [
        {
          "name": "",
          "type": "bool"
        }
      ],
      "payable": false,
      "stateMutability": "view",
      "type": "function"
    },
    {
      "constant": false,
      "inputs": [
        {
          "name": "from_",
          "type": "address"
        },
        {
          "name": "value_",
          "type": "uint256"
        },
        {
          "name": "data_",
          "type": "bytes"
        }
      ],
      "name": "tokenFallback",
      "outputs": [],
      "payable": false,
      "stateMutability": "nonpayable",
      "type": "function"
    },
    {
      "constant": false,
      "inputs": [
        {
          "name": "_newContract",
          "type": "address"
        }
      ],
      "name": "migrateUser",
      "outputs": [],
      "payable": false,
      "stateMutability": "nonpayable",
      "type": "function"
    },
    {
      "constant": false,
      "inputs": [
        {
          "name": "newOwner",
          "type": "address"
        }
      ],
      "name": "transferOwnership",
      "outputs": [],
      "payable": false,
      "stateMutability": "nonpayable",
      "type": "function"
    },
    {
      "inputs": [],
      "payable": false,
      "stateMutability": "nonpayable",
      "type": "constructor"
    },
    {
      "payable": false,
      "stateMutability": "nonpayable",
      "type": "fallback"
    },
    {
      "anonymous": false,
      "inputs": [
        {
          "indexed": true,
          "name": "owner",
          "type": "address"
        },
        {
          "indexed": false,
          "name": "name",
          "type": "string"
        },
        {
          "indexed": false,
          "name": "username",
          "type": "string"
        }
      ],
      "name": "VillageCreated",
      "type": "event"
    },
    {
      "anonymous": false,
      "inputs": [
        {
          "indexed": true,
          "name": "user",
          "type": "address"
        },
        {
          "indexed": true,
          "name": "newContract",
          "type": "address"
        }
      ],
      "name": "UserMigrated",
      "type": "event"
    },
    {
      "anonymous": false,
      "inputs": [
        {
          "indexed": true,
          "name": "previousOwner",
          "type": "address"
        },
        {
          "indexed": true,
          "name": "newOwner",
          "type": "address"
        }
      ],
      "name": "OwnershipTransferred",
      "type": "event"
    },
    {
      "constant": true,
      "inputs": [],
      "name": "isUserVillage",
      "outputs": [
        {
          "name": "",
          "type": "bool"
        }
      ],
      "payable": false,
      "stateMutability": "pure",
      "type": "function"
    },
    {
      "constant": false,
      "inputs": [
        {
          "name": "_previousUserVillage",
          "type": "address"
        },
        {
          "name": "_version",
          "type": "uint256"
        }
      ],
      "name": "setUserVillageVersion",
      "outputs": [],
      "payable": false,
      "stateMutability": "nonpayable",
      "type": "function"
    },
    {
      "constant": false,
      "inputs": [
        {
          "name": "_buildingsData",
          "type": "address"
        }
      ],
      "name": "setBuildingsData",
      "outputs": [],
      "payable": false,
      "stateMutability": "nonpayable",
      "type": "function"
    },
    {
      "constant": false,
      "inputs": [
        {
          "name": "_userBuildings",
          "type": "address"
        }
      ],
      "name": "setUserBuildings",
      "outputs": [],
      "payable": false,
      "stateMutability": "nonpayable",
      "type": "function"
    },
    {
      "constant": false,
      "inputs": [
        {
          "name": "_userResources",
          "type": "address"
        }
      ],
      "name": "setUserResources",
      "outputs": [],
      "payable": false,
      "stateMutability": "nonpayable",
      "type": "function"
    },
    {
      "constant": false,
      "inputs": [
        {
          "name": "_userVault",
          "type": "address"
        }
      ],
      "name": "setUserVault",
      "outputs": [],
      "payable": false,
      "stateMutability": "nonpayable",
      "type": "function"
    },
    {
      "constant": false,
      "inputs": [
        {
          "name": "_name",
          "type": "string"
        },
        {
          "name": "_username",
          "type": "string"
        }
      ],
      "name": "create",
      "outputs": [],
      "payable": false,
      "stateMutability": "nonpayable",
      "type": "function"
    },
    {
      "constant": false,
      "inputs": [
        {
          "name": "_ids",
          "type": "uint256[]"
        }
      ],
      "name": "setInitialBuildings",
      "outputs": [],
      "payable": false,
      "stateMutability": "nonpayable",
      "type": "function"
    }
  ],
  "bytecode": "0x608060405234801561001057600080fd5b50336000806101000a81548173ffffffffffffffffffffffffffffffffffffffff021916908373ffffffffffffffffffffffffffffffffffffffff16021790555060003414151561006057600080fd5b6121618061006f6000396000f300608060405260043610610112576000357c0100000000000000000000000000000000000000000000000000000000900463ffffffff16806317ffc32014610121578063198e2b8a1461016457806324357211146101b75780632aed7f3f146101fa578063408def1e1461023d57806354fd4d501461026a57806360b5a98014610295578063699f200f146102d057806382f738a6146103415780638b0e8e67146103fd5780638da5cb5b1461044057806396dc25b9146104975780639f727c27146104da578063bbe768a4146104f1578063c0ee0b8a1461054c578063c19d6f5f146105b1578063d5b999fd146105e0578063dd6c7e3114610623578063ea0212ff14610666578063f2fde38b146106b3575b34801561011e57600080fd5b50005b34801561012d57600080fd5b50610162600480360381019080803573ffffffffffffffffffffffffffffffffffffffff1690602001909291905050506106f6565b005b34801561017057600080fd5b506101b560048036038101908080359060200190820180359060200191909192939192939080359060200190820180359060200191909192939192939050505061087b565b005b3480156101c357600080fd5b506101f8600480360381019080803573ffffffffffffffffffffffffffffffffffffffff169060200190929190505050610fe9565b005b34801561020657600080fd5b5061023b600480360381019080803573ffffffffffffffffffffffffffffffffffffffff169060200190929190505050611132565b005b34801561024957600080fd5b506102686004803603810190808035906020019092919050505061126a565b005b34801561027657600080fd5b5061027f6112cf565b6040518082815260200191505060405180910390f35b3480156102a157600080fd5b506102ce6004803603810190808035906020019082018035906020019190919293919293905050506112d5565b005b3480156102dc57600080fd5b506102ff600480360381019080803560001916906020019092919050505061145e565b604051808273ffffffffffffffffffffffffffffffffffffffff1673ffffffffffffffffffffffffffffffffffffffff16815260200191505060405180910390f35b34801561034d57600080fd5b50610382600480360381019080803573ffffffffffffffffffffffffffffffffffffffff169060200190929190505050611491565b6040518080602001828103825283818151815260200191508051906020019080838360005b838110156103c25780820151818401526020810190506103a7565b50505050905090810190601f1680156103ef5780820380516001836020036101000a031916815260200191505b509250505060405180910390f35b34801561040957600080fd5b5061043e600480360381019080803573ffffffffffffffffffffffffffffffffffffffff169060200190929190505050611541565b005b34801561044c57600080fd5b5061045561168a565b604051808273ffffffffffffffffffffffffffffffffffffffff1673ffffffffffffffffffffffffffffffffffffffff16815260200191505060405180910390f35b3480156104a357600080fd5b506104d8600480360381019080803573ffffffffffffffffffffffffffffffffffffffff1690602001909291905050506116af565b005b3480156104e657600080fd5b506104ef6117f8565b005b3480156104fd57600080fd5b50610532600480360381019080803573ffffffffffffffffffffffffffffffffffffffff1690602001909291905050506118ca565b604051808215151515815260200191505060405180910390f35b34801561055857600080fd5b506105af600480360381019080803573ffffffffffffffffffffffffffffffffffffffff169060200190929190803590602001909291908035906020019082018035906020019190919293919293905050506118ea565b005b3480156105bd57600080fd5b506105c66118ef565b604051808215151515815260200191505060405180910390f35b3480156105ec57600080fd5b50610621600480360381019080803573ffffffffffffffffffffffffffffffffffffffff1690602001909291905050506118f8565b005b34801561062f57600080fd5b50610664600480360381019080803573ffffffffffffffffffffffffffffffffffffffff169060200190929190505050611a41565b005b34801561067257600080fd5b506106b1600480360381019080803573ffffffffffffffffffffffffffffffffffffffff16906020019092919080359060200190929190505050611c04565b005b3480156106bf57600080fd5b506106f4600480360381019080803573ffffffffffffffffffffffffffffffffffffffff169060200190929190505050611e03565b005b60008060009054906101000a900473ffffffffffffffffffffffffffffffffffffffff1673ffffffffffffffffffffffffffffffffffffffff163373ffffffffffffffffffffffffffffffffffffffff1614151561075357600080fd5b8173ffffffffffffffffffffffffffffffffffffffff166370a08231306040518263ffffffff167c0100000000000000000000000000000000000000000000000000000000028152600401808273ffffffffffffffffffffffffffffffffffffffff1673ffffffffffffffffffffffffffffffffffffffff168152602001915050602060405180830381600087803b1580156107ee57600080fd5b505af1158015610802573d6000803e3d6000fd5b505050506040513d602081101561081857600080fd5b810190808051906020019092919050505090506108776000809054906101000a900473ffffffffffffffffffffffffffffffffffffffff16828473ffffffffffffffffffffffffffffffffffffffff16611f589092919063ffffffff16565b5050565b604051806000019050604051809103902060001916848460405180838380828437820191505092505050604051809103902060001916141515156108be57600080fd5b6040518060000190506040518091039020600019168282604051808383808284378201915050925050506040518091039020600019161415151561090157600080fd5b604051806000019050604051809103902060001916600360003373ffffffffffffffffffffffffffffffffffffffff1673ffffffffffffffffffffffffffffffffffffffff16815260200190815260200160002060405180828054600181600116156101000203166002900480156109b05780601f1061098e5761010080835404028352918201916109b0565b820191906000526020600020905b81548152906001019060200180831161099c575b50509150506040518091039020600019161415156109cd57600080fd5b600073ffffffffffffffffffffffffffffffffffffffff166004600084846040518083838082843782019150509250505060405180910390206000191660001916815260200190815260200160002060009054906101000a900473ffffffffffffffffffffffffffffffffffffffff1673ffffffffffffffffffffffffffffffffffffffff16141515610a5f57600080fd5b600a60009054906101000a900473ffffffffffffffffffffffffffffffffffffffff1673ffffffffffffffffffffffffffffffffffffffff1663f5d82b6b33670de0b6b3a76400006040518363ffffffff167c0100000000000000000000000000000000000000000000000000000000028152600401808373ffffffffffffffffffffffffffffffffffffffff1673ffffffffffffffffffffffffffffffffffffffff16815260200182815260200192505050602060405180830381600087803b158015610b2c57600080fd5b505af1158015610b40573d6000803e3d6000fd5b505050506040513d6020811015610b5657600080fd5b81019080805190602001909291905050501515610b7257600080fd5b600960009054906101000a900473ffffffffffffffffffffffffffffffffffffffff1673ffffffffffffffffffffffffffffffffffffffff1663bd6b4ed9336040518263ffffffff167c0100000000000000000000000000000000000000000000000000000000028152600401808273ffffffffffffffffffffffffffffffffffffffff1673ffffffffffffffffffffffffffffffffffffffff168152602001915050602060405180830381600087803b158015610c2f57600080fd5b505af1158015610c43573d6000803e3d6000fd5b505050506040513d6020811015610c5957600080fd5b81019080805190602001909291905050501515610c7557600080fd5b600960009054906101000a900473ffffffffffffffffffffffffffffffffffffffff1673ffffffffffffffffffffffffffffffffffffffff16637c137edd336040518263ffffffff167c0100000000000000000000000000000000000000000000000000000000028152600401808273ffffffffffffffffffffffffffffffffffffffff1673ffffffffffffffffffffffffffffffffffffffff168152602001915050600060405180830381600087803b158015610d3257600080fd5b505af1158015610d46573d6000803e3d6000fd5b50505050600860009054906101000a900473ffffffffffffffffffffffffffffffffffffffff1673ffffffffffffffffffffffffffffffffffffffff1663b9c2f2403360056040518363ffffffff167c0100000000000000000000000000000000000000000000000000000000028152600401808373ffffffffffffffffffffffffffffffffffffffff1673ffffffffffffffffffffffffffffffffffffffff168152602001806020018281038252838181548152602001915080548015610e2d57602002820191906000526020600020905b815481526020019060010190808311610e19575b50509350505050602060405180830381600087803b158015610e4e57600080fd5b505af1158015610e62573d6000803e3d6000fd5b505050506040513d6020811015610e7857600080fd5b81019080805190602001909291905050501515610e9457600080fd5b8383600360003373ffffffffffffffffffffffffffffffffffffffff1673ffffffffffffffffffffffffffffffffffffffff1681526020019081526020016000209190610ee2929190612043565b50336004600084846040518083838082843782019150509250505060405180910390206000191660001916815260200190815260200160002060006101000a81548173ffffffffffffffffffffffffffffffffffffffff021916908373ffffffffffffffffffffffffffffffffffffffff1602179055503373ffffffffffffffffffffffffffffffffffffffff167f1891b576b055f29dd9fad1ba7c77c012c8923939ad8445793ba3b7e18b5c20d8858585856040518080602001806020018381038352878782818152602001925080828437820191505083810382528585828181526020019250808284378201915050965050505050505060405180910390a250505050565b6000809054906101000a900473ffffffffffffffffffffffffffffffffffffffff1673ffffffffffffffffffffffffffffffffffffffff163373ffffffffffffffffffffffffffffffffffffffff1614151561104457600080fd5b8073ffffffffffffffffffffffffffffffffffffffff166319d6dfae6040518163ffffffff167c0100000000000000000000000000000000000000000000000000000000028152600401602060405180830381600087803b1580156110a857600080fd5b505af11580156110bc573d6000803e3d6000fd5b505050506040513d60208110156110d257600080fd5b810190808051906020019092919050505015156110ee57600080fd5b80600860006101000a81548173ffffffffffffffffffffffffffffffffffffffff021916908373ffffffffffffffffffffffffffffffffffffffff16021790555050565b60008060009054906101000a900473ffffffffffffffffffffffffffffffffffffffff1673ffffffffffffffffffffffffffffffffffffffff163373ffffffffffffffffffffffffffffffffffffffff1614151561118f57600080fd5b8190508073ffffffffffffffffffffffffffffffffffffffff1663f2fde38b6000809054906101000a900473ffffffffffffffffffffffffffffffffffffffff166040518263ffffffff167c0100000000000000000000000000000000000000000000000000000000028152600401808273ffffffffffffffffffffffffffffffffffffffff1673ffffffffffffffffffffffffffffffffffffffff168152602001915050600060405180830381600087803b15801561124e57600080fd5b505af1158015611262573d6000803e3d6000fd5b505050505050565b6000809054906101000a900473ffffffffffffffffffffffffffffffffffffffff1673ffffffffffffffffffffffffffffffffffffffff163373ffffffffffffffffffffffffffffffffffffffff161415156112c557600080fd5b8060018190555050565b60015481565b60008060009054906101000a900473ffffffffffffffffffffffffffffffffffffffff1673ffffffffffffffffffffffffffffffffffffffff163373ffffffffffffffffffffffffffffffffffffffff1614151561133257600080fd5b600083839050111561144757600090505b8282905081101561144657600660009054906101000a900473ffffffffffffffffffffffffffffffffffffffff1673ffffffffffffffffffffffffffffffffffffffff16636facbe2b848484818110151561139a57fe5b905060200201356040518263ffffffff167c010000000000000000000000000000000000000000000000000000000002815260040180828152602001915050602060405180830381600087803b1580156113f357600080fd5b505af1158015611407573d6000803e3d6000fd5b505050506040513d602081101561141d57600080fd5b8101908080519060200190929190505050151561143957600080fd5b8080600101915050611343565b5b8282600591906114589291906120c3565b50505050565b60046020528060005260406000206000915054906101000a900473ffffffffffffffffffffffffffffffffffffffff1681565b60036020528060005260406000206000915090508054600181600116156101000203166002900480601f0160208091040260200160405190810160405280929190818152602001828054600181600116156101000203166002900480156115395780601f1061150e57610100808354040283529160200191611539565b820191906000526020600020905b81548152906001019060200180831161151c57829003601f168201915b505050505081565b6000809054906101000a900473ffffffffffffffffffffffffffffffffffffffff1673ffffffffffffffffffffffffffffffffffffffff163373ffffffffffffffffffffffffffffffffffffffff1614151561159c57600080fd5b8073ffffffffffffffffffffffffffffffffffffffff1663c0d7e07b6040518163ffffffff167c0100000000000000000000000000000000000000000000000000000000028152600401602060405180830381600087803b15801561160057600080fd5b505af1158015611614573d6000803e3d6000fd5b505050506040513d602081101561162a57600080fd5b8101908080519060200190929190505050151561164657600080fd5b80600a60006101000a81548173ffffffffffffffffffffffffffffffffffffffff021916908373ffffffffffffffffffffffffffffffffffffffff16021790555050565b6000809054906101000a900473ffffffffffffffffffffffffffffffffffffffff1681565b6000809054906101000a900473ffffffffffffffffffffffffffffffffffffffff1673ffffffffffffffffffffffffffffffffffffffff163373ffffffffffffffffffffffffffffffffffffffff1614151561170a57600080fd5b8073ffffffffffffffffffffffffffffffffffffffff16633769feef6040518163ffffffff167c0100000000000000000000000000000000000000000000000000000000028152600401602060405180830381600087803b15801561176e57600080fd5b505af1158015611782573d6000803e3d6000fd5b505050506040513d602081101561179857600080fd5b810190808051906020019092919050505015156117b457600080fd5b80600660006101000a81548173ffffffffffffffffffffffffffffffffffffffff021916908373ffffffffffffffffffffffffffffffffffffffff16021790555050565b6000809054906101000a900473ffffffffffffffffffffffffffffffffffffffff1673ffffffffffffffffffffffffffffffffffffffff163373ffffffffffffffffffffffffffffffffffffffff1614151561185357600080fd5b6000809054906101000a900473ffffffffffffffffffffffffffffffffffffffff1673ffffffffffffffffffffffffffffffffffffffff166108fc3073ffffffffffffffffffffffffffffffffffffffff16319081150290604051600060405180830381858888f1935050505015156118c857fe5b565b60026020528060005260406000206000915054906101000a900460ff1681565b600080fd5b60006001905090565b6000809054906101000a900473ffffffffffffffffffffffffffffffffffffffff1673ffffffffffffffffffffffffffffffffffffffff163373ffffffffffffffffffffffffffffffffffffffff1614151561195357600080fd5b8073ffffffffffffffffffffffffffffffffffffffff1663f229a4156040518163ffffffff167c0100000000000000000000000000000000000000000000000000000000028152600401602060405180830381600087803b1580156119b757600080fd5b505af11580156119cb573d6000803e3d6000fd5b505050506040513d60208110156119e157600080fd5b810190808051906020019092919050505015156119fd57600080fd5b80600960006101000a81548173ffffffffffffffffffffffffffffffffffffffff021916908373ffffffffffffffffffffffffffffffffffffffff16021790555050565b60011515600260003373ffffffffffffffffffffffffffffffffffffffff1673ffffffffffffffffffffffffffffffffffffffff16815260200190815260200160002060009054906101000a900460ff16151514151515611aa157600080fd5b6001548173ffffffffffffffffffffffffffffffffffffffff166354fd4d506040518163ffffffff167c0100000000000000000000000000000000000000000000000000000000028152600401602060405180830381600087803b158015611b0857600080fd5b505af1158015611b1c573d6000803e3d6000fd5b505050506040513d6020811015611b3257600080fd5b8101908080519060200190929190505050111515611b4f57600080fd5b6001600260003373ffffffffffffffffffffffffffffffffffffffff1673ffffffffffffffffffffffffffffffffffffffff16815260200190815260200160002060006101000a81548160ff0219169083151502179055508073ffffffffffffffffffffffffffffffffffffffff163373ffffffffffffffffffffffffffffffffffffffff167fc123aa2e5c63456c59a4694ac50ba610152278a01162f3d5e3a6ffc457bc586e60405160405180910390a350565b6000809054906101000a900473ffffffffffffffffffffffffffffffffffffffff1673ffffffffffffffffffffffffffffffffffffffff163373ffffffffffffffffffffffffffffffffffffffff16141515611c5f57600080fd5b8173ffffffffffffffffffffffffffffffffffffffff1663c19d6f5f6040518163ffffffff167c0100000000000000000000000000000000000000000000000000000000028152600401602060405180830381600087803b158015611cc357600080fd5b505af1158015611cd7573d6000803e3d6000fd5b505050506040513d6020811015611ced57600080fd5b81019080805190602001909291905050501515611d0957600080fd5b8173ffffffffffffffffffffffffffffffffffffffff166354fd4d506040518163ffffffff167c0100000000000000000000000000000000000000000000000000000000028152600401602060405180830381600087803b158015611d6d57600080fd5b505af1158015611d81573d6000803e3d6000fd5b505050506040513d6020811015611d9757600080fd5b810190808051906020019092919050505081111515611db557600080fd5b81600760006101000a81548173ffffffffffffffffffffffffffffffffffffffff021916908373ffffffffffffffffffffffffffffffffffffffff160217905550611dff8161126a565b5050565b6000809054906101000a900473ffffffffffffffffffffffffffffffffffffffff1673ffffffffffffffffffffffffffffffffffffffff163373ffffffffffffffffffffffffffffffffffffffff16141515611e5e57600080fd5b600073ffffffffffffffffffffffffffffffffffffffff168173ffffffffffffffffffffffffffffffffffffffff1614151515611e9a57600080fd5b8073ffffffffffffffffffffffffffffffffffffffff166000809054906101000a900473ffffffffffffffffffffffffffffffffffffffff1673ffffffffffffffffffffffffffffffffffffffff167f8be0079c531659141344cd1fd0a4f28419497f9722a3daafe3b4186f6b6457e060405160405180910390a3806000806101000a81548173ffffffffffffffffffffffffffffffffffffffff021916908373ffffffffffffffffffffffffffffffffffffffff16021790555050565b8273ffffffffffffffffffffffffffffffffffffffff1663a9059cbb83836040518363ffffffff167c0100000000000000000000000000000000000000000000000000000000028152600401808373ffffffffffffffffffffffffffffffffffffffff1673ffffffffffffffffffffffffffffffffffffffff16815260200182815260200192505050602060405180830381600087803b158015611ffb57600080fd5b505af115801561200f573d6000803e3d6000fd5b505050506040513d602081101561202557600080fd5b8101908080519060200190929190505050151561203e57fe5b505050565b828054600181600116156101000203166002900490600052602060002090601f016020900481019282601f1061208457803560ff19168380011785556120b2565b828001600101855582156120b2579182015b828111156120b1578235825591602001919060010190612096565b5b5090506120bf9190612110565b5090565b8280548282559060005260206000209081019282156120ff579160200282015b828111156120fe5782358255916020019190600101906120e3565b5b50905061210c9190612110565b5090565b61213291905b8082111561212e576000816000905550600101612116565b5090565b905600a165627a7a72305820697e3f48daf4939fbc80e71a248cd0946f6c624191309ec078338565f884269e0029",
  "source": "pragma solidity ^0.4.23;\n\nimport 'zeppelin-solidity/contracts/token/ERC20Basic.sol';\nimport 'zeppelin-solidity/contracts/ownership/NoOwner.sol';\nimport './UserBuildings.sol';\nimport './UserResources.sol';\nimport './UserVault.sol';\nimport './BuildingsData.sol';\nimport './Versioned.sol';\n\n/**\n * @title UserVillage (WIP)\n * @dev Manages the user village.\n * Additional functionality might be added to allow the village to be destroyed,\n * transferred to another user, paused and un-paused.\n * @dev Issue: * https://github.com/e11-io/crypto-wars-solidity/issues/1\n */\ncontract UserVillage is NoOwner, Versioned {\n\n\t/**\n   * @dev event for village creation logging\n   * @param owner who created the village\n\t * @param name the name of the village\n   * @param username the username of the owner\n   */\n\tevent VillageCreated(address indexed owner, string name, string username);\n\n\t// Mapping of user -> village name (keeps track of owned villages)\n\tmapping(address => string) public villages;\n\t// Mapping of username -> user (useful for quick lookup)\n\tmapping(bytes32 => address) public addresses;\n\n\t// Vault contract used to store in-game currency.\n\tuint[] initialBuildingsIds;\n\n\tBuildingsData buildingsData;\n\tUserVillage previousUserVillage;\n\tUserBuildings userBuildings;\n\tUserResources userResources;\n\tUserVault userVault;\n\n\t/**\n   * @dev Constructor: Instantiate User Village contract.\n   */\n\tconstructor() public {\n\t}\n\n\t/**\n\t * @notice Makes the contract type verifiable.\n\t * @dev Function to prove the contract is User Village.\n\t */\n\tfunction isUserVillage() external pure returns (bool) {\n\t\treturn true;\n\t}\n\n\t/**\n\t * @notice Sets the contract's version and instantiates the previous version contract.\n\t * @dev Function to set the contract version and instantiate the previous User Buildings.\n\t * @param _previousUserVillage the address of previous User Village contract. (address)\n\t * @param _version the current contract version number. (uint)\n\t */\n\tfunction setUserVillageVersion(UserVillage _previousUserVillage, uint _version) external onlyOwner {\n\t\trequire(_previousUserVillage.isUserVillage());\n\t\trequire(_version > _previousUserVillage.version());\n\t\tpreviousUserVillage = _previousUserVillage;\n\t\tsetVersion(_version);\n\t}\n\n\t/**\n   * @notice Instantiate Buildings Data contract.\n   * @dev Function to provide Buildings Data address and instantiate it.\n   * @param _buildingsData the address of Buildings Data contract. (address)\n   */\n  function setBuildingsData(BuildingsData _buildingsData) external onlyOwner {\n\t\trequire(_buildingsData.isBuildingsData());\n    buildingsData = _buildingsData;\n  }\n\n\t/*\n   * @title Instantiate User Buildings contract.\n   * @dev Function to provide User Buildings address and instantiate it.\n   * @param _userBuildings the address of User Buildings contract. (address)\n   */\n\tfunction setUserBuildings(UserBuildings _userBuildings) external onlyOwner {\n\t\trequire(_userBuildings.isUserBuildings());\n\t\tuserBuildings = _userBuildings;\n\t}\n\n\t/**\n   * @notice Instantiate User Resources contract.\n   * @dev Function to provide User Resources address and instantiate it.\n   * @param _userResources the address of User Resources contract. (address)\n   */\n  function setUserResources(UserResources _userResources) external onlyOwner {\n    require(_userResources.isUserResources());\n    userResources = _userResources;\n  }\n\n\t/**\n   * @notice Instantiate User Vault contract.\n   * @dev Function to provide User Vault address and instantiate it.\n   * @param _userVault the address of User Vault contract. (address)\n   */\n  function setUserVault(UserVault _userVault) external onlyOwner {\n    require(_userVault.isUserVault());\n    userVault = _userVault;\n  }\n\n\t/**\n   * @notice Creates a new village\n   * @dev Function to create a village\n   * @param _name The name of the new village. (Not-Empty)\n   * @param _username The name of the new user. (Not-Empty Unique)\n   */\n  function create(string _name, string _username) external {\n    require(keccak256(_name) != keccak256(\"\")); // 'invalid_village_name'\n    require(keccak256(_username) != keccak256(\"\")); // 'invalid_user_name'\n\t\trequire(keccak256(villages[msg.sender]) == keccak256(\"\")); // 'user_already_has_village'\n\t\trequire(addresses[keccak256(_username)] == address(0)); // 'user_name_already_in_use'\n\n\t\t// Check and Transfer user's token.\n\t\trequire(userVault.add(msg.sender, 1 ether)); // 'could_not_transfer_tokens'\n\t\trequire(userResources.initUserResources(msg.sender));\n\t\tuserResources.initPayoutBlock(msg.sender);\n\t\trequire(userBuildings.addInitialBuildings(msg.sender, initialBuildingsIds));\n\n\t\tvillages[msg.sender] = _name;\n\t\taddresses[keccak256(_username)] = msg.sender;\n\t\temit VillageCreated(msg.sender, _name, _username);\n  }\n\n\t/**\n   * @notice Set Initial Buildings\n   * @dev Function to set the array with the initial buildings ids.\n   * @param _ids The ids of the buildings (uint[])\n   */\n\tfunction setInitialBuildings(uint[] _ids) external onlyOwner {\n\t\tif (_ids.length > 0) {\n\t\t\tfor (uint i = 0; i < _ids.length; i++) {\n\t\t\t\trequire(buildingsData.checkBuildingExist(_ids[i]));\n\t\t\t}\n\t\t}\n\n\t\tinitialBuildingsIds = _ids;\n\t}\n\n}\n",
  "sourcePath": "/home/francisco/Truffle/crypto-wars-solidity/contracts/UserVillage.sol",
  "compiler": {
    "name": "solc",
    "version": "0.4.23+commit.124ca40d.Emscripten.clang"
  },
  "schemaVersion": "2.0.0",
  "updatedAt": "2018-04-26T19:14:33.843Z"
}