{
  "contractName": "UserVillage",
  "abi": [
    {
      "constant": false,
      "inputs": [
        {
          "name": "token",
          "type": "address"
        }
      ],
      "name": "reclaimToken",
      "outputs": [],
      "payable": false,
      "stateMutability": "nonpayable",
      "type": "function"
    },
    {
      "constant": false,
      "inputs": [
        {
          "name": "contractAddr",
          "type": "address"
        }
      ],
      "name": "reclaimContract",
      "outputs": [],
      "payable": false,
      "stateMutability": "nonpayable",
      "type": "function"
    },
    {
      "constant": false,
      "inputs": [
        {
          "name": "_version",
          "type": "uint256"
        }
      ],
      "name": "setVersion",
      "outputs": [],
      "payable": false,
      "stateMutability": "nonpayable",
      "type": "function"
    },
    {
      "constant": true,
      "inputs": [],
      "name": "version",
      "outputs": [
        {
          "name": "",
          "type": "uint256"
        }
      ],
      "payable": false,
      "stateMutability": "view",
      "type": "function"
    },
    {
      "constant": true,
      "inputs": [
        {
          "name": "",
          "type": "bytes32"
        }
      ],
      "name": "addresses",
      "outputs": [
        {
          "name": "",
          "type": "address"
        }
      ],
      "payable": false,
      "stateMutability": "view",
      "type": "function"
    },
    {
      "constant": true,
      "inputs": [
        {
          "name": "",
          "type": "address"
        }
      ],
      "name": "villages",
      "outputs": [
        {
          "name": "",
          "type": "string"
        }
      ],
      "payable": false,
      "stateMutability": "view",
      "type": "function"
    },
    {
      "constant": true,
      "inputs": [],
      "name": "owner",
      "outputs": [
        {
          "name": "",
          "type": "address"
        }
      ],
      "payable": false,
      "stateMutability": "view",
      "type": "function"
    },
    {
      "constant": false,
      "inputs": [],
      "name": "reclaimEther",
      "outputs": [],
      "payable": false,
      "stateMutability": "nonpayable",
      "type": "function"
    },
    {
      "constant": true,
      "inputs": [
        {
          "name": "",
          "type": "address"
        }
      ],
      "name": "migratedUsers",
      "outputs": [
        {
          "name": "",
          "type": "bool"
        }
      ],
      "payable": false,
      "stateMutability": "view",
      "type": "function"
    },
    {
      "constant": false,
      "inputs": [
        {
          "name": "from_",
          "type": "address"
        },
        {
          "name": "value_",
          "type": "uint256"
        },
        {
          "name": "data_",
          "type": "bytes"
        }
      ],
      "name": "tokenFallback",
      "outputs": [],
      "payable": false,
      "stateMutability": "nonpayable",
      "type": "function"
    },
    {
      "constant": false,
      "inputs": [
        {
          "name": "_newContract",
          "type": "address"
        }
      ],
      "name": "migrateUser",
      "outputs": [],
      "payable": false,
      "stateMutability": "nonpayable",
      "type": "function"
    },
    {
      "constant": false,
      "inputs": [
        {
          "name": "newOwner",
          "type": "address"
        }
      ],
      "name": "transferOwnership",
      "outputs": [],
      "payable": false,
      "stateMutability": "nonpayable",
      "type": "function"
    },
    {
      "inputs": [],
      "payable": false,
      "stateMutability": "nonpayable",
      "type": "constructor"
    },
    {
      "payable": false,
      "stateMutability": "nonpayable",
      "type": "fallback"
    },
    {
      "anonymous": false,
      "inputs": [
        {
          "indexed": true,
          "name": "owner",
          "type": "address"
        },
        {
          "indexed": false,
          "name": "name",
          "type": "string"
        },
        {
          "indexed": false,
          "name": "username",
          "type": "string"
        }
      ],
      "name": "VillageCreated",
      "type": "event"
    },
    {
      "anonymous": false,
      "inputs": [
        {
          "indexed": true,
          "name": "user",
          "type": "address"
        },
        {
          "indexed": true,
          "name": "newContract",
          "type": "address"
        }
      ],
      "name": "UserMigrated",
      "type": "event"
    },
    {
      "anonymous": false,
      "inputs": [
        {
          "indexed": true,
          "name": "previousOwner",
          "type": "address"
        },
        {
          "indexed": true,
          "name": "newOwner",
          "type": "address"
        }
      ],
      "name": "OwnershipTransferred",
      "type": "event"
    },
    {
      "constant": true,
      "inputs": [],
      "name": "isUserVillage",
      "outputs": [
        {
          "name": "",
          "type": "bool"
        }
      ],
      "payable": false,
      "stateMutability": "pure",
      "type": "function"
    },
    {
      "constant": false,
      "inputs": [
        {
          "name": "_previousUserVillage",
          "type": "address"
        },
        {
          "name": "_version",
          "type": "uint256"
        }
      ],
      "name": "setUserVillageVersion",
      "outputs": [],
      "payable": false,
      "stateMutability": "nonpayable",
      "type": "function"
    },
    {
      "constant": false,
      "inputs": [
        {
          "name": "_buildingsData",
          "type": "address"
        }
      ],
      "name": "setBuildingsData",
      "outputs": [],
      "payable": false,
      "stateMutability": "nonpayable",
      "type": "function"
    },
    {
      "constant": false,
      "inputs": [
        {
          "name": "_userBuildings",
          "type": "address"
        }
      ],
      "name": "setUserBuildings",
      "outputs": [],
      "payable": false,
      "stateMutability": "nonpayable",
      "type": "function"
    },
    {
      "constant": false,
      "inputs": [
        {
          "name": "_userResources",
          "type": "address"
        }
      ],
      "name": "setUserResources",
      "outputs": [],
      "payable": false,
      "stateMutability": "nonpayable",
      "type": "function"
    },
    {
      "constant": false,
      "inputs": [
        {
          "name": "_userVault",
          "type": "address"
        }
      ],
      "name": "setUserVault",
      "outputs": [],
      "payable": false,
      "stateMutability": "nonpayable",
      "type": "function"
    },
    {
      "constant": false,
      "inputs": [
        {
          "name": "_name",
          "type": "string"
        },
        {
          "name": "_username",
          "type": "string"
        }
      ],
      "name": "create",
      "outputs": [],
      "payable": false,
      "stateMutability": "nonpayable",
      "type": "function"
    },
    {
      "constant": false,
      "inputs": [
        {
          "name": "_ids",
          "type": "uint256[]"
        }
      ],
      "name": "setInitialBuildings",
      "outputs": [],
      "payable": false,
      "stateMutability": "nonpayable",
      "type": "function"
    }
  ],
  "bytecode": "0x6060604052341561000f57600080fd5b336000806101000a81548173ffffffffffffffffffffffffffffffffffffffff021916908373ffffffffffffffffffffffffffffffffffffffff16021790555060003414151561005e57600080fd5b611f658061006d6000396000f300606060405260043610610112576000357c0100000000000000000000000000000000000000000000000000000000900463ffffffff16806317ffc3201461011f578063198e2b8a14610158578063243572111461019a5780632aed7f3f146101d3578063408def1e1461020c57806354fd4d501461022f57806360b5a98014610258578063699f200f1461028657806382f738a6146102ed5780638b0e8e671461039f5780638da5cb5b146103d857806396dc25b91461042d5780639f727c2714610466578063bbe768a41461047b578063c0ee0b8a146104cc578063c19d6f5f14610522578063d5b999fd1461054f578063dd6c7e3114610588578063ea0212ff146105c1578063f2fde38b14610603575b341561011d57600080fd5b005b341561012a57600080fd5b610156600480803573ffffffffffffffffffffffffffffffffffffffff1690602001909190505061063c565b005b341561016357600080fd5b6101986004808035906020019082018035906020019190919290803590602001908201803590602001919091929050506107a9565b005b34156101a557600080fd5b6101d1600480803573ffffffffffffffffffffffffffffffffffffffff16906020019091905050610eca565b005b34156101de57600080fd5b61020a600480803573ffffffffffffffffffffffffffffffffffffffff16906020019091905050610ffb565b005b341561021757600080fd5b61022d600480803590602001909190505061112e565b005b341561023a57600080fd5b610242611193565b6040518082815260200191505060405180910390f35b341561026357600080fd5b61028460048080359060200190820180359060200191909192905050611199565b005b341561029157600080fd5b6102ab60048080356000191690602001909190505061130a565b604051808273ffffffffffffffffffffffffffffffffffffffff1673ffffffffffffffffffffffffffffffffffffffff16815260200191505060405180910390f35b34156102f857600080fd5b610324600480803573ffffffffffffffffffffffffffffffffffffffff1690602001909190505061133d565b6040518080602001828103825283818151815260200191508051906020019080838360005b83811015610364578082015181840152602081019050610349565b50505050905090810190601f1680156103915780820380516001836020036101000a031916815260200191505b509250505060405180910390f35b34156103aa57600080fd5b6103d6600480803573ffffffffffffffffffffffffffffffffffffffff169060200190919050506113ed565b005b34156103e357600080fd5b6103eb61151e565b604051808273ffffffffffffffffffffffffffffffffffffffff1673ffffffffffffffffffffffffffffffffffffffff16815260200191505060405180910390f35b341561043857600080fd5b610464600480803573ffffffffffffffffffffffffffffffffffffffff16906020019091905050611543565b005b341561047157600080fd5b610479611674565b005b341561048657600080fd5b6104b2600480803573ffffffffffffffffffffffffffffffffffffffff16906020019091905050611746565b604051808215151515815260200191505060405180910390f35b34156104d757600080fd5b610520600480803573ffffffffffffffffffffffffffffffffffffffff169060200190919080359060200190919080359060200190820180359060200191909192905050611766565b005b341561052d57600080fd5b61053561176b565b604051808215151515815260200191505060405180910390f35b341561055a57600080fd5b610586600480803573ffffffffffffffffffffffffffffffffffffffff16906020019091905050611774565b005b341561059357600080fd5b6105bf600480803573ffffffffffffffffffffffffffffffffffffffff169060200190919050506118a5565b005b34156105cc57600080fd5b610601600480803573ffffffffffffffffffffffffffffffffffffffff16906020019091908035906020019091905050611a50565b005b341561060e57600080fd5b61063a600480803573ffffffffffffffffffffffffffffffffffffffff16906020019091905050611c1f565b005b60008060009054906101000a900473ffffffffffffffffffffffffffffffffffffffff1673ffffffffffffffffffffffffffffffffffffffff163373ffffffffffffffffffffffffffffffffffffffff1614151561069957600080fd5b8173ffffffffffffffffffffffffffffffffffffffff166370a08231306000604051602001526040518263ffffffff167c0100000000000000000000000000000000000000000000000000000000028152600401808273ffffffffffffffffffffffffffffffffffffffff1673ffffffffffffffffffffffffffffffffffffffff168152602001915050602060405180830381600087803b151561073c57600080fd5b6102c65a03f1151561074d57600080fd5b5050506040518051905090506107a56000809054906101000a900473ffffffffffffffffffffffffffffffffffffffff16828473ffffffffffffffffffffffffffffffffffffffff16611d749092919063ffffffff16565b5050565b604051806000019050604051809103902060001916848460405180838380828437820191505092505050604051809103902060001916141515156107ec57600080fd5b6040518060000190506040518091039020600019168282604051808383808284378201915050925050506040518091039020600019161415151561082f57600080fd5b604051806000019050604051809103902060001916600360003373ffffffffffffffffffffffffffffffffffffffff1673ffffffffffffffffffffffffffffffffffffffff16815260200190815260200160002060405180828054600181600116156101000203166002900480156108de5780601f106108bc5761010080835404028352918201916108de565b820191906000526020600020905b8154815290600101906020018083116108ca575b50509150506040518091039020600019161415156108fb57600080fd5b600073ffffffffffffffffffffffffffffffffffffffff166004600084846040518083838082843782019150509250505060405180910390206000191660001916815260200190815260200160002060009054906101000a900473ffffffffffffffffffffffffffffffffffffffff1673ffffffffffffffffffffffffffffffffffffffff1614151561098d57600080fd5b600a60009054906101000a900473ffffffffffffffffffffffffffffffffffffffff1673ffffffffffffffffffffffffffffffffffffffff1663f5d82b6b33670de0b6b3a76400006000604051602001526040518363ffffffff167c0100000000000000000000000000000000000000000000000000000000028152600401808373ffffffffffffffffffffffffffffffffffffffff1673ffffffffffffffffffffffffffffffffffffffff16815260200182815260200192505050602060405180830381600087803b1515610a6257600080fd5b6102c65a03f11515610a7357600080fd5b505050604051805190501515610a8857600080fd5b600960009054906101000a900473ffffffffffffffffffffffffffffffffffffffff1673ffffffffffffffffffffffffffffffffffffffff1663bd6b4ed9336000604051602001526040518263ffffffff167c0100000000000000000000000000000000000000000000000000000000028152600401808273ffffffffffffffffffffffffffffffffffffffff1673ffffffffffffffffffffffffffffffffffffffff168152602001915050602060405180830381600087803b1515610b4d57600080fd5b6102c65a03f11515610b5e57600080fd5b505050604051805190501515610b7357600080fd5b600960009054906101000a900473ffffffffffffffffffffffffffffffffffffffff1673ffffffffffffffffffffffffffffffffffffffff16637c137edd336040518263ffffffff167c0100000000000000000000000000000000000000000000000000000000028152600401808273ffffffffffffffffffffffffffffffffffffffff1673ffffffffffffffffffffffffffffffffffffffff168152602001915050600060405180830381600087803b1515610c2f57600080fd5b6102c65a03f11515610c4057600080fd5b505050600860009054906101000a900473ffffffffffffffffffffffffffffffffffffffff1673ffffffffffffffffffffffffffffffffffffffff1663b9c2f2403360056000604051602001526040518363ffffffff167c0100000000000000000000000000000000000000000000000000000000028152600401808373ffffffffffffffffffffffffffffffffffffffff1673ffffffffffffffffffffffffffffffffffffffff168152602001806020018281038252838181548152602001915080548015610d2f57602002820191906000526020600020905b815481526020019060010190808311610d1b575b50509350505050602060405180830381600087803b1515610d4f57600080fd5b6102c65a03f11515610d6057600080fd5b505050604051805190501515610d7557600080fd5b8383600360003373ffffffffffffffffffffffffffffffffffffffff1673ffffffffffffffffffffffffffffffffffffffff1681526020019081526020016000209190610dc3929190611e47565b50336004600084846040518083838082843782019150509250505060405180910390206000191660001916815260200190815260200160002060006101000a81548173ffffffffffffffffffffffffffffffffffffffff021916908373ffffffffffffffffffffffffffffffffffffffff1602179055503373ffffffffffffffffffffffffffffffffffffffff167f1891b576b055f29dd9fad1ba7c77c012c8923939ad8445793ba3b7e18b5c20d8858585856040518080602001806020018381038352878782818152602001925080828437820191505083810382528585828181526020019250808284378201915050965050505050505060405180910390a250505050565b6000809054906101000a900473ffffffffffffffffffffffffffffffffffffffff1673ffffffffffffffffffffffffffffffffffffffff163373ffffffffffffffffffffffffffffffffffffffff16141515610f2557600080fd5b8073ffffffffffffffffffffffffffffffffffffffff166319d6dfae6000604051602001526040518163ffffffff167c0100000000000000000000000000000000000000000000000000000000028152600401602060405180830381600087803b1515610f9157600080fd5b6102c65a03f11515610fa257600080fd5b505050604051805190501515610fb757600080fd5b80600860006101000a81548173ffffffffffffffffffffffffffffffffffffffff021916908373ffffffffffffffffffffffffffffffffffffffff16021790555050565b60008060009054906101000a900473ffffffffffffffffffffffffffffffffffffffff1673ffffffffffffffffffffffffffffffffffffffff163373ffffffffffffffffffffffffffffffffffffffff1614151561105857600080fd5b8190508073ffffffffffffffffffffffffffffffffffffffff1663f2fde38b6000809054906101000a900473ffffffffffffffffffffffffffffffffffffffff166040518263ffffffff167c0100000000000000000000000000000000000000000000000000000000028152600401808273ffffffffffffffffffffffffffffffffffffffff1673ffffffffffffffffffffffffffffffffffffffff168152602001915050600060405180830381600087803b151561111657600080fd5b6102c65a03f1151561112757600080fd5b5050505050565b6000809054906101000a900473ffffffffffffffffffffffffffffffffffffffff1673ffffffffffffffffffffffffffffffffffffffff163373ffffffffffffffffffffffffffffffffffffffff1614151561118957600080fd5b8060018190555050565b60015481565b60008060009054906101000a900473ffffffffffffffffffffffffffffffffffffffff1673ffffffffffffffffffffffffffffffffffffffff163373ffffffffffffffffffffffffffffffffffffffff161415156111f657600080fd5b60008383905011156112f357600090505b828290508110156112f257600660009054906101000a900473ffffffffffffffffffffffffffffffffffffffff1673ffffffffffffffffffffffffffffffffffffffff16636facbe2b848484818110151561125e57fe5b905060200201356000604051602001526040518263ffffffff167c010000000000000000000000000000000000000000000000000000000002815260040180828152602001915050602060405180830381600087803b15156112bf57600080fd5b6102c65a03f115156112d057600080fd5b5050506040518051905015156112e557600080fd5b8080600101915050611207565b5b828260059190611304929190611ec7565b50505050565b60046020528060005260406000206000915054906101000a900473ffffffffffffffffffffffffffffffffffffffff1681565b60036020528060005260406000206000915090508054600181600116156101000203166002900480601f0160208091040260200160405190810160405280929190818152602001828054600181600116156101000203166002900480156113e55780601f106113ba576101008083540402835291602001916113e5565b820191906000526020600020905b8154815290600101906020018083116113c857829003601f168201915b505050505081565b6000809054906101000a900473ffffffffffffffffffffffffffffffffffffffff1673ffffffffffffffffffffffffffffffffffffffff163373ffffffffffffffffffffffffffffffffffffffff1614151561144857600080fd5b8073ffffffffffffffffffffffffffffffffffffffff1663c0d7e07b6000604051602001526040518163ffffffff167c0100000000000000000000000000000000000000000000000000000000028152600401602060405180830381600087803b15156114b457600080fd5b6102c65a03f115156114c557600080fd5b5050506040518051905015156114da57600080fd5b80600a60006101000a81548173ffffffffffffffffffffffffffffffffffffffff021916908373ffffffffffffffffffffffffffffffffffffffff16021790555050565b6000809054906101000a900473ffffffffffffffffffffffffffffffffffffffff1681565b6000809054906101000a900473ffffffffffffffffffffffffffffffffffffffff1673ffffffffffffffffffffffffffffffffffffffff163373ffffffffffffffffffffffffffffffffffffffff1614151561159e57600080fd5b8073ffffffffffffffffffffffffffffffffffffffff16633769feef6000604051602001526040518163ffffffff167c0100000000000000000000000000000000000000000000000000000000028152600401602060405180830381600087803b151561160a57600080fd5b6102c65a03f1151561161b57600080fd5b50505060405180519050151561163057600080fd5b80600660006101000a81548173ffffffffffffffffffffffffffffffffffffffff021916908373ffffffffffffffffffffffffffffffffffffffff16021790555050565b6000809054906101000a900473ffffffffffffffffffffffffffffffffffffffff1673ffffffffffffffffffffffffffffffffffffffff163373ffffffffffffffffffffffffffffffffffffffff161415156116cf57600080fd5b6000809054906101000a900473ffffffffffffffffffffffffffffffffffffffff1673ffffffffffffffffffffffffffffffffffffffff166108fc3073ffffffffffffffffffffffffffffffffffffffff16319081150290604051600060405180830381858888f19350505050151561174457fe5b565b60026020528060005260406000206000915054906101000a900460ff1681565b600080fd5b60006001905090565b6000809054906101000a900473ffffffffffffffffffffffffffffffffffffffff1673ffffffffffffffffffffffffffffffffffffffff163373ffffffffffffffffffffffffffffffffffffffff161415156117cf57600080fd5b8073ffffffffffffffffffffffffffffffffffffffff1663f229a4156000604051602001526040518163ffffffff167c0100000000000000000000000000000000000000000000000000000000028152600401602060405180830381600087803b151561183b57600080fd5b6102c65a03f1151561184c57600080fd5b50505060405180519050151561186157600080fd5b80600960006101000a81548173ffffffffffffffffffffffffffffffffffffffff021916908373ffffffffffffffffffffffffffffffffffffffff16021790555050565b60011515600260003373ffffffffffffffffffffffffffffffffffffffff1673ffffffffffffffffffffffffffffffffffffffff16815260200190815260200160002060009054906101000a900460ff1615151415151561190557600080fd5b6001548173ffffffffffffffffffffffffffffffffffffffff166354fd4d506000604051602001526040518163ffffffff167c0100000000000000000000000000000000000000000000000000000000028152600401602060405180830381600087803b151561197457600080fd5b6102c65a03f1151561198557600080fd5b5050506040518051905011151561199b57600080fd5b6001600260003373ffffffffffffffffffffffffffffffffffffffff1673ffffffffffffffffffffffffffffffffffffffff16815260200190815260200160002060006101000a81548160ff0219169083151502179055508073ffffffffffffffffffffffffffffffffffffffff163373ffffffffffffffffffffffffffffffffffffffff167fc123aa2e5c63456c59a4694ac50ba610152278a01162f3d5e3a6ffc457bc586e60405160405180910390a350565b6000809054906101000a900473ffffffffffffffffffffffffffffffffffffffff1673ffffffffffffffffffffffffffffffffffffffff163373ffffffffffffffffffffffffffffffffffffffff16141515611aab57600080fd5b8173ffffffffffffffffffffffffffffffffffffffff1663c19d6f5f6000604051602001526040518163ffffffff167c0100000000000000000000000000000000000000000000000000000000028152600401602060405180830381600087803b1515611b1757600080fd5b6102c65a03f11515611b2857600080fd5b505050604051805190501515611b3d57600080fd5b8173ffffffffffffffffffffffffffffffffffffffff166354fd4d506000604051602001526040518163ffffffff167c0100000000000000000000000000000000000000000000000000000000028152600401602060405180830381600087803b1515611ba957600080fd5b6102c65a03f11515611bba57600080fd5b5050506040518051905081111515611bd157600080fd5b81600760006101000a81548173ffffffffffffffffffffffffffffffffffffffff021916908373ffffffffffffffffffffffffffffffffffffffff160217905550611c1b8161112e565b5050565b6000809054906101000a900473ffffffffffffffffffffffffffffffffffffffff1673ffffffffffffffffffffffffffffffffffffffff163373ffffffffffffffffffffffffffffffffffffffff16141515611c7a57600080fd5b600073ffffffffffffffffffffffffffffffffffffffff168173ffffffffffffffffffffffffffffffffffffffff1614151515611cb657600080fd5b8073ffffffffffffffffffffffffffffffffffffffff166000809054906101000a900473ffffffffffffffffffffffffffffffffffffffff1673ffffffffffffffffffffffffffffffffffffffff167f8be0079c531659141344cd1fd0a4f28419497f9722a3daafe3b4186f6b6457e060405160405180910390a3806000806101000a81548173ffffffffffffffffffffffffffffffffffffffff021916908373ffffffffffffffffffffffffffffffffffffffff16021790555050565b8273ffffffffffffffffffffffffffffffffffffffff1663a9059cbb83836000604051602001526040518363ffffffff167c0100000000000000000000000000000000000000000000000000000000028152600401808373ffffffffffffffffffffffffffffffffffffffff1673ffffffffffffffffffffffffffffffffffffffff16815260200182815260200192505050602060405180830381600087803b1515611e1f57600080fd5b6102c65a03f11515611e3057600080fd5b505050604051805190501515611e4257fe5b505050565b828054600181600116156101000203166002900490600052602060002090601f016020900481019282601f10611e8857803560ff1916838001178555611eb6565b82800160010185558215611eb6579182015b82811115611eb5578235825591602001919060010190611e9a565b5b509050611ec39190611f14565b5090565b828054828255906000526020600020908101928215611f03579160200282015b82811115611f02578235825591602001919060010190611ee7565b5b509050611f109190611f14565b5090565b611f3691905b80821115611f32576000816000905550600101611f1a565b5090565b905600a165627a7a72305820884c2ffb44013e2f1baadaa974c5694ff0c5257be49e4932bf94c40d0292e1de0029",
  "source": "pragma solidity ^0.4.18;\n\nimport 'zeppelin-solidity/contracts/token/ERC20Basic.sol';\nimport 'zeppelin-solidity/contracts/ownership/NoOwner.sol';\nimport './UserBuildings.sol';\nimport './UserResources.sol';\nimport './UserVault.sol';\nimport './BuildingsData.sol';\nimport './Versioned.sol';\n\n/**\n * @title UserVillage (WIP)\n * @dev Manages the user village.\n * Additional functionality might be added to allow the village to be destroyed,\n * transferred to another user, paused and un-paused.\n * @dev Issue: * https://github.com/e11-io/crypto-wars-solidity/issues/1\n */\ncontract UserVillage is NoOwner, Versioned {\n\n\t/**\n   * @dev event for village creation logging\n   * @param owner who created the village\n\t * @param name the name of the village\n   * @param username the username of the owner\n   */\n\tevent VillageCreated(address indexed owner, string name, string username);\n\n\t// Mapping of user -> village name (keeps track of owned villages)\n\tmapping(address => string) public villages;\n\t// Mapping of username -> user (useful for quick lookup)\n\tmapping(bytes32 => address) public addresses;\n\n\t// Vault contract used to store in-game currency.\n\tuint[] initialBuildingsIds;\n\n\tBuildingsData buildingsData;\n\tUserVillage previousUserVillage;\n\tUserBuildings userBuildings;\n\tUserResources userResources;\n\tUserVault userVault;\n\n\t/**\n   * @dev UserVillage Constructor: Instantiate User Village contract.\n   */\n\tfunction UserVillage() public {\n\t}\n\n\t/**\n\t * @notice Makes the contract type verifiable.\n\t * @dev Function to prove the contract is User Village.\n\t */\n\tfunction isUserVillage() external pure returns (bool) {\n\t\treturn true;\n\t}\n\n\t/**\n\t * @notice Sets the contract's version and instantiates the previous version contract.\n\t * @dev Function to set the contract version and instantiate the previous User Buildings.\n\t * @param _previousUserVillage the address of previous User Village contract. (address)\n\t * @param _version the current contract version number. (uint)\n\t */\n\tfunction setUserVillageVersion(UserVillage _previousUserVillage, uint _version) external onlyOwner {\n\t\trequire(_previousUserVillage.isUserVillage());\n\t\trequire(_version > _previousUserVillage.version());\n\t\tpreviousUserVillage = _previousUserVillage;\n\t\tsetVersion(_version);\n\t}\n\n\t/**\n   * @notice Instantiate Buildings Data contract.\n   * @dev Function to provide Buildings Data address and instantiate it.\n   * @param _buildingsData the address of Buildings Data contract. (address)\n   */\n  function setBuildingsData(BuildingsData _buildingsData) external onlyOwner {\n\t\trequire(_buildingsData.isBuildingsData());\n    buildingsData = _buildingsData;\n  }\n\n\t/*\n   * @title Instantiate User Buildings contract.\n   * @dev Function to provide User Buildings address and instantiate it.\n   * @param _userBuildings the address of User Buildings contract. (address)\n   */\n\tfunction setUserBuildings(UserBuildings _userBuildings) external onlyOwner {\n\t\trequire(_userBuildings.isUserBuildings());\n\t\tuserBuildings = _userBuildings;\n\t}\n\n\t/**\n   * @notice Instantiate User Resources contract.\n   * @dev Function to provide User Resources address and instantiate it.\n   * @param _userResources the address of User Resources contract. (address)\n   */\n  function setUserResources(UserResources _userResources) external onlyOwner {\n    require(_userResources.isUserResources());\n    userResources = _userResources;\n  }\n\n\t/**\n   * @notice Instantiate User Vault contract.\n   * @dev Function to provide User Vault address and instantiate it.\n   * @param _userVault the address of User Vault contract. (address)\n   */\n  function setUserVault(UserVault _userVault) external onlyOwner {\n    require(_userVault.isUserVault());\n    userVault = _userVault;\n  }\n\n\n\n\n\t/**\n   * @notice Creates a new village\n   * @dev Function to create a village\n   * @param _name The name of the new village. (Not-Empty)\n   * @param _username The name of the new user. (Not-Empty Unique)\n   */\n  function create(string _name, string _username) external {\n    require(keccak256(_name) != keccak256(\"\")); // 'invalid_village_name'\n    require(keccak256(_username) != keccak256(\"\")); // 'invalid_user_name'\n\t\trequire(keccak256(villages[msg.sender]) == keccak256(\"\")); // 'user_already_has_village'\n\t\trequire(addresses[keccak256(_username)] == address(0)); // 'user_name_already_in_use'\n\n\t\t// Check and Transfer user's token.\n\t\trequire(userVault.add(msg.sender, 1 ether)); // 'could_not_transfer_tokens'\n\t\trequire(userResources.initUserResources(msg.sender));\n\t\tuserResources.initPayoutBlock(msg.sender);\n\t\trequire(userBuildings.addInitialBuildings(msg.sender, initialBuildingsIds));\n\n\t\tvillages[msg.sender] = _name;\n\t\taddresses[keccak256(_username)] = msg.sender;\n\t\tVillageCreated(msg.sender, _name, _username);\n  }\n\n\t/**\n   * @notice Set Initial Buildings\n   * @dev Function to set the array with the initial buildings ids.\n   * @param _ids The ids of the buildings (uint[])\n   */\n\tfunction setInitialBuildings(uint[] _ids) external onlyOwner {\n\t\tif (_ids.length > 0) {\n\t\t\tfor (uint i = 0; i < _ids.length; i++) {\n\t\t\t\trequire(buildingsData.checkBuildingExist(_ids[i]));\n\t\t\t}\n\t\t}\n\n\t\tinitialBuildingsIds = _ids;\n\t}\n\n}\n",
  "sourcePath": "/home/francisco/Truffle/crypto-wars-solidity/contracts/UserVillage.sol",
  "compiler": {
    "name": "solc",
    "version": "0.4.19+commit.c4cbbb05.Emscripten.clang"
  },
  "schemaVersion": "2.0.0",
  "updatedAt": "2018-03-22T14:36:23.932Z"
}